:100000000C9473000C94B9000C94B9000C94B900D2
:100010000C94B9000C94B9000C94405F0C94B90096
:100020000C94B9000C94B9000C94B9000C94B9006C
:100030000C94B9000C94B9000C94B9000C9486513E
:100040000C94B9000C94B9000C94A95F0C940B604B
:100050000C94B9000C94B9000C94B9000C94B9003C
:100060000C94B9000C94B9000C94B9000C94B9002C
:100070000C94B9000C94B9000C94B9000C94B9001C
:100080000C94B9000C94B9000C94B900BA62BD622A
:10009000C062C862CB62CE62D162D462DB620663A8
:1000A0002B63306335633A633F6349634D63506349
:1000B0005A636463B762B762B762B76288638B637F
:1000C0008E639F63A263AC63B762AF63B763BA63C7
:1000D000C263C563CD63D063D863B762B762B762EA
:1000E000B7626863766380EC85BF87E089B98093E7
:1000F000990011241FBECFEFD0E1DEBFCDBF16E0C7
:10010000A0E0B1E0E8ECFFEC00E00BBF02C007901C
:100110000D92A63EB107D9F718E0A6EEB6E001C0F1
:100120001D92A234B107E1F78FEF9FE79EBF8DBF0D
:100130008FEF9FE7825498408158914050F04FEFE5
:100140005EE74254584085E098E062E478E00E941F
:100150009E350E94953D8EED94E06AE873E040E0A4
:1001600050E020E830E00E94AA4F0E9400000C946A
:10017000E2670C9400002F923F924F925F926F9231
:100180007F928F929F92AF92BF92CF92DF92EF9227
:10019000FF920F931F93DF93CF9300D000D0CDB782
:1001A000DEB780E092ECA1E0B0E089839A83AB8374
:1001B000BC8384E096E060E070E040E00E94583D3F
:1001C0004091590550915A0580E091E066E071E058
:1001D0000E940C3F8091590590915A050E94763EED
:1001E00061E071E0AE014F5F5F4F0E94BA3D0E9437
:1001F000D53400D000D028E031E0ADB7BEB71296BC
:100200003C932E93119714969C938E9313970E9470
:10021000CA3F85E191E0EDB7FEB7928381838BE21F
:1002200091E0948383830E94CA3F81E391E0ADB75C
:10023000BEB712969C938E93119701E411E0149629
:100240001C930E9313970E94CA3F0F900F900F902C
:100250000F9085E896E060E070E040E00E94583D35
:10026000892B29F086E491E00E94E33FFFCFC8018B
:1002700060E070E020E63AEE40E050E00E94A20428
:10028000892B29F08DE491E00E94E33FFFCF60913C
:10029000EF077091F0078091F1079091F2070E94AB
:1002A0001D1B00D000D02CE631E0EDB7FEB7328345
:1002B0002183948383830E94CA3F0F900F900F90F5
:1002C0000F908EE791E00E94E33F80E090E00E9473
:1002D0002A406093E6067093E7068093E8069093C1
:1002E000E90689ED282E82E0382E0E9441162C0165
:1002F0000097D9F300D0EAE9F1E0ADB7BEB71296A6
:10030000FC93EE9311970E94CA3F0F900F90C20189
:1003100067E170E00E94B315892B09F0E9C189EB10
:1003200091E00E94E33FC20163EC71E00E940D3E48
:100330004C01009709F4D9C181E290E00E949840F5
:100340003C01009709F4CDC187EC91E0B4010E9413
:10035000BA3FC4010E94643EC30160E270E0A401A0
:100360000E947E3F892B09F4B9C1C3016DE070E0A2
:100370000E948967FC01009709F01082C3016AE0BE
:1003800070E00E948967FC01009709F01082630108
:1003900003C00894C11CD11CD6011C91812F992740
:1003A00087FD90950E943E67892B99F7112389F26A
:1003B000C60160E270E00E948967009769F1FC0164
:1003C00011928F0102C00F5F1F4FD801FC908F2D3B
:1003D000992787FD90950E943E67892BA1F7FF2002
:1003E000D9F0C80160E270E00E9489670097C9F007
:1003F000FC0111925F0103C00894A11CB11CD5013E
:10040000FC908F2D992787FD90950E943E67892B40
:1004100099F7FF2041F405C0AA24BB2400E010E0B6
:1004200002C0AA24BB24C114D10409F492CFD6017E
:100430000D900020E9F77D010894E108F108EC181F
:10044000FD08C60165EF71E0A7010E94A46700974F
:10045000E1F485E098E00E94AF3500D000D000D0F4
:10046000EDB7FEB73196ADB7BEB712969C928E929D
:1004700011972AEF31E033832283958384830E948E
:10048000A93F8DB79EB70696F4C0C60162E172E03F
:10049000A7010E94A467009701F50115110559F005
:1004A000C8010E94CB1A6F3FAFEF7A07AFEF8A0700
:1004B000AFEF9A0719F485E192E048CF6093FB070C
:1004C0007093FC078093FD079093FE070E94551ED2
:1004D000892B41F589E592E039CFC60163E772E0E7
:1004E000A7010E94A467009719F50115110559F09D
:1004F000C8010E94CB1A6F3FBFEF7B07BFEF8B078E
:10050000BFEF9B0719F488E792E020CF6093F307D1
:100510007093F4078093F5079093F6070E94551E99
:10052000892B19F086E392E011CF86E992E00ECF95
:10053000C60160EB72E0A7010E94A4670097B9F5BD
:100540000115110519F4EE24FF2404C0C8010E940E
:1005500020677C01A114B10419F400E010E004C08C
:10056000C5010E9420678C01C701B8010E941E5A74
:10057000EDB7FEB73A970FB6F894FEBF0FBEEDBFCA
:100580003196ADB7BEB712969C928E92119724EB1E
:1005900032E03383228395838483F782E682118756
:1005A00000870E94A93F8DB79EB70A9662C0C60118
:1005B00064ED72E0A7010E94A467009731F5011570
:1005C0001105E1F000D000D0ADB7BEB712963C9255
:1005D0002E92119714961C930E9313970E94CA3F64
:1005E0002CED32E0EDB7FEB732832183B482A382D3
:1005F0000E94CA3F0F900F900F900F908AE090E0FA
:100600000E94DC3F80EE92E0A1CEC60163EF72E073
:10061000A7010E94A467009791F580E090E00E94F6
:100620002A40ADB7BEB718970FB6F894BEBF0FBE3D
:10063000ADBFEDB7FEB7319612969C928E92119790
:100640002AEF32E0338322832091E6063091E706D9
:100650004091E8065091E906621B730B840B950BE1
:1006600064837583868397830E94A93F8DB79EB765
:1006700008960FB6F8949EBF0FBE8DBF6ACEC60116
:1006800064E173E0A7010E94A467009799F48AE1EE
:1006900093E0B4010E94BA3FC4010E94643E68EE38
:1006A00073E080E090E00E94883A0E94D04E8DE294
:1006B00093E04CCEC60160E573E0A7010E94A467F9
:1006C000009749F485E593E0B4010E94BA3FC40164
:1006D0000E94643E03C08FE593E038CEC3010E94C0
:1006E0009240C4010E94CF3D07C087EB94E002C056
:1006F00086E491E00E94E33FC2010E94181581ED5B
:1007000094E00E94E33FF1CD9091E8048093E804E7
:10071000892F08950E94653B83EE94E06BEB70E0B7
:1007200040E050E020E034E00E94AA4F8EEF0E94AB
:10073000F5370E9475380E94BD372091E8042F3F9D
:10074000C1F395B785B7837E822B85BF85B780625D
:1007500085BF889585B78F7D85BF85B79C71837E62
:10076000982B95BFE6CF8091EF0690E00895809199
:10077000F0069091F1061092F1061092F00608959D
:1007800020E030E08091EF06853011F421E030E088
:10079000C9010895DF92EF92FF920F931F93CF93B9
:1007A000DF93D62E79018A010E943C3DEC0100972F
:1007B00051F08B85833039F4EF85F889309719F043
:1007C0008081863049F081E190E09093F10680933A
:1007D000F0062FEF3FEF35C00E9489396093FA068B
:1007E0007093FB068093FC069093FD06E092F6065C
:1007F000F092F7060093F8061093F906D092EF06F0
:100800008091ED069091EE06892B69F489EE94E0D3
:1008100067E479E0AE0120E231E00E94AA4F9093B4
:10082000EE068093ED0682EF96E00E94723C84EF24
:1008300096E040E050E060E070E00E94C73C20E0BD
:1008400030E0C901DF91CF911F910F91FF90EF90A0
:10085000DF900895FC019A01AB018091EF06882397
:1008600049F083E090E09093F1068093F0062FEF3B
:100870003FEF05C0CF0168E00E94CA039C01C90197
:100880000895FC019A01AB018091EF06853049F093
:1008900083E090E09093F1068093F0062FEF3FEF16
:1008A00005C0CF0169E00E94CA039C01C9010895F7
:1008B000CF92DF92EF92FF920F931F93CF93DF932C
:1008C000FC0184E292E0DF01EC011D922197E9F73F
:1008D00081E08083818386E08283EF016C96A9EEBC
:1008E000B7E00D9009928150E1F724833583468368
:1008F00057830C2CCD2CD02CD186C086E486F5866F
:1009000006871787E451FF4F93E69193DF0182E852
:10091000819383E511968C93DF0111969183FD01FC
:10092000319685E311968C9381E08183628387E021
:1009300090E0DF91CF911F910F91FF90EF90DF90AA
:10094000CF9008954F925F926F927F928F929F9275
:10095000AF92BF92CF92DF92EF92FF920F931F93CD
:10096000DF93CF93CDB7DEB760970FB6F894DEBFB5
:100970000FBECDBF4C012B012D873E874F87588B73
:100980000E943C3D5C01009769F0FC018385833047
:1009900049F4C784D088C114D10421F0F6018081C4
:1009A000863019F081E190E03BC08E010F5F1F4F50
:1009B000F80111928A95E9F797E0692E712C6C0E77
:1009C0007D1EC3016FEF70E046E050E00E94826739
:1009D00085E0E82EF12CEC0CFD1CC701B80146E0C7
:1009E00050E00E946C67009741F0C701B30146E0F8
:1009F00050E00E946C67009731F54114510449F0B2
:100A0000A9EEB7E0F20186E001900D928150E1F786
:100A10000CC0C4010E94691E892B39F082E090E06D
:100A20009093F1068093F006BFC0D701E9EEF7E09E
:100A300086E001900D928150E1F764EF71E080E073
:100A400090E00E94883AF601138614861586168671
:100A50008091F3079091F407A091F507B091F60704
:100A6000838B948BA58BB68B8091F3079091F407C1
:100A7000A091F507B091F6072091FB073091FC0794
:100A80004091FD075091FE0782239323A423B523B1
:100A90000097A105B10501F1C40140EE5EE260E0FE
:100AA00070E00E9441042091FB073091FC074091C7
:100AB000FD075091FE072093EF073093F007409316
:100AC000F1075093F207E090F307F090F4070091DC
:100AD000F5071091F60758C0C40161E02D853E85E9
:100AE0004F8558890E94CA03892B09F05DC0809107
:100AF000EF06853031F5E091EB06F091EC0641818F
:100B00005281638174810581168127813085C58476
:100B1000D684E784F088C5010E946F1CE091EB0643
:100B2000F091EC062189328943895489E588F68859
:100B30000789108D80E090E060E070E00E948C10EA
:100B400030C0F60183859485A585B6850097A105FB
:100B5000B10539F52091EF073091F0074091F10789
:100B60005091F207E090F307F090F4070091F50739
:100B70001091F607D801C70182239323A423B5233C
:100B80000097A105B10581F0A090F707B090F80794
:100B9000C090F907D090FA07C40169EE77E00E948F
:100BA0006C1D20E030E002C02FEF3FEFC9016096DE
:100BB0000FB6F894DEBF0FBECDBFCF91DF911F916E
:100BC0000F91FF90EF90DF90CF90BF90AF909F90EC
:100BD0008F907F906F905F904F900895CF93DF93A9
:100BE000EC01009779F089A59AA5009711F00E9471
:100BF00092408BA59CA5009711F00E949240CE01D7
:100C00000E949240DF91CF910895EF92FF920F934F
:100C10001F93CF93DF938C01F62EE72EEA01DC01C0
:100C20008D919C91009711F00E949240CE01019607
:100C30000E949840F80191838083009769F0209783
:100C400029F06F2D7E2DAE010E947967D801ED91BC
:100C5000FC91EC0FFD1F1082DF91CF911F910F913E
:100C6000FF90EF9008954F925F926F927F928F92D4
:100C70009F92BF92CF92DF92EF92FF920F931F93BA
:100C8000CF93DF938C017B018DE290E00E9498402E
:100C9000EC014C01009709F45BC18DE2FE01119259
:100CA0008A95E9F780EC98EAA0E0B0E08DA39EA3D6
:100CB000AFA3B8A7F80180899189A289B3898983F4
:100CC0009A83AB83BC8300511F4F80E19FEFE80EF6
:100CD000F91E69E2462E512C4C0E5D1E5BE2652E1C
:100CE000712C6C0E7D1EE5C0332331F40F5F1F4F56
:100CF0000894E108F108DDC0F801B180CB2CDD24B7
:100D0000EC14FD040CF4E3C0353341F4F1E0BF16FC
:100D100009F0DDC0F80182818883C0C03C3029F42D
:100D2000B8016E5F7F4FC20106C03F3041F4B80189
:100D30006E5F7F4FC301A6010E940506AFC0F3E0BE
:100D4000FB1508F0ABC0F8012281838190E0A0E0A0
:100D5000B0E04427582F692F7A2F848190E0A0E0DB
:100D6000B0E0DC0199278827480F591F6A1F7B1FB5
:100D7000420F511D611D711D858190E0A0E0B0E022
:100D8000B82FAA2799278827480F591F6A1F7B1F4A
:100D9000313029F44D835E836F8378877FC03C3187
:100DA00029F449875A876B877C8778C0333029F4C8
:100DB0004D875E876F87788B71C0363009F041C0F0
:100DC000498B5A8B6B8B7C8BF7E0FB1508F066C068
:100DD000F801268130E040E050E02D8B3E8B4F8BB8
:100DE000588F878190E0A0E0B0E0BA2FA92F982F0C
:100DF0008827820F931FA41FB51F8D8B9E8BAF8BEF
:100E0000B88F208530E040E050E0A9013327222749
:100E1000280F391F4A1F5B1F2D8B3E8B4F8B588F1E
:100E2000818590E0A0E0B0E0B82FAA279927882715
:100E3000280F391F4A1F5B1F2D8B3E8B4F8B588FFE
:100E40002DC0363329F4498F5A8F6B8F7C8F26C083
:100E50003A3359F4042E472F702D052E562F602D4E
:100E60004D8F5E8F6F8F78A319C03B3359F4042EDA
:100E7000472F702D052E562F602D49A35AA36BA323
:100E80007CA30CC0333351F4042E472F702D052E54
:100E9000562F602D4DA35EA36FA378A78B2D90E0F6
:100EA0000296080F191F8EEF9FEFE80EF91EEC183F
:100EB000FD08F80130813F3F09F45BC01E141F0498
:100EC0000CF412CF04C0853041F0863031F0CE01F1
:100ED0000E94EE05882499243BC08D8D9E8DAF8D98
:100EE000B8A10097A105B10561F48DA19EA1AFA1A4
:100EF000B8A5B695A795979587958D8F9E8FAF8F3F
:100F0000B8A389A19AA1ABA1BCA10097A105B10585
:100F1000F9F48D8D9E8DAF8DB8A19C01AD015695D4
:100F20004795379527957C018D0162E016950795C9
:100F3000F794E7946A95D1F72E0D3F1D401F511F7E
:100F4000280F391F4A1F5B1F29A33AA34BA35CA399
:100F5000C401DF91CF911F910F91FF90EF90DF902F
:100F6000CF90BF909F908F907F906F905F904F90A9
:100F700008958881823009F0A6CFAFCFEF92FF921B
:100F80000F931F937C01D901F901E00FF11FE45188
:100F9000FF4F8FEF8083F801E351FF4F81E0EC3288
:100FA000F80710F4ECE2F1E0C70123E430E08D0132
:100FB0007F010E94171897FD03C020E030E008C0B1
:100FC00083E190E09093F1068093F0062FEF3FEFDE
:100FD000C9011F910F91FF90EF9008952F923F92BA
:100FE0004F925F926F927F928F929F92AF92BF9239
:100FF000CF92DF92EF92FF920F931F93DF93CF93E5
:10100000CDB7DEB71C012A013B014901A8019701B8
:1010100086017501C40163E0CD8CDE8C0E9458040A
:101020009C018D899E89AF89B88D0097A105B10576
:10103000C1F0F401E20FF31FE451FF4F82E380831C
:1010400024513F4FF401E20FF31F84E081838D8927
:101050009E89AF89B88D82839383A483B583265EEE
:101060003040898D9A8DAB8DBC8D0097A105B1055F
:10107000C1F0F401E20FF31FE451FF4F86E38083D8
:1010800024513F4FF401E20FF31F84E08183898DE7
:101090009A8DAB8DBC8D82839383A483B583265EAA
:1010A0003040F401E20FF31FE451FF4F87E38083E8
:1010B00024513F4FF401E20FF31F2C5E3040DF015B
:1010C000119693E09183FD01319681E011968C9306
:1010D000918386E0828375E0E72EF12CE20EF31E09
:1010E0004CE158E0DA010D900020E9F7AD51B8402D
:1010F0001A161B06D4F40A2FF401EE0DFF1DE4515D
:10110000FF4F8CE08083F901EF50FF4FE80DF91D90
:10111000A1833296CF01BA014A2F50E00E9479672D
:1011200010E00E5F1F4FE00EF11EC101B301A201DE
:10113000940187010E94BE07CF91DF911F910F910B
:10114000FF90EF90DF90CF90BF90AF909F908F90E7
:101150007F906F905F904F903F902F9008952F92C7
:101160003F924F925F926F927F928F929F92AF9237
:10117000BF92CF92DF92EF92FF920F931F93DF9374
:10118000CF93CDB7DEB760970FB6F894DEBF0FBE32
:10119000CDBF9C878B874D875E876F87788B3901A2
:1011A000470158010E9489396F83788789879A8718
:1011B00067017801E6E02E2EEFEF3E2EEFEF4E2E88
:1011C000EFEF5E2E280C391C4A1C5B1C8B859C851E
:1011D000BE016D5F7F4FAE014F5F5F4F930104E231
:1011E00012E00E94AC179C01181619064CF00097EB
:1011F000A1F184E190E09093F1068093F0062DC078
:10120000823F910588F0F3018081823069F4848106
:101210009581A681B7814D855E856F857889841714
:101220009507A607B707C9F00E9489392F8138852D
:1012300049855A85621B730B840B950B62157305E8
:101240008405950518F020E030E007C075016401C1
:10125000C61AD70AE80AF90AB9CFC90160960FB6CB
:10126000F894DEBF0FBECDBFCF91DF911F910F91DC
:10127000FF90EF90DF90CF90BF90AF909F908F90B6
:101280007F906F905F904F903F902F900895DF93E5
:10129000CF93CDB7DEB7A0970FB6F894DEBF0FBEE1
:1012A000CDBF8C010E94F5396B8B7C8B8D8B9E8B17
:1012B0002091EF073091F0074091F1075091F2072C
:1012C0002B873C874D875E87D8011F960D90BC9178
:1012D000A02DBA8FA98F1A968C9190E0A0E0B0E073
:1012E000BA2FA92F982F8827E98DFA8D2185820F93
:1012F000911DA11DB11DBA2FA92F982F88272085D8
:10130000820F911DA11DB11D2227382F492F5A2F61
:101310008781280F311D411D511D2B8F3C8F4D8F13
:101320005E8F18A21F8E66247724188E1F8A1F8650
:10133000188A198A1A8A992430EA232E3FE0332E1C
:10134000412C512C01C0982C9920E1F0220C331C27
:10135000441C551C31E023163AEF330630E04306B7
:1013600030E0530630F0212C9AEF392E412C512CCD
:1013700038C02FEF3FEF4FEF5FEF2F83388749875C
:101380005A8737C08091EF06833059F08B8D9C8D42
:10139000AD8DBE8D0196A11DB11D8B8F9C8FAD8F24
:1013A000BE8FE091EB06F091EC063097A1F0218D15
:1013B000328D438D548D2F83388749875A87211565
:1013C00031054105510539F080EA282E8FE0382E8D
:1013D000412C512C0EC000EA202E0FE0302E412C63
:1013E000512C8FEF9FEFAFEFBFEF8F839887A987C7
:1013F000BA878091EF068823D9F18091F606909103
:10140000F706A091F806B091F9060097A105B1057D
:1014100079F10E9489399B01AC018091FA06909183
:10142000FB06A091FC06B091FD06281B390B4A0B68
:101430005B0B6091F6067091F7068091F80690912B
:10144000F906261737074807590738F0A1E0B0E03A
:10145000B093F106A093F00618C6621B730B840BC1
:10146000950B621573058405950510F41B012C017D
:101470008091EF06823021F0863011F0873041F5FF
:101480009920F1F00E94F5392B893C894D895E89BC
:10149000621B730B840B950B605070408140904031
:1014A00028F04FEF5FEF588F4F8B12C00E94F53935
:1014B000DB01EB89FC89AE1BBF0BB88FAF8B08C07B
:1014C0000E94F5396B8B7C8B8D8B9E8B188E1F8ABF
:1014D0008091EF06853011F08823B1F42F8D38A16B
:1014E0002115310519F0C9010E947D17611471049D
:1014F00019F418A21F8E4CC0C3010E94924018A27A
:101500001F8E6624772444C08091EB069091EC06F0
:10151000892B59F4E98DFA8D83859485A585B68547
:101520000097A105B10509F0B0C52F8D38A1232B77
:1015300021F06114710461F509C084E490E00E9417
:101540005D1898A38F8F6114710429F484E292E0EE
:101550000E9498403C014F8D58A1452B19F0611411
:10156000710439F482E190E09093F1068093F006E3
:101570008CC580EC96E09A8389838F8D98A162E078
:1015800070E1AE014F5F5F4F22E030E00E942B1709
:101590008091EF06813031F52B8D3C8D4D8D5E8D28
:1015A0002F5F3F4F4F4F5F4F2B8F3C8F4D8F5E8F85
:1015B0008091F3079091F407A091F507B091F60799
:1015C0002B853C854D855E8582239323A423B523FB
:1015D0000097A105B10511F432E073C244E04093D5
:1015E000EF0671C2823009F05AC1B92CB39453E0AE
:1015F0005915C8F48091EB069091EC06892B61F0A7
:1016000085E08093EF062B893C894D895E892F8781
:10161000388B498B5A8B7BC541E050E05093F106E3
:101620004093F0062FC18B859C85AD85BE858B834D
:101630009C83AD83BE83C30161E02B8D3C8D4D8DBA
:101640005E8DEE24FF248701CF88D88C0E94580439
:101650009C018B819C81AD81BE810097A105B10564
:10166000C1F0F301E20FF31FE451FF4F92E39083C7
:1016700024513F4FF301E20FF31FA4E0A1838B81BC
:101680009C81AD81BE8182839383A483B583265ED2
:101690003040F301E20FF31FE451FF4FB7E3B08393
:1016A00024513F4FF301E20FF31F2C5E3040DF0166
:1016B000119643E04183FD01319651E011965C9310
:1016C000418386E0828315E0E12EF12CE20EF31EC9
:1016D000ACE1B8E00D900020E9F7AD51B8401A1622
:1016E0001B06E4F40A2FF301EE0DFF1DE451FF4F3A
:1016F0009CE09083F901EF50FF4FE60DF71DA183A9
:101700003296CF01ECE1F8E0BF014A2F50E00E9491
:10171000796710E00E5F1F4FE00EF11E20E432E00B
:101720003A832983F301EE0DFF1DE451FF4F39E3A6
:1017300030834CEE50E0E40EF51EF301EE0DFF1D7C
:1017400052E0518389819A81082E892F902D9A83A6
:10175000898331969283818388E19FEFE80EF91E99
:101760008F8D98A14FEF5FEF6FEF7FEF93018701B0
:101770000E94BE0797FF74C085C0E090EB06F09012
:10178000EC06C3010E9433068C01009709F44EC099
:10179000DC018C91823009F046C0E114F10409F4B7
:1017A00046C02091EF073091F0074091F10750912A
:1017B000F2078091F3079091F407A091F507B0919B
:1017C000F60782239323A423B5230097A105B1052F
:1017D000A9F0F70181819281A381B48182179307D7
:1017E000A407B50719F1F80181819281A381B48121
:1017F00082179307A407B507C9F411C0D8019596BD
:101800002D913D914D915C919897F70185A196A1FD
:10181000A7A1B0A582179307A407B50720F4C701B5
:101820000E94EE0504C0C8010E94EE0587011093D6
:10183000EC060093EB06012B99F08091F60690914F
:10184000F706A091F806B091F906805E9E42A0408E
:10185000B040D8F0B0EA2B2EBFE03B2E412C512CEB
:101860008F8D98A14B8D5C8D6D8D7E8D9301820146
:1018700071010E94AF08BC01181619060CF47DCF47
:10188000009719F01092EF0642C48091EB069091F8
:10189000EC06892B09F43BC4A4E09A2E3BC48330A8
:1018A00009F06CC0892C839423E0291520F431E0E1
:1018B0003093EF062EC4E091EB06F091EC064DB7A5
:1018C0005EB74A5050400FB6F8945EBF0FBE4DBF92
:1018D0002DB73EB72F5F3F4F4181528163817481A5
:1018E000ADB7BEB711964D935D936D937C931497EE
:1018F000818D928DA38DB48DF90184839583A68308
:10190000B7834F89588D518740878F8D98A14FEFAE
:101910005FEF6FEF7FEF9301EB8CFC8C0D8D1E8DD5
:10192000AA24BB2465010E94EE07ADB7BEB71A9684
:101930000FB6F894BEBF0FBEADBF97FDB7C38F8D76
:1019400098A14B8D5C8D6D8D7E8D9301820171010F
:101950000E94AF08BC0197FDA9C3009709F4D9C341
:10196000C3010E9433068C01009709F4D2C3FC0125
:10197000F080F5E0FF1609F059C243C2843009F047
:1019800081C0892C839453E0581548F481E08093FA
:10199000EF06982C1B861C861D861E86BBC3ADB722
:1019A000BEB71A970FB6F894BEBF0FBEADBF2DB726
:1019B0003EB72F5F3F4F8B859C85AD85BE85EDB7CC
:1019C000FEB781839283A383B483D90114961D92B9
:1019D0001D921D921C921797EF89F88D1996FC9312
:1019E000EE9318978F8D98A14FEF5FEF6FEF7FEF1A
:1019F0009301EB8CFC8C0D8D1E8DAA24BB246501FC
:101A00000E94EE072DB73EB7265F3F4F0FB6F89402
:101A10003EBF0FBE2DBF97FD49C38F8D98A14B8D43
:101A20005C8D6D8D7E8D9301820171010E94AF08E6
:101A3000BC0197FD3BC3009709F46BC3C3010E942F
:101A400033068C01009709F464C3DC018C91853066
:101A500071F48091EB069091EC060E94EE051093D4
:101A6000EC060093EB06B5E0B093EF06D6C18630E6
:101A700009F049C331E03093EF061B861C861D86B2
:101A80001E8641C3853009F04FC084EF96E00E9466
:101A9000653CE091EB06F091EC06E58CF68C078D49
:101AA00010A10E94F5392F85388949895A89621B0E
:101AB000730B840B950B6E157F058007910728F03B
:101AC00036E03093EF06992425C3E091EB06F091C0
:101AD000EC06E58CF68C078D10A10E94F5392F8558
:101AE000388949895A892E0D3F1D401F511F261BD9
:101AF000370B480B590B283389E8380781E448072E
:101B000080E0580720F027E339E841E450E0CA01BB
:101B1000B90128EE33E040E050E00E949166AB014D
:101B2000BC0182EF96E0ECC2863009F0C0C0E091C3
:101B3000EB06F091EC06E1A0F2A003A114A10E9433
:101B4000F5395B016C01C201B10128EE33E040E0E0
:101B500050E00E94E3668F859889A989BA89E80ECA
:101B6000F91E0A1F1B1FEA18FB080C091D09E216C3
:101B7000F30604071507E0F4E091EB06F091EC069C
:101B800021A032A043A054A00E94F5392F853889A6
:101B900049895A89621B730B840B950B28EE33E03D
:101BA00040E050E00E949166261A370A480A590A16
:101BB000E091EB06F091EC06E1A0F2A003A114A1E4
:101BC0000E94F5392F85388949895A89621B730B20
:101BD000840B950B6E157F058007910708F0B2C046
:101BE000E091EB06F091EC06A180B280C380D48036
:101BF0004DB75EB74A5050400FB6F8945EBF0FBE67
:101C00004DBFADB7BEB71196418D528D638D748DAA
:101C1000EDB7FEB7A182B282C382D48214961D9220
:101C20001D921D921C9217972F89388D19963C93FF
:101C30002E9318978F8D98A19301EB8CFC8C0D8DB2
:101C40001E8D0E94EE074DB75EB7465F5F4F0FB621
:101C5000F8945EBF0FBE4DBF97FD74C0892C83946E
:101C60008F8D98A14B8D5C8D6D8D7E8D9301820142
:101C700071010E94AF08BC0197FD18C2009709F4DA
:101C800048C2C3010E9433068C01009709F441C287
:101C9000DC01FC90B5E0FB1609F4B3C036E0F316A6
:101CA00009F031C287E08093EF0688242CC2873088
:101CB00009F0C4C0E091EB06F091EC06E1A0F2A0BF
:101CC00003A114A10E94F5392F85388949895A89C1
:101CD000E20EF31E041F151FE61AF70A080B190B74
:101CE000E214F30404051505B0F4E091EB06F0915D
:101CF000EC0621A032A043A054A00E94F539261A78
:101D0000370A480A590A8F859889A989BA89281AF1
:101D1000390A4A0A5B0AE091EB06F091EC06E1A071
:101D2000F2A003A114A10E94F5392F8538894989B1
:101D30005A89621B730B840B950B6E157F05800708
:101D4000910720F087E08093EF06BDCE892C839425
:101D5000E091EB06F091EC06A180B280C380D480C4
:101D60004DB75EB74A5050400FB6F8945EBF0FBEF5
:101D70004DBFEDB7FEB73196ADB7BEB71196AD9278
:101D8000BD92CD92DC92149714821582168217822E
:101D90002F89388D318720878F8D98A14FEF5FEF86
:101DA0006FEF7FEF9301EB8CFC8C0D8D1E8D0E94ED
:101DB000EE074DB75EB7465F5F4F0FB6F8945EBF54
:101DC0000FBE4DBF97FD72C18F8D98A14B8D5C8D5D
:101DD0006D8D7E8D9301820171010E94AF08BC015F
:101DE00097FD64C1009709F494C1C3010E943306B2
:101DF0008C01009709F48DC1DC01FC90B5E0FB1665
:101E0000A9F48091EB069091EC060E94EE051093E8
:101E1000EC060093EB06F092EF062B893C894D8986
:101E20005E892F87388B498B5A8B73C136E0F31646
:101E300009F069C141E04093EF0665C1883009F0BF
:101E4000C8C0892C839453E0591508F42FC1A98D7B
:101E5000BA8D1B96ED90FD900D911C911E97C301BC
:101E600068E02B8D3C8D4D8D5E8DCC24DD240E9451
:101E70005804F301E80FF91FE451FF4FB7E3B083B3
:101E800084519F4FF301E80FF91FDF01119623E002
:101E90002183FD01319631E011963C93218346E088
:101EA0004283F9E1EF2EFFEFFF2EE80EF91EACE1C1
:101EB000B8E00D900020E9F7AD51B84011F10A2FBC
:101EC000F301EE0DFF1DE451FF4F5CE050838CEEFB
:101ED00090E0E80EF91EF301EE0DFF1D24E13FEF47
:101EE000E20EF31EA1833296CF014CE158E0BA0115
:101EF0004A2F50E00E94796710E00E5F1F4FE00EFE
:101F0000F11E80E492E09A838983F301EE0DFF1DB8
:101F1000E451FF4F99E39083ACEEB0E0EA0EFB1E74
:101F2000F301EE0DFF1DB2E0B18389819A81082E85
:101F3000892F902D9A838983319692838183E8E15A
:101F4000FFEFEE0EFF1E8F8D98A14F81588569859A
:101F50007A85930187010E94BE0797FF0BC02F81EE
:101F6000388549855A852F5F3F4F4F4F5F4F09F0A6
:101F7000D0C09CC08F8D98A14B8D5C8D6D8D7E8D5A
:101F80009301820171010E94AF08BC01009709F41E
:101F9000C0C018161906A4F4C3010E9433068C01B0
:101FA000009781F0DC018C91853061F48091EB0623
:101FB0009091EC060E94EE051093EC060093EB0660
:101FC00000E010E01092EF060115110509F09BC02A
:101FD000BAC9893009F07EC0E091EB06F091EC06B9
:101FE000309709F448C0892C8394992009F042C0A5
:101FF000E180F28003811481818D928DA38DB48D57
:102000008B839C83AD83BE83C30167E02B8D3C8DA6
:102010004D8D5E8DCC24DD240E9458048C018B8173
:102020009C81AD81BE810097A105B105C1F0F3018E
:10203000E00FF11FE451FF4FB6E3B08304511F4F8F
:10204000F301E00FF11F24E021838B819C81AD819E
:10205000BE8182839383A483B583065E10408F8DF7
:1020600098A14F81588569857A8593010E94BE07A2
:1020700097FF0EC0982C8F819885A985BA858F5FB0
:102080009F4FAF4FBF4F09F045C01092EF0642C0BF
:102090008F8D98A14B8D5C8D6D8D7E8D930182010E
:1020A00071010E94AF08BC0197FF03C01092EF06B8
:1020B00030C0009771F1C3010E9433068C01009774
:1020C00041F1DC018C91853011F08630E1F4109201
:1020D000EF0619C08823F1F48091EB069091EC068D
:1020E0000E94EE051092EC061092EB0684EF96E04B
:1020F0000E94653C82EF96E040E050E060E070E0D6
:102100000E94C73CE0CCC8010E94EE051CC99B2C74
:1021100001C0982C892C17C98F929F92AF92BF92C1
:10212000CF92DF92EF92FF920F931F93CF93DF93A3
:10213000EC014B0159016A018091CF079091D007C2
:10214000009731F00E9492401092D0071092CF0772
:102150008091D1079091D207009731F00E94924070
:102160001092D2071092D107209739F0CE010E9429
:10217000A8408093CF079093D0078114910439F041
:10218000C4010E94A8408093D1079093D207A092E7
:10219000D307B092D407C092D507D092D607E09269
:1021A000D707F092D8070093D9071093DA07DF9189
:1021B000CF911F910F91FF90EF90DF90CF90BF9044
:1021C000AF909F908F9008950F931F93CF93DF93BD
:1021D0008C01C091FE06D091FF06FE011BC0808DD0
:1021E000918D8017910799F4828D938DA48DB58D73
:1021F00082179307A407B50751F4868D978D86172C
:10220000970729F48389882311F09F0117C0019053
:10221000F081E02D309719F70DC08B89813039F4AA
:10222000888D998D8017910711F49E0107C0099040
:10223000D881C02D209789F720E030E0C901DF91D7
:10224000CF911F910F910895CF93DF93FC01EA0185
:10225000009709F45FC080E162307807F1F080E117
:102260006330780744F46230710571F06150704159
:1022700009F04AC037C080E165307807C9F0665080
:10228000704109F041C01DC04115510589F122304E
:10229000310571F5ED5AFF4F08C04115510541F167
:1022A0002230310529F5E85BFF4F8081918127C0FD
:1022B00041155105E9F024303105D1F4E559FF4FBE
:1022C00008C041155105A1F02430310589F4E959C0
:1022D000FF4F80819181A281B38188839983AA83F2
:1022E000BB830FC04115510519F02230310529F08B
:1022F000EF59FF4F86E190E00BC081899289998365
:10230000888320E030E008C0EF59FF4F8AE290E078
:10231000918380832FEF3FEFC901DF91CF91089523
:10232000FC01009719F426E230E004C0EF59FF4F9A
:1023300020813181C9010895CF93DF93DC01EA0147
:102340006A30710561F06A30710534F06B307105E7
:10235000B1F06C30710519F02FEF3FEF1CC0FD019B
:10236000E65BFF4FAA5BBF4F8D919C91208131812D
:10237000821B930BAA2797FDA095BA2F06C01D9626
:102380008D919C911E97A0E0B0E088839983AA83E9
:10239000BB8320E030E0C901DF91CF9108950F9316
:1023A0001F93CF93DF93EC018C01035B1F4F08C099
:1023B00080819181D8018D939C93CF010E94984C8C
:1023C000D801ED91FC91309799F707C080819181F8
:1023D00099AF88AFCF010E94984CE8ADF9AD309726
:1023E000A9F708C08081918199838883CF010E94D9
:1023F000984C02C0CF5ADF4FE881F981309791F7AE
:10240000DF91CF911F910F9108952F923F924F929C
:102410005F926F927F928F929F92AF92BF92CF9274
:10242000DF92EF92FF920F931F93DF93CF9300D031
:1024300000D000D0CDB7DEB79E838D837A836983C9
:102440004A010E9475382D813E81232B89F1ED814F
:10245000FE818389843019F08389853019F52981BB
:102460003A81232B09F4DFC08114910409F4DDC003
:102470004FE4A42EB12C6D817E81A60EB71E36E4EA
:10248000C32ED12CC60ED71E2AE4E22EF12CE60E66
:10249000F71E8B0109591F4F1AC0ED81FE818389F8
:1024A000843051F0EF59FF4F89E390E091838083AE
:1024B00088248A94982CB9C0F801408151816281A6
:1024C0007381C5010E94C73C892B09F0ACC0F6019D
:1024D00080819181F7012081318182179307E9F290
:1024E000821B930B8815990524F4009709F49BC06F
:1024F0004C017901662477242D813E81235B3F4F77
:102500003C832B8396E4292E312C6D817E81260E0F
:10251000371E8CE4482E512C460E571E3CC0EB81D2
:10252000FC81A080B180F501C188D288CE18DF0877
:10253000840106191709C016D10608F486014981DD
:102540005A81460D571DF501278530892E0D3F1DF7
:10255000CA01B901A8010E947967E00EF11E0C15AD
:102560001D05B8F0F50180819181EB81FC8191839B
:102570008083F101808191818E199F0991838083ED
:10258000C5010E94984CF201808181508083EE2425
:10259000FF24600E711E6814790408F22D813E81BB
:1025A000265B3F4FF901F182E082EA54F040FE835E
:1025B000ED8383898430C9F5EC5BFF4F4081518105
:1025C000349620813181E854F040FE83ED83C401CC
:1025D000840F951F281739070CF4C9012D813E81FE
:1025E0002D5A3F4FF90120813181E355F040FE83A0
:1025F000ED832417350778F02817390760F4EC5B72
:10260000FF4F91838083E454F040FE83ED83CF013C
:102610000E9432220AC02D813E812C5B3F4FF9017E
:102620009183808302C088249924C40126960FB622
:10263000F894DEBF0FBECDBFCF91DF911F910F91F8
:10264000FF90EF90DF90CF90BF90AF909F908F90D2
:102650007F906F905F904F903F902F9008950E94D1
:10266000051208958F929F92AF92BF92CF92DF9200
:10267000EF92FF920F931F93CF93DF93EC014B01E7
:102680008A010E947538209709F458C0811491047A
:1026900009F457C00115110509F455C0CD5ADF4F93
:1026A00088819981C355D0408017910708F48C0127
:1026B000FAE3AF2EB12CAC0EBD1EE3E5CE2ED12C2D
:1026C000CC0EDD1E7BE6E72EF12CEC0EFD1E8B8979
:1026D000843039F0CF59DF4F89E390E099838883C4
:1026E0002DC049A55AA58DA19EA1481B590B9A0141
:1026F0003695279536952795F60180819181281783
:10270000390738F48DA99EA9841B950B8017910772
:1027100058F4F7014081518162817381C5010E94A3
:10272000C73C892BA1F20DC088A1806188A3CE018E
:10273000B401A8010E94631F892B29F00FEF1FEF3E
:1027400002C000E010E0C801DF91CF911F910F910E
:10275000FF90EF90DF90CF90BF90AF909F908F90C1
:102760000895CF92DF92EF92FF920F931F93CF9332
:10277000DF936C017B018A01C0E0D0E011C0B7019A
:102780006C0F7D1FA8014C1B5D0BC6010E9432130C
:10279000181619061CF0CFEFDFEF05C0C80FD91FC0
:1027A000C017D10764F3CE01DF91CF911F910F9134
:1027B000FF90EF90DF90CF900895AF92BF92CF92AD
:1027C000DF92EF92FF920F931F93CF93DF938C01D1
:1027D000E72F6A01009709F4E6C0DC0153968C915B
:1027E000843041F00F591F4F89E390E0F801918345
:1027F0008083D9C0D8011D964D915C911E97C1145C
:10280000D104C9F44115510509F4D0C01F966D914A
:102810007C915097C8010E94B113F8012785308937
:1028200097FF02C0C90176C0C9010E949240F80119
:1028300016861586BBC0C62FD72F5E01D8015196CC
:102840006D917C9152974115510569F5C616D706D1
:1028500010F4E60113C0C6010E94BC66EC017601CB
:10286000E81AF90AC801B501A7010E94B11397FD42
:102870009AC0209709F49AC0AE0CBF1CF801818958
:1028800092890E949840D80150969C938E931F97EE
:10289000009709F488C0B501AE010E947967F8017C
:1028A000C587D68783C0C601840F951FD8011F96A0
:1028B0002D913C9150978617970780F4240F351F70
:1028C000C9016C2F7E2FA6010E947967F8018585CA
:1028D00096858C0D9D1D9687858768C07B01E41ABF
:1028E000F50A240F351FC9016C2F7E2FA7010E9406
:1028F0007967D8011F966D917C91509751964D91B3
:102900005C915297C8010E94B11397FF0BC0F80168
:10291000878590890E949240D8011E961C921E9233
:102920001D9741C05E01AE0CBF1C96012E193F09D8
:10293000F8016189728926173707E0F0C6010E9405
:10294000BC66EC017901E81AF90AC801B501A701D2
:102950000E94B11397FF0BC0D8011F968D919C91D7
:1029600050970E949240F801168615861CC0AE0C46
:10297000BF1C01C0E901209759F0D8011F968C9126
:102980001F9750969C91B501AE010E94796705C0D2
:10299000F801878590890E949240D8011E96DC93A9
:1029A000CE931D9703C0CC24CA94DC2CC601DF91C2
:1029B000CF911F910F91FF90EF90DF90CF90BF903C
:1029C000AF900895CF92DF92EF92FF920F931F93F3
:1029D000CF93DF936C017B018A014115510519F4F6
:1029E000C0E0D0E00CC085E098E0BA010E94DA3483
:1029F000EC01009721F0B701A8010E944667C601CB
:102A0000BE01A8010E94DD13182F092F209729F07D
:102A100085E098E0BE010E943235812F902FDF9132
:102A2000CF911F910F91FF90EF90DF90CF9008957D
:102A30000F931F938C0160E070E040E050E00E9433
:102A4000DD13C8010E94982B1F910F9108950F93D9
:102A50001F93CF93DF93EC018A01009709F47BC0A9
:102A600080E16230780759F1E0E163307E0744F499
:102A70006230710571F06150704109F066C04BC061
:102A800080E16530780761F16650704109F05DC002
:102A900030C04115510509F444C02230310509F018
:102AA00040C08B89882329F0CF59DF4F88E390E01D
:102AB00050C0CD5ADF4FFA01808191810EC041157F
:102AC000510579F12230310561F5FA01808191815A
:102AD000C85BDF4F9983888324979983888332C0AA
:102AE00041155105F1F024303105D9F4C559DF4FB6
:102AF00008C041155105A9F02430310591F4C95998
:102B0000DF4FF80180819181A281B381888399830D
:102B1000AA83BB8317C04115510519F02230310536
:102B200029F0CF59DF4F86E190E013C0CE0160E07D
:102B300070E040E050E00E94DD13F8018081918157
:102B40009A8B898B20E030E008C0CF59DF4F8AE2B2
:102B500090E0998388832FEF3FEFC901DF91CF91F8
:102B60001F910F910895FC01062E672F702D718F14
:102B7000608F0E94E6290895EF92FF920F931F93B2
:102B8000CF93DF93EC01D901009709F453C08B89EF
:102B9000813029F4CF59DF4F8DE290E049C08B8915
:102BA000882329F0CF59DF4F88E390E041C0E090BF
:102BB000FE06F090FF0600E010E18091EF04909196
:102BC000F00401969093F0048093EF048091EF0459
:102BD0009091F004892B21F41093F0040093EF04FA
:102BE000F7010FC08091EF049091F004082E892F17
:102BF000902D208D318D28173907F9F20190F08141
:102C0000E02D309779F720C00784F089E02D838587
:102C10009485A585B6858C8B9D8BAE8BBF8BCE01A5
:102C20000E9491239C0108C0CF59DF4F81E490E0BE
:102C3000998388832FEF3FEFC901DF91CF911F91D7
:102C40000F91FF90EF9008958091EF049091F00420
:102C5000082E892F902D998F888F0A2EAB2FB02D9B
:102C6000BF8FAE8F4A8F5B8F6C8F7D8FCB01BA0188
:102C700040E050E00E942C19FC01009709F0C4CFFD
:102C8000D3CF0F931F93CF93DF93809100078823B7
:102C900081F486E069E97EE10E94E618892B09F05B
:102CA0005DC00E94B421892B09F058C081E0809357
:102CB000000781E090E063E770E00E947640EC015D
:102CC0008C01009709F44CC01B8A84E08C838FE24E
:102CD00093E19E838D838DED93E198878F8382EEC0
:102CE00094E19A8789878CE991E19C878B870E9480
:102CF0004E3969A37AA38BA39CA36DA37EA38FA354
:102D000098A769A77AA78BA79CA70C5B1F4F80E9A0
:102D10009CE0F801918380830C5F1F4FF801918341
:102D20008083055F1F4F28E132E0F8013183208363
:102D30000A5F1F4F88EE93E0F80191838083095565
:102D400010408091FE069091FF06998388833A8B0C
:102D5000298B1093FF060093FE0602C000E010E0EE
:102D6000C801DF91CF911F910F910895CF93DF9309
:102D7000EC01E091FE06F091FF06AEEFB6E014C064
:102D8000EC17FD0769F48881998111969C938E93C5
:102D9000CE010E94CF118D859E85892B71F007C0D1
:102DA000DF010190F081E02D309751F70EC08F8543
:102DB00098890E9492401E861D8683E7FE0111922B
:102DC0008A95E9F7CE010E949240DF91CF91089554
:102DD000CF93DF93FC01EB01DA01009719F426E2AF
:102DE00030E01FC084859585009719F420E030E01D
:102DF00018C09C0182899389082E892F902D8D936C
:102E00009C9386859785A089B18988839983AA83B5
:102E1000BB8315861486138A128A16861786108A33
:102E2000118AC901DF91CF9108959C01E091DB07E0
:102E3000F091DC070AC0828193818217930711F415
:102E40009F0107C00190F081E02D3097A1F720E0AD
:102E500030E0C9010895DC01FA01009791F0625059
:102E6000704179F44115510561F02230310549F482
:102E7000808191811B969C938E931A9720E030E07D
:102E800002C02FEF3FEFC9010895DC01FA0100975E
:102E900091F06250704179F44115510561F0223092
:102EA000310549F41A968D919C911B9791838083EB
:102EB00020E030E002C02FEF3FEFC90108950F93EB
:102EC0001F93FC01009719F42FEF3FEF12C04687C4
:102ED0005787608B718B338B228B15870487868194
:102EE0009781892B21F0CF0106960E94723C20E049
:102EF00030E0C9011F910F910895CF93DF93EC014A
:102F0000E091DB07F091DC07ABEDB7E01DC0EC17FB
:102F1000FD07B1F4888199818D939C9307C08081CE
:102F200091819D838C83CF010E94984CEC81FD811F
:102F30003097A9F7CE010E94924020E030E008C00F
:102F4000DF010190F081E02D309709F72FEF3FEF7F
:102F5000C901DF91CF9108954F925F926F927F9256
:102F60008F929F92AF92BF92CF92DF92EF92FF9299
:102F70000F931F93CF93DF935C014B013A01522EC5
:102F8000432EFC0184819581892B31F4C50106967D
:102F9000B701A6010E94C73CF501C481D5812097E5
:102FA00019F400E010E031C088819981F501958322
:102FB0008483EF81F88584859585A685B785F4019E
:102FC00080839183A283B383EB85FC85808191818B
:102FD000082E892F902DF3019183808349895A8986
:102FE000401751070CF48A01F50180859185841BF7
:102FF000950B918780876F857889852D942DA80101
:103000000E947967CE010E94984CC801DF91CF9150
:103010001F910F91FF90EF90DF90CF90BF90AF90F6
:103020009F908F907F906F905F904F9008956F92D8
:103030007F928F929F92AF92BF92CF92DF92EF9248
:10304000FF920F931F93CF93DF934C015A016B01B3
:10305000390180E090E060E8A7010E946C4EEC012D
:10306000009741F48CE090E0F401958784870FEF9E
:103070001FEF13C08F859889B801A7010E94796757
:10308000C401B601A50193018E010E948A2C8C0116
:10309000009719F4CE010E94984CC801DF91CF919E
:1030A0001F910F91FF90EF90DF90CF90BF90AF9066
:1030B0009F908F907F906F900895CF93DF93EC0156
:1030C00080910107882369F481E160E07CE20E943D
:1030D000E618892B19F020E030E041C081E08093B0
:1030E0000107209719F57091DB076091DC07C0910B
:1030F000F104D091F204219611F4C0E0D0E1AE01C8
:10310000042E452F502D872F962F9C01F90108C0C2
:10311000828193818417950771F30190F081E02DEE
:103120003097B1F7C093F104D093F20481E090E0BE
:1031300064E170E00E947640FC019C01009779F008
:103140000C2ECD2FD02DD383C2838091DB0790919D
:10315000DC0791838083F093DC07E093DB07C901F0
:10316000DF91CF910895DF92EF92FF920F931F931B
:10317000CF93DF937C018B01DB011796ED91FC91DE
:103180001897D184C0910207D091030712C08A8199
:10319000D81661F4EB81FC81309741F0C701B8018A
:1031A0000995892B19F420E030E007C00990D881F7
:1031B000C02D209761F72FEF3FEFC901DF91CF912D
:1031C0001F910F91FF90EF90DF9008951F93CF9381
:1031D000DF93182FEB01A0910207B091030708C0FD
:1031E00012968C9112978117F9F00D90BC91A02D39
:1031F0001097B1F724C012838091020790910307C2
:10320000009759F4B0930307A093020783EB98E16A
:10321000909304088093030807C011969C938E93A3
:10322000B0930307A09302071496DC93CE931397F1
:1032300020E030E0C901DF91CF911F91089581E036
:1032400090E065E070E00E947640FC01DC010097B0
:1032500091F62FEF3FEFEECFDF92EF92FF920F93B9
:103260001F93CF93DF937B018C01EA014115510538
:1032700021F0188219821A821B822FEFE2162FEF9B
:10328000F2062FEF02072FEF120789F0D801C701CE
:10329000082E8B2FB02D092E9A2FA02D80709070A4
:1032A000A070B07F80509040A040B04E39F4E091C3
:1032B000DD07F091DE073097E1F53EC0D090DD07E5
:1032C0007091DE0760E08D2D972F9C01F90114C0ED
:1032D00086819781A085B1858E219F21A023B1236E
:1032E000228133814481558182179307A407B50752
:1032F00031F00190F081E02D309751F71DC02097FB
:1033000061F082859385A485B5850097A105B105F7
:1033100021F088839983AA83BB8386859785892B2F
:1033200041F4E284F384048515856F5F643059F6B7
:1033300003C02685378502C020E030E0C901DF9157
:10334000CF911F910F91FF90EF90DF9008952F92F2
:103350003F924F925F926F927F928F929F92AF9225
:10336000BF92CF92DF92EF92FF920F931F93CF9372
:10337000DF932B013C0149015A011601C091DD0781
:10338000D091DE078DEDC82E87E0D82E04C06E01E7
:103390000990D881C02D209749F08E819F81A88502
:1033A000B98588169906AA06BB0688F380E190E0E5
:1033B0000E949840FC01009719F42FEF3FEF19C0CD
:1033C000482059206A207B20428253826482758281
:1033D00086829782A086B186E286F3860487158767
:1033E00037862686D183C083D6018D939C9320E0B7
:1033F00030E0C901DF91CF911F910F91FF90EF90C5
:10340000DF90CF90BF90AF909F908F907F906F9004
:103410005F904F903F902F900895CF93DF93EC01F2
:1034200019821882E091DD07F091DE0706C001964F
:10343000998388830190F081E02D8881998130976C
:10344000B1F724E0880F991F2A95E1F70E94984070
:103450009C010097A1F0E091DD07F091DE070CC020
:10346000E901DF0180E10D9009928150E1F7205FD1
:103470003F4F0190F081E02D309791F702C0198203
:103480001882C901DF91CF9108954F925F926F9298
:103490007F928F929F92AF92BF92CF92DF92EF92E4
:1034A000FF920F931F932B013C0149015A012FEF0B
:1034B0003FEF35C082819381A481B5818415950544
:1034C000A605B70511F586819781A085B185881578
:1034D0009905AA05BB05C9F482859385A485B585A0
:1034E0008E159F05A007B10781F4868597858C15F9
:1034F0009D0559F4808191819093DE078093DD07CB
:10350000CF010E94924020E030E0E091DD07F09191
:10351000DE07808191819093DE078093DD07E09143
:10352000DD07F091DE07309729F6C9011F910F9151
:10353000FF90EF90DF90CF90BF90AF909F908F90D3
:103540007F906F905F904F900895CF93DF93EC0141
:1035500017C0868597858C179D0711F0209751F429
:10356000808191819093DE078093DD07CF010E94D7
:10357000924006C0808191819093DE078093DD07A1
:10358000E091DD07F091DE07309719F780E090E0D9
:10359000DF91CF910895DF93CF9300D000D0CDB7C6
:1035A000DEB7FC0119821A821B821C82DE01119691
:1035B00040E0808180538A3098F520E030E0C901F6
:1035C00063E0880F991F6A95E1F7220F331F820F7E
:1035D000931F2191332727FD309520533040280F2A
:1035E000391F808180333CF08A332CF42F3F310522
:1035F00031F328F315C02F3F310509F088F44F5FF0
:103600002C9380818E3239F0443051F429813A81F3
:103610004B815C8109C0443019F011963196C9CFB5
:103620002FEF3FEF4FEF5FEFB901CA010F900F90FF
:103630000F900F90CF91DF910895AF92BF92CF92EC
:10364000DF92EF92FF920F931F93DF93CF93CDB74B
:10365000DEB727970FB6F894DEBF0FBECDBF6C83E1
:103660007D838E839F83E4E0EE2EF12CEC0EFD1E15
:1036700006E117E06E010894C11CD11C5EE277E000
:10368000A72EB12CAC0EBD1ED7014C9130E0842F7B
:103690006AE00E94B066292F842F0E94B066482FEE
:1036A000F601E30FF11D205D20833F5F882379F74A
:1036B000932FF7011082D80106C03150F601E30FB5
:1036C000F11D80818D933323C1F7F801E90FF11DBE
:1036D000DF015D938D01EA14FB0421F00894E11CE5
:1036E000F11CD2CF108286E197E027960FB6F894AE
:1036F000DEBF0FBECDBFCF91DF911F910F91FF9025
:10370000EF90DF90CF90BF90AF900895DF93CF936D
:10371000CDB7DEB760970FB6F894DEBF0FBECDBF52
:103720009C01DE011196E3EFF4E080E101900D923F
:103730008150E1F7A901A4E0B7E020E030E0BE014C
:103740006F5F7F4F9AE3FA01808182958F70FB0152
:10375000E80FF11D80818C93FA0180818F70FB014D
:10376000E80FF11D808111968C931197253031055A
:1037700021F012969C93129703C012961C921297F6
:103780002F5F3F4F4F5F5F4F139626303105D9F6BD
:1037900084E097E060960FB6F894DEBF0FBECDBF11
:1037A000CF91DF910895EF92FF920F931F93DF93D4
:1037B000CF9300D000D0CDB7DEB749835A836B8357
:1037C0007C830E943C3D7C01009769F1DC011B96E3
:1037D0008C911B97833039F51F96ED91FC91509792
:1037E0008081863001F55596ED91FC915697309782
:1037F000D1F0C70168E070E1AE014F5F5F4F0995FE
:103800008C01009791F449815A816B817C81403E03
:10381000B0E05B07B0E06B07B1E07B0731F0C701B8
:103820000E94F93102C00FEF1FEFC8010F900F90F7
:103830000F900F90CF91DF911F910F91FF90EF901C
:103840000895EF92FF920F931F93DF93CF9300D0D1
:1038500000D0CDB7DEB749835A836B837C830E9447
:103860003C3D7C01009769F1DC011B968C911B9714
:10387000833039F51F96ED91FC9150978081863009
:1038800001F55596ED91FC9156973097D1F0C7010F
:1038900067E070E1AE014F5F5F4F09958C010097C3
:1038A00091F449815A816B817C81403EB0E05B0795
:1038B000B0E06B07B1E07B0731F0C7010E94FF3138
:1038C00002C00FEF1FEFC8010F900F900F900F90E5
:1038D000CF91DF911F910F91FF90EF9008952F925C
:1038E0003F924F925F926F927F928F929F92AF9290
:1038F000BF92CF92DF92EF92FF920F931F93DF93CD
:10390000CF9300D000D000D0CDB7DEB71C012A0184
:103910003B0148015901C982DA82EB82FC82DC0159
:103920001F968C911F9750969C91411551056105EA
:10393000710581F44090EF075090F0076090F10717
:103940007090F207411451046104710419F42FEFCF
:103950003FEFA8C08D839E83ED81FE814386548610
:103960006586768681149104A104B10431F484E063
:1039700095E00E94CB1A4B015C01AD81BE8153964C
:103980008D929D92AD92BC925697C501B40164216F
:10399000752186219721A5019401EE24FF2487013A
:1039A00061010E94A71989819A81AB81BC8100972E
:1039B000A105B10571F060E070E080E090E020E0EA
:1039C00030E040E050E0E980FA800B811C810E94E9
:1039D000A719A0EEB7E0F101329689E001900D92AF
:1039E0008150E1F7AD81BE8115962C911597169601
:1039F0008C911697822B17969C911797892B189666
:103A00009C911897892B19969C911997892B1A9636
:103A10009C91892B61F020FD0AC0A9EEB7E0ED81F1
:103A2000FE81359686E001900D928150E1F740923B
:103A3000EF075092F0076092F1077092F2078092C0
:103A4000F3079092F407A092F507B092F6078981E8
:103A50009A81AB81BC810097A105B105A1F4809149
:103A6000F7079091F807A091F907B091FA0784251C
:103A70009525A625B72588219921AA21BB21009744
:103A8000A105B10561F089819A81AB81BC818093E8
:103A9000F7079093F807A093F907B093FA070E94ED
:103AA000551E9C01C90126960FB6F894DEBF0FBEC5
:103AB000CDBFCF91DF911F910F91FF90EF90DF90DD
:103AC000CF90BF90AF909F908F907F906F905F90BE
:103AD0004F903F902F9008952F923F924F925F9278
:103AE0006F927F928F929F92AF92BF92CF92DF920E
:103AF000EF92FF920F931F93DF93CF93CDB7DEB773
:103B000028970FB6F894DEBF0FBECDBF6F837887BE
:103B100019012A01370148010E943C3DFC01009730
:103B200009F491C08385833009F08DC0FA83E9835D
:103B3000A785B0898C91863009F040C025893689E7
:103B40002115310541F18E010D5F1F4FCF0164E05A
:103B500070E1A801F9010995E981FA812589368981
:103B6000CF0165E070E14F815885F90109958B819E
:103B70009C81AD81BE8181608B839C83AD83BE833C
:103B8000E981FA8125893689CF0163E070E1A801D6
:103B9000F90109950AC015968F8198859C01F90154
:103BA00086E001900D928150E1F789819A81B201FE
:103BB000A101940183017601650141C0873109F0BB
:103BC00042C0C188D288F60121A232A243A254A2E7
:103BD000E114F1040105110521F466246A94762CA0
:103BE0004301F60161A672A683A694A6C6010E94AF
:103BF000653CF601FF968081918167E171E0AE013D
:103C00004F5F5F4F0E94BA3DC60140E65AEE60E04A
:103C100070E00E94C73C892BB1F4F60184AD893075
:103C200091F441A152A163A174A101A512A523A5FC
:103C300034A5C5A0D6A0E7A0F0A489819A810E94EE
:103C40006F1C9C0102C02FEF3FEFC90128960FB6F1
:103C5000F894DEBF0FBECDBFCF91DF911F910F91C2
:103C6000FF90EF90DF90CF90BF90AF909F908F909C
:103C70007F906F905F904F903F902F900895AF92FC
:103C8000BF92CF92DF92EF92FF920F931F93AA24DD
:103C9000BB2465010E946C1D1F910F91FF90EF9056
:103CA000DF90CF90BF90AF90089580E28093DF07C0
:103CB00080E490E06FED77E040E250E00E94C74E74
:103CC000892B19F420E030E002C02FEF3FEFC9014B
:103CD0000895CF93DF93EC0180E490E06FED77E0FF
:103CE00040E250E00E94CA4E892BE9F48091DF0740
:103CF000803251F480EE97E0BE010E9494670097F5
:103D000019F420E030E011C0EFEDF7E080E2DF01D0
:103D10001D928A95E9F7CF010A966FEF70E046E0B1
:103D200050E00E9482672FEF3FEFC901DF91CF91F2
:103D30000895FB01A385B485109769F1828183FF03
:103D40002AC01C968C911C9782958F70880F880FC3
:103D5000843108F1282F30E08585968582179307F6
:103D6000D4F0821B930B928B818B892B71F01C9664
:103D70008C911C9782958F7090E0880F991F880F07
:103D8000991FA80FB91FB08BA78736872587CF014A
:103D90000E94D12103C0CF010E94984C80E090E0A6
:103DA0000895AF92BF92CF92DF92EF92FF920F935E
:103DB000CF93DF935C01FC0167817085C385D48557
:103DC0008D8582FD71C0F501128A118A84E190E02F
:103DD00096878587288139818A819B819983888309
:103DE0003B832A838D8584FF0FC084E08D8788857F
:103DF0009985AA85BB858C839D83AE83BF831886F6
:103E000019861A861B8620C02C813D814E815F81D8
:103E100081FF10C0022E252F502D032E342F402D50
:103E20002F5F3F4F4F4F5F4F022E252F502D032EF8
:103E3000342F402D288739874A875B871C821D8253
:103E40001E821F8284E18D876B0180E58C871F862F
:103E50001E861B8A1A8A198A188AF501E584F68457
:103E60000E2CEF2CF02CFB016089718982899389DB
:103E7000248535854685578506E00E945C2DDC014A
:103E8000CB01F50145855685BE010E94552D998BC4
:103E9000888BF601448555856685778586E0950192
:103EA0000E94942E892B19F4C5010E94984C80E041
:103EB00090E0DF91CF910F91FF90EF90DF90CF9046
:103EC000BF90AF9008956F927F928F929F92AF9222
:103ED000BF92CF92DF92EF92FF920F93DF93CF9337
:103EE00000D0CDB7DEB76C01F62EE72E3A014115B2
:103EF000510531F4DC0190968C918B7009F4B1C1BD
:103F0000F60180A181FF02C008E101C004E180E068
:103F100090E060E4402F50E00E946C4E4C0100970E
:103F200009F483C1FC01A384B484D60158968D9111
:103F30009C915997F501918380835E968D919C9118
:103F40005F9793838283000F000F048790963C91C4
:103F50009097232F277F90962C93909799968D91E9
:103F60009D910D90BC91A02D082E8B2FB02D092E68
:103F70009A2FA02D84839583A683B78324FF1FC027
:103F800080E18587377ED60190963C93E0E4F0E0AF
:103F9000CE0EDF1EF60180819181A281B38120ECDB
:103FA0003FEFC20ED31E082E8B2FB02D092E9A2F55
:103FB000A02DF50180879187A287B38708C0D5011E
:103FC0001D961C92F5011086118612861386D60165
:103FD00090962C9121FF36C0E3E5F0E0CE0EDF1E77
:103FE000D6018D919C91EDEAFFEFCE0EDF1E082EDB
:103FF000892F902D9A838983D5011D968C911D97C9
:1040000082601D968C932D7FF60120A381A592A539
:10401000A3A5B4A50196A11DB11D81A792A7A3A731
:10402000B4A782E0D50154968C93549784E05596BA
:104030008C935597898156968C9356978A8157967B
:104040008C9347C06114710469F1C40160E8A30155
:104050000E946C4E4C01009729F4E1E6F0E0CE0E90
:10406000DF1EE7C0FC01878590896F2D7E2DA3019F
:104070000E947967C301A0E0B0E0F60121A532A556
:1040800043A554A5280F391F4A1F5B1FD6019996D7
:104090002D933D934D935C939C97F50185858860A6
:1040A000858717C020FF15C0D5011D968C911D97DF
:1040B00081601D968C932E7FF60120A381A592A589
:1040C000A3A5B4A50196A11DB11D81A792A7A3A781
:1040D000B4A724E430E0C20ED31ED6012D913C914A
:1040E000EFE0F0E0CE0EDF1ED6018D919C91EDEA5F
:1040F000FFEFCE0EDF1E2817390730F4D5011F96CB
:104100001C921E921E9706C0022E232F302DF50101
:1041100037872687D50151961C921E925097539649
:104120001C921E925297F401E188F288858596854B
:10413000E80EF91E0E2CEF2CF02CD60154966D9142
:104140007D918D919C9157975A962D913D914D91CE
:104150005C915D9706E00E945C2DDC01CB01F401CF
:1041600045855685B5010E941F2DD4011F966D917E
:104170007C91509751964D915C9152970E94552D8C
:10418000F501918B808B672839F4858590E08370E9
:104190009070892B09F453C0D4011D921C92D60152
:1041A000D896ED91FC91D997309799F4D9969C9235
:1041B0008E92D8970E948939EFE5F0E0CE0EDF1E8F
:1041C0006160D6016D937C93E1EAFFEFCE0EDF1EB6
:1041D00009C0CF010190F081E02D3097D1F7FC01AB
:1041E0009182808296012B5A3F4FF9018081918103
:1041F000A281B3810097A105B10581F4F501848105
:104200009581A681B781082E8B2FB02D092E9A2F6C
:10421000A02DF90180839183A283B383C40160E060
:104220000E948C4D7C01009759F421E630E0C20ECB
:10423000D31E87E390E0D6018D939C930CC074014C
:10424000F601428D538D648D758D86E097010E9435
:10425000942E892B19F02FEF3FEF05C0C7010E9464
:10426000984C20E030E0C9010F900F90CF91DF9182
:104270000F91FF90EF90DF90CF90BF90AF909F9005
:104280008F907F906F900895CF93DF939C01DB0117
:104290001D968D919C911E974597A0F11B96ED91CF
:1042A000FC911C977496E901CD5ADF4F1AC061301A
:1042B00019F0623099F402C0319613C0528140E087
:1042C0008381282F30E0242B352B88819981281772
:1042D000390710F439832883349603C08181E80FAD
:1042E000F11D6081662371F01B968D919C911C9746
:1042F0009F01281B390B1D968D919C911E972817A5
:104300003907ACF2DF91CF910895CF93DF93EC01A1
:10431000CF59DF4F798368831A921A921A921A92B0
:10432000CD55D0408B89863018F08AE08B8B01C048
:104330001B8ACE010E94CF11CE01815B9F4F0E944C
:10434000653CCE01CA960E94653CCE018D599F4FB7
:104350000E94653CCE018B599F4F0E94653C80E0D6
:1043600090E0DF91CF9108958091260790912707E3
:10437000892B99F482E195E060E67AE240E050E032
:1043800020E031E00E94AA4F9093270780932607F0
:10439000892B19F42FEF3FEF02C020E030E0C90174
:1043A0000895CF92DF92EF92FF920F931F93CF93D6
:1043B000DF937C01FC01118210828091260790918D
:1043C0002707892B21F4C7010E94D11E42C0C0904B
:1043D000FF07D0900008C114D10429F4F09200081E
:1043E000E092FF072EC0F701C585D68581859285AD
:1043F000C80FD91F81899289C80FD91F009128073A
:10440000109129070050184F0C0F1D1F85E098E0F0
:104410000E94AF3508171907C8F4809128079091BA
:1044200029078C0F9D1F9093290780932807C601A9
:10443000F601C080D180C114D104C9F7FC01F1821A
:10444000E08281E098E00E94723C03C0C7010E94B4
:10445000984CDF91CF911F910F91FF90EF90DF90DB
:10446000CF900895FC01009719F42FEF3FEF0CC097
:1044700080A1886180A3CF0160E070E040E050E05F
:104480000E94631F20E030E0C90108950F931F933D
:10449000CF93DF93EC018B01DC01A35BBF4FED9168
:1044A000FC911197309751F0CF010190F081E02DF0
:1044B0003097D1F7FC011183008302C06D937C9388
:1044C000FE01EA5BFF4FD80151968D919C91529766
:1044D00020813181820F931F91838083FE01E05CF4
:1044E000FF4F51966D917C915297CB01AA2797FD72
:1044F000A095BA2F2081318142815381820F931F71
:10450000A41FB51F80839183A283B383FE01EC5B5C
:10451000FF4F808191816817790718F0118210820E
:1045200004C0861B970B9183808328A1822F806112
:1045300088A3F80180819181892B19F01182108262
:1045400002C0286128A3FE01E45BFF4F10811F5FBA
:10455000108319302CF1CA5BDF4F6881798127966F
:10456000E881F981CD54D040212F18C081899289EA
:104570008F3F910509F054F4CF010E94F44CC45BC5
:10458000DF4F181B1883CC54D0400AC0215028306C
:104590003CF0681B790B0190F081E02D309731F7EA
:1045A000CE0160E070E040E050E00E94631FDF91C8
:1045B000CF911F910F9108951F93CF93DF93EC013B
:1045C000162F8B89853009F466C0863088F48230D6
:1045D00051F1833038F4882309F465C0813009F043
:1045E0009EC01DC0833039F1843009F098C011C0DD
:1045F000883009F48DC0893030F4863069F1873015
:1046000009F08DC04DC08930C1F18A3009F087C0F2
:104610007FC0653079F1663009F07AC03EC0633002
:1046200009F076C005C0633019F0643049F422C047
:1046300088A182613EC0643009F471C0653020F405
:10464000113009F065C06BC0653039F1663009F092
:104650005FC088A181602DC0673061F0683020F4B0
:10466000663009F055C05BC0862F8950823008F053
:104670004FC055C088A188611CC06A3019F420E081
:1046800030E002C02FEF3FEF88A1886188A3211599
:10469000310581F03FC06830D9F588A1816109C03A
:1046A0006A30B1F53CC06130D1F1623089F588A142
:1046B000826088A381E01B8B8823B1F0CE0160E08B
:1046C00070E040E050E00E94631F892B69F01230D7
:1046D00059F4CF59DF4F80E490E099838883CE016D
:1046E00004960E94DD3B14C0153079F4CE01815B45
:1046F0009F4F0E94653CCE018D599F4F0E94653CA3
:10470000CE018B599F4F0E94653C20E030E002C0F3
:104710002FEF3FEFC901DF91CF911F91089580E006
:10472000CACFCF93DF93EC0162E00E94DC228B8939
:10473000823049F4CE018B599F4F40E050E060E059
:1047400070E00E94C73C8B89843031F08B898530C2
:1047500019F02FEF3FEF02C020E030E0C901DF91F8
:10476000CF910895CF93DF93EC019B01FA01DB0118
:1047700050964D915D916D917C9153974C8B5D8BD3
:104780006E8B7F8B808191819F8F8E8F1C964D9138
:104790005D916D917C911F974A8F5B8F6C8F7D8FA0
:1047A00084819581A681B781082E8B2FB02D092E8B
:1047B0009A2FA02D8CAF9DAFAEAFBFAF8DA79EA798
:1047C000AFA7B8ABC05CDF4F0196A11DB11D8883B8
:1047D0009983AA83BB83C054D04086859785082ED1
:1047E000892F902D9EAB8DABF901648575858685EB
:1047F000978540E050E00E942C19FC01009729F1B8
:104800000784F089E02D8789908D8897CD5ADF4FF6
:1048100028813981C355D0402115310519F08217FF
:10482000930730F4CD5ADF4F99838883C355D04026
:10483000CD5ADF4F28813981C355D04089899A8963
:104840002817390710F43A8B298BDF91CF910895FF
:104850000F931F93CF93DF93EC01FC01E55AFF4FB9
:10486000808191810196918380830197089720F040
:10487000CE016CE370E013C0E8ADF9AD00811181A9
:104880004A8D5B8D6C8D7D8D86E09F010E94942EFC
:10489000892B51F019AF08AFCE0162E370E00E949E
:1048A00085212FEF3FEF09C00E948939C15ADF4FA0
:1048B00061607983688320E030E0C901DF91CF91A6
:1048C0001F910F910895AF92BF92CF92DF92EF9216
:1048D000FF920F931F93CF93DF93EC01FB01BA017B
:1048E000A084B184C284D3840A2CAD2CD02C0B2C90
:1048F000BC2CC02C89A59AA5ABA5BCA58A199B097F
:10490000AC09BD09B7FF04C088A1886188A3E3C0D2
:104910008DA19EA1AFA1B8A5A816B906CA06DB064F
:1049200009F036C02481358146815781022E252F1A
:10493000502D032E342F402DEDA4FEA40FA518A951
:10494000D801C701821B930BA40BB50BB7FD11C097
:104950002E153F0540075107D9F489A99AA9ABA99B
:10496000BCA986017501E81AF90A0A0B1B0B17FD91
:104970000FC086859785082E892F902D9EAB8DAB15
:104980002DA73EA74FA758ABA9AABAAACBAADCAAC3
:104990002DA13EA14FA158A5D601C501821B930BA5
:1049A000A40BB50BB7FD97C0A216B306C406D50677
:1049B000F9F488AD99AD892B09F48DC0672B09F006
:1049C0008AC0858590E083709070892B09F083C040
:1049D0008FA98F5F8FAB833008F47DC01FAACE01F3
:1049E0000E942824892B09F476C02FEF3FEF75C071
:1049F0001FAAADA2BEA2CFA2D8A686859785082EF3
:104A0000892F902D9EAB8DABCB5ADF4F888199813A
:104A1000AA81BB81C555D0400097A105B10549F0D9
:104A20008A199B09AC09BD09B7FF03C0CE010E94DA
:104A3000C82BCB5ADF4F188219821A821B82C555A8
:104A4000D04035C0DB011B96ED91FC911C97248171
:104A5000358146815781022E252F502D032E342F6C
:104A6000402D51968D919C915297AA2797FDA09524
:104A7000BA2F280F391F4A1F5B1F858590E083706E
:104A80009070892B21F02F5F3F4F4F4F5F4FD60122
:104A9000C501821B930BA40BB50BB7FD0FC0FB0127
:104AA0008081918199AF88AFCB010E94984C68AD0D
:104AB00079AD6115710509F0C5CF1BC00E94893918
:104AC000C15ADF4F616079836883CF55D040C55AA2
:104AD000DF4F1982188220E030E0C901DF91CF91C9
:104AE0001F910F91FF90EF90DF90CF90BF90AF900C
:104AF0000895C15ADF4F19821882E7CF2F923F9253
:104B00004F925F926F927F928F929F92AF92BF92DD
:104B1000CF92DF92EF92FF920F931F93DF93CF9389
:104B2000CDB7DEB72C970FB6F894DEBF0FBECDBF62
:104B30009C878B876B01DB011B968D909C901C974B
:104B4000F401B584DC0153968C91853009F4A5C33A
:104B5000863098F4823009F4FDC1833038F488231C
:104B600009F40CC4813009F00DC4E1C1833009F4AB
:104B700056C2843009F006C410C0883009F4D2C38C
:104B8000893038F4863009F4E3C2873009F0FAC37B
:104B90009DC3893009F0F6C339C3EB85FC8505A8B0
:104BA000F6A9E02DFA83E983AB85BC8595962D9017
:104BB0003D904D905C9098972F82388649865A8612
:104BC000B2FE0AC0CB010E94984C8B859C8566E39F
:104BD00070E00E9485218BC1B1FE1AC0F40184816E
:104BE0009581A681B781082E8B2FB02D092E9A2F83
:104BF000A02DEB85FC8524AD35AD46AD57AD8217B4
:104C00009307A407B50731F0CB010E94D11E6FC1F5
:104C1000B4FC04C0C6010E94984C69C1DB015196E6
:104C20004D915C9152978B859C85B4010E946324C1
:104C3000EB85FC85E05CFF4FE080F1800281138111
:104C4000E054F040FC87EB87D40114962D913D9100
:104C50004D915C911797DA01C901082E8B2FB02D69
:104C6000092E9A2FA02D17012801281A390A4A0A5D
:104C70005B0A57FE85C0D60151964D915C915297C3
:104C80004115510509F46BC080914207909143078B
:104C9000889615962D913C911697820F931F840F3D
:104CA000951F909343078093420781599C40B0F031
:104CB000C6010E94984C80914207909143078897C3
:104CC000F60121893289821B930B25813681821B53
:104CD000930B909343078093420744C0EB85FC8578
:104CE000EF5AFF4F608171815F0134C0D401149687
:104CF000ED90FD900D911C9117970E2CE12E102D2B
:104D00000F2CF02E002DDB011B96ED91FC911C97D2
:104D10002481358146815781022E252F502D032E67
:104D2000342F402DD801C701821B930BA40BB50B68
:104D3000B7FF07C0F501D182C082D6016D937C9385
:104D400011C0E216F3060407150749F05B01DB0109
:104D50006D917C916115710509F0C8CF17C3C6012B
:104D60000E94984CEB85FC8580A1886180A38B858F
:104D70009C8560E070E040E050E00E94631FB7C097
:104D8000022E252F502D032E342F402D2E153F059A
:104D90004007510719F1AB85BC8590968C9190978F
:104DA000886190968C939097FD01E159FF4F808127
:104DB0009181A281B3810196A11DB11D8083918350
:104DC000A283B383C6010E94984C8B859C8560E0CA
:104DD00070E040E050E00E94631F73C0F6018189DB
:104DE0009289892B09F46AC08B859C85B6010E9443
:104DF000462241E5842E912C2B843C84820C931C0A
:104E000030E4632E712C620C731C4BC0C384D484B9
:104E1000D60114964D915D916D917C9117971A0171
:104E20002B01022C252C502C032C342C402CD3018C
:104E3000ED90FD900D911C91D801C7018219930945
:104E4000A409B509B7FD33C080819181D4018D9348
:104E50009C938091420790914307889721893289DA
:104E6000821B930B25813681821B930B9093430702
:104E700080934207042E472F702D052E562F602D4C
:104E80004E155F056007710749F48B859C85BF014E
:104E90000E944622F6018585B82A03C0CF010E94F0
:104EA000984CD401ED91FC91309709F0AFCF8B85F0
:104EB0009C85815B9F4F0E94723C03C0C6010E948B
:104EC000984CB0FE14C0EB85FC85E05CFF4F808100
:104ED0009181A281B3810196A11DB11D808391832F
:104EE000A283B3838B859C8565E00E94DC22EB85E1
:104EF000FC8583898430A9F485A996A929803A8004
:104F00002816390670F085A196A1A7A1B0A54F80FB
:104F1000588469847A8484159505A605B70509F433
:104F20003CC28B859C85CA960E94653C36C226E1B0
:104F3000522EB52092E0692EB61409F01FC2DB0193
:104F400017966D917C9118978B859C85A4010E9482
:104F5000B22361C06B2D70E080E1A82EB12CA62297
:104F6000B72264FF2AC0F40180859185A285B385AC
:104F7000082E8B2FB02D092E9A2FA02DEB85FC85A6
:104F8000E1A0F2A003A114A18E199F09A00BB10BFF
:104F90000196A11DB11D21A532A543A554A52F5FE2
:104FA0003F4F4F4F5F4F2E193F09400B510B2817B2
:104FB00039074A075B0708F4E1C162FF0AC0AB2862
:104FC00009F4E0C18B859C856DE370E00E9485212A
:104FD000D9C161FFD7C1D60117966D917C91189701
:104FE0008B859C85A4010E94B223AB28A1F0F60119
:104FF000418952898B859C85B4010E9463248B85ED
:105000009C8564E00E94DC228B859C858B599F4F98
:105010000E94723CB7C18B859C8563E080C1B2FE63
:105020002AC02B853C852D593F4FD9018D919C91EC
:105030001197A356B040BC87AB87892B29F0CD01CF
:1050400061E00E94DC2206C08B859C856DE370E0E8
:105050000E948521C6010E94984CEB85FC85E15A8F
:10506000FF4F11821082EF55F040FC87EB87CF0194
:105070000E94CF1192C1B1FC81C1B4FE83C1F40181
:1050800080859185A285B385082E8B2FB02D092EA2
:105090009A2FA02DEB85FC85E5A0F6A007A110A511
:1050A0008E199F09A00BB10B0196A11DB11D21A561
:1050B00032A543A554A52F5F3F4F4F4F5F4F2E1989
:1050C0003F09400B510B281739074A075B0708F4C3
:1050D00055C1DB0151964D915C9152978B859C8512
:1050E000B4010E946324F60181899289892B31F0F1
:1050F0008B859C85B6010E94462203C0C6010E9492
:10510000984CB0FE13C0EB85FC85E05CFF4F8081BE
:105110009181A281B3810196A11DB11D80839183EC
:10512000A283B3838B859C8565E0B4C08B859C8509
:1051300064E00E94DC228B859C858D599F4F0E94E4
:10514000723C8B859C858B599F4F0E94723C25C178
:105150001B2DB2FCE9C0B1FC11C1B4FE13C1DB01CF
:1051600051964D915C9152978B859C85B4010E941C
:105170006324EB85FC8521A532A543A554A585A113
:1051800096A1A7A1B0A5281739074A075B0721F404
:10519000CF0169E00E94DC22D60151968D919C914D
:1051A0005297892B61F08B859C85B6010E9446221F
:1051B0008B859C85815B9F4F0E94723C03C0C6011A
:1051C0000E94984C10FFE9C0EB85FC85E05CFF4F26
:1051D00080819181A281B3810196A11DB11D80833F
:1051E0009183A283B383EB85FC85E35AFF4F118241
:1051F0001082ED55F040FC87EB878389893011F4EC
:10520000CF0147C08B859C8567E044C01B2DB2FC55
:105210008BC0B1FCB3C0B4FEB5C0DB0151964D915B
:105220005C9152978B859C85B4010E946324F601A2
:1052300081899289892B61F08B859C85B6010E94BA
:1052400046228B859C85815B9F4F0E94723C03C0E8
:10525000C6010E94984C10FFA0C0EB85FC85E05C65
:10526000FF4F80819181A281B3810196A11DB11D63
:1052700080839183A283B3832B853C85235A3F4F40
:10528000D90111961C921E92AD55B040BC87AB87D8
:10529000CD016AE00E94DC2280C0B2FE0AC0CB01D0
:1052A0000E94984C8B859C8566E370E00E94852166
:1052B00074C0B1FC63C0B4FE65C0FB014189528972
:1052C0008B859C85B4010E9463245CC0B2FC2CC019
:1052D000B1FC54C0B4FE56C0DB0151964D915C91B7
:1052E00052978B859C85B4010E946324EB85FC85D5
:1052F00021A532A543A554A585A196A1A7A1B0A536
:10530000281739074A075B07E9F5E35AFF4F11826F
:105310001082ED55F040FC87EB87CF016AE00E94D8
:10532000DC2230C0B2FE06C0C6010E94984C8B85BC
:105330009C8521C0B1FC22C0B4FE24C0DB01519683
:105340004D915C9152978B859C85B4010E9463249A
:10535000C6010E94984CEB85FC8521A532A543A58A
:1053600054A585A196A1A7A1B0A5281739074A077A
:105370005B0799F4CF010E94B6160FC0C6010E94C8
:10538000D11E0BC0C6010E94984C07C0D501CD921A
:10539000DC92F60111821082E5CC2C960FB6F894BF
:1053A000DEBF0FBECDBFCF91DF911F910F91FF9058
:1053B000EF90DF90CF90BF90AF909F908F907F90B5
:1053C0006F905F904F903F902F9008950F931F9391
:1053D000CF93DF93EC018B89882349F0CF59DF4FBE
:1053E00088E390E09983888328E330E063C0CE01AE
:1053F00061E00E94DC22088D198D4AE257E068E0E6
:1054000020E030E0722FDA01ED91FC913097A9F0A5
:105410000384F485E02D828193818017910769F4DC
:10542000683061F0D901A65CB84FE62FF0E0E65C89
:10543000F84F9C918081891708F0762F2F5F3F4F9E
:105440004E5F5F4F2830310511F0672FDBCF78308A
:10545000B1F0E72FF0E0EE0FFF1FE65DF84F00819F
:105460001181118210820115110549F0CE01B80198
:105470000E944421CE01B8010E947E250FC0C95967
:10548000DF4F488159816A817B81C756D040CE0168
:105490008D599F4F0E94C73C892B19F420E030E0C2
:1054A00009C01B8ACF59DF4F8CE390E09983888332
:1054B0002CE330E0C901DF91CF911F910F91089546
:1054C00080E20E94F537CC245524539401C0CC24AB
:1054D000C39483E08C1558F081E098E048EC50E0EC
:1054E00060E070E00E94C73C892B09F483C0CAE2E7
:1054F000D7E0AAE3B7E020E0E8E088819981892B32
:1055000039F08C91853010F0E22F02C08F5F8C93C0
:105510002F5F22961196283081F7E83069F0F0E08D
:10552000EE0FFF1FE65DF84F80819181118210829E
:10553000009711F00E94D11EC091FE06D091FF0687
:1055400055C088A184FF09C0886088A3CE0160E0AF
:1055500070E040E050E00E94631F88AD99AD892B58
:10556000E1F08E01015A1F4FD8018D919C91892B3A
:10557000A1F00E948939F801208131812E7F621BC0
:10558000730BC75ADF4F28813981C955D040621744
:10559000730718F0CE010E9428248B898A3019F0F5
:1055A0008B89893079F4FE01E35AFF4F8081918124
:1055B00001969183808301970997A8F0CE010E94FC
:1055C000B61685CF8B89833071F4FE01E35AFF4F05
:1055D0008081918101969183808301978D9718F046
:1055E0005B8A118210820990D881C02D209709F022
:1055F000A8CF6DCF0091FF0710910008109200080E
:105600001092FF0710922907109228078CC0E8011A
:10561000AB85BC856D917C911197EF81F8852485D0
:1056200035854685578512968D919C9113970E94DA
:10563000E410EC01F80170806180009741F0B8013E
:105640000E944421CE01B8010E947E2568C0D80185
:1056500017968D909C9018971B96AD90BC901C97B8
:10566000E5018D858671823009F056C0FAE2EF2E91
:10567000F7E0FF2EE8E0DE2EC0E0D0E0AC2FF7012F
:10568000608171816115710521F4F8E0DF1659F52B
:105690002BC0DB011796ED91FC9118972485358579
:1056A00046855785F40184859585A685B785281795
:1056B00039074A075B07B9F4DB011B96ED91FC91B2
:1056C0001C9720813181F50180819181281739074C
:1056D00051F4CB010E94984CCC0FDD1FC65DD84F12
:1056E0001982188219C0AD2D219682E090E0E80E53
:1056F000F91EC830D10511F0DA2EC0CFA83061F004
:10570000B0E0FD01EE0FFF1FE65DF84F118300834F
:10571000A65CB84F1C9203C0C8010E94D11E872D01
:10572000962D9C0189010115110509F070CFD0CE8D
:10573000CF93DF93EC01009729F10E9475388B8994
:10574000853018F4833068F408C0853069F0FE01B4
:10575000EF59FF4F8B3090F40EC0CE010E94B61669
:1057600007C0CE0166E002C0CE0168E00E94DC22E4
:1057700020E030E009C085E290E002C089E390E0DB
:10578000918380832FEF3FEFC901DF91CF9108957F
:105790000F931F93CF93DF93EC018C01015A1F4F9E
:1057A000F80180819181892B31F10E948939C75A92
:1057B000DF4F88819981C955D040880F991FF80122
:1057C000208131812E7F821B930B860F971F880FBC
:1057D000991F880F991FF7E0803D9F0718F488EC08
:1057E00090E005C06AE070E00E94BC66CB01C75A39
:1057F000DF4F99838883DF91CF911F910F91089597
:105800000F931F93CF93DF93EB01EB85FC853097CC
:10581000E9F12D853E8528303105C0F12850304012
:105820003A8B298B88E090E09E878D87232B21F08F
:105830003896F88BEF873897828193810E941517ED
:105840008C01009781F48A8183FF20C083E063E0AC
:1058500020E030E040E050E08E010E946331892B6F
:1058600009F051C013C0DC011A964D915C911B9751
:105870004115510569F189899A8918962D913C91B4
:105880001997820F931F4817590724F4CE010E94DD
:10589000984C39C0D8011496ED91FC91159730972A
:1058A00051F0CF010190F081E02D3097D1F7FC014C
:1058B000D183C08303C0F801D583C483D80118966F
:1058C0008D919C91199729893A89820F931F0EC057
:1058D000FC0184819581009711F00E94984CD801B9
:1058E0001596DC93CE93149789899A8919969C937F
:1058F0008E931897F80186819781892B21F0C80132
:1059000006960E94723C80E090E0DF91CF911F915B
:105910000F9108954F925F926F927F928F929F9214
:10592000AF92BF92CF92DF92EF92FF920F931F93AD
:10593000DF93CF9300D000D0CDB7DEB72C013A0172
:105940004B017901C80160E448E050E00E946C4ED0
:105950005C01009719F42FEF3FEF5BC0FC01C3849B
:10596000D484F20182819381F601918380830E2C8D
:10597000EF2CF02CF382E282F50181899289258552
:105980003685820F931F082E892F902DF60195835F
:105990008483C401B301AE014F5F5F4F0E942C1995
:1059A000FC01009761F00784F089E02D83859485E0
:1059B000A585B68589839A83AB83BC8304C019828D
:1059C0001A821B821C82F6011782168269817A81F3
:1059D0008B819C81E480F580A401930101E10E9408
:1059E0005C2DDC01CB01B60148E050E00E941F2D88
:1059F000F50167857089418952890E94552DF6010C
:105A00009783868381E1B401A30195010E94942EBE
:105A10009C01C9010F900F900F900F90CF91DF91D3
:105A20001F910F91FF90EF90DF90CF90BF90AF90BC
:105A30009F908F907F906F905F904F900895EF921E
:105A4000FF920F931F937C0100E010E0FB010FC059
:105A5000318120E0808190E0822B932BA0E0B0E0A8
:105A6000E80EF91E0A1F1B1F32964250504042306A
:105A7000510574F7452B61F08081E80EF11C011D82
:105A8000111D06C000E010E0E80EF91E0A1F1B1FE2
:105A9000C801AA27BB270097A105B10599F7C7013F
:105AA0001F910F91FF90EF9008950E941F2D9C0170
:105AB00020953095C9010895EF92FF920F93DF93DF
:105AC000CF93CDB7DEB72C970FB6F894DEBF0FBEDD
:105AD000CDBF69837A838B839C832D833E834F83E1
