:100000000C9473000C94B9000C94B9000C94B900D2
:100010000C94B9000C94B9000C9494290C94B90078
:100020000C94B9000C94B9000C94B9000C94B9006C
:100030000C94B9000C94B9000C94B9000C94DF2016
:100040000C94B9000C94B9000C9416250C947825E6
:100050000C94B9000C94B9000C94B9000C94B9003C
:100060000C94B9000C94B9000C94B9000C94B9002C
:100070000C94B9000C94B9000C94B9000C94B9001C
:100080000C94B9000C94B9000C94B900282B2B2BBC
:100090002E2B362B392B3C2B3F2B422B492B742BF1
:1000A000992B9E2BA32BA82BAD2BB72BBB2BBE2B99
:1000B000C82BD22B252B252B252B252BF62BF92BCB
:1000C000FC2B0D2C102C1A2C252B1D2C252C282C10
:1000D000302C332C3B2C3E2C462C252B252B252B32
:1000E000252BD62BE42B80EC85BF87E089B9809344
:1000F000990011241FBECFEFD0E1DEBFCDBF14E0C9
:10010000A0E0B1E0EEE8FCEB00E00BBF02C007901E
:100110000D92A636B107D9F719E0A6E6B4E001C002
:100120001D92AE39B107E1F78FEF9EEF9EBF8DBFF5
:100130008FEF9EEF8E5999408158914050F04FEFCC
:100140005DEF4E59594089E499E06EE979E00E94EB
:1001500086170E94621F8CEB92E06EE873E040E02D
:1001600050E020E830E00E94CA1F0E9400000C947A
:10017000455E0C9400002F923F924F925F926F92D7
:100180007F928F929F92AF92BF92CF92DF92EF9227
:10019000FF920F931F93DF93CF9300D000D0CDB782
:1001A000DEB780E092ECA1E0B0E089839A83AB8374
:1001B000BC8387EE92E060E070E040E00E94251F83
:1001C00040910F045091100480E091E066E071E0EE
:1001D0000E94C05780910F04909110040E942A57EA
:1001E00061E071E0AE014F5F5F4F0E946E5688E0A4
:1001F00091E00E94905887E191E00E94905883E638
:1002000093E060E070E040E00E94251F86E391E00B
:1002100060E070E020E63AEE40E050E00E94A60484
:10022000892B09F444C086E391E066EB72E020E696
:100230003AEE40E050E00E94A604892BC1F18BE326
:1002400091E00E944E3B4B015C018BE491E00E94E7
:100250004E3B7B018C0186E391E066EB72E0A501E9
:1002600094010E94683F89E591E00E944E3B7B012A
:100270008C0160E070E080E090E020E030E040E061
:1002800050E0E3E6CE2EE3E0DE2E0E942A3A87E637
:1002900091E00E944E3B9B01AC0180E090E060E069
:1002A00070E0EE24FF2487010E94901008C0809027
:1002B000860990908709A0908809B0908909C501A6
:1002C000B4010E94A03B00D000D025E731E0ADB7DB
:1002D000BEB712963C932E93119714969C938E93CF
:1002E00013970E947E580F900F900F900F900FE77A
:1002F00011E0C8010E94AF164B015C016115710548
:100300008105910509F4E9C10E94C4361C010097DA
:1003100009F4F6C0C501B4010E94A03B00D000D092
:1003200000D0EDB7FEB731962EE831E0ADB7BEB7DD
:1003300012963C932E9311979383828380E590E0ED
:10034000958384830E947E58EDB7FEB736960FB62C
:10035000F894FEBF0FBEEDBFC101B501A40120E5B9
:1003600030E00E943F36892B09F091C0C10161EA5B
:1003700071E00E94C1566C01009709F483C000D05F
:1003800000D000D0EDB7FEB73196ADB7BEB712962C
:100390009C938E93119785EA91E09383828387EBF8
:1003A00091E0958384830E945D58EDB7FEB7369641
:1003B0000FB6F894FEBF0FBEEDBF89EB91E0B6011A
:1003C0000E946E588DED91E0B6010E946E58C601F4
:1003D0000E9418570E94361B2B013C01EE24FF247B
:1003E000870113C086E694E00E949058A6E6B4E028
:1003F0000D900020E9F7CD01019786569440A0E0CA
:10040000B0E0E80EF91E0A1F1B1F86E694E060E0CC
:1004100074E0A6010E943258892B21F70E94361BF6
:10042000EDB7FEB73A970FB6F894FEBF0FBEEDBF1B
:10043000319620EE31E0ADB7BEB712963C932E93C5
:100440001197E282F3820483158364197509860982
:10045000970934E096958795779567953A95D1F702
:1004600066837783808791870E947E58EDB7FEB7B9
:100470003A960FB6F894FEBF0FBEEDBFC6010E94BC
:10048000835619C085E092E00E94905814C000D0B5
:1004900000D083E292E0ADB7BEB712969C938E93E4
:1004A000119714961C930E9313970E947E580F90E9
:1004B0000F900F900F90C501B4010E94A03B00D097
:1004C00000D000D0EDB7FEB7319629E432E0ADB7E9
:1004D000BEB712963C932E9311979383828380E547
:1004E00090E0958384830E947E58EDB7FEB73696E0
:1004F0000FB6F894FEBF0FBEEDBFC1010E949B3541
:1005000068E873E180E090E00E94551C0E94C436C8
:100510006C01009709F4F5C0C501B4010E94A03B2D
:1005200000D000D000D0EDB7FEB731962EE831E014
:10053000ADB7BEB712963C932E93119793838283E7
:1005400080E590E0958384830E947E58EDB7FEB7E6
:1005500036960FB6F894FEBF0FBEEDBFC601B501CB
:10056000A40120E530E00E943F36892B09F079C0D4
:1005700006E614E0C8016EE572E00E94195ED8013B
:100580000D900020E9F77D010894E108F108E01AD8
:10059000F10A00E010E00EC0B8016A597B4FA701D4
:1005A000401B510BC6010E94B533181619062CF4D6
:1005B000080F191F0E151F0578F30E94361B2B011B
:1005C0003C01EE24FF24870110C0CF01AA2797FD2C
:1005D000A095BA2FE80EF91E0A1F1B1FEA59FB4F00
:1005E000108286E694E00E949058C60166E674E0A8
:1005F0004FEF53E00E948832FC01181619062CF3C5
:100600000E94361BEDB7FEB73A970FB6F894FEBFBF
:100610000FBEEDBF319620EE31E0ADB7BEB71296FA
:100620003C932E931197E282F3820483158364191D
:1006300075098609970924E09695879577956795BA
:100640002A95D1F766837783808791870E947E58A9
:10065000EDB7FEB73A960FB6F894FEBF0FBEEDBFEA
:1006600016C000D000D083E292E0ADB7BEB71296BC
:100670009C938E9311978FE791E014969C938E93A1
:1006800013970E947E580F900F900F900F90C50106
:10069000B4010E94A03B00D000D000D0EDB7FEB75F
:1006A000319629E432E0ADB7BEB712963C932E9353
:1006B00011979383828380E590E0958384830E94E1
:1006C0007E58EDB7FEB736960FB6F894FEBF0FBE54
:1006D000EDBFC6010E949B3514C000D000D084E954
:1006E00092E0ADB7BEB712969C938E931197149675
:1006F0001C930E9313970E947E580F900F900F90AB
:100700000F9068EE73E080E090E00E94551CF9CFF6
:100710009091C6028093C602892F08950E94321DCF
:1007200081EC92E06BEB70E040E050E020E034E0E0
:100730000E94CA1F8EEF0E94DD190E945D1A0E945E
:10074000A5192091C6022F3FC1F395B785B7837EC7
:10075000822B85BF85B7806285BF889585B78F7DE1
:1007600085BF85B79C71837E982B95BFE6CF80911E
:100770006B0890E0089580916C0890916D0810923C
:100780006D0810926C08089520E030E080916B08AD
:10079000853011F421E030E0C9010895DF92EF9235
:1007A000FF920F931F93CF93DF93D62E79018A0187
:1007B0000E94091FEC01009751F08B85833039F4BA
:1007C000EF85F889309719F08081863049F081E112
:1007D00090E090936D0880936C082FEF3FEF35C049
:1007E0000E94561B60937608709377088093780870
:1007F00090937908E0927208F0927308009374085D
:1008000010937508D0926B088091690890916A08DE
:10081000892B69F487EC92E06BE479E0AE0120E289
:1008200031E00E94CA1F90936A08809369088EE69F
:1008300098E00E943F1E80E798E040E050E060E0D2
:1008400070E00E94941E20E030E0C901DF91CF915A
:100850001F910F91FF90EF90DF900895FC019A0196
:10086000AB0180916B08882349F083E090E090937E
:100870006D0880936C082FEF3FEF05C0CF0168E053
:100880000E94CE039C01C9010895FC019A01AB01AD
:1008900080916B08853049F083E090E090936D087B
:1008A00080936C082FEF3FEF05C0CF0169E00E94F5
:1008B000CE039C01C9010895CF92DF92EF92FF927F
:1008C0000F931F93CF93DF93FC0184E292E0DF014B
:1008D000EC011D922197E9F781E08083818386E016
:1008E0008283EF016C96A0E8B9E00D9009928150E7
:1008F000E1F724833583468357830C2CCD2CD02CF1
:10090000D186C086E486F58606871787E451FF4FB7
:1009100093E69193DF0182E8819383E511968C93AE
:10092000DF0111969183FD01319685E311968C9339
:1009300081E08183628387E090E0DF91CF911F9116
:100940000F91FF90EF90DF90CF9008954F925F92BC
:100950006F927F928F929F92AF92BF92CF92DF92CF
:10096000EF92FF920F931F93DF93CF93CDB7DEB734
:1009700060970FB6F894DEBF0FBECDBF4C012B01C0
:100980002D873E874F87588B0E94091F5C01009777
:1009900069F0FC018385833049F4C784D088C11491
:1009A000D10421F0F6018081863019F081E190E0D8
:1009B0003BC08E010F5F1F4FF80111928A95E9F736
:1009C00097E0692E712C6C0E7D1EC3016FEF70E0F5
:1009D00046E050E00E94095E85E0E82EF12CEC0C28
:1009E000FD1CC701B80146E050E00E94F35D00978E
:1009F00041F0C701B30146E050E00E94F35D00976B
:100A000031F54114510449F0A0E8B9E0F20186E063
:100A100001900D928150E1F70CC0C4010E94923FF9
:100A2000892B39F082E090E090936D0880936C08F8
:100A3000BFC0D701E0E8F9E086E001900D92815057
:100A4000E1F764EF71E080E090E00E94551CF60150
:100A5000138614861586168680918A0990918B09D3
:100A6000A0918C09B0918D09838B948BA58BB68B4B
:100A700080918A0990918B09A0918C09B0918D0980
:100A800020919209309193094091940950919509D0
:100A900082239323A423B5230097A105B10501F177
:100AA000C40140EE5EE260E070E00E9445042091E7
:100AB000920930919309409194095091950920939E
:100AC0008609309387094093880950938909E090FB
:100AD0008A09F0908B0900918C0910918D0958C0FA
:100AE000C40161E02D853E854F8558890E94CE0363
:100AF000892B09F05DC080916B08853031F5E0915C
:100B00006708F09168084181528163817481058191
:100B1000168127813085C584D684E784F088C50195
:100B20000E94983DE0916708F09168082189328918
:100B300043895489E588F6880789108D80E090E024
:100B400060E070E00E94901030C0F60183859485CB
:100B5000A585B6850097A105B10539F520918609CF
:100B6000309187094091880950918909E0908A095C
:100B7000F0908B0900918C0910918D09D801C70163
:100B800082239323A423B5230097A105B10581F007
:100B9000A0908E09B0908F09C0909009D0909109D3
:100BA000C40160E879E00E94953E20E030E002C098
:100BB0002FEF3FEFC90160960FB6F894DEBF0FBE6E
:100BC000CDBFCF91DF911F910F91FF90EF90DF90FC
:100BD000CF90BF90AF909F908F907F906F905F90DD
:100BE0004F900895CF93DF93EC01009779F089A59A
:100BF0009AA5009711F00E94D0588BA59CA500974C
:100C000011F00E94D058CE010E94D058DF91CF91B0
:100C10000895EF92FF920F931F93CF93DF938C0170
:100C2000F62EE72EEA01DC018D919C91009711F0E0
:100C30000E94D058CE0101960E94D658F8019183A7
:100C40008083009769F0209729F06F2D7E2DAE01EB
:100C50000E94005ED801ED91FC91EC0FFD1F108207
:100C6000DF91CF911F910F91FF90EF9008954F92D8
:100C70005F926F927F928F929F92BF92CF92DF92FC
:100C8000EF92FF920F931F93CF93DF938C017B0121
:100C90008DE290E00E94D658EC014C01009709F4D7
:100CA0005BC18DE2FE0111928A95E9F780EC98EA2A
:100CB000A0E0B0E08DA39EA3AFA3B8A7F801808900
:100CC0009189A289B38989839A83AB83BC830051BC
:100CD0001F4F80E19FEFE80EF91E69E2462E512C6E
:100CE0004C0E5D1E5BE2652E712C6C0E7D1EE5C008
:100CF000332331F40F5F1F4F0894E108F108DDC082
:100D0000F801B180CB2CDD24EC14FD040CF4E3C01D
:100D1000353341F4F1E0BF1609F0DDC0F8018281FE
:100D20008883C0C03C3029F4B8016E5F7F4FC20198
:100D300006C03F3041F4B8016E5F7F4FC301A6018A
:100D40000E940906AFC0F3E0FB1508F0ABC0F80144
:100D50002281838190E0A0E0B0E04427582F692FE2
:100D60007A2F848190E0A0E0B0E0DC019927882709
:100D7000480F591F6A1F7B1F420F511D611D711DB6
:100D8000858190E0A0E0B0E0B82FAA2799278827B6
:100D9000480F591F6A1F7B1F313029F44D835E8332
:100DA0006F8378877FC03C3129F449875A876B87E6
:100DB0007C8778C0333029F44D875E876F87788BC6
:100DC00071C0363009F041C0498B5A8B6B8B7C8BDC
:100DD000F7E0FB1508F066C0F801268130E040E03E
:100DE00050E02D8B3E8B4F8B588F878190E0A0E099
:100DF000B0E0BA2FA92F982F8827820F931FA41F26
:100E0000B51F8D8B9E8BAF8BB88F208530E040E077
:100E100050E0A90133272227280F391F4A1F5B1FE3
:100E20002D8B3E8B4F8B588F818590E0A0E0B0E0FA
:100E3000B82FAA2799278827280F391F4A1F5B1F19
:100E40002D8B3E8B4F8B588F2DC0363329F4498F15
:100E50005A8F6B8F7C8F26C03A3359F4042E472F5C
:100E6000702D052E562F602D4D8F5E8F6F8F78A3BE
:100E700019C03B3359F4042E472F702D052E562FE1
:100E8000602D49A35AA36BA37CA30CC0333351F448
:100E9000042E472F702D052E562F602D4DA35EA3D7
:100EA0006FA378A78B2D90E00296080F191F8EEF85
:100EB0009FEFE80EF91EEC18FD08F80130813F3F66
:100EC00009F45BC01E141F040CF412CF04C085305B
:100ED00041F0863031F0CE010E94F2058824992439
:100EE0003BC08D8D9E8DAF8DB8A10097A105B1053A
:100EF00061F48DA19EA1AFA1B8A5B695A7959795D0
:100F000087958D8F9E8FAF8FB8A389A19AA1ABA132
:100F1000BCA10097A105B105F9F48D8D9E8DAF8D13
:100F2000B8A19C01AD0156954795379527957C0151
:100F30008D0162E016950795F794E7946A95D1F7CD
:100F40002E0D3F1D401F511F280F391F4A1F5B1FC9
:100F500029A33AA34BA35CA3C401DF91CF911F91B6
:100F60000F91FF90EF90DF90CF90BF909F908F9068
:100F70007F906F905F904F9008958881823009F044
:100F8000A6CFAFCFEF92FF920F931F937C01D901B1
:100F9000F901E00FF11FE451FF4F8FEF8083F8015B
:100FA000E351FF4F81E0EC32F80710F4ECE2F1E09E
:100FB000C70123E430E08D017F010E949A3897FD3C
:100FC00003C020E030E008C083E190E090936D081A
:100FD00080936C082FEF3FEFC9011F910F91FF9095
:100FE000EF9008952F923F924F925F926F927F926F
:100FF0008F929F92AF92BF92CF92DF92EF92FF9229
:101000000F931F93DF93CF93CDB7DEB71C012A0157
:101010003B014901A801970186017501C40163E004
:10102000CD8CDE8C0E945C049C018D899E89AF89E9
:10103000B88D0097A105B105C1F0F401E20FF31FCF
:10104000E451FF4F82E3808324513F4FF401E20FCC
:10105000F31F84E081838D899E89AF89B88D828357
:101060009383A483B583265E3040898D9A8DAB8DA2
:10107000BC8D0097A105B105C1F0F401E20FF31F8B
:10108000E451FF4F86E3808324513F4FF401E20F88
:10109000F31F84E08183898D9A8DAB8DBC8D828313
:1010A0009383A483B583265E3040F401E20FF31FDF
:1010B000E451FF4F87E3808324513F4FF401E20F57
:1010C000F31F2C5E3040DF01119693E09183FD0108
:1010D000319681E011968C93918386E0828375E04E
:1010E000E72EF12CE20EF31E40E659E0DA010D90F6
:1010F0000020E9F7A156B9401A161B06D4F40A2FAE
:10110000F401EE0DFF1DE451FF4F8CE08083F901E7
:10111000EF50FF4FE80DF91DA1833296CF01BA01C0
:101120004A2F50E00E94005E10E00E5F1F4FE00E5D
:10113000F11EC101B301A201940187010E94C207FF
:10114000CF91DF911F910F91FF90EF90DF90CF90A3
:10115000BF90AF909F908F907F906F905F904F90D7
:101160003F902F9008952F923F924F925F926F92EF
:101170007F928F929F92AF92BF92CF92DF92EF9227
:10118000FF920F931F93DF93CF93CDB7DEB7609796
:101190000FB6F894DEBF0FBECDBF9C878B874D87FF
:1011A0005E876F87788B3901470158010E94561B73
:1011B0006F83788789879A8767017801E6E02E2E0A
:1011C000EFEF3E2EEFEF4E2EEFEF5E2E280C391C88
:1011D0004A1C5B1C8B859C85BE016D5F7F4FAE01F9
:1011E0004F5F5F4F930104E212E00E942F389C0191
:1011F000181619064CF00097A1F184E190E0909345
:101200006D0880936C082DC0823F910588F0F30132
:101210008081823069F484819581A681B7814D8572
:101220005E856F85788984179507A607B707C9F08B
:101230000E94561B2F81388549855A85621B730B86
:10124000840B950B621573058405950518F020E055
:1012500030E007C075016401C61AD70AE80AF90A26
:10126000B9CFC90160960FB6F894DEBF0FBECDBFEF
:10127000CF91DF911F910F91FF90EF90DF90CF9072
:10128000BF90AF909F908F907F906F905F904F90A6
:101290003F902F900895DF93CF93CDB7DEB7A097FF
:1012A0000FB6F894DEBF0FBECDBF8C010E94C21BEB
:1012B0006B8B7C8B8D8B9E8B20918609309187095F
:1012C00040918809509189092B873C874D875E871B
:1012D000D8011F960D90BC91A02DBA8FA98F1A9698
:1012E0008C9190E0A0E0B0E0BA2FA92F982F88272A
:1012F000E98DFA8D2185820F911DA11DB11DBA2F97
:10130000A92F982F88272085820F911DA11DB11D1F
:101310002227382F492F5A2F8781280F311D411D31
:10132000511D2B8F3C8F4D8F5E8F18A21F8E662410
:101330007724188E1F8A1F86188A198A1A8A992478
:1013400030EA232E3FE0332E412C512C01C0982C43
:101350009920E1F0220C331C441C551C31E023166B
:101360003AEF330630E0430630E0530630F0212CEC
:101370009AEF392E412C512C38C02FEF3FEF4FEF11
:101380005FEF2F83388749875A8737C080916B0872
:10139000833059F08B8D9C8DAD8DBE8D0196A11D36
:1013A000B11D8B8F9C8FAD8FBE8FE0916708F09140
:1013B00068083097A1F0218D328D438D548D2F8395
:1013C000388749875A87211531054105510539F07C
:1013D00080EA282E8FE0382E412C512C0EC000EAD6
:1013E000202E0FE0302E412C512C8FEF9FEFAFEFCE
:1013F000BFEF8F839887A987BA8780916B0888236E
:10140000D9F18091720890917308A0917408B091FD
:1014100075080097A105B10579F10E94561B9B0143
:10142000AC018091760890917708A0917808B091EE
:101430007908281B390B4A0B5B0B6091720870917D
:10144000730880917408909175082617370748072C
:10145000590738F0A1E0B0E0B0936D08A0936C0894
:1014600018C6621B730B840B950B621573058405FC
:10147000950510F41B012C0180916B08823021F03E
:10148000863011F0873041F59920F1F00E94C21B9F
:101490002B893C894D895E89621B730B840B950BEC
:1014A000605070408140904028F04FEF5FEF588FC0
:1014B0004F8B12C00E94C21BDB01EB89FC89AE1B63
:1014C000BF0BB88FAF8B08C00E94C21B6B8B7C8B8D
:1014D0008D8B9E8B188E1F8A80916B08853011F042
:1014E0008823B1F42F8D38A12115310519F0C901D8
:1014F0000E9400386114710419F418A21F8E4CC0A8
:10150000C3010E94D05818A21F8E6624772444C0BD
:101510008091670890916808892B59F4E98DFA8DBC
:1015200083859485A585B6850097A105B10509F049
:10153000B0C52F8D38A1232B21F06114710461F502
:1015400009C084E490E00E94E03898A38F8F611472
:10155000710429F484E292E00E94D6583C014F8D38
:1015600058A1452B19F06114710439F482E190E01F
:1015700090936D0880936C088CC580EC96E09A83FC
:1015800089838F8D98A162E070E1AE014F5F5F4F5C
:1015900022E030E00E94AE3780916B08813031F557
:1015A0002B8D3C8D4D8D5E8D2F5F3F4F4F4F5F4F8D
:1015B0002B8F3C8F4D8F5E8F80918A0990918B0984
:1015C000A0918C09B0918D092B853C854D855E8558
:1015D00082239323A423B5230097A105B10511F419
:1015E00032E073C244E040936B0871C2823009F06C
:1015F0005AC1B92CB39453E05915C8F480916708C7
:1016000090916808892B61F085E080936B082B89A5
:101610003C894D895E892F87388B498B5A8B7BC5D6
:1016200041E050E050936D0840936C082FC18B85CA
:101630009C85AD85BE858B839C83AD83BE83C301B2
:1016400061E02B8D3C8D4D8D5E8DEE24FF24870156
:10165000CF88D88C0E945C049C018B819C81AD81D9
:10166000BE810097A105B105C1F0F301E20FF31FA0
:10167000E451FF4F92E3908324513F4FF301E20F77
:10168000F31FA4E0A1838B819C81AD81BE81828305
:101690009383A483B583265E3040F301E20FF31FEA
:1016A000E451FF4FB7E3B08324513F4FF301E20F02
:1016B000F31F2C5E3040DF01119643E04183FD01B2
:1016C000319651E011965C93418386E0828315E068
:1016D000E12EF12CE20EF31EA0E6B9E00D90002001
:1016E000E9F7A156B9401A161B06E4F40A2FF301D4
:1016F000EE0DFF1DE451FF4F9CE09083F901EF5088
:10170000FF4FE60DF71DA1833296CF01E0E6F9E029
:10171000BF014A2F50E00E94005E10E00E5F1F4F95
:10172000E00EF11E20E432E03A832983F301EE0D4E
:10173000FF1DE451FF4F39E330834CEE50E0E40EDF
:10174000F51EF301EE0DFF1D52E0518389819A8150
:10175000082E892F902D9A838983319692838183D5
:1017600088E19FEFE80EF91E8F8D98A14FEF5FEF94
:101770006FEF7FEF930187010E94C20797FF74C04C
:1017800085C0E0906708F0906808C3010E943706A2
:101790008C01009709F44EC0DC018C91823009F075
:1017A00046C0E114F10409F446C020918609309145
:1017B0008709409188095091890980918A099091FF
:1017C0008B09A0918C09B0918D0982239323A423C6
:1017D000B5230097A105B105A9F0F7018181928198
:1017E000A381B48182179307A407B50719F1F80103
:1017F00081819281A381B48182179307A407B507E1
:10180000C9F411C0D80195962D913D914D915C91EF
:101810009897F70185A196A1A7A1B0A58217930774
:10182000A407B50720F4C7010E94F20504C0C8014F
:101830000E94F20587011093680800936708012B46
:1018400099F08091720890917308A0917408B091FA
:101850007508805E9E42A040B040D8F0B0EA2B2EC2
:10186000BFE03B2E412C512C8F8D98A14B8D5C8D70
:101870006D8D7E8D9301820171010E94B308BC01C0
:10188000181619060CF47DCF009719F010926B080A
:1018900042C48091670890916808892B09F43BC481
:1018A000A4E09A2E3BC4833009F06CC0892C839449
:1018B00023E0291520F431E030936B082EC4E09129
:1018C0006708F09168084DB75EB74A5050400FB6B0
:1018D000F8945EBF0FBE4DBF2DB73EB72F5F3F4F91
:1018E0004181528163817481ADB7BEB711964D932A
:1018F0005D936D937C931497818D928DA38DB48DA0
:10190000F90184839583A683B7834F89588D5187C6
:1019100040878F8D98A14FEF5FEF6FEF7FEF9301BF
:10192000EB8CFC8C0D8D1E8DAA24BB2465010E94BE
:10193000F207ADB7BEB71A960FB6F894BEBF0FBE8A
:10194000ADBF97FDB7C38F8D98A14B8D5C8D6D8D0D
:101950007E8D9301820171010E94B308BC0197FD45
:10196000A9C3009709F4D9C3C3010E9437068C01AB
:10197000009709F4D2C3FC01F080F5E0FF1609F0EE
:1019800059C243C2843009F081C0892C839453E04A
:10199000581548F481E080936B08982C1B861C86B0
:1019A0001D861E86BBC3ADB7BEB71A970FB6F89497
:1019B000BEBF0FBEADBF2DB73EB72F5F3F4F8B856C
:1019C0009C85AD85BE85EDB7FEB781839283A383E9
:1019D000B483D90114961D921D921D921C921797E3
:1019E000EF89F88D1996FC93EE9318978F8D98A137
:1019F0004FEF5FEF6FEF7FEF9301EB8CFC8C0D8D62
:101A00001E8DAA24BB2465010E94F2072DB73EB7A4
:101A1000265F3F4F0FB6F8943EBF0FBE2DBF97FD18
:101A200049C38F8D98A14B8D5C8D6D8D7E8D9301FB
:101A3000820171010E94B308BC0197FD3BC300976E
:101A400009F46BC3C3010E9437068C01009709F4A7
:101A500064C3DC018C91853071F4809167089091AA
:101A600068080E94F2051093680800936708B5E0C3
:101A7000B0936B08D6C1863009F049C331E030938A
:101A80006B081B861C861D861E8641C3853009F0A7
:101A90004FC080E798E00E94321EE0916708F09105
:101AA0006808E58CF68C078D10A10E94C21B2F855B
:101AB000388949895A89621B730B840B950B6E1503
:101AC0007F058007910728F036E030936B08992452
:101AD00025C3E0916708F0916808E58CF68C078DC6
:101AE00010A10E94C21B2F85388949895A892E0D61
:101AF0003F1D401F511F261B370B480B590B283326
:101B000089E8380781E4480780E0580720F027E398
:101B100039E841E450E0CA01B90128EE33E040E081
:101B200050E00E946C5DAB01BC018EE698E0ECC217
:101B3000863009F0C0C0E0916708F0916808E1A024
:101B4000F2A003A114A10E94C21B5B016C01C2019F
:101B5000B10128EE33E040E050E00E94AB5D8F859C
:101B60009889A989BA89E80EF91E0A1F1B1FEA186D
:101B7000FB080C091D09E216F30604071507E0F43B
:101B8000E0916708F091680821A032A043A054A01A
:101B90000E94C21B2F85388949895A89621B730BA1
:101BA000840B950B28EE33E040E050E00E946C5D22
:101BB000261A370A480A590AE0916708F09168081E
:101BC000E1A0F2A003A114A10E94C21B2F853889B5
:101BD00049895A89621B730B840B950B6E157F051F
:101BE0008007910708F0B2C0E0916708F09168089B
:101BF000A180B280C380D4804DB75EB74A505040B8
:101C00000FB6F8945EBF0FBE4DBFADB7BEB711960D
:101C1000418D528D638D748DEDB7FEB7A182B28276
:101C2000C382D48214961D921D921D921C92179706
:101C30002F89388D19963C932E9318978F8D98A1E4
:101C40009301EB8CFC8C0D8D1E8D0E94F2074DB71D
:101C50005EB7465F5F4F0FB6F8945EBF0FBE4DBFD5
:101C600097FD74C0892C83948F8D98A14B8D5C8DCA
:101C70006D8D7E8D9301820171010E94B308BC01BC
:101C800097FD18C2009709F448C2C3010E943706A5
:101C90008C01009709F441C2DC01FC90B5E0FB1611
:101CA00009F4B3C036E0F31609F031C287E080933F
:101CB0006B0888242CC2873009F0C4C0E091670803
:101CC000F0916808E1A0F2A003A114A10E94C21B38
:101CD0002F85388949895A89E20EF31E041F151F82
:101CE000E61AF70A080B190BE214F30404051505AC
:101CF000B0F4E0916708F091680821A032A043A0F9
:101D000054A00E94C21B261A370A480A590A8F8516
:101D10009889A989BA89281A390A4A0A5B0AE0917E
:101D20006708F0916808E1A0F2A003A114A10E9445
:101D3000C21B2F85388949895A89621B730B840B12
:101D4000950B6E157F058007910720F087E0809343
:101D50006B08BDCE892C8394E0916708F0916808E8
:101D6000A180B280C380D4804DB75EB74A50504046
:101D70000FB6F8945EBF0FBE4DBFEDB7FEB73196FC
:101D8000ADB7BEB71196AD92BD92CD92DC921497CD
:101D900014821582168217822F89388D3187208709
:101DA0008F8D98A14FEF5FEF6FEF7FEF9301EB8C7B
:101DB000FC8C0D8D1E8D0E94F2074DB75EB7465FFD
:101DC0005F4F0FB6F8945EBF0FBE4DBF97FD72C157
:101DD0008F8D98A14B8D5C8D6D8D7E8D93018201D1
:101DE00071010E94B308BC0197FD64C1009709F41A
:101DF00094C1C3010E9437068C01009709F48DC17C
:101E0000DC01FC90B5E0FB16A9F480916708909185
:101E100068080E94F2051093680800936708F09222
:101E20006B082B893C894D895E892F87388B498BBC
:101E30005A8B73C136E0F31609F069C141E0409353
:101E40006B0865C1883009F0C8C0892C839453E0C1
:101E5000591508F42FC1A98DBA8D1B96ED90FD90F0
:101E60000D911C911E97C30168E02B8D3C8D4D8D0B
:101E70005E8DCC24DD240E945C04F301E80FF91F81
:101E8000E451FF4FB7E3B08384519F4FF301E80F54
:101E9000F91FDF01119623E02183FD01319631E026
:101EA00011963C93218346E04283F9E1EF2EFFEF48
:101EB000FF2EE80EF91EA0E6B9E00D900020E9F72C
:101EC000A156B94011F10A2FF301EE0DFF1DE451A7
:101ED000FF4F5CE050838CEE90E0E80EF91EF301BA
:101EE000EE0DFF1D24E13FEFE20EF31EA1833296BB
:101EF000CF0140E659E0BA014A2F50E00E94005E4F
:101F000010E00E5F1F4FE00EF11E80E492E09A8316
:101F10008983F301EE0DFF1DE451FF4F99E3908398
:101F2000ACEEB0E0EA0EFB1EF301EE0DFF1DB2E0D9
:101F3000B18389819A81082E892F902D9A83898374
:101F4000319692838183E8E1FFEFEE0EFF1E8F8DC5
:101F500098A14F81588569857A85930187010E94F0
:101F6000C20797FF0BC02F81388549855A852F5F9F
:101F70003F4F4F4F5F4F09F0D0C09CC08F8D98A14D
:101F80004B8D5C8D6D8D7E8D9301820171010E9460
:101F9000B308BC01009709F4C0C018161906A4F4D0
:101FA000C3010E9437068C01009781F0DC018C91FF
:101FB000853061F480916708909168080E94F2056D
:101FC000109368080093670800E010E010926B0817
:101FD0000115110509F09BC0BAC9893009F07EC00E
:101FE000E0916708F0916808309709F448C0892C9F
:101FF0008394992009F042C0E180F280038114812A
:10200000818D928DA38DB48D8B839C83AD83BE8394
:10201000C30167E02B8D3C8D4D8D5E8DCC24DD247E
:102020000E945C048C018B819C81AD81BE810097F4
:10203000A105B105C1F0F301E00FF11FE451FF4F1D
:10204000B6E3B08304511F4FF301E00FF11F24E00A
:1020500021838B819C81AD81BE8182839383A48304
:10206000B583065E10408F8D98A14F815885698594
:102070007A8593010E94C20797FF0EC0982C8F812A
:102080009885A985BA858F5F9F4FAF4FBF4F09F0E5
:1020900045C010926B0842C08F8D98A14B8D5C8D0E
:1020A0006D8D7E8D9301820171010E94B308BC0188
:1020B00097FF03C010926B0830C0009771F1C30105
:1020C0000E9437068C01009741F1DC018C9185302C
:1020D00011F08630E1F410926B0819C08823F1F4F6
:1020E00080916708909168080E94F2051092680834
:1020F0001092670880E798E00E94321E8EE698E012
:1021000040E050E060E070E00E94941EE0CCC80126
:102110000E94F2051CC99B2C01C0982C892C17C960
:102120008F929F92AF92BF92CF92DF92EF92FF92E7
:102130000F931F93CF93DF93EC014B0159016A0179
:1021400080913D0990913E09009731F00E94D0584E
:1021500010923E0910923D0980913F0990914009EB
:10216000009731F00E94D0581092400910923F0918
:10217000209739F0CE010E94E65880933D09909354
:102180003E098114910439F0C4010E94E6588093FD
:102190003F0990934009A0924109B0924209C09230
:1021A0004309D0924409E0924509F0924609009310
:1021B000470910934809DF91CF911F910F91FF902C
:1021C000EF90DF90CF90BF90AF909F908F90089549
:1021D000DC01FB01908181818C9311969C93119776
:1021E0009281838112968C93129713969C931397E6
:1021F0009481858114968C93149715969C931597CA
:102200009681878116968C93169717969C931797AD
:102210009085818518968C93189719969C93199799
:10222000928583851A968C931A971B969C938CE0C3
:1022300090E00895DC01FB01308120E011963C9391
:102240002E93818190E0822B932B11969C938E93F9
:10225000328120E013963C932E931297838190E075
:10226000822B932B13969C938E931297348120E0AC
:1022700015963C932E931497858190E0822B932B97
:1022800015969C938E931497368120E017963C9375
:102290002E931697878190E0822B932B17969C9311
:1022A0008E931697308520E019963C932E931897BD
:1022B000818590E0822B932B19969C938E9318978F
:1022C000328520E01B963C932E931A97838590E0ED
:1022D000822B932B1B969C938E931A978CE090E005
:1022E0000895CF93DF93FC01DB01EA01009731F001
:1022F00080913D0990913E0991838083109731F040
:1023000080913F09909140098D939C93209761F0B3
:102310008091410990914209A0914309B0914409EB
:1023200088839983AA83BB832115310569F0809145
:10233000450990914609A0914709B0914809F901D2
:1023400080839183A283B383DF91CF910895CF934C
:10235000DF93EC01009749F088819981009711F093
:102360000E94D058CE010E94D058DF91CF9108959D
:10237000CF93DF93EC01009779F0888199810097E2
:1023800011F00E94D0588C859D85009711F00E9415
:10239000D058CE010E94D058DF91CF910895EF928E
:1023A000FF920F931F93CF93DF93EC018B017A0180
:1023B000009749F481E090E066E070E00E94B45834
:1023C000EC01009789F088819981009711F00E94B3
:1023D000D058C8010E94E65888839983FB82EA821C
:1023E00081E090E09D838C83CE01DF91CF911F919E
:1023F0000F91FF90EF900895EF92FF920F931F932C
:10240000CF93DF938C01DB018C9111969C91FC01A1
:10241000EF0109900020E9F7CE1BDF0B2196F801B0
:102420001192A8017C010FC0C70101962E3221F440
:1024300010827C01AF0106C020837C01DA018C91FF
:102440008F5F8C933196D7012C91222369F71082EC
:10245000F801EC0FFD1FDB0112969C911297139669
:102460008C911397808391839E012E5F3F4FF801DB
:10247000E20FF31F14969C91149715968C9180830C
:1024800091832E5F3F4FC901DF91CF911F910F9133
:10249000FF90EF900895EF92FF920F931F93CF93C9
:1024A000DF93EC017B01DB018D919C91009729F07A
:1024B0000E94D058F701118210828881807C803C74
:1024C00019F402E010E02AC0DE010D900020E9F7C7
:1024D0008D010C1B1D0BC8010E94D658DC01F701B1
:1024E00091838083FE0191913EE215C0AF01BD0151
:1024F000292FEA018991AE01EB018993BE01215098
:10250000C1F7892F90E0A80FB91FE80FF91F90813C
:1025100091113D933196992349F71C92C801DF919F
:10252000CF911F910F91FF90EF900895EF92FF923E
:102530000F931F937C018B01CB01B7010E944B12BB
:10254000AC01F801E80FF91F308120E0D7011396A4
:102550003C932E931297818190E0822B932B1396BC
:102560009C938E9312974E5F5F4F040F151FF801D7
:10257000308120E015963C932E931497818190E052
:10258000822B932B15969C938E9314974E5F5F4FDF
:10259000CA011F910F91FF90EF900895AF92BF92E3
:1025A000CF92DF92EF92FF920F931F93CF93DF931F
:1025B0006C015B01CB01B6010E944B12F501E80FE3
:1025C000F91F508140E0D60113965C934E93129709
:1025D000218130E0242B352B13963C932E931297B8
:1025E000FC013296D501AE0FBF1F5C9140E0E601C1
:1025F0005D834C8311962C9130E0242B352B3D8349
:102600002C833296EA0DFB1DDF011196E080FF243A
:1026100000E010E0102F0F2DFE2CEE24EE82FF8242
:1026200008871987218130E040E050E02E293F29BA
:10263000402B512B542F432F322F2227F601268374
:102640003783408751871196EC901197FF2400E063
:1026500010E02E293F29402B512B542F432F322F8E
:1026600022272E833F83488759871296EC90FF24B8
:1026700000E010E02E293F29402B512B2683378381
:10268000408751870896F501E80FF91F308120E057
:10269000D6011B963C932E931A974181C42FD0E00C
:1026A000C22BD32B1B96DC93CE931A978C010E5F13
:1026B0001F4F1C968D919C911D97009711F00E94C1
:1026C000D058CE010E94D658F6018487958795018F
:1026D000200F311FB901AE010E94005E9E01200F44
:1026E000311FC901DF91CF911F910F91FF90EF90A2
:1026F000DF90CF90BF90AF9008952F923F924F926E
:102700005F926F927F928F929F92AF92BF92CF9281
:10271000DF92EF92FF920F931F93DF93CF93CDB78A
:10272000DEB763970FB6F894DEBF0FBECDBF9B87B1
:102730008A877D876C875F874E8780E090E0EE8593
:10274000FF85E80FF91F108211821282138204960E
:1027500080329105A1F78091410990914209A091A1
:102760004309B09144090097A105B10569F480912E
:10277000450990914609A0914709B09148090097F1
:10278000A105B10509F453C180E090E00E94E03852
:1027900098878F83892B09F44AC189E499E060E026
:1027A00072E00E94C2164C0188E0898744245524B7
:1027B000AA24BB242224332466247724D42C08940E
:1027C000411C511CA114B10449F481E090E06CE07B
:1027D00070E00E94B4585C01009781F0D501119619
:1027E0005C924E92E0E0F1E01396FC93EE93129728
:1027F00081E090E015969C938E931497C1016A85B1
:102800007B854C855D850E94CF111C01C401B501FB
:102810000E94E8108C01C401800F911FB1010E9439
:10282000FC117C01E00EF11ED0FE0DC04091450967
:102830005091460960914709709148094115510529
:102840006105710541F4409141095091420960913F
:102850004309709144098F81988525E330E0840114
:102860000E949A3897FDCDC08F819885BE016D5F1B
:102870007F4FAE014F5F5F4F940100E012E0E8EE42
:10288000CE2EE3E0DE2EE12CF12C0E942F3818161C
:1028900019060CF0B1C00D973CF3C501B4010E94BC
:1028A0001A118C01D5018D919C9111978415950574
:1028B000D9F60115110509F49FC014968D919C91CC
:1028C0001597019709F098C0B401600F711FC101FD
:1028D0000E9496129C01F50186819781892B09F44B
:1028E00090C07901E00EF11E198601E010E07DC074
:1028F0006114710439F481E090E06EE070E00E94B0
:10290000B4583C01B4016E0D7F1DC3010E94CE126C
:102910006C01D30112968D919C911397019709F048
:1029200060C01A968D919C911B97049709F059C02D
:10293000B985EB2FF0E0EE0FFF1FEE0FFF1F8E8526
:102940009F85E80FF91FD3011C966D917C911D970F
:10295000DB012C9130E040E050E020833183428362
:1029600053831196BC918B2F90E0A0E0B0E0BA2F7A
:10297000A92F982F8827820F931FA41FB51F888B1C
:10298000998BAA8BBB8B80839183A283B383DB015A
:1029900012962C9130E040E050E0A9013327222725
:1029A00088899989AA89BB89280F391F4A1F5B1F0B
:1029B0002083318342835383DB0113968C9190E013
:1029C000A0E0B0E0B82FAA2799278827280F391F41
:1029D0004A1F5B1F2083318342835383B985BF5FC6
:1029E000B987EC0CFD1C0F5F1F4FF50186819781A5
:1029F000801791070CF07CCFF6E04F16510409F0D8
:102A0000DDCEA114B10419F0C5010E94D058C10156
:102A10000E94A711C3010E94B81189E499E0B40192
:102A20000E941A178F8198850E94003801C019866C
:102A3000898563960FB6F894DEBF0FBECDBFCF91E8
:102A4000DF911F910F91FF90EF90DF90CF90BF909B
:102A5000AF909F908F907F906F905F904F903F903E
:102A60002F900895AB0161E070E00E947D130895FE
:102A70002F923F924F925F926F927F928F929F928E
:102A8000AF92BF92CF92DF92EF92FF920F931F937C
:102A9000DF93CF93CDB7DEB72C970FB6F894DEBF98
:102AA0000FBECDBF9A8789877C876B87809141094C
:102AB00090914209A0914309B09144090097A10562
:102AC000B10569F48091450990914609A0914709A3
:102AD000B09148090097A105B10509F41DC180E036
:102AE00090E00E94E03898878F83892B09F414C105
:102AF00080E092E00E94D6584C0144245524AA2438
:102B0000BB242224332466247724D42C0894411C2B
:102B1000511CA114B10449F481E090E06CE070E034
:102B20000E94B4585C01009781F0D50111965C9227
:102B30004E92E0E0F1E01396FC93EE93129781E061
:102B400090E015969C938E931497C10169857A85C0
:102B50004B855C850E94CF111C01C401B5010E9408
:102B6000E8108C01C401800F911FB1010E94FC117B
:102B70007C01E00EF11ED0FE0DC040914509509140
:102B80004609609147097091480941155105610551
:102B9000710541F440914109509142096091430906
:102BA000709144098F81988525E330E084010E946B
:102BB0009A3897FD9AC08F819885BE016D5F7F4FCF
:102BC000AE014F5F5F4F940100E012E0E8EECE2EC1
:102BD000E3E0DE2EE12CF12C0E942F3818161906A6
:102BE0000CF07EC00D973CF3C501B4010E941A1190
:102BF0008C01D5018D919C91119784159505D9F67D
:102C00000115110509F46CC014968D919C911597CE
:102C1000019709F065C0B401600F711FC1010E94E6
:102C200096129C01F50186819781892B09F45DC07C
:102C30007901E00EF11E01E010E01CC06114710486
:102C400039F481E090E06EE070E00E94B4583C01FD
:102C5000B4016E0D7F1DC3010E94CE129C01D301F1
:102C600012968D919C911397019751F0E20EF31EED
:102C70000F5F1F4FF5018681978180179107F4F64A
:102C8000D3011A968D919C911B97049749F51C9638
:102C9000ED91FC911D972081818190E0A0E0B0E052
:102CA000EE24F82E092F1A2F828190E0A0E0B0E0E8
:102CB000DC0199278827E80EF91E0A1F1B1FE20E68
:102CC000F11C011D111D838190E0A0E0B0E0B82F40
:102CD000AA2799278827E80EF91E0A1F1B1F08C07C
:102CE000B6E04B16510409F010CFEE24FF24870103
:102CF000A114B10419F0C5010E94D058C1010E946D
:102D0000A711C3010E94B811C4010E94D0588F813D
:102D100098850E94003803C0EE24FF248701B70184
:102D2000C8012C960FB6F894DEBF0FBECDBFCF9171
:102D3000DF911F910F91FF90EF90DF90CF90BF90A8
:102D4000AF909F908F907F906F905F904F903F904B
:102D50002F9008956FE070E00E943815089561E0AB
:102D600070E00E9438150895EF92FF920F931F9321
:102D7000EE24FF2487010E9490101F910F91FF9075
:102D8000EF900895CF93DF93DC016E5F7F4F643047
:102D9000710510F464E070E06F5F7F4F6E7FED911E
:102DA000FC911197AD01A0E0B0E0C0E0D0E01BC005
:102DB000208131812617370780F0109731F08D91EF
:102DC0009C9111972817390740F42617370719F4F3
:102DD000DF01EA010DC0DF01EA01AF014E5F5F4F85
:102DE0000280F381E02D309719F79D011097F1F0E3
:102DF0008D919C911197861B970B12962D913C916A
:102E000013978430910568F0FD01E60FF71F918359
:102E100080833383228311967C936E93F983E883B6
:102E200002C0398328839D012E5F3F4FC901DF9186
:102E3000CF910895CF93DF93EC016115710519F4DB
:102E40002DEF3FEF5FC0DB011297E881F9814FC0A2
:102E500020813181CF01820F931F8A179B07E9F4EC
:102E60006D917C91620F731F71836083DF01A60FE8
:102E7000B71F82819381A817B90709F041C08D91CE
:102E80009C911197680F791F7183608312968D91C1
:102E90009C9113979383828333C0AE17BF07E0F4EE
:102EA000B983A8834D915C911197CD01840F951F33
:102EB0008E179F0761F4240F351F11963C932E93B4
:102EC0008281938113969C938E93129719C01396C7
:102ED000FC93EE93129714C0A817B90718F42FEFBC
:102EE0003FEF10C0EF0122960280F381E02D309772
:102EF00009F0AECF13961C921E921297B983A88345
:102F000020E030E0C901DF91CF9108956F5F7F4FDE
:102F1000FB01EE7F61507040640F751F6E1B7F0BCD
:102F20006E7F61937193BF010E941A170895FC018F
:102F30000190F081E02D20E030E008C08081918197
:102F40000297280F391F0280F381E02D3097B1F7E7
:102F5000C9010895FC010190F081E02D20E030E0EE
:102F600009C0808191812817390708F49C010280EB
:102F7000F381E02D3097A9F722503040C901089520
:102F800080E090E00895EF92FF920F931F93CF930C
:102F9000DF938C01C0914909D0914A098DECE82E4C
:102FA00082E0F82E26C08DB79EB708970FB6F8942A
:102FB0009EBF0FBE8DBFEDB7FEB73196ADB7BEB7A2
:102FC00012961C930E931197F382E282D583C483E9
:102FD00088819981978386830E945D580A80DB816E
:102FE000C02D8DB79EB708960FB6F8949EBF0FBE42
:102FF0008DBF2097C1F6DF91CF911F910F91FF9068
:10300000EF900895AF92BF92CF92DF92EF92FF922E
:103010000F931F93CF93DF936C017B0161157105B3
:1030200029F4BA010E94C2167C018FC041155105D6
:1030300031F40E941A17892B09F487C061C08B01F3
:10304000025010404E5F5F4F4430510510F444E091
:1030500050E0EA012196CE7FF801208131812C17C2
:103060003D0708F05FC0F601A081B181560109C09B
:1030700092E0A92EB12CAA0EBB1E12960D90BC9107
:10308000A02D1097B1F1A017B10790F36AC0C80145
:10309000820F931F8A179B0761F5CA01861B970B46
:1030A0000497D0F0260F371FE80139832883FD01EC
:1030B000E60FF71FE501F983E88312968D919C9145
:1030C000139793838283E881F9818D919C91861B6C
:1030D000970B9183808339C0420F531FF8015183AE
:1030E000408312968D919C911397E5019983888373
:1030F0002CC0C601BE010E94C216EC01009719F453
:10310000EE24FF2422C0F80120813181225030407A
:10311000B701A9010E94005EC601B7010E941A17FB
:103120007E0113C0C9010497C817D90770F42C1B7E
:103130003D0BF801EC0FFD1F21933193C601BF0138
:103140000E941A17F801D183C083C701DF91CF9184
:103150001F910F91FF90EF90DF90CF90BF90AF90B5
:103160000895BE01621B730B4D915C911197461738
:10317000570708F08CCFBDCF0F931F93CF93DF93EA
:10318000162F072F0E94C216EC01009731F060E065
:1031900070E0412F502F0E94095ECE01DF91CF9148
:1031A0001F910F910895CF93DF93DC01EB015896A7
:1031B0007C936E93579715961C921E9214970FB698
:1031C000F8940F92E881F9818FEFEF3FF80761F4EF
:1031D00014968D919C911597019615969C938E93BC
:1031E0001497E0E0F0E015C0309799F00F900FBE13
:1031F00052969C91529707C0EF0122960280F3816C
:10320000E02D309719F082899817B0F70FB6F8942F
:103210000F921396FC93EE931297B983A88312969C
:10322000ED91FC911397309791F084819581892BD2
:1032300071F014962D913C91159784819581820FA0
:10324000931F15969C938E931497158214820F905A
:103250000FBEDF91CF910895CF93DF93DC01EB0197
:103260000FB6F8940F92E881F9810F900FBE8FEF9F
:10327000EF3FF80799F534C0EA17FB0751F50FB691
:10328000F8940F9212968D919C911397998388834D
:1032900014968D919C911597892B81F01296ED9142
:1032A000FC911397309731F014968D919C9115975E
:1032B0009583848315961C921E9214970F900FBECF
:1032C00013961C921E92129758961C921E92579714
:1032D00007C0EF0122960280F381E02D309761F65E
:1032E000DF91CF910895FB01168A158A82E08787C6
:1032F000CB016DE479E00E94D31808950F931F93DA
:10330000CF93DF938C010097B1F0C0914B09D0911E
:103310004C090CC0CE010696B8010E94105E0097C1
:1033200011F49E010CC00990D881C02D209791F70F
:1033300020E030E004C020914F0930915009C901CC
:10334000DF91CF911F910F910895E0915109F09174
:103350005209309751F06389748989E499E00E9499
:103360001A1710925209109251090895CF93DF93C2
:10337000C0914B09D0914C090E94A51940914F0969
:1033800050915009EBE4F9E00BC028813981C41752
:10339000D50719F42083318305C0FE01C901EC0172
:1033A000209799F780914F09909150099093520975
:1033B00080935109DF91CF9108950F931F93182F98
:1033C000E0914F09F09150090289CF016DE479E055
:1033D0000E942C19E0914F09F0915009128B1F3F68
:1033E00031F0CF016DE479E00E94D31802C00E9451
:1033F000B619E0914F09F091500980914D099091D3
:103400004E09E817F90719F481E0878709C082E0BF
:1034100087870FB6F8940F920E948F1F0F900FBEF0
:10342000802F1F910F9108958FEF0E94DD1908954D
:10343000CF93DF93C0914B09D0914C0920C00FB6B8
:10344000F8940F928C819D810F900FBE892BA1F073
:10345000EF89F88D0FB6F8940F928C819D810197BA
:103460009D838C830F900FBE808191818F5F9F4FD2
:1034700019F0CF010E94AA1D0990D881C02D209774
:10348000F1F60E94A41CE0914F09F091500980913F
:103490004D0990914E09E817F90761F08785813051
:1034A00011F482E087870FB6F8940F920E948F1F65
:1034B0000F900FBEDF91CF910895E0914F09F091E9
:1034C000500982819381892B69F0CF016DE479E005
:1034D0000E942C1980914F09909150096DE479E078
:1034E0000E94D3180E94181A08958091590990914A
:1034F0005A09A0915B09B0915C090196A11DB11D0B
:103500008093590990935A09A0935B09B0935C0981
:1035100008952091530930915409409155095091D3
:1035200056090E946C5D28EE33E040E050E00E94B6
:10353000AB5DC901DA0104C000000197A109B1091E
:103540000097A105B105C1F7089590E0A0E0B0E0B3
:10355000BC01CD0128EE33E040E050E00E946C5DFC
:103560000E94891A0895CF93DF93EC011B821A827F
:10357000E0915709F091580923C0288539854A857B
:103580005B8580859185A285B385281739074A0711
:103590005B0748F4821B930BA40BB50B80879187C4
:1035A000A287B3870FC0281B390B4A0B5B0B2887F8
:1035B00039874A875B87FB83EA830190F081E02D9E
:1035C0003097D9F6F983E883309711F0D383C2831B
:1035D000EA81FB81309719F0D183C08304C0D09376
:1035E0005809C0935709DF91CF910895CF93DF9386
:1035F000FC01148215821682178215861486808536
:103600009185A285B3850097A105B10561F1A281DD
:10361000B38180819181109719F08D939C9304C0A0
:103620009093580980935709C081D1812097A1F0C8
:10363000828193819B838A8388859985AA85BB85AE
:103640002085318542855385820F931FA41FB51FA6
:1036500088879987AA87BB8710861186128613866A
:10366000CF010E94B31ADF91CF9108950FB6F8945D
:103670000F922091590930915A0940915B0950915C
:103680005C090F900FBEB901CA01089560E074E2B1
:1036900084EF90E0089510927E0810927F081092B7
:1036A00080081092810880E090E008952F923F9268
:1036B0004F925F926F927F928F929F92AF92BF9242
:1036C000CF92DF92EF92FF920F931F930FB6F89471
:1036D0000F92E0905909F0905A0900915B091091FE
:1036E0005C090F900FBE0E9473209B01AC01C801C2
:1036F000B7010E94AB5D522E432E342E252E0E9420
:1037000073205B016C010E9473203B014C01652D0D
:10371000742D832D922DA60195010E946C5DE61AF1
:10372000F70A080B190BC801B70128EE33E040E097
:1037300050E00E946C5DA40193010E94AB5D790191
:103740008A01652D742D832D922D28EE33E040E003
:1037500050E00E946C5DE60EF71E081F191FB701AE
:10376000C8011F910F91FF90EF90DF90CF90BF9015
:10377000AF909F908F907F906F905F904F903F9011
:103780002F900895EF92FF920F931F930FB6F89426
:103790000F92E0905909F0905A0900915B0910913D
:1037A0005C090F900FBE0E9473209B01AC01C80101
:1037B000B7010E94AB5DCA01B9011F910F91FF9043
:1037C000EF900895AF92BF92CF92DF92EF92FF9267
:1037D0000F93CF93DF936B017C01EA01590189E4D8
:1037E00099E060E170E00E94C216FC01009781F14F
:1037F0000FB6F8940F928091590990915A09A091AF
:103800005B09B0915C090F900FBE20917A0830914E
:103810007B0840917C0850917D08821B930BA40B80
:10382000B50B8C0D9D1DAE1DBF1D80879187A28796
:10383000B38700FF05C0148215821682178204C068
:10384000C482D582E682F782D587C487B786A686EA
:10385000CF01DF91CF910F91FF90EF90DF90CF904C
:10386000BF90AF9008950F93CF93DF930E94E21B18
:10387000EC01009711F00E94B31ACE01DF91CF91B5
:103880000F910895CF92DF92EF92FF920F937A01FA
:1038900069010E947820A70196010E94331C0F91B4
:1038A000FF90EF90DF90CF900895AF92BF92CF92AC
:1038B000DF92EF92FF920F93CF93DF935B016C0146
:1038C000611571058105910599F1CDE4D9E08091EB
:1038D0004F0990915009BE010E942C19E0904F09A8
:1038E000F090500983E0F7018787C601B50143E7EF
:1038F00059E1970101E00E94421CF701968B858BEC
:10390000892B19F00E94181A15C0E0914F09F09107
:103910005009D08FC78B80914D0990914E099383A8
:10392000828381E08787F0934E09E0934D0902C0BE
:103930000E945D1ADF91CF910F91FF90EF90DF9081
:10394000CF90BF90AF900895EF92FF920F931F9387
:10395000CF93DF930FB6F8940F92209159093091CD
:103960005A0940915B0950915C090F900FBE8091FC
:103970007A0890917B08A0917C08B0917D0879012C
:103980008A01E81AF90A0A0B1B0B20937A08309374
:103990007B0840937C0850937D0851C088859985A9
:1039A000AA85BB85E816F9060A071B0760F48E197D
:1039B0009F09A00BB10B88879987AA87BB87EE2444
:1039C000FF24870108C0E81AF90A0A0B1B0B1886A6
:1039D00019861A861B8688859985AA85BB850097D6
:1039E000A105B10561F5EC85FD85309721F06E8567
:1039F0007F85CE010995E0915709F0915809019012
:103A0000F081E02DF0935809E0935709309711F0B9
:103A1000138212828C819D81AE81BF8188879987B4
:103A2000AA87BB870097A105B10531F489E499E025
:103A3000BE010E941A1703C0CE010E94B31AC091A2
:103A40005709D0915809209731F0E114F10401058C
:103A5000110509F0A3CFDF91CF911F910F91FF9036
:103A6000EF900895CF92DF92EF92FF920F931F9302
:103A700085E79AE10E94792087B7826087BF0FB6F9
:103A8000F8940F922091590930915A0940915B099D
:103A900050915C090F900FBE0FB6F8940F92809171
:103AA000590990915A09A0915B09B0915C090F9056
:103AB0000FBE281739074A075B0771F30FB6F89452
:103AC0000F92E0905909F0905A0900915B0910910A
:103AD0005C090F900FBE2091530930915409409119
:103AE0005509509156090FB6F8940F9280915909D3
:103AF00090915A09A0915B09B0915C090F900FBE9B
:103B0000F901D42EC52E2F5F3F4F4F4F5F4FE81660
:103B1000F9060A071B0739F3BF018D2D9C2D27E6F7
:103B200030E040E050E00E946C5D2AE130E040E08F
:103B300050E00E94AB5D20935309309354094093A9
:103B40005509509356091F910F91FF90EF90DF9008
:103B5000CF900895CF93DF93DC010FB6F8940F92C6
:103B6000CD91DC9111970F900FBE8FEFCF3FD8070B
:103B700009F43AC0209771F10FB6F8940F92EA81D8
:103B8000FB811196FC93EE938C819D81892B71F0C2
:103B9000309729F08C819D819583848305C08FEFB8
:103BA0009FEF11969C938E931D821C820F900FBEE7
:103BB0008D899E89009721F00E94F61A1E8A1D8A1F
:103BC00082E08F87CE016DE479E00E94D31821E076
:103BD00030E00CC00FB6F8940F928FEF9FEF119664
:103BE0009C938E930F900FBE20E030E0C901DF91CF
:103BF000CF9108950F931F93CF93DF938C010FB64E
:103C0000F8940F92FC01808191810F900FBEFFEF1D
:103C10008F3F9F0749F40FB6F8940F92F801118275
:103C200010820F900FBE02C0892B19F4C0E0D0E0C3
:103C300013C0C0E0D0E0C8010E94AA1DC80FD91F60
:103C40000FB6F8940F92F801808191810F900FBE0A
:103C500001978E5F9F4F78F3CE01DF91CF911F9137
:103C60000F9108950F931F930E94FA1D182F092F8B
:103C70000E945D1A812F902F1F910F9108950F932D
:103C80001F930E94AA1D182F092F0E945D1A812FD1
:103C9000902F1F910F910895CF93DF93AC01DB011B
:103CA0000FB6F8940F92CD91DC9111970F900FBE43
:103CB0008FEFCF3FD80799F534C08D899E892A812F
:103CC0003B818417950741F50FB6F8940F92119632
:103CD0003C932E938C819D81892B81F0EA81FB811D
:103CE000309729F08C819D819583848305C08FEF67
:103CF0009FEF11969C938E931D821C820F900FBE96
:103D000082E08F87CE016DE479E00E94D3188FEFB7
:103D10009FEF9E8B8D8B05C0DE011296E9012097E7
:103D200061F6DF91CF910895CF92DF92EF92FF92EB
:103D30000F931F93CF93DF938C016A017B010FB622
:103D4000F8940F92FC01808191810F900FBE8F5FDC
:103D50009F4F59F40FB6F8940F92F8011182108218
:103D60000F900FBE0E945D1A32C080914F09909152
:103D700050096DE479E00E942C1980914F099091CF
:103D80005009B8010E94D318C0914F09D091500931
:103D900083E08F87C114D104E104F10459F0C70115
:103DA000B6014CE45EE1980101E00E94421C9E8B4A
:103DB0008D8B02C01E8A1D8A0E94181AE0914F093D
:103DC000F0915009858996898F5F9F4F19F020E007
:103DD00030E004C0168A158A2FEF3FEFC901DF914A
:103DE000CF911F910F91FF90EF90DF90CF900895AA
:103DF000FC010FB6F8940F92808191818F5F9F4FE5
:103E000011F4118210820F900FBECF010E94941EF8
:103E100008950F931F93CF93DF938C01C091820875
:103E2000D09183080AC0CE010296B8010E94105EAC
:103E3000009729F00990D881C02D2097A1F7CE01D5
:103E4000DF91CF911F910F910895CF93DF93EC01F4
:103E50006115710511F07D876C8741114E87CE0188
:103E600002960E94091F892BA9F4EB89FC893097DF
:103E700021F0CE010995892B69F4809182089091F7
:103E8000830899838883D0938308C093820820E0B5
:103E900030E002C02FEF3FEFC901DF91CF910895CD
:103EA00083E180935D098FE493E590935F098093AC
:103EB0005E0980E090E06DE579E043E150E00E942A
:103EC0002E31089580E090E06DE579E043E150E027
:103ED0000E943131892B89F480915D09833169F425
:103EE0008EE599E065ED72E042E050E00E94F35DFE
:103EF000009719F420E030E008C080E699E068ED12
:103F000072E00E94195E2FEF3FEFC90108959F9163
:103F10008F910F900BBE0F900FBE1F9018952F9290
:103F20003F924F925F926F927F928F929F92AF9249
:103F3000BF92CF92DF92EF92FF920F931F93CF9396
:103F4000DF938DB79EB7E0914F09F0915009918BA7
:103F5000808BE0914D09F0914E09F0935009E09368
:103F60004F0981E08787808991898DBF9EBFDF914E
:103F7000CF911F910F91FF90EF90DF90CF90BF9066
:103F8000AF909F908F907F906F905F904F903F90F9
:103F90002F900895AF92BF92CF92DF92EF92FF924F
:103FA0000F931F93CF93DF93F82EE92E6B01B42E5E
:103FB000A52EE901B901675E7F4F89E499E00E946F
:103FC000C216FC01009719F420E030E077C0C80F5A
:103FD000D91FAE0147505040BE016B5170408E0159
:103FE0000A5F1F4F8F2D9E2D9C0188E0D9010D90F7
:103FF0009D01D8010D928D018150C1F71E8661503F
:104000007040798B688B6F5F7F4FFC8BEB8B8FEEF3
:104010009EEBADEABEED80839183A283B38384835C
:104020009583A683B78380879187A287B387848788
:104030009587A687B78780E48A8BFA01D582C682E6
:1040400080E8838312821482B182A08287E89FE194
:10405000DB0152969C93529753968C9380914B0917
:1040600090914C0999838883D0934C09C0934B0954
:1040700082E08F871E8A1D8A188E1F8ACE016DE40A
:1040800079E00E94D318E0914F09F09150093097E0
:1040900021F40FB6F8940F925CCF80914D09909166
:1040A0004E09E817F90749F082E087870FB6F894C0
:1040B0000F920E948F1F0F900FBE9E01C901DF91CA
:1040C000CF911F910F91FF90EF90DF90CF90BF9015
:1040D000AF9008956091840870918508809186085A
:1040E00090918708089568EE73E080E090E008956D
:1040F0000895BC0180E094E2A4EFB0E080938408CE
:1041000090938508A0938608B093870887B78D7F22
:1041100087BF12BE8DE083BF8CE781BF82E086BF80
:1041200081EE92E040E050E00E94C92908959C0190
:10413000FB0147B7427087B78D7F87BF20313105BC
:10414000D1F0213131053CF42115310581F02130C8
:10415000310551F40DC02231310569F122313105AB
:10416000DCF020323105D9F02FEF3FEF1EC040E0E8
:1041700082E086BF18C006B601FE05C081E090E06F
:104180009183808302C0118210824423A1F0808138
:10419000918180689183808320E030E008C08EE0C8
:1041A00090E09183808320E030E0442331F087B7B2
:1041B000826087BF02C020E030E0C90108951F92ED
:1041C0000F920FB60F920BB60F9211242F933F93BD
:1041D0004F935F936F937F938F939F93AF93BF930F
:1041E000EF93FF9381EE92E00E94BE29FF91EF9141
:1041F000BF91AF919F918F917F916F915F914F91FF
:104200003F912F910F900BBE0F900FBE0F901F90FC
:104210001895FC016281738120918908422F50E03A
:10422000CA0180739070892B89F024FF04C083E158
:104230008CB9206403C081E18CB92F7B209389085D
:10424000809189088F7C80938908089527FF02C098
:104250005598089582859385892B89F18285938568
:1042600001979387828780918A08882311F0509A5A
:1042700001C05098DB018D918CB986819781A81778
:10428000B90711F4A481B581B383A2832285338554
:10429000848595852817390759F5A089B189109724
:1042A000A9F08FEFAF3FB80719F114968D919C914B
:1042B0001597019615969C938E931497089555988B
:1042C00013861286A089B189109729F48FEF9FEF8A
:1042D000918B808B08958FEFAF3FB80749F014960C
:1042E0008D919C911597019615969C938E9314979A
:1042F0000895CF93DF93282F5BB180918808582BC6
:10430000509388086CB140918908442361F063316F
:1043100019F45598406804C0613129F4559A4F77D3
:10432000409389085DC0A22FB92F1A962D913C9118
:104330001B9718968D919C9119972817390720F093
:104340005860509388084CC0E9012196232BB9F49A
:104350005096ED91FC915197309739F48FEF9FEF84
:1043600051969C938E9350971FC08FEFEF3FF807A5
:10437000D9F08481958101969583848315C0442367
:1043800099F01E968D919C911F97C817D90760F0E0
:1043900046FD0AC05D9B05C083E18CB940644F7D3A
:1043A00001C0406240938908ED91FC91119761939F
:1043B0001196FC93EE932D913C91119716968D9149
:1043C0009C9117972817390739F414968D919C9171
:1043D000159711969C938E931B96DC93CE931A9708
:1043E000DF91CF910895529B02C089E0089580919A
:1043F000950082FF08C08091950081FD02C087E092
:10440000089588E008958091950081FD02C085E0BF
:10441000089586E008958091950085FD02C080E0B2
:1044200008958091950084FD02C082E0089581E0A6
:1044300008958091950083FD02C081E0089582E097
:10444000089580918808682F70E0CB0124E096954C
:1044500087952A95E1F79C0140E050E0217030708B
:104460004070507063FD226062FD24608091890875
:10447000882321F086FD426087FD486041FF41604E
:1044800043FF446080918A08882321F0CA01B90162
:10449000806403C0CA01B9018068589B04C09B01B5
:1044A000AC01406103C09B01AC014062B901CA018B
:1044B0000895EF92FF920F931F937B018C018091DF
:1044C00089088823D9F00FB6F8940F9200FF02C034
:1044D0008F7B03C001FF03C080648093890802FFC3
:1044E00004C0809189088F7705C003FF05C08091C3
:1044F00089088068809389080F900FBE06FF03C06B
:1045000081E080938A0807FF02C010928A0804FDA8
:10451000589A05FD5898C70181709070892B29F031
:10452000809188088F7E80938808E1FE05C0809185
:104530008808877F80938808E2FE05C080918808FC
:104540008B7F809388080E942122687F6E157F05EB
:104550008007910719F420E030E002C02FEF3FEF11
:10456000C9011F910F91FF90EF90089580919500E0
:1045700086FF0BC0129B02C093E001C091E08091C6
:10458000950080FF07C0946005C0599B02C090E26F
:1045900001C090E0892F089580918908882329F42B
:1045A00020E030E040E050E004C020E230E040E0B5
:1045B00050E0B901CA010895EF92FF920F931F9343
:1045C0007B018C0165FF0DC080918908882381F4EF
:1045D0000FB6F8940F9281E4809389080F900FBE74
:1045E00007C00FB6F8940F92109289080F900FBE73
:1045F00080918908882329F420E030E040E050E0F1
:1046000004C020E230E040E050E02E153F054007B6
:10461000510719F420E030E002C02FEF3FEFC9014D
:104620001F910F91FF90EF900895559A08959091E2
:1046300089089923A9F096FF13C00FB6F8940F923A
:104640005D9B04C081E18CB99F7E01C09061909315
:104650008908809189088F79809389080F900FBE0F
:1046600008950FB6F8940F925798569855980F9052
:104670000FBE8AE00E94A51A5498539808951F937C
:10468000182F0E943123812F10FF15C011FF02C087
:10469000129A01C0129882FF04C080919500816037
:1046A00003C0809195008E7F8093950059988091EA
:1046B000950080640DC015FF02C0599A01C0599839
:1046C000809195008E7F80939500809195008F7BDF
:1046D000809395000FB6F8940F9288EB8AB90F90EB
:1046E0000FBE0E94B622811719F420E030E002C00C
:1046F0002FEF3FEFC9011F9108951F93182F0E94BC
:104700003123113021F480919500877F05C012304C
:1047100029F4809195008860809395000FB6F894F5
:104720000F9288EB8AB90F900FBE8091950083FDA0
:1047300002C081E001C082E0811719F420E030E07E
:1047400002C02FEF3FEFC9011F9108951F93182F4B
:104750000E943123113071F0113018F01230C1F481
:104760000DC0809195008F7E80939500809195007B
:104770008F7D0CC080919500806103C08091950071
:104780008F7E809395008091950080628093950044
:104790000FB6F8940F9288EB8AB90F900FBE0E9463
:1047A0000B22811719F420E030E002C02FEF3FEF19
:1047B000C9011F9108951F93182F0E943123529809
:1047C000809195008D7F80939500809195008B7FDF
:1047D000809395001730A1F0183018F41630A9F422
:1047E00005C0183041F0193081F404C08091950063
:1047F000826009C0529A80919500826080939500F2
:10480000809195008460809395000FB6F8940F9284
:1048100088EB8AB90F900FBE0E94F321811719F41B
:1048200020E030E002C02FEF3FEFC9011F91089553
:104830008F929F92AF92BF92CF92DF92EF92FF92B0
:104840000F931F9399B0809090008091950086FF00
:1048500006C052E0A52EB12CC12CD12C0DC0599907
:1048600006C040E1A42EB12CC12CD12C05C038E0EB
:10487000A32EB12CC12CD12C0E94461B7B018C0194
:10488000892D90E0382D20E0282B392B40E050E096
:104890002F5F3F4F4F4F5F4FC601B5010E946C5DC8
:1048A0009B01AC01C801B7010E94AB5DCA01B9010F
:1048B0001F910F91FF90EF90DF90CF90BF90AF903E
:1048C0009F908F900895EF92FF920F931F937B011B
:1048D0008C010E9431238091950086FD11C0599B67
:1048E00008C0E2E0EE0CFF1C001F111FEA95D1F793
:1048F00007C073E0EE0CFF1C001F111F7A95D1F763
:104900000E94461BA80197010E94AB5D2F5F3F4F9D
:104910004F4F5F4F5695479537952795215030401B
:1049200029B9309390000FB6F8940F9288EB8AB9AA
:104930000F900FBE80E090E01F910F91FF90EF90DD
:1049400008958DEA93E060E070E040E050E00E945E
:10495000C92983EB93E060E070E040E050E00E9402
:10496000C92980E090E008958DEA93E069E771E25B
:104970004CE253E00E94C929892BA9F483EB93E010
:1049800069E071E24AE153E00E94C929892B19F4D8
:1049900020E030E00AC08DEA93E060E070E040E0A3
:1049A00050E00E94C9292FEF3FEFC9010895FB0194
:1049B0004AB14078579880319105B9F0813191051D
:1049C0002CF4009771F0019749F40CC082319105E5
:1049D00049F182319105CCF08097D1F02FEF3FEF74
:1049E0001DC040E08CB18CB117C05F9B05C081E059
:1049F00090E09183808302C011821082442391F061
:104A00008081918180689183808320E030E008C0BC
:104A100080E190E09183808320E030E0442321F026
:104A2000579A02C020E030E0C90108951F920F920A
:104A30000FB60F920BB60F9211242F933F934F9303
:104A40005F936F937F938F939F93AF93BF93EF93F6
:104A5000FF938DEA93E00E94BE29FF91EF91BF91F1
:104A6000AF919F918F917F916F915F914F913F9106
:104A70002F910F900BBE0F900FBE0F901F901895A7
:104A8000FB014AB1407255988131910501F18231A3
:104A900091052CF4009741F1409731F408C0823120
:104AA000910511F18097B1F02FEF3FEF19C05D9B99
:104AB00005C081E090E09183808302C01182108262
:104AC000442391F08081918180689183808320E0EC
:104AD00030E008C080E190E09183808320E030E006
:104AE000442321F0559A02C020E030E0C901089526
:104AF0001F920F920FB60F920BB60F9211242F93A5
:104B00003F934F935F936F937F938F939F93AF9355
:104B1000BF93EF93FF9383EB93E00E94BE29FF9135
:104B2000EF91BF91AF919F918F917F916F915F9125
:104B30004F913F912F910F900BBE0F900FBE0F9092
:104B40001F90189500000000000000000000000009
:104B50000000000000000000000000000000000055
:104B600000000000089582E2809300FF90E08091B1
:104B700007FF86FD03C09F5F9531C9F780E48093EE
:104B800007FF0895582F6115710589F06150704035
:104B9000472F6F5F7F4F9C01F901650F81918093D3
:104BA00010FF6E17D9F7442311F04150F7CF089545
:104BB000CF93DF93FC01C189D2898A859B85AC851F
:104BC000BD850196A11DB11D8A879B87AC87BD87D6
:104BD000809107FF809307FF282F84FF3FC08091BB
:104BE00000FF82FDFCCF809100FF91E6909300FFD3
:104BF000209107FF91E2909300FF10920AFF10921C
:104C00000BFF82FD02C090E006C0809107FF90E09C
:104C10008A7009F491E082E080930DFF82E2809334
:104C200000FF822F8150863408F48FE5809303FFC4
:104C300010920DFF992319F086E2809300FF80E126
:104C4000809307FF8E859F85A889B9890196A11D4C
:104C5000B11D8E879F87A88BB98B50C083FF0BC077
:104C60008AA19BA1ACA1BDA10196A11DB11D8AA3E2
:104C70009BA3ACA3BDA320FF15C088819981892B7C
:104C800029F48FEF9FEF998388830CC088819981E5
:104C90008F5F9F4F39F0E881F9818481958101967A
:104CA0009583848322FF2AC020910DFF8A899B89E6
:104CB000AC89BD89820F911DA11DB11D8A8B9B8B73
:104CC000AC8BBD8B20910EFF8E899F89A88DB98DED
:104CD000820F911DA11DB11D8E8B9F8BA88FB98F47
:104CE00020910FFF8A8D9B8DAC8DBD8D820F911D04
:104CF000A11DB11D8A8F9B8FAC8FBD8FDF91CF918E
:104D00000895EF92FF920F931F93F82EE92E00E083
:104D100010911FFF85E00E94A51A10931FFF10E05D
:104D200082E30E94A51A809107FF87FF08C0809147
:104D30000AFF803521F480910BFF803749F01F5F17
:104D4000143171F70F5F043119F72FEF3FEF61C096
:104D500010920FFF0FEF009307FF81EE809300FF8B
:104D600080EC809301FF10E2109305FF109306FF83
:104D7000109201FF8FEF0E94A51A81E2809300FF3D
:104D800088E480930EFF10920AFF10920BFF10939D
:104D90000CFF82E080930DFF80E4809304FF8FE599
:104DA000809303FF86E4809301FF80E6809302FFF7
:104DB000009307FF81E6809300FF2F2D3E2DC90150
:104DC000DC01E1E0FFEF8D9181938FEFE730F80791
:104DD000D1F7E8E0FFEF11928FEFE031F807D9F754
:104DE00086E4809307FF81E2809300FF84E0809354
:104DF0000CFF8FEF809307FF8DE180930FFF82E21E
:104E0000809300FF10920DFF8FEF0E94A51A20E003
:104E100030E0C9011F910F91FF90EF900895EF923C
:104E2000FF920F931F93CF93DF93EC01809176094C
:104E3000882321F4CE0102960E94923F0F851889A3
:104E400085E0E82EF12CE00EF11ED701E0E8F9E054
:104E500086E001900D928150E1F7E989FA8986E2B6
:104E6000DF011D928A95E9F789EB93E061E078E232
:104E7000AE0120E832E00E94CA1F64EF71E080E0DA
:104E800090E00E94551C8EEB93E068ED75E2AE0158
:104E90000E94C929892BA9F489B78F7D89BFF801A0
:104EA00086819581892B9781892B29F0C7010E94E2
:104EB0008126892B31F489B7806289BF20E030E0F8
:104EC00002C02FEF3FEFC901DF91CF911F910F91EA
:104ED000FF90EF900895BF92CF92DF92EF92FF92F2
:104EE0000F931F93CF93DF93FC018B01C188B2888E
:104EF000FB01C185D28585819681C80FD91F858523
:104F00009685C80FD91F81899289C80FD91FF5E0EE
:104F1000CB3EDF0718F02FEF3FEF68C0CC33D10551
:104F200010F0FF2408C09CE3F92EFC1ACCE3D0E07B
:104F300002C00E945D1A809100FF82FDFACF89B7FE
:104F40008F7D89BFDC2EC0930AFFED2ED0930BFF1F
:104F5000109208FF80E4809309FF82E1809300FFB4
:104F6000F80165817681838194810E94C225F801D0
:104F700061857285878190850E94C225F8016585CB
:104F80007685838594850E94C225F801618972899E
:104F9000878590890E94C22580E090E02F2D30E027
:104FA00003C0109210FF019682179307D0F30C2DC7
:104FB0001B2D0E94B325D09205FFE09206FF80E4EE
:104FC000809304FF86E2809300FF89B7806289BFE7
:104FD000F80186819781A085B1850196A11DB11D3B
:104FE00086839783A087B18720E030E0C901DF91F5
:104FF000CF911F910F91FF90EF90DF90CF90BF90D6
:105000000895DF93CF9300D000D000D0CDB7DEB7A6
:105010003C01DC011F968D909C90509751964D90CD
:105020005C90529789E00E94DD19F4018681958198
:105030008923978189238F3FF1F406C06DE770E0E3
:1050400080E090E00E94551CD40116968C91169732
:1050500015969C911597892317969C9189238F3FCC
:1050600069F389B78F7D89BFC40105960E948126A7
:1050700089B7806289BF35E0232E312C280C391C7A
:10508000FE013596FE83ED83C20140E050E060E012
:1050900070E00E94941E89B78F7D89BFF2E6F0937D
:1050A00000FF0E94A225809107FF22E2209300FFCB
:1050B000C09003FFC3949FE59C1510F426E4C22E14
:1050C000C81621F489B7806289BFDECFA4E0A0931F
:1050D0000AFF10920BFF109208FFC09209FFBAE07E
:1050E000B09300FF0E94A225FE013196809110FF2F
:1050F00081938D819E81E817F907C1F70E94B3253E
:10510000AB80BC8080E0A11081E0D82EDB0CDC0CF1
:105110009FE59D1510F4A6EEDA0E8A81D81661F08F
:10512000D394BFE5BD1510F4E6EEDE0ED81621F0DF
:1051300089B7806289BF4FC0C501805490408F5AA3
:105140009540C0F589818E70A9F585010450104005
:1051500080E090E060E1A8010E94D3307C010097DC
:1051600059F100930AFF10930BFF24E0209308FFEE
:10517000C09209FF8AE0809300FF0E94A225D70118
:1051800013968C91139714969C91012B81F0FC013E
:10519000C5010597292F982F01C09150809110FFCC
:1051A00081939923D1F7222311F02150F6CF0E9449
:1051B000B32502C0EE24FF248D2D8150863408F4DF
:1051C0008FE5809303FF89B7806289BFBFEFEB163D
:1051D000BFEFFB0681F4C1010E948126F201868D9A
:1051E000978DA0A1B1A10196A11DB11D868F978FAA
:1051F000A0A3B1A350CFE114F10409F445CFF2010B
:1052000082819381A481B5810196A11DB11D828304
:105210009383A483B583D4015F96ED91FC9190971D
:10522000C301B701099537CF9C01FB0149B7407213
:1052300089B78F7D89BF21313105C9F1223131050F
:105240004CF421303105F9F020313105F9F0232BF0
:10525000A1F05EC02831310569F1293131052CF406
:105260002231310509F054C05BC02931310541F1CB
:105270002032310509F04CC046C08AB78B7F8ABF07
:105280008AB7877F8ABF80E288BF34C008B605FE30
:1052900005C081E090E09183808302C0118210827A
:1052A0004423F1F18081918180689183808320E0A3
:1052B00030E032C00AB603FC26C081E090E025C091
:1052C000608171816130710519F48AB78B7F05C0E7
:1052D0006730710531F48AB784608ABF8AB7877FE7
:1052E00008C06530710549F48AB78B7F8ABF8AB7D9
:1052F00088608ABF20E030E00DC06630710541F45F
:105300008AB78460F3CF85E090E091838083F2CF09
:105310002FEF3FEF442331F089B7806289BF02C08D
:1053200020E030E0C90108951F920F920FB60F924E
:105330000BB60F9211242F933F934F935F936F936C
:105340007F938F939F93AF93BF93EF93FF938EEBD6
:1053500093E00E94BE29FF91EF91BF91AF919F9181
:105360008F917F916F915F914F913F912F910F900E
:105370000BBE0F900FBE0F901F901895DC01129678
:10538000ED91FC911397309719F08D919C910995AF
:105390000895EF92FF920F931F93CF93DF93EC0149
:1053A0007B018A01EC81FD81309719F420E030E027
:1053B00006C080E090E060E070E009959C011983F0
:1053C0000883FB82EA82C901DF91CF911F910F917F
:1053D000FF90EF900895DC011496ED91FC911597E4
:1053E000309719F42FEF3FEF06C081E190E060E0C5
:1053F00070E009959C01C9010895DC011496ED91B6
:10540000FC911597309719F42FEF3FEF06C082E11A
:1054100090E060E070E009959C01C90108950F9348
:105420001F93DF93CF9300D000D0CDB7DEB78C01B0
:105430007C836B83DC011496ED91FC91159730977A
:1054400019F42FEF3FEF19C080E290E0BE016F5FCB
:105450007F4F09959C01009781F4D8011496ED9136
:10546000FC91159781E290E0BE016D5F7F4F099539
:105470009C01009711F429813A81C9010F900F9086
:105480000F900F90CF91DF911F910F9108950F937F
:105490001F93DF93CF9300D000D0CDB7DEB78C0140
:1054A0007C836B83DC011496ED91FC91159730970A
:1054B00019F42FEF3FEF1DC088E190E0BE016F5F50
:1054C0007F4F09959C010097A1F48B819C81892BCA
:1054D00071F0D8011496ED91FC91159789E190E057
:1054E000BE016D5F7F4F09959C01009711F42981E2
:1054F0003A81C9010F900F900F900F90CF91DF91DB
:105500001F910F9108950F931F93CF93DF93FC0189
:10551000C189D289EDA9FEA909958C01009749F4AA
:10552000CF5BDF4FE881F98160E072EC81E090E0D1
:105530000995C801DF91CF911F910F910895DC016A
:105540001296ED91FC9113970188F289E02D0FB628
:10555000F8940F9284A595A50F900FBEBC0180E032
:1055600090E00895CF92DF92EF92FF920F931F93F6
:10557000CF93DF93EC018B017A0169018C819D81CE
:10558000288539850FB6F8940F92198618860F90E2
:105590000FBE2617370789F0232B21F0009711F053
:1055A0000E94D0580115110511F1C8010E94D6586A
:1055B000009731F42FEF3FEF1CC061157105B9F072
:1055C0009D838C83998388839B838A83800F911F1B
:1055D0009F838E83FD86EC86DF86CE861B861A86A9
:1055E0000FB6F8940F92198708870F900FBE20E02E
:1055F00030E0C901DF91CF911F910F91FF90EF90A3
:10560000DF90CF900895CF92DF92EF92FF920F93A9
:105610001F93CF93DF93FB016A01DA01ED90FD90B8
:105620000D911C912E2DDC015196CD91DC9152975C
:10563000E150F140ED32F10540F4EA5BFF4FEE0F2F
:10564000FF1F0590F491E02D09940FEF1FEF29C182
:10565000CF5BDF4F43C0CD5BDF4F91C0CB5BDF4FF4
:10566000E881F981822F09958C011BC1C95BDF4F4D
:105670000BC0C75BDF4FF4CFC55BDF4F05C0C35B1B
:10568000DF4FEECFC15BDF4FE881F981099590E0F4
:10569000FFC0E6FE0DC06AA57BA54EA55FA528A9A3
:1056A00039A9CE0182960E94B22AEBADFCAD0995D4
:1056B000E7FE0AC0688D798D4C8D5D8D2E8D3F8DF6
:1056C000CE0140960E94B22ACF5ADF4F8FE39FEF60
:1056D000AFEFBFEFE822F9220A231B23E881F9810B
:1056E000C801B7010995C0CFCD5ADF4FE881F981D4
:1056F000C355D04009959B01AC01D6016D937D93B4
:105700008D939C9313978CA59DA5892B31F42064D0
:10571000F60120833183428353838A8D9B8D892BAD
:1057200009F0BDC0F60180819181A281B3818068BA
:10573000B2C0E886F9860A871B87B1C0888599853B
:10574000AA85BB85A7C0EC86FD860E871F87A7C0EC
:105750008C859D85AE85BF859DC088819981AA81F4
:10576000BB81EE2011F080642AC08F7B28C0888125
:1057700086FF35C02FC0EDADFEADB2CFEF96E8810C
:10578000F9810995F601608371838283938387C0D1
:1057900088819981AA81BB81EE2011F080680FC0B9
:1057A0008F770DC0888187FF1AC014C088819981C6
:1057B000AA81BB81EE2011F0946001C09B7F888399
:1057C0009983AA83BB836BC088819981AA81BB819D
:1057D00092FF05C081E090E0A0E0B0E05BC0D601A0
:1057E0001D921D921D921C92139759C0CB5ADF4FE8
:1057F00037CFC95ADF4F48CF4C8D5D8D2E8D3F8DF1
:10580000CE014096B7010E94B22A8C01009709F0A0
:1058100048C0EBADFCAD099544C0888D998D38C06A
:105820004EA55FA528A939A9CE018296B7010E948D
:10583000B22A1ACF8AA59BA52BC00FB6F8940F9257
:10584000FD8EEC8E0F900FBE2AC08C8D9D8D20C0DA
:105850000FB6F8940F92FF8EEE8E0F900FBE1FC002
:105860008E8D9F8D15C00FB6F8940F92FFA6EEA6F1
:105870000F900FBE14C08EA59FA50AC00FB6F89456
:105880000F92F9AAE8AA0F900FBE09C088A999A99A
:10589000A0E0B0E0F60180839183A283B38300E0AF
:1058A00010E0C801DF91CF911F910F91FF90EF9011
:1058B000DF90CF900895AF92BF92CF92DF92EF9298
:1058C000FF920F931F93CF93DF935C017A01FC014A
:1058D000C189D28983E0C82ED12CC422D522C1141B
:1058E000D10481F0CE01409660E470E048E250E0DF
:1058F00028E330E00E94B22A892BA1F4F1E0CF1610
:10590000D10499F0CE01829660E071E040ED50E064
:1059100020EF30E00E94B22A892B39F08C899D89D2
:105920000E94D0580FEF1FEF30C086E090E00E9439
:10593000D658FC018C01009739F48C899D890E940E
:10594000D0588EA19FA1ECCF80E090ECE822F92204
:1059500088819981AA81BB8120E0E21620E8F206C5
:1059600011F48F7701C0806888839983AA83BB83F1
:1059700011821082B382A2821582148281E0C8163D
:10598000D10419F0EBADFCAD0995C801DF91CF91C1
:105990001F910F91FF90EF90DF90CF90BF90AF904D
:1059A00008950F931F93CF93DF93EC01EA81FB815E
:1059B0002189328901978E5F9F4F18F02FEF3FEFBB
:1059C0002AC089010F5A1F4FD801ED91FC91015552
:1059D000104060E072E080E090E00995CE010E9406
:1059E000D058C801409660E070E040E050E020E010
:1059F00030E00E94B22AC801829660E070E040E088
:105A000050E020E030E00E94B22AC801C2960E9415
:105A1000321E20E030E0C901DF91CF911F910F913C
:105A20000895CF92DF92EF92FF920F931F93CF933F
:105A3000DF93EC016A010FB6F8940F928A8D9B8D6B
:105A4000860F971F9B8F8A8F0A8D1B8D0F900FBE1D
:105A500090E2E92EF12CEC0EFD1E13C0E9ADFAAD7B
:105A600009954C855D856E857F85C7010E94941ED2
:105A7000892B51F40FB6F8940F920A8D1B8D0F905D
:105A80000FBEC016D10650F3C801DF91CF911F9110
:105A90000F91FF90EF90DF90CF9008958F929F929B
:105AA000AF92BF92CF92DF92EF92FF920F931F932C
:105AB000DF93CF9300D0CDB7DEB78B015A016901D8
:105AC000DC0151968D909C905297F401808D918DC0
:105AD000892B19F40FEF1FEFABC06115710549F465
