:100000000C9446000C948D000C948D000C948D0083
:100010000C948D000C948D000C94BA240C948D00DB
:100020000C948D000C948D000C948D000C948D001C
:100030000C948D000C948D000C948D000C94611F19
:100040000C948D000C948D000C948D000C948D00FC
:100050000C948D000C948D000C948D000C948D00EC
:100060000C948D000C948D000C948D000C948D00DC
:100070000C948D000C948D000C948D000C948D00CC
:100080000C948D000C948D000C948D0080EC85BF39
:1000900087E089B98093990011241FBECFEFD0E18A
:1000A000DEBFCDBF13E0A0E0B1E0E8E8F1EA00E098
:1000B0000BBF02C007900D92A43FB107D9F71BBE3A
:1000C00019E0A4EFB3E001C01D92A130B107E1F740
:1000D0008FEF9FE79EBF8DBF8FEF9FE781509940C5
:1000E0008158914050F04FEF5EE7415059408CEA03
:1000F00098E061E079E00E948F150E94961D8CEBDC
:1001000092E06FE573E040E050E020E830E00E94CC
:10011000FE1D0E9400000C94C2500C9400002F920F
:100120003F924F925F926F927F928F929F92AF9287
:10013000BF92CF92DF92EF92FF920F931F93DF93C4
:10014000CF9300D000D0CDB7DEB780E092ECA1E035
:10015000B0E089839A83AB83BC8387EE92E060E052
:1001600070E040E00E94591D40919D0350919E0314
:1001700080E091E066E071E00E940F4A80919D036B
:1001800090919E030E94794961E071E0AE014F5F5A
:100190005F4F0E94BD4888E091E00E94DF4A87E1FE
:1001A00091E00E94DF4A8FE093E060E070E040E081
:1001B0000E94591D86E391E060E070E020E63AEE8F
:1001C00040E050E00E947704892B09F441C086E3A7
:1001D00091E066EB72E020E63AEE40E050E00E94EB
:1001E0007704892BA9F18BE391E00E94F1304B0158
:1001F0005C018BE491E00E94F1307B018C0186E38D
:1002000091E066EB72E0A50194010E94223489E539
:1002100091E00E94F1307B018C0160E070E080E0B1
:1002200090E020E030E040E050E0EFE0CE2EE3E070
:10023000DE2E0E94CD2F87E691E00E94F1309B01D7
:10024000AC0180E090E060E070E00E94EB1008C03C
:100250008090E9089090EA08A090EB08B090EC0834
:10026000C501B4010E94433100D000D025E731E040
:10027000ADB7BEB712963C932E93119714969C93EC
:100280008E9313970E94CD4A0F900F900F900F906E
:100290000FE711E0C8010E94C6144B015C01611513
:1002A00071058105910509F4E9C10E94782C1C01B2
:1002B000009709F4F6C0C501B4010E94433100D093
:1002C00000D000D0EDB7FEB731962EE831E0ADB7E3
:1002D000BEB712963C932E9311979383828380E549
:1002E00090E0958384830E94CD4AEDB7FEB73696A1
:1002F0000FB6F894FEBF0FBEEDBFC101B501A4015A
:1003000020E530E00E94F32B892B09F091C0C10158
:1003100061EA71E00E9410496C01009709F483C002
:1003200000D000D000D0EDB7FEB73196ADB7BEB764
:1003300012969C938E93119785EA91E09383828322
:1003400087EB91E0958384830E94AC4AEDB7FEB7BA
:1003500036960FB6F894FEBF0FBEEDBF89EB91E065
:10036000B6010E94BD4A8DED91E0B6010E94BD4AE2
:10037000C6010E9467490E943F192B013C01EE24EF
:10038000FF24870113C084EF93E00E94DF4AA4EFAB
:10039000B3E00D900020E9F7CD010197845F934011
:1003A000A0E0B0E0E80EF91E0A1F1B1F84EF93E0E7
:1003B00060E074E0A6010E94814A892B21F70E9427
:1003C0003F19EDB7FEB73A970FB6F894FEBF0FBED0
:1003D000EDBF319620EE31E0ADB7BEB712963C933B
:1003E0002E931197E282F3820483158364197509B1
:1003F0008609970934E096958795779567953A959C
:10040000D1F766837783808791870E94CD4AEDB7C5
:10041000FEB73A960FB6F894FEBF0FBEEDBFC60109
:100420000E94D24819C085E092E00E94DF4A14C0C1
:1004300000D000D083E292E0ADB7BEB712969C9395
:100440008E93119714961C930E9313970E94CD4A86
:100450000F900F900F900F90C501B4010E9443318F
:1004600000D000D000D0EDB7FEB7319629E432E0DD
:10047000ADB7BEB712963C932E93119793838283A8
:1004800080E590E0958384830E94CD4AEDB7FEB766
:1004900036960FB6F894FEBF0FBEEDBFC1010E94A5
:1004A0004F2B68E873E180E090E00E94791A0E9487
:1004B000782C6C01009709F4F5C0C501B4010E94C5
:1004C000433100D000D000D0EDB7FEB731962EE812
:1004D00031E0ADB7BEB712963C932E93119793833C
:1004E000828380E590E0958384830E94CD4AEDB7B6
:1004F000FEB736960FB6F894FEBF0FBEEDBFC6012D
:10050000B501A40120E530E00E94F32B892B09F00E
:1005100079C004EF13E0C8016EE572E00E94075055
:10052000D8010D900020E9F77D010894E108F10859
:10053000E01AF10A00E010E00EC0B8016C507C4FE8
:10054000A701401B510BC6010E9469291816190604
:100550002CF4080F191F0E151F0578F30E943F1980
:100560002B013C01EE24FF24870110C0CF01AA27F4
:1005700097FDA095BA2FE80EF91E0A1F1B1FEC501D
:10058000FC4F108284EF93E00E94DF4AC60164EFC3
:1005900073E04FEF53E00E944B28FC011816190638
:1005A0002CF30E943F19EDB7FEB73A970FB6F894B7
:1005B000FEBF0FBEEDBF319620EE31E0ADB7BEB746
:1005C00012963C932E931197E282F3820483158353
:1005D000641975098609970924E09695879577959A
:1005E00067952A95D1F766837783808791870E94E4
:1005F000CD4AEDB7FEB73A960FB6F894FEBF0FBEE0
:10060000EDBF16C000D000D083E292E0ADB7BEB718
:1006100012969C938E9311978FE791E014969C937A
:100620008E9313970E94CD4A0F900F900F900F90CA
:10063000C501B4010E94433100D000D000D0EDB715
:10064000FEB7319629E432E0ADB7BEB712963C93BF
:100650002E9311979383828380E590E09583848322
:100660000E94CD4AEDB7FEB736960FB6F894FEBF9E
:100670000FBEEDBFC6010E944F2B14C000D000D0AA
:1006800084E992E0ADB7BEB712969C938E93119712
:1006900014961C930E9313970E94CD4A0F900F90BF
:1006A0000F900F9068EE73E080E090E00E94791A5E
:1006B000F9CF9091C6028093C602892F08950E94B7
:1006C000561B81EC92E06FE870E040E050E020E0E3
:1006D00034E00E94FE1D8EEF0E94E6170E9466180D
:1006E0000E94AE172091C6022F3FC1F395B785B780
:1006F000837E822B85BF85B7806285BF889585B74D
:100700008F7D85BF85B79C71837E982B95BFE6CF83
:100710008091F90790E008958091FA079091FB0786
:100720001092FB071092FA07089520E030E08091C4
:10073000F907853011F421E030E0C9010895DF9216
:10074000EF92FF920F931F93CF93DF93D62E7901F1
:100750008A010E943D1DEC01009751F08B8583308A
:1007600039F4EF85F889309719F08081863049F0A7
:1007700081E190E09093FB078093FA072FEF3FEF22
:1007800035C00E947A19609304087093050880931D
:10079000060890930708E0920008F0920108009381
:1007A000020810930308D092F9078091F7079091FF
:1007B000F807892B69F487EC92E066EE78E0AE01E9
:1007C00020E231E00E94FE1D9093F8078093F70726
:1007D0008CEF97E00E94731C8EEF97E040E050E0B2
:1007E00060E070E00E94C81C20E030E0C901DF91A9
:1007F000CF911F910F91FF90EF90DF900895FC0132
:100800009A01AB018091F907882349F083E090E0D9
:100810009093FB078093FA072FEF3FEF05C0CF01BE
:1008200068E00E949F039C01C9010895FC019A01A0
:10083000AB018091F907853049F083E090E0909317
:10084000FB078093FA072FEF3FEF05C0CF0169E068
:100850000E949F039C01C9010895CF92DF92EF92FD
:10086000FF920F931F93CF93DF93FC0184E292E0FA
:10087000DF01EC011D922197E9F781E080838183FC
:1008800086E08283EF016C96A3EEB8E00D900992AA
:100890008150E1F724833583468357830C2CCD2C7C
:1008A000D02CD186C086E486F58606871787E4516A
:1008B000FF4F93E69193DF0182E8819383E51196E0
:1008C0008C93DF0111969183FD01319685E311969A
:1008D0008C9381E08183628387E090E0DF91CF9108
:1008E0001F910F91FF90EF90DF90CF9008954F925E
:1008F0005F926F927F928F929F92AF92BF92CF92B0
:10090000DF92EF92FF920F931F93DF93CF93CDB7B8
:10091000DEB760970FB6F894DEBF0FBECDBF4C01B7
:100920002B012D873E874F87588B0E943D1D5C0110
:10093000009769F0FC018385833049F4C784D0882F
:10094000C114D10421F0F6018081863019F081E1D3
:1009500090E03BC08E010F5F1F4FF80111928A9506
:10096000E9F797E0692E712C6C0E7D1EC3016FEFC5
:1009700070E046E050E00E94F74F85E0E82EF12C51
:10098000EC0CFD1CC701B80146E050E00E94E14FAD
:10099000009741F0C701B30146E050E00E94E14FEB
:1009A000009731F54114510449F0A3EEB8E0F2018B
:1009B00086E001900D928150E1F70CC0C4010E94C5
:1009C0004C34892B39F082E090E09093FB078093C0
:1009D000FA0799C0D701E3EEF8E086E001900D92A6
:1009E0008150E1F764EF71E080E090E00E94791AB5
:1009F0002091F5083091F6084091F7085091F808D9
:100A0000E090ED08F090EE080091EF081091F008EA
:100A1000D801C70182239323A423B5230097A105FE
:100A2000B10549F02093E9083093EA084093EB08B8
:100A30005093EC0858C0C40161E02D853E854F8578
:100A400058890E949F03892B09F05DC08091F907A6
:100A5000853031F5E091F507F091F607418152813B
:100A6000638174810581168127813085C584D68490
:100A7000E784F088C5010E945232E091F507F091B9
:100A8000F6072189328943895489E588F6880789E0
:100A9000108D80E090E060E070E00E94931030C024
:100AA000F60183859485A585B6850097A105B105D6
:100AB00039F52091E9083091EA084091EB0850910E
:100AC000EC08E090ED08F090EE080091EF0810912E
:100AD000F008D801C70182239323A423B5230097EC
:100AE000A105B10581F0A090F108B090F208C09086
:100AF000F308D090F408C40163EE78E00E944F330D
:100B000020E030E002C02FEF3FEFC90160960FB642
:100B1000F894DEBF0FBECDBFCF91DF911F910F9133
:100B2000FF90EF90DF90CF90BF90AF909F908F900D
:100B30007F906F905F904F900895CF93DF93EC017B
:100B4000009779F089A59AA5009711F00E941F4B94
:100B50008BA59CA5009711F00E941F4BCE010E940F
:100B60001F4BDF91CF910895EF92FF920F931F9348
:100B7000CF93DF938C01F62EE72EEA01DC018D91F5
:100B80009C91009711F00E941F4BCE0101960E948C
:100B9000254BF80191838083009769F0209729F015
:100BA0006F2D7E2DAE010E94EE4FD801ED91FC918C
:100BB000EC0FFD1F1082DF91CF911F910F91FF90DD
:100BC000EF9008954F925F926F927F928F929F92D3
:100BD000BF92CF92DF92EF92FF920F931F93CF932A
:100BE000DF938C017B018DE290E00E94254BEC01AC
:100BF0004C01009709F45BC18DE2FE0111928A95C8
:100C0000E9F780EC98EAA0E0B0E08DA39EA3AFA343
:100C1000B8A7F80180899189A289B38989839A83C9
:100C2000AB83BC8300511F4F80E19FEFE80EF91E9C
:100C300069E2462E512C4C0E5D1E5BE2652E712C36
:100C40006C0E7D1EE5C0332331F40F5F1F4F0894F7
:100C5000E108F108DDC0F801B180CB2CDD24EC14F3
:100C6000FD040CF4E3C0353341F4F1E0BF1609F0A4
:100C7000DDC0F80182818883C0C03C3029F4B8010E
:100C80006E5F7F4FC20106C03F3041F4B8016E5F16
:100C90007F4FC301A6010E94B405AFC0F3E0FB156E
:100CA00008F0ABC0F8012281838190E0A0E0B0E0C1
:100CB0004427582F692F7A2F848190E0A0E0B0E07C
:100CC000DC0199278827480F591F6A1F7B1F420F95
:100CD000511D611D711D858190E0A0E0B0E0B82F2D
:100CE000AA2799278827480F591F6A1F7B1F313071
:100CF00029F44D835E836F8378877FC03C3129F46C
:100D000049875A876B877C8778C0333029F44D87B1
:100D10005E876F87788B71C0363009F041C0498B90
:100D20005A8B6B8B7C8BF7E0FB1508F066C0F801E3
:100D3000268130E040E050E02D8B3E8B4F8B588F6A
:100D4000878190E0A0E0B0E0BA2FA92F982F8827E4
:100D5000820F931FA41FB51F8D8B9E8BAF8BB88FF7
:100D6000208530E040E050E0A90133272227280FFA
:100D7000391F4A1F5B1F2D8B3E8B4F8B588F8185F0
:100D800090E0A0E0B0E0B82FAA2799278827280F85
:100D9000391F4A1F5B1F2D8B3E8B4F8B588F2DC0E9
:100DA000363329F4498F5A8F6B8F7C8F26C03A33A4
:100DB00059F4042E472F702D052E562F602D4D8F80
:100DC0005E8F6F8F78A319C03B3359F4042E472FE1
:100DD000702D052E562F602D49A35AA36BA37CA31B
:100DE0000CC0333351F4042E472F702D052E562F8F
:100DF000602D4DA35EA36FA378A78B2D90E0029684
:100E0000080F191F8EEF9FEFE80EF91EEC18FD0872
:100E1000F80130813F3F09F45BC01E141F040CF43D
:100E200012CF04C0853041F0863031F0CE010E94EF
:100E30009D05882499243BC08D8D9E8DAF8DB8A1D2
:100E40000097A105B10561F48DA19EA1AFA1B8A540
:100E5000B695A795979587958D8F9E8FAF8FB8A3E1
:100E600089A19AA1ABA1BCA10097A105B105F9F494
:100E70008D8D9E8DAF8DB8A19C01AD015695479586
:100E8000379527957C018D0162E016950795F794BB
:100E9000E7946A95D1F72E0D3F1D401F511F280F73
:100EA000391F4A1F5B1F29A33AA34BA35CA3C401AC
:100EB000DF91CF911F910F91FF90EF90DF90CF9036
:100EC000BF909F908F907F906F905F904F9008950C
:100ED0008881823009F0A6CFAFCF2F923F924F92F8
:100EE0005F926F927F928F929F92AF92BF92CF92BA
:100EF000DF92EF92FF920F931F93DF93CF93CDB7C3
:100F0000DEB71C012A013B014901A80197018601B6
:100F10007501C40163E0CD8CDE8C0E942D049C0120
:100F20008D899E89AF89B88D0097A105B105C1F063
:100F3000F401E20FF31FE451FF4F82E38083245159
:100F40003F4FF401E20FF31F84E081838D899E8976
:100F5000AF89B88D82839383A483B583265E3040A6
:100F6000898D9A8DAB8DBC8D0097A105B105C1F01F
:100F7000F401E20FF31FE451FF4F86E38083245115
:100F80003F4FF401E20FF31F84E08183898D9A8D36
:100F9000AB8DBC8D82839383A483B583265E304062
:100FA000F401E20FF31FE451FF4F87E380832451E4
:100FB0003F4FF401E20FF31F2C5E3040DF0111962A
:100FC00093E09183FD01319681E011968C9391839A
:100FD00086E0828375E0E72EF12CE20EF31E43ECEF
:100FE00058E0DA010D900020E9F7A45CB8401A1629
:100FF0001B06D4F40A2FF401EE0DFF1DE451FF4F40
:101000008CE08083F901EF50FF4FE80DF91DA183BB
:101010003296CF01BA014A2F50E00E94EE4F10E005
:101020000E5F1F4FE00EF11EF401EE0DFF1DE451A7
:10103000FF4F8FEF8083F701E351FF4F81E0EC32E8
:10104000F80710F4ECE2F1E0C101B301A20123E4DE
:1010500030E084017F010E944E2E97FD03C020E006
:1010600030E008C083E190E09093FB078093FA079B
:101070002FEF3FEFC901CF91DF911F910F91FF90AB
:10108000EF90DF90CF90BF90AF909F908F907F9028
:101090006F905F904F903F902F9008952F923F92C6
:1010A0004F925F926F927F928F929F92AF92BF9278
:1010B000CF92DF92EF92FF920F931F93DF93CF9324
:1010C000CDB7DEB760970FB6F894DEBF0FBECDBFC9
:1010D0009C878B874D875E876F87788B39014701A7
:1010E00058010E947A196F83788789879A876701E8
:1010F0007801E6E02E2EEFEF3E2EEFEF4E2EEFEFD3
:101100005E2E280C391C4A1C5B1C8B859C85BE01FD
:101110006D5F7F4FAE014F5F5F4F930104E212E0BE
:101120000E94E32D9C01181619064CF00097A1F1BE
:1011300084E190E09093FB078093FA072DC0823FF3
:10114000910588F0F3018081823069F48481958172
:10115000A681B7814D855E856F857889841795074F
:10116000A607B707C9F00E947A192F8138854985EB
:101170005A85621B730B840B950B621573058405EE
:10118000950518F020E030E007C075016401C61A2B
:10119000D70AE80AF90AB9CFC90160960FB6F894E0
:1011A000DEBF0FBECDBFCF91DF911F910F91FF909A
:1011B000EF90DF90CF90BF90AF909F908F907F90F7
:1011C0006F905F904F903F902F900895DF93CF9353
:1011D000CDB7DEB7A0970FB6F894DEBF0FBECDBF78
:1011E0008C010E94E6196B8B7C8B8D8B9E8B2091E2
:1011F000E9083091EA084091EB085091EC082B8700
:101200003C874D875E87D8011F960D90BC91A02D1D
:10121000BA8FA98F1A968C9190E0A0E0B0E0BA2F17
:10122000A92F982F8827E98DFA8D2185820F911D8E
:10123000A11DB11DBA2FA92F982F88272085820FB5
:10124000911DA11DB11D2227382F492F5A2F8781AB
:10125000280F311D411D511D2B8F3C8F4D8F5E8FEF
:1012600018A21F8E66247724188E1F8A1F86188A5C
:10127000198A1A8A992420EA222E2FE0322E412C34
:10128000512C01C0982C9920E1F0220C331C441CF5
:10129000551C31E023163AEF330630E0430630E0C8
:1012A000530630F0212C8AEF382E412C512C38C0B7
:1012B0002FEF3FEF4FEF5FEF2F83388749875A8734
:1012C00037C08091F907833059F08B8D9C8DAD8D9F
:1012D000BE8D0196A11DB11D8B8F9C8FAD8FBE8FD2
:1012E000E091F507F091F6073097A1F0218D328D4E
:1012F000438D548D2F83388749875A8721153105AF
:101300004105510539F000EA202E0FE0302E412C26
:10131000512C0EC010EA212E1FE0312E412C512CF1
:101320008FEF9FEFAFEFBFEF8F839887A987BA87C3
:101330008091F9078823B9F1809100089091010804
:10134000A0910208B09103080097A105B10559F1D9
:101350000E947A199B01AC018091040890910508C4
:10136000A0910608B0910708281B390B4A0B5B0BAC
:101370006091000870910108809102089091030823
:10138000261737074807590718F081E090E087C013
:10139000621B730B840B950B621573058405950511
:1013A00010F41B012C018091F907823021F0863066
:1013B00011F0873041F59920F1F00E94E6192B8950
:1013C0003C894D895E89621B730B840B950B6050C1
:1013D00070408140904028F04FEF5FEF588F4F8B67
:1013E00012C00E94E619DB01EB89FC89AE1BBF0B22
:1013F000B88FAF8B08C00E94E6196B8B7C8B8D8BEE
:101400009E8B188E1F8A8091F907853011F08823F2
:10141000B1F42F8D38A12115310519F0C9010E94B1
:10142000B42D6114710419F418A21F8E4CC0C301AD
:101430000E941F4B18A21F8E6624772444C08091FF
:10144000F5079091F607892B59F4E98DFA8D83857C
:101450009485A585B6850097A105B10509F0F6C567
:101460002F8D38A1232B21F06114710461F509C07F
:1014700084E490E00E94942E98A38F8F61147104ED
:1014800029F484E292E00E94254B3C014F8D58A143
:10149000452B19F06114710439F482E190E09093C6
:1014A000FB078093FA07D2C580EC96E09A83898384
:1014B0008F8D98A162E070E1AE014F5F5F4F22E037
:1014C00030E00E94622D8091F907813029F58B8DE3
:1014D0009C8DAD8DBE8D0196A11DB11D8B8F9C8FF6
:1014E000AD8FBE8F8091ED089091EE08A091EF082E
:1014F000B091F0082B853C854D855E858223932332
:10150000A423B5230097A105B10511F432E07AC2F6
:1015100044E04093F90778C2823009F062C1B92CE7
:10152000B39453E0591538F481E090E09093FB07B1
:101530008093FA0747C18B859C85AD85BE858B83DB
:101540009C83AD83BE83C30161E02B8D3C8D4D8DAB
:101550005E8DEE24FF248701CF88D88C0E942D0455
:101560009C018B819C81AD81BE810097A105B10555
:10157000C1F0F301E20FF31FE451FF4F82E38083D8
:1015800024513F4FF301E20FF31F94E091838B81CD
:101590009C81AD81BE8182839383A483B583265EC3
:1015A0003040F301E20FF31FE451FF4FA7E3A083A4
:1015B00024513F4FF301E20FF31F2C5E3040DF0157
:1015C000119643E04183FD01319651E011965C9301
:1015D000418386E08283B5E0EB2EF12CE20EF31E10
:1015E000A3ECB8E00D900020E9F7A45CB8401A160F
:1015F0001B06E4F40A2FF301EE0DFF1DE451FF4F2B
:101600009CE09083F901EF50FF4FE60DF71DA18399
:101610003296CF01E3ECF8E0BF014A2F50E00E9480
:10162000EE4F10E00E5F1F4FE00EF11E20E432E09F
:101630003A832983F301EE0DFF1DE451FF4F39E397
:1016400030834CEE50E0E40EF51EF301EE0DFF1D6D
:1016500084E19FEFE80EF91E92E0918389819A81DF
:10166000082E892F902D9A838983319692838183C6
:10167000F301EE0DFF1DE051FF4FAFEFA083F70127
:10168000EF50FF4FB1E0EC32FB0710F4ECE2F1E079
:101690008F8D98A14FEF5FEF6FEF7FEF23E430E086
:1016A00083017F010E944E2E97FF7AC0E3E1F0E0B4
:1016B000F093FB07E093FA0785C0E090F507F09000
:1016C000F607C3010E94E2058C01009709F44EC0A1
:1016D000DC018C91823009F046C0E114F10409F478
:1016E00046C02091E9083091EA084091EB085091FA
:1016F000EC088091ED089091EE08A091EF08B09170
:10170000F00882239323A423B5230097A105B105F4
:10171000A9F0F70181819281A381B4818217930797
:10172000A407B50719F1F80181819281A381B481E1
:1017300082179307A407B507C9F411C0D80195967D
:101740002D913D914D915C919897F70185A196A1BE
:10175000A7A1B0A582179307A407B50720F4C70176
:101760000E949D0504C0C8010E949D058701109339
:10177000F6070093F507012B99F0809100089091EE
:101780000108A0910208B0910308805E9E42A0402B
:10179000B040D8F0A0EA2A2EAFE03A2E412C512CCE
:1017A0008F8D98A14B8D5C8D6D8D7E8D9301820107
:1017B00071010E944E08BC01181619060CF47DCF69
:1017C000009719F01092F90706C08091F5079091E3
:1017D000F607892B11F49B2C6EC423E02093F907A4
:1017E00013C1833009F06BC0892C839433E0391521
:1017F00020F441E04093F9075DC4E091F507F091D2
:10180000F6078DB79EB70A970FB6F8949EBF0FBE26
:101810008DBF2DB73EB72F5F3F4F4181528163810E
:101820007481ADB7BEB711964D935D936D937C9364
:101830001497818D928DA38DB48DF9018483958346
:10184000A683B7834F89588D518740878F8D98A184
:101850004FEF5FEF6FEF7FEF9301EB8CFC8C0D8D03
:101860001E8DAA24BB2465010E946D07ADB7BEB7CB
:101870001A960FB6F894BEBF0FBEADBF97FDE9C371
:101880008F8D98A14B8D5C8D6D8D7E8D9301820126
:1018900071010E944E08BC0197FDDBC3009709F45B
:1018A00009C4C3010E94E2058C01009709F402C437
:1018B000FC01F080F5E0FF1609F059C243C2843004
:1018C00009F081C0892C839453E0581548F481E0D5
:1018D0008093F907982C1B861C861D861E86EBC3F9
:1018E000ADB7BEB71A970FB6F894BEBF0FBEADBF67
:1018F0002DB73EB72F5F3F4F8B859C85AD85BE854D
:10190000EDB7FEB781839283A383B483D901149684
:101910001D921D921D921C921797EF89F88D1996B2
:10192000FC93EE9318978F8D98A14FEF5FEF6FEFB9
:101930007FEF9301EB8CFC8C0D8D1E8DAA24BB24B4
:1019400065010E946D072DB73EB7265F3F4F0FB66A
:10195000F8943EBF0FBE2DBF97FD7BC38F8D98A11E
:101960004B8D5C8D6D8D7E8D9301820171010E9486
:101970004E08BC0197FD6DC3009709F49BC3C301DA
:101980000E94E2058C01009709F494C3DC018C915C
:10199000853071F48091F5079091F6070E949D05BE
:1019A0001093F6070093F507B5E0B093F907D6C199
:1019B000863009F07BC331E03093F9071B861C8623
:1019C0001D861E8673C3853009F04FC08EEF97E0E9
:1019D0000E94661CE091F507F091F607E58CF68C05
:1019E000078D10A10E94E6192F85388949895A89E7
:1019F000621B730B840B950B6E157F058007910797
:101A000028F036E03093F907992455C3E091F507A3
:101A1000F091F607E58CF68C078D10A10E94E6196F
:101A20002F85388949895A892E0D3F1D401F511F26
:101A3000261B370B480B590B283389E8380781E4FC
:101A4000480780E0580720F027E339E841E450E0F8
:101A5000CA01B90128EE33E040E050E00E942A506C
:101A6000AB01BC018CEF97E01EC3863009F0C0C00B
:101A7000E091F507F091F607E1A0F2A003A114A10F
:101A80000E94E6195B016C01C201B10128EE33E04E
:101A900040E050E00E9469508F859889A989BA89F1
:101AA000E80EF91E0A1F1B1FEA18FB080C091D0986
:101AB000E216F30604071507E0F4E091F507F0914C
:101AC000F60721A032A043A054A00E94E6192F855A
:101AD000388949895A89621B730B840B950B28EE50
:101AE00033E040E050E00E942A50261A370A480AA4
:101AF000590AE091F507F091F607E1A0F2A003A1E1
:101B000014A10E94E6192F85388949895A89621BD8
:101B1000730B840B950B6E157F058007910708F0FA
:101B2000B2C0E091F507F091F607A180B280C380C2
:101B3000D4804DB75EB74A5050400FB6F8945EBFA0
:101B40000FBE4DBFADB7BEB71196418D528D638D9F
:101B5000748DEDB7FEB7A182B282C382D48214968F
:101B60001D921D921D921C9217972F89388D1996E0
:101B70003C932E9318978F8D98A19301EB8CFC8C3E
:101B80000D8D1E8D0E946D074DB75EB7465F5F4F8E
:101B90000FB6F8945EBF0FBE4DBF97FD74C0892C81
:101BA00083948F8D98A14B8D5C8D6D8D7E8D93016F
:101BB000820171010E944E08BC0197FD4AC2009744
:101BC00009F478C2C3010E94E2058C01009709F470
:101BD00071C2DC01FC90B5E0FB1609F4B3C036E03D
:101BE000F31609F063C287E08093F90788245EC288
:101BF000873009F0C4C0E091F507F091F607E1A045
:101C0000F2A003A114A10E94E6192F853889498901
:101C10005A89E20EF31E041F151FE61AF70A080B75
:101C2000190BE214F30404051505B0F4E091F5076F
:101C3000F091F60721A032A043A054A00E94E6191B
:101C4000261A370A480A590A8F859889A989BA89B4
:101C5000281A390A4A0A5B0AE091F507F091F6075B
:101C6000E1A0F2A003A114A10E94E6192F853889F2
:101C700049895A89621B730B840B950B6E157F057E
:101C80008007910720F087E08093F907BDCE892C6B
:101C90008394E091F507F091F607A180B280C380AC
:101CA000D4804DB75EB74A5050400FB6F8945EBF2F
:101CB0000FBE4DBFEDB7FEB73196ADB7BEB71196AB
:101CC000AD92BD92CD92DC92149714821582168249
:101CD00017822F89388D318720878F8D98A14FEFFC
:101CE0005FEF6FEF7FEF9301EB8CFC8C0D8D1E8D02
:101CF0000E946D074DB75EB7465F5F4F0FB6F89411
:101D00005EBF0FBE4DBF97FDA4C18F8D98A14B8DB7
:101D10005C8D6D8D7E8D9301820171010E944E0854
:101D2000BC0197FD96C1009709F4C4C1C3010E948C
:101D3000E2058C01009709F4BDC1DC01FC90B5E01F
:101D4000FB16A9F48091F5079091F6070E949D0576
:101D50001093F6070093F507F092F9072B893C8959
:101D60004D895E892F87388B498B5A8BA3C136E00A
:101D7000F31609F09BC141E04093F90797C1883001
:101D800009F0E0C0892C839453E0591508F461C12F
:101D9000A98DBA8D1B96ED90FD900D911C911E970B
:101DA000C30168E02B8D3C8D4D8D5E8DCC24DD24F0
:101DB0000E942D04F301E80FF91FE451FF4FB7E330
:101DC000B08384519F4FF301E80FF91FDF01119693
:101DD00023E02183FD01319631E011963C9321836C
:101DE00046E04283F9E1EF2EFFEFFF2EE80EF91EE9
:101DF000A3ECB8E00D900020E9F7A45CB84011F125
:101E00000A2FF301EE0DFF1DE451FF4F5CE05083FC
:101E10008CEE90E0E80EF91EF301EE0DFF1D24E1BB
:101E20003FEFE20EF31EA1833296CF0143EC58E060
:101E3000BA014A2F50E00E94EE4F10E00E5F1F4F94
:101E4000E00EF11E80E492E09A838983F301EE0DA7
:101E5000FF1DE451FF4F99E39083ACEEB0E0EA0E32
:101E6000FB1EF301EE0DFF1D24E13FEFE20EF31E1A
:101E700032E0318389819A81082E892F902D9A83AF
:101E80008983319692838183F301EE0DFF1DE0512A
:101E9000FF4F4FEF4083F701EF50FF4F51E0EC321F
:101EA000F50710F4ECE2F1E08F8D98A14F81588591
:101EB00069857A8523E430E083017F010E944E2EFC
:101EC00097FF11C083E190E09093FB078093FA079E
:101ED0002F81388549855A852F5F3F4F4F4F5F4F80
:101EE00009F0E8C0B6C08F8D98A14B8D5C8D6D8DCB
:101EF0007E8D9301820171010E944E08BC01009702
:101F000009F4D8C018161906A4F4C3010E94E2050A
:101F10008C01009781F0DC018C91853061F4809117
:101F2000F5079091F6070E949D051093F607009320
:101F3000F50700E010E01092F9070115110509F00E
:101F4000B5C0A0C9893009F098C0E091F507F091BB
:101F5000F607309709F471C0892C8394992009F011
:101F60006BC0E180F28003811481818D928DA38DFD
:101F7000B48D8B839C83AD83BE83C30167E02B8DBF
:101F80003C8D4D8D5E8DCC24DD240E942D049C0162
:101F90008B819C81AD81BE810097A105B105C1F007
:101FA000F301E20FF31FE451FF4FB6E3B083245176
:101FB0003F4FF301E20FF31F44E041838B819C818B
:101FC000AD81BE8182839383A483B583265E304036
:101FD000F301E20FF31FE451FF4F5FEF5083F9016C
:101FE000E351FF4F81E0EC32F80710F4ECE2F1E04E
:101FF0008F8D98A14F81588569857A8523E430E0DB
:1020000083017F010E944E2E97FF07C0A3E1B0E03D
:10201000B093FB07A093FA070FC08F8D98A14B8D4B
:102020005C8D6D8D7E8D9301820171010E944E0841
:10203000BC0199238CF40DC0982C2F8138854985DB
:102040005A852F5F3F4F4F4F5F4FA9F51092F90709
:1020500032C01092F9072EC0009761F1C3010E94AF
:10206000E2058C01009731F1DC018C91853011F093
:102070008630E1F41092F90719C08823E1F48091C9
:10208000F5079091F6070E949D051092F6071092B1
:10209000F5078EEF97E00E94661C8CEF97E040E01A
:1020A00050E060E070E00E94C81CAECCC8010E9405
:1020B0009D05E8C8982C892CE5C8CF93DF93FC01D7
:1020C000DB01EA01009731F080910808909109083E
:1020D00091838083109731F080910A0890910B08CA
:1020E0008D939C93209761F080910C0890910D083E
:1020F000A0910E08B0910F0888839983AA83BB83AF
:102100002115310569F08091100890911108A09176
:102110001208B0911308F90180839183A283B383DD
:10212000DF91CF9108958F929F92AF92BF92CF92FD
:10213000DF92EF92FF920F931F93CF93DF93EC0107
:102140004B0159016A018091080890910908009794
:1021500031F00E941F4B10920908109208088091DC
:102160000A0890910B08009731F00E941F4B1092C3
:102170000B0810920A08209739F0CE010E94354BC7
:1021800080930808909309088114910439F0C401E0
:102190000E94354B80930A0890930B08A0920C087C
:1021A000B0920D08C0920E08D0920F08E09210086D
:1021B000F09211080093120810931308DF91CF9149
:1021C0001F910F91FF90EF90DF90CF90BF90AF9055
:1021D0009F908F900895EF92FF920F931F93EE249C
:1021E000FF2487010E9493101F910F91FF90EF90A1
:1021F0000895EF92FF920F931F93CF93DF93EC011B
:102200007B01DB018D919C91009729F00E941F4B6F
:10221000F701118210828881807C803C19F402E0F1
:1022200010E02AC0DE010D900020E9F78D010C1BA3
:102230001D0BC8010E94254BDC01F70191838083AF
:10224000FE0191913EE215C0AF01BD01292FEA01C7
:102250008991AE01EB018993BE012150C1F7892F0D
:1022600090E0A80FB91FE80FF91F908191113D93DD
:102270003196992349F71C92C801DF91CF911F91A4
:102280000F91FF90EF9008952F923F924F925F929F
:102290006F927F928F929F92AF92BF92CF92DF9276
:1022A000EF92FF920F931F93DF93CF93CDB7DEB7DB
:1022B000C054D0400FB6F894DEBF0FBECDBF9E878E
:1022C0008D87788B6F8780910C0890910D08A09175
:1022D0000E08B0910F080097A105B10569F480912F
:1022E000100890911108A0911208B091130800975E
:1022F000A105B10509F421C380E090E00E94942E6D
:1023000098878F83892B09F418C380E092E00E949C
:10231000254B4C01442455241A861986AA24BB2433
:10232000662477249C012F5F3F4F38A72FA3AC0171
:102330004E5F5F4F5AA749A7BC016D5F7F4F7CA7D7
:102340006BA704969EA78DA7D4011596B8ABAFA72F
:10235000F4013696FAABE9AB9401295F3F4F3CABF1
:102360002BABA401485F5F4F5EAB4DABB401675F21
:102370007F4F78AF6FABC4010A969AAF89AFD40193
:102380001B96BCAFABAFF4013C96FEAFEDAF940132
:10239000235F3F4F21963FAF2EAF219789859A85C6
:1023A000182F49855A854F5F5F4F5A874987A11477
:1023B000B10449F481E090E06CE070E00E94034BCE
:1023C0005C01009791F0E985FA85D5011196FC939F
:1023D000EE9320E031E013963C932E93129741E068
:1023E00050E015965C934E9314976114710449F470
:1023F00081E090E066E070E00E94034B3C010097B2
:10240000B1F0D3018D919C91009711F00E941F4B68
:102410008D859E850E94354BF301808391832F85A6
:1024200038893383228341E050E055834483D501CA
:102430009C9111968C91F4018083AFA1B8A59C93D7
:10244000F50192818381A9A5BAA58C93EBA5FCA582
:102450009083D50114969C91149715968C91EDA5B7
:10246000FEA58083AFA5B8A99C93F50196818781CD
:10247000A9A9BAA98C93EBA9FCA99083D5011896B8
:102480009C91189719968C91EDA9FEA98083AFA90C
:10249000B8AD9C93F50192858385A9ADBAAD8C93B7
:1024A000EBADFCAD9083D3018C9111969C91FC0116
:1024B000DF010D900020E9F7AE1BBF0B1196EDADCB
:1024C000FEAD108221966EAD7FAD21977C014DADA2
:1024D0005EAD12C0C70101962E3229F4FB011082B5
:1024E0007C01AB0107C0FB0120837C01FA018081E4
:1024F0008F5F80836F5F7F4FF7012081222351F729
:10250000FB0110822DAD3EAD2A0F3B1FF3019281DE
:102510008381F9018083918312962DAD3EAD2A0F00
:102520003B1FF30194818581F90180839183FD0133
:102530003E9610FF0DC04091100850911108609117
:10254000120870911308411551056105710541F498
:1025500040910C0850910D0860910E0870910F0881
:102560008F81988525E330E084017F010E944E2E03
:1025700097FDAFC18F819885BE016D5F7F4FAE0122
:102580004F5F5F4F940100E012E0A8EECA2EA3E077
:10259000DA2EE12CF12C0E94E32D181619060CF00E
:1025A00092C10D973CF3AFA1B8A52C9130E0F40196
:1025B000F081FA8B198A49895A89242B352BD50148
:1025C0002D933C93EBA5FCA5808190E0A9A5BAA52D
:1025D000BC91BC8B1B8AEB89FC898E2B9F2BD50170
:1025E00013969C938E931297EFA5F8A98081482F9C
:1025F00050E0ADA5BEA5BC91BE8B1D8AED89FE89BC
:102600004E2B5F2BD50115965C934E931497EBA937
:10261000FCA9808190E0A9A9BAA9BC91B88F1F8AB2
:10262000EF89F88D8E2B9F2BD50117969C938E9357
:102630001697EFA9F8AD808190E0ADA9BEA9BC9135
:10264000BA8F198EE98DFA8D8E2B9F2BD501199695
:102650009C938E931897EBADFCAD808190E0A9AD73
:10266000BAADBC91BC8F1B8EEB8DFC8D8E2B9F2B3E
:10267000D5011B969C938E931A97E985FA852E17A0
:102680003F0709F077CF78C18DAD9EADB3010E94B1
:10269000F9109C01EDADFEADE80FF91F818190E0CE
:1026A00040814E8F1D8E6D8D7E8D862B972BD30195
:1026B00013969C938E9312972E5F3F4FEDADFEAD18
:1026C000E20FF31F22503040818190E0B081B8A327
:1026D0001F8EEF8DF8A18E2B9F2BD30115969C9307
:1026E0008E931497F50186819781892B09F4F1C0A7
:1026F000A901405F5F4F5C874B87F1E02F2E312CA3
:10270000ACC04114510439F481E090E06EE070E017
:102710000E94034B2C01CB84DC84C80CD91CC6015D
:10272000B2010E94F910F601E80FF91F218130E093
:1027300050815AA319A269A17AA1262B372BD20165
:1027400013963C932E931297FC013296D601AE0F4E
:10275000BF1F11962C91119730E04C914CA31BA2F6
:102760006BA17CA1262B372BD20115963C932E937F
:1027700014973296EC0DFD1DDF011196E180FF24C8
:1027800000E010E0208130E040E050E0542F432F83
:10279000322F2227E22AF32A042B152B102F0F2D7C
:1027A000FE2CEE2411962C91119730E040E050E081
:1027B000E22AF32A042B152B102F0F2DFE2CEE24CA
:1027C00012962C9130E040E050E0E22AF32A042BEC
:1027D000152BF201E682F782008711870896F60131
:1027E000E80FF91F2181022F10E020812EA31DA2E6
:1027F0004DA15EA1042B152BD2011B961C930E93A9
:102800001A9752E0E52EF12CE80EF91E1C968D91D8
:102810009C911D97009711F00E941F4BC8010E94C8
:10282000254BF2018487958796012E0D3F1DB90136
:10283000A8010E94EE4FD20112968D919C911397A0
:102840000197A1F0E00EF11EEB85FC85EE0DFF1D5A
:10285000FC87EB870894211C311CD50116968D91BD
:102860009C911797821593050CF04BCFF20182854E
:102870009385049741F50484F585E02D20818181BD
:1028800090E0A0E0B0E0EE24F82E092F1A2F82810C
:1028900090E0A0E0B0E0DC0199278827E80EF91E5F
:1028A0000A1F1B1FE20EF11C011D111D838190E008
:1028B000A0E0B0E0B82FAA2799278827E80EF91ED4
:1028C0000A1F1B1F09C029853A852630310509F0EA
:1028D00065CDEE24FF248701A114B10419F0C501D0
:1028E0000E941F4B6114710451F0D3018D919C9192
:1028F000009711F00E941F4BC3010E941F4B41140F
:10290000510499F0F20180819181009711F00E94A9
:102910001F4BD2011C968D919C911D97009711F031
:102920000E941F4BC2010E941F4BC4010E941F4BFB
:102930008F8198850E94B42D03C0EE24FF24870167
:10294000B701C801C05CDF4F0FB6F894DEBF0FBE01
:10295000CDBFCF91DF911F910F91FF90EF90DF904E
:10296000CF90BF90AF909F908F907F906F905F902F
:102970004F903F902F9008954130510509F0A3CF1B
:1029800083CE6FE070E00E944411089561E070E032
:102990000E9444110895CF93DF93DC016E5F7F4F57
:1029A0006430710510F464E070E06F5F7F4F6E7FFC
:1029B000ED91FC911197AD01A0E0B0E0C0E0D0E056
:1029C0001BC0208131812617370780F0109731F026
:1029D0008D919C9111972817390740F426173707D6
:1029E00019F4DF01EA010DC0DF01EA01AF014E5F1A
:1029F0005F4F0280F381E02D309719F79D0110970A
:102A0000F1F08D919C911197861B970B12962D9149
:102A10003C9113978430910568F0FD01E60FF71F94
:102A2000918380833383228311967C936E93F98301
:102A3000E88302C0398328839D012E5F3F4FC9017F
:102A4000DF91CF910895CF93DF93EC01611571056C
:102A500019F42DEF3FEF5FC0DB011297E881F98198
:102A60004FC020813181CF01820F931F8A179B07AE
:102A7000E9F46D917C91620F731F71836083DF01B4
:102A8000A60FB71F82819381A817B90709F041C02B
:102A90008D919C911197680F791F718360831296B5
:102AA0008D919C9113979383828333C0AE17BF0798
:102AB000E0F4B983A8834D915C911197CD01840F07
:102AC000951F8E179F0761F4240F351F11963C93B5
:102AD0002E938281938113969C938E93129719C0A3
:102AE0001396FC93EE93129714C0A817B90718F425
:102AF0002FEF3FEF10C0EF0122960280F381E02D0F
:102B0000309709F0AECF13961C921E921297B9839C
:102B1000A88320E030E0C901DF91CF9108956F5F75
:102B20007F4FFB01EE7F61507040640F751F6E1B7D
:102B30007F0B6E7F61937193BF010E9423150895EF
:102B4000FC010190F081E02D20E030E008C08081A0
:102B500091810297280F391F0280F381E02D309771
:102B6000B1F7C9010895FC010190F081E02D20E04A
:102B700030E009C0808191812817390708F49C0151
:102B80000280F381E02D3097A9F722503040C9012F
:102B9000089580E090E00895EF92FF920F931F93C5
:102BA000CF93DF938C01C091AC08D091AD088DEC30
:102BB000E82E82E0F82E26C08DB79EB708970FB694
:102BC000F8949EBF0FBE8DBFEDB7FEB73196ADB77F
:102BD000BEB712961C930E931197F382E282D583AF
:102BE000C48388819981978386830E94AC4A0A8036
:102BF000DB81C02D8DB79EB708960FB6F8949EBFA7
:102C00000FBE8DBF2097C1F6DF91CF911F910F911D
:102C1000FF90EF900895AF92BF92CF92DF92EF9224
:102C2000FF920F931F93CF93DF936C017B0161158C
:102C3000710529F4BA010E94CB147C018FC04115A3
:102C4000510531F40E942315892B09F487C061C016
:102C50008B01025010404E5F5F4F4430510510F41D
:102C600044E050E0EA012196CE7FF80120813181D5
:102C70002C173D0708F05FC0F601A081B181560115
:102C800009C092E0A92EB12CAA0EBB1E12960D907F
:102C9000BC91A02D1097B1F1A017B10790F36AC0B5
:102CA000C801820F931F8A179B0761F5CA01861B13
:102CB000970B0497D0F0260F371FE801398328833C
:102CC000FD01E60FF71FE501F983E88312968D9168
:102CD0009C91139793838283E881F9818D919C91D4
:102CE000861B970B9183808339C0420F531FF801D5
:102CF0005183408312968D919C911397E50199839E
:102D000088832CC0C601BE010E94CB14EC01009741
:102D100019F4EE24FF2422C0F801208131812250D1
:102D20003040B701A9010E94EE4FC601B7010E94D1
:102D300023157E0113C0C9010497C817D90770F481
:102D40002C1B3D0BF801EC0FFD1F21933193C601A5
:102D5000BF010E942315F801D183C083C701DF9111
:102D6000CF911F910F91FF90EF90DF90CF90BF9088
:102D7000AF900895BE01621B730B4D915C9111974A
:102D80004617570708F08CCFBDCF0F931F93CF93F3
:102D9000DF93162F072F0E94CB14EC01009731F020
:102DA00060E070E0412F502F0E94F74FCE01DF917D
:102DB000CF911F910F910895CF93DF93DC01EB0129
:102DC00058967C936E93579715961C921E92149763
:102DD0000FB6F8940F92E881F9818FEFEF3FF80773
:102DE00061F414968D919C911597019615969C937C
:102DF0008E931497E0E0F0E015C0309799F00F90B3
:102E00000FBE52969C91529707C0EF012296028006
:102E1000F381E02D309719F082899817B0F70FB63B
:102E2000F8940F921396FC93EE931297B983A883AC
:102E30001296ED91FC911397309791F084819581D2
:102E4000892B71F014962D913C9115978481958171
:102E5000820F931F15969C938E931497158214825C
:102E60000F900FBEDF91CF910895CF93DF93DC01D8
:102E7000EB010FB6F8940F92E881F9810F900FBE25
:102E80008FEFEF3FF80799F534C0EA17FB0751F5CC
:102E90000FB6F8940F9212968D919C911397998387
:102EA000888314968D919C911597892B81F01296A9
:102EB000ED91FC911397309731F014968D919C9180
:102EC00015979583848315961C921E9214970F90E4
:102ED0000FBE13961C921E92129758961C921E9229
:102EE000579707C0EF0122960280F381E02D3097BB
:102EF00061F6DF91CF910895FB01168A158A82E071
:102F00008787CB0160EB78E00E94DC1608950F9371
:102F10001F93CF93DF938C010097B1F0C091AE085F
:102F2000D091AF080CC0CE010696B8010E94FE4FAA
:102F3000009711F49E010CC00990D881C02D2097F4
:102F400091F720E030E004C02091B2083091B3083E
:102F5000C901DF91CF911F910F910895E091B408BD
:102F6000F091B508309751F0638974898CEA98E044
:102F70000E9423151092B5081092B4080895CF93BB
:102F8000DF93C091AE08D091AF080E94AE17409178
:102F9000B2085091B308EEEAF8E00BC028813981FD
:102FA000C417D50719F42083318305C0FE01C90178
:102FB000EC01209799F78091B2089091B308909313
:102FC000B5088093B408DF91CF9108950F931F93B4
:102FD000182FE091B208F091B3080289CF0160EB9D
:102FE00078E00E943517E091B208F091B308128B97
:102FF0001F3F31F0CF0160EB78E00E94DC1602C089
:103000000E94BF17E091B208F091B3088091B00818
:103010009091B108E817F90719F481E0878709C092
:1030200082E087870FB6F8940F920E94C31D0F901D
:103030000FBE802F1F910F9108958FEF0E94E6170A
:103040000895CF93DF93C091AE08D091AF0820C010
:103050000FB6F8940F928C819D810F900FBE892B33
:10306000A1F0EF89F88D0FB6F8940F928C819D81B5
:1030700001979D838C830F900FBE808191818F5F1C
:103080009F4F19F0CF010E94DE1B0990D881C02DFF
:103090002097F1F60E94C81AE091B208F091B308A7
:1030A0008091B0089091B108E817F90761F0878521
:1030B000813011F482E087870FB6F8940F920E9456
:1030C000C31D0F900FBEDF91CF910895E091B2081C
:1030D000F091B30882819381892B69F0CF0160EB75
:1030E00078E00E9435178091B2089091B30860EBA8
:1030F00078E00E94DC160E94211808958091BC0897
:103100009091BD08A091BE08B091BF080196A11D85
:10311000B11D8093BC089093BD08A093BE08B093E6
:10312000BF0808952091B6083091B7084091B808BB
:103130005091B9080E942A5028EE33E040E050E058
:103140000E946950C901DA0104C000000197A10979
:10315000B1090097A105B105C1F7089590E0A0E07D
:10316000B0E0BC01CD0128EE33E040E050E00E9429
:103170002A500E9492180895CF93DF93EC011B828E
:103180001A82E091BA08F091BB0823C028853985DE
:103190004A855B8580859185A285B3852817390787
:1031A0004A075B0748F4821B930BA40BB50B80877F
:1031B0009187A287B3870FC0281B390B4A0B5B0B83
:1031C000288739874A875B87FB83EA830190F081F0
:1031D000E02D3097D9F6F983E883309711F0D38347
:1031E000C283EA81FB81309719F0D183C08304C088
:1031F000D093BB08C093BA08DF91CF910895CF93C5
:10320000DF93FC01148215821682178215861486BC
:1032100080859185A285B3850097A105B10561F1EF
:10322000A281B38180819181109719F08D939C9335
:1032300004C09093BB088093BA08C081D1812097C5
:10324000A1F0828193819B838A8388859985AA8551
:10325000BB852085318542855385820F931FA41F2E
:10326000B51F88879987AA87BB8710861186128623
:103270001386CF010E94BC18DF91CF9108950FB63D
:10328000F8940F922091BC083091BD084091BE087F
:103290005091BF080F900FBEB901CA010895609107
:1032A00018087091190880911A0890911B086115EF
:1032B00071058105910569F480E090E00E949E1EF1
:1032C0009068609318087093190880931A08909377
:1032D0001B089B01AC015F77B901CA0108951092E8
:1032E00018081092190810921A0810921B0880E012
:1032F00090E008952F923F924F925F926F927F924B
:103300008F929F92AF92BF92CF92DF92EF92FF92F5
:103310000F931F930FB6F8940F92E090BC08F090B3
:10332000BD080091BE081091BF080F900FBE0E940B
:10333000A71E9B01AC01C801B7010E946950522E23
:10334000432E342E252E0E94A71E5B016C010E9485
:10335000A71E3B014C01652D742D832D922DA601D6
:1033600095010E942A50E61AF70A080B190BC801AA
:10337000B70128EE33E040E050E00E942A50A4015B
:1033800093010E94695079018A01652D742D832D66
:10339000922D28EE33E040E050E00E942A50E60EE5
:1033A000F71E081F191FB701C8011F910F91FF9049
:1033B000EF90DF90CF90BF90AF909F908F907F90D5
:1033C0006F905F904F903F902F900895EF92FF92F3
:1033D0000F931F930FB6F8940F92E090BC08F090F3
:1033E000BD080091BE081091BF080F900FBE0E944B
:1033F000A71E9B01AC01C801B7010E946950CA0118
:10340000B9011F910F91FF90EF900895AF92BF9275
:10341000CF92DF92EF92FF920F93CF93DF936B01E6
:103420007C01EA0159018CEA98E060E170E00E94B9
:10343000CB14FC01009781F10FB6F8940F928091A4
:10344000BC089091BD08A091BE08B091BF080F9034
:103450000FBE209114083091150840911608509124
:103460001708821B930BA40BB50B8C0D9D1DAE1D75
:10347000BF1D80879187A287B38700FF05C0148294
:1034800015821682178204C0C482D582E682F78232
:10349000D587C487B786A686CF01DF91CF910F91DC
:1034A000FF90EF90DF90CF90BF90AF9008950F9373
:1034B000CF93DF930E94061AEC01009711F00E944F
:1034C000BC18CE01DF91CF910F910895CF92DF927A
:1034D000EF92FF920F937A0169010E94AC1EA7013F
:1034E00096010E94571A0F91FF90EF90DF90CF90B6
:1034F0000895AF92BF92CF92DF92EF92FF920F9317
:10350000CF93DF935B016C01611571058105910516
:1035100099F1C0EBD8E08091B2089091B308BE0158
:103520000E943517E090B208F090B30883E0F701ED
:103530008787C601B5014CE757E1970101E00E947A
:10354000661AF701968B858B892B19F00E9421183A
:1035500015C0E091B208F091B308D08FC78B80916D
:10356000B0089091B1089383828381E08787F093BC
:10357000B108E093B00802C00E946618DF91CF91B5
:103580000F91FF90EF90DF90CF90BF90AF90089594
:10359000EF92FF920F931F93CF93DF930FB6F894A0
:1035A0000F922091BC083091BD084091BE08509107
:1035B000BF080F900FBE8091140890911508A0913C
:1035C0001608B091170879018A01E81AF90A0A0B5E
:1035D0001B0B209314083093150840931608509342
:1035E000170851C088859985AA85BB85E816F90614
:1035F0000A071B0760F48E199F09A00BB10B88877F
:103600009987AA87BB87EE24FF24870108C0E81AA0
:10361000F90A0A0B1B0B188619861A861B868885E1
:103620009985AA85BB850097A105B10561F5EC8553
:10363000FD85309721F06E857F85CE010995E0915B
:10364000BA08F091BB080190F081E02DF093BB081F
:10365000E093BA08309711F0138212828C819D8119
:10366000AE81BF8188879987AA87BB870097A1050C
:10367000B10531F48CEA98E0BE010E94231503C025
:10368000CE010E94BC18C091BA08D091BB08209707
:1036900031F0E114F1040105110509F0A3CFDF9128
:1036A000CF911F910F91FF90EF9008958EE798E1D1
:1036B0000E94C91E87B7826087BF0FB6F8940F9229
:1036C0002091BC083091BD084091BE085091BF08C0
:1036D0000F900FBE0FB6F8940F928091BC08909196
:1036E000BD08A091BE08B091BF080F900FBE28176B
:1036F00039074A075B0771F30FB6F8940F922091D0
:10370000BC083091BD084091BE085091BF080F9091
:103710000FBE13C08091B6089091B708A091B80869
:10372000B091B9080196A11DB11D8093B608909380
:10373000B708A093B808B093B9080FB6F8940F92E1
:103740008091BC089091BD08A091BE08B091BF08BF
:103750000F900FBE281739074A075B07D9F260910F
:10376000B6087091B7088091B8089091B90827E61B
:1037700030E040E050E00E942A506093B608709319
:10378000B7088093B8089093B9086091B608709113
:10379000B7088091B8089091B9082AE130E040E07C
:1037A00050E00E946950C901DA018093B6089093F5
:1037B000B708A093B808B093B9080895CF93DF93E2
:1037C000DC010FB6F8940F92CD91DC9111970F9018
:1037D0000FBE8FEFCF3FD80709F43AC0209771F1A1
:1037E0000FB6F8940F92EA81FB811196FC93EE9349
:1037F0008C819D81892B71F0309729F08C819D817E
:103800009583848305C08FEF9FEF11969C938E93D1
:103810001D821C820F900FBE8D899E89009721F01A
:103820000E94FF181E8A1D8A82E08F87CE0160EBFE
:1038300078E00E94DC1621E030E00CC00FB6F8946E
:103840000F928FEF9FEF11969C938E930F900FBE68
:1038500020E030E0C901DF91CF9108950F931F93CD
:10386000CF93DF938C010FB6F8940F92FC01808107
:1038700091810F900FBEFFEF8F3F9F0749F40FB666
:10388000F8940F92F801118210820F900FBE02C0BF
:10389000892B19F4C0E0D0E013C0C0E0D0E0C8012B
:1038A0000E94DE1BC80FD91F0FB6F8940F92F801C3
:1038B000808191810F900FBE01978E5F9F4F78F3AB
:1038C000CE01DF91CF911F910F9108950F931F9318
:1038D0000E942E1C182F092F0E946618812F902FEE
:1038E0001F910F9108950F931F930E94DE1B182FB5
:1038F000092F0E946618812F902F1F910F91089514
:10390000CF93DF93AC01DB010FB6F8940F92CD910A
:10391000DC9111970F900FBE8FEFCF3FD80799F52D
:1039200034C08D899E892A813B818417950741F592
:103930000FB6F8940F9211963C932E938C819D8133
:10394000892B81F0EA81FB81309729F08C819D8160
:103950009583848305C08FEF9FEF11969C938E9380
:103960001D821C820F900FBE82E08F87CE0160EB1C
:1039700078E00E94DC168FEF9FEF9E8B8D8B05C049
:10398000DE011296E901209761F6DF91CF9108954B
:10399000CF92DF92EF92FF920F931F93CF93DF931B
:1039A0008C016A017B010FB6F8940F92FC018081B3
:1039B00091810F900FBE8F5F9F4F59F40FB6F8940F
:1039C0000F92F801118210820F900FBE0E946618AC
:1039D00032C08091B2089091B30860EB78E00E9409
:1039E00035178091B2089091B308B8010E94DC1697
:1039F000C091B208D091B30883E08F87C114D1047D
:103A0000E104F10459F0C701B60140E85CE1980116
:103A100001E00E94661A9E8B8D8B02C01E8A1D8A51
:103A20000E942118E091B208F091B3088589968927
:103A30008F5F9F4F19F020E030E004C0168A158A8E
:103A40002FEF3FEFC901DF91CF911F910F91FF90B1
:103A5000EF90DF90CF900895FC010FB6F8940F928D
:103A6000808191818F5F9F4F11F4118210820F909E
:103A70000FBECF010E94C81C08950F931F93CF93D0
:103A8000DF938C01C0911C08D0911D080AC0CE01A3
:103A90000296B8010E94FE4F009729F00990D88144
:103AA000C02D2097A1F7CE01DF91CF911F910F91EB
:103AB0000895CF93DF93EC016115710511F07D87B7
:103AC0006C8741114E87CE0102960E943D1D892BC5
:103AD000A9F4EB89FC89309721F0CE010995892B57
:103AE00069F480911C0890911D0899838883D09374
:103AF0001D08C0931C0820E030E002C02FEF3FEF0C
:103B0000C901DF91CF91089583E18093C0088FE4CC
:103B100093E59093C2088093C10880E090E060EC48
:103B200078E043E150E00E94E926089580E090E0CB
:103B300060EC78E043E150E00E94EC26892B89F4A8
:103B40008091C008833169F481EC98E065ED72E002
:103B500042E050E00E94E14F009719F420E030E08D
:103B600008C083EC98E068ED72E00E9407502FEFE8
:103B70003FEFC90108959F918F910F900BBE0F9059
:103B80000FBE1F9018952F923F924F925F926F92A7
:103B90007F928F929F92AF92BF92CF92DF92EF92DD
:103BA000FF920F931F93CF93DF938DB79EB7E09152
:103BB000B208F091B308918B808BE091B008F0913E
:103BC000B108F093B308E093B20881E08787808959
:103BD00091898DBF9EBFDF91CF911F910F91FF9073
:103BE000EF90DF90CF90BF90AF909F908F907F909D
:103BF0006F905F904F903F902F900895AF92BF923B
:103C0000CF92DF92EF92FF920F931F93CF93DF93A8
:103C1000F82EE92E6B01B42EA52EE901B901675EDD
:103C20007F4F8CEA98E00E94CB14FC01009719F4B6
:103C300020E030E077C0C80FD91FAE014750504098
:103C4000BE016B5170408E010A5F1F4F8F2D9E2D5C
:103C50009C0188E0D9010D909D01D8010D928D0144
:103C60008150C1F71E8661507040798B688B6F5F01
:103C70007F4FFC8BEB8B8FEE9EEBADEABEED80832E
:103C80009183A283B38384839583A683B78380873C
:103C90009187A287B38784879587A687B78780E4B3
:103CA0008A8BFA01D582C68280E8838312821482CD
:103CB000B182A0828BEB9DE1DB0152969C935297DF
:103CC00053968C938091AE089091AF089983888326
:103CD000D093AF08C093AE0882E08F871E8A1D8AFA
:103CE000188E1F8ACE0160EB78E00E94DC16E0910E
:103CF000B208F091B308309721F40FB6F8940F9200
:103D00005CCF8091B0089091B108E817F90749F0AD
:103D100082E087870FB6F8940F920E94C31D0F9020
:103D20000FBE9E01C901DF91CF911F910F91FF90AE
:103D3000EF90DF90CF90BF90AF90089560911E08F4
:103D400070911F088091200890912108089560E0EB
:103D500074E080E090E008952AE0660F771F881FE6
:103D6000991F2A95D1F728EE33E040E050E00E94F9
:103D70006950C901DA019C01AD01211531054105E8
:103D8000510521F421E030E040E050E0B901CA01E2
:103D90000895BC0187B78D7F87BF80B7886080BFDB
:103DA00012BE82E083BF80B790E087709070892B4D
:103DB000D1F781E086BF0FB6F8940F9281E090E0D2
:103DC000A0E0B0E0B6B7B170E9F3B6BF0894811DCA
:103DD000911DA11DB6B7B170C9F3BB270F900FBEDF
:103DE00037E0880F991FAA1FBB1F3A95D1F7809320
:103DF0001E0890931F08A0932008B093210887B74E
:103E00008D7F87BF80B7886080BF12BE89E083BF87
:103E10008FE181BF80B790E087709070892BD1F7D8
:103E200082E086BF81EE92E040E050E00E94EF2405
:103E300008959C01FB0147B7427087B78D7F87BF0C
:103E400020313105D1F0213131053CF42115310506
:103E500081F02130310551F40DC02231310569F175
:103E600022313105DCF020323105D9F02FEF3FEF60
:103E70001EC040E082E086BF18C006B601FE05C045
:103E800081E090E09183808302C0118210824423FC
:103E9000A1F08081918180689183808320E030E06F
:103EA00008C08EE090E09183808320E030E04423DE
:103EB00031F087B7826087BF02C020E030E0C901DF
:103EC00008951F920F920FB60F920BB60F92112406
:103ED0002F933F934F935F936F937F938F939F9312
:103EE000AF93BF93EF93FF9381EE92E00E94E4249F
:103EF000FF91EF91BF91AF919F918F917F916F91C2
:103F00005F914F913F912F910F900BBE0F900FBE7D
:103F10000F901F90189588E18AB980E090E008958D
:103F2000FB01CA0109C020815D9BFECF2CB92A305C
:103F300011F42DE0F9CF319601972FEF8F3F9207C3
:103F400091F7CA0108959A01FB0109C084915D9B14
:103F5000FECF8CB98A3011F48DE0F9CF3196215023
:103F600030408FEF2F3F380789F7CA01089510922C
:103F70002308109222089093250880932408109219
:103F800027081092260882E298E0089580E090E0E9
:103F90000895CF93DF93EA016150714019F02FEF3C
:103FA0003FEF1FC00E944F19660F771F881F991F90
:103FB000288139814A815B81E4E0220F331F441F4D
:103FC000551FEA95D1F70E9469502F5F3F4F4F4F21
:103FD0005F4F5695479537952795215029B920E091
:103FE00030E0C901DF91CF910895F82F83E08093ED
:103FF0000EC0809108C0827F482F486090E0E82F73
:10400000E960782F7D60E09308C0709308C09F5FDF
:104010009132C9F7409308C0542F5460509308C0A0
:10402000E09308C0709308C0662349F0409308C02D
:10403000509308C0E09308C0709308C008C0E09394
:1040400008C0709308C0409308C0509308C080E037
:10405000409308C0509308C08F5F8530C9F790E146
:1040600020E030E0892F8F2329F0E09308C070937F
:1040700008C004C0409308C0509308C096952F5FB5
:104080003F4F2530310571F7409308C0842F0895C4
:1040900060E00E94F51F582F577F509308C0652F8E
:1040A0006460609308C020E030E040E0509308C0B6
:1040B000609308C0220F331F809108C090E096954E
:1040C000879581709070282B392B4F5F403171F7A5
:1040D000509308C0C9010895CF93DF93EB0161E0CD
:1040E0000E94F51F482FF82FF160F09308C0E82FC9
:1040F000E560E09308C0809308C0582F5460509347
:1041000008C060E070E820E030E0CB018C239D2304
:10411000892B29F0F09308C0E09308C004C04093B5
:1041200008C0509308C0769567952F5F3F4F2031A8
:10413000310559F7477F409308C0DF91CF9108952B
:10414000CF93DF93FC01C189D2898C859D85AE8593
:10415000BF850196A11DB11D8C879D87AE87BF8746
:1041600092E090930EC020910DC010920DC08091EE
:104170000CC08223382F82FF05C084E080930CC0DE
:104180002B7F14C081FF12C010920EC0809100C01E
:104190008160809300C0809100C0109201C0909314
:1041A0000EC090930CC080EA809300C034FF18C00A
:1041B00080E180930CC088819981892B29F48FEF4D
:1041C0009FEF998388830CC0888199818F5F9F4F6F
:1041D00039F0E881F9818481958101969583848302
:1041E00036FF18C080E480930CC088819981892BA8
:1041F00029F48FEF9FEF998388830CC08881998180
:104200008F5F9F4F39F0E881F98184819581019614
:104210009583848330FF19C081E080930CC02E7F8A
:1042200088819981892B29F48FEF9FEF9983888367
:104230000CC0888199818F5F9F4F39F0E881F981A7
:104240008481958101969583848333FF17C0277FEE
:10425000E0912A08F0912B08309739F48FEF9FEF07
:1042600090932B0880932A0809C04FEFEF3FF40783
:1042700029F08481958101969583848320930DC0D4
:10428000DF91CF910895CF93DF93EC0189B78F7DB4
:1042900089BFE989FA8980E2DF011D928A95E9F7F1
:1042A0008DE593E060EA70E2AE010E94EF24892B75
:1042B00019F02FEF3FEF0BC08AE093E062ED72E25E
:1042C000AE0120E830E00E94FE1D20E030E0C90190
:1042D000DF91CF910895CF93DF93EC0107C08091D8
:1042E00000C080FF08C081E00E94AE1821978FEFC8
:1042F000CF3FD807A1F7CD2B19F42FEF3FEF02C026
:1043000020E030E0C901DF91CF910895BF92CF92B4
:10431000DF92EF92FF920F931F93CF93DF93EC0105
:104320007B014091320350913303609134037091CB
:10433000350388E298E00E94C81C892B09F019C156
:10434000C988BA88F7010585168581859285080F89
:10435000191F81899289080F191FF5E00D3D1F076C
:1043600008F000C1D0900DC010920DC082E0809383
:104370000EC080E2809300C084E690E00E946B2132
:10438000892B09F0EFC088E0D82AD0920DC0F70140
:10439000C581D6812696C00FD11FC0FD02C0DD2485
:1043A0002BC02196DD24D39427C08AE298E04DE704
:1043B00050E060E070E00E94C81C892BF9F0009387
:1043C00000C088EE93E00E946B21109300C084E649
:1043D00090E00E946B21892B21F480910CC083FD19
:1043E0000DC08AE298E04DE750E060E070E00E9486
:1043F000C81C892B19F0B6C000E410E280910CC0F3
:1044000083FFD3CF10910DC010920DC0809103C0D7
:10441000809302C0109206C080E4809307C010927F
:1044200008C0109208C0C09308C0D09309C0F7011B
:10443000738124816581462F56814115510591F084
:10444000872F922F9C01F90141505040952F262F24
:10445000270F8191809308C02E17D9F7992311F067
:104460009150F7CFF701778120856185462F5285DE
:104470004115510591F0872F922F9C01F901415070
:104480005040952F262F270F8191809308C02E171B
:10449000D9F7992311F09150F7CFF701738524854F
:1044A0006585462F56854115510591F0872F922F2E
:1044B0009C01F90141505040952F262F270F8191E3
:1044C000809308C02E17D9F7992311F09150F7CF98
:1044D000F701778520896189462F52894115510559
:1044E00089F0872F922F9C01F90141505040952F60
:1044F000260F8191809308C02E17D9F7992311F0C8
:104500009150F7CFDD2011F0109208C0109208C032
:10451000109209C084E690E00E946B21892B11F56E
:10452000EC2DFB2D80EC809300C0166010930DC025
:1045300080859185A285B3850196A11DB11D8087D7
:104540009187A287B38788E893E1A0E0B0E08093E9
:10455000320390933303A0933403B0933503C0E048
:10456000D0E002C0CFEFDFEF88E298E00E94731C3A
:104570000EC084EF91E0A0E0B0E08093320390930E
:104580003303A0933403B0933503CFEFDFEFCE01B5
:10459000DF91CF911F910F91FF90EF90DF90CF901F
:1045A000BF9008956C01DC011F966D907C90509730
:1045B00051968D909C905297E30125968881998120
:1045C000AA81BB810197A109B1098E5F9F4FAF4FAF
:1045D000BF4F38F06FE370E080E090E00E94791AFE
:1045E000EDCF70E8F72E11E008E062E0362E50E4DF
:1045F000452E43E0542E37E0A32E21E8B22E90E161
:10460000E92E10920DC010920EC0109204C0F092CC
:1046100005C010930EC0109200C0F09201C08AE055
:104620000E94AE1810920EC0109204C0109205C0E5
:10463000109200C0109201C010930EC010920CC0D6
:1046400000930DC030920EC0409200C088EE93E0FF
:104650000E946B21892B09F074C0EFC06FE370E0FA
:1046600080E090E00E94791A80E00E94482097FF45
:1046700006C0C430D10509F464C02196EFCF82E1B1
:104680000E94482083E160EC7FE30E946C2010923E
:104690000EC0E0920AC000930BC084E061EE71E0AE
:1046A0000E946C206FE370E080E090E00E94791A35
:1046B000C0E0D0E0CE018F779070892B59F480E074
:1046C00060E072E10E946C206FE370E080E090E0B7
:1046D0000E94791A81E00E94482085FDC4C06FE3E2
:1046E00070E080E090E00E94791A2196F4E0C030FA
:1046F000DF0701F726C015968C91159781931196C7
:1047000020ECEA30F207B9F782E080930EC081E531
:1047100080930DC08AB784608ABF8AB788608ABFD9
:1047200089B7806289BF88E298E00E94731C89E0A3
:104730000E94E61782E0482E00EE502E10E8A12ECF
:1047400007C068EE73E080E090E00E94791A59CFCC
:10475000C40140ED57E060E070E00E94C81CB090DA
:104760000DC010920DC018C08FEFCF3FD807A1F039
:10477000F40184819581A681B7810196A11DB11DA7
:1047800084839583A683B783D3015F96ED91FC91D3
:104790009097C601BE01099540920EC0809104C059
:1047A000909105C097FD44C0109206C0509207C07A
:1047B0000000000000000000809108C0909109C036
:1047C000009108C0109109C080709C7A892B49F52E
:1047D000C80182549040835B954018F5BDEFEB2EE5
:1047E000BFEFFB2EE00EF11E80E090E060E1A7013C
:1047F0000E948826EC010097B1F08B819C81EF2804
:1048000091F0FC01C8010497292F982F01C0915005
:10481000809108C081939923D1F7222321F0215060
:10482000F6CFCFEFDFEFA09200C0209709F09CCF2A
:10483000E1E4BE2AB0920DC08BCF50920EC0A09280
:104840000CC010920EC0109204C0109305C0B0921C
:1048500000C0109201C080E060E070E80E946C200F
:10486000C0E0D0E0FBCE81E080930EC0D301E4E055
:10487000F0EC41CF9C01FB0149B7407289B78F7DB5
:1048800089BF21313105C9F1223131054CF4213084
:104890003105F9F020313105F9F0232BA1F05EC08C
:1048A0002831310569F1293131052CF422313105E6
:1048B00009F054C05BC02931310541F12032310586
:1048C00009F04CC046C08AB78B7F8ABF8AB7877F02
:1048D0008ABF80E288BF34C008B605FE05C081E00B
:1048E00090E09183808302C0118210824423F1F111
:1048F0008081918180689183808320E030E032C0A4
:104900000AB603FC26C081E090E025C06081718179
:104910006130710519F48AB78B7F05C06730710566
:1049200031F48AB784608ABF8AB7877F08C0653050
:10493000710549F48AB78B7F8ABF8AB788608ABFBE
:1049400020E030E00DC06630710541F48AB7846024
:10495000F3CF85E090E091838083F2CF2FEF3FEF9C
:10496000442331F089B7806289BF02C020E030E083
:10497000C90108951F920F920FB60F920BB60F92B6
:1049800011242F933F934F935F936F937F938F9354
:104990009F93AF93BF93EF93FF938DE593E00E94B6
:1049A000E424FF91EF91BF91AF919F918F917F91FF
:1049B0006F915F914F913F912F910F900BBE0F9090
:1049C0000FBE0F901F901895DC011296ED91FC918F
:1049D0001397309719F08D919C9109950895EF9256
:1049E000FF920F931F93CF93DF93EC017B018A011A
:1049F000EC81FD81309719F420E030E006C080E0C2
:104A000090E060E070E009959C0119830883FB82C7
:104A1000EA82C901DF91CF911F910F91FF90EF9032
:104A20000895DC011496ED91FC911597309719F4D7
:104A30002FEF3FEF06C081E190E060E070E0099564
:104A40009C01C9010895DC011496ED91FC91159724
:104A5000309719F42FEF3FEF06C082E190E060E05D
:104A600070E009959C01C90108950F931F93DF938E
:104A7000CF9300D000D0CDB7DEB78C017C836B83A1
:104A8000DC011496ED91FC911597309719F42FEFF6
:104A90003FEF19C080E290E0BE016F5F7F4F099544
:104AA0009C01009781F4D8011496ED91FC91159723
:104AB00081E290E0BE016D5F7F4F09959C010097F8
:104AC00011F429813A81C9010F900F900F900F9036
:104AD000CF91DF911F910F9108950F931F93DF9353
:104AE000CF9300D000D0CDB7DEB78C017C836B8331
:104AF000DC011496ED91FC911597309719F42FEF86
:104B00003FEF1DC088E190E0BE016F5F7F4F0995C8
:104B10009C010097A1F48B819C81892B71F0D801B5
:104B20001496ED91FC91159789E190E0BE016D5FBF
:104B30007F4F09959C01009711F429813A81C901A1
:104B40000F900F900F900F90CF91DF911F910F91C9
:104B50000895CF93DF93EC018A8184FF06C06B81B7
:104B60007C818CEA98E00E9423158A8185FF06C02B
:104B70006F8178858CEA98E00E9423158A8186FFF0
:104B800006C06B857C858CEA98E00E9423158A819B
:104B900087FF06C06F8578898CEA98E00E9423150C
:104BA0008CEA98E0BE010E942315DF91CF91089511
:104BB000AF92BF92CF92DF92EF92FF920F931F932B
:104BC000CF93DF936C018CEA98E063E170E00E9480
:104BD000C516EC015C01009709F48EC0F601058151
:104BE000168101151105D1F08CEA98E0B8010E94F8
:104BF000CB149C838B83892B21F4EE24EA94FE2C26
:104C00000FC01E830D83F601638174818B819C81AB
:104C1000A8010E94EE4F8A8180618A83EE24FF24DE
:104C2000F6010185128501151105E9F0E114F10481
:104C3000D1F48CEA98E0B8010E94CB1498878F8356
:104C4000892B21F4EE24EA94FE2C0DC01A870987E3
:104C5000F601678170858F819885A8010E94EE4FCB
:104C60008A8180628A83F601058516850115110502
:104C7000E9F0E114F104D1F48CEA98E0B8010E9463
:104C8000CB149C878B87892B21F4EE24EA94FE2C8D
:104C90000DC01E870D87F601638574858B859C8505
:104CA000A8010E94EE4F8A8180648A83F6010189FF
:104CB000128901151105C9F0EF28C9F48CEA98E0B2
:104CC000B8010E94CB14988B8F87892B81F01A8BA7
:104CD000098BF601678570898F859889A8010E94E4
:104CE000EE4F8A8180688A8307C0EF2829F0CE01C1
:104CF0000E94A925AA24BB24C501DF91CF911F9151
:104D00000F91FF90EF90DF90CF90BF90AF900895FC
:104D1000DF92EF92FF920F931F93CF93DF938C015B
:104D2000D62E7A01009751F48CEA98E063E170E0A6
:104D30000E94C5168C01009709F442C080E2D81683
:104D400049F0E0E4DE1649F0F0E1DF1649F4E8014D
:104D5000239608C0E801279605C0E8012B9602C0FB
:104D6000E8012F96F80182818D2179F08A819B815B
:104D70008E159F053CF4688179818CEA98E00E9449
:104D8000231503C0FB82EA8202C01B821A828A8139
:104D90009B81892BA9F48CEA98E0B7010E94CB147F
:104DA00099838883892B39F0FB82EA82F80182811A
:104DB0008D29828305C0C8010E94A92500E010E06A
:104DC000C801DF91CF911F910F91FF90EF90DF907D
:104DD00008950E94F72608950E94202708959C01B7
:104DE000E199FECF3FBB2EBBE09A8DB30895CF93E0
:104DF000DF93EC0120E030E01BC0D901AC0FBD1FF8
:104E0000E199FECFBFBBAEBBE09A8DB3FB01E20FD1
:104E1000F31FE0818E1751F0E199FECFBFBBAEBB0F
:104E2000EDBB0FB6F894E29AE19A0FBE2F5F3F4FA9
:104E30002417350710F380E090E0DF91CF910895BB
:104E40009C01CB01B9012FEE36E20E940E5080E0AA
:104E500090E008950F931F93CF93DF938C01C0913F
:104E60004C08D0914D08FE011BC0808D918D80179C
:104E7000910799F4828D938DA48DB58D8217930738
:104E8000A407B50751F4868D978D8617970729F4E7
:104E90008389882311F09F0117C00190F081E02DD4
:104EA000309719F70DC08B89813039F4888D998D31
:104EB0008017910711F49E0107C00990D881C02D79
:104EC000209789F720E030E0C901DF91CF911F9151
:104ED0000F910895CF93DF93FC01EA01009709F445
:104EE0005FC080E162307807F1F080E163307807DD
:104EF00044F46230710571F06150704109F04AC0AC
:104F000037C080E165307807C9F06650704109F01C
:104F100041C01DC04115510589F12230310571F59F
:104F2000EE5AFF4F08C04115510541F122303105BD
:104F300029F5E85BFF4F8081918127C0411551051C
:104F4000E9F024303105D1F4E659FF4F08C041158E
:104F50005105A1F02430310589F4EA59FF4F8081D1
:104F60009181A281B38188839983AA83BB830FC077
:104F70004115510519F02230310529F0E05AFF4F53
:104F800086E190E00BC0818992899983888320E033
:104F900030E008C0E05AFF4F8AE290E091838083BE
:104FA0002FEF3FEFC901DF91CF910895FC010097EA
:104FB00019F426E230E004C0E05AFF4F208131812D
:104FC000C9010895CF93DF93DC01EA016A307105CE
:104FD00061F06A30710534F06B307105B1F06C30FE
:104FE000710519F02FEF3FEF1CC0FD01E65BFF4F8D
:104FF000AA5BBF4F8D919C9120813181821B930BC5
:10500000AA2797FDA095BA2F06C01D968D919C9159
:105010001E97A0E0B0E088839983AA83BB8320E039
:1050200030E0C901DF91CF9108950F931F93CF9383
:10503000DF93EC018C01045B1F4F08C080819181DC
:10504000D8018D939C93CF010E94A925D801ED91A1
:10505000FC91309799F707C08081918199AF88AF13
:10506000CF010E94A925E8ADF9AD3097A9F708C096
:105070008081918199838883CF010E94A92502C0F4
:10508000C05BDF4FE881F981309791F7DF91CF91D5
:105090001F910F9108952F923F924F925F926F92BE
:1050A0007F928F929F92AF92BF92CF92DF92EF92B8
:1050B000FF920F931F93DF93CF9300D000D0CDB713
:1050C000DEB79C838B837A8369834A010E946618CA
:1050D0002B813C81232B89F1EB81FC8183898430F6
:1050E00019F08389853019F529813A81232B09F438
:1050F000D3C08114910409F4D1C04EE4A42EB12C84
:105100006B817C81A60EB71E36E4C32ED12CC60E51
:10511000D71E2AE4E22EF12CE60EF71E8B010A5967
:105120001F4F1AC0EB81FC818389843051F0E05A13
:10513000FF4F89E390E09183808388248A94982CA0
:10514000ADC0F8014081518162817381C5010E9427
:10515000C81C892B09F0A0C0F60180819181F7015C
:105160002081318182179307E9F2821B930B881506
:10517000990524F4009709F48FC04C017901662445
:1051800077249CE4292E312C2B813C81220E331E66
:1051900086E4482E512C420E531E36C0F101A080E9
:1051A000B180F501C188D288CE18DF0884010619C4
:1051B0001709C016D10608F4860149815A81460DA7
:1051C000571DF501278530892E0D3F1DCA01B901F4
:1051D000A8010E94EE4FE00EF11E0C151D0590F087
:1051E000F50180819181F10191838083F2018081B9
:1051F00091818E199F0991838083C5010E94A92501
:10520000EE24FF24600E711E6814790438F22B819D
:105210003C81265B3F4FF901F182E082EA54F04085
:10522000FC83EB8383898430C9F5EC5BFF4F4081BD
:105230005181349620813181E854F040FC83EB8326
:10524000C401840F951F281739070CF4C9012B815D
:105250003C812E5A3F4FF90120813181E255F040C7
:10526000FC83EB832417350778F02817390760F49F
:10527000EC5BFF4F91838083E454F040FC83EB832D
:10528000CF010E943F380AC02B813C812C5B3F4FED
:10529000F9019183808302C088249924C4010F906E
:1052A0000F900F900F90CF91DF911F910F91FF9072
:1052B000EF90DF90CF90BF90AF909F908F907F90B6
:1052C0006F905F904F903F902F9008950E944B28D1
:1052D00008958F929F92AF92BF92CF92DF92EF92FA
:1052E000FF920F931F93CF93DF93EC014B018A0141
:1052F0000E946618209709F458C08114910409F49B
:1053000057C00115110509F455C0CE5ADF4F8881E9
:105310009981C255D0408017910708F48C01FAE3B7
:10532000AF2EB12CAC0EBD1EE2E5CE2ED12CCC0E94
:10533000DD1E7AE6E72EF12CEC0EFD1E8B89843003
:1053400039F0C05ADF4F89E390E0998388832DC0FC
:1053500049A55AA58DA19EA1481B590B9A013695C6
:10536000279536952795F601808191812817390771
:1053700038F48DA99EA9841B950B8017910758F4CA
:10538000F7014081518162817381C5010E94C81C6F
:10539000892BA1F20DC088A1806188A3CE01B40140
:1053A000A8010E944635892B29F00FEF1FEF02C09C
:1053B00000E010E0C801DF91CF911F910F91FF90A5
:1053C000EF90DF90CF90BF90AF909F908F90089517
:1053D000CF92DF92EF92FF920F931F93CF93DF93C1
:1053E0006C017B018A01C0E0D0E011C0B7016C0FF5
:1053F0007D1FA8014C1B5D0BC6010E946929181670
:1054000019061CF0CFEFDFEF05C0C80FD91FC0177A
:10541000D10764F3CE01DF91CF911F910F91FF90DF
:10542000EF90DF90CF900895AF92BF92CF92DF922E
:10543000EF92FF920F931F93CF93DF938C01E72F8F
:105440006A01009709F4E6C0DC0153968C91843020
:1054500041F0005A1F4F89E390E0F8019183808367
:10546000D9C0D8011D964D915C911E97C114D104ED
:10547000C9F44115510509F4D0C01F966D917C9176
:105480005097C8010E94E829F8012785308997FFC5
:1054900002C0C90176C0C9010E941F4BF8011686DF
:1054A0001586BBC0C62FD72F5E01D80151966D91CE
:1054B0007C9152974115510569F5C616D70610F42F
:1054C000E60113C0C6010E945550EC017601E81AAE
:1054D000F90AC801B501A7010E94E82997FD9AC001
:1054E000209709F49AC0AE0CBF1CF80181899289FB
:1054F0000E94254BD80150969C938E931F9700973E
:1055000009F488C0B501AE010E94EE4FF801C587CD
:10551000D68783C0C601840F951FD8011F962D9191
:105520003C9150978617970780F4240F351FC901C7
:105530006C2F7E2FA6010E94EE4FF801858596857F
:105540008C0D9D1D9687858768C07B01E41AF50A3E
:10555000240F351FC9016C2F7E2FA7010E94EE4F2B
:10556000D8011F966D917C91509751964D915C9109
:105570005297C8010E94E82997FF0BC0F801878560
:1055800090890E941F4BD8011E961C921E921D9757
:1055900041C05E01AE0CBF1C96012E193F09F801F7
:1055A0006189728926173707E0F0C6010E945550BD
:1055B000EC017901E81AF90AC801B501A7010E94B6
:1055C000E82997FF0BC0D8011F968D919C915097A9
:1055D0000E941F4BF801168615861CC0AE0CBF1C1E
:1055E00001C0E901209759F0D8011F968C911F97AF
:1055F00050969C91B501AE010E94EE4F05C0F80196
:10560000878590890E941F4BD8011E96DC93CE930C
:105610001D9703C0CC24CA94DC2CC601DF91CF9126
:105620001F910F91FF90EF90DF90CF90BF90AF90C0
:105630000895CF92DF92EF92FF920F931F93CF9333
:10564000DF936C017B018A014115510519F4C0E01B
:10565000D0E00CC08CEA98E0BA010E94CB14EC01B7
:10566000009721F0B701A8010E94BB4FC601BE01FF
:10567000A8010E94142A182F092F209729F08CEADC
:1056800098E0BE010E942315812F902FDF91CF91CA
:105690001F910F91FF90EF90DF90CF9008950F939F
:1056A0001F938C0160E070E040E050E00E94142AFB
:1056B000C8010E94D73F1F910F9108950F931F9328
:1056C000CF93DF93EC018A01009709F47BC080E15E
:1056D0006230780759F1E0E163307E0744F46230CC
:1056E000710571F06150704109F066C04BC080E1F6
:1056F0006530780761F16650704109F05DC030C0D7
:105700004115510509F444C02230310509F040C06B
:105710008B89882329F0C05ADF4F88E390E050C07E
:10572000CE5ADF4FFA01808191810EC0411551059B
:1057300079F12230310561F5FA0180819181C85BF0
:10574000DF4F9983888324979983888332C04115DA
:105750005105F1F024303105D9F4C659DF4F08C0A6
:1057600041155105A9F02430310591F4CA59DF4F94
:10577000F80180819181A281B38188839983AA8372
:10578000BB8317C04115510519F02230310529F0AE
:10579000C05ADF4F86E190E013C0CE0160E070E0B8
:1057A00040E050E00E94142AF801808191819A8B98
:1057B000898B20E030E008C0C05ADF4F8AE290E0D9
:1057C000998388832FEF3FEFC901DF91CF911F911C
:1057D0000F910895FC01062E672F702D718F608F39
:1057E0000E9426390895EF92FF920F931F93CF9353
:1057F000DF93EC01D901009709F453C08B89813004
:1058000029F4C05ADF4F8DE290E049C08B8988238C
:1058100029F0C05ADF4F88E390E041C0E0904C0887
:10582000F0904D0800E010E18091630390916403D3
:105830000196909364038093630380916303909136
:105840006403892B21F41093640300936303F7012D
:105850000FC08091630390916403082E892F902DCF
:10586000208D318D28173907F9F20190F081E02D54
:10587000309779F720C00784F089E02D83859485DF
:10588000A585B6858C8B9D8BAE8BBF8BCE010E9480
:1058900008399C0108C0C05ADF4F81E490E0998329
:1058A00088832FEF3FEFC901DF91CF911F910F91B7
:1058B000FF90EF9008958091630390916403082E08
:1058C000892F902D998F888F0A2EAB2FB02DBF8FE7
:1058D000AE8F4A8F5B8F6C8F7D8FCB01BA0140E01A
:1058E00050E00E94632FFC01009709F0C4CFD3CF92
:1058F0000F931F93CF93DF9380914E08882381F4F9
:1059000086E06CE774E30E941D2F892B09F05DC0CF
:105910000E945837892B09F058C081E080934E08C7
:1059200081E090E062E770E00E94034BEC018C01A3
:10593000009709F44CC01B8A84E08C8386E699E2C8
:105940009E838D8384E19AE298878F8389E19BE22D
:105950009A87898782EE97E29C878B870E943F19FE
:1059600069A37AA38BA39CA36DA37EA38FA398A7FF
:1059700069A77AA78BA79CA70C5B1F4F80E99CE0C7
:10598000F801918380830C5F1F4FF801918380831E
:10599000065F1F4F28E132E0F801318320830A5F60
:1059A0001F4F88EE93E0F8019183808308551040E3
:1059B00080914C0890914D08998388833A8B298B6C
:1059C00010934D0800934C0802C000E010E0C8019D
:1059D000DF91CF911F910F910895CF93DF93EC0149
:1059E000E0914C08F0914D08ACE4B8E014C0EC171D
:1059F000FD0769F48881998111969C938E93CE015D
:105A00000E9415288D859E85892B71F007C0DF01C6
:105A10000190F081E02D309751F70EC08F85988965
:105A20000E941F4B1E861D8682E7FE0111928A95F9
:105A3000E9F7CE010E941F4BDF91CF910895CF93DC
:105A4000DF93FC01EB01DA01009719F426E230E064
:105A50001FC084859585009719F420E030E018C0B8
:105A60009C0182899389082E892F902D8D939C9378
:105A700086859785A089B18988839983AA83BB830A
:105A800015861486138A128A16861786108A118A3A
:105A9000C901DF91CF9108959C01E091D308F09165
:105AA000D4080AC0828193818217930711F49F0161
:105AB00007C00190F081E02D3097A1F720E030E0A1
:105AC000C9010895DC01FA01009791F0625070411C
:105AD00079F44115510561F02230310549F4808196
