:100000000C9473000C94DD000C94DD000C94DD0066
:100010000C94DD000C94DD000C94DD000C94DD00EC
:100020000C94DD000C94DD000C94DD000C94DD00DC
:100030000C94DD000C94DD000C94DD000C9458153C
:100040000C94DD000C94DD000C948F190C94F119C4
:100050000C94DD000C94DD000C94DD000C94DD00AC
:100060000C94DD000C94DD000C94DD000C94DD009C
:100070000C94DD000C94DD000C94DD000C94DD008C
:100080000C94DD000C94DD000C94DD00851B881BB6
:100090008B1B931B961B991B9C1B9F1BA61BD11B89
:1000A000F61BFB1B001C051C0A1C141C181C1B1C2B
:1000B000251C2F1C821B821B821B821B531C561C5F
:1000C000591C6A1C6D1C771C821B7A1C821C851CA7
:1000D0008D1C901C981C9B1CA31C821B821B821BCA
:1000E000821B331C411C80EC85BF87E089B980935B
:1000F0009900AF9AA79AAE9AA69A81EE8093008350
:1001000080E48093018385B78F7785BF80E090E09E
:100110009D9B05C0019641F09D9BF8CFFBCF0196BA
:1001200019F09D99F3CFFBCF85B7806885BFAF9855
:10013000A798AE98A69811241FBECFEFD0E1DEBFDE
:10014000CDBF13E0A0E0B1E0E6EAF0E400E00BBFD1
:1001500002C007900D92AA34B107D9F713E0AAE4C0
:10016000B3E001C01D92AF3DB107E1F78FEF9FE70C
:100170009EBF8DBF8FEF9FE78F5D93408158914069
:1001800050F04FEF5EE74F5D534086E993E06FED2F
:1001900073E00E9487030E94A0130E947E0B81E2FD
:1001A00092E06AE972E040E050E020E831E00E942D
:1001B000E4130E9400000C9451200C9400008F92D4
:1001C0009F92AF92BF92CF92DF92EF92FF920F93E6
:1001D0001F93CF93DF936B015A01EB01099000202D
:1001E000E9F72197C61BD70B00D000D000D0EDB7A0
:1001F000FEB7319620E031E0ADB7BEB712963C9322
:100200002E93119793838283758364830E94800E5B
:10021000EDB7FEB736960FB6F894FEBF0FBEEDBF32
:1002200087E0882E81E0982E03C0EE24FF24E701AA
:100230000E94550E8C018830910591F42097A9F306
:100240007E010894E108F10800D0ADB7BEB7129660
:100250009C928E9211970E94800E0F900F90E7CF84
:10026000803291059CF07E010894E11CF11CEA1497
:10027000FB0434F40E94920ECC0DDD1D0883D7CF11
:1002800087E090E00E94920E7E01D1CFCC0DDD1D63
:1002900018828AE090E00E94920E80E090E0DF9168
:1002A000CF911F910F91FF90EF90DF90CF90BF9073
:1002B000AF909F908F900895EF92FF920F931F93AE
:1002C000DF93CF93CDB7DEB7A4970FB6F894DEBF18
:1002D0000FBECDBF80E092ECA1E0B0E089839A83AD
:1002E000AB83BC8381EC92E060E070E040E00E9470
:1002F000410B40916402509165028BE091E061E115
:1003000071E00E94E30D40916202509163028BE024
:1003100091E063E171E00E94E30D809164029091AD
:1003200065020E94810D61E071E0AE014F5F5F4F99
:100330000E946C0D85E191E00E94990E0E94750269
:100340008E010B5F1F4F94EBE92E91E0F92E86E5AD
:1003500091E00E943C0D892B59F08BE591E00E94C1
:10036000990E8EEB93E066E571E00E94252004C0B3
:1003700087E791E00E94990E87EC93E00E94AB0C16
:10038000BC01C8010E9425208DE891E0B80142E13E
:1003900050E00E94DF00C8010E94D20C009761F378
:1003A000A7ECB3E0FC0186E001900D928150E1F7EB
:1003B0006091D9037091DA038091DB039091DC03A3
:1003C0000E94F50BBC01C8010E94252089E991E03B
:1003D000B80140E150E00E94DF00C8010E94A30B79
:1003E0006F3F2FEF72072FEF82072FEF920701F376
:1003F0006093D9037093DA038093DB039093DC035B
:100400006091D1037091D2038091D3039091D40372
:100410000E94F50BBC01C8010E94252084EA91E0EE
:10042000B80140E150E00E94DF00C8010E94A30B28
:100430006F3FEFEF7E07EFEF8E07EFEF9E0701F3C1
:100440006093D1037093D2038093D3039093D4032A
:100450006091D5037091D6038091D7039091D80312
:100460000E94F50BBC01C8010E9425208CEA91E096
:10047000B80140E150E00E94DF00C8010E94A30BD8
:100480006F3FFFEF7F07FFEF8F07FFEF9F0701F33E
:100490006093D5037093D6038093D7039093D803CA
:1004A00000D0EDB7FEB7F282E1820E94800E0F907D
:1004B0000F9002C00E94550E0E945C0E892BD1F74E
:1004C0000E94550E833711F0833551F40E94280D98
:1004D000892B19F089ED91E005C080EE91E002C012
:1004E00086EE91E00E94990E32CF00D080EF91E02D
:1004F000EDB7FEB7928381830E94800E0F900F901C
:100500008BEF91E00E94990E00D086E092E0EDB76B
:10051000FEB7928381830E94800E0F900F9081E13D
:1005200092E00E94990E089590912B0280932B02E5
:10053000892F08950E944E0986E292E06CE571E0F1
:1005400040E050E020E033E00E94E4138EEF0E9490
:10055000DE050E945E060E94A60520912B022F3F19
:10056000C1F395B785B7837E822B85BF85B780623F
:1005700085BF889585B78F7D85BF85B79C71837E44
:10058000982B95BFE6CFCF93DF93DC016E5F7F4F53
:100590006430710510F464E070E06F5F7F4F6E7F30
:1005A000ED91FC911197AD01A0E0B0E0C0E0D0E08A
:1005B0001BC0208131812617370780F0109731F05A
:1005C0008D919C9111972817390740F4261737070A
:1005D00019F4DF01EA010DC0DF01EA01AF014E5F4E
:1005E0005F4F0280F381E02D309719F79D0110973E
:1005F000F1F08D919C911197861B970B12962D917E
:100600003C9113978430910568F0FD01E60FF71FC8
:10061000918380833383228311967C936E93F98335
:10062000E88302C0398328839D012E5F3F4FC901B3
:10063000DF91CF910895CF93DF93EC0161157105A0
:1006400019F42DEF3FEF5FC0DB011297E881F981CC
:100650004FC020813181CF01820F931F8A179B07E2
:10066000E9F46D917C91620F731F71836083DF01E8
:10067000A60FB71F82819381A817B90709F041C05F
:100680008D919C911197680F791F718360831296E9
:100690008D919C9113979383828333C0AE17BF07CC
:1006A000E0F4B983A8834D915C911197CD01840F3B
:1006B000951F8E179F0761F4240F351F11963C93E9
:1006C0002E938281938113969C938E93129719C0D7
:1006D0001396FC93EE93129714C0A817B90718F459
:1006E0002FEF3FEF10C0EF0122960280F381E02D43
:1006F000309709F0AECF13961C921E921297B983D1
:10070000A88320E030E0C901DF91CF9108956F5FA9
:100710007F4FFB01EE7F61507040640F751F6E1BB1
:100720007F0B6E7F61937193BF010E941B0308953D
:10073000FC010190F081E02D20E030E008C08081D4
:1007400091810297280F391F0280F381E02D3097A5
:10075000B1F7C9010895FC010190F081E02D20E07E
:1007600030E009C0808191812817390708F49C0185
:100770000280F381E02D3097A9F722503040C90163
:10078000089580E090E00895EF92FF920F931F93F9
:10079000CF93DF938C01C0919603D09197038CE2A5
:1007A000E82E82E0F82E26C08DB79EB708970FB6C8
:1007B000F8949EBF0FBE8DBFEDB7FEB73196ADB7B3
:1007C000BEB712961C930E931197F382E282D583E3
:1007D000C48388819981978386830E946F0E0A80E3
:1007E000DB81C02D8DB79EB708960FB6F8949EBFDB
:1007F0000FBE8DBF2097C1F6DF91CF911F910F9152
:10080000FF90EF900895AF92BF92CF92DF92EF9258
:10081000FF920F931F93CF93DF936C017B016115C0
:10082000710529F4BA010E94C3027C018FC04115F1
:10083000510531F40E941B03892B09F487C061C064
:100840008B01025010404E5F5F4F4430510510F451
:1008500044E050E0EA012196CE7FF8012081318109
:100860002C173D0708F05FC0F601A081B181560149
:1008700009C092E0A92EB12CAA0EBB1E12960D90B3
:10088000BC91A02D1097B1F1A017B10790F36AC0E9
:10089000C801820F931F8A179B0761F5CA01861B47
:1008A000970B0497D0F0260F371FE8013983288370
:1008B000FD01E60FF71FE501F983E88312968D919C
:1008C0009C91139793838283E881F9818D919C9108
:1008D000861B970B9183808339C0420F531FF80109
:1008E0005183408312968D919C911397E5019983D2
:1008F00088832CC0C601BE010E94C302EC01009790
:1009000019F4EE24FF2422C0F80120813181225005
:100910003040B701A9010E940C20C601B7010E9416
:100920001B037E0113C0C9010497C817D90770F4CF
:100930002C1B3D0BF801EC0FFD1F21933193C601D9
:10094000BF010E941B03F801D183C083C701DF915F
:10095000CF911F910F91FF90EF90DF90CF90BF90BC
:10096000AF900895BE01621B730B4D915C9111977E
:100970004617570708F08CCFBDCF0F931F93CF9327
:10098000DF93162F072F0E94C302EC01009731F06E
:1009900060E070E0412F502F0E941520CE01DF91C2
:1009A000CF911F910F910895CF93DF93DC01EB015D
:1009B00058967C936E93579715961C921E92149797
:1009C0000FB6F8940F92E881F9818FEFEF3FF807A7
:1009D00061F414968D919C911597019615969C93B0
:1009E0008E931497E0E0F0E015C0309799F00F90E7
:1009F0000FBE52969C91529707C0EF01229602803B
:100A0000F381E02D309719F082899817B0F70FB66F
:100A1000F8940F921396FC93EE931297B983A883E0
:100A20001296ED91FC911397309791F08481958106
:100A3000892B71F014962D913C91159784819581A5
:100A4000820F931F15969C938E9314971582148290
:100A50000F900FBEDF91CF910895CF93DF93DC010C
:100A6000EB010FB6F8940F92E881F9810F900FBE59
:100A70008FEFEF3FF80799F534C0EA17FB0751F500
:100A80000FB6F8940F9212968D919C9113979983BB
:100A9000888314968D919C911597892B81F01296DD
:100AA000ED91FC911397309731F014968D919C91B4
:100AB00015979583848315961C921E9214970F9018
:100AC0000FBE13961C921E92129758961C921E925D
:100AD000579707C0EF0122960280F381E02D3097EF
:100AE00061F6DF91CF910895FB01168A158A82E0A5
:100AF0008787CB016AE973E00E94D40408950F93BD
:100B00001F93CF93DF938C010097B1F0C0919803AE
:100B1000D09199030CC0CE010696B8010E941C200A
:100B2000009711F49E010CC00990D881C02D209728
:100B300091F720E030E004C020919C0330919D03A8
:100B4000C901DF91CF911F910F910895E0919E030C
:100B5000F0919F03309751F06389748986E993E09F
:100B60000E941B0310929F0310929E030895CF933F
:100B7000DF93C0919803D09199030E94A6054091FC
:100B80009C0350919D03E8E9F3E00BC02881398173
:100B9000C417D50719F42083318305C0FE01C901AC
:100BA000EC01209799F780919C0390919D0390937D
:100BB0009F0380939E03DF91CF9108950F931F931E
:100BC000182FE0919C03F0919D030289CF016AE9FF
:100BD00073E00E942D05E0919C03F0919D03128B20
:100BE0001F3F31F0CF016AE973E00E94D40402C0D4
:100BF0000E94B705E0919C03F0919D0380919A03B8
:100C000090919B03E817F90719F481E0878709C0E1
:100C100082E087870FB6F8940F920E94A9130F9075
:100C20000FBE802F1F910F9108958FEF0E94DE0558
:100C30000895CF93DF93C0919803D091990320C07A
:100C40000FB6F8940F928C819D810F900FBE892B67
:100C5000A1F0EF89F88D0FB6F8940F928C819D81E9
:100C600001979D838C830F900FBE808191818F5F50
:100C70009F4F19F0CF010E94C6090990D881C02D5D
:100C80002097F1F60E94C008E0919C03F0919D032B
:100C900080919A0390919B03E817F90761F087858B
:100CA000813011F482E087870FB6F8940F920E948A
:100CB000A9130F900FBEDF91CF910895E0919C038F
:100CC000F0919D0382819381892B69F0CF016AE9BC
:100CD00073E00E942D0580919C0390919D036AE929
:100CE00073E00E94D4040E94190608958091A6031F
:100CF0009091A703A091A803B091A9030196A11D0B
:100D0000B11D8093A6039093A703A093A803B0936B
:100D1000A90308952091A0033091A1034091A2035B
:100D20005091A3030E94951F28EE33E040E050E06D
:100D30000E94C01FC901DA0104C000000197A10987
:100D4000B1090097A105B105C1F7089590E0A0E0B1
:100D5000B0E0BC01CD0128EE33E040E050E00E945D
:100D6000951F0E948A060895CF93DF93EC011B82A2
:100D70001A82E091A403F091A50323C02885398548
:100D80004A855B8580859185A285B38528173907BB
:100D90004A075B0748F4821B930BA40BB50B8087B3
:100DA0009187A287B3870FC0281B390B4A0B5B0BB7
:100DB000288739874A875B87FB83EA830190F08124
:100DC000E02D3097D9F6F983E883309711F0D3837B
:100DD000C283EA81FB81309719F0D183C08304C0BC
:100DE000D093A503C093A403DF91CF910895CF932F
:100DF000DF93FC01148215821682178215861486F1
:100E000080859185A285B3850097A105B10561F123
:100E1000A281B38180819181109719F08D939C9369
:100E200004C09093A5038093A403C081D18120972F
:100E3000A1F0828193819B838A8388859985AA8585
:100E4000BB852085318542855385820F931FA41F62
:100E5000B51F88879987AA87BB8710861186128657
:100E60001386CF010E94B406DF91CF9108950FB68B
:100E7000F8940F922091A6033091A7034091A80304
:100E80005091A9030F900FBEB901CA010895609156
:100E90004F0370915003809151039091520361155B
:100EA00071058105910569F480E090E00E94841449
:100EB000906860934F037093500380935103909315
:100EC00052039B01AC015F77B901CA0108951092EA
:100ED0004F0310925003109251031092520380E07E
:100EE00090E008952F923F924F925F926F927F927F
:100EF0008F929F92AF92BF92CF92DF92EF92FF922A
:100F00000F931F930FB6F8940F92E090A603F09002
:100F1000A7030091A8031091A9030F900FBE0E9490
:100F20008D149B01AC01C801B7010E94C01F522E55
:100F3000432E342E252E0E948D145B016C010E94DD
:100F40008D143B014C01652D742D832D922DA6012E
:100F500095010E94951FE61AF70A080B190BC801A4
:100F6000B70128EE33E040E050E00E94951FA40155
:100F700093010E94C01F79018A01652D742D832D74
:100F8000922D28EE33E040E050E00E94951FE60EDF
:100F9000F71E081F191FB701C8011F910F91FF907D
:100FA000EF90DF90CF90BF90AF909F908F907F9009
:100FB0006F905F904F903F902F900895EF92FF9227
:100FC0000F931F930FB6F8940F92E090A603F09042
:100FD000A7030091A8031091A9030F900FBE0E94D0
:100FE0008D149B01AC01C801B7010E94C01FCA014A
:100FF000B9011F910F91FF90EF900895AF92BF92AA
:10100000CF92DF92EF92FF920F93CF93DF936B011A
:101010007C01EA01590186E993E060E170E00E94F9
:10102000C302FC01009781F10FB6F8940F928091F2
:10103000A6039091A703A091A803B091A9030F90D4
:101040000FBE20914B0330914C0340914D035091C2
:101050004E03821B930BA40BB50B8C0D9D1DAE1D77
:10106000BF1D80879187A287B38700FF05C01482C8
:1010700015821682178204C0C482D582E682F78266
:10108000D587C487B786A686CF01DF91CF910F9110
:10109000FF90EF90DF90CF90BF90AF9008950F93A7
:1010A000CF93DF930E94FE07EC01009711F00E949E
:1010B000B406CE01DF91CF910F910895CF92DF92C8
:1010C000EF92FF920F937A0169010E949214A70197
:1010D00096010E944F080F91FF90EF90DF90CF9004
:1010E0000895AF92BF92CF92DF92EF92FF920F934B
:1010F000CF93DF935B016C0161157105810591054B
:1011000099F1CAE9D3E080919C0390919D03BE01BF
:101110000E942D05E0909C03F0909D0383E0F70171
:101120008787C601B50144E755E0970101E00E94B9
:101130005E08F701968B858B892B19F00E941906A2
:1011400015C0E0919C03F0919D03D08FC78B8091D7
:101150009A0390919B039383828381E08787F09326
:101160009B03E0939A0302C00E945E06DF91CF9139
:101170000F91FF90EF90DF90CF90BF90AF900895C8
:10118000EF92FF920F931F93CF93DF930FB6F894D4
:101190000F922091A6033091A7034091A80350918C
:1011A000A9030F900FBE80914B0390914C03A09127
:1011B0004D03B0914E0379018A01E81AF90A0A0B2E
:1011C0001B0B20934B0330934C0340934D035093E0
:1011D0004E0351C088859985AA85BB85E816F90616
:1011E0000A071B0760F48E199F09A00BB10B8887B3
:1011F0009987AA87BB87EE24FF24870108C0E81AD5
:10120000F90A0A0B1B0B188619861A861B86888515
:101210009985AA85BB850097A105B10561F5EC8587
:10122000FD85309721F06E857F85CE010995E0918F
:10123000A403F091A5030190F081E02DF093A503A4
:10124000E093A403309711F0138212828C819D8168
:10125000AE81BF8188879987AA87BB870097A10540
:10126000B10531F486E993E0BE010E941B0303C07F
:10127000CE010E94B406C091A403D091A50320978B
:1012800031F0E114F1040105110509F0A3CFDF915C
:10129000CF911F910F91FF90EF900895CF92DF9221
:1012A000EF92FF920F931F9386E796E00E94C0147F
:1012B00087B7826087BF0FB6F8940F922091A6037C
:1012C0003091A7034091A8035091A9030F900FBE3E
:1012D0000FB6F8940F928091A6039091A703A09166
:1012E000A803B091A9030F900FBE281739074A072A
:1012F0005B0771F30FB6F8940F92E090A603F0909D
:10130000A7030091A8031091A9030F900FBE20918D
:10131000A0033091A1034091A2035091A3030FB603
:10132000F8940F928091A6039091A703A091A8032F
:10133000B091A9030F900FBEF901D42EC52E2F5FD7
:101340003F4F4F4F5F4FE816F9060A071B0739F367
:10135000BF018D2D9C2D27E630E040E050E00E943B
:10136000951F2AE130E040E050E00E94C01F20932A
:10137000A0033093A1034093A2035093A3031F91B2
:101380000F91FF90EF90DF90CF900895CF93DF9370
:10139000DC010FB6F8940F92CD91DC9111970F906C
:1013A0000FBE8FEFCF3FD80709F43AC0209771F1F5
:1013B0000FB6F8940F92EA81FB811196FC93EE939D
:1013C0008C819D81892B71F0309729F08C819D81D2
:1013D0009583848305C08FEF9FEF11969C938E9326
:1013E0001D821C820F900FBE8D899E89009721F06F
:1013F0000E94F7061E8A1D8A82E08F87CE016AE965
:1014000073E00E94D40421E030E00CC00FB6F894E1
:101410000F928FEF9FEF11969C938E930F900FBEBC
:1014200020E030E0C901DF91CF9108950F931F9321
:10143000CF93DF938C010FB6F8940F92FC0180815B
:1014400091810F900FBEFFEF8F3F9F0749F40FB6BA
:10145000F8940F92F801118210820F900FBE02C013
:10146000892B19F4C0E0D0E013C0C0E0D0E0C8017F
:101470000E94C609C80FD91F0FB6F8940F92F80141
:10148000808191810F900FBE01978E5F9F4F78F3FF
:10149000CE01DF91CF911F910F9108950F931F936C
:1014A0000E94160A182F092F0E945E06812F902F86
:1014B0001F910F9108950F931F930E94C609182F33
:1014C000092F0E945E06812F902F1F910F91089582
:1014D000CF93DF93AC01DB010FB6F8940F92CD915F
:1014E000DC9111970F900FBE8FEFCF3FD80799F582
:1014F00034C08D899E892A813B818417950741F5E7
:101500000FB6F8940F9211963C932E938C819D8187
:10151000892B81F0EA81FB81309729F08C819D81B4
:101520009583848305C08FEF9FEF11969C938E93D4
:101530001D821C820F900FBE82E08F87CE016AE968
:1015400073E00E94D4048FEF9FEF9E8B8D8B05C0BC
:10155000DE011296E901209761F6DF91CF9108959F
:10156000CF92DF92EF92FF920F931F93CF93DF936F
:101570008C016A017B010FB6F8940F92FC01808107
:1015800091810F900FBE8F5F9F4F59F40FB6F89463
:101590000F92F801118210820F900FBE0E945E061A
:1015A00032C080919C0390919D036AE973E00E9490
:1015B0002D0580919C0390919D03B8010E94D40455
:1015C000C0919C03D0919D0383E08F87C114D10407
:1015D000E104F10459F0C701B60148E65AE0980168
:1015E00001E00E945E089E8B8D8B02C01E8A1D8AC0
:1015F0000E941906E0919C03F0919D0385899689CC
:101600008F5F9F4F19F020E030E004C0168A158AE2
:101610002FEF3FEFC901DF91CF911F910F91FF9005
:10162000EF90DF90CF900895FC010FB6F8940F92E1
:10163000808191818F5F9F4F11F4118210820F90F2
:101640000FBECF010E94B00A08950F931F93CF934E
:10165000DF938C01C0915303D09154030AC0CE0193
:101660000296B8010E941C20009729F00990D881A9
:10167000C02D2097A1F7CE01DF91CF911F910F913F
:101680000895CF93DF93EC016115710511F07D870B
:101690006C8741114E87CE0102960E94250B892B43
:1016A000A9F4EB89FC89309721F0CE010995892BAB
:1016B00069F4809153039091540399838883D09364
:1016C0005403C093530320E030E002C02FEF3FEFFC
:1016D000C901DF91CF91089583E18093AA038FE43C
:1016E00093E59093AC038093AB0380E090E06AEACB
:1016F00073E043E150E00E945C1F089580E090E0B9
:101700006AEA73E043E150E00E945F1F892B89F48D
:101710008091AA03833169F48BEA93E064E372E079
:1017200042E050E00E94FF1F009719F420E030E0F3
:1017300008C08DEA93E067E372E00E9425202FEF56
:101740003FEFC9010895DF93CF9300D000D0CDB70C
:10175000DEB7FC0119821A821B821C82DE011196FF
:1017600040E0808180538A3098F520E030E0C90164
:1017700063E0880F991F6A95E1F7220F331F820FEC
:10178000931F2191332727FD309520533040280F98
:10179000391F808180333CF08A332CF42F3F310590
:1017A00031F328F315C02F3F310509F088F44F5F5E
:1017B0002C9380818E3239F0443051F429813A8162
:1017C0004B815C8109C0443019F011963196C9CF24
:1017D0002FEF3FEF4FEF5FEFB901CA010F900F906E
:1017E0000F900F90CF91DF910895AF92BF92CF925B
:1017F000DF92EF92FF920F931F93DF93CF93CDB7BA
:10180000DEB727970FB6F894DEBF0FBECDBF6C834F
:101810007D838E839F83E4E0EE2EF12CEC0EFD1E83
:1018200007E613E06E010894C11CD11C5EE277E06C
:10183000A72EB12CAC0EBD1ED7014C9130E0842FE9
:101840006AE00E94B41F292F842F0E94B41F482FE2
:10185000F601E30FF11D205D20833F5F882379F7B8
:10186000932FF7011082D80106C03150F601E30F23
:10187000F11D80818D933323C1F7F801E90FF11D2C
:10188000DF015D938D01EA14FB0421F00894E11C53
:10189000F11CD2CF108287E693E027960FB6F8941A
:1018A000DEBF0FBECDBFCF91DF911F910F91FF9093
:1018B000EF90DF90CF90BF90AF900895DF93CF93DC
:1018C000CDB7DEB760970FB6F894DEBF0FBECDBFC1
:1018D0009C01DE011196E0E4F2E080E101900D92BE
:1018E0008150E1F7A901A5E5B3E020E030E0BE01B9
:1018F0006F5F7F4F9AE3FA01808182958F70FB01C1
:10190000E80FF11D80818C93FA0180818F70FB01BB
:10191000E80FF11D808111968C93119725303105C8
:1019200021F012969C93129703C012961C92129764
:101930002F5F3F4F4F5F5F4F139626303105D9F62B
:1019400085E593E060960FB6F894DEBF0FBECDBF7D
:10195000CF91DF910895CF93DF93EC01A7E7B3E038
:101960009AE3E881E295EF70F0E0EF5AFD4F808155
:101970008C93E991F0E0EF70F070EF5AFD4F8081A9
:1019800011968C93119712969C931297139683E05D
:10199000A938B80731F710928803CD014297DF913B
:1019A000CF910895E9E8F3E026E0DF011D922A9542
:1019B000E9F7DC0142C090330CF446C0892F8A530A
:1019C000873008F441C08D508A31F0F19736E4F544
:1019D00080818031C8F5282F2295207F20839C911B
:1019E000892F80538A3030F4892F992787FD90956D
:1019F000C09717C0892F8156863038F4892F9927D0
:101A000087FD9095875590400CC0892F8154863072
:101A100018F080E090E005C0892F992787FD909508
:101A2000C797282B208311968C918A3331F43196F5
:101A300083E0EF38F80741F011969C91992309F063
:101A4000BACF29E833E002C020E030E0C9010895B0
:101A500080E28093BD0380E490E06DEB73E040E2B0
:101A600050E00E945C1F892B19F420E030E002C096
:101A70002FEF3FEFC9010895CF93DF93EC0180E48E
:101A800090E06DEB73E040E250E00E945F1F892B15
:101A9000E9F48091BD03803251F48EEB93E0BE01F6
:101AA0000E941C20009719F420E030E011C0EDEBFB
:101AB000F3E080E2DF011D928A95E9F7CF010A96F3
:101AC0006FEF70E046E050E00E9415202FEF3FEFEF
:101AD000C901DF91CF910895CF93DF93DC01129676
:101AE000CD91DC911397209729F41B96ED91FC91F1
:101AF0001C9703C0ED89FE89CE010995DF91CF9136
:101B00000895FC01808191810895CF92DF92EF9238
:101B1000FF920F931F93CF93DF936C01CB010E9431
:101B2000F8127C012FEF8F3F920709F440C0E8E6DE
:101B3000F2E003E010E00DC00F5F1F4F3296083057
:101B4000110539F487E190E09093DE038093DD0383
:101B50002EC080819181892B79F787E090E00E94E7
:101B6000C30EEC01000F111F0E591D4FD801CD936C
:101B7000DC932097E1F0C601B7010E94D30E998350
:101B80008883D801ED91FC918F5F9F4F39F4CF018D
:101B90000E94BD0EF8011182108209C0F382E28218
:101BA0001482D801ED91FC911682158202C0E0E00A
:101BB000F0E0CF01DF91CF911F910F91FF90EF9057
:101BC000DF90CF9008959F92AF92BF92CF92DF9215
:101BD000EF92FF920F931F93CF93DF935C01CB01A2
:101BE000EA010E94F8126C012FEF8F3F920781F4F7
:101BF0004DC00894E11CF11C329688E0E816F1040F
:101C000059F489E090E09093DE038093DD033EC0B9
:101C1000E2E6F2E0EE24FF24808191818C179D079B
:101C200041F787E090E00E94C30EEC018701000FAE
:101C3000111F0E591D4FD801CD93DC93209731F120
:101C4000C501B6010E94D30E99838883D801ED9116
:101C5000FC918F5F9F4F89F4CF010E94BD0EE2E09F
:101C6000EE1538F00894E11CF11CD801ED92FC92BD
:101C70000DC0F8011182108209C0D382C282148281
:101C8000D801ED91FC911682158202C0E0E0F0E0EF
:101C9000CF01DF91CF911F910F91FF90EF90DF90D7
:101CA000CF90BF90AF909F900895809162029091E5
:101CB00063020E942C130895809162029091630246
:101CC0000E94810D0E94BB1220E030E0161617061C
:101CD0001806190614F421E030E0C9010895DF93D5
:101CE000CF93CDB7DEB79E01275F3F4F8D819E8199
:101CF0006F817885A9010E94B20ECF91DF9108957E
:101D0000DF93CF93CDB7DEB7FE0135966191719128
:101D10008091640290916502AF010E94B20ECF9152
:101D2000DF91089560916402709165020E946013D2
:101D3000089560916402709165020E947E139C0177
:101D40002F5F3F4F19F42FEF3FEF0AC060916402FD
:101D5000709165028AE090E00E94601320E030E01C
:101D6000C9010895FC01DB019A016081718189EA52
:101D700092E1AD010E945A0F0895BC0186E993E0FB
:101D80000E941B030895BC0186E993E00E94C302F0
:101D90009C01009731F48CE090E09093DE038093F7
:101DA000DD03C9010895DF92EF92FF920F931F9315
:101DB000DF93CF93CDB7DEB729970FB6F894DEBF88
:101DC0000FBECDBFD82E7B01FE013196282F392FB3
:101DD0008901AE01475F5F4F03C081930F5F1F4FC3
:101DE000202F2D19D8018C91882329F08A3319F0DE
:101DF000E417F50791F7CE010196FC01E20FF11D02
:101E000010820E94250BDC01009749F482E090E0EB
:101E10009093DE038093DD032FEF3FEF14C0F801B2
:101E200080818A3319F060E070E003C0B8016F5F11
:101E30007F4F5D96ED91FC915E97CD01A70120E06B
:101E400030E009959C01C90129960FB6F894DEBFD0
:101E50000FBECDBFCF91DF911F910F91FF90EF90FB
:101E6000DF900895CF92DF92EF92FF920F931F932E
:101E7000CF93DF936C018B017A01E90107C0C801A0
:101E8000B70140E150E0F60109956097C131D105F5
:101E9000B4F71C161D062CF4C801B701AE01F601FB
:101EA0000995DF91CF911F910F91FF90EF90DF90F7
:101EB000CF9008952F923F924F925F926F927F92B0
:101EC0008F929F92AF92BF92CF92DF92EF92FF924A
:101ED0000F931F93DF93CF93CDB7DEB76D970FB6F8
:101EE000F894DEBF0FBECDBF998F888F7B8F6A8F2E
:101EF0001A0149011D8A1C8A9E012E5E3F4F3D8FAB
:101F00002C8FB10103C00894211C311CD101FC901D
:101F1000FF2019F0B5E2FB16B1F78101061B170B84
:101F200061F08A8D9B8DA801E88DF98D09952C892A
:101F30003D89200F311F3D8B2C8BFF2009F4EEC211
:101F40000894211C311C19821E8A442455246624BD
:101F50006A94762CD101BD901D01B0E2BB1621F42C
:101F600089818823B9F703C0EBE2BE1611F4B98268
:101F7000F1CFFDE2BF1621F42E8924602E8BEACF2B
:101F800033E2B31621F44E8941604E8BE3CF80E3F8
:101F9000B81621F49E8990619E8BDCCFACE6BA1610
:101FA00021F4BE89B860BE8BD5CFEAE7BE1691F2A8
:101FB000FAE2BF1681F4C4010296D4014D905C9000
:101FC00057FE07C0BE89B460BE8B5094419451083F
:101FD00053944C01BFCFEEE2BE1691F5D1018C9126
:101FE0008A3219F06624772422C00894211C311CFF
:101FF000F4016080718022E030E0820E931E1DC0EB
:10200000C301E3E0880F991FEA95E1F7660C771C9E
:10201000860D971D622E772467FC7094A0EDBFEFAC
:102020006A0E7B1E680E791E0894211C311CF1017A
:102030002081822F80538A3018F377FE8BCF87CF91
:102040008B2D8153893028F54B2C552420ED3FEF03
:10205000420E531E17C0C20163E0880F991F6A9594
:10206000E1F7440C551C840D951D422E552447FC68
:102070005094A0EDBFEF4A0E5B1E480E591E089407
:10208000211C311CF1012081822F80538A3018F3EA
:1020900061CFF401BF8A27E62B15E8F035E6B316C9
:1020A00008F0B0C140E5B416C1F14B1548F085E425
:1020B000B81609F4A7C197E4B91609F0A7C1A2C1DF
:1020C000A3E6BA1611F1AB1508F475C0B8E5BB1656
:1020D00009F09CC138C120E7B21609F434C12B15B0
:1020E00048F039E6B31609F466C04FE6B41609F0B5
:1020F0008DC1D9C08F89853709F45CC0883709F450
:1021000022C1833709F082C128C0A2E0B0E08A0E64
:102110009B1E80818A8319827FC122E030E0820E7B
:10212000931EE080F180E114F10439F442E7C42EFB
:1021300042E0D42E33E73F8B1DC0C7010E94E91F48
:1021400001960E94C30E182F092FB7010E94E21FAB
:10215000212F302FC9016C0106C082E090E0880E6B
:10216000991EC080D180C114D10421F432E7C32E5E
:1021700032E0D32E77FC0FC0C60160E070E0A3010F
:102180000E94F21F009789F08C010C191D0960163E
:1021900071065CF00BC0D6010D900020E9F78D01AF
:1021A000015010400C191D0901C083011982EE2451
:1021B000FF243BC11982BE89B3FF09C024E030E08F
:1021C000820E931EE080F1800281138113C0C4014E
:1021D0000296D4012D913C91B5E7BB1629F44C0130
:1021E000790100E010E015C04C0179010027F7FCEF
:1021F0000095102FE5E7BE1661F017FF0AC0109595
:102200000095F094E094E11CF11C011D111DFDE20C
:10221000F98377FC03C02E892F7E2E8BE114F10405
:102220000105110549F46114710461F422E1C22E23
:10223000D12CCC0EDD1E31C03AE0E316F1040105CD
:10224000110548F491E1C92ED12CCC0EDD1E8E2D46
:10225000805D898B22C082E1C82ED12CCC0EDD1E80
:10226000C801B7012AE030E040E050E00E94C01F02
:10227000605DD6016E936D01C801B7012AE030E0C0
:1022800040E050E00E94C01FC901DA017C018D01CD
:10229000E114F1040105110519F70C8D1D8D0C19C0
:1022A0001D09BF8AADC0BE89B3FF09C024E030E07C
:1022B000820E931E608171818281938109C082E0C8
:1022C00090E0880E991E80819181BC0180E090E0B1
:1022D000198277FC03C0AE89AF7EAE8B61157105A4
:1022E0008105910549F46114710431F4B2E1CB2EFA
:1022F000D12CCC0EDD1E20C0A2E1CA2ED12CCC0EDA
:10230000DD1E262F2770205DF60122936F01F3E07A
:102310009695879577956795FA95D1F7611571052B
:102320008105910571F7FE89F0FF06C0203321F089
:10233000D601E0E3EE936D010C8D1D8D0C191D0986
:10234000FFE6FF8B5DC020E7B21679F482E090E0F3
:10235000880E991E808191819C0140E050E09E8909
:1023600091609E8BA8E7AF8B16C0BE89B3FF09C0F2
:1023700024E030E0820E931E20813181428153811E
:1023800009C082E090E0880E991E808191819C01B5
:1023900040E050E0BF8A77FC03C09E899F7E9E8B01
:1023A000AF89A83519F069E772E002C06AE872E007
:1023B0001982E2E1CE2ED12CCC0EDD1EF901EF7098
:1023C000F070E60FF71F8081F60182936F0194E0B1
:1023D00056954795379527959A95D1F7211531054B
:1023E0004105510559F7FE89F0FF06C0D601EF8976
:1023F000EE93E0E3EE936D010C8D1D8D0C191D091C
:10240000730113C024E030E0820E931EBB2009F458
:1024100085C0BA821982BF8A82E0C82ED12CCC0E28
:10242000DD1EEE24FF2401E010E058010E151F050B
:102430000CF457018981882319F00894A11CB11C60
:102440009E89892F90E09B8B8A8B3C01A4E16A22B4
:1024500077246114710459F492012A193B09888D7B
:10246000998D6A8D7B8D4BE952E00E94320F8981F4
:10247000882351F08A8D9B8DBE016F5F7F4F41E0B5
:1024800050E0E88DF98D0995F0E16F16710459F46B
:1024900092012A193B09888D998D6A8D7B8D4BEAB3
:1024A00052E00E94320FE01AF10A888D998D6A8DF0
:1024B0007B8D4BEA52E097010E94320F0115110506
:1024C00041F08A8D9B8DB601A801288D398DF901C7
:1024D00009953F89303519F4C6010E94BD0E4A891D
:1024E00042FF0BC092012A193B09888D998D6A8D94
:1024F0007B8D4BE952E00E94320F4A145B043CF0A2
:102500008C899D89840D951D9D8B8C8BFACCAC8913
:10251000BD89AA0DBB1DBD8BAC8BF3CC8C899D896D
:102520006D960FB6F894DEBF0FBECDBFCF91DF9191
:102530001F910F91FF90EF90DF90CF90BF90AF90E1
:102540009F908F907F906F905F904F903F902F90D3
:102550000895DC011296ED91FC911397309731F4B8
:102560001796ED91FC91189709950895018CF28DBD
:10257000E02D09950895DF93CF9300D000D0CDB71B
:10258000DEB7FC01A281B381109799F423853485CD
:1025900021153105A9F06AE070E0AE014F5F5F4F91
:1025A000F9010995892B61F429813A814B815C817C
:1025B00016C091962D913C9192972115310559F4B1
:1025C00089E090E09093DE038093DD032FEF3FEFEF
:1025D0004FEF5FEF04C0F90109959B01AC01B90110
:1025E000CA010F900F900F900F90CF91DF91089537
:1025F000FC018081823751F0873719F08136C9F4A8
:102600000AC081E093E042E053E009C080E090E03E
:1026100042E050E004C089E091E04AE051E060E02F
:1026200070E411C02B3271F0223619F460E070E8CA
:102630000AC086E190E09093DE038093DD032FEFE4
:102640003FEF08C0CA0131962081222359F79B0130
:10265000282B392BC90108950F931F93DF93CF9334
:102660000F92CDB7DEB78C01FC01848183FF05C0DA
:10267000877F8483258136811CC0F8018081918108
:10268000BE016F5F7F4F41E050E00E948E138130AA
:10269000910561F0F8012481892B11F0206102C0BD
:1026A0002062F80124832FEF3FEF03C08981282F98
:1026B00030E0C9010F90CF91DF911F910F910895E4
:1026C0000F931F93DF93CF930F92CDB7DEB78C019B
:1026D000FB01898380819181BE016F5F7F4F41E063
:1026E00050E00E94A912019711F00FEF1FEFC801EF
:1026F0000F90CF91DF911F910F9108959C01D90107
:102700000D900020E9F71197A21BB30BFB0180810C
:102710009181B901AD010E94A9120895DC011296C0
:10272000ED91FC911397309731F41596ED91FC9152
:102730001697099508950788F08DE02D099508955D
:1027400008959F918F910F900BBE0F900FBE1F9019
:1027500018952F923F924F925F926F927F928F9235
:102760009F92AF92BF92CF92DF92EF92FF920F9320
:102770001F93CF93DF938DB79EB7E0919C03F091A9
:102780009D03918B808BE0919A03F0919B03F093D2
:102790009D03E0939C0381E08787808991898DBFA9
:1027A0009EBFDF91CF911F910F91FF90EF90DF902F
:1027B000CF90BF90AF909F908F907F906F905F90E1
:1027C0004F903F902F900895AF92BF92CF92DF929B
:1027D000EF92FF920F931F93CF93DF93F82EE92E82
:1027E0006B01B42EA52EE901B901675E7F4F86E922
:1027F00093E00E94C302FC01009719F420E030E04E
:1028000077C0C80FD91FAE0147505040BE016B5171
:1028100070408E010A5F1F4F8F2D9E2D9C0188E016
:10282000D9010D909D01D8010D928D018150C1F704
:102830001E8661507040798B688B6F5F7F4FFC8B79
:10284000EB8B8FEE9EEBADEABEED80839183A2838E
:10285000B38384839583A683B78380879187A28778
:10286000B38784879587A687B78780E48A8BFA0128
:10287000D582C68280E8838312821482B182A082CC
:1028800081EA93E1DB0152969C93529753968C9385
:10289000809198039091990399838883D0939903A9
:1028A000C093980382E08F871E8A1D8A188E1F8A24
:1028B000CE016AE973E00E94D404E0919C03F09198
:1028C0009D03309721F40FB6F8940F925CCF80915E
:1028D0009A0390919B03E817F90749F082E08787F4
:1028E0000FB6F8940F920E94A9130F900FBE9E018D
:1028F000C901DF91CF911F910F91FF90EF90DF9071
:10290000CF90BF90AF90089560918F037091900326
:102910008091910390919203089560E074E080E0CB
:1029200090E00895603020E872072EE3820720E0EF
:10293000920770F028EE33E040E050E00E94C01FA4
:102940006AE0220F331F441F551F6A95D1F715C047
:102950002AE0660F771F881F991F2A95D1F76951C2
:102960007C4F8F4F9F4F28EE33E040E050E00E94B5
:10297000C01FC901DA019C01AD01B901CA01089566
:10298000BC0187B78D7F87BF80B7886080BF12BECC
:1029900082E083BF80B790E087709070892BD1F779
:1029A00081E086BF0FB6F8940F9281E090E0A0E03E
:1029B000B0E0B6B7B170E9F3B6BF0894811D911DC0
:1029C000A11DB6B7B170C9F3BB270F900FBEE7E0EA
:1029D000880F991FAA1FBB1FEA95D1F780938F0319
:1029E00090939003A0939103B093920387B78D7F48
:1029F00087BF80B7886080BF12BE89E083BF8FE148
:102A000081BF80B790E087709070892BD1F782E00A
:102A100086BF8BEB92E040E050E00E94261A0895BA
:102A20009C01FB0147B7427087B78D7F87BF20317C
:102A30003105D1F0213131053CF42115310581F00A
:102A40002130310551F40DC02231310569F12231B7
:102A50003105DCF020323105D9F02FEF3FEF1EC0F9
:102A600040E082E086BF18C006B601FE05C081E0E6
:102A700090E09183808302C0118210824423A1F0F0
:102A80008081918180689183808320E030E008C05C
:102A90008EE090E09183808320E030E0442331F0A9
:102AA00087B7826087BF02C020E030E0C901089587
:102AB0001F920F920FB60F920BB60F9211242F9305
:102AC0003F934F935F936F937F938F939F93AF93B6
:102AD000BF93EF93FF938BEB92E00E941B1AFF9141
:102AE000EF91BF91AF919F918F917F916F915F9186
:102AF0004F913F912F910F900BBE0F900FBE0F90F3
:102B00001F901895FC016281738120919403422FDC
:102B100050E0CA0180739070892B89F024FF04C0B3
:102B200083E18CB9206403C081E18CB92F7B2093B1
:102B30009403809194038F7C80939403089527FFDE
:102B400002C05598089582859385892B89F18285E5
:102B5000938501979387828780919503882311F04D
:102B6000509A01C05098DB018D918CB98681978174
:102B7000A817B90711F4A481B581B383A283228574
:102B80003385848595852817390759F5A089B1893A
:102B90001097A9F08FEFAF3FB80719F114968D91F8
:102BA0009C911597019615969C938E931497089572
:102BB000559813861286A089B189109729F48FEF52
:102BC0009FEF918B808B08958FEFAF3FB80749F04F
:102BD00014968D919C911597019615969C938E93C2
:102BE00014970895CF93DF93282F5BB180919303BF
:102BF000582B509393036CB140919403442361F09C
:102C0000633119F45598406804C0613129F4559A2C
:102C10004F77409394035DC0A22FB92F1A962D9140
:102C20003C911B9718968D919C91199728173907FD
:102C300020F05860509393034CC0E9012196232B58
:102C4000B9F45096ED91FC915197309739F48FEF8C
:102C50009FEF51969C938E9350971FC08FEFEF3F3D
:102C6000F807D9F08481958101969583848315C0F6
:102C7000442399F01E968D919C911F97C817D907F0
:102C800060F046FD0AC05D9B05C083E18CB94064DD
:102C90004F7D01C0406240939403ED91FC911197E8
:102CA00061931196FC93EE932D913C91119716969A
:102CB0008D919C9117972817390739F414968D91A7
:102CC0009C91159711969C938E931B96DC93CE93B3
:102CD0001A97DF91CF910895529B02C089E0089521
:102CE0008091950082FF08C08091950081FD02C00F
:102CF00087E0089588E008958091950081FD02C0E5
:102D000085E0089586E008958091950085FD02C0D4
:102D100080E008958091950084FD02C082E00895CE
:102D200081E008958091950083FD02C081E00895BF
:102D300082E0089580919303682F70E0CB0124E036
:102D4000969587952A95E1F79C0140E050E0217027
:102D500030704070507063FD226062FD246080918D
:102D60009403882321F086FD426087FD486041FF7F
:102D7000416043FF446080919503882321F0CA019C
:102D8000B901806403C0CA01B9018068589B04C0BE
:102D90009B01AC01406103C09B01AC014062B901E1
:102DA000CA010895EF92FF920F931F937B018C014C
:102DB000809194038823D9F00FB6F8940F9200FF06
:102DC00002C08F7B03C001FF03C080648093940323
:102DD00002FF04C0809194038F7705C003FF05C0F4
:102DE000809194038068809394030F900FBE06FF38
:102DF00003C081E08093950307FF02C01092950302
:102E000004FD589A05FD5898C70181709070892B70
:102E100029F0809193038F7E80939303E1FE05C098
:102E200080919303877F80939303E2FE05C0809196
:102E300093038B7F809393030E949A16687F6E158D
:102E40007F058007910719F420E030E002C02FEFE2
:102E50003FEFC9011F910F91FF90EF90089580916E
:102E6000950086FF0BC0129B02C093E001C091E069
:102E70008091950080FF07C0946005C0599B02C0F7
:102E800090E201C090E0892F0895809194038823F7
:102E900029F420E030E040E050E004C020E230E0DF
:102EA00040E050E0B901CA010895EF92FF920F93FC
:102EB0001F937B018C0165FF0DC0809194038823D3
:102EC00081F40FB6F8940F9281E4809394030F90ED
:102ED0000FBE07C00FB6F8940F92109294030F9094
:102EE0000FBE80919403882329F420E030E040E075
:102EF00050E004C020E230E040E050E02E153F05F5
:102F00004007510719F420E030E002C02FEF3FEFF7
:102F1000C9011F910F91FF90EF900895559A089560
:102F2000909194039923A9F096FF13C00FB6F894DB
:102F30000F925D9B04C081E18CB99F7E01C09061BE
:102F400090939403809194038F79809394030F90CE
:102F50000FBE08950FB6F8940F925798569855984B
:102F60000F900FBE8AE00E94A606549853980895C9
:102F70001F93182F0E94AA17812F10FF15C011FF51
:102F800002C0129A01C0129882FF04C0809195007D
:102F9000816003C0809195008E7F80939500599841
:102FA0008091950080640DC015FF02C0599A01C040
:102FB0005998809195008E7F80939500809195001F
:102FC0008F7B809395000FB6F8940F9288EB8AB9A7
:102FD0000F900FBE0E942F17811719F420E030E0E8
:102FE00002C02FEF3FEFC9011F9108951F93182FC3
:102FF0000E94AA17113021F480919500877F05C0A7
:10300000123029F4809195008860809395000FB666
:10301000F8940F9288EB8AB90F900FBE80919500BB
:1030200083FD02C081E001C082E0811719F420E035
:1030300030E002C02FEF3FEFC9011F9108951F93A9
:10304000182F0E94AA17113071F0113018F01230A9
:10305000C1F40DC0809195008F7E80939500809182
:1030600095008F7D0CC080919500806103C0809198
:1030700095008F7E8093950080919500806280936B
:1030800095000FB6F8940F9288EB8AB90F900FBE97
:103090000E948416811719F420E030E002C02FEF5F
:1030A0003FEFC9011F9108951F93182F0E94AA177F
:1030B0005298809195008D7F809395008091950026
:1030C0008B7F809395001730A1F0183018F41630DC
:1030D000A9F405C0183041F0193081F404C0809182
:1030E0009500826009C0529A809195008260809319
:1030F0009500809195008460809395000FB6F894B8
:103100000F9288EB8AB90F900FBE0E946C16811740
:1031100019F420E030E002C02FEF3FEFC9011F910A
:1031200008958F929F92AF92BF92CF92DF92EF92CB
:10313000FF920F931F9399B080909000809195001B
:1031400086FF06C052E0A52EB12CC12CD12C0DC09B
:10315000599906C040E1A42EB12CC12CD12C05C038
:1031600038E0A32EB12CC12CD12C0E9447077B0143
:103170008C01892D90E0382D20E0282B392B40E060
:1031800050E02F5F3F4F4F4F5F4FC601B5010E9488
:10319000951F9B01AC01C801B7010E94C01FCA0165
:1031A000B9011F910F91FF90EF90DF90CF90BF90EA
:1031B000AF909F908F900895EF92FF920F931F937F
:1031C0007B018C010E94AA178091950086FD11C099
:1031D000599B08C0E2E0EE0CFF1C001F111FEA958E
:1031E000D1F707C073E0EE0CFF1C001F111F7A958A
:1031F000D1F70E944707A80197010E94C01F2F5FC7
:103200003F4F4F4F5F4F5695479537952795215024
:10321000304029B9309390000FB6F8940F9288EBA4
:103220008AB90F900FBE80E090E01F910F91FF9040
:10323000EF9008958DE393E060E070E040E050E0AF
:103240000E94261A83E493E060E070E040E050E0E2
:103250000E94261A80E090E008958DE393E062EFEB
:1032600075E146E053E00E94261A892BA9F483E415
:1032700093E062E875E144EF52E00E94261A892B40
:1032800019F420E030E00AC08DE393E060E070E0E4
:1032900040E050E00E94261A2FEF3FEFC901089549
:1032A000FB014AB14078579880319105B9F08131DE
:1032B00091052CF4009771F0019749F40CC082310C
:1032C000910549F182319105CCF08097D1F02FEF33
:1032D0003FEF1DC040E08CB18CB117C05F9B05C0B3
:1032E00081E090E09183808302C0118210824423A8
:1032F00091F08081918180689183808320E030E02B
:1033000008C080E190E09183808320E030E0442396
:1033100021F0579A02C020E030E0C90108951F92C1
:103320000F920FB60F920BB60F9211242F933F936B
:103330004F935F936F937F938F939F93AF93BF93BD
:10334000EF93FF938DE393E00E941B1AFF91EF919F
:10335000BF91AF919F918F917F916F915F914F91AD
:103360003F912F910F900BBE0F900FBE0F901F90AB
:103370001895FB014AB1407255988131910501F1D0
:10338000823191052CF4009741F1409731F408C047
:103390008231910511F18097B1F02FEF3FEF19C005
:1033A0005D9B05C081E090E09183808302C0118223
:1033B0001082442391F08081918180689183808381
:1033C00020E030E008C080E190E09183808320E03D
:1033D00030E0442321F0559A02C020E030E0C901DA
:1033E00008951F920F920FB60F920BB60F921124F1
:1033F0002F933F934F935F936F937F938F939F93FD
:10340000AF93BF93EF93FF9383E493E00E941B1A63
:10341000FF91EF91BF91AF919F918F917F916F91AC
:103420005F914F913F912F910F900BBE0F900FBE68
:103430000F901F901895DC011296ED91FC91139757
:10344000309719F08D919C9109950895EF92FF9214
:103450000F931F93CF93DF93EC017B018A01EC81E3
:10346000FD81309719F420E030E006C080E090E064
:1034700060E070E009959C0119830883FB82EA8271
:10348000C901DF91CF911F910F91FF90EF900895A7
:10349000DC011496ED91FC911597309719F42FEFFC
:1034A0003FEF06C081E190E060E070E009959C018B
:1034B000C9010895DC011496ED91FC9115973097A0
:1034C00019F42FEF3FEF06C082E190E060E070E07A
:1034D00009959C01C90108950F931F93DF93CF9322
:1034E00000D000D0CDB7DEB78C017C836B83DC01CC
:1034F0001496ED91FC911597309719F42FEF3FEF4B
:1035000019C080E290E0BE016F5F7F4F09959C017A
:10351000009781F4D8011496ED91FC91159781E202
:1035200090E0BE016D5F7F4F09959C01009711F4FB
:1035300029813A81C9010F900F900F900F90CF9180
:10354000DF911F910F9108950F931F93DF93CF93F6
:1035500000D000D0CDB7DEB78C017C836B83DC015B
:103560001496ED91FC911597309719F42FEF3FEFDA
:103570001DC088E190E0BE016F5F7F4F09959C01FF
:103580000097A1F48B819C81892B71F0D80114964E
:10359000ED91FC91159789E190E0BE016D5F7F4F41
:1035A00009959C01009711F429813A81C9010F9076
:1035B0000F900F900F90CF91DF911F910F91089571
:1035C0000F931F93CF93DF93FC01C189D289EDA99B
:1035D000FEA909958C01009749F4CF5BDF4FE88184
:1035E000F98160E072EC81E090E00995C801DF911B
:1035F000CF911F910F910895DC011296ED91FC91EE
:1036000013970188F289E02D0FB6F8940F9284A5E4
:1036100095A50F900FBEBC0180E090E00895CF9279
:10362000DF92EF92FF920F931F93CF93DF93EC0102
:103630008B017A0169018C819D81288539850FB6BE
:10364000F8940F92198618860F900FBE2617370729
:1036500089F0232B21F0009711F00E94BD0E011577
:10366000110511F1C8010E94C30E009731F42FEF2C
:103670003FEF1CC061157105B9F09D838C83998360
:1036800088839B838A83800F911F9F838E83FD860F
:10369000EC86DF86CE861B861A860FB6F8940F92CC
:1036A000198708870F900FBE20E030E0C901DF9135
:1036B000CF911F910F91FF90EF90DF90CF900895E1
:1036C000CF92DF92EF92FF920F931F93CF93DF93EE
:1036D000FB016A01DA01ED90FD900D911C912E2DF8
:1036E000DC015196CD91DC915297E150F140ED32E1
:1036F000F10540F4EA5BFF4FEE0FFF1F0590F491D8
:10370000E02D09940FEF1FEF29C1CF5BDF4F43C0BE
:10371000CD5BDF4F91C0CB5BDF4FE881F981822F1A
:1037200009958C011BC1C95BDF4F0BC0C75BDF4F25
:10373000F4CFC55BDF4F05C0C35BDF4FEECFC15B8E
:10374000DF4FE881F981099590E0FFC0E6FE0DC0EA
:103750006AA57BA54EA55FA528A939A9CE018296A9
:103760000E940F1BEBADFCAD0995E7FE0AC0688D0A
:10377000798D4C8D5D8D2E8D3F8DCE0140960E94B2
:103780000F1BCF5ADF4F8FE39FEFAFEFBFEFE82262
:10379000F9220A231B23E881F981C801B7010995A1
:1037A000C0CFCD5ADF4FE881F981C355D04009958C
:1037B0009B01AC01D6016D937D938D939C931397E0
:1037C0008CA59DA5892B31F42064F60120833183DB
:1037D000428353838A8D9B8D892B09F0BDC0F601EE
:1037E00080819181A281B3818068B2C0E886F98628
:1037F0000A871B87B1C088859985AA85BB85A7C024
:10380000EC86FD860E871F87A7C08C859D85AE85BB
:10381000BF859DC088819981AA81BB81EE2011F06E
:1038200080642AC08F7B28C0888186FF35C02FC066
:10383000EDADFEADB2CFEF96E881F9810995F601C5
:10384000608371838283938387C088819981AA81F1
:10385000BB81EE2011F080680FC08F770DC088818A
:1038600087FF1AC014C088819981AA81BB81EE208C
:1038700011F0946001C09B7F88839983AA83BB83E6
:103880006BC088819981AA81BB8192FF05C081E0CC
:1038900090E0A0E0B0E05BC0D6011D921D921D92A9
:1038A0001C92139759C0CB5ADF4F37CFC95ADF4FFD
:1038B00048CF4C8D5D8D2E8D3F8DCE014096B7014A
:1038C0000E940F1B8C01009709F048C0EBADFCADC6
:1038D000099544C0888D998D38C04EA55FA528A94B
:1038E00039A9CE018296B7010E940F1B1ACF8AA573
:1038F0009BA52BC00FB6F8940F92FD8EEC8E0F9007
:103900000FBE2AC08C8D9D8D20C00FB6F8940F92EB
:10391000FF8EEE8E0F900FBE1FC08E8D9F8D15C037
:103920000FB6F8940F92FFA6EEA60F900FBE14C02C
:103930008EA59FA50AC00FB6F8940F92F9AAE8AA1F
:103940000F900FBE09C088A999A9A0E0B0E0F601C8
:1039500080839183A283B38300E010E0C801DF91EC
:10396000CF911F910F91FF90EF90DF90CF9008952E
:10397000AF92BF92CF92DF92EF92FF920F931F937D
:10398000CF93DF935C017A01FC01C189D28983E086
:10399000C82ED12CC422D522C114D10481F0CE016D
:1039A000409660E470E048E250E028E330E00E9496
:1039B0000F1B892BA1F4F1E0CF16D10499F0CE01B1
:1039C000829660E071E040ED50E020EF30E00E9430
:1039D0000F1B892B39F08C899D890E94BD0E0FEF3A
:1039E0001FEF30C086E090E00E94C30EFC018C0106
:1039F000009739F48C899D890E94BD0E8EA19FA1EC
:103A0000ECCF80E090ECE822F92288819981AA81AC
:103A1000BB8120E0E21620E8F20611F48F7701C0A6
:103A2000806888839983AA83BB8311821082B382C2
:103A3000A2821582148281E0C816D10419F0EBAD80
:103A4000FCAD0995C801DF91CF911F910F91FF90B7
:103A5000EF90DF90CF90BF90AF9008950F931F939A
:103A6000CF93DF93EC01EA81FB81218932890197B1
:103A70008E5F9F4F18F02FEF3FEF2AC089010F5A3A
:103A80001F4FD801ED91FC910155104060E072E0AC
:103A900080E090E00995CE010E94BD0EC8014096DD
:103AA00060E070E040E050E020E030E00E940F1B5A
:103AB000C801829660E070E040E050E020E030E035
:103AC0000E940F1BC801C2960E944E0A20E030E0FF
:103AD000C901DF91CF911F910F910895CF92DF928D
:103AE000EF92FF920F931F93CF93DF93EC016A0144
:103AF0000FB6F8940F928A8D9B8D860F971F9B8F20
:103B00008A8F0A8D1B8D0F900FBE90E2E92EF12C4B
:103B1000EC0EFD1E13C0E9ADFAAD09954C855D852F
:103B20006E857F85C7010E94B00A892B51F40FB6BC
:103B3000F8940F920A8D1B8D0F900FBEC016D10600
:103B400050F3C801DF91CF911F910F91FF90EF903B
:103B5000DF90CF9008958F929F92AF92BF92CF92B5
:103B6000DF92EF92FF920F931F93DF93CF9300D0DA
:103B7000CDB7DEB78B015A016901DC0151968D90FA
:103B80009C905297F401808D918D892B19F40FEF41
:103B90001FEFABC06115710549F4C40160E070E02E
:103BA00040E050E00E946E1D8C019FC0F4018081B6
:103BB0009181A281B3819C01AD0169E05695479541
:103BC000379527956A95D1F7F22FF170FA8327E0A0
:103BD000B695A795979587952A95D1F7282F2170A7
:103BE00029830FB6F8940F92D4015A964D915C91A7
:103BF0005B970F900FBE780100E010E060E070E08E
:103C00005BC09B01240F351FF401868D978D28170B
:103C1000390788F0448D558DC4010E946E1DAC019A
:103C2000D4015C968D919C915D978417950708F45B
:103C30005CC060E070E0C114D10419F0F701849118
:103C400002C0D7018C91B981B13069F48A3081F416
:103C5000EA81E13021F4F2E0FA83F98302C022E044
:103C600029838DE00AC09981923011F4A1E0A983E3
:103C70000894E11CF11C0F5F1F4FD4015096ED9189
:103C8000FC91519781935196FC93EE9350975096E7
:103C90002D913C91519756968D919C91579728174D
:103CA000390741F454968D919C91559751969C9368
:103CB0008E9350976F5F7F4F0A151B050CF4A1CFB1
:103CC0006115710591F00FB6F8940F92F401828D91
:103CD000938D680F791F738F628F0F900FBED40181
:103CE000D996ED91FC91DA970995C8010F900F9044
:103CF000CF91DF911F910F91FF90EF90DF90CF90C8
:103D0000BF90AF909F908F900895FC018281938126
:103D100021E030E00E94AB1D0895FC018281938177
:103D200020E030E00E94AB1D0895AF92BF92CF9289
:103D3000DF92EF92FF920F931F93CF93DF936B016C
:103D40005A01DC011296ED91FC911397C189D28939
:103D50006AA57BA56115710509F4A0C0C114D10441
:103D600061F44EA55FA528A939A9CE0182960E94CB
:103D70000F1BEBADFCAD099519C08E010E5C1F4FFA
:103D80000FB6F8940F92ECA4FDA40F900FBEE114AF
:103D9000F104A1F4EBADFCAD0995488559856A8520
:103DA0007B85C8010E94B00A892B19F020E030E021
:103DB00077C08AA59BA5892B19F770C0D601888189
:103DC00087FF30C000E010E040E050E07AE026C01D
:103DD0004E155F0508F048C0ECA1FDA16191FDA35F
:103DE000ECA32CA13DA188A599A52817390721F49A
:103DF0008EA19FA19DA38CA36D3011F06A3041F478
:103E00008CA9882311F0861739F46CAB7D9302C01E
:103E10001CAA6D930F5F1F4F4F5F5F4F0A151B0565
:103E2000B8F222C08501EA14FB0408F4870140E0DF
:103E300050E016C0ECA1FDA1D601A40FB51F8191E1
:103E40008C93FDA3ECA32CA13DA188A599A52817CF
:103E5000390721F48EA19FA19DA38CA34F5F5F4FD3
:103E60004017510738F3A80141155105A9F00FB6C5
:103E7000F8940F928CA59DA5841B950B9DA78CA7EC
:103E80000F900FBE2CA53DA58EA59FA5281739071D
:103E900018F4EBADFCAD0995980102C02FEF3FEF90
:103EA000C901DF91CF911F910F91FF90EF90DF90AB
:103EB000CF90BF90AF9008950E94621F08950E9416
:103EC0008D1F0895CF92DF92EF92FF920F931F9371
:103ED000CF93DF938C016B017A01C0E0D0E00FC07B
:103EE000C8010E943C20F601EC0FFD1F608186177F
:103EF00019F0C8010E94442021960F5F1F4FCE1574
:103F0000DF0570F380E090E0DF91CF911F910F917A
:103F1000FF90EF90DF90CF9008959C01CB01B90105
:103F20000E942C2080E090E00895629FD001739F52
:103F3000F001829FE00DF11D649FE00DF11D929F45
:103F4000F00D839FF00D749FF00D659FF00D992784
:103F5000729FB00DE11DF91F639FB00DE11DF91FA8
:103F6000BD01CF0111240895991B79E004C0991F68
:103F7000961708F0961B881F7A95C9F780950895C3
:103F8000A1E21A2EAA1BBB1BFD010DC0AA1FBB1F5D
:103F9000EE1FFF1FA217B307E407F50720F0A21BCF
:103FA000B30BE40BF50B661F771F881F991F1A943C
:103FB00069F760957095809590959B01AC01BD0166
:103FC000CF010895FB01DC0105900D920020E1F77F
:103FD0000895FC0105900020E9F7809590958E0FDB
:103FE0009F1F0895FC014150504030F0019006168B
:103FF000D1F73197CF010895882799270895FB01BC
:10400000DC0104C08D910190801921F44150504091
:10401000C8F7881B990B0895FB01DC0102C00190D1
:104020000D9241505040D8F70895DC0101C06D93C6
:1040300041505040E0F70895FB01DC018D91019063
:1040400080190110D9F3990B0895FB01DC0101904F
:104050000D920020E1F70895DC01CB01FC01E1990C
:10406000FECF06C0FFBBEEBBE09A31960DB20D92BB
:1040700041505040B8F70895E199FECF9FBB8EBBE9
:10408000E09A99278DB30895262FE199FECF9FBB23
:104090008EBB2DBB0FB6F894E29AE19A0FBE019643
:0640A0000895F894FFCF23
:1040A60025733A2025730008200800756172743064
:1040B60000770072000A0A4E6574776F726B2043B0
:1040C6006F6E66696775726174696F6E20456469A3
:1040D600746F72202D20436F6D70696C6564204A81
:1040E600756E2031322032303132202D2031393A6E
:1040F60035343A33310065746830000A4E6F2063F8
:104106006F6E66696775726174696F6E206176613C
:10411600696C61626C65000A436F6E6669677572E9
:104126006174696F6E206C6F61646564004D414314
:10413600204164647265737300495020416464725F
:10414600657373004950204D61736B0049502047D9
:10415600617465000A5072657373205320746F2072
:1041660073617665207468697320636F6E6669672C
:1041760075726174696F6E20004661696C656400D2
:1041860053617665640044697363617264656400B3
:10419600426F6172642020203A200045746865727F
:1041A6006E75742031004D656D6F727920203A204E
:1041B60000496E7465726E616C20454550524F4DD4
:1041C6000069646C65006D61696E00FF25702825C5
:1041D60064290A004F530065746865726E75740031
:1041E6003031323334353637383941424344454627
:1041F600003031323334353637383941424344455D
:10420600460001000200030000000000000000005C
:104216000000286E756C6C29003031323334353627
:10422600373839616263646566003031323334355C
:104236003637383941424344454600202020202065
:104246002020202020202020202020303030303018
:104256003030303030303030303030000000001038
:104266001500007561727430000000000500000042
:104276000000E402E01A601B951E8D1E851EB81C08
:104286002E1DFC1A000000000000000000000000C7
:104296000000000000000000000000000000000018
:1042A6000000000000000000000000000000000008
:1042B6000000000000000000002D191A198E17904A
:1042C6001755174517DC18911854186C161F1884C3
:1042D60016F6179216D2169A16B8172F1700000060
:0A42E60000501900000000B9190093
:00000001FF
