:100000000C947C000C94E6000C94E6000C94E60042
:100010000C94E6000C94E6000C94285D0C94E60029
:100020000C94E6000C94E6000C94E6000C94E600B8
:100030000C94E6000C94E6000C94E6000C949D539E
:100040000C94E6000C94E6000C9407580C94695844
:100050000C94E6000C94E6000C94E6000C94E60088
:100060000C94E6000C94E6000C94E6000C94E60078
:100070000C94E6000C94E6000C94E6000C94E60068
:100080000C94E6000C94E6000C94E600BC5EBF5EA7
:10009000C25ECA5ECD5ED05ED35ED65EDD5E085FB8
:1000A0002D5F325F375F3C5F415F4B5F4F5F525F59
:1000B0005C5F665FB95EB95EB95EB95E8A5F8D5F8F
:1000C000905FA15FA45FAE5FB95EB15FB95FBC5FD7
:1000D000C45FC75FCF5FD25FDA5FB95EB95EB95EFA
:1000E000B95E6A5F785FFFFFFF30FFFFFFFFFFFF32
:1000F000FFFFFFFFFFFFFFFF80EC85BF87E089B9AF
:1001000080939900AF9AA79AAE9AA69A81EE8093AF
:10011000008380E48093018385B78F7785BF80E07B
:1001200090E09D9B05C0019641F09D9BF8CFFBCFD1
:10013000019619F09D99F3CFFBCF85B7806885BFF5
:10014000AF98A798AE98A69811241FBECFEFD0E124
:10015000DEBFCDBF15E0A0E0B1E0E0E9F9EC00E0E2
:100160000BBF02C007900D92A035B107D9F716E07A
:10017000A0E5B5E001C01D92AE36B107E1F78FEF03
:100180009FE79EBF8DBF8FEF9FE78E5696408158A9
:10019000914050F04FEF5EE74E56564085E496E0B2
:1001A0006EE676E00E940A470E94E5510E94014FE8
:1001B0008EEE92E06BE573E040E050E020E831E045
:1001C0000E9429520E9400000C94C6640C94000006
:1001D0006F927F928F929F92AF92BF92CF92DF9257
:1001E000EF92FF920F931F93DF93CF93CDB7DEB7BC
:1001F00062970FB6F894DEBF0FBECDBF80E092ECE1
:10020000A1E0B0E089839A83AB83BC83DE011D96B5
:10021000E8EEF2E086E001900D928150E1F780E097
:1002200091E00E9459186D837E838F83988783E7BE
:1002300094E060E070E040E00E94C44E892B19F029
:100240008824992436C04091A9035091AA038EE0D6
:1002500091E064E171E00E94EB38892B21F411E018
:10026000812E912C16C08091A9039091AA030E941F
:10027000893861E071E0AE014F5F5F4F0E946238E4
:10028000892B21F4BBE08B2E912C03C0A3E08A2E96
:10029000912C4091AB035091AC038EE091E064E16E
:1002A00071E00E94EB38892B21F024E030E0822AB3
:1002B000932A81FE2AC00091E6021091E7020E9473
:1002C000414600D000D000D0EDB7FEB7319626E110
:1002D00031E0ADB7BEB712963C932E9311971383BE
:1002E0000283958384830E945D39EDB7FEB736960D
:1002F0000FB6F894FEBF0FBEEDBF8EE291E00E94F4
:100300006F398EE391E00E946F398FEE94E060E0E8
:1003100073E845E00E94C44E892B09F05DC020E1DE
:1003200030E0822A932A80E591E060E070E020E6E8
:100330003AEE40E050E00E947304892B29F480E2F9
:1003400090E0882A992A48C0FDE06F2E712C6C0E2F
:100350007D1E80E591E0B30120E63AEE40E050E0FA
:100360000E947304892B29F4A0E2B0E08A2A9B2A18
:1003700033C085E591E00E9459185B016C0185E668
:1003800091E00E9459187B018C0180E591E0B30156
:10039000A60195010E94CD1B892BF1F4E0E2F0E06B
:1003A0008E2A9F2A83E791E00E9459187B018C01D5
:1003B00060E070E080E090E020E030E040E050E07D
:1003C000EFEECE2EE4E0DE2E0E943517892B21F4CD
:1003D00020E430E0822A932A85FE23C081FE04C0F7
:1003E00081E891E00E946F3980EF91EFAFEFBFEFAE
:1003F0008093BD039093BE03A093BF03B093C0034B
:100400008E01075F1F4FCE010596B8010E94F110C3
:10041000892B39F480E890E0882A992AC8010E9443
:10042000923B32E0C32ED12CC820D92081FE04C0DB
:100430008FE991E00E946F3924E0E22EF12CE82050
:10044000F92082FC03C060E070E002C060E270E06E
:1004500081EB91E048E050E00E94701290E2692E3A
:10046000712C6820792085FE08C089EB91E00E94FC
:10047000591840E050E00E942D120091E6021091C0
:10048000E7020E944146ADB7BEB718970FB6F89481
:10049000BEBF0FBEADBFEDB7FEB7319626E030E070
:1004A00012963C932E93119729EC31E033832283EB
:1004B00015830483978386830E946514EDB7FEB786
:1004C00038960FB6F894FEBF0FBEEDBF80FC0DC08E
:1004D00000D000D083E090E0ADB7BEB712969C93F9
:1004E0008E93119789EE91E01BC0CD2859F400D06E
:1004F00000D083E090E0EDB7FEB79283818388E07F
:1005000092E01FC0EF2889F400D000D083E090E093
:10051000ADB7BEB712969C938E93119780E292E08E
:1005200014969C938E9313970EC083FC12C000D038
:1005300000D083E090E0EDB7FEB79283818388E33B
:1005400092E0948383830E9465140F900F900F9024
:100550000F9084FC0DC000D000D083E090E0ADB7D8
:10056000BEB712969C938E93119780E592E069C076
:10057000672869F400D000D083E090E0EDB7FEB7C3
:100580009283818383E792E0948383835EC060914A
:100590001B0670911C0680911D0690911E060E94FC
:1005A000AB1800D000D000D0EDB7FEB7319606E012
:1005B00010E0ADB7BEB712961C930E93119728E9C1
:1005C00032E033832283958384830E946514EDB7E0
:1005D000FEB736960FB6F894FEBF0FBEEDBF609122
:1005E00023067091240680912506909126060E948C
:1005F000AB1800D000D000D0EDB7FEB73196ADB744
:10060000BEB712961C930E9311972EE932E03383F6
:100610002283958384830E9465140F900F90EDB719
:10062000FEB71283018386EA92E0948383830E945B
:100630006514ADB7BEB712961C930E9311978AEB53
:1006400092E014969C938E9313970E9465140F90DA
:100650000F900F900F9087E0E82EF12C02ED12E042
:1006600085E496E00E941B4700D000D000D0EDB793
:10067000FEB73196ADB7BEB71296FC92EE921197C7
:1006800013830283958384830E946514EDB7FEB7BC
:1006900036960FB6F894FEBF0FBEEDBF60E67AEE59
:1006A00080E090E00E94F44BDBCF9091F8028093C1
:1006B000F802892F08950E94D14C83EF92E068EEF2
:1006C00070E040E050E020E033E00E9429528EEFDD
:1006D0000E9461490E94E1490E9429492091F80243
:1006E0002F3FC1F395B785B7837E822B85BF85B732
:1006F000806285BF889585B78F7D85BF85B79C71E2
:10070000837E982B95BFE6CF8091550590E00895A4
:1007100080915605909157051092570510925605F5
:10072000089520E030E080915505853011F421E0F6
:1007300030E0C9010895DF92EF92FF920F931F936B
:10074000CF93DF93D62E79018A010E94A84EEC0147
:10075000009751F08B85833039F4EF85F889309715
:1007600019F08081863049F081E190E0909357053F
:10077000809356052FEF3FEF35C00E94F54A6093F6
:100780006005709361058093620590936305E09224
:100790005C05F0925D0500935E0510935F05D092B5
:1007A00055058091530590915405892B69F489EF83
:1007B00092E068E179E0AE0120E231E00E94295246
:1007C000909354058093530588E595E00E94DE4D93
:1007D0008AE595E040E050E060E070E00E94334E32
:1007E00020E030E0C901DF91CF911F910F91FF9080
:1007F000EF90DF900895FC019A01AB0180915505BF
:10080000882349F083E090E0909357058093560544
:100810002FEF3FEF05C0CF0168E00E949B039C01D2
:10082000C9010895FC019A01AB01809155058530FD
:1008300049F083E090E090935705809356052FEFA1
:100840003FEF05C0CF0169E00E949B039C01C901F5
:100850000895CF92DF92EF92FF920F931F93CF9361
:10086000DF93FC0184E292E0DF01EC011D9221970D
:10087000E9F781E08083818386E08283EF016C96D3
:10088000A5E1B6E00D9009928150E1F7248335830C
:10089000468357830C2CCD2CD02CD186C086E48681
:1008A000F58606871787E451FF4F93E69193DF01A2
:1008B00082E8819383E511968C93DF0111969183F1
:1008C000FD01319685E311968C9381E081836283EB
:1008D00087E090E0DF91CF911F910F91FF90EF9013
:1008E000DF90CF9008954F925F926F927F928F9298
:1008F0009F92AF92BF92CF92DF92EF92FF920F93AF
:100900001F93DF93CF93CDB7DEB760970FB6F89400
:10091000DEBF0FBECDBF4C012B012D873E874F8719
:10092000588B0E94A84E5C01009769F0FC018385FA
:10093000833049F4C784D088C114D10421F0F60172
:100940008081863019F081E190E03BC08E010F5F1D
:100950001F4FF80111928A95E9F797E0692E712CE3
:100960006C0E7D1EC3016FEF70E046E050E00E9408
:100970008A6485E0E82EF12CEC0CFD1CC701B8015F
:1009800046E050E00E947464009741F0C701B30153
:1009900046E050E00E947464009731F54114510420
:1009A00049F0A5E1B6E0F20186E001900D92815098
:1009B000E1F70CC0C4010E94F71B892B39F082E0DB
:1009C00090E09093570580935605BFC0D701E5E1AD
:1009D000F6E086E001900D928150E1F764EF71E05E
:1009E00080E090E00E94F44BF60113861486158691
:1009F000168680911F0690912006A0912106B09145
:100A00002206838B948BA58BB68B80911F069091C9
:100A10002006A0912106B091220620912706309150
:100A200028064091290650912A0682239323A42365
:100A3000B5230097A105B10501F1C40140EE5EE2C6
:100A400060E070E00E941204209127063091280691
:100A50004091290650912A0620931B0630931C06CC
:100A600040931D0650931E06E0901F06F09020064E
:100A7000009121061091220658C0C40161E02D8525
:100A80003E854F8558890E949B03892B09F05DC0E4
:100A900080915505853031F5E0915105F091520571
:100AA000418152816381748105811681278130855E
:100AB000C584D684E784F088C5010E94FD19E091C1
:100AC0005105F09152052189328943895489E5887D
:100AD000F6880789108D80E090E060E070E00E9469
:100AE0005D1030C0F60183859485A585B685009795
:100AF000A105B10539F520911B0630911C064091E6
:100B00001D0650911E06E0901F06F09020060091F1
:100B1000210610912206D801C70182239323A42322
:100B2000B5230097A105B10581F0A0902306B090F0
:100B30002406C0902506D0902606C40165E176E023
:100B40000E94FA1A20E030E002C02FEF3FEFC90107
:100B500060960FB6F894DEBF0FBECDBFCF91DF9188
:100B60001F910F91FF90EF90DF90CF90BF90AF90CB
:100B70009F908F907F906F905F904F900895CF934C
:100B8000DF93EC01009779F089A59AA5009711F001
:100B90000E94A63E8BA59CA5009711F00E94A63E40
:100BA000CE010E94A63EDF91CF910895EF92FF9271
:100BB0000F931F93CF93DF938C01F62EE72EEA015C
:100BC000DC018D919C91009711F00E94A63ECE0110
:100BD00001960E94AC3EF80191838083009769F0F2
:100BE000209729F06F2D7E2DAE010E948164D801DF
:100BF000ED91FC91EC0FFD1F1082DF91CF911F91C1
:100C00000F91FF90EF9008954F925F926F927F92B5
:100C10008F929F92BF92CF92DF92EF92FF920F93AB
:100C20001F93CF93DF938C017B018DE290E00E94B4
:100C3000AC3EEC014C01009709F45BC18DE2FE0172
:100C400011928A95E9F780EC98EAA0E0B0E08DA3D4
:100C50009EA3AFA3B8A7F80180899189A289B3891F
:100C600089839A83AB83BC8300511F4F80E19FEF40
:100C7000E80EF91E69E2462E512C4C0E5D1E5BE219
:100C8000652E712C6C0E7D1EE5C0332331F40F5F91
:100C90001F4F0894E108F108DDC0F801B180CB2CAA
:100CA000DD24EC14FD040CF4E3C0353341F4F1E031
:100CB000BF1609F0DDC0F80182818883C0C03C30D6
:100CC00029F4B8016E5F7F4FC20106C03F3041F486
:100CD000B8016E5F7F4FC301A6010E94D605AFC069
:100CE000F3E0FB1508F0ABC0F8012281838190E0AE
:100CF000A0E0B0E04427582F692F7A2F848190E03C
:100D0000A0E0B0E0DC0199278827480F591F6A1F2F
:100D10007B1F420F511D611D711D858190E0A0E078
:100D2000B0E0B82FAA2799278827480F591F6A1FB4
:100D30007B1F313029F44D835E836F8378877FC0BA
:100D40003C3129F449875A876B877C8778C03330D8
:100D500029F44D875E876F87788B71C0363009F034
:100D600041C0498B5A8B6B8B7C8BF7E0FB1508F0ED
:100D700066C0F801268130E040E050E02D8B3E8BCC
:100D80004F8B588F878190E0A0E0B0E0BA2FA92F59
:100D9000982F8827820F931FA41FB51F8D8B9E8BC2
:100DA000AF8BB88F208530E040E050E0A9013327B9
:100DB0002227280F391F4A1F5B1F2D8B3E8B4F8B1D
:100DC000588F818590E0A0E0B0E0B82FAA2799273E
:100DD0008827280F391F4A1F5B1F2D8B3E8B4F8B97
:100DE000588F2DC0363329F4498F5A8F6B8F7C8FE3
:100DF00026C03A3359F4042E472F702D052E562F56
:100E0000602D4D8F5E8F6F8F78A319C03B3359F4DF
:100E1000042E472F702D052E562F602D49A35AA35F
:100E20006BA37CA30CC0333351F4042E472F702DD9
:100E3000052E562F602D4DA35EA36FA378A78B2D93
:100E400090E00296080F191F8EEF9FEFE80EF91E33
:100E5000EC18FD08F80130813F3F09F45BC01E1417
:100E60001F040CF412CF04C0853041F0863031F0FD
:100E7000CE010E94BF05882499243BC08D8D9E8D94
:100E8000AF8DB8A10097A105B10561F48DA19EA118
:100E9000AFA1B8A5B695A795979587958D8F9E8F8D
:100EA000AF8FB8A389A19AA1ABA1BCA10097A1055E
:100EB000B105F9F48D8D9E8DAF8DB8A19C01AD016A
:100EC00056954795379527957C018D0162E01695DB
:100ED0000795F794E7946A95D1F72E0D3F1D401FB3
:100EE000511F280F391F4A1F5B1F29A33AA34BA389
:100EF0005CA3C401DF91CF911F910F91FF90EF9000
:100F0000DF90CF90BF909F908F907F906F905F9079
:100F10004F9008958881823009F0A6CFAFCFEF922D
:100F2000FF920F931F937C01D901F901E00FF11F8C
:100F3000E451FF4F8FEF8083F801E351FF4F81E0D1
:100F4000EC32F80710F4ECE2F1E0C70123E430E002
:100F50008D017F010E94A51597FD03C020E030E0C0
:100F600008C083E190E090935705809356052FEFDA
:100F70003FEFC9011F910F91FF90EF9008952F92BD
:100F80003F924F925F926F927F928F929F92AF9219
:100F9000BF92CF92DF92EF92FF920F931F93DF9356
:100FA000CF93CDB7DEB71C012A013B014901A8014F
:100FB000970186017501C40163E0CD8CDE8C0E942F
:100FC00029049C018D899E89AF89B88D0097A10560
:100FD000B105C1F0F401E20FF31FE451FF4F82E3CA
:100FE000808324513F4FF401E20FF31F84E081839B
:100FF0008D899E89AF89B88D82839383A483B583BD
:10100000265E3040898D9A8DAB8DBC8D0097A105F1
:10101000B105C1F0F401E20FF31FE451FF4F86E385
:10102000808324513F4FF401E20FF31F84E081835A
:10103000898D9A8DAB8DBC8D82839383A483B58378
:10104000265E3040F401E20FF31FE451FF4F87E3C7
:10105000808324513F4FF401E20FF31F2C5E304098
:10106000DF01119693E09183FD01319681E01196A5
:101070008C93918386E0828375E0E72EF12CE20E5B
:10108000F31E4CE556E0DA010D900020E9F7AD556E
:10109000B6401A161B06D4F40A2FF401EE0DFF1DFC
:1010A000E451FF4F8CE08083F901EF50FF4FE80DD2
:1010B000F91DA1833296CF01BA014A2F50E00E9458
:1010C000816410E00E5F1F4FE00EF11EC101B301FD
:1010D000A201940187010E948F07CF91DF911F9198
:1010E0000F91FF90EF90DF90CF90BF90AF909F90C7
:1010F0008F907F906F905F904F903F902F900895CA
:101100002F923F924F925F926F927F928F929F9217
:10111000AF92BF92CF92DF92EF92FF920F931F9305
:10112000DF93CF93CDB7DEB760970FB6F894DEBFED
:101130000FBECDBF9C878B874D875E876F87788B6F
:101140003901470158010E94F54A6F8378878987E2
:101150009A8767017801E6E02E2EEFEF3E2EEFEF43
:101160004E2EEFEF5E2E280C391C4A1C5B1C8B8523
:101170009C85BE016D5F7F4FAE014F5F5F4F930156
:1011800004E212E00E943A159C01181619064CF070
:101190000097A1F184E190E0909357058093560564
:1011A0002DC0823F910588F0F3018081823069F47F
:1011B00084819581A681B7814D855E856F8578890B
:1011C00084179507A607B707C9F00E94F54A2F8133
:1011D000388549855A85621B730B840B950B621504
:1011E00073058405950518F020E030E007C075010F
:1011F0006401C61AD70AE80AF90AB9CFC90160968C
:101200000FB6F894DEBF0FBECDBFCF91DF911F9117
:101210000F91FF90EF90DF90CF90BF90AF909F9095
:101220008F907F906F905F904F903F902F90089598
:10123000DF93CF93CDB7DEB7A0970FB6F894DEBF9C
:101240000FBECDBF8C010E94614B6B8B7C8B8D8B55
:101250009E8B20911B0630911C0640911D065091DB
:101260001E062B873C874D875E87D8011F960D9001
:10127000BC91A02DBA8FA98F1A968C9190E0A0E016
:10128000B0E0BA2FA92F982F8827E98DFA8D2185F4
:10129000820F911DA11DB11DBA2FA92F982F88274C
:1012A0002085820F911DA11DB11D2227382F492FA6
:1012B0005A2F8781280F311D411D511D2B8F3C8FC7
:1012C0004D8F5E8F18A21F8E66247724188E1F8A7A
:1012D0001F86188A198A1A8A992430EA232E3FE039
:1012E000332E412C512C01C0982C9920E1F0220C76
:1012F000331C441C551C31E023163AEF330630E012
:10130000430630E0530630F0212C9AEF392E412C61
:10131000512C38C02FEF3FEF4FEF5FEF2F8338870F
:1013200049875A8737C080915505833059F08B8D96
:101330009C8DAD8DBE8D0196A11DB11D8B8F9C8F97
:10134000AD8FBE8FE0915105F09152053097A1F01D
:10135000218D328D438D548D2F83388749875A874D
:10136000211531054105510539F080EA282E8FE01D
:10137000382E412C512C0EC000EA202E0FE0302ECA
:10138000412C512C8FEF9FEFAFEFBFEF8F839887EA
:10139000A987BA87809155058823D9F180915C058A
:1013A00090915D05A0915E05B0915F050097A10544
:1013B000B10579F10E94F54A9B01AC01809160056D
:1013C00090916105A0916205B0916305281B390BCE
:1013D0004A0B5B0B60915C0570915D0580915E0529
:1013E00090915F05261737074807590738F0A1E0A5
:1013F000B0E0B0935705A093560518C6621B730B57
:10140000840B950B621573058405950510F41B017B
:101410002C0180915505823021F0863011F0873003
:1014200041F59920F1F00E94614B2B893C894D894F
:101430005E89621B730B840B950B6050704081407A
:10144000904028F04FEF5FEF588F4F8B12C00E94F3
:10145000614BDB01EB89FC89AE1BBF0BB88FAF8BF7
:1014600008C00E94614B6B8B7C8B8D8B9E8B188E82
:101470001F8A80915505853011F08823B1F42F8D96
:1014800038A12115310519F0C9010E940B1561140D
:10149000710419F418A21F8E4CC0C3010E94A63E0D
:1014A00018A21F8E6624772444C080915105909124
:1014B0005205892B59F4E98DFA8D83859485A5858C
:1014C000B6850097A105B10509F0B0C52F8D38A1EB
:1014D000232B21F06114710461F509C084E490E0CC
:1014E0000E94EB1598A38F8F6114710429F484E294
:1014F00092E00E94AC3E3C014F8D58A1452B19F063
:101500006114710439F482E190E09093570580935F
:1015100056058CC580EC96E09A8389838F8D98A1BF
:1015200062E070E1AE014F5F5F4F22E030E00E9469
:10153000B91480915505813031F52B8D3C8D4D8D41
:101540005E8D2F5F3F4F4F4F5F4F2B8F3C8F4D8FE7
:101550005E8F80911F0690912006A0912106B09188
:1015600022062B853C854D855E8582239323A4230B
:10157000B5230097A105B10511F432E073C244E030
:101580004093550571C2823009F05AC1B92CB39409
:1015900053E05915C8F48091510590915205892B5B
:1015A00061F085E0809355052B893C894D895E89E2
:1015B0002F87388B498B5A8B7BC541E050E0509385
:1015C0005705409356052FC18B859C85AD85BE85FB
:1015D0008B839C83AD83BE83C30161E02B8D3C8DE7
:1015E0004D8D5E8DEE24FF248701CF88D88C0E941C
:1015F00029049C018B819C81AD81BE810097A1054E
:10160000B105C1F0F301E20FF31FE451FF4F92E384
:10161000908324513F4FF301E20FF31FA4E0A18315
:101620008B819C81AD81BE8182839383A483B583AA
:10163000265E3040F301E20FF31FE451FF4FB7E3A2
:10164000B08324513F4FF301E20FF31F2C5E304073
:10165000DF01119643E04183FD01319651E011967F
:101660005C93418386E0828315E0E12EF12CE20E4B
:10167000F31EACE5B6E00D900020E9F7AD55B6409D
:101680001A161B06E4F40A2FF301EE0DFF1DE451B8
:10169000FF4F9CE09083F901EF50FF4FE60DF71DDF
:1016A000A1833296CF01ECE5F6E0BF014A2F50E06E
:1016B0000E94816410E00E5F1F4FE00EF11E20E4D7
:1016C00032E03A832983F301EE0DFF1DE451FF4F11
:1016D00039E330834CEE50E0E40EF51EF301EE0DDD
:1016E000FF1D52E0518389819A81082E892F902D08
:1016F0009A83898331969283818388E19FEFE80EF4
:10170000F91E8F8D98A14FEF5FEF6FEF7FEF930181
:1017100087010E948F0797FF74C085C0E090510534
:10172000F0905205C3010E9404068C01009709F451
:101730004EC0DC018C91823009F046C0E114F10406
:1017400009F446C020911B0630911C0640911D06ED
:1017500050911E0680911F0690912006A0912106AF
:10176000B091220682239323A423B5230097A105D9
:10177000B105A9F0F70181819281A381B48182171B
:101780009307A407B50719F1F80181819281A3811C
:10179000B48182179307A407B507C9F411C0D80113
:1017A00095962D913D914D915C919897F70185A16A
:1017B00096A1A7A1B0A582179307A407B50720F4A7
:1017C000C7010E94BF0504C0C8010E94BF05870170
:1017D0001093520500935105012B99F080915C05FF
:1017E00090915D05A0915E05B0915F05805E9E427F
:1017F000A040B040D8F0B0EA2B2EBFE03B2E412CE9
:10180000512C8F8D98A14B8D5C8D6D8D7E8D9301AC
:10181000820171010E948008BC01181619060CF49F
:101820007DCF009719F01092550542C48091510563
:1018300090915205892B09F43BC4A4E09A2E3BC435
:10184000833009F06CC0892C839423E0291520F49F
:1018500031E0309355052EC4E0915105F0915205C9
:101860004DB75EB74A5050400FB6F8945EBF0FBEFA
:101870004DBF2DB73EB72F5F3F4F418152816381EE
:101880007481ADB7BEB711964D935D936D937C9304
:101890001497818D928DA38DB48DF90184839583E6
:1018A000A683B7834F89588D518740878F8D98A124
:1018B0004FEF5FEF6FEF7FEF9301EB8CFC8C0D8DA3
:1018C0001E8DAA24BB2465010E94BF07ADB7BEB719
:1018D0001A960FB6F894BEBF0FBEADBF97FDB7C343
:1018E0008F8D98A14B8D5C8D6D8D7E8D93018201C6
:1018F00071010E948008BC0197FDA9C3009709F4FB
:10190000D9C3C3010E9404068C01009709F4D2C315
:10191000FC01F080F5E0FF1609F059C243C28430A3
:1019200009F081C0892C839453E0581548F481E074
:1019300080935505982C1B861C861D861E86BBC36E
:10194000ADB7BEB71A970FB6F894BEBF0FBEADBF06
:101950002DB73EB72F5F3F4F8B859C85AD85BE85EC
:10196000EDB7FEB781839283A383B483D901149624
:101970001D921D921D921C921797EF89F88D199652
:10198000FC93EE9318978F8D98A14FEF5FEF6FEF59
:101990007FEF9301EB8CFC8C0D8D1E8DAA24BB2454
:1019A00065010E94BF072DB73EB7265F3F4F0FB6B8
:1019B000F8943EBF0FBE2DBF97FD49C38F8D98A1F0
:1019C0004B8D5C8D6D8D7E8D9301820171010E9426
:1019D0008008BC0197FD3BC3009709F46BC3C301AA
:1019E0000E9404068C01009709F464C3DC018C9109
:1019F000853071F480915105909152050E94BF0588
:101A00001093520500935105B5E0B0935505D6C12A
:101A1000863009F049C331E0309355051B861C869A
:101A20001D861E8641C3853009F04FC08AE595E0CA
:101A30000E94D14DE0915105F0915205E58CF68C54
:101A4000078D10A10E94614B2F85388949895A89D9
:101A5000621B730B840B950B6E157F058007910736
:101A600028F036E030935505992425C3E0915105BF
:101A7000F0915205E58CF68C078D10A10E94614B08
:101A80002F85388949895A892E0D3F1D401F511FC6
:101A9000261B370B480B590B283389E8380781E49C
:101AA000480780E0580720F027E339E841E450E098
:101AB000CA01B90128EE33E040E050E00E94BF6364
:101AC000AB01BC0188E595E0ECC2863009F0C0C0EE
:101AD000E0915105F0915205E1A0F2A003A114A1FB
:101AE0000E94614B5B016C01C201B10128EE33E041
:101AF00040E050E00E9411648F859889A989BA89D5
:101B0000E80EF91E0A1F1B1FEA18FB080C091D0925
:101B1000E216F30604071507E0F4E0915105F09191
:101B2000520521A032A043A054A00E94614B2F85F2
:101B3000388949895A89621B730B840B950B28EEEF
:101B400033E040E050E00E94BF63261A370A480A9B
:101B5000590AE0915105F0915205E1A0F2A003A1CC
:101B600014A10E94614B2F85388949895A89621BCB
:101B7000730B840B950B6E157F058007910708F09A
:101B8000B2C0E0915105F0915205A180B280C380AE
:101B9000D4804DB75EB74A5050400FB6F8945EBF40
:101BA0000FBE4DBFADB7BEB71196418D528D638D3F
:101BB000748DEDB7FEB7A182B282C382D48214962F
:101BC0001D921D921D921C9217972F89388D199680
:101BD0003C932E9318978F8D98A19301EB8CFC8CDE
:101BE0000D8D1E8D0E94BF074DB75EB7465F5F4FDC
:101BF0000FB6F8945EBF0FBE4DBF97FD74C0892C21
:101C000083948F8D98A14B8D5C8D6D8D7E8D93010E
:101C1000820171010E948008BC0197FD18C20097E3
:101C200009F448C2C3010E9404068C01009709F41C
:101C300041C2DC01FC90B5E0FB1609F4B3C036E00C
:101C4000F31609F031C287E08093550588242CC231
:101C5000873009F0C4C0E0915105F0915205E1A030
:101C6000F2A003A114A10E94614B2F8538894989F4
:101C70005A89E20EF31E041F151FE61AF70A080B15
:101C8000190BE214F30404051505B0F4E0915105B5
:101C9000F091520521A032A043A054A00E94614BB4
:101CA000261A370A480A590A8F859889A989BA8954
:101CB000281A390A4A0A5B0AE0915105F091520547
:101CC000E1A0F2A003A114A10E94614B2F853889E5
:101CD00049895A89621B730B840B950B6E157F051E
:101CE0008007910720F087E080935505BDCE892CB1
:101CF0008394E0915105F0915205A180B280C38098
:101D0000D4804DB75EB74A5050400FB6F8945EBFCE
:101D10000FBE4DBFEDB7FEB73196ADB7BEB711964A
:101D2000AD92BD92CD92DC921497148215821682E8
:101D300017822F89388D318720878F8D98A14FEF9B
:101D40005FEF6FEF7FEF9301EB8CFC8C0D8D1E8DA1
:101D50000E94BF074DB75EB7465F5F4F0FB6F8945E
:101D60005EBF0FBE4DBF97FD72C18F8D98A14B8D89
:101D70005C8D6D8D7E8D9301820171010E948008C2
:101D8000BC0197FD64C1009709F494C1C3010E948E
:101D900004068C01009709F48DC1DC01FC90B5E0CC
:101DA000FB16A9F480915105909152050E94BF0540
:101DB0001093520500935105F09255052B893C89EB
:101DC0004D895E892F87388B498B5A8B73C136E0DA
:101DD000F31609F069C141E04093550565C18830AB
:101DE00009F0C8C0892C839453E0591508F42FC119
:101DF000A98DBA8D1B96ED90FD900D911C911E97AB
:101E0000C30168E02B8D3C8D4D8D5E8DCC24DD248F
:101E10000E942904F301E80FF91FE451FF4FB7E3D3
:101E2000B08384519F4FF301E80FF91FDF01119632
:101E300023E02183FD01319631E011963C9321830B
:101E400046E04283F9E1EF2EFFEFFF2EE80EF91E88
:101E5000ACE5B6E00D900020E9F7AD55B64011F1C4
:101E60000A2FF301EE0DFF1DE451FF4F5CE050839C
:101E70008CEE90E0E80EF91EF301EE0DFF1D24E15B
:101E80003FEFE20EF31EA1833296CF014CE556E000
:101E9000BA014A2F50E00E94816410E00E5F1F4F8C
:101EA000E00EF11E80E492E09A838983F301EE0D47
:101EB000FF1DE451FF4F99E39083ACEEB0E0EA0ED2
:101EC000FB1EF301EE0DFF1DB2E0B18389819A8103
:101ED000082E892F902D9A8389833196928381834E
:101EE000E8E1FFEFEE0EFF1E8F8D98A14F81588520
:101EF00069857A85930187010E948F0797FF0BC040
:101F00002F81388549855A852F5F3F4F4F4F5F4F4F
:101F100009F0D0C09CC08F8D98A14B8D5C8D6D8DCC
:101F20007E8D9301820171010E948008BC0100979F
:101F300009F4C0C018161906A4F4C3010E940406CF
:101F40008C01009781F0DC018C91853061F48091E7
:101F50005105909152050E94BF05109352050093C0
:101F6000510500E010E0109255050115110509F02A
:101F70009BC0BAC9893009F07EC0E0915105F0914B
:101F80005205309709F448C0892C8394992009F0B0
:101F900042C0E180F28003811481818D928DA38DF6
:101FA000B48D8B839C83AD83BE83C30167E02B8D8F
:101FB0003C8D4D8D5E8DCC24DD240E9429048C0146
:101FC0008B819C81AD81BE810097A105B105C1F0D7
:101FD000F301E00FF11FE451FF4FB6E3B08304516A
:101FE0001F4FF301E00FF11F24E021838B819C81BF
:101FF000AD81BE8182839383A483B583065E104046
:102000008F8D98A14F81588569857A8593010E94AB
:102010008F0797FF0EC0982C8F819885A985BA8568
:102020008F5F9F4FAF4FBF4F09F045C010925505CE
:1020300042C08F8D98A14B8D5C8D6D8D7E8D9301EF
:10204000820171010E948008BC0197FF03C01092B9
:10205000550530C0009771F1C3010E9404068C0140
:10206000009741F1DC018C91853011F08630E1F46C
:102070001092550519C08823F1F480915105909173
:1020800052050E94BF0510925205109251058AE533
:1020900095E00E94D14D88E595E040E050E060E099
:1020A00070E00E94334EE0CCC8010E94BF051CC9FD
:1020B0009B2C01C0982C892C17C98F929F92AF92AC
:1020C000BF92CF92DF92EF92FF920F931F93CF9325
:1020D000DF93EC014B0159016A018091F905909160
:1020E000FA05009731F00E94A63E1092FA05109270
:1020F000F9058091FB059091FC05009731F00E9455
:10210000A63E1092FC051092FB05209739F0CE01F7
:102110000E94BC3E8093F9059093FA0581149104C6
:1021200039F0C4010E94BC3E8093FB059093FC05EE
:10213000A092FD05B092FE05C092FF05D092000668
:10214000E0920106F0920206009303061093040643
:10215000DF91CF911F910F91FF90EF90DF90CF9083
:10216000BF90AF909F908F900895AF92BF92CF9203
:10217000DF92EF92FF920F931F93CF93DF937B0138
:102180008C0159016A0188E090E00E94AC3EEC01AC
:102190000097C9F0E882F9820A831B83AC82BD8272
:1021A000CE82DF828FEF92E060EC71E1AE0120E041
:1021B00031E00E942952892B19F020E030E005C05F
:1021C000CE010E94A63E2FEF3FEFC901DF91CF91D4
:1021D0001F910F91FF90EF90DF90CF90BF90AF9045
:1021E00008952F923F924F925F926F927F928F92BB
:1021F0009F92AF92BF92CF92DF92EF92FF920F9396
:102200001F93DF93CF93CDB7DEB728970FB6F8941F
:10221000DEBF0FBECDBF3C012B016115710509F476
:102220008DC0009709F48AC080E091E09C838B8385
:1022300081E090E060E370E00E948A3E5C010097DC
:1022400009F47CC080E090E00E94EB154C010097FF
:1022500009F46EC062E070E1AE014D5F5F4F22E0B5
:1022600030E00E94B9148BE1F5018083F3014081D5
:10227000518162817381C4012BE730E08501F0E375
:10228000EF2EF12C0E94A515892B09F073C01E01B9
:102290000894211C311C1D821E821F821886C401D5
:1022A000BE016B5F7F4FA101950100E310E0E8E8FC
:1022B000CE2EE3E1DE2EE12CF12C0E943A15181609
:1022C00019060CF057C089819A818B37910529F442
:1022D000F5018081807C803C59F4F30180819181FB
:1022E000A281B3818F5F9F4FAF4FBF4FA1F242C01A
:1022F000F50180A591A5A2A5B3A5082E8B2FB02D21
:10230000092E9A2FA02D80589E47AA4AB348F20161
:1023100080839183A283B3838D819E81AF81B885B1
:10232000F30180839183A283B38300E010E024C093
:102330000FEF1FEFC5010E94A63E02C00FEF1FEF77
:10234000C80128960FB6F894DEBF0FBECDBFCF915F
:10235000DF911F910F91FF90EF90DF90CF90BF9092
:10236000AF909F908F907F906F905F904F903F9035
:102370002F9008950FEF1FEFC4010E940B15DACFC5
:10238000DF93CF93CDB7DEB728970FB6F894DEBFB3
:102390000FBECDBFFC01E080F180028113818480FB
:1023A0009580A680B780E982FA820B831C830E9405
:1023B000A63E8FE30E946149CC24DD24A5E06A2E6D
:1023C000712C6C0E7D1E2E010894411C511CC20103
:1023D000B3010E94F110892B51F189819A81AB815F
:1023E000BC818E159F05A007B10771F08FEFE8162D
:1023F0008FEFF8068FEF08078FEF180729F4E982AF
:10240000FA820B831C83E3CF83E0C816D1042CF03F
:1024100060E375E780E090E00FC00894C11CD11C18
:1024200068E873E180E090E00E94F44BD0CFC301F4
:102430000E94923BC501B4010E94F44BCC24DD24E0
:10244000C6CF2091370330913803009721F0909345
:10245000380380933703C9010895209166053091B0
:102460006705E0916805F0916905609366057093D2
:10247000670580936805909369054115510521F022
:102480005093360340933503B901CF0108958091ED
:10249000050690910606009731F00E94A63E109224
:1024A00006061092050680916C0590916D05892BAA
:1024B00051F080916E0590916F050E94A63E10929A
:1024C0006D0510926C0580916405909165050097EB
:1024D00031F00E940B151092650510926405089565
:1024E000EF92FF920F931F93CF93DF93EC018B0139
:1024F0007A01009741F4C0916E05D0916F0510925A
:102500006D0510926C050E94471210936B050093A5
:102510006A05F0923403E09233032097C9F0888172
:102520008823B1F0FE0101900020E9F73197EC1B00
:10253000FD0BF0936D05E0936C05CF0101960E94B1
:10254000AC3E80936E0590936F05BE010E949A6425
:1025500080916A0583FF1CC0809105069091060654
:10256000892B41F480E091E00E94AC3E8093050607
:10257000909306068091640590916505892B41F43E
:1025800082E092E00E94EB159093650580936405CC
:10259000DF91CF911F910F91FF90EF900895EF92EF
:1025A000FF920F931F937C0180916A0585FF19C0EC
:1025B0008091AB039091AC030E948938609105062D
:1025C00070910606A7010E9477388091AB03909125
:1025D000AC030E94893865E073E041E050E00E945E
:1025E0007738409166055091670560916805709154
:1025F0006905411551056105710571F0209135039B
:10260000309136030091050610910606809164050D
:10261000909165050E94A5151F910F91FF90EF9075
:102620000895DF92EF92FF920F931F93DF93CF9362
:1026300000D000D0CDB7DEB7AC018C0113709C0187
:1026400027703070809137039091380302C09595C0
:1026500087952A95E2F780FD03C020E030E0F0C0C6
:10266000487F5370452B31F48091330390913403AC
:10267000082B192B8091050690910606892B69F489
:1026800060916A0570916B056860409133035091C9
:10269000340380E090E00E94701200D000D000D09F
:1026A000EDB7FEB731968091050690910606ADB75D
:1026B000BEB712969C938E93119787E093E0938315
:1026C0008283158304830E9493397C018DB79EB762
:1026D00006960FB6F8949EBF0FBE8DBF8E010F5F9A
:1026E0001F4FC8010E94B53BC8010E94853BAC0149
:1026F000ADB7BEB71E970FB6F894BEBF0FBEADBF45
:10270000EDB7FEB7319680910506909106068E0DC5
:102710009F1D12969C938E9311978CE093E0938368
:102720008283DA0118962D913C911997C901880F7F
:10273000991F820F931F875C9C4F95838483169605
:102740008D919C9117979783868314968D919C9178
:1027500015979187808712968D919C9113979387F7
:1027600082878D919C91958784870E9493398C01F3
:102770000E0D1F1DE0910506F0910606E00FF11FFA
:1027800030E2D32ED0820F5F1F4F8DB79EB70E96CB
:102790000FB6F8949EBF0FBE8DBF80910506909135
:1027A00006062CE5E22E26E0F22E800F911FB701DF
:1027B0000E949A64D7010D900020E9F7AD55B6400C
:1027C000A00FB11F80916C0590916D05892B31F19F
:1027D000E0910506F0910606EA0FFB1FD0828D01FD
:1027E0000F5F1F4F809105069091060660916E0560
:1027F00070916F05800F911F0E949A6480916C0503
:1028000090916D05800F911FE0910506F0910606ED
:10281000E80FF91F2AE32083DC011196E0910506F9
:10282000F0910606EA0FFB1F80E280839D012F5F77
:102830003F4FE0910506F0910606E20FF31F10826C
:10284000C9010F900F900F900F90CF91DF911F91C2
:102850000F91FF90EF90DF900895EF92FF920F930A
:102860001F93CF93DF93F62EE72E8A010E94111358
:10287000EC01009719F1AF2DBE2DFD010190002054
:10288000E9F73197EA1BFB0BE80FF91FEF3FF10562
:1028900031F028F083E293E00E946F390FC08091FD
:1028A0000506909106068C0F9D1F6F2D7E2DA801A9
:1028B0000E94A4398C0F9D1F0E94CF12DF91CF91EF
:1028C0001F910F91FF90EF900895DF93CF93CDB7B5
:1028D000DEB79E01275F3F4F8D819E816F81788596
:1028E000A9010E942D14CF91DF910895CF93DF931A
:1028F000FC01EB01DA01009719F426E230E01FC079
:1029000084859585009719F420E030E018C09C017B
:1029100082899389082E892F902D8D939C9386858B
:102920009785A089B18988839983AA83BB831586FB
:102930001486138A128A16861786108A118AC9018C
:10294000DF91CF9108959C01E0910706F091080670
:102950000AC0828193818217930711F49F0107C0F7
:102960000190F081E02D3097A1F720E030E0C9011F
:102970000895DC01FA01009791F06250704179F4FA
:102980004115510561F02230310549F48081918172
:102990001B969C938E931A9720E030E002C02FEF95
:1029A0003FEFC9010895DC01FA01009791F06250F0
:1029B000704179F44115510561F02230310549F437
:1029C0001A968D919C911B979183808320E030E033
:1029D00002C02FEF3FEFC90108950F931F93FC0131
:1029E000009719F42FEF3FEF12C046875787608B8F
:1029F000718B338B228B1587048786819781892B76
:102A000021F0CF0106960E94DE4D20E030E0C901A2
:102A10001F910F910895CF93DF93EC01E09107068A
:102A2000F0910806A7E0B6E01DC0EC17FD07B1F471
:102A3000888199818D939C9307C0808191819D832A
:102A40008C83CF010E94264FEC81FD813097A9F73E
:102A5000CE010E94A63E20E030E008C0DF010190D8
:102A6000F081E02D309709F72FEF3FEFC901DF919B
:102A7000CF9108954F925F926F927F928F929F9223
:102A8000AF92BF92CF92DF92EF92FF920F931F937C
:102A9000CF93DF935C014B013A01522E432EFC0190
:102AA00084819581892B31F4C5010696B701A60171
:102AB0000E94334EF501C481D581209719F400E0BE
:102AC00010E031C088819981F50195838483EF817D
:102AD000F88584859585A685B785F40180839183E3
:102AE000A283B383EB85FC8580819181082E892F99
:102AF000902DF3019183808349895A8940175107AA
:102B00000CF48A01F50180859185841B950B9187D2
:102B100080876F857889852D942DA8010E94816416
:102B2000CE010E94264FC801DF91CF911F910F91D6
:102B3000FF90EF90DF90CF90BF90AF909F908F90DD
:102B40007F906F905F904F9008956F927F928F92D9
:102B50009F92AF92BF92CF92DF92EF92FF920F932C
:102B60001F93CF93DF934C015A016B01390180E031
:102B700090E060E8A7010E94FA50EC01009741F450
:102B80008CE090E0F401958784870FEF1FEF13C06E
:102B90008F859889B801A7010E948164C401B6019C
:102BA000A50193018E010E94B11C8C01009719F4BC
:102BB000CE010E94264FC801DF91CF911F910F9146
:102BC000FF90EF90DF90CF90BF90AF909F908F904D
:102BD0007F906F900895CF93DF93EC018091700503
:102BE000882369F481E167E27CE10E947416892BF5
:102BF00019F020E030E041C081E08093700520971B
:102C000019F57091070660910806C0915E03D09196
:102C10005F03219611F4C0E0D0E1AE01042E452FF0
:102C2000502D872F962F9C01F90108C08281938136
:102C30008417950771F30190F081E02D3097B1F77B
:102C4000C0935E03D0935F0381E090E064E170E0A5
:102C50000E948A3EFC019C01009779F00C2ECD2F3A
:102C6000D02DD383C283809107069091080691836B
:102C70008083F0930806E0930706C901DF91CF91A6
:102C80000895DF92EF92FF920F931F93CF93DF93FC
:102C90007C018B01DB011796ED91FC911897D18493
:102CA000C0917105D091720512C08A81D81661F465
:102CB000EB81FC81309741F0C701B8010995892B60
:102CC00019F420E030E007C00990D881C02D20978A
:102CD00061F72FEF3FEFC901DF91CF911F910F9166
:102CE000FF90EF90DF9008951F93CF93DF93182FFD
:102CF000EB01A0917105B091720508C012968C91FC
:102D000012978117F9F00D90BC91A02D1097B1F793
:102D100024C012838091710590917205009759F437
:102D2000B0937205A093710581E496E190932C060F
:102D300080932B0607C011969C938E93B0937205D7
:102D4000A09371051496DC93CE93139720E030E0A6
:102D5000C901DF91CF911F91089581E090E065E076
:102D600070E00E948A3EFC01DC01009791F62FEF93
:102D70003FEFEECFDF92EF92FF920F931F93CF932F
:102D8000DF937B018C01EA014115510521F0188286
:102D900019821A821B822FEFE2162FEFF2062FEF15
:102DA00002072FEF120789F0D801C701082E8B2FD9
:102DB000B02D092E9A2FA02D80709070A070B07F3A
:102DC00080509040A040B04E39F4E0910906F09157
:102DD0000A063097E1F53EC0D090090670910A06C8
:102DE00060E08D2D972F9C01F90114C08681978199
:102DF000A085B1858E219F21A023B123228133811B
:102E00004481558182179307A407B50731F00190DB
:102E1000F081E02D309751F71DC0209761F0828539
:102E20009385A485B5850097A105B10521F0888318
:102E30009983AA83BB8386859785892B41F4E28495
:102E4000F384048515856F5F643059F603C02685C9
:102E5000378502C020E030E0C901DF91CF911F919A
:102E60000F91FF90EF90DF9008952F923F924F9235
:102E70005F926F927F928F929F92AF92BF92CF920A
:102E8000DF92EF92FF920F931F93CF93DF932B016B
:102E90003C0149015A011601C0910906D0910A0668
:102EA00089E0C82E86E0D82E04C06E010990D88132
:102EB000C02D209749F08E819F81A885B9858816FD
:102EC0009906AA06BB0688F380E190E00E94AC3E1A
:102ED000FC01009719F42FEF3FEF19C0482059204B
:102EE0006A207B2042825382648275828682978226
:102EF000A086B186E286F386048715873786268604
:102F0000D183C083D6018D939C9320E030E0C9012A
:102F1000DF91CF911F910F91FF90EF90DF90CF90B5
:102F2000BF90AF909F908F907F906F905F904F90E9
:102F30003F902F900895CF93DF93EC011982188270
:102F4000E0910906F0910A0606C0019699838883EC
:102F50000190F081E02D888199813097B1F724E0CC
:102F6000880F991F2A95E1F70E94AC3E9C010097BB
:102F7000A1F0E0910906F0910A060CC0E901DF0119
:102F800080E10D9009928150E1F7205F3F4F019061
:102F9000F081E02D309791F702C019821882C901A3
:102FA000DF91CF9108954F925F926F927F928F92AF
:102FB0009F92AF92BF92CF92DF92EF92FF920F93C8
:102FC0001F932B013C0149015A012FEF3FEF35C000
:102FD00082819381A481B58184159505A605B705E5
:102FE00011F586819781A085B18588159905AA0577
:102FF000BB05C9F482859385A485B5858E159F058B
:10300000A007B10781F4868597858C159D0559F435
:103010008081918190930A0680930906CF010E94D6
:10302000A63E20E030E0E0910906F0910A0680819A
:10303000918190930A0680930906E0910906F09128
:103040000A06309729F6C9011F910F91FF90EF9062
:10305000DF90CF90BF90AF909F908F907F906F90B8
:103060005F904F900895CF93DF93EC0117C0868552
:1030700097858C179D0711F0209751F480819181DD
:1030800090930A0680930906CF010E94A63E06C0CF
:103090008081918190930A0680930906E091090648
:1030A000F0910A06309719F780E090E0DF91CF9118
:1030B0000895DF93CF9300D000D0CDB7DEB7FC01E9
:1030C00019821A821B821C82DE01119640E08081E7
:1030D00080538A3098F520E030E0C90163E0880F22
:1030E000991F6A95E1F7220F331F820F931F2191D9
:1030F000332727FD309520533040280F391F80811A
:1031000080333CF08A332CF42F3F310531F328F320
:1031100015C02F3F310509F088F44F5F2C93808153
:103120008E3239F0443051F429813A814B815C81EF
:1031300009C0443019F011963196C9CF2FEF3FEFF7
:103140004FEF5FEFB901CA010F900F900F900F90F2
:10315000CF91DF910895AF92BF92CF92DF92EF921D
:10316000FF920F931F93DF93CF93CDB7DEB72797CF
:103170000FB6F894DEBF0FBECDBF6C837D838E8308
:103180009F83E4E0EE2EF12CEC0EFD1E05E815E029
:103190006E010894C11CD11C5EE277E0A72EB12C11
:1031A000AC0EBD1ED7014C9130E0842F6AE00E9426
:1031B000DE63292F842F0E94DE63482FF601E30F80
:1031C000F11D205D20833F5F882379F7932FF7015E
:1031D0001082D80106C03150F601E30FF11D808145
:1031E0008D933323C1F7F801E90FF11DDF015D93E2
:1031F0008D01EA14FB0421F00894E11CF11CD2CFEC
:10320000108285E895E027960FB6F894DEBF0FBED2
:10321000CDBFCF91DF911F910F91FF90EF90DF9085
:10322000CF90BF90AF900895DF93CF93CDB7DEB727
:1032300060970FB6F894DEBF0FBECDBF9C01DE01D4
:103240001196E0E6F3E080E101900D928150E1F704
:10325000A901A3E7B5E020E030E0BE016F5F7F4F3A
:103260009AE3FA01808182958F70FB01E80FF11DCE
:1032700080818C93FA0180818F70FB01E80FF11D32
:10328000808111968C9311972530310521F012968B
:103290009C93129703C012961C9212972F5F3F4F78
:1032A0004F5F5F4F139626303105D9F683E795E0DF
:1032B00060960FB6F894DEBF0FBECDBFCF91DF9101
:1032C0000895EF92FF920F931F93DF93CF9300D057
:1032D00000D0CDB7DEB749835A836B837C830E94CD
:1032E000A84E7C01009769F1DC011B968C911B971D
:1032F000833039F51F96ED91FC915097808186308F
:1033000001F55596ED91FC9156973097D1F0C70194
:1033100068E070E1AE014F5F5F4F09958C01009747
:1033200091F449815A816B817C81403EB0E05B071A
:10333000B0E06B07B1E07B0731F0C7010E942022AB
:1033400002C00FEF1FEFC8010F900F900F900F906A
:10335000CF91DF911F910F91FF90EF900895EF9221
:10336000FF920F931F93DF93CF9300D000D0CDB780
:10337000DEB749835A836B837C830E94A84E7C010D
:10338000009769F1DC011B968C911B97833039F50E
:103390001F96ED91FC9150978081863001F55596EE
:1033A000ED91FC9156973097D1F0C70167E070E13D
:1033B000AE014F5F5F4F09958C01009791F44981F1
:1033C0005A816B817C81403EB0E05B07B0E06B07C7
:1033D000B1E07B0731F0C7010E94262202C00FEF47
:1033E0001FEFC8010F900F900F900F90CF91DF91BA
:1033F0001F910F91FF90EF9008952F923F924F925F
:103400005F926F927F928F929F92AF92BF92CF9274
:10341000DF92EF92FF920F931F93DF93CF9300D031
:1034200000D000D0CDB7DEB71C012A013B01480116
:103430005901C982DA82EB82FC82DC011F968C91F1
:103440001F9750969C91411551056105710581F4B6
:1034500040901B0650901C0660901D0670901E0642
:10346000411451046104710419F42FEF3FEFA8C017
:103470008D839E83ED81FE814386548665867686A4
:1034800081149104A104B10431F481E793E00E9416
:1034900059184B015C01AD81BE8153968D929D926E
:1034A000AD92BC925697C501B40164217521862165
:1034B0009721A5019401EE24FF24870161010E9458
:1034C000351789819A81AB81BC810097A105B1052F
:1034D00071F060E070E080E090E020E030E040E0FB
:1034E00050E0E980FA800B811C810E943517ACE026
:1034F000B6E0F101329689E001900D928150E1F73A
:10350000AD81BE8115962C91159716968C911697C4
:10351000822B17969C911797892B18969C91189738
:10352000892B19969C911997892B1A969C91892B16
:1035300061F020FD0AC0A5E1B6E0ED81FE8135967F
:1035400086E001900D928150E1F740921B06509267
:103550001C0660921D0670921E0680921F069092B5
:103560002006A0922106B092220689819A81AB8121
:10357000BC810097A105B105A1F48091230690912B
:103580002406A0912506B091260684259525A6251A
:10359000B72588219921AA21BB210097A105B10552
:1035A00061F089819A81AB81BC81809323069093DD
:1035B0002406A0932506B09326060E94E31B9C01D7
:1035C000C90126960FB6F894DEBF0FBECDBFCF91CE
:1035D000DF911F910F91FF90EF90DF90CF90BF9000
:1035E000AF909F908F907F906F905F904F903F90A3
:1035F0002F9008952F923F924F925F926F927F92F9
:103600008F929F92AF92BF92CF92DF92EF92FF92F2
:103610000F931F93DF93CF93CDB7DEB728970FB6E5
:10362000F894DEBF0FBECDBF6F83788719012A01E2
:10363000370148010E94A84EFC01009709F491C08F
:103640008385833009F08DC0FA83E983A785B0892B
:103650008C91863009F040C02589368921153105C5
:1036600041F18E010D5F1F4FCF0164E070E1A801B1
:10367000F9010995E981FA8125893689CF0165E04B
:1036800070E14F815885F90109958B819C81AD814D
:10369000BE8181608B839C83AD83BE83E981FA8187
:1036A00025893689CF0163E070E1A801F901099508
:1036B0000AC015968F8198859C01F90186E00190DA
:1036C0000D928150E1F789819A81B201A1019401A3
:1036D00083017601650141C0873109F042C0C1888C
:1036E000D288F60121A232A243A254A2E114F1042D
:1036F0000105110521F466246A94762C4301F60134
:1037000061A672A683A694A6C6010E94D14DF601B9
:10371000FF968081918167E171E0AE014F5F5F4F5D
:103720000E946238C60140E65AEE60E070E00E94F6
:10373000334E892BB1F4F60184AD893091F441A167
:1037400052A163A174A101A512A523A534A5C5A00A
:10375000D6A0E7A0F0A489819A810E94FD199C015E
:1037600002C02FEF3FEFC90128960FB6F894DEBFD5
:103770000FBECDBFCF91DF911F910F91FF90EF90C2
:10378000DF90CF90BF90AF909F908F907F906F9081
:103790005F904F903F902F900895AF92BF92CF923D
:1037A000DF92EF92FF920F931F93AA24BB2465012F
:1037B0000E94FA1A1F910F91FF90EF90DF90CF9027
:1037C000BF90AF90089580E280930B0680E490E074
:1037D0006BE076E040E250E00E945551892B19F4ED
:1037E00020E030E002C02FEF3FEFC9010895CF93F2
:1037F000DF93EC0180E490E06BE076E040E250E0A3
:103800000E945851892BE9F480910B06803251F4C3
:103810008CE096E0BE010E949164009719F420E0CC
:1038200030E011C0EBE0F6E080E2DF011D928A9506
:10383000E9F7CF010A966FEF70E046E050E00E9492
:103840008A642FEF3FEFC901DF91CF9108950F9365
:103850001F93CF93DF93EB01EB85FC853097E9F164
:103860002D853E8528303105C0F1285030403A8BF7
:10387000298B88E090E09E878D87232B21F0389656
:10388000F88BEF873897828193810E94A3148C0173
:10389000009781F48A8183FF20C083E063E020E009
:1038A00030E040E050E08E010E948A21892B09F02F
:1038B00051C013C0DC011A964D915C911B974115C4
:1038C000510569F189899A8918962D913C9119972A
:1038D000820F931F4817590724F4CE010E94264FE8
:1038E00039C0D8011496ED91FC911597309751F09D
:1038F000CF010190F081E02D3097D1F7FC01D18309
:10390000C08303C0F801D583C483D80118968D9174
:103910009C91199729893A89820F931F0EC0FC0147
:1039200084819581009711F00E94264FD801159649
:10393000DC93CE93149789899A8919969C938E93D8
:103940001897F80186819781892B21F0C801069686
:103950000E94DE4D80E090E0DF91CF911F910F91AA
:1039600008954F925F926F927F928F929F92AF9243
:10397000BF92CF92DF92EF92FF920F931F93DF934C
:10398000CF9300D000D0CDB7DEB72C013A014B0168
:103990007901C80160E448E050E00E94FA505C01FF
:1039A000009719F42FEF3FEF5BC0FC01C384D48470
:1039B000F20182819381F601918380830E2CEF2C9A
:1039C000F02CF382E282F501818992892585368582
:1039D000820F931F082E892F902DF60195838483E3
:1039E000C401B301AE014F5F5F4F0E94BA16FC01E4
:1039F000009761F00784F089E02D83859485A58583
:103A0000B68589839A83AB83BC8304C019821A82EA
:103A10001B821C82F6011782168269817A818B8152
:103A20009C81E480F580A401930101E10E94831D43
:103A3000DC01CB01B60148E050E00E94461DF501D3
:103A400067857089418952890E947C1DF6019783A0
:103A5000868381E1B401A30195010E94BB1E9C01F4
:103A6000C9010F900F900F900F90CF91DF911F9190
:103A70000F91FF90EF90DF90CF90BF90AF909F900D
:103A80008F907F906F905F904F900895EF92FF928C
:103A90000F931F937C0100E010E0FB010FC0318108
:103AA00020E0808190E0822B932BA0E0B0E0E80E34
:103AB000F91E0A1F1B1F32964250504042305105DA
:103AC00074F7452B61F08081E80EF11C011D111D7A
:103AD00006C000E010E0E80EF91E0A1F1B1FC80117
:103AE000AA27BB270097A105B10599F7C7011F9128
:103AF0000F91FF90EF9008950E94461D9C01209524
:103B00003095C9010895EF92FF920F93DF93CF9301
:103B1000CDB7DEB72C970FB6F894DEBF0FBECDBF82
:103B200069837A838B839C832D833E834F8358875D
:103B300019860A87FC86EB8680E090E0BE016F5F05
:103B40007F4F4CE050E00E94461DBC0180E090E0B9
:103B50002C960FB6F894DEBF0FBECDBFCF91DF918C
:103B60000F91FF90EF90089590939605809395059F
:103B70000895AF92BF92DF92EF92FF920F931F933F
:103B8000CF93DF935C01EB010F811885D8018C91F5
:103B9000807F803409F0E2C016968D919C91179732
:103BA000082E892F902D9F73892B09F0D7C0E091A3
:103BB0009505F0919605309751F01C966D917D9189
:103BC0008D919C911F970995892B09F0C7C0F80129
:103BD00060816F70660F660F643108F4BFC0E62E17
:103BE000FF2489859A858E159F050CF4B7C0D801EE
:103BF00050962D913D914D915C915397F50187859C
:103C000090892F3FFFEF3F07FFEF4F07FFEF5F0761
:103C100009F457C0FC0183859485A585B685009776
:103C2000A105B105A9F083899489A589B6898F3F3B
:103C30007FEF97077FEFA7077FEFB70749F0822B4A
:103C4000932BA42BB52B8F5F9F4FAF4FBF4FC9F165
:103C5000DA01C901807F9070A070B070803E91053C
:103C6000A105B105B1F4058CF68DE02D0FC080855E
:103C70009185A285B385281739074A075B0719F490
:103C800082E0D82E22C00190F081E02D309779F7A4
:103C900065C08A8188608A8383859485A585B68579
:103CA0000097A105B10581F02115310541055105A8
:103CB00009F454C0281739074A075B0709F04EC0BA
:103CC00003C0DD24D39401C0DD24D80112962D91C8
:103CD0003C911397022E232F302D3E872D872E15D2
:103CE0003F05E4F189859A8582179307BCF1FA862E
:103CF000E986C9018E199F099E878D87892B29F036
:103D0000C801860F911D9C878B87E0912B06F0914F
:103D10002C06309729F0C501BE010995892B09F1C0
:103D2000F8018185813019F0823059F405C0C50150
:103D3000BE010E948A2015C0C501BE010E942C222E
:103D400010C0DD2059F483E062E020E030E040E084
:103D500050E08E010E948A21892B19F4CE010E9425
:103D6000264FDF91CF911F910F91FF90EF90DF9041
:103D7000BF90AF9008955F926F927F928F929F92C3
:103D8000AF92BF92CF92DF92EF92FF920F931F9369
:103D9000DF93CF93CDB7DEB72E970FB6F894DEBF83
:103DA0000FBECDBFF82E4B875C876D877E8762E0A4
:103DB000861729F0C90160E244E150E004C0C9015E
:103DC00060E248E150E00E94FA504C01009709F48B
:103DD00085C1DC0117960D911C911897F80180811F
:103DE0008F7080648083807FF2E0FF1621F486600C
:103DF000D8018C9303C08560F8018083D8011196A7
:103E00001C921197F4018585968521853285820F54
:103E1000931F21893289820F931F082E892F902D9D
:103E200013969C938E93129717961C921E92169738
:103E3000B2E0FB1621F481E0F801808704C080E441
:103E4000D80118968C93F801F1862B853C854D8519
:103E50005E85D80150962D933D934D935C93539777
:103E6000B2E0FB1671F480E090E0A4E0B4E9082E23
:103E70008B2FB02D092E9A2FA02D848B958BA68B7E
:103E8000B78B2F3FFFEF3F07FFEF4F07FFEF5F07B6
:103E900091F0DA01C901082E8B2FB02D092E9A2F2F
:103EA000A02D80709070A070B07F80509040A04096
:103EB000B04E51F088C0CE0105966FEF70E046E03D
:103EC00050E00E948A640EC081E08D831E828EE5E0
:103ED0008F83FE013B9681818F77888782818987D6
:103EE00083818A87C090C805D090C9055524539412
:103EF00085E0682E712C6C0E7D1E60C0D6011B966D
:103F00008C91833009F057C0C40160E20E941A50BE
:103F10005C01F601E784F088DC0117966C91179735
:103F200018967C918B01F701218D328DC901082EE5
:103F3000892F902DD80115969C938E9314972F5FFF
:103F40003F4F328F218F83859485A585B685F801F3
:103F500084879587A687B787508613861286D501F2
:103F600019964D915C911A9780E090E00E947C1D1B
:103F7000F80193878287D7018C91863049F4939614
:103F8000ED91FC919497C60160E078E0A3010CC02C
:103F9000873171F4D7019396ED91FC919497C60106
:103FA00061E270E040E050E095010995892B19F439
:103FB000C5010E94264FF601C080D180C114D104F2
:103FC00009F09CCF8EC0CA01B901AE014F5F5F4FAF
:103FD0000E94BA166C01009709F47DC0DC011F969F
:103FE000ED90FC905097F701218D328DC901082E7C
:103FF000892F902DD80115969C938E9314972F5F3F
:104000003F4F328F218F83859485A585B685F80132
:1040100084879587A687B78713861286D40117965B
:104020006D917C91189719964D915C911A9780E04B
:1040300090E00E947C1DF80193878287D7018C91C4
:104040008630C9F549815A816B817C8141155105C2
:1040500061057105E1F44B855C856D857E85539620
:104060008D919D910D90BC91A02D842B952BA62B0D
:10407000B72B8F5F9F4FAF4FBF4F49F4CE010596CF
:104080006FEF70E046E050E00E948A6408C0C6010D
:104090009E012B5F3F4F0E942C23892B11F5D701E6
:1040A0009396ED91FC919497C60160E078E0AE01A3
:1040B0004B5F5F4F0CC0873171F4D7019396ED9140
:1040C000FC919497C60161E270E040E050E09401F9
:1040D00009959C0108C0C4010E94264F2FEF3FEFB5
:1040E00002C020E030E0C9012E960FB6F894DEBF82
:1040F0000FBECDBFCF91DF911F910F91FF90EF9039
:10410000DF90CF90BF90AF909F908F907F906F90F7
:104110005F900895FF920F931F93CF93DF93FC015D
:104120008B01DB011B96CD91DC911C97209709F444
:104130007AC01D968D919C911E978830910508F448
:1041400072C00897DB0152969C938E935197892BEE
:1041500061F028965096DC93CE931F97289788E0BD
:1041600090E01E969C938E931D978881833019F161
:10417000883009F058C0D80117962D913C911897B6
:10418000D9011C964D915D916D917C911F9707848B
:10419000F089E02D83859485A585B685F90184870E
:1041A0009587A687B7878FEF808780E098010E9468
:1041B0001C21892BD9F5F980D80151968D919C91BC
:1041C00052974C9780F11F960D90BC91A02D199697
:1041D0008C911997863039F5FD01E057FE4F6081CB
:1041E00071811C962D913D914D915C911F9782811B
:1041F00093810E947B2FDC010097A9F053968C914C
:104200005397823029F053968C915397843059F408
:10421000EF2DF0E0EE0FFF1FE158FC4F6081718140
:10422000CD010E943825C8010E94264FDF91CF9111
:104230001F910F91FF900895AF92BF92CF92DF929E
:10424000EF92FF920F931F935A016B018901F901BD
:10425000E384F484F701808313821282F901638579
:1042600074854585568580E090E00E94461DF801E2
:1042700067857089418952890E947C1DF70193836B
:10428000828381E0B601A50198010E94BB1E1F91A7
:104290000F91FF90EF90DF90CF90BF90AF90089577
:1042A0006F927F928F929F92AF92BF92CF92DF9246
:1042B000EF92FF920F931F93682E762E49015A01B9
:1042C000C60160E448E050E00E94FA50DC0100972B
:1042D00019F42FEF3FEF10C01B96ED91FC911C9746
:1042E000718284829582A682B782862DB801A70149
:1042F0009D010E941C219C01C9011F910F91FF90FB
:10430000EF90DF90CF90BF90AF909F908F907F9075
:104310006F9008958F929F92AF92BF92CF92DF924B
:10432000EF92FF920F931F93CF93DF93982E862ED9
:1043300059016A01D8011796ED91FC911897E48410
:10434000F58406851785CD0160E84CE150E00E94B8
:10435000FA50FC01009719F42FEF3FEF21C0278599
:104360003089C901EC0127813085C901DC0184E174
:104370000D9009928150E1F7A785B0895496838505
:1043800094859C01E90188E009900D928150E1F744
:10439000892D682DA60195016F010E9450219C0175
:1043A000C901DF91CF911F910F91FF90EF90DF90A6
:1043B000CF90BF90AF909F908F900895BF92CF9273
:1043C000DF92EF92FF920F931F93CF93DF93B62E5E
:1043D00069017A0180E090E060E448E050E00E94EA
:1043E000FA50EC01009711F10B851C8588E090E0F4
:1043F0009E878D87F801B0821182C482D582E682C1
:10440000F782138212826B857C854D855E8580E004
:1044100090E00E947C1DF8019383828382E040EE4D
:1044200050E060E076E19E010E94BB1EDF91CF91DB
:104430001F910F91FF90EF90DF90CF90BF90089564
:104440009A01AB0167E10E94DE2108959A01AB0158
:1044500066E10E94DE210895EF92FF920F931F9371
:10446000CF93DF938C01FB01A385B485EC01EF842E
:10447000F888109739F18585968508971CF18C91FD
:10448000823101F18631F1F08131E1F4CB010E94FA
:10449000264FF701C58DD68D12C0488559856A858E
:1044A0007B85403EF0E05F07F0E06F07F1E07F07BB
:1044B00019F0C8010E9426220990D881C02D2097AA
:1044C00061F703C0CF010E94264FDF91CF911F916A
:1044D0000F91FF90EF9008950F931F93CF93DF9369
:1044E000FC01C38DD48D8C01055E1F4F17C08C85D8
:1044F00080FF10C0CE010E960E94994D888199814F
:10450000F80191838083CE010E94A63EF801C0810C
:10451000D18104C08E010990D881C02D209739F730
:10452000DF91CF911F910F910895CF93DF930E9458
:10453000614B2091970530919805409199055091D4
:104540009A05621B730B840B950B6C337105810507
:104550009105D8F10E94614B60939705709398057F
:104560008093990590939A05C091C805D091C9058B
:104570002AC08B85833021F5AF85B889109701F16A
:104580008C918630E9F45B96ED91FC915C9720E08C
:1045900010C0948592FD08C085858F5F8587815006
:1045A000893010F0916094878485282B0190F081E8
:1045B000E02D309771F720FF03C0CD010E946C22DF
:1045C0000990D881C02D2097A1F6DF91CF91089551
:1045D000AF92BF92CF92DF92EF92FF920F931F9311
:1045E000CF93DF935C017A018B0169010E949522D0
:1045F00080E190E00E94AC3EFC01009709F180E16F
:10460000DF011D928A95E9F7E282F3820483158324
:10461000C114D10451F0EF012696D60186E00D9029
:1046200009928150E1F782E08487D5015B968D91F4
:104630009C915C97918380835C96FC93EE935B974F
:10464000CF01DF91CF911F910F91FF90EF90DF90FD
:10465000CF90BF90AF9008952F923F925F926F924C
:104660007F928F929F92AF92BF92CF92DF92EF9202
:10467000FF920F931F93DF93CF9300D000D0CDB75D
:10468000DEB71C015A016B013A832983DC011F96B6
:104690006D907C9050970E949522F301038CF48DCD
:1046A000E02DFC83EB830FC0EB81FC818281938141
:1046B000A481B5818A159B05AC05BD05C1F080813B
:1046C00091819C838B83AB81BC81AB2B69F7BFC08D
:1046D00081E090E0B601A50120E030E00E949B243B
:1046E0004C01009731F4EB81FC8184854DC0882416
:1046F00099245524539494EFE92E91E0F92E012D3D
:10470000112DAB81BC811C968C911C9781FF18C028
:104710004B815C8126E030E02150304069817A8114
:10472000620F731F1B968C911B97FB01808311975F
:104730002115310589F75C834B8300E010E056C0FA
:10474000552009F451C08114910421F1C101B40133
:104750000E946524892BF1F0D3015B96ED91FC91C9
:104760005C970CC082819381A481B5818A159B05D9
:10477000AC05BD0531F00190F081E02D309791F747
:104780004DC0848581FD4AC081608487C3010E9439
:104790006C2244C08B819C810E96B801A7010E94B7
:1047A000334EF301038CF48DE02DFC83EB8318C0B2
:1047B000EB81FC8182819381A481B5818A159B055F
:1047C000AC05BD0531F45A94EE0CFF1C001F111FFF
:1047D00098CFAB81BC810D90BC91A02DBC83AB83E5
:1047E000EB81FC81EF2B21F70FEF1FEF8114910478
:1047F000B9F0C4010E94264F0115110589F08B8183
:104800009C81009769F0DC011C968C911C9781605B
:104810001C968C93C3010E946C2202C00FEF1FEF05
:10482000C8010F900F900F900F90CF91DF911F91C3
:104830000F91FF90EF90DF90CF90BF90AF909F903F
:104840008F907F906F905F903F902F900895C3015D
:10485000B601A50120E030E00E94E8229C838B8312
:10486000892B09F035CFDACFCF93DF93FC01C785D1
:10487000D089EB8DFC8D0CC082819381A481B581A0
:1048800084179507A607B70731F00190F081E02D56
:10489000309791F714C0848582FD0CC01586EF0116
:1048A0002696D90186E00D9009928150E1F7848522
:1048B00082608487CF010E960E94D14D03C0CE0145
:1048C0000E94E822DF91CF9108950F931F93CF9319
:1048D000DF93AC018B01DB011796CD91DC9118972A
:1048E000DC011F96ED91FC9150979E01285F3F4F90
:1048F000BF016B5F7F4F86E0DB010D90BD01D901E9
:104900000D929D018150C1F783859485A585B6855B
:104910008E879F87A88BB98B629603A0F4A1E02DA8
:10492000CA0166E078E0AE0198010995DF91CF9168
:104930001F910F9108958F929F92AF92BF92CF9245
:10494000DF92EF92FF920F931F93CF93DF938C012F
:104950004A015B01690180E090E060E24CE150E0D7
:104960000E94FA507C01009709F433C0FC01C78112
:10497000D08581E090E0082E892F902D998388833F
:1049800080E098E0082E892F902D9B838A8386E013
:104990008C8384E08D83002E012F102D1F830E83C6
:1049A0009E012E5E3F4FC114D10441F0D901F601A2
:1049B00086E001900D928150E1F707C0C9016FEFC9
:1049C00070E046E050E00E948A64888E998EAA8E3C
:1049D000BB8EC701DF91CF911F910F91FF90EF9098
:1049E000DF90CF90BF90AF909F908F900895CF931E
:1049F000DF939C01DB011D968D919C911E9745973D
:104A0000A0F11B96ED91FC911C977496E901CD5A8B
:104A1000DF4F1AC0613019F0623099F402C031964C
:104A200013C0528140E08381282F30E0242B352BA6
:104A3000888199812817390710F43983288334969F
:104A400003C08181E80FF11D6081662371F01B9620
:104A50008D919C911C979F01281B390B1D968D9160
:104A60009C911E9728173907ACF2DF91CF910895DA
:104A7000CF93DF93EC01CF59DF4F798368831A928C
:104A80001A921A921A92CD55D0408B89863018F01E
:104A90008AE08B8B01C01B8ACE010E946630CE015A
:104AA000815B9F4F0E94D14DCE01CA960E94D14D8D
:104AB000CE018D599F4F0E94D14DCE018B599F4FF2
:104AC0000E94D14D80E090E0DF91CF9108958091D8
:104AD0009B0590919C05892B99F48FE993E063E104
:104AE0007EE240E050E020E031E00E9429529093C5
:104AF0009C0580939B05892B19F42FEF3FEF02C093
:104B000020E030E0C9010895CF92DF92EF92FF924A
:104B10000F931F93CF93DF937C01FC0111821082CE
:104B200080919B0590919C05892B21F4C7010E94DF
:104B3000EF3542C0C0902D06D0902E06C114D1048E
:104B400029F4F0922E06E0922D062EC0F701C585BD
:104B5000D68581859285C80FD91F81899289C80F12
:104B6000D91F00919D0510919E050050184F0C0F04
:104B70001D1F85E496E00E941B4708171907C8F41B
:104B800080919D0590919E058C0F9D1F90939E0591
:104B900080939D05C601F601C080D180C114D10467
:104BA000C9F7FC01F182E0828FE296E00E94DE4DBF
:104BB00003C0C7010E94264FDF91CF911F910F9133
:104BC000FF90EF90DF90CF900895FC01009719F4CB
:104BD0002FEF3FEF0CC080A1886180A3CF0160E080
:104BE00070E040E050E00E94813620E030E0C901F2
:104BF00008950F931F93CF93DF93EC018B01DC019A
:104C0000A35BBF4FED91FC911197309751F0CF010D
:104C10000190F081E02D3097D1F7FC0111830083E2
:104C200002C06D937C93FE01EA5BFF4FD801519661
:104C30008D919C91529720813181820F931F918396
:104C40008083FE01E05CFF4F51966D917C915297FD
:104C5000CB01AA2797FDA095BA2F208131814281EF
:104C60005381820F931FA41FB51F80839183A2835A
:104C7000B383FE01EC5BFF4F808191816817790758
:104C800018F01182108204C0861B970B91838083D9
:104C900028A1822F806188A3F80180819181892BCE
:104CA00019F01182108202C0286128A3FE01E45B82
:104CB000FF4F10811F5F108319302CF1CA5BDF4F4B
:104CC000688179812796E881F981CD54D040212FE0
:104CD00018C0818992898F3F910509F054F4CF0162
:104CE0000E94824FC45BDF4F181B1883CC54D04006
:104CF0000AC0215028303CF0681B790B0190F081EC
:104D0000E02D309731F7CE0160E070E040E050E0F8
:104D10000E948136DF91CF911F910F9108951F93CB
:104D2000CF93DF93EC01162F8B89853009F466C091
:104D3000863088F4823051F1833038F4882309F4C6
:104D400065C0813009F09EC01DC0833039F18430C8
:104D500009F098C011C0883009F48DC0893030F452
:104D6000863069F1873009F08DC04DC08930C1F1BE
:104D70008A3009F087C07FC0653079F1663009F06C
:104D80007AC03EC0633009F076C005C0633019F0C8
:104D9000643049F422C088A182613EC0643009F4C5
:104DA00071C0653020F4113009F065C06BC065300A
:104DB00039F1663009F05FC088A181602DC067308D
:104DC00061F0683020F4663009F055C05BC0862F72
:104DD0008950823008F04FC055C088A188611CC03E
:104DE0006A3019F420E030E002C02FEF3FEF88A1D5
:104DF000886188A32115310581F03FC06830D9F55D
:104E000088A1816109C06A30B1F53CC06130D1F13F
:104E1000623089F588A1826088A381E01B8B88239A
:104E2000B1F0CE0160E070E040E050E00E948136D9
:104E3000892B69F0123059F4CF59DF4F80E490E0AC
:104E400099838883CE0104960E94494D14C0153081
:104E500079F4CE01815B9F4F0E94D14DCE018D59D7
:104E60009F4F0E94D14DCE018B599F4F0E94D14D33
:104E700020E030E002C02FEF3FEFC901DF91CF917A
:104E80001F91089580E0CACFCF93DF93EC0162E0D9
:104E90000E948F268B89823049F4CE018B599F4F17
:104EA00040E050E060E070E00E94334E8B89843037
:104EB00031F08B89853019F02FEF3FEF02C020E0F1
:104EC00030E0C901DF91CF910895CF93DF93EC01DA
:104ED0009B01FA01DB0150964D915D916D917C91A2
:104EE00053974C8B5D8B6E8B7F8B808191819F8FD5
:104EF0008E8F1C964D915D916D917C911F974A8F7D
:104F00005B8F6C8F7D8F84819581A681B781082E00
:104F10008B2FB02D092E9A2FA02D8CAF9DAFAEAF49
:104F2000BFAF8DA79EA7AFA7B8ABC05CDF4F019600
:104F3000A11DB11D88839983AA83BB83C054D0402F
:104F400086859785082E892F902D9EAB8DABF90114
:104F5000648575858685978540E050E00E94BA1685
:104F6000FC01009729F10784F089E02D8789908D55
:104F70008897CD5ADF4F28813981C355D0402115FC
:104F8000310519F08217930730F4CD5ADF4F99831A
:104F90008883C355D040CD5ADF4F28813981C3550E
:104FA000D04089899A892817390710F43A8B298BC0
:104FB000DF91CF9108950F931F93CF93DF93EC016F
:104FC000FC01E55AFF4F8081918101969183808396
:104FD0000197089720F0CE016CE370E013C0E8ADB4
:104FE000F9AD008111814A8D5B8D6C8D7D8D86E0E0
:104FF0009F010E94BB1E892B51F019AF08AFCE0153
:1050000062E370E00E9438252FEF3FEF09C00E9455
:10501000F54AC15ADF4F61607983688320E030E050
:10502000C901DF91CF911F910F910895AF92BF9267
:10503000CF92DF92EF92FF920F931F93CF93DF9364
:10504000EC01FB01BA01A084B184C284D3840A2C90
:10505000AD2CD02C0B2CBC2CC02C89A59AA5ABA5B3
:10506000BCA58A199B09AC09BD09B7FF04C088A17A
:10507000886188A3E3C08DA19EA1AFA1B8A5A816A1
:10508000B906CA06DB0609F036C02481358146819F
:105090005781022E252F502D032E342F402DEDA4A5
:1050A000FEA40FA518A9D801C701821B930BA40B5E
:1050B000B50BB7FD11C02E153F0540075107D9F4B8
:1050C00089A99AA9ABA9BCA986017501E81AF90AB0
:1050D0000A0B1B0B17FD0FC086859785082E892F9D
:1050E000902D9EAB8DAB2DA73EA74FA758ABA9AA7D
:1050F000BAAACBAADCAA2DA13EA14FA158A5D601E0
:10510000C501821B930BA40BB50BB7FD97C0A2166C
:10511000B306C406D506F9F488AD99AD892B09F418
:105120008DC0672B09F08AC0858590E083709070F0
:10513000892B09F083C08FA98F5F8FAB833008F470
:105140007DC01FAACE010E94DB27892B09F476C0FF
:105150002FEF3FEF75C01FAAADA2BEA2CFA2D8A667
:1051600086859785082E892F902D9EAB8DABCB5AC7
:10517000DF4F88819981AA81BB81C555D0400097B6
:10518000A105B10549F08A199B09AC09BD09B7FF12
:1051900003C0CE010E947F35CB5ADF4F188219829F
:1051A0001A821B82C555D04035C0DB011B96ED919C
:1051B000FC911C972481358146815781022E252F31
:1051C000502D032E342F402D51968D919C91529746
:1051D000AA2797FDA095BA2F280F391F4A1F5B1FDA
:1051E000858590E083709070892B21F02F5F3F4F71
:1051F0004F4F5F4FD601C501821B930BA40BB50B1C
:10520000B7FD0FC0FB018081918199AF88AFCB01C1
:105210000E94264F68AD79AD6115710509F0C5CFC3
:105220001BC00E94F54AC15ADF4F616079836883D1
:10523000CF55D040C55ADF4F1982188220E030E0A8
:10524000C901DF91CF911F910F91FF90EF90DF90F7
:10525000CF90BF90AF900895C15ADF4F1982188246
:10526000E7CF2F923F924F925F926F927F928F92F1
:105270009F92AF92BF92CF92DF92EF92FF920F93E5
:105280001F93DF93CF93CDB7DEB72C970FB6F8946B
:10529000DEBF0FBECDBF9C878B876B01DB011B96EA
:1052A0008D909C901C97F401B584DC0153968C91F1
:1052B000853009F4A5C3863098F4823009F4FDC125
:1052C000833038F4882309F40CC4813009F00DC40C
:1052D000E1C1833009F456C2843009F006C410C01D
:1052E000883009F4D2C3893038F4863009F4E3C237
:1052F000873009F0FAC39DC3893009F0F6C339C37A
:10530000EB85FC8505A8F6A9E02DFA83E983AB853A
:10531000BC8595962D903D904D905C9098972F82EE
:10532000388649865A86B2FE0AC0CB010E94264FB3
:105330008B859C8566E370E00E9438258BC1B1FEA9
:105340001AC0F40184819581A681B781082E8B2F24
:10535000B02D092E9A2FA02DEB85FC8524AD35ADFF
:1053600046AD57AD82179307A407B50731F0CB01BF
:105370000E94EF356FC1B4FC04C0C6010E94264FE5
:1053800069C1DB0151964D915C9152978B859C854B
:10539000B4010E941628EB85FC85E05CFF4FE0809D
:1053A000F18002811381E054F040FC87EB87D40147
:1053B00014962D913D914D915C911797DA01C90199
:1053C000082E8B2FB02D092E9A2FA02D1701280102
:1053D000281A390A4A0A5B0A57FE85C0D601519637
:1053E0004D915C9152974115510509F46BC0809124
:1053F000B7059091B805889615962D913C91169712
:10540000820F931F840F951F9093B8058093B70563
:1054100081599C40B0F0C6010E94264F8091B7058B
:105420009091B8058897F60121893289821B930BE8
:1054300025813681821B930B9093B8058093B70525
:1054400044C0EB85FC85EF5AFF4F608171815F019D
:1054500034C0D4011496ED90FD900D911C911797D6
:105460000E2CE12E102D0F2CF02E002DDB011B96A3
:10547000ED91FC911C972481358146815781022E44
:10548000252F502D032E342F402DD801C701821B0C
:10549000930BA40BB50BB7FF07C0F501D182C082F7
:1054A000D6016D937C9311C0E216F306040715072D
:1054B00049F05B01DB016D917C916115710509F08B
:1054C000C8CF17C3C6010E94264FEB85FC8580A17B
:1054D000886180A38B859C8560E070E040E050E0AF
:1054E0000E948136B7C0022E252F502D032E342F57
:1054F000402D2E153F054007510719F1AB85BC859E
:1055000090968C919097886190968C939097FD01DE
:10551000E159FF4F80819181A281B3810196A11D44
:10552000B11D80839183A283B383C6010E94264F5D
:105530008B859C8560E070E040E050E00E94813601
:1055400073C0F60181899289892B09F46AC08B8521
:105550009C85B6010E94F92541E5842E912C2B846F
:105560003C84820C931C30E4632E712C620C731CFF
:105570004BC0C384D484D60114964D915D916D9136
:105580007C9117971A012B01022C252C502C032CEF
:10559000342C402CD301ED90FD900D911C91D8013D
:1055A000C70182199309A409B509B7FD33C08081E9
:1055B0009181D4018D939C938091B7059091B8050A
:1055C000889721893289821B930B25813681821B22
:1055D000930B9093B8058093B705042E472F702D39
:1055E000052E562F602D4E155F056007710749F493
:1055F0008B859C85BF010E94F925F6018585B82A17
:1056000003C0CF010E94264FD401ED91FC91309749
:1056100009F0AFCF8B859C85815B9F4F0E94DE4D4B
:1056200003C0C6010E94264FB0FE14C0EB85FC8566
:10563000E05CFF4F80819181A281B3810196A11D21
:10564000B11D80839183A283B3838B859C8565E0A4
:105650000E948F26EB85FC8583898430A9F485A977
:1056600096A929803A802816390670F085A196A15E
:10567000A7A1B0A54F80588469847A8484159505C4
:10568000A605B70509F43CC28B859C85CA960E9485
:10569000D14D36C226E1522EB52092E0692EB614C5
:1056A00009F01FC2DB0117966D917C9118978B85CD
:1056B0009C85A4010E94652761C06B2D70E080E18C
:1056C000A82EB12CA622B72264FF2AC0F40180853F
:1056D0009185A285B385082E8B2FB02D092E9A2F88
:1056E000A02DEB85FC85E1A0F2A003A114A18E19E9
:1056F0009F09A00BB10B0196A11DB11D21A532A5DB
:1057000043A554A52F5F3F4F4F4F5F4F2E193F09C1
:10571000400B510B281739074A075B0708F4E1C112
:1057200062FF0AC0AB2809F4E0C18B859C856DE35C
:1057300070E00E943825D9C161FFD7C1D601179604
:105740006D917C9118978B859C85A4010E9465279B
:10575000AB28A1F0F601418952898B859C85B40163
:105760000E9416288B859C8564E00E948F268B857D
:105770009C858B599F4F0E94DE4DB7C18B859C85C0
:1057800063E080C1B2FE2AC02B853C852D593F4F76
:10579000D9018D919C911197A356B040BC87AB87DE
:1057A000892B29F0CD0161E00E948F2606C08B85F0
:1057B0009C856DE370E00E943825C6010E94264F4B
:1057C000EB85FC85E15AFF4F11821082EF55F040C6
:1057D000FC87EB87CF010E94663092C1B1FC81C18A
:1057E000B4FE83C1F40180859185A285B385082E1E
:1057F0008B2FB02D092E9A2FA02DEB85FC85E5A0CF
:10580000F6A007A110A58E199F09A00BB10B019658
:10581000A11DB11D21A532A543A554A52F5F3F4F62
:105820004F4F5F4F2E193F09400B510B2817390777
:105830004A075B0708F455C1DB0151964D915C9115
:1058400052978B859C85B4010E941628F6018189A8
:105850009289892B31F08B859C85B6010E94F925B0
:1058600003C0C6010E94264FB0FE13C0EB85FC8525
:10587000E05CFF4F80819181A281B3810196A11DDF
:10588000B11D80839183A283B3838B859C8565E062
:10589000B4C08B859C8564E00E948F268B859C8597
:1058A0008D599F4F0E94DE4D8B859C858B599F4F54
:1058B0000E94DE4D25C11B2DB2FCE9C0B1FC11C117
:1058C000B4FE13C1DB0151964D915C9152978B85CB
:1058D0009C85B4010E941628EB85FC8521A532A584
:1058E00043A554A585A196A1A7A1B0A5281739075E
:1058F0004A075B0721F4CF0169E00E948F26D60199
:1059000051968D919C915297892B61F08B859C8546
:10591000B6010E94F9258B859C85815B9F4F0E9473
:10592000DE4D03C0C6010E94264F10FFE9C0EB8583
:10593000FC85E05CFF4F80819181A281B38101965B
:10594000A11DB11D80839183A283B383EB85FC8568
:10595000E35AFF4F11821082ED55F040FC87EB8730
:105960008389893011F4CF0147C08B859C8567E01E
:1059700044C01B2DB2FC8BC0B1FCB3C0B4FEB5C09B
:10598000DB0151964D915C9152978B859C85B401BA
:105990000E941628F60181899289892B61F08B85F6
:1059A0009C85B6010E94F9258B859C85815B9F4F64
:1059B0000E94DE4D03C0C6010E94264F10FFA0C00A
:1059C000EB85FC85E05CFF4F80819181A281B381F2
:1059D0000196A11DB11D80839183A283B3832B8582
:1059E0003C85235A3F4FD90111961C921E92AD550A
:1059F000B040BC87AB87CD016AE00E948F2680C093
:105A0000B2FE0AC0CB010E94264F8B859C8566E3BF
:105A100070E00E94382574C0B1FC63C0B4FE65C05C
:105A2000FB01418952898B859C85B4010E9416280F
:105A30005CC0B2FC2CC0B1FC54C0B4FE56C0DB014B
:105A400051964D915C9152978B859C85B4010E9433
:105A50001628EB85FC8521A532A543A554A585A173
:105A600096A1A7A1B0A5281739074A075B07E9F552
:105A7000E35AFF4F11821082ED55F040FC87EB870F
:105A8000CF016AE00E948F2630C0B2FE06C0C60178
:105A90000E94264F8B859C8521C0B1FC22C0B4FE9C
:105AA00024C0DB0151964D915C9152978B859C856A
:105AB000B4010E941628C6010E94264FEB85FC8582
:105AC00021A532A543A554A585A196A1A7A1B0A55E
:105AD000281739074A075B0799F4CF010E944D3513
