:100000000C94B4010C941E020C941E020C941E025B
:100010000C941E020C941E020C941E020C941E02E0
:100020000C941E020C941E020C941E020C941E02D0
:100030000C941E020C941E020C941E020C94D9788F
:100040000C941E020C941E020C94B51F0C947F207D
:100050000C941D200C941E020C941E020C941E0283
:100060000C941E020C941E020C941E020C941E0290
:100070000C941E020C941E020C94F9200C94E521A1
:100080000C9474210C941E020C941E029012CA123D
:10009000EF12101322134113571385136B14961389
:1000A000D913E313E813F213FE13F713FE136B14C3
:1000B0008D128D128D128D122B1452148D128D12E1
:1000C0008D128D128D128D128D128D128D128D1238
:1000D0008D128D128D128D128D128D128D120A14A9
:1000E0001A1458146214711BB51BF91B1A1C2E1C10
:1000F0004F1C571C851C6E1BAC1CF41CF91C031DEB
:10010000081D141D0D1D141D3C1D1E1D2C1D6547B5
:1001100068476B477347764779477C477F478647F1
:10012000B147D647DB47E047E547EA47F447F8479A
:10013000FB4705480F4862476247624762473348BA
:10014000364839484A484D48574862475A486248F5
:1001500065486D48704878487B48834862476247E5
:100160006247624713482148000011892312329BDD
:10017000462457AD653674BF8C489DC1AF5ABED377
:10018000CA6CDBE5E97EF8F7108101083393221A87
:1001900056A5472C75B7643E9CC98D40BFDBAE5257
:1001A000DAEDCB64F9FFE8762102308B0210139967
:1001B000672676AF443455BDAD4ABCC38E589FD137
:1001C000EB6EFAE7C87CD9F53183200A1291031847
:1001D00077A7662E54B5453CBDCBAC429ED98F5017
:1001E000FBEFEA66D8FDC9744204538D6116709F17
:1001F000042015A9273236BBCE4CDFC5ED5EFCD7F7
:10020000886899E1AB7ABAF35285430C7197601E06
:1002100014A1052837B3263ADECDCF44FDDFEC56D6
:1002200098E98960BBFBAA726306728F4014519DE6
:10023000252234AB063017B9EF4EFEC7CC5CDDD5B6
:10024000A96AB8E38A789BF17387620E5095411CC6
:1002500035A3242A16B10738FFCFEE46DCDDCD5496
:10026000B9EBA8629AF98B7084089581A71AB693A6
:10027000C22CD3A5E13EF0B7084019C92B523ADB96
:100280004E645FED6D767CFF94898500B79BA61266
:10029000D2ADC324F1BFE03618C109483BD32A5A76
:1002A0005EE54F6C7DF76C7EA50AB4838618979146
:1002B000E32EF2A7C03CD1B5294238CB0A501BD956
:1002C0006F667EEF4C745DFDB58BA4029699871026
:1002D000F3AFE226D0BDC13439C3284A1AD10B5836
:1002E0007FE76E6E5CF54D7CC60CD785E51EF497F6
:1002F000802891A1A33AB2B34A445BCD695678DF16
:100300000C601DE92F723EFBD68DC704F59FE416E5
:1003100090A98120B3BBA2325AC54B4C79D7685EF5
:100320001CE10D683FF32E7AE70EF687C41CD595C5
:10033000A12AB0A3823893B16B467ACF485459DDD5
:100340002D623CEB0E701FF9F78FE606D49DC514A5
:10035000B1ABA02292B983307BC76A4E58D5495CB5
:100360003DE32C6A1EF10F7880EC85BF87E089B9E8
:1003700080939900AF9AA79AAE9AA69A81EE80933D
:10038000008380E48093018385B78F7785BF80E009
:1003900090E09D9B05C0019641F09D9BF8CFFBCF5F
:1003A000019619F09D99F3CFFBCF85B7806885BF83
:1003B000AF98A798AE98A69811241FBECFEFD0E1B2
:1003C000DEBFCDBF16E0A0E0B1E0ECEBF5EF00E062
:1003D0000BBF02C007900D92AE33B107D9F719E0F9
:1003E000AEE3B6E001C01D92AF3BB107E1F78FEF7E
:1003F0009FE79EBF8DBF8FEF9FE78F5B994081582E
:10040000914050F04FEF5EE74F5B594084E899E030
:100410006FEB79E00E94C4610E945B0E0E94BB6991
:1004200088E293E06AE874E040E050E020E831E0E0
:100430000E949F0E0E9400000C94DC7A0C94000035
:100440002F923F924F925F926F927F928F929F92E4
:10045000AF92BF92CF92DF92EF92FF920F931F93D2
:10046000DF93CF93CDB7DEB728970FB6F894DEBFF2
:100470000FBECDBF80E092ECA1E0B0E089839A830B
:10048000AB83BC838AEF93E060E070E040E00E94C1
:100490007E69409192055091930580E091E066E07D
:1004A00071E00E94026B80919205909193050E94E9
:1004B000A06A61E071E08E010F5F1F4FA8010E94EA
:1004C000F6690E94FB6000D000D028E031E0EDB773
:1004D000FEB732832183948383830E94856B0F90C0
:1004E0000F900F900F908FEC93E060E070E040E091
:1004F0000E947E6984E495E060E070E040E00E9444
:100500007E693801A5E04A2E512C4C0E5D1EF4EE9A
:100510002F2EF2E03F2E00D029E231E0EDB7FEB7FA
:10052000328321830E94856B0F900F9088E491E0C5
:1005300062E070E80E940B6A4C013FEF8F3F930727
:1005400019F58CE591E00E94976B83E691E00E949B
:10055000976B80E090E028960FB6F894DEBF0FBE50
:10056000CDBFCF91DF911F910F91FF90EF90DF9062
:10057000CF90BF90AF909F908F907F906F905F9043
:100580004F903F902F90089580E092ECA1E0B0E072
:1005900089839A83AB83BC83C40161E071E0A301CA
:1005A0000E94F66900D000D000D028E731E0EDB716
:1005B000FEB73283218389819A81AB81BC81838399
:1005C0009483A583B6830E94856B88EE93E0A0E0B8
:1005D000B0E089839A83AB83BC832DB73EB72A5F93
:1005E0003F4F0FB6F8943EBF0FBE2DBFC4016BE066
:1005F00071E0A3010E94F66900D000D000D021E88C
:1006000031E0EDB7FEB73283218389819A81AB81D6
:10061000BC8183839483A583B6830E94856B0F90EE
:100620000F900F900F9023E931E0EDB7FEB73283C2
:1006300021830E94856B0F900F90C40161EA71E0E5
:100640000E94A44F8C0181309105C1F08230910548
:100650001CF4009741F01DC08230910591F0833069
:100660009105B9F411C082EF91E00E94976B64E6A6
:1006700070E080E090E00E94AE6628C087EF91E0D5
:100680002CC182E092E029C18CE092E00E94976B3D
:1006900013C000D000D028E132E0EDB7FEB73283BE
:1006A0002183148303830E94856B0F900F900F901A
:1006B0000F900330110539F468EE73E080E090E0AC
:1006C0000E94AE66BACF012B09F009C100D026E224
:1006D00032E0EDB7FEB7328321830E94856B0F9025
:1006E0000F9085E492E060E070E020E030E040E0D0
:1006F00050E0EE24FF2487010E946629892B19F01F
:100700008CE591E0EAC082EF91E00E94976BA090A7
:100710005505B0905605F50125A536A547A550A964
:10072000E1A8F2A803A914A980E090E060E070E0DD
:100730000E94B304F501E5A0F6A007A110A560E0B2
:1007400070E080E090E020E030E040E050E0E4E461
:10075000CE2EE5E0DE2E0E94CE24F50161A172A12D
:1007600083A194A10E94442600D000D029E432E065
:10077000EDB7FEB732832183948383830E94856B18
:100780000F900F900F900F90F50165A176A187A1B2
:1007900090A50E94442600D000D02CE532E0EDB7B1
:1007A000FEB732832183948383830E94856B0F90ED
:1007B0000F900F900F90F50165A576A587A590A9DC
:1007C0000E94442600D000D02FE632E0EDB7FEB7FD
:1007D00032832183948383830E94856B0F900F90D3
:1007E0000F900F90F50161A972A983A994A90E94A5
:1007F000442600D000D022E832E0EDB7FEB73283C5
:100800002183948383830E94856B0F900F9025E949
:1008100032E0EDB7FEB7328321830E94856B0F90E3
:100820000F9082EB92E00E94D20A69837A838B83D5
:100830009C83611571058105910529F48FEB92E088
:100840000E94976B48C00E94442600D000D023EC41
:1008500032E0EDB7FEB732832183948383830E9415
:10086000856B00E010E00F900F900F900F9000D07C
:1008700022ED32E0EDB7FEB7328321830E94856B13
:100880000F900F90C301B2010E942B0D892BA1F490
:10089000C2010E94276D0E94470B00D000D0EDB727
:1008A000FEB732822182948383830E94856B0F90EE
:1008B0000F900F900F9013C08CEE92E00E94976BF8
:1008C00068E873E180E090E00E94AE660F5F1F4F22
:1008D0000330110561F683EF92E00E94976BC4012B
:1008E00067E171E040E050E00E94F669C4010E94B7
:1008F000E06980E193E00E94976B60E87EEE86E31A
:1009000090E00E94AE6607CE90913203809332034E
:10091000892F08950E948B678DE293E060E272E078
:1009200040E050E020E033E00E949F0E8EEF0E94F6
:100930001B640E949B640E94E363209132032F3F5B
:10094000C1F395B785B7837E822B85BF85B780625B
:1009500085BF889585B78F7D85BF85B79C71837E60
:10096000982B95BFE6CF8F929F92AF92BF92CF9276
:10097000DF92EF92FF920F931F93CF93DF93EC01DF
:100980004B0159016A0180914C0990914D090097E2
:1009900031F00E94357210924D0910924C098091ED
:1009A0004E0990914F09009731F00E9435721092D4
:1009B0004F0910924E09209739F0CE010E944B72D8
:1009C00080934C0990934D098114910439F0C4012E
:1009D0000E944B7280934E0990934F09A092500948
:1009E000B0925109C0925209D0925309E092540931
:1009F000F09255090093560910935709DF91CF9152
:100A00001F910F91FF90EF90DF90CF90BF90AF902C
:100A10009F908F900895DC01FB01908181818C93E0
:100A200011969C9311979281838112968C931297C1
:100A300013969C9313979481858114968C931497A5
:100A400015969C9315979681878116968C93169789
:100A500017969C9317979085818518968C93189775
:100A600019969C931997928583851A968C931A9759
:100A70001B969C938CE090E00895DC01FB01308193
:100A800020E011963C932E93818190E0822B932B52
:100A900011969C938E93328120E013963C932E9373
:100AA0001297838190E0822B932B13969C938E93C5
:100AB0001297348120E015963C932E9314978581EC
:100AC00090E0822B932B15969C938E9314973681EE
:100AD00020E017963C932E931697878190E0822B07
:100AE000932B17969C938E931697308520E019963A
:100AF0003C932E931897818590E0822B932B199627
:100B00009C938E931897328520E01B963C932E93EE
:100B10001A97838590E0822B932B1B969C938E9340
:100B20001A978CE090E00895CF93DF93FC01DB01EE
:100B3000EA01009731F080914C0990914D09918321
:100B40008083109731F080914E0990914F098D93D9
:100B50009C93209761F08091500990915109A09148
:100B60005209B091530988839983AA83BB832115C5
:100B7000310569F08091540990915509A091560969
:100B8000B0915709F90180839183A283B383DF91E8
:100B9000CF910895CF93DF93EC01009749F08881BE
:100BA0009981009711F00E943572CE010E94357232
:100BB000DF91CF910895CF93DF93EC01009779F007
:100BC00088819981009711F00E9435728C859D85EE
:100BD000009711F00E943572CE010E943572DF91AC
:100BE000CF910895EF92FF920F931F93CF93DF93CE
:100BF000EC018B017A01009749F481E090E066E016
:100C000070E00E941972EC01009789F08881998147
:100C1000009711F00E943572C8010E944B728883C0
:100C20009983FB82EA8281E090E09D838C83CE01F0
:100C3000DF91CF911F910F91FF90EF900895EF9268
:100C4000FF920F931F93CF93DF938C01DB018C9165
:100C500011969C91FC01EF0109900020E9F7CE1B51
:100C6000DF0B2196F8011192A8017C010FC0C7018A
:100C700001962E3221F410827C01AF0106C0208340
:100C80007C01DA018C918F5F8C933196D7012C9186
:100C9000222369F71082F801EC0FFD1FDB01129689
:100CA0009C91129713968C911397808391839E0148
:100CB0002E5F3F4FF801E20FF31F14969C9114979B
:100CC00015968C91808391832E5F3F4FC901DF91F0
:100CD000CF911F910F91FF90EF900895EF92FF92A7
:100CE0000F931F93CF93DF93EC017B01DB018D9179
:100CF0009C91009729F00E943572F70111821082B1
:100D00008881807C803C19F402E010E02AC0DE017A
:100D10000D900020E9F78D010C1B1D0BC8010E94EE
:100D20003B72DC01F70191838083FE0191913EE2E9
:100D300015C0AF01BD01292FEA018991AE01EB0178
:100D40008993BE012150C1F7892F90E0A80FB91FE8
:100D5000E80FF91F908191113D933196992349F73E
:100D60001C92C801DF91CF911F910F91FF90EF90DE
:100D70000895EF92FF920F931F937C018B01CB019B
:100D8000B7010E946E06AC01F801E80FF91F30812F
:100D900020E0D70113963C932E931297818190E027
:100DA000822B932B13969C938E9312974E5F5F4FDB
:100DB000040F151FF801308120E015963C932E9307
:100DC0001497818190E0822B932B15969C938E93A0
:100DD00014974E5F5F4FCA011F910F91FF90EF90E4
:100DE0000895AF92BF92CF92DF92EF92FF920F934E
:100DF0001F93CF93DF936C015B01CB01B6010E947F
:100E00006E06F501E80FF91F508140E0D6011396F8
:100E10005C934E931297218130E0242B352B13964F
:100E20003C932E931297FC013296D501AE0FBF1F53
:100E30005C9140E0E6015D834C8311962C9130E09B
:100E4000242B352B3D832C833296EA0DFB1DDF01CD
:100E50001196E080FF2400E010E0102F0F2DFE2CF3
:100E6000EE24EE82FF8208871987218130E040E07E
:100E700050E02E293F29402B512B542F432F322F46
:100E80002227F60126833783408751871196EC90FD
:100E90001197FF2400E010E02E293F29402B512B11
:100EA000542F432F322F22272E833F834887598781
:100EB0001296EC90FF2400E010E02E293F29402BF1
:100EC000512B26833783408751870896F501E80F19
:100ED000F91F308120E0D6011B963C932E931A9780
:100EE0004181C42FD0E0C22BD32B1B96DC93CE9331
:100EF0001A978C010E5F1F4F1C968D919C911D9728
:100F0000009711F00E943572CE010E943B72F601EB
:100F1000848795879501200F311FB901AE010E948A
:100F20007F7A9E01200F311FC901DF91CF911F9160
:100F30000F91FF90EF90DF90CF90BF90AF9008950A
:100F40002F923F924F925F926F927F928F929F92D9
:100F5000AF92BF92CF92DF92EF92FF920F931F93C7
:100F6000DF93CF93CDB7DEB763970FB6F894DEBFAC
:100F70000FBECDBF9B878A877D876C875F874E8733
:100F800080E090E0EE85FF85E80FF91F1082118266
:100F900012821382049680329105A1F78091500944
:100FA00090915109A0915209B09153090097A10560
:100FB000B10569F48091540990915509A0915609A1
:100FC000B09157090097A105B10509F453C180E01C
:100FD00090E00E94842398878F83892B09F44AC16B
:100FE00084E899E060E072E00E9400614C0188E0D2
:100FF000898744245524AA24BB242224332466242C
:101000007724D42C0894411C511CA114B10449F438
:1010100081E090E06CE070E00E9419725C01009742
:1010200081F0D50111965C924E92E0E0F1E01396CA
:10103000FC93EE93129781E090E015969C938E932B
:101040001497C1016A857B854C855D850E94F205F8
:101050001C01C401B5010E940B058C01C401800F65
:10106000911FB1010E941F067C01E00EF11ED0FE0F
:101070000DC04091540950915509609156097091E5
:101080005709411551056105710541F44091500919
:101090005091510960915209709153098F8198853F
:1010A00025E330E084010E943E2397FDCDC08F816F
:1010B0009885BE016D5F7F4FAE014F5F5F4F94011A
:1010C00000E012E0E8EECE2EE3E0DE2EE12CF12C83
:1010D0000E94D322181619060CF0B1C00D973CF3EC
:1010E000C501B4010E943D058C01D5018D919C91F3
:1010F000119784159505D9F60115110509F49FC0BE
:1011000014968D919C911597019709F098C0B401A0
:10111000600F711FC1010E94B9069C01F501868113
:101120009781892B09F490C07901E00EF11E198690
:1011300001E010E07DC06114710439F481E090E0B9
:101140006EE070E00E9419723C01B4016E0D7F1DCB
:10115000C3010E94F1066C01D30112968D919C91FE
:101160001397019709F060C01A968D919C911B9777
:10117000049709F059C0B985EB2FF0E0EE0FFF1F7F
:10118000EE0FFF1F8E859F85E80FF91FD3011C9678
:101190006D917C911D97DB012C9130E040E050E097
:1011A00020833183428353831196BC918B2F90E02F
:1011B000A0E0B0E0BA2FA92F982F8827820F931FA5
:1011C000A41FB51F888B998BAA8BBB8B80839183BF
:1011D000A283B383DB0112962C9130E040E050E013
:1011E000A9013327222788899989AA89BB89280FD1
:1011F000391F4A1F5B1F2083318342835383DB01E6
:1012000013968C9190E0A0E0B0E0B82FAA27992720
:101210008827280F391F4A1F5B1F20833183428391
:101220005383B985BF5FB987EC0CFD1C0F5F1F4F5F
:10123000F50186819781801791070CF07CCFF6E04D
:101240004F16510409F0DDCEA114B10419F0C50107
:101250000E943572C1010E94CA05C3010E94DB05CC
:1012600084E899E0B4010E9458618F8198850E94BA
:10127000A42201C01986898563960FB6F894DEBF53
:101280000FBECDBFCF91DF911F910F91FF90EF90D7
:10129000DF90CF90BF90AF909F908F907F906F9096
:1012A0005F904F903F902F900895AB0161E070E008
:1012B0000E94A00708952F923F924F925F926F92E3
:1012C0007F928F929F92AF92BF92CF92DF92EF92D6
:1012D000FF920F931F93DF93CF93CDB7DEB72C9779
:1012E0000FB6F894DEBF0FBECDBF9A8789877C8783
:1012F0006B878091500990915109A0915209B0914A
:1013000053090097A105B10569F4809154099091A2
:101310005509A0915609B09157090097A105B1054B
:1013200009F41DC180E090E00E94842398878F8398
:10133000892B09F414C180E092E00E943B724C01B9
:1013400044245524AA24BB2422243324662477244D
:10135000D42C0894411C511CA114B10449F481E01F
:1013600090E06CE070E00E9419725C01009781F0DF
:10137000D50111965C924E92E0E0F1E01396FC9359
:10138000EE93129781E090E015969C938E931497BC
:10139000C10169857A854B855C850E94F2051C0137
:1013A000C401B5010E940B058C01C401800F911F7F
:1013B000B1010E941F067C01E00EF11ED0FE0DC09F
:1013C00040915409509155096091560970915709FF
:1013D000411551056105710541F440915009509145
:1013E000510960915209709153098F81988525E3C5
:1013F00030E084010E943E2397FD9AC08F8198853A
:10140000BE016D5F7F4FAE014F5F5F4F940100E003
:1014100012E0E8EECE2EE3E0DE2EE12CF12C0E946D
:10142000D322181619060CF07EC00D973CF3C501A7
:10143000B4010E943D058C01D5018D919C911197BD
:1014400084159505D9F60115110509F46CC014969B
:101450008D919C911597019709F065C0B401600FBB
:10146000711FC1010E94B9069C01F5018681978117
:10147000892B09F45DC07901E00EF11E01E010E056
:101480001CC06114710439F481E090E06EE070E0FA
:101490000E9419723C01B4016E0D7F1DC3010E94B0
:1014A000F1069C01D30112968D919C91139701979F
:1014B00051F0E20EF31E0F5F1F4FF50186819781F9
:1014C00080179107F4F6D3011A968D919C911B9782
:1014D000049749F51C96ED91FC911D97208181811F
:1014E00090E0A0E0B0E0EE24F82E092F1A2F8281C0
:1014F00090E0A0E0B0E0DC0199278827E80EF91E13
:101500000A1F1B1FE20EF11C011D111D838190E0BB
:10151000A0E0B0E0B82FAA2799278827E80EF91E87
:101520000A1F1B1F08C0B6E04B16510409F010CF6C
:10153000EE24FF248701A114B10419F0C5010E9413
:101540003572C1010E94CA05C3010E94DB05C401B6
:101550000E9435728F8198850E94A42203C0EE24D8
:10156000FF248701B701C8012C960FB6F894DEBF9F
:101570000FBECDBFCF91DF911F910F91FF90EF90E4
:10158000DF90CF90BF90AF909F908F907F906F90A3
:101590005F904F903F902F9008956FE070E00E9411
:1015A0005B09089561E070E00E945B090895EF9285
:1015B000FF920F931F93EE24FF2487010E94B30430
:1015C0001F910F91FF90EF900895DC01FB011182B4
:1015D000108217C0808191819C0153E0220F331F3C
:1015E0005A95E1F7880F991F280F391F31832083FF
:1015F0008D91992787FD9095C097820F931F9183B6
:1016000080838C9190E0C0970A9720F3CD010895D4
:10161000CF93DF93EB010E94E50A288139812634BC
:1016200031051CF42C593F4F06C047E02D363407D6
:1016300024F02C56374039832883DF91CF910895C9
:101640000F931F93CF93DF93EA0189010E94E50A6C
:10165000FC0180818A3399F4CF010196BE010E947A
:10166000E50AFC0180818A3331F4CF010196B8018B
:101670000E94E50A07C0D8011D921C9202C019827F
:101680001882CF01DF91CF911F910F9108950F9391
:101690001F93CF93DF939C018DB79EB742970FB6F0
:1016A000F8949EBF0FBE8DBFADB7BEB711960FE3C6
:1016B00016E0CDB7DEB71A83098383E393E0139670
:1016C0009C938E931297E901EC85FD85EE0FFF1F29
:1016D000ED58FC4F8081918115969C938E931497C1
:1016E0008E819F8117969C938E931697E885F98536
:1016F000EE0FFF1FEF54FC4F8081918119969C9350
:101700008E9318978A859B858459984F1B969C9336
:101710008E931A978C819D811D969C938E931C9716
:101720008A819B811F969C938E931E9788819981B5
:1017300051969C938E9350970E94BB6BEDB7FEB76A
:1017400072960FB6F894FEBF0FBEEDBFC801DF91D1
:10175000CF911F910F910895CF93DF93EC01FB017F
:101760008881813461F421968881803711F0803539
:1017700019F483E090E044C087E090E041C08434F5
:1017800019F48BE090E03CC0863419F481E090E0DD
:1017900037C08A34B9F421968881813611F08134BA
:1017A00019F41182108230C0882349F02196888173
:1017B0008C3611F08C3419F486E090E021C085E07D
:1017C00090E01EC08D3481F421968881813649F4E1
:1017D00021968881823711F0823519F482E090E0F9
:1017E0000FC084E090E00CC08E3419F48AE090E0E1
:1017F00007C08F3419F489E090E002C088E090E0DF
:101800009183808301C02196888190E00E94457A6F
:10181000892BC9F7CE01DF91CF910895EF92FF9206
:101820000F931F93CF93DF938A0179010E94E50AFA
:10183000EC0101C021968881882329F090E00E9464
:10184000457A892BB9F3CE01B8010E94AC0BFC019B
:1018500001C031968081882321F090E0C0970A97DB
:10186000C0F7CF01B7010E94080BDF91CF911F9104
:101870000F91FF90EF900895FF920F931F93DF93C6
:10188000CF93CDB7DEB762970FB6F894DEBF0FBE29
:10189000CDBF8C01FE01319682E1DF011D928A9558
:1018A000E9F781E090E098878F8302C00F5F1F4FB8
:1018B000F80180818032D1F38930C1F390E00E9439
:1018C000457A892B91F0F80101C0319680818823F7
:1018D00031F0803221F08930C1F701C0319680812A
:1018E0008032E1F38930D1F38F01D801FC908F2D44
:1018F00090E00E94457A892B59F1C801BE01675FCB
:101900007F4F0E94AC0BFC0101C031968081803278
:10191000E1F38930D1F3CF01BE01695F7F4F0E94AF
:10192000E50AFC0101C0319680818032E1F3893003
:10193000D1F3CF01BE01655F7F4F0E94080BFC0110
:1019400001C0319680818032E1F38930D1F316C035
:10195000FF2021F1C801BE01695F7F4FAE01475FE3
:101960005F4F9E01255F3F4F0E940E0CFC0101C09E
:10197000319680818032E1F38930D1F3CF01BE010D
:101980006B5F7F4FAE014D5F5F4F9E012F5F3F4FFB
:101990000E94200B8C0102C00F5F1F4FF801808155
:1019A0008032D1F38930C1F3C80163E573E00E944E
:1019B0008F7A9C01CE010196232B19F40E941C6F93
:1019C00002C00E94176F62960FB6F894DEBF0FBE7A
:1019D000CDBFCF91DF911F910F91FF900895AF92EE
:1019E000BF92CF92DF92EF92FF920F931F93CF930C
:1019F000DF937B018C0159016A0188E090E00E942D
:101A00003B72EC010097C9F0E882F9820A831B83DC
:101A1000AC82BD82CE82DF8289EC93E06AEF7DE00A
:101A2000AE0120E031E00E949F0E892B19F020E0EA
:101A300030E005C0CE010E9435722FEF3FEFC901A3
:101A4000DF91CF911F910F91FF90EF90DF90CF909A
:101A5000BF90AF9008952F923F924F925F926F92F6
:101A60007F928F929F92AF92BF92CF92DF92EF922E
:101A7000FF920F931F93DF93CF93CDB7DEB72897D5
:101A80000FB6F894DEBF0FBECDBF3C012B01611530
:101A9000710509F48DC0009709F48AC080E091E0D7
:101AA0009C838B8381E090E060E370E00E94197278
:101AB0005C01009709F47CC080E090E00E948423E0
:101AC0004C01009709F46EC062E070E1AE014D5F19
:101AD0005F4F22E030E00E9452228BE1F5018083CB
:101AE000F3014081518162817381C4012BE730E0B1
:101AF0008501F0E3EF2EF12C0E943E23892B09F0A3
:101B000073C01E010894211C311C1D821E821F827D
:101B10001886C401BE016B5F7F4FA101950100E3F0
:101B200010E0E8E8CE2EE3E1DE2EE12CF12C0E945D
:101B3000D322181619060CF057C089819A818B3769
:101B4000910529F4F5018081807C803C59F4F301F2
:101B500080819181A281B3818F5F9F4FAF4FBF4F33
:101B6000A1F242C0F50180A591A5A2A5B3A5082EBA
:101B70008B2FB02D092E9A2FA02D80589E47AA4A50
:101B8000B348F20180839183A283B3838D819E81C8
:101B9000AF81B885F30180839183A283B38300E092
:101BA00010E024C00FEF1FEFC5010E94357202C084
:101BB0000FEF1FEFC80128960FB6F894DEBF0FBED7
:101BC000CDBFCF91DF911F910F91FF90EF90DF90EC
:101BD000CF90BF90AF909F908F907F906F905F90CD
:101BE0004F903F902F9008950FEF1FEFC4010E9478
:101BF000A422DACFDF93CF93CDB7DEB728970FB605
:101C0000F894DEBF0FBECDBFFC01E080F180028101
:101C1000138184809580A680B780E982FA820B8345
:101C20001C830E9435728FE30E941B64CC24DD2448
:101C3000A5E06A2E712C6C0E7D1E2E010894411CAD
:101C4000511CC201B3010E942B0D892B51F18981D6
:101C50009A81AB81BC818E159F05A007B10771F0F9
:101C60008FEFE8168FEFF8068FEF08078FEF180752
:101C700029F4E982FA820B831C83E3CF83E0C81640
:101C8000D1042CF060E375E780E090E00FC0089489
:101C9000C11CD11C68E873E180E090E00E94AE6650
:101CA000D0CFC3010E94216FC501B4010E94AE666E
:101CB000CC24DD24C6CF08959F918F910F900BBE49
:101CC0000F900FBE1F9018952F923F924F925F92E8
:101CD0006F927F928F929F92AF92BF92CF92DF923C
:101CE000EF92FF920F931F93CF93DF938DB79EB721
:101CF000E0918A09F0918B09918B808BE0918809A2
:101D0000F0918909F0938B09E0938A0981E0878734
:101D1000808991898DBF9EBFDF91CF911F910F91D7
:101D2000FF90EF90DF90CF90BF90AF909F908F90FB
:101D30007F906F905F904F903F902F900895AF925B
:101D4000BF92CF92DF92EF92FF920F931F93CF93A8
:101D5000DF93F82EE92E6B01B42EA52EE901B9010F
:101D6000675E7F4F84E899E00E940061FC01009764
:101D700019F420E030E077C0C80FD91FAE014750FA
:101D80005040BE016B5170408E010A5F1F4F8F2D76
:101D90009E2D9C0188E0D9010D909D01D8010D92E6
:101DA0008D018150C1F71E8661507040798B688B20
:101DB0006F5F7F4FFC8BEB8B8FEE9EEBADEABEED42
:101DC00080839183A283B38384839583A683B7831F
:101DD00080879187A287B38784879587A687B787EF
:101DE00080E48A8BFA01D582C68280E883831282DE
:101DF0001482B182A0828CE59EE0DB0152969C9316
:101E0000529753968C938091860990918709998374
:101E10008883D0938709C093860982E08F871E8AC2
:101E20001D8A188E1F8ACE0168E879E00E9411632E
:101E3000E0918A09F0918B09309721F40FB6F8945C
:101E40000F925CCF8091880990918909E817F90772
:101E500049F082E087870FB6F8940F920E94640ED3
:101E60000F900FBE9E01C901DF91CF911F910F917D
:101E7000FF90EF90DF90CF90BF90AF900895DC017E
:101E80005B969C915B975C968C915C97981791F010
:101E90005B968C915B975996ED91FC915A97E80F60
:101EA000F11D80818CB95B968C915B978F5F5B96FF
:101EB0008C93089555985096ED91FC9151973097D9
:101EC00039F48FEF9FEF51969C938E93509708951E
:101ED0008FEFEF3FF80729F0848195810196958374
:101EE00084830895DC015B969C915B975C968C9152
:101EF0005C97981799F05B968C915B975996ED914A
:101F0000FC915A97E80FF11D808180939C005B96AD
:101F10008C915B978F5F5B968C93089580919A006C
:101F20008F7D80939A005096ED91FC915197309758
:101F300039F48FEF9FEF51969C938E9350970895AD
:101F40008FEFEF3FF80729F0848195810196958303
:101F500084830895DC0157968C9157975596ED919F
:101F6000FC915697E80FF11D8CB1808357969C9198
:101F7000579758968C9158978917B1F45296ED91CE
:101F8000FC915397309739F48FEF9FEF53969C93C2
:101F90008E93529709C08FEFEF3FF80729F08481A5
:101FA000958101969583848357968C9157978F5F7F
:101FB00057968C930895DC0157968C9157975596B8
:101FC000ED91FC915697E80FF11D80919C00808364
:101FD00057969C91579758968C9158978917B1F4BA
:101FE0005296ED91FC915397309739F48FEF9FEF14
:101FF00053969C938E93529709C08FEFEF3FF8074B
:1020000029F08481958101969583848357968C91DC
:1020100057978F5F57968C930895BC0101978E5FF9
:102020009F4F18F02FEF3FEF06C084E899E00E9421
:10203000586120E030E0C9010895CF93DF93EC01AF
:1020400084E899E066E070E00E940061FC019C0178
:10205000009719F42FEF3FEF06C011821082D3834F
:10206000C28315821482C901DF91CF910895EF9246
:10207000FF920F931F93CF93DF93EC01F62EE42E84
:102080008C01005F1F4F09C04C855D856E857F8583
:10209000C8010E94ED68892B29F49B8D8C8D8F5F80
:1020A000891791F32C8D9B8D822F8F5F891719F4DF
:1020B0002FEF3FEF1FC0E98DFA8DE20FF11DF08287
:1020C0009C8D9F5F9C8FEE2021F48B8D9F5F9817D6
:1020D00079F40FB6F8940F928C89882331F08091AF
:1020E0009A00806280939A0001C0559A0F900FBEAB
:1020F00020E030E0C901DF91CF911F910F91FF9057
:10210000EF900895AF92BF92CF92DF92EF92FF923D
:102110000F931F93CF93DF93DC015A01690151960E
:10212000ED90FC90529761157105C9F08B01C0E0EC
:10213000D0E011C0C114D10419F0F801649102C0BB
:10214000F8016081C70140E00E943710892BB1F48B
:102150000F5F1F4F2196CA15DB0564F30FC01C9655
:102160008D919C911D97892B31F080919A0080620E
:1021700080939A0001C0559AC0E0D0E0CE01DF9173
:10218000CF911F910F91FF90EF90DF90CF90BF9074
:10219000AF900895FC018281938121E030E00E949C
:1021A00082100895FC018281938120E030E00E943A
:1021B000821008952F923F924F925F926F927F927A
:1021C0008F929F92AF92BF92CF92DF92EF92FF9247
:1021D0000F931F93CF93DF937C016B014A01590149
:1021E0002115310519F4C0E0D0E003C0F901C08128
:1021F000D18133E2632E712C6E0C7F1C21E0222EE4
:10220000312C4CC0F6016081E62FEC272E2F30E0F8
:10221000220F331FC90188599E4FFC014490275952
:102220003E4FF9015490862F807E99F4862F869533
:1022300086958695F301E80FF11D862F8770910131
:1022400002C0220F331F8A95E2F7C901208128239B
:1022500021F46E3711F06D3759F4C7016DE740E096
:102260000E943710892B39F5F6016081F0E26F2763
:10227000C70140E00E943710892BE9F48D2F992780
:10228000142D00E0C52DD0E0C02BD12BC827D927B5
:102290000894C11CD11C08948108910881149104F0
:1022A00009F0B0CFA114B10419F0F501D183C083B6
:1022B00020E030E002C02FEF3FEFC901DF91CF9166
:1022C0001F910F91FF90EF90DF90CF90BF90AF9054
:1022D0009F908F907F906F905F904F903F902F9046
:1022E0000895CF92DF92EF92FF920F931F93DF93A7
:1022F000CF9300D0CDB7DEB78B01FC01E188F28827
:10230000F70180819181A281B381A6FD64C0FB01A8
:102310008185928525813681820F931F258536859B
:10232000820F931F21893289820F931FF70121A504
:1023300032A52817390708F451C0C7016EE740E0FD
:102340000E9437108FEF9FEF9A838983F801638192
:10235000748145815681C7016E010894C11CD11C4E
:1023600096010E94DA10892BC9F5F8016781708502
:1023700041855285C70196010E94DA10892B71F5BB
:10238000F8016385748545855685C70196010E94CD
:10239000DA10892B19F5F80167857089418952890E
:1023A000C70196010E94DA10892BC1F489819A81B4
:1023B000809590959A838983C701B60142E050E0E9
:1023C00020E030E00E94DA10892B41F4C7016EE76B
:1023D00041E00E94371020E030E002C02FEF3FEFD5
:1023E000C9010F900F90CF91DF911F910F91FF9036
:1023F000EF90DF90CF900895AF92BF92CF92DF928F
:10240000EF92FF920F931F93CF93DF935A01DC015A
:102410001296ED91FC911397C189D28961157105CE
:1024200051F17B0142E1C42ED12CCC0EDD1E00E027
:1024300010E01DC0988D8F89981769F0ED89FE898D
:10244000E90FF11D8081F70181937F019F5F988FD4
:102450000F5F1F4F0CC00115110589F44885598580
:102460006A857B85C6010E94ED68892B41F40A15B7
:102470001B0504F304C08F89888F00E010E0C801B9
:10248000DF91CF911F910F91FF90EF90DF90CF9050
:10249000BF90AF900895CF93DF93EC010FB6F894FF
:1024A0000F92009731F080919A008F7580939A0077
:1024B00003C08AB18F758AB90F900FBE8AE00E945F
:1024C000E364CD2B31F080919A00877E80939A004F
:1024D00003C08AB1877E8AB9DF91CF910895FF92B8
:1024E0000F931F93CF93DF939C01DA018A0100972A
:1024F00011F426E734E0F901F484C189D289FB01A3
:10250000E150F140ED32F10540F4EA5BFF4FEE0F90
:10251000FF1F0590F491E02D09942FEF3FEFDDC1EF
:102520008F2D90E00E944B120E948465660F771FEA
:10253000881F991FF8012081318142815381A4E0D5
:10254000220F331F441F551FAA95D1F70E94DF7930
:102550002F5F3F4F4F4F5F4F5695479537952795C4
:1025600021503040FF2029F02093990030939800AB
:1025700003C029B9309390000FB6F8940F92FF2052
:1025800021F088E980939A0002C088E98AB90F9007
:102590000FBEA1C1FF2029F0809198009091990071
:1025A00003C08091900099B1382F20E0C92FD0E06E
:1025B000C22BD32B0E94846521969E0140E050E0FF
:1025C000E4E0220F331F441F551FEA95D1F70E9404
:1025D000DF79F80120833183428353837CC18F2DBF
:1025E00090E00E944B12F80120812550243008F021
:1025F00067C0220FFF2061F080919D00897F282B0A
:1026000020939D0080919A008B7F80939A006DC0EB
:1026100080919500897F282B20939500529865C062
:10262000FF2019F080919D0002C08091950090E0FC
:1026300086709070959587950596AA2797FDA09529
:10264000BA2F44C18F2D90E00E944B12F8012081D7
:102650002330B0F5213009F423E02295207FFF20BC
:1026600039F080919D008F7C822B80939D0006C065
:10267000809195008F7C822B809395002223A9F175
:102680001FC0FF2019F080919D0002C0809195002D
:1026900090E08073907064E0959587956A95E1F776
:1026A000833009F481E090E0A0E0B0E00FC18F2D0D
:1026B00090E00E944B12F80120812150223018F046
:1026C0002FEF3FEF14C0220F220F220FFF2039F00F
:1026D00080919D00877F282B20939D0006C08091CC
:1026E0009500877F282B2093950020E030E00FB6DF
:1026F000F8940F92FF2021F088E980939A0002C09D
:1027000088E98AB90F900FBEE8C0FF2019F08091C8
:102710009D0002C08091950090E08870907053E019
:10272000959587955A95E1F7019687CFF801108224
:10273000118212821382F90184859585892B19F003
:1027400080919B0001C08BB1282F30E082FF09C02F
:1027500081E090E0A0E0B0E0F80180839183A28363
:10276000B38323703070232B51F0F8018081918165
:10277000A281B381826080839183A283B3839B8D86
:102780008C8D981751F4F80180819181A281B381D9
:10279000806880839183A283B3839F89888D891702
:1027A00009F099C0F80180819181A281B381806490
:1027B0008EC0F80180819181A281B3818887998739
:1027C000AA87BB8788C088859985AA85BB857EC076
:1027D000F80180819181A281B3818C879D87AE872A
:1027E000BF8779C08C859D85AE85BF856FC0888188
:1027F0009981AA81BB81A0FF28C022C0F8018081F5
:10280000288139814A815B81882311F041600DC0A4
:102810004E7F0BC0F8018081288139814A815B811C
:10282000882311F0406401C04F7B288339834A8399
:102830005B8351C088819981AA81BB81A6FF05C0B5
:1028400081E090E0A0E0B0E041C0F8011082118288
:102850001282138240C01097B9F08D919C9111970C
:10286000009791F0F901908B878783E083871F960B
:10287000ED91FC9150978789908D9AA789A798A789
:102880008FA3CE014D960BC085E0F9018387878524
:102890009089892B01F1108A1786CE0142960E94F9
:1028A000986819C0F901878590898D939C9313C00E
:1028B000F80180819181A281B3818BA39CA3ADA3F8
:1028C000BEA309C08BA19CA1ADA1BEA1F8018083CC
:1028D0009183A283B38320E030E0C901DF91CF91DF
:1028E0001F910F91FF900895EF92FF920F931F9306
:1028F000DF93CF9300D000D0CDB7DEB77C0180E866
:1029000095E2A0E0B0E089839A83AB83BC83D701D2
:102910001C968D919C911D970E944B12F701018985
:1029200012898BE2D8011D928A95E9F78485F80116
:10293000848B84E899E060E071E00E940061D80136
:1029400056969C938E93559784E899E060E071E0E9
:102950000E940061F801928F818FD7011F96ED913F
:10296000FC9150978789908DF80192A781A790A735
:1029700087A38FEF9FEFAFEFBFEF83A394A3A5A330
:10298000B6A3D7011C968D919C911D97892B71F050
:102990008BEA94E06BED7FE0A8010E940646892B4C
:1029A00069F587EB94E062E77FE00DC089E994E088
:1029B0006AEA7FE0A8010E940646892BF9F485EABD
:1029C00094E06FE37FE0A8010E940646892BB1F4F2
:1029D00082EF93E062E275E1A70120E032E00E941D
:1029E0009F0E892B59F0C70161E071E0AE014F5F86
:1029F0005F4F0E946F1220E030E018C0F801658937
:102A000076896115710521F084E899E00E9458618A
:102A1000D80159966D917C915A976115710521F0F5
:102A200084E899E00E9458612FEF3FEFC9010F90B1
:102A30000F900F900F90CF91DF911F910F91FF900A
:102A4000EF900895DF93CF93CDB7DEB728970FB6F9
:102A5000F894DEBF0FBECDBF4C01DC015196CD9086
:102A6000DC90529789E00E941B64F6017D96FE83FC
:102A7000ED8396012E5E3F4F3C832B8308C08D81F2
:102A80009E8148EE53E060E070E00E94ED68D40162
:102A90001F96AD90BC905097A114B10481F3F5013D
:102AA0000784F089E02DFA83E98388EE93E0A0E0C3
:102AB000B0E0F60180879187A287B38767A170A5F0
:102AC0006E5F7F4F84E899E00E9400617C0100976F
:102AD00039F468EE73E080E090E00E94AE66D7CFF4
:102AE000E1E7F1E1A981BA819296FC93EE93919787
:102AF000D5015596ED91FC915697C50163E070E0C4
:102B000040E050E009954424552418861F8266242D
:102B100077240FEF1FEF14C0F40187859089892B6C
:102B2000A1F0D60118964D915D916D917C911B9706
:102B30008B819C810E94ED684F81588558874F8317
:102B4000F601208D8789281739F3D4011F968D91BE
:102B50009C915097892B09F489C0F601808191815D
:102B6000A281B381A6FF07C064E670E080E090E038
:102B70000E94AE66E1CFD6015596ED91FC91569735
:102B8000E20FF11D60812F5F58962C93662009F4A7
:102B900061C06E37C1F16D3729F44F8158857724B4
:102BA0007394CCCF772011F0B0E26B274F8158851A
:102BB0004F5F5F4FF60187A190A502962F81388560
:102BC0002817390710F066241CC0E62FE027AE2F27
:102BD000B0E0AA0FBB1F812F99279D0128593E4FB6
:102BE000F9012491A759BE4FFD013491322E2224C0
:102BF000032F10E00229132908271927D2016D930A
:102C00002D0177249BCFEF81F885329730F1085B57
:102C1000104F19F50F8118850250104080E090E0A8
:102C200060E1A8010E9494513C010097B1F0DC01E1
:102C300013968C91139714969C91B701A8010E944A
:102C40007F7AE981FA81278D30A1C501B301F901AD
:102C5000099503C06E3709F06FCF270140E050E0BF
:102C60006624639477240FEF1FEF68CFD501559644
:102C7000ED91FC915697C50164E070E040E050E0B2
:102C8000099584E899E0B7010E94586100CFFC01E2
:102C90006281738120918B06422F50E0CA018073BC
:102CA0009070892B89F024FF04C083E18CB92064E3
:102CB00003C081E18CB92F7B20938B0680918B061A
:102CC0008F7C80938B06089527FF02C05598089546
:102CD00082859385892B89F18285938501979387D6
:102CE000828780918C06882311F0509A01C05098F9
:102CF000DB018D918CB986819781A817B90711F4F2
:102D0000A481B581B383A28322853385848595858B
:102D10002817390759F5A089B1891097A9F08FEFC5
:102D2000AF3FB80719F114968D919C9115970196B4
:102D300015969C938E931497089555981386128632
:102D4000A089B189109729F48FEF9FEF918B808B29
:102D500008958FEFAF3FB80749F014968D919C917D
:102D60001597019615969C938E9314970895CF937B
:102D7000DF93282F5BB180918A06582B50938A06E7
:102D80006CB140918B06442361F0633119F455987E
:102D9000406804C0613129F4559A4F7740938B06FF
:102DA0005DC0A22FB92F1A962D913C911B971896B2
:102DB0008D919C9119972817390720F058605093EE
:102DC0008A064CC0E9012196232BB9F45096ED9167
:102DD000FC915197309739F48FEF9FEF51969C9368
:102DE0008E9350971FC08FEFEF3FF807D9F0848183
:102DF000958101969583848315C0442399F01E968E
:102E00008D919C911F97C817D90760F046FD0AC0A5
:102E10005D9B05C083E18CB940644F7D01C0406279
:102E200040938B06ED91FC91119761931196FC9361
:102E3000EE932D913C91119716968D919C91179739
:102E40002817390739F414968D919C91159711968E
:102E50009C938E931B96DC93CE931A97DF91CF9120
:102E60000895529B02C089E008958091950082FFE9
:102E700008C08091950081FD02C087E0089588E038
:102E800008958091950081FD02C085E0089586E057
:102E900008958091950085FD02C080E0089580919D
:102EA000950084FD02C082E0089581E0089580913C
:102EB000950083FD02C081E0089582E0089580912D
:102EC0008A06682F70E0CB0124E0969587952A95B5
:102ED000E1F79C0140E050E021703070407050708C
:102EE00063FD226062FD246080918B06882321F0BF
:102EF00086FD426087FD486041FF416043FF4460BA
:102F000080918C06882321F0CA01B901806403C036
:102F1000CA01B9018068589B04C09B01AC014061A3
:102F200003C09B01AC014062B901CA010895EF9250
:102F3000FF920F931F937B018C0180918B06882356
:102F4000D9F00FB6F8940F9200FF02C08F7B03C038
:102F500001FF03C0806480938B0602FF04C0809150
:102F60008B068F7705C003FF05C080918B068068B4
:102F700080938B060F900FBE06FF03C081E0809305
:102F80008C0607FF02C010928C0604FD589A05FDBE
:102F90005898C70181709070892B29F080918A061A
:102FA0008F7E80938A06E1FE05C080918A06877F26
:102FB00080938A06E2FE05C080918A068B7F80930B
:102FC0008A060E945F17687F6E157F05800791074C
:102FD00019F420E030E002C02FEF3FEFC9011F914C
:102FE0000F91FF90EF9008958091950086FF0BC0A0
:102FF000129B02C093E001C091E08091950080FF98
:1030000007C0946005C0599B02C090E201C090E0E7
:10301000892F089580918B06882329F420E030E0E1
:1030200040E050E004C020E230E040E050E0B90170
:10303000CA010895EF92FF920F931F937B018C01B9
:1030400065FF0DC080918B06882381F40FB6F8943C
:103050000F9281E480938B060F900FBE07C00FB6CE
:10306000F8940F9210928B060F900FBE80918B06F2
:10307000882329F420E030E040E050E004C020E262
:1030800030E040E050E02E153F054007510719F4AD
:1030900020E030E002C02FEF3FEFC9011F910F91F8
:1030A000FF90EF900895559A089590918B0699237B
:1030B000A9F096FF13C00FB6F8940F925D9B04C061
:1030C00081E18CB99F7E01C0906190938B068091C5
:1030D0008B068F7980938B060F900FBE08950FB6E5
:1030E000F8940F925798569855980F900FBE8AE013
:1030F0000E94E3645498539808951F93182F0E94D8
:103100006F18812F10FF15C011FF02C0129A01C065
:10311000129882FF04C080919500816003C0809165
:1031200095008E7F809395005998809195008064DA
:103130000DC015FF02C0599A01C0599880919500A1
:103140008E7F80939500809195008F7B8093950072
:103150000FB6F8940F9288EB8AB90F900FBE0E94B9
:10316000F417811719F420E030E002C02FEF3FEF91
:10317000C9011F9108951F93182F0E946F181130D5
:1031800021F480919500877F05C0123029F4809149
:1031900095008860809395000FB6F8940F9288EBA5
:1031A0008AB90F900FBE8091950083FD02C081E027
:1031B00001C082E0811719F420E030E002C02FEF57
:1031C0003FEFC9011F9108951F93182F0E946F1898
:1031D000113071F0113018F01230C1F40DC080912F
:1031E00095008F7E80939500809195008F7D0CC017
:1031F00080919500806103C0809195008F7E8093BF
:103200009500809195008062809395000FB6F894A8
:103210000F9288EB8AB90F900FBE0E944917811751
:1032200019F420E030E002C02FEF3FEFC9011F91F9
:1032300008951F93182F0E946F185298809195003F
:103240008D7F80939500809195008B7F8093950072
:103250001730A1F0183018F41630A9F405C0183052
:1032600041F0193081F404C080919500826009C05A
:10327000529A80919500826080939500809195008C
:103280008460809395000FB6F8940F9288EB8AB90A
:103290000F900FBE0E943117811719F420E030E023
:1032A00002C02FEF3FEFC9011F9108958F929F92A7
:1032B000AF92BF92CF92DF92EF92FF920F931F9344
:1032C00099B0809090008091950086FF06C052E0F2
:1032D000A52EB12CC12CD12C0DC0599906C040E1AE
:1032E000A42EB12CC12CD12C05C038E0A32EB12CBA
:1032F000C12CD12C0E9484657B018C01892D90E02A
:10330000382D20E0282B392B40E050E02F5F3F4F35
:103310004F4F5F4FC601B5010E948D799B01AC01F3
:10332000C801B7010E94DF79CA01B9011F910F914D
:10333000FF90EF90DF90CF90BF90AF909F908F90D5
:103340000895EF92FF920F931F937B018C010E94CF
:103350006F188091950086FD11C0599B08C0E2E06E
:10336000EE0CFF1C001F111FEA95D1F707C073E098
:10337000EE0CFF1C001F111F7A95D1F70E94846587
:10338000A80197010E94DF792F5F3F4F4F4F5F4F9A
:1033900056954795379527952150304029B9309358
:1033A00090000FB6F8940F9288EB8AB90F900FBE79
:1033B00080E090E01F910F91FF90EF90089589E9D0
:1033C00094E060E070E040E050E00E94064685EA4C
:1033D00094E060E070E040E050E00E94064680E04B
:1033E00090E0089589E994E067EB76E14FE354E0DB
:1033F0000E940646892BA9F485EA94E067E476E109
:103400004DE254E00E940646892B19F420E030E09A
:103410000AC089E994E060E070E040E050E00E947A
:1034200006462FEF3FEFC9010895FC01A785B0893B
:1034300018969C91189719968C911997981709F1DD
:1034400084859585892B61F018968C911897FD01DC
:10345000E80FF11DE45FFE4F808180939C000AC05D
:1034600018968C911897FD01E80FF11DE45FFE4F4F
:1034700080818CB918968C9118978F5F18968C93D1
:1034800008951A961C92A189B2891896ED91FC9123
:103490001997309739F48FEF9FEF19969C938E937D
:1034A000189708958FEFEF3FF80729F084819581F1
:1034B0000196958384830895CF93DF93DC011F9653
:1034C000CD91DC9150971C968D919C911D97892BE5
:1034D00021F08E8190919C0002C08E819CB1FE01F2
:1034E000E80FF11D94879E818F818917D1F4519641
:1034F0000D90BC91A02D1A96ED91FC911B973097E1
:1035000039F48FEF9FEF1B969C938E931A9709C007
:103510008FEFEF3FF80729F084819581019695831D
:1035200084838E818F5F8E83DF91CF910895FC011C
:10353000A785B0891A968C911A97882361F51896F9
:103540009C91189719968C911997981721F181E001
:103550001A968C931A9784859585892B61F0189615
:103560008C911897FD01E80FF11DE45FFE4F8081FB
:1035700080939C000AC018968C911897FD01E80F63
:10358000F11DE45FFE4F80818CB918968C911897DD
:103590008F5F18968C9380E090E00895DC0112967E
:1035A000ED91FC9113970784F089E02D66812781C6
:1035B000621B70E080E090E00895BC0184E899E02F
:1035C0000E94586180E090E00895EF92FF920F937F
:1035D0001F93CF93DF938C017A0184E899E066E032
:1035E00070E00E940061FC01BC01009719F46FEFCC
:1035F0007FEF1AC0E801A989BA891C962D913D91E7
:103600004D915C911F97F7FE02C04D7F01C0426053
:103610001C962D933D934D935C931F9711821082BE
:103620001383028315821482CB01DF91CF911F9106
:103630000F91FF90EF900895CF93DF93EC010FB6B9
:10364000F8940F92009731F080919A008F738093D5
:103650009A0003C08AB18F738AB90F900FBE8AE0B7
:103660000E94E364CD2B31F080919A00877E809395
:103670009A0003C08AB1877E8AB9DF91CF910895FD
:103680008F929F92AF92BF92CF92DF92EF92FF9272
:103690000F931F93CF93DF93DC016A01EA01E88067
:1036A000F9800A811B81BE2C009711F4A6E7B4E0D3
:1036B0001C96AC901C975196CD91DC915297CB0102
:1036C000815091408431910548F48D589F4FFC0101
:1036D000EE0FFF1F0590F491E02D09942FEF3FEFBF
:1036E000CDC18A2D90E00E941C1BAA2029F0809158
:1036F0009B0081FF0BC002C0599B08C092E0EE0CFA
:10370000FF1C001F111F9A95D1F707C083E0EE0C34
:10371000FF1C001F111F8A95D1F70E948465A80124
:1037200097010E94DF792F5F3F4F4F4F5F4F5695B4
:1037300047953795279521503040AA2029F02093AE
:1037400099003093980003C029B9309390000FB6C8
:10375000F8940F92AA2021F088ED80939A0002C07D
:1037600088ED8AB90F900FBE87C1AA20A1F0809181
:103770009B0081FD06C0A0E18A2E912CA12CB12CCA
:1037800005C0F8E08F2E912CA12CB12C80919800CF
:103790009091990010C0599906C0E0E18E2E912CAD
:1037A000A12CB12C05C078E0872E912CA12CB12C36
:1037B0008091900099B1382F20E0C92FD0E0C22B22
:1037C000D32B0E9484657B018C012196BE0180E091
:1037D00090E0A50194010E948D799B01AC01C80184
:1037E000B7010E94DF79E601288339834A835B832E
:1037F00043C18A2D90E00E941C1B8B2D8550843084
:1038000008F05DC0982F990FAA2061F080919D006B
:10381000897F982B90939D0080919A008B7F809355
:103820009A0063C080919500897F982B90939500B2
:1038300052985BC0AA2049F080919D0090E086706C
:10384000907095958795059682C08091950090E03F
:103850008670907095958795059664C08A2D90E046
:103860000E941C1BE2E0EB1550F1F1E0BF1611F4D1
:1038700043E0B42E9B2D9295907FAA2039F0809141
:103880009D008F7C892B80939D0006C080919500C0
:103890008F7C892B80939500992339F110C0AA2041
:1038A00019F080919D00E8C080919500E5C08A2DB7
:1038B00090E00E941C1B8B2D8150823018F02FEF5E
:1038C0003FEF15C0982F990F990F990FAA2039F043
:1038D00080919D00877F982B90939D0006C08091DA
:1038E0009500877F982B9093950020E030E00FB6ED
:1038F000F8940F92AA2021F088ED80939A0002C0DC
:1039000088ED8AB90F900FBEB9C0AA20A9F08091A6
:103910009D0090E08870907033E0959587953A957A
:10392000E1F70196AA2797FDA095BA2FE6018883B3
:103930009983AA83BB83A0C08091950090E0887092
:10394000907023E0959587952A95E1F70196AA272F
:1039500097FDA095BA2F51C01F96ED91FC915097FD
:10396000E601188219821A821B821C968D919C9105
:103970001D97892B19F080919B0001C08BB1282FD6
:1039800030E082FF09C081E090E0A0E0B0E0E60115
:1039900088839983AA83BB8323703070232B51F0D3
:1039A000E60188819981AA81BB818260888399839D
:1039B000AA83BB8390858185981751F4E60188819D
:1039C0009981AA81BB81806888839983AA83BB83FC
:1039D00096818781891709F04FC0F6018081918116
:1039E000A281B3818064A2CFE882F9820A831B831B
:1039F00043C088819981AA81BB81F601808391832C
:103A0000A283B38339C0EC82FD820E831F8334C04E
:103A10008C819D81AE81BF8189CF8C859D85AE854E
:103A2000BF85A0FF24C01EC02C853D854E855F85C7
:103A3000BB2011F041600BC04E7F09C02C853D8535
:103A40004E855F85BB2011F0426001C04D7F2C8701
:103A50003D874E875F8710C08C859D85AE85BF856D
:103A6000A1FF05C081E090E0A0E0B0E0C6CFE60194
:103A7000188219821A821B8220E030E0C901DF918E
:103A8000CF911F910F91FF90EF90DF90CF90BF905B
:103A9000AF909F908F9008950F931F93DF93CF93D4
:103AA00000D000D0CDB7DEB78C01DC011B968C9125
:103AB0001B97823009F06DC01E968C911E9788234B
:103AC00009F067C01C968D919C911D97029708F094
:103AD00060C01F96ED91FC91509780E895E2A0E0C0
:103AE000B0E089839A83AB83BC838CE092E0DF01F2
:103AF0009C011D9221503040E1F783EC9EE19183BF
:103B0000808387E99AE19383828385ED9DE19583A4
:103B10008483D8015196ED91FC91529780E1DF01A9
:103B20001D928A95E9F780E090E0A0E1B0E08487FB
:103B30009587A687B787F80184859585892B61F0DD
:103B40008BEA94E06CE57AE1A8010E940646892B95
:103B500001F581EB94E00BC089E994E06CE57AE132
:103B6000A8010E940646892BA1F48FE994E065E143
:103B70007AE1A8010E940646892B59F4C80161E048
:103B800071E0AE014F5F5F4F0E94401B20E030E0CC
:103B900002C02FEF3FEFC9010F900F900F900F90D1
:103BA000CF91DF911F910F9108950F931F93CF93A2
:103BB000DF93FC0107851089C189D2890E94971A79
:103BC000892B19F02FEF3FEF15C00FB6F8940F9225
:103BD000289607C0CE0144E650E060E070E00E9405
:103BE000ED68F801908581859817A1F70F900FBEB9
:103BF00020E030E0C901DF91CF911F910F9108952E
:103C00002F923F924F925F926F927F928F929F92EC
:103C1000AF92BF92CF92DF92EF92FF920F931F93DA
:103C2000DF93CF9300D0CDB7DEB76C01FB013A0133
:103C30004901DC011F960D911C9150975196AD9052
:103C4000BC905297D5011C962D913D914D915C9160
:103C50001F976115710521F40E94D51D2C016DC0BF
:103C600019012A0175E156944794379427947A955F
:103C7000D1F7B22DB170BA8361E15695479537956A
:103C800027956A95D1F7822F817089837F0144241B
:103C900055243DC0D80118969C91189719968C917F
:103CA0008F5F891731F4C6010E94D51D892B09F059
:103CB00041C08114910419F0F701949102C0D70119
:103CC0009C91B981B13069F49A3081F4EA81E13094
:103CD00021F4F2E0FA83F98302C082E089839DE057
:103CE0000BC0A981A23011F4B1E0B9830894E11CA2
:103CF000F11C0894411C511CF8018185E80FF11D4D
:103D0000E45FFE4F90838F5FD80119968C93461421
:103D100057040CF4BFCFBA81B23038F4F501848572
:103D20009585A685B785A4FF08C0C6010E94D51D4C
:103D3000892B19F044244A94542CC2010F900F90FF
:103D4000CF91DF911F910F91FF90EF90DF90CF9077
:103D5000BF90AF909F908F907F906F905F904F90AB
:103D60003F902F900895FC018281938121E030E003
:103D70000E94001E0895FC018281938120E030E0C2
:103D80000E94001E0895EF92FF920F931F93CF930E
:103D9000DF93FC01C785D089018912890FB6F89499
:103DA0000F929E810F900FBE8F81891719F020E02E
:103DB00030E01AC0EAE0EE2EF12CE00EF11EF80120
:103DC0004081518162817381C7010E94ED689C012D
:103DD0000FB6F8940F929F818E810F900FBE211520
:103DE000310511F4981759F3C901DF91CF911F9153
:103DF0000F91FF90EF9008955F926F927F928F9254
:103E00009F92AF92BF92CF92DF92EF92FF920F9369
:103E10001F93CF93DF933A01DC0112968D909C9013
:103E20001397F401C785D0890188F289E02DC484F5
:103E3000D584E684F78480E090E0A2E0B0E0C82278
:103E4000D922EA22FB226115710531F05B0100E005
:103E500010E0FAE05F2E36C08E818F8300E010E024
:103E600034C09E818F81891769F40115110531F0E5
:103E70002CC0C4010E94C31E892B39F59E818F81FD
:103E80008917B9F38F81FE01E80FF11D94858F5FCB
:103E90008F83C114D104E104F10471F09D3011F05D
:103EA0009A3051F48B85882311F0891759F49B8738
:103EB000D5015D925D0104C01B86F50191935F0100
:103EC0000F5F1F4F0615170564F2C801DF91CF91F0
:103ED0001F910F91FF90EF90DF90CF90BF90AF9028
:103EE0009F908F907F906F905F900895FB014AB1F3
:103EF0004078579880319105B9F0813191052CF4C3
:103F0000009771F0019749F40CC08231910549F195
:103F100082319105CCF08097D1F02FEF3FEF1DC09B
:103F200040E08CB18CB117C05F9B05C081E090E090
:103F30009183808302C011821082442391F080819A
:103F4000918180689183808320E030E008C080E127
:103F500090E09183808320E030E0442321F0579A61
:103F600002C020E030E0C90108951F920F920FB601
:103F70000F920BB60F9211242F933F934F935F93A1
:103F80006F937F938F939F93AF93BF93EF93FF9321
:103F900089E994E00E94FB45FF91EF91BF91AF91B9
:103FA0009F918F917F916F915F914F913F912F9151
:103FB0000F900BBE0F900FBE0F901F901895FB0136
:103FC0004AB14074569880319105B1F08131910524
:103FD0002CF4009771F0019749F40CC082319105DF
:103FE00041F182319105C4F08097C9F02FEF3FEF86
:103FF0001CC040E05E9A17C05E9B05C081E090E067
:104000009183808302C011821082442391F08081C9
:10401000918180689183808320E030E008C080E156
:1040200090E09183808320E030E0442321F0569A91
:1040300002C020E030E0C90108951F920F920FB630
:104040000F920BB60F9211242F933F934F935F93D0
:104050006F937F938F939F93AF93BF93EF93FF9350
:104060008FE994E00E94FB45FF91EF91BF91AF91E2
:104070009F918F917F916F915F914F913F912F9180
:104080000F900BBE0F900FBE0F901F901895FB0165
:104090004AB1407255988131910501F18231910503
:1040A0002CF4009741F1409731F408C0823191051A
:1040B00011F18097B1F02FEF3FEF19C05D9B05C064
:1040C00081E090E09183808302C0118210824423BA
:1040D00091F08081918180689183808320E030E03D
:1040E00008C080E190E09183808320E030E04423A9
:1040F00021F0559A02C020E030E0C90108951F92D6
:104100000F920FB60F920BB60F9211242F933F937D
:104110004F935F936F937F938F939F93AF93BF93CF
:10412000EF93FF9385EA94E00E94FB45FF91EF91A6
:10413000BF91AF919F918F917F916F915F914F91BF
:104140003F912F910F900BBE0F900FBE0F901F90BD
:1041500018959C01FB0140919A00407880919A004B
:104160008F7780939A0020313105E1F021313105BC
:104170003CF42115310581F02130310551F40DC099
:104180002231310591F122313105F4F0203231052F
:10419000F1F02FEF3FEF21C040E080919C00809133
:1041A0009C0019C080919B0087FF05C081E090E0D2
:1041B0009183808302C0118210824423B1F08081F8
:1041C000918180689183808320E030E008C080E1A5
:1041D00090E09183808320E030E0442341F080919F
:1041E0009A00806880939A0002C020E030E0C90104
:1041F00008951F920F920FB60F920BB60F921124D3
:104200002F933F934F935F936F937F938F939F93DE
:10421000AF93BF93EF93FF938BEA94E00E94FB452B
:10422000FF91EF91BF91AF919F918F917F916F918E
:104230005F914F913F912F910F900BBE0F900FBE4A
:104240000F901F9018959C01FB0140919A004074BB
:1042500080919A008F7B80939A0020313105E9F09C
:10426000213131053CF42115310581F02130310532
:1042700051F40DC02231310599F122313105FCF0A4
:1042800020323105F9F02FEF3FEF22C040E080915E
:104290009B00806480939B0019C080919B0086FFE7
:1042A00005C081E090E09183808302C0118210827A
:1042B0004423B1F08081918180689183808320E0E4
:1042C00030E008C080E190E09183808320E030E01E
:1042D000442341F080919A00806480939A0002C048
:1042E00020E030E0C90108951F920F920FB60F929F
:1042F0000BB60F9211242F933F934F935F936F93BD
:104300007F938F939F93AF93BF93EF93FF9381EB33
:1043100094E00E94FB45FF91EF91BF91AF919F9177
:104320008F917F916F915F914F913F912F910F905E
:104330000BBE0F900FBE0F901F9018959C01FB01B4
:1043400040919A00407280919A008F7D80939A00EC
:104350002131310529F1223131053CF42115310596
:1043600081F12031310539F409C02231310549F19B
:1043700020323105C1F02FEF3FEF1BC080919B0031
:1043800085FF05C081E090E09183808302C01182A7
:1043900010824423B1F08081918180689183808371
:1043A00020E030E008C080E190E09183808320E04D
:1043B00030E0442341F080919A00806280939A001B
:1043C00002C020E030E0C90108951F920F920FB69D
:1043D0000F920BB60F9211242F933F934F935F933D
:1043E0006F937F938F939F93AF93BF93EF93FF93BD
:1043F00087EB94E00E94FB45FF91EF91BF91AF9155
:104400009F918F917F916F915F914F913F912F91EC
:104410000F900BBE0F900FBE0F901F901895CF936B
:10442000DF93FC01EB01DA01009719F426E230E09A
:104430001FC084859585009719F420E030E018C0EE
:104440009C0182899389082E892F902D8D939C93AE
:1044500086859785A089B18988839983AA83BB8340
:1044600015861486138A128A16861786108A118A70
:10447000C901DF91CF9108959C01E0915809F09115
:1044800059090AC0828193818217930711F49F0111
:1044900007C00190F081E02D3097A1F720E030E0D7
:1044A000C9010895DC01FA01009791F06250704152
:1044B00079F44115510561F02230310549F48081CC
:1044C00091811B969C938E931A9720E030E002C056
:1044D0002FEF3FEFC9010895DC01FA01009791F039
:1044E0006250704179F44115510561F02230310577
:1044F00049F41A968D919C911B979183808320E0BB
:1045000030E002C02FEF3FEFC90108950F931F93D2
:10451000FC01009719F42FEF3FEF12C04687578731
:10452000608B718B338B228B1587048786819781F3
:10453000892B21F0CF0106960E94986820E030E098
:10454000C9011F910F910895CF93DF93EC01E09182
:104550005809F0915909A8E5B9E01DC0EC17FD070D
:10456000B1F4888199818D939C9307C0808191815A
:104570009D838C83CF010E94C04FEC81FD813097D9
:10458000A9F7CE010E94357220E030E008C0DF01BB
:104590000190F081E02D309709F72FEF3FEFC9012F
:1045A000DF91CF9108954F925F926F927F928F9299
:1045B0009F92AF92BF92CF92DF92EF92FF920F93B2
:1045C0001F93CF93DF935C014B013A01522E432E90
:1045D000FC0184819581892B31F4C5010696B701D0
:1045E000A6010E94ED68F501C481D581209719F4D8
:1045F00000E010E031C088819981F50195838483C2
:10460000EF81F88584859585A685B785F40180833B
:104610009183A283B383EB85FC8580819181082EF1
:10462000892F902DF3019183808349895A894017FE
:1046300051070CF48A01F50180859185841B950B47
:10464000918780876F857889852D942DA8010E9498
:104650007F7ACE010E94C04FC801DF91CF911F9198
:104660000F91FF90EF90DF90CF90BF90AF909F9011
:104670008F907F906F905F904F9008956F927F9290
:104680008F929F92AF92BF92CF92DF92EF92FF9262
:104690000F931F93CF93DF934C015A016B013901A4
:1046A00080E090E060E8A7010E949451EC0100973F
:1046B00041F48CE090E0F401958784870FEF1FEFC1
:1046C00013C08F859889B801A7010E947F7AC40121
:1046D000B601A50193018E010E944A2A8C01009720
:1046E00019F4CE010E94C04FC801DF91CF911F91F4
:1046F0000F91FF90EF90DF90CF90BF90AF909F9081
:104700008F907F906F900895CF93DF93EC0180910D
:10471000A908882369F481E160EC79E20E940D2404
:10472000892B19F020E030E041C081E08093A90896
:10473000209719F57091580960915909C091BD04ED
:10474000D091BE04219611F4C0E0D0E1AE01042E58
:10475000452F502D872F962F9C01F90108C082818B
:1047600093818417950771F30190F081E02D3097C4
:10477000B1F7C093BD04D093BE0481E090E064E142
:1047800070E00E941972FC019C01009779F00C2ED8
:10479000CD2FD02DD383C283809158099091590990
:1047A00091838083F0935909E0935809C901DF91FF
:1047B000CF910895DF92EF92FF920F931F93CF93C3
:1047C000DF937C018B01DB011796ED91FC9118972B
:1047D000D184C091AA08D091AB0812C08A81D816A2
:1047E00061F4EB81FC81309741F0C701B801099574
:1047F000892B19F420E030E007C00990D881C02D42
:10480000209761F72FEF3FEFC901DF91CF911F9103
:104810000F91FF90EF90DF9008951F93CF93DF9358
:10482000182FEB01A091AA08B091AB0808C012960E
:104830008C9112978117F9F00D90BC91A02D1097D3
:10484000B1F724C012838091AA089091AB08009719
:1048500059F4B093AB08A093AA088AED93E2909321
:104860007D0980937C0907C011969C938E93B09329
:10487000AB08A093AA081496DC93CE93139720E07C
:1048800030E0C901DF91CF911F91089581E090E060
:1048900065E070E00E941972FC01DC01009791F65E
:1048A0002FEF3FEFEECFDF92EF92FF920F931F9328
:1048B000CF93DF937B018C01EA014115510521F073
:1048C000188219821A821B822FEFE2162FEFF2064E
:1048D0002FEF02072FEF120789F0D801C701082E2A
:1048E0008B2FB02D092E9A2FA02D80709070A07064
:1048F000B07F80509040A040B04E39F4E0915A090A
:10490000F0915B093097E1F53EC0D0905A09709163
:104910005B0960E08D2D972F9C01F90114C0868101
:104920009781A085B1858E219F21A023B12322816B
:1049300033814481558182179307A407B50731F06D
:104940000190F081E02D309751F71DC0209761F064
:1049500082859385A485B5850097A105B10521F0D1
:1049600088839983AA83BB8386859785892B41F4A5
:10497000E284F384048515856F5F643059F603C0C3
:104980002685378502C020E030E0C901DF91CF9154
:104990001F910F91FF90EF90DF9008952F923F921B
:1049A0004F925F926F927F928F929F92AF92BF923F
:1049B000CF92DF92EF92FF920F931F93CF93DF93EB
:1049C0002B013C0149015A011601C0915A09D091AD
:1049D0005B098AE5C82E89E0D82E04C06E010990D3
:1049E000D881C02D209749F08E819F81A885B985F7
:1049F00088169906AA06BB0688F380E190E00E941B
:104A00003B72FC01009719F42FEF3FEF19C04820CB
:104A100059206A207B20428253826482758286827A
:104A20009782A086B186E286F3860487158737864B
:104A30002686D183C083D6018D939C9320E030E0FD
:104A4000C901DF91CF911F910F91FF90EF90DF90FF
:104A5000CF90BF90AF909F908F907F906F905F901E
:104A60004F903F902F900895CF93DF93EC011982E0
:104A70001882E0915A09F0915B0906C0019699836A
:104A800088830190F081E02D888199813097B1F77A
:104A900024E0880F991F2A95E1F70E943B729C0140
:104AA0000097A1F0E0915A09F0915B090CC0E9016F
:104AB000DF0180E10D9009928150E1F7205F3F4FC7
:104AC0000190F081E02D309791F702C01982188291
:104AD000C901DF91CF9108954F925F926F927F92BB
:104AE0008F929F92AF92BF92CF92DF92EF92FF92FE
:104AF0000F931F932B013C0149015A012FEF3FEF08
:104B000035C082819381A481B58184159505A60560
:104B1000B70511F586819781A085B185881599051E
:104B2000AA05BB05C9F482859385A485B5858E1534
:104B30009F05A007B10781F4868597858C159D0593
:104B400059F48081918190935B0980935A09CF0138
:104B50000E94357220E030E0E0915A09F0915B0943
:104B60008081918190935B0980935A09E0915A0961
:104B7000F0915B09309729F6C9011F910F91FF90C1
:104B8000EF90DF90CF90BF90AF909F908F907F90ED
:104B90006F905F904F900895CF93DF93EC0117C013
:104BA000868597858C179D0711F0209751F4808199
:104BB000918190935B0980935A09CF010E943572CD
:104BC00006C08081918190935B0980935A09E0919E
:104BD0005A09F0915B09309719F780E090E0DF9176
:104BE000CF910895DF93CF9300D000D0CDB7DEB73B
:104BF000FC0119821A821B821C82DE01119640E0A0
:104C0000808180538A3098F520E030E0C90163E06C
:104C1000880F991F6A95E1F7220F331F820F931FA8
:104C20002191332727FD309520533040280F391F1D
:104C3000808180333CF08A332CF42F3F310531F3EF
:104C400028F315C02F3F310509F088F44F5F2C93EE
:104C500080818E3239F0443051F429813A814B8180
:104C60005C8109C0443019F011963196C9CF2FEFFD
:104C70003FEF4FEF5FEFB901CA010F900F900F9018
:104C80000F90CF91DF910895AF92BF92CF92DF92B4
:104C9000EF92FF920F931F93DF93CF93CDB7DEB7C1
:104CA00027970FB6F894DEBF0FBECDBF6C837D8310
:104CB0008E839F83E4E0EE2EF12CEC0EFD1E0EEBB6
:104CC00018E06E010894C11CD11C5EE277E0A72EAB
:104CD000B12CAC0EBD1ED7014C9130E0842F6AE0A0
:104CE0000E94AC79292F842F0E94AC79482FF601BD
:104CF000E30FF11D205D20833F5F882379F7932F19
:104D0000F7011082D80106C03150F601E30FF11D02
:104D100080818D933323C1F7F801E90FF11DDF0185
:104D20005D938D01EA14FB0421F00894E11CF11C51
:104D3000D2CF10828EEB98E027960FB6F894DEBFA4
:104D40000FBECDBFCF91DF911F910F91FF90EF90DC
:104D5000DF90CF90BF90AF900895DF93CF93CDB702
:104D6000DEB760970FB6F894DEBF0FBECDBF9C01D3
:104D7000DE011196EFEBF4E080E101900D9281509D
:104D8000E1F7A901ACEAB8E020E030E0BE016F5FD6
:104D90007F4F9AE3FA01808182958F70FB01E80FC3
:104DA000F11D80818C93FA0180818F70FB01E80FE7
:104DB000F11D808111968C9311972530310521F0DA
:104DC00012969C93129703C012961C9212972F5F13
:104DD0003F4F4F5F5F4F139626303105D9F68CEA6F
:104DE00098E060960FB6F894DEBF0FBECDBFCF91AE
:104DF000DF910895EF92FF920F931F93DF93CF936C
:104E000000D000D0CDB7DEB749835A836B837C8353
:104E10000E9462697C01009769F1DC011B968C910C
:104E20001B97833039F51F96ED91FC915097808147
:104E3000863001F55596ED91FC9156973097D1F05B
:104E4000C70168E070E1AE014F5F5F4F09958C01CB
:104E5000009791F449815A816B817C81403EB0E09A
:104E60005B07B0E06B07B1E07B0731F0C7010E9440
:104E7000B92F02C00FEF1FEFC8010F900F900F90D6
:104E80000F90CF91DF911F910F91FF90EF900895B8
:104E9000EF92FF920F931F93DF93CF9300D000D038
:104EA000CDB7DEB749835A836B837C830E946269E6
:104EB0007C01009769F1DC011B968C911B97833074
:104EC00039F51F96ED91FC9150978081863001F560
:104ED0005596ED91FC9156973097D1F0C70167E058
:104EE00070E1AE014F5F5F4F09958C01009791F41F
:104EF00049815A816B817C81403EB0E05B07B0E024
:104F00006B07B1E07B0731F0C7010E94BF2F02C0E1
:104F10000FEF1FEFC8010F900F900F900F90CF91E0
:104F2000DF911F910F91FF90EF9008952F923F9284
:104F30004F925F926F927F928F929F92AF92BF92A9
:104F4000CF92DF92EF92FF920F931F93DF93CF9355
:104F500000D000D000D0CDB7DEB71C012A013B0144
:104F600048015901C982DA82EB82FC82DC011F967A
:104F70008C911F9750969C914115510561057105C3
:104F800081F440906C0950906D0960906E097090AA
:104F90006F09411451046104710419F42FEF3FEFBC
:104FA000A8C08D839E83ED81FE81438654866586ED
:104FB000768681149104A104B10431F480ED94E06B
:104FC0000E94F2254B015C01AD81BE8153968D920A
:104FD0009D92AD92BC925697C501B4016421752192
:104FE00086219721A5019401EE24FF248701610108
:104FF0000E94CE2489819A81AB81BC810097A10552
:10500000B10571F060E070E080E090E020E030E019
:1050100040E050E0E980FA800B811C810E94CE24A0
:10502000ADE5B9E0F101329689E001900D92815031
:10503000E1F7AD81BE8115962C91159716968C914E
:105040001697822B17969C911797892B18969C91EF
:105050001897892B19969C911997892B1A969C91D0
:10506000892B61F020FD0AC0A6E6B9E0ED81FE8142
:10507000359686E001900D928150E1F740926C09DF
:1050800050926D0960926E0970926F09809270095A
:1050900090927109A0927209B092730989819A81E4
:1050A000AB81BC810097A105B105A1F48091740981
:1050B00090917509A0917609B0917709842595257D
:1050C000A625B72588219921AA21BB210097A105F2
:1050D000B10561F089819A81AB81BC8180937409AB
:1050E00090937509A0937609B09377090E947C2963
:1050F0009C01C90126960FB6F894DEBF0FBECDBF46
:10510000CF91DF911F910F91FF90EF90DF90CF90A3
:10511000BF90AF909F908F907F906F905F904F90D7
:105120003F902F9008952F923F924F925F926F92EF
:105130007F928F929F92AF92BF92CF92DF92EF9227
:10514000FF920F931F93DF93CF93CDB7DEB72897CE
:105150000FB6F894DEBF0FBECDBF6F8378871901FD
:105160002A01370148010E946269FC01009709F495
:1051700091C08385833009F08DC0FA83E983A785C8
:10518000B0898C91863009F040C025893689211577
:10519000310541F18E010D5F1F4FCF0164E070E1D9
:1051A000A801F9010995E981FA8125893689CF019C
:1051B00065E070E14F815885F90109958B819C81EB
:1051C000AD81BE8181608B839C83AD83BE83E98189
:1051D000FA8125893689CF0163E070E1A801F901E0
:1051E00009950AC015968F8198859C01F90186E082
:1051F00001900D928150E1F789819A81B201A1015C
:10520000940183017601650141C0873109F042C0F4
:10521000C188D288F60121A232A243A254A2E1148D
:10522000F1040105110521F466246A94762C4301EA
:10523000F60161A672A683A694A6C6010E948B6899
:10524000F601FF968081918167E171E0AE014F5FC9
:105250005F4F0E94F669C60140E65AEE60E070E0DA
:105260000E94ED68892BB1F4F60184AD893091F488
:1052700041A152A163A174A101A512A523A534A542
:10528000C5A0D6A0E7A0F0A489819A810E949627A4
:105290009C0102C02FEF3FEFC90128960FB6F8948A
:1052A000DEBF0FBECDBFCF91DF911F910F91FF9059
:1052B000EF90DF90CF90BF90AF909F908F907F90B6
:1052C0006F905F904F903F902F900895AF92BF9254
:1052D000CF92DF92EF92FF920F931F93AA24BB24E9
:1052E00065010E9493281F910F91FF90EF90DF902E
:1052F000CF90BF90AF90089580E280935C0980E4E6
:1053000090E06CE579E040E250E00E94EF51892B9B
:1053100019F420E030E002C02FEF3FEFC9010895FB
:10532000CF93DF93EC0180E490E06CE579E040E21C
:1053300050E00E94F251892BE9F480915C0980329F
:1053400051F48DE599E0BE010E948F7A009719F41F
:1053500020E030E011C0ECE5F9E080E2DF011D92D1
:105360008A95E9F7CF010A966FEF70E046E050E0CA
:105370000E94887A2FEF3FEFC901DF91CF91089506
:105380000F931F93CF93DF93EB01EB85FC85309751
:10539000E9F12D853E8528303105C0F12850304097
:1053A0003A8B298B88E090E09E878D87232B21F014
:1053B0003896F88BEF873897828193810E943C2240
:1053C0008C01009781F48A8183FF20C083E063E031
:1053D00020E030E040E050E08E010E94232F892B36
:1053E00009F051C013C0DC011A964D915C911B97D6
:1053F0004115510569F189899A8918962D913C9139
:105400001997820F931F4817590724F4CE010E9461
:10541000C04F39C0D8011496ED91FC911597309783
:1054200051F0CF010190F081E02D3097D1F7FC01D0
:10543000D183C08303C0F801D583C483D8011896F3
:105440008D919C91199729893A89820F931F0EC0DB
:10545000FC0184819581009711F00E94C04FD80112
:105460001596DC93CE93149789899A8919969C9303
:105470008E931897F80186819781892B21F0C801B6
:1054800006960E94986880E090E0DF91CF911F918E
:105490000F9108954F925F926F927F928F929F9299
:1054A000AF92BF92CF92DF92EF92FF920F931F9332
:1054B000DF93CF9300D000D0CDB7DEB72C013A01F7
:1054C0004B017901C80160E448E050E00E9494512A
:1054D0005C01009719F42FEF3FEF5BC0FC01C38420
:1054E000D484F20182819381F601918380830E2C12
:1054F000EF2CF02CF382E282F501818992892585D7
:105500003685820F931F082E892F902DF6019583E3
:105510008483C401B301AE014F5F5F4F0E945324E7
:10552000FC01009761F00784F089E02D8385948564
:10553000A585B68589839A83AB83BC8304C0198211
:105540001A821B821C82F6011782168269817A8177
:105550008B819C81E480F580A401930101E10E948C
:105560001C2BDC01CB01B60148E050E00E94DF2A91
:10557000F50167857089418952890E94152BF601D2
:105580009783868381E1B401A30195010E94542C85
:105590009C01C9010F900F900F900F90CF91DF9158
:1055A0001F910F91FF90EF90DF90CF90BF90AF9041
:1055B0009F908F907F906F905F904F900895EF92A3
:1055C000FF920F931F937C0100E010E0FB010FC0DE
:1055D000318120E0808190E0822B932BA0E0B0E02D
:1055E000E80EF91E0A1F1B1F3296425050404230EF
:1055F000510574F7452B61F08081E80EF11C011D07
:10560000111D06C000E010E0E80EF91E0A1F1B1F66
:10561000C801AA27BB270097A105B10599F7C701C3
:105620001F910F91FF90EF9008950E94DF2A9C0137
:1056300020953095C9010895EF92FF920F93DF9363
:10564000CF93CDB7DEB72C970FB6F894DEBF0FBE61
:10565000CDBF69837A838B839C832D833E834F8365
:10566000588719860A87FC86EB8680E090E0BE01A9
:105670006F5F7F4F4CE050E00E94DF2ABC0180E06A
:1056800090E02C960FB6F894DEBF0FBECDBFCF9141
:10569000DF910F91FF90EF9008959093CF08809342
:1056A000CE080895AF92BF92DF92EF92FF920F93D0
:1056B0001F93CF93DF935C01EB010F811885D80115
:1056C0008C91807F803409F0E2C016968D919C9178
:1056D0001797082E892F902D9F73892B09F0D7C01B
:1056E000E091CE08F091CF08309751F01C966D9163
:1056F0007D918D919C911F970995892B09F0C7C0C9
:10570000F80160816F70660F660F643108F4BFC0E6
:10571000E62EFF2489859A858E159F050CF4B7C067
:10572000D80150962D913D914D915C915397F50183
:10573000878590892F3FFFEF3F07FFEF4F07FFEF70
:105740005F0709F457C0FC0183859485A585B6855C
:105750000097A105B105A9F083899489A589B68927
:105760008F3F7FEF97077FEFA7077FEFB70749F0DE
:10577000822B932BA42BB52B8F5F9F4FAF4FBF4F27
:10578000C9F1DA01C901807F9070A070B070803ECD
:105790009105A105B105B1F4058CF68DE02D0FC082
:1057A00080859185A285B385281739074A075B074D
:1057B00019F482E0D82E22C00190F081E02D3097BC
:1057C00079F765C08A8188608A8383859485A585F9
:1057D000B6850097A105B10581F021153105410578
:1057E000510509F454C0281739074A075B0709F027
:1057F0004EC003C0DD24D39401C0DD24D80112962D
:105800002D913C911397022E232F302D3E872D870B
:105810002E153F05E4F189859A8582179307BCF11F
:10582000FA86E986C9018E199F099E878D87892B83
:1058300029F0C801860F911D9C878B87E0917C0918
:10584000F0917D09309729F0C501BE010995892B9A
:1058500009F1F8018185813019F0823059F405C0D1
:10586000C501BE010E94232E15C0C501BE010E94C4
:10587000C52F10C0DD2059F483E062E020E030E065
:1058800040E050E08E010E94232F892B19F4CE01B5
:105890000E94C04FDF91CF911F910F91FF90EF9029
:1058A000DF90BF90AF9008955F926F927F928F923A
:1058B0009F92AF92BF92CF92DF92EF92FF920F939F
:1058C0001F93DF93CF93CDB7DEB72E970FB6F89423
:1058D000DEBF0FBECDBFF82E4B875C876D877E87FE
:1058E00062E0861729F0C90160E244E150E004C09B
:1058F000C90160E248E150E00E9494514C010097D8
:1059000009F485C1DC0117960D911C911897F801D7
:1059100080818F7080648083807FF2E0FF1621F4A5
:105920008660D8018C9303C08560F8018083D8011C
:1059300011961C921197F4018585968521853285F3
:10594000820F931F21893289820F931F082E892F7E
:10595000902D13969C938E93129717961C921E92DD
:105960001697B2E0FB1621F481E0F801808704C0AD
:1059700080E4D80118968C93F801F1862B853C853C
:105980004D855E85D80150962D933D934D935C9344
:105990005397B2E0FB1671F480E090E0A4E0B4E924
:1059A000082E8B2FB02D092E9A2FA02D848B958B2E
:1059B000A68BB78B2F3FFFEF3F07FFEF4F07FFEFA0
:1059C0005F0791F0DA01C901082E8B2FB02D092E47
:1059D0009A2FA02D80709070A070B07F8050904062
:1059E000A040B04E51F088C0CE0105966FEF70E038
:1059F00046E050E00E94887A0EC081E08D831E82CE
:105A00008EE58F83FE013B9681818F778887828127
:105A1000898783818A87C0904009D09041095524A5
:105A2000539485E0682E712C6C0E7D1E60C0D601EB
:105A30001B968C91833009F057C0C40160E20E942C
:105A4000B4505C01F601E784F088DC0117966C9194
:105A5000179718967C918B01F701218D328DC90122
:105A6000082E892F902DD80115969C938E9314970C
:105A70002F5F3F4F328F218F83859485A585B68513
:105A8000F80184879587A687B78750861386128684
:105A9000D50119964D915C911A9780E090E00E9493
:105AA000152BF80193878287D7018C91863049F4B2
:105AB0009396ED91FC919497C60160E078E0A30184
:105AC0000CC0873171F4D7019396ED91FC919497B6
:105AD000C60161E270E040E050E095010995892B34
