:100000000C943B010C9481010C9481010C948101AE
:100010000C9481010C9481010C94B9680C948101B9
:100020000C9481010C9481010C9481010C94810148
:100030000C9481010C9481010C9481010C94D15F8A
:100040000C9481010C9481010C943B640C949D648C
:100050000C9481010C9481010C9481010C94810118
:100060000C9481010C9481010C9481010C94810108
:100070000C9481010C9481010C9481010C948101F8
:100080000C9481010C9481010C948101686B6B6B61
:100090006E6B766B796B7C6B7F6B826B896BB46BF1
:1000A000D96BDE6BE36BE86BED6BF76BFB6BFE6B99
:1000B000086C126C656B656B656B656B366C396CC7
:1000C0003C6C4D6C506C5A6C656B5D6C656C686C0F
:1000D000706C736C7B6C7E6C866C656B656B656B32
:1000E000656B166C246C3C68746D6C3E0A3C6865EC
:1000F00061643E3C2F686561643E0A3C626F6479CE
:100100003E0A3C68313E576F726B733C2F68313E3C
:100110000A3C2F626F64793E0A3C2F68746D6C3E16
:100120000A696E6465782E68746D6C00636C6F7319
:10013000650D0A0D0A00436F6E6E656374696F6E1C
:100140003A2000436F6E74656E742D456E636F6464
:10015000696E673A20677A69700D0A00436F6E74A2
:10016000656E742D4C656E6774683A20256C640D5D
:100170000A00436F6E74656E742D547970653A2071
:1001800025730D0A005757572D41757468656E74B5
:1001900069636174653A20426173696320726561C5
:1001A0006C6D3D222573220D0A003C48544D4C3E97
:1001B0003C484541443E3C5449544C453E2564200E
:1001C00025733C2F5449544C453E3C2F48454144EF
:1001D0003E3C424F44593E25642025733C2F424FFC
:1001E00044593E3C2F48544D4C3E0D0A004854544F
:1001F000502F25642E25642025642025730D0A5375
:1002000065727665723A2045746865726E75742001
:1002100025730D0A00FFFFFFFFFFFFFFFFFFFFFF3A
:100220003EFFFFFF3F3435363738393A3B3C3DFF20
:10023000FFFFFFFFFFFF0001020304050607080997
:100240000A0B0C0D0E0F1011121314151617181996
:10025000FFFFFFFFFFFF1A1B1C1D1E1F2021222373
:100260002425262728292A2B2C2D2E2F30313233D6
:10027000FFFFFFFFFF0080EC85BF87E089B9809317
:10028000990011241FBECFEFD0E1DEBFCDBF18E033
:10029000A0E0B1E0E8E9F4EE00E00BBF02C0079097
:1002A0000D92A831B107D9F719E0A8E1B8E001C073
:1002B0001D92A439B107E1F78FEF9FE79EBF8DBF75
:1002C0008FEF9FE7845999408158914050F04FEF4C
:1002D0005EE7445959408BE699E064E979E00E9471
:1002E0003F530E94365B8FE392E06EE972E040E09C
:1002F00050E020E831E00E945D5E0E9400000C9416
:100300004A720C9400006F927F928F929F92AF92EC
:10031000BF92CF92DF92EF92FF920F931F93DF93E2
:10032000CF9300D000D0CDB7DEB780E092ECA1E053
:10033000B0E089839A83AB83BC838BE397E060E072
:1003400070E040E00E94F95A4091710650917206A7
:1003500080E091E066E071E00E9496448091710631
:10036000909172060E94004461E071E0AE014F5F1F
:100370005F4F0E9496420E94765200D000D028E043
:1003800031E0EDB7FEB732832183948383830E94EB
:100390009F4583E391E0EDB7FEB79283818303E449
:1003A00011E0148303830E949F450F900F900F90DC
:1003B0000F9087EB97E060E070E040E00E94F95A10
:1003C000892B29F088E491E00E94B145FFCFC80154
:1003D00060E070E020E63AEE40E050E00E94B603B4
:1003E000892B29F081E791E00E94B145FFCF609110
:1003F00041097091420980914309909144090E94FA
:10040000182600D000D021EA31E0EDB7FEB73283E4
:100410002183948383830E949F450F900F908BEAE2
:1004200091E0EDB7FEB7928381830E949F450F90C4
:100430000F908CE496E060E070E040E00E94F95A92
:10044000892B29F088EC91E00E94B145FFCF80ED27
:1004500091E00E94B14534ED632E31E0732E2FEE12
:10046000822E21E0922E9CEFA92E91E0B92E8DE0F4
:10047000C82E82E0D82E0E943C217C010097C9F44E
:1004800000D000D0EDB7FEB7728261828091690919
:1004900090916A09948383830E949F450F900F90E7
:1004A0000F900F9068EE73E080E090E00E94295872
:1004B000E2CF00D0EDB7FEB7928281820E949F45C5
:1004C0000F900F90C70160E570E00E94AE2000D051
:1004D000EDB7FEB7B282A1820E949F450F900F90A8
:1004E000C70169E072E00E945A438C01009799F4B9
:1004F00000D000D0EDB7FEB7D282C18280916909E9
:1005000090916A09948383830E949F450F900F9076
:100510000F900F9005C00E946513C8010E941C43F4
:10052000C7010E94132088E292E00E94B145A3CF48
:100530009091490280934902892F08950E9406599B
:1005400084E492E063E871E040E050E020E033E0D2
:100550000E945D5E8EEF0E9496550E9416560E9484
:100560005E55209149022F3FC1F395B785B7837E31
:10057000822B85BF85B7806285BF889585B78F7DC3
:1005800085BF85B79C71837E982B95BFE6CF809100
:100590001D0890E0089580911E0890911F08109208
:1005A0001F0810921E08089520E030E080911D0879
:1005B000853011F421E030E0C9010895DF92EF9217
:1005C000FF920F931F93CF93DF93D62E79018A0169
:1005D0000E94DD5AEC01009751F08B85833039F48D
:1005E000EF85F889309719F08081863049F081E1F4
:1005F00090E090931F0880931E082FEF3FEF35C0C7
:100600000E942A57609328087093290880932A082B
:1006100090932B08E0922408F09225080093260876
:1006200010932708D0921D0880911B0890911C08F8
:10063000892B69F48AE492E06BE578E0AE0120E270
:1006400031E00E945D5E90931C0880931B0880E25D
:1006500098E00E94135A82E298E040E050E060E0A7
:1006600070E00E94685A20E030E0C901DF91CF912C
:100670001F910F91FF90EF90DF900895FC019A0178
:10068000AB0180911D08882349F083E090E09093AE
:100690001F0880931E082FEF3FEF05C0CF0168E0D1
:1006A0000E94DE029C01C9010895FC019A01AB0180
:1006B00080911D08853049F083E090E090931F08F9
:1006C00080931E082FEF3FEF05C0CF0169E00E9425
:1006D000DE029C01C9010895CF92DF92EF92FF9252
:1006E0000F931F93CF93DF93FC0184E292E0DF012D
:1006F000EC011D922197E9F781E08083818386E0F8
:100700008283EF016C96ABE3B9E00D9009928150C2
:10071000E1F724833583468357830C2CCD2CD02CD2
:10072000D186C086E486F58606871787E451FF4F99
:1007300093E69193DF0182E8819383E511968C9390
:10074000DF0111969183FD01319685E311968C931B
:1007500081E08183628387E090E0DF91CF911F91F8
:100760000F91FF90EF90DF90CF9008954F925F929E
:100770006F927F928F929F92AF92BF92CF92DF92B1
:10078000EF92FF920F931F93DF93CF93CDB7DEB716
:1007900060970FB6F894DEBF0FBECDBF4C012B01A2
:1007A0002D873E874F87588B0E94DD5A5C0100974A
:1007B00069F0FC018385833049F4C784D088C11473
:1007C000D10421F0F6018081863019F081E190E0BA
:1007D0003BC08E010F5F1F4FF80111928A95E9F718
:1007E00097E0692E712C6C0E7D1EC3016FEF70E0D7
:1007F00046E050E00E94827185E0E82EF12CEC0C7E
:10080000FD1CC701B80146E050E00E946C710097E2
:1008100041F0C701B30146E050E00E946C710097BF
:1008200031F54114510449F0ABE3B9E0F20186E03F
:1008300001900D928150E1F70CC0C4010E9464291F
:10084000892B39F082E090E090931F0880931E0876
:10085000BFC0D701EBE3F9E086E001900D92815033
:10086000E1F764EF71E080E090E00E942958F60122
:10087000138614861586168680914509909146093F
:10088000A0914709B0914809838B948BA58BB68BB7
:100890008091450990914609A0914709B091480976
:1008A00020914D0930914E0940914F0950915009C6
:1008B00082239323A423B5230097A105B10501F159
:1008C000C40140EE5EE260E070E00E9455032091BA
:1008D0004D0930914E0940914F0950915009209394
:1008E0004109309342094093430950934409E090F1
:1008F0004509F0904609009147091091480958C0F0
:10090000C40161E02D853E854F8558890E94DE0235
:10091000892B09F05DC080911D08853031F5E0918B
:100920001908F0911A08418152816381748105810F
:10093000168127813085C584D684E784F088C50177
:100940000E946A27E0911908F0911A0821893289DA
:1009500043895489E588F6880789108D80E090E006
:1009600060E070E00E94A00F30C0F601838594859E
:10097000A585B6850097A105B10539F520914109F6
:10098000309142094091430950914409E090450952
:10099000F09046090091470910914809D801C70114
:1009A00082239323A423B5230097A105B10581F0E9
:1009B000A0904909B0904A09C0904B09D0904C09C9
:1009C000C4016BE379E00E94672820E030E002C0B8
:1009D0002FEF3FEFC90160960FB6F894DEBF0FBE50
:1009E000CDBFCF91DF911F910F91FF90EF90DF90DE
:1009F000CF90BF90AF909F908F907F906F905F90BF
:100A00004F900895CF93DF93EC01009779F089A57B
:100A10009AA5009711F00E94B14C8BA59CA5009758
:100A200011F00E94B14CCE010E94B14CDF91CF91E8
:100A30000895EF92FF920F931F93CF93DF938C0152
:100A4000F62EE72EEA01DC018D919C91009711F0C2
:100A50000E94B14CCE0101960E94B74CF8019183DF
:100A60008083009769F0209729F06F2D7E2DAE01CD
:100A70000E947971D801ED91FC91EC0FFD1F10825D
:100A8000DF91CF911F910F91FF90EF9008954F92BA
:100A90005F926F927F928F929F92BF92CF92DF92DE
:100AA000EF92FF920F931F93CF93DF938C017B0103
:100AB0008DE290E00E94B74CEC014C01009709F4E4
:100AC0005BC18DE2FE0111928A95E9F780EC98EA0C
:100AD000A0E0B0E08DA39EA3AFA3B8A7F8018089E2
:100AE0009189A289B38989839A83AB83BC8300519E
:100AF0001F4F80E19FEFE80EF91E69E2462E512C50
:100B00004C0E5D1E5BE2652E712C6C0E7D1EE5C0E9
:100B1000332331F40F5F1F4F0894E108F108DDC063
:100B2000F801B180CB2CDD24EC14FD040CF4E3C0FF
:100B3000353341F4F1E0BF1609F0DDC0F8018281E0
:100B40008883C0C03C3029F4B8016E5F7F4FC2017A
:100B500006C03F3041F4B8016E5F7F4FC301A6016C
:100B60000E941905AFC0F3E0FB1508F0ABC0F80117
:100B70002281838190E0A0E0B0E04427582F692FC4
:100B80007A2F848190E0A0E0B0E0DC0199278827EB
:100B9000480F591F6A1F7B1F420F511D611D711D98
:100BA000858190E0A0E0B0E0B82FAA279927882798
:100BB000480F591F6A1F7B1F313029F44D835E8314
:100BC0006F8378877FC03C3129F449875A876B87C8
:100BD0007C8778C0333029F44D875E876F87788BA8
:100BE00071C0363009F041C0498B5A8B6B8B7C8BBE
:100BF000F7E0FB1508F066C0F801268130E040E020
:100C000050E02D8B3E8B4F8B588F878190E0A0E07A
:100C1000B0E0BA2FA92F982F8827820F931FA41F07
:100C2000B51F8D8B9E8BAF8BB88F208530E040E059
:100C300050E0A90133272227280F391F4A1F5B1FC5
:100C40002D8B3E8B4F8B588F818590E0A0E0B0E0DC
:100C5000B82FAA2799278827280F391F4A1F5B1FFB
:100C60002D8B3E8B4F8B588F2DC0363329F4498FF7
:100C70005A8F6B8F7C8F26C03A3359F4042E472F3E
:100C8000702D052E562F602D4D8F5E8F6F8F78A3A0
:100C900019C03B3359F4042E472F702D052E562FC3
:100CA000602D49A35AA36BA37CA30CC0333351F42A
:100CB000042E472F702D052E562F602D4DA35EA3B9
:100CC0006FA378A78B2D90E00296080F191F8EEF67
:100CD0009FEFE80EF91EEC18FD08F80130813F3F48
:100CE00009F45BC01E141F040CF412CF04C085303D
:100CF00041F0863031F0CE010E940205882499240B
:100D00003BC08D8D9E8DAF8DB8A10097A105B1051B
:100D100061F48DA19EA1AFA1B8A5B695A7959795B1
:100D200087958D8F9E8FAF8FB8A389A19AA1ABA114
:100D3000BCA10097A105B105F9F48D8D9E8DAF8DF5
:100D4000B8A19C01AD0156954795379527957C0133
:100D50008D0162E016950795F794E7946A95D1F7AF
:100D60002E0D3F1D401F511F280F391F4A1F5B1FAB
:100D700029A33AA34BA35CA3C401DF91CF911F9198
:100D80000F91FF90EF90DF90CF90BF909F908F904A
:100D90007F906F905F904F9008958881823009F026
:100DA000A6CFAFCFEF92FF920F931F937C01D90193
:100DB000F901E00FF11FE451FF4F8FEF8083F8013D
:100DC000E351FF4F81E0EC32F80710F4ECE2F1E080
:100DD000C70123E430E08D017F010E94122397FDBB
:100DE00003C020E030E008C083E190E090931F084A
:100DF00080931E082FEF3FEFC9011F910F91FF90C5
:100E0000EF9008952F923F924F925F926F927F9250
:100E10008F929F92AF92BF92CF92DF92EF92FF920A
:100E20000F931F93DF93CF93CDB7DEB71C012A0139
:100E30003B014901A801970186017501C40163E0E6
:100E4000CD8CDE8C0E946C039C018D899E89AF89BC
:100E5000B88D0097A105B105C1F0F401E20FF31FB1
:100E6000E451FF4F82E3808324513F4FF401E20FAE
:100E7000F31F84E081838D899E89AF89B88D828339
:100E80009383A483B583265E3040898D9A8DAB8D84
:100E9000BC8D0097A105B105C1F0F401E20FF31F6D
:100EA000E451FF4F86E3808324513F4FF401E20F6A
:100EB000F31F84E08183898D9A8DAB8DBC8D8283F5
:100EC0009383A483B583265E3040F401E20FF31FC1
:100ED000E451FF4F87E3808324513F4FF401E20F39
:100EE000F31F2C5E3040DF01119693E09183FD01EA
:100EF000319681E011968C93918386E0828375E030
:100F0000E72EF12CE20EF31E42E859E0DA010D90D3
:100F10000020E9F7A358B9401A161B06D4F40A2F8B
:100F2000F401EE0DFF1DE451FF4F8CE08083F901C9
:100F3000EF50FF4FE80DF91DA1833296CF01BA01A2
:100F40004A2F50E00E94797110E00E5F1F4FE00EB3
:100F5000F11EC101B301A201940187010E94D206D2
:100F6000CF91DF911F910F91FF90EF90DF90CF9085
:100F7000BF90AF909F908F907F906F905F904F90B9
:100F80003F902F9008952F923F924F925F926F92D1
:100F90007F928F929F92AF92BF92CF92DF92EF9209
:100FA000FF920F931F93DF93CF93CDB7DEB7609778
:100FB0000FB6F894DEBF0FBECDBF9C878B874D87E1
:100FC0005E876F87788B3901470158010E942A5745
:100FD0006F83788789879A8767017801E6E02E2EEC
:100FE000EFEF3E2EEFEF4E2EEFEF5E2E280C391C6A
:100FF0004A1C5B1C8B859C85BE016D5F7F4FAE01DB
:101000004F5F5F4F930104E212E00E94A7229C0110
:10101000181619064CF00097A1F184E190E0909326
:101020001F0880931E082DC0823F910588F0F301B0
:101030008081823069F484819581A681B7814D8554
:101040005E856F85788984179507A607B707C9F06D
:101050000E942A572F81388549855A85621B730B58
:10106000840B950B621573058405950518F020E037
:1010700030E007C075016401C61AD70AE80AF90A08
:10108000B9CFC90160960FB6F894DEBF0FBECDBFD1
:10109000CF91DF911F910F91FF90EF90DF90CF9054
:1010A000BF90AF909F908F907F906F905F904F9088
:1010B0003F902F900895DF93CF93CDB7DEB7A097E1
:1010C0000FB6F894DEBF0FBECDBF8C010E949657BD
:1010D0006B8B7C8B8D8B9E8B2091410930914209CB
:1010E00040914309509144092B873C874D875E8787
:1010F000D8011F960D90BC91A02DBA8FA98F1A967A
:101100008C9190E0A0E0B0E0BA2FA92F982F88270B
:10111000E98DFA8D2185820F911DA11DB11DBA2F78
:10112000A92F982F88272085820F911DA11DB11D01
:101130002227382F492F5A2F8781280F311D411D13
:10114000511D2B8F3C8F4D8F5E8F18A21F8E6624F2
:101150007724188E1F8A1F86188A198A1A8A99245A
:1011600030EA232E3FE0332E412C512C01C0982C25
:101170009920E1F0220C331C441C551C31E023164D
:101180003AEF330630E0430630E0530630F0212CCE
:101190009AEF392E412C512C38C02FEF3FEF4FEFF3
:1011A0005FEF2F83388749875A8737C080911D08A2
:1011B000833059F08B8D9C8DAD8DBE8D0196A11D18
:1011C000B11D8B8F9C8FAD8FBE8FE0911908F09170
:1011D0001A083097A1F0218D328D438D548D2F83C5
:1011E000388749875A87211531054105510539F05E
:1011F00080EA282E8FE0382E412C512C0EC000EAB8
:10120000202E0FE0302E412C512C8FEF9FEFAFEFAF
:10121000BFEF8F839887A987BA8780911D0888239D
:10122000D9F18091240890912508A0912608B091C9
:1012300027080097A105B10579F10E942A579B0163
:10124000AC018091280890912908A0912A08B091BA
:101250002B08281B390B4A0B5B0B609124087091FB
:1012600025088091260890912708261737074807F8
:10127000590738F0A1E0B0E0B0931F08A0931E0812
:1012800018C6621B730B840B950B621573058405DE
:10129000950510F41B012C0180911D08823021F06E
:1012A000863011F0873041F59920F1F00E94965771
:1012B0002B893C894D895E89621B730B840B950BCE
:1012C000605070408140904028F04FEF5FEF588FA2
:1012D0004F8B12C00E949657DB01EB89FC89AE1B35
:1012E000BF0BB88FAF8B08C00E9496576B8B7C8B5F
:1012F0008D8B9E8B188E1F8A80911D08853011F072
:101300008823B1F42F8D38A12115310519F0C901B9
:101310000E9478226114710419F418A21F8E4CC027
:10132000C3010E94B14C18A21F8E6624772444C0CA
:101330008091190890911A08892B59F4E98DFA8D3A
:1013400083859485A585B6850097A105B10509F02B
:10135000B0C52F8D38A1232B21F06114710461F5E4
:1013600009C084E490E00E94582398A38F8F6114F1
:10137000710429F484E292E00E94B74C3C014F8D45
:1013800058A1452B19F06114710439F482E190E001
:1013900090931F0880931E088CC580EC96E09A837A
:1013A00089838F8D98A162E070E1AE014F5F5F4F3E
:1013B00022E030E00E94262280911D08813031F524
:1013C0002B8D3C8D4D8D5E8D2F5F3F4F4F4F5F4F6F
:1013D0002B8F3C8F4D8F5E8F8091450990914609F0
:1013E000A0914709B09148092B853C854D855E85C4
:1013F00082239323A423B5230097A105B10511F4FB
:1014000032E073C244E040931D0871C2823009F09B
:101410005AC1B92CB39453E05915C8F480911908F6
:1014200090911A08892B61F085E080931D082B8923
:101430003C894D895E892F87388B498B5A8B7BC5B8
:1014400041E050E050931F0840931E082FC18B8548
:101450009C85AD85BE858B839C83AD83BE83C30194
:1014600061E02B8D3C8D4D8D5E8DEE24FF24870138
:10147000CF88D88C0E946C039C018B819C81AD81AC
:10148000BE810097A105B105C1F0F301E20FF31F82
:10149000E451FF4F92E3908324513F4FF301E20F59
:1014A000F31FA4E0A1838B819C81AD81BE818283E7
:1014B0009383A483B583265E3040F301E20FF31FCC
:1014C000E451FF4FB7E3B08324513F4FF301E20FE4
:1014D000F31F2C5E3040DF01119643E04183FD0194
:1014E000319651E011965C93418386E0828315E04A
:1014F000E12EF12CE20EF31EA2E8B9E00D900020DF
:10150000E9F7A358B9401A161B06E4F40A2FF301B1
:10151000EE0DFF1DE451FF4F9CE09083F901EF5069
:10152000FF4FE60DF71DA1833296CF01E2E8F9E007
:10153000BF014A2F50E00E94797110E00E5F1F4FEB
:10154000E00EF11E20E432E03A832983F301EE0D30
:10155000FF1DE451FF4F39E330834CEE50E0E40EC1
:10156000F51EF301EE0DFF1D52E0518389819A8132
:10157000082E892F902D9A838983319692838183B7
:1015800088E19FEFE80EF91E8F8D98A14FEF5FEF76
:101590006FEF7FEF930187010E94D20697FF74C01F
:1015A00085C0E0901908F0901A08C3010E94470511
:1015B0008C01009709F44EC0DC018C91823009F057
:1015C00046C0E114F10409F446C02091410930916C
:1015D00042094091430950914409809145099091F5
:1015E0004609A0914709B091480982239323A42377
:1015F000B5230097A105B105A9F0F701818192817A
:10160000A381B48182179307A407B50719F1F801E4
:1016100081819281A381B48182179307A407B507C2
:10162000C9F411C0D80195962D913D914D915C91D1
:101630009897F70185A196A1A7A1B0A58217930756
:10164000A407B50720F4C7010E94020504C0C80121
:101650000E940205870110931A0800931908012BB4
:1016600099F08091240890912508A0912608B091C6
:101670002708805E9E42A040B040D8F0B0EA2B2EF2
:10168000BFE03B2E412C512C8F8D98A14B8D5C8D52
:101690006D8D7E8D9301820171010E94C307BC0193
:1016A000181619060CF47DCF009719F010921D083A
:1016B00042C48091190890911A08892B09F43BC4FF
:1016C000A4E09A2E3BC4833009F06CC0892C83942B
:1016D00023E0291520F431E030931D082EC4E09159
:1016E0001908F0911A084DB75EB74A5050400FB62E
:1016F000F8945EBF0FBE4DBF2DB73EB72F5F3F4F73
:101700004181528163817481ADB7BEB711964D930B
:101710005D936D937C931497818D928DA38DB48D81
:10172000F90184839583A683B7834F89588D5187A8
:1017300040878F8D98A14FEF5FEF6FEF7FEF9301A1
:10174000EB8CFC8C0D8D1E8DAA24BB2465010E94A0
:101750000207ADB7BEB71A960FB6F894BEBF0FBE5C
:10176000ADBF97FDB7C38F8D98A14B8D5C8D6D8DEF
:101770007E8D9301820171010E94C307BC0197FD18
:10178000A9C3009709F4D9C3C3010E9447058C017E
:10179000009709F4D2C3FC01F080F5E0FF1609F0D0
:1017A00059C243C2843009F081C0892C839453E02C
:1017B000581548F481E080931D08982C1B861C86E0
:1017C0001D861E86BBC3ADB7BEB71A970FB6F89479
:1017D000BEBF0FBEADBF2DB73EB72F5F3F4F8B854E
:1017E0009C85AD85BE85EDB7FEB781839283A383CB
:1017F000B483D90114961D921D921D921C921797C5
:10180000EF89F88D1996FC93EE9318978F8D98A118
:101810004FEF5FEF6FEF7FEF9301EB8CFC8C0D8D43
:101820001E8DAA24BB2465010E9402072DB73EB776
:10183000265F3F4F0FB6F8943EBF0FBE2DBF97FDFA
:1018400049C38F8D98A14B8D5C8D6D8D7E8D9301DD
:10185000820171010E94C307BC0197FD3BC3009741
:1018600009F46BC3C3010E9447058C01009709F47A
:1018700064C3DC018C91853071F4809119089091DA
:101880001A080E94020510931A0800931908B5E07F
:10189000B0931D08D6C1863009F049C331E03093BA
:1018A0001D081B861C861D861E8641C3853009F0D7
:1018B0004FC082E298E00E94065AE0911908F09128
:1018C0001A08E58CF68C078D10A10E9496572F857B
:1018D000388949895A89621B730B840B950B6E15E5
:1018E0007F058007910728F036E030931D08992482
:1018F00025C3E0911908F0911A08E58CF68C078D44
:1019000010A10E9496572F85388949895A892E0D32
:101910003F1D401F511F261B370B480B590B283307
:1019200089E8380781E4480780E0580720F027E37A
:1019300039E841E450E0CA01B90128EE33E040E063
:1019400050E00E943F6FAB01BC0180E298E0ECC226
:10195000863009F0C0C0E0911908F0911A08E1A0A2
:10196000F2A003A114A10E9496575B016C01C20171
:10197000B10128EE33E040E050E00E94916F8F8586
:101980009889A989BA89E80EF91E0A1F1B1FEA184F
:10199000FB080C091D09E216F30604071507E0F41D
:1019A000E0911908F0911A0821A032A043A054A098
:1019B0000E9496572F85388949895A89621B730B73
:1019C000840B950B28EE33E040E050E00E943F6F1F
:1019D000261A370A480A590AE0911908F0911A089C
:1019E000E1A0F2A003A114A10E9496572F85388987
:1019F00049895A89621B730B840B950B6E157F0501
:101A00008007910708F0B2C0E0911908F0911A0818
:101A1000A180B280C380D4804DB75EB74A50504099
:101A20000FB6F8945EBF0FBE4DBFADB7BEB71196EF
:101A3000418D528D638D748DEDB7FEB7A182B28258
:101A4000C382D48214961D921D921D921C921797E8
:101A50002F89388D19963C932E9318978F8D98A1C6
:101A60009301EB8CFC8C0D8D1E8D0E9402074DB7EF
:101A70005EB7465F5F4F0FB6F8945EBF0FBE4DBFB7
:101A800097FD74C0892C83948F8D98A14B8D5C8DAC
:101A90006D8D7E8D9301820171010E94C307BC018F
:101AA00097FD18C2009709F448C2C3010E94470578
:101AB0008C01009709F441C2DC01FC90B5E0FB16F3
:101AC00009F4B3C036E0F31609F031C287E0809321
:101AD0001D0888242CC2873009F0C4C0E091190881
:101AE000F0911A08E1A0F2A003A114A10E94965758
:101AF0002F85388949895A89E20EF31E041F151F64
:101B0000E61AF70A080B190BE214F304040515058D
:101B1000B0F4E0911908F0911A0821A032A043A076
:101B200054A00E949657261A370A480A590A8F85E8
:101B30009889A989BA89281A390A4A0A5B0AE09160
:101B40001908F0911A08E1A0F2A003A114A10E94C3
:101B500096572F85388949895A89621B730B840BE4
:101B6000950B6E157F058007910720F087E0809325
:101B70001D08BDCE892C8394E0911908F0911A08B4
:101B8000A180B280C380D4804DB75EB74A50504028
:101B90000FB6F8945EBF0FBE4DBFEDB7FEB73196DE
:101BA000ADB7BEB71196AD92BD92CD92DC921497AF
:101BB00014821582168217822F89388D31872087EB
:101BC0008F8D98A14FEF5FEF6FEF7FEF9301EB8C5D
:101BD000FC8C0D8D1E8D0E9402074DB75EB7465FCF
:101BE0005F4F0FB6F8945EBF0FBE4DBF97FD72C139
:101BF0008F8D98A14B8D5C8D6D8D7E8D93018201B3
:101C000071010E94C307BC0197FD64C1009709F4EC
:101C100094C1C3010E9447058C01009709F48DC14E
:101C2000DC01FC90B5E0FB16A9F4809119089091B5
:101C30001A080E94020510931A0800931908F092DE
:101C40001D082B893C894D895E892F87388B498BEC
:101C50005A8B73C136E0F31609F069C141E0409335
:101C60001D0865C1883009F0C8C0892C839453E0F1
:101C7000591508F42FC1A98DBA8D1B96ED90FD90D2
:101C80000D911C911E97C30168E02B8D3C8D4D8DED
:101C90005E8DCC24DD240E946C03F301E80FF91F54
:101CA000E451FF4FB7E3B08384519F4FF301E80F36
:101CB000F91FDF01119623E02183FD01319631E008
:101CC00011963C93218346E04283F9E1EF2EFFEF2A
:101CD000FF2EE80EF91EA2E8B9E00D900020E9F70A
:101CE000A358B94011F10A2FF301EE0DFF1DE45185
:101CF000FF4F5CE050838CEE90E0E80EF91EF3019C
:101D0000EE0DFF1D24E13FEFE20EF31EA18332969C
:101D1000CF0142E859E0BA014A2F50E00E947971A0
:101D200010E00E5F1F4FE00EF11E80E492E09A83F8
:101D30008983F301EE0DFF1DE451FF4F99E390837A
:101D4000ACEEB0E0EA0EFB1EF301EE0DFF1DB2E0BB
:101D5000B18389819A81082E892F902D9A83898356
:101D6000319692838183E8E1FFEFEE0EFF1E8F8DA7
:101D700098A14F81588569857A85930187010E94D2
:101D8000D20697FF0BC02F81388549855A852F5F72
:101D90003F4F4F4F5F4F09F0D0C09CC08F8D98A12F
:101DA0004B8D5C8D6D8D7E8D9301820171010E9442
:101DB000C307BC01009709F4C0C018161906A4F4A3
:101DC000C3010E9447058C01009781F0DC018C91D2
:101DD000853061F48091190890911A080E940205DB
:101DE00010931A080093190800E010E010921D08E3
:101DF0000115110509F09BC0BAC9893009F07EC0F0
:101E0000E0911908F0911A08309709F448C0892C1C
:101E10008394992009F042C0E180F280038114810B
:101E2000818D928DA38DB48D8B839C83AD83BE8376
:101E3000C30167E02B8D3C8D4D8D5E8DCC24DD2460
:101E40000E946C038C018B819C81AD81BE810097C7
:101E5000A105B105C1F0F301E00FF11FE451FF4FFF
:101E6000B6E3B08304511F4FF301E00FF11F24E0EC
:101E700021838B819C81AD81BE8182839383A483E6
:101E8000B583065E10408F8D98A14F815885698576
:101E90007A8593010E94D20697FF0EC0982C8F81FD
:101EA0009885A985BA858F5F9F4FAF4FBF4F09F0C7
:101EB00045C010921D0842C08F8D98A14B8D5C8D3E
:101EC0006D8D7E8D9301820171010E94C307BC015B
:101ED00097FF03C010921D0830C0009771F1C30135
:101EE0000E9447058C01009741F1DC018C918530FF
:101EF00011F08630E1F410921D0819C08823F1F426
:101F00008091190890911A080E94020510921A08EF
:101F10001092190882E298E00E94065A80E298E046
:101F200040E050E060E070E00E94685AE0CCC801F8
:101F30000E9402051CC99B2C01C0982C892C17C932
:101F40008F929F92AF92BF92CF92DF92EF92FF92C9
:101F50000F931F93CF93DF93EC014B0159016A015B
:101F600080911F0990912009009731F00E94B14C97
:101F70001092200910921F09809121099091220945
:101F8000009731F00E94B14C109222091092210961
:101F9000209739F0CE010E94C74C80931F0990937F
:101FA00020098114910439F0C4010E94C74C809328
:101FB000210990932209A0922309B0922409C0928A
:101FC0002509D0922609E0922709F092280900936A
:101FD000290910932A09DF91CF911F910F91FF904A
:101FE000EF90DF90CF90BF90AF909F908F9008952B
:101FF000FC0101C031968081882331F0803259F094
:102000008930C1F708C0319680818032E1F3893090
:10201000D1F3CF0108951192F7CF60932C087093FC
:102020002D0880932E0890932F08089560912C0816
:1020300070912D0880912E0890912F080895AF92ED
:10204000BF92CF92DF92EF92FF920F931F93CF93A5
:10205000DF93EC015801690141155105E1F000D011
:1020600000D000D0EDB7FEB73196ADB7BEB712962F
:102070009C938E93119782E791E09383828355839B
:1020800044830E94D5458DB79EB706960FB6F89447
:102090009EBF0FBE8DBFD7FC21C0ADB7BEB718978E
:1020A0000FB6F894BEBF0FBEADBFEDB7FEB7319609
:1020B0001296DC93CE9311978CE591E09383828303
:1020C000A482B582C682D7820E94D5458DB79EB7BD
:1020D00008960FB6F8949EBF0FBE8DBF9FE1E9161C
:1020E0009BE8F90629F483E491E0BE010E94E645ED
:1020F00086E391E0BE010E94E6458CE291E0BE01DC
:102100000E94E645DF91CF911F910F91FF90EF90D4
:10211000DF90CF90BF90AF900895EF92FF920F9312
:102120001F93EE24FF240E941F101F910F91FF9018
:10213000EF9008950F931F93FB0189019A0160E0CE
:1021400070E0AF010E948D101F910F910895EF92E2
:10215000FF920F931F93CF93DF937C01009731F190
:10216000DC010D900020E9F78D0101501040081BA3
:10217000190BE1F0C0EFD3E011C0DB010D9000209E
:10218000E9F71197A61BB70BC8018A1B9B0B8E0D95
:102190009F1D0E948971892B59F02696688179814B
:1021A0006115710551F7C0EFD3E002C0C6EFD3E06F
:1021B000CE01DF91CF911F910F91FF90EF90089585
:1021C0000E94A710FC018481958108950E94A710A8
:1021D000FC01828193810895CF93DF93EC0180917C
:1021E0002B0990912C09009711F00E94B14C209777
:1021F000C9F0DE010D900020E9F71197AC1BBD0B73
:1022000089F0CD0101960E94B74C90932C098093E0
:102210002B09009719F42FEF3FEF0AC0BE010E946F
:10222000BB7104C010922C0910922B0920E030E001
:10223000C901DF91CF910895BF92CF92DF92EF92C3
:10224000FF920F931F93DF93CF9300D00F92CDB7E0
:10225000DEB7AC01DE011196E9EDF4E083E0019018
:102260000D928150E1F77A018A016E010894C11C38
:10227000D11C80E2B82E20C08B3219F4F701B08255
:1022800016C0853291F4F801818189830E5F1F4F5A
:10229000F80180818A83C60160E070E040E150E08F
:1022A0000E94CE6FF701608302C0F70180830F5F49
:1022B0001F4F0894E11CF11CF80180818823E1F68E
:1022C000F70110820F900F900F90CF91DF911F9127
:1022D0000F91FF90EF90DF90CF90BF900895EF9215
:1022E000FF920F931F93CF93DF938C01DC011A961B
:1022F0002D913C911B972115310509F49CC081E07B
:1023000090E057969C938E935697F9010DC08632B4
:1023100051F4D80156968D919C91579701965796F6
:102320009C938E93569731968081882381F7F8018C
:1023300086899789880F991F880F991F0E94B74C2B
:10234000FC01D80155969C938E935497009729F4DD
:1023500057961C921E9256976EC0D8011A968D9170
:102360009C911B9791838083138212821A96CD9140
:10237000DC911B9722E030E01BC08632C1F4C9011A
:10238000880F991FF801A489B5898A0F9B1F219690
:10239000FC01D183C0832F5F3F4FC901880F991F74
:1023A000A80FB91F1D921C921A922F5F3F4F2196C2
:1023B0008881882311F7EE24FF24C0E0D0E035C0E7
:1023C000F801A489B589FD01EC0FFD1F0190F08192
:1023D000E02D19C09F012F5F3F4F8D3399F4CE013F
:1023E0000296A80FB91F2D933C931082D8015496E2
:1023F000ED91FC915597E80FF91F808191810E9422
:102400001C1104C0F9018081882321F7D80154965A
:10241000ED91FC915597EC0FFD1F808191810E94F9
:102420001C110894E11CF11C2496F80186899789F7
:10243000E816F9062CF2DF91CF911F910F91FF90D2
:10244000EF900895CF92DF92EF92FF920F931F9338
:10245000DF93CF9300D000D0CDB7DEB76C018A01F7
:1024600079010E9476522DB73EB72E5030400FB6FC
:10247000F8943EBF0FBE2DBFEDB7FEB73196ADB796
:10248000BEB71296DC92CE9211972DEE31E03383D7
:10249000228321E030E0358324833783268311872C
:1024A0000087F386E286958784870E94D5458091D0
:1024B0002C082DB73EB7225F3F4F0FB6F8943EBFB2
:1024C0000FBE2DBF80FF2BC080E090E00E94C0496E
:1024D00069837A838B839C83CE0101960E94A347F4
:1024E0000E94F91700D000D000D0EDB7FEB73196AA
:1024F000ADB7BEB71296DC92CE92119720E532E0CE
:1025000033832283958384830E9467452DB73EB72A
:102510002A5F3F4F0FB6F8943EBF0FBE2DBF0F90FE
:102520000F900F900F90CF91DF911F910F91FF901F
:10253000EF90DF90CF9008958F929F92AF92BF92CD
:10254000CF92DF92EF92FF920F931F93CF93DF937F
:102550005C014B016A0181E04139580721F191E0AA
:10256000423959074CF4A1E040335A07B9F0B1E0C1
:1025700040395B0761F50DC0E1E0443F5E07E9F0DB
:10258000F1E0453F5F07F1F081E044395807F9F485
:102590000FC00FE5E02E02E0F02E1DC01BE6E12E7D
:1025A00012E0F12E18C0B8E7EB2EB2E0FB2E13C0FC
:1025B000A5E8EA2EA2E0FA2E0EC0FFE8EF2EF2E028
:1025C000FF2E09C0EEE9EE2EE2E0FE2E04C07EEA08
:1025D000E72E72E0F72EC501B401A60197010E9413
:1025E000221291E9C91691E0D90689F5D40118960D
:1025F0000D911C911997C8016FE270E00E94E8717B
:10260000EC01009719F404EB12E001C0188200D02D
:1026100000D000D0EDB7FEB73196ADB7BEB7129679
:10262000BC92AE92119785E891E0938382831583E3
:1026300004830E94D545EDB7FEB736960FB6F894E1
:10264000FEBF0FBEEDBF209711F08FE28883C5015A
:10265000B40146EB52E00FEF1FEF2FEF3FEF0E9468
:102660008D108DB79EB70C970FB6F8949EBF0FBE16
:102670008DBFEDB7FEB73196ADB7BEB71296BC921F
:10268000AE9211978AEA91E093838283D582C482C5
:10269000F782E682D186C086F386E2860E94D5451F
:1026A000EDB7FEB73C960FB6F894FEBF0FBEEDBF78
:1026B000DF91CF911F910F91FF90EF90DF90CF901E
:1026C000BF90AF909F908F9008952F923F924F921E
:1026D0005F926F927F928F929F92AF92BF92CF92B2
:1026E000DF92EF92FF920F931F93DF93CF93CDB7BB
:1026F000DEB7A5970FB6F894DEBF0FBECDBF1C01A5
:102700001DA21CA21BA21AA28CA19DA10E94EA16C6
:1027100081E090E064E270E00E94954C4C019DA342
:102720008CA3009709F42FC3EBE0F0E0DC011396D3
:10273000FC93EE9312978AA19BA1009711F00E943F
:10274000B14C80E091E00E94B74C2C019BA38AA37E
:10275000009709F418C360E071E0A1010E943C45B4
:10276000892B09F410C3C2016DE070E00E94A771CB
:10277000FC01009709F01082C2016AE070E00E943B
:10278000A771FC01009709F0108280E091E00E949F
:10279000B74C3C01009709F4F6C2D4019296B9A354
:1027A000A8A3F4017096FD8FEC8FC4010C969B8F4B
:1027B0008A8FD4011E96B98FA88FF4017E96FF8B65
:1027C000EE8BC4014C969D8B8C8BD4015296BB8BA7
:1027D000AA8BC1010E9408457C018D309105C9F387
:1027E0008A30910509F45EC0DD24AA24BB24CA2CDA
:1027F000FFEFEF16FFEFFF0609F401C12AE0E21632
:10280000F10409F44CC08AE3E816F10471F48D2D4B
:1028100090E0FC01EE0FFF1FE80FF91FE554FB4F9E
:102820008081A81609F0BAC252C08D2D90E08C01AB
:10283000000F111F080F191F05541B4FD8018C9151
:10284000C81688F4C7010E943571D8011196ED9120
:10285000FC911297EA0DFB1D2081332727FD30954F
:102860002817390721F0D394B9E0BD15F0F6C1015E
:102870000E9408457C018D309105C9F3F0E1AF1647
:10288000B10439F00894A11CB11C29E02D1508F001
:10289000AECF8FEFE8168FEFF80609F4B0C0E11461
:1028A000F104A9F4C3010E94B14CC2010E94F80FC7
:1028B0007C010E94F80F8C010E94F80FC20160ECAD
:1028C00072E00E948971892B09F49DC0A2C09AE32D
:1028D000E916F10419F4A9E0AD1558F4C1010E94FC
:1028E0000845BFEF8F3F9B0709F473CF0A97B1F7F5
:1028F00070CFC30160E071E0A1010E943C45892BCB
:1029000009F47DC0C3016AE070E00E94A771FC0178
:10291000009759F4C1010E940845EFEF8F3F9E07D1
:1029200009F457CF0A97B1F754CF10826816790689
:1029300020F482918D3009F41082F5E0DF1681F1E8
:10294000FD1568F021E0D216D1F0D216A8F083E090
:10295000D816C1F094E0D91609F03BCF1EC0A7E00D
:10296000DA1621F1DA16F8F0B8E0DB1641F1E9E009
:10297000DE1609F02ECF26C008A119A125C00C8DA6
:102980001D8D22C0C3010E94FD70D40114966D9369
:102990007D938D939C9317971CCF0A8D1B8D14C02C
:1029A000088D198D11C00E891F890EC0C3010E94A8
:1029B000EE18F401608F718F828F938F0ACF0C898C
:1029C0001D8902C00A891B890115110509F401CF6F
:1029D000D8018D919C91892B09F0FBCEF30101C0A8
:1029E000319680818032E1F38930D1F3CF010E94AA
:1029F000C74CF80191838083009709F0EACEC301A8
:102A00000E94B14CC0C181E090E0D4018D939C93B1
:102A10001FC0C20164EC72E00E948971892B31F4FD
:102A200083E090E0F4019183808312C0C20169ECDD
:102A300072E00E948971892B31F4E2E0F0E0D40168
:102A4000ED93FC9305C0C101B40145EF51E00CC00A
:102A5000D7018C91882321F0F8018081882339F4F3
:102A6000C101B40140E951E00E949C128CC1C8012F
:102A70006EEC72E00E948971892B39F48AE090E053
:102A8000D40113969C938E93129781E090E0F40109
:102A900091A380A3C7016FE370E00E94A771FC01BE
:102AA000009779F01192CF010E94C74CD4011B9678
:102AB0009C938E931A97009709F465C1C4010E94F4
:102AC0006F11C7010E94C74CF4019187808700975E
:102AD00009F459C10E94841B892B29F4C101B40156
:102AE00040E951E009C0C4010E94D019892B39F096
:102AF000C101B40141E951E00E949C1239C1C101F8
:102B0000B4010E94FF1A892B09F032C107E415E0D5
:102B100066246A94762CEE24FF2427C0D4011896EC
:102B20008D919C9119970E9432177C01009729F48E
:102B3000C101B40144EF51E0DFCF60E070E80E94D2
:102B4000AB423C01BFEF8F3F9B0751F00E94C34354
:102B50006115710581059105C1F4C3010E94804290
:102B6000C7010E94B14C0E5F1F4FF8016081718157
:102B70006115710599F6FFEF6F16FFEF7F0629F4D7
:102B8000C101B40144E951E0B7CFC7010E94A710C9
:102B9000DC0112968D919C9113979F8F8E8FC701A8
:102BA0000E94A710FC01448055804114510409F093
:102BB00049C080912C0881FF45C0C701BE016B5FF1
:102BC0007F4F0E94FF40892B49F48E859F85A889FD
:102BD000B98989839A83AB83BC8308C087ED92E06F
:102BE0000E94EE1869837A838B839C83D401589664
:102BF0002D913D914D915C915B97211531054105DA
:102C00005105B1F08E859F85A889B98928173907A4
:102C10004A075B076CF0C3010E948042C101B40106
:102C200040E351E00E949C12C7010E94B14CA0C039
:102C3000CE0101960E94A3470E94F9170E94C74C3B
:102C40008C0102C000E010E0C7010E94B14CC1013C
:102C5000B40148EC50E020EF32E00E94221201154E
:102C60001105F9F000D000D000D0EDB7FEB73196D5
:102C7000ADB7BEB712963C922E92119783EF92E0B9
:102C800093838283158304830E946745ADB7BEB7E3
:102C900016960FB6F894BEBF0FBEADBFC8010E9416
:102CA000B14CC3010E94C3435B016C014114510448
:102CB000A9F0C101B4014E8D5F8D0FEF1FEF2FEF13
:102CC0003FEF0E948D1020912B0930912C09C101FA
:102CD000B301A5018401F201099547C0C101B40106
:102CE0004E8D5F8D96018501EE24FF240E941F10FA
:102CF000F401808191810397C1F180E092E00E940C
:102D0000B74C8C01009789F1412C82E0582E25C0E8
:102D1000F0E0AF16F2E0BF06F0E0CF06F0E0DF062D
:102D20000CF42501C301B801A2010E940A437C01F1
:102D300018161906BCF4C80161E070E0A701910102
:102D40000E947845892B71F0C701AA2797FDA095AD
:102D5000BA2FA81AB90ACA0ADB0AA114B104C1041D
:102D6000D104B1F6C8010E94B14CC3010E94804257
:102D7000C1010E94B143D40190968D919C9191978D
:102D8000019709F0C1CCC4010E94EA16EAA1FBA197
:102D9000309739F0CF010E94B14C03C0DD24DA94A2
:102DA00096CDA5960FB6F894DEBF0FBECDBFCF91DE
:102DB000DF911F910F91FF90EF90DF90CF90BF9028
:102DC000AF909F908F907F906F905F904F903F90CB
:102DD0002F900895CF93DF93EC01009709F43FC043
:102DE00088859985009711F00E94B14C8A859B8552
:102DF000009711F00E94B14C8C859D85009711F0D1
:102E00000E94B14C8E859F85009711F00E94B14CB5
:102E100088899989009711F00E94B14C8A899B8911
:102E2000009711F00E94B14C8C899D89009711F098
:102E30000E94B14C8C8D9D8D009711F00E94B14C79
:102E40008E8D9F8D009711F00E94B14C8AA19BA19D
:102E5000009711F00E94B14CCE010E94B14CDF915D
:102E6000CF910895AF92BF92CF92DF92EF92FF92EF
:102E70000F931F93CF93DF937C015B01C0902B09CD
:102E8000D0902C09C114D10421F48CEDC82E84E01B
:102E9000D82ED7010D900020E9F78D010150104088
:102EA0000E191F09F60101900020E9F73197EC197E
:102EB000FD09E50109900020E9F7CE0101978A1983
:102EC0009B09E00FF11F31968E0F9F1F0E94B74C98
:102ED000EC01009701F1B6010E94BB71CE01B70170
:102EE0000E949C71F50180818823A9F001151105CC
:102EF00059F060E070E0E00EF11E0894E108F1087E
:102F0000D7018C918F3211F461E070E06A0D7B1D66
:102F1000CE010E949C71CE01DF91CF911F910F9144
:102F2000FF90EF90DF90CF90BF90AF900895DC01BD
:102F3000FB011182108217C0808191819C0153E0B6
:102F4000220F331F5A95E1F7880F991F280F391F59
:102F5000318320838D91992787FD9095C097820FAB
:102F6000931F918380838C9190E0C0970A9720F300
:102F7000CD010895CF93DF93EB010E94971728812D
:102F80003981263431051CF42C593F4F06C047E0E7
:102F90002D36340724F02C56374039832883DF91AF
:102FA000CF9108950F931F93CF93DF93EA01890187
:102FB0000E949717FC0180818A3399F4CF01019612
:102FC000BE010E949717FC0180818A3331F4CF0142
:102FD0000196B8010E94971707C0D8011D921C9254
:102FE00002C019821882CF01DF91CF911F910F91FA
:102FF00008950F931F93CF93DF939C018DB79EB7D6
:1030000042970FB6F8949EBF0FBE8DBFADB7BEB747
:10301000119600E318E0CDB7DEB71A8309838BE57C
:1030200095E013969C938E931297E901EC85FD85AC
:10303000EE0FFF1FE556FA4F8081918115969C9304
:103040008E9314978E819F8117969C938E931697DB
:10305000E885F985EE0FFF1FE752FA4F80819181D5
:1030600019969C938E9318978A859B858459984FBF
:103070001B969C938E931A978C819D811D969C9391
:103080008E931C978A819B811F969C938E931E978B
:103090008881998151969C938E9350970E943746D0
:1030A000EDB7FEB772960FB6F894FEBF0FBEEDBF38
:1030B000C801DF91CF911F910F910895CF93DF93B6
:1030C000EC01FB018881813461F42196888180378D
:1030D00011F0803519F483E090E044C087E090E07F
:1030E00041C0843419F48BE090E03CC0863419F47C
:1030F00081E090E037C08A34B9F421968881813626
:1031000011F0813419F41182108230C0882349F003
:10311000219688818C3611F08C3419F486E090E089
:1031200021C085E090E01EC08D3481F42196888115
:10313000813649F421968881823711F0823519F45D
:1031400082E090E00FC084E090E00CC08E3419F46F
:103150008AE090E007C08F3419F489E090E002C063
:1031600088E090E09183808301C02196888190E07F
:103170000E942671892BC9F7CE01DF91CF91089566
:10318000EF92FF920F931F93CF93DF938A01790100
:103190000E949717EC0101C021968881882329F0AD
:1031A00090E00E942671892BB9F3CE01B8010E94EC
:1031B0005E18FC0101C031968081882321F090E0E7
:1031C000C0970A97C0F7CF01B7010E94BA17DF91E5
:1031D000CF911F910F91FF90EF900895FF920F9361
:1031E0001F93DF93CF93CDB7DEB762970FB6F894F6
:1031F000DEBF0FBECDBF8C01FE01319682E1DF0143
:103200001D928A95E9F781E090E098878F8302C04C
:103210000F5F1F4FF80180818032D1F38930C1F3F5
:1032200090E00E942671892B91F0F80101C031963F
:103230008081882331F0803221F08930C1F701C0CC
:10324000319680818032E1F38930D1F38F01D8014A
:10325000FC908F2D90E00E942671892B59F1C801B6
:10326000BE01675F7F4F0E945E18FC0101C031966E
:1032700080818032E1F38930D1F3CF01BE01695FF3
:103280007F4F0E949717FC0101C0319680818032E8
:10329000E1F38930D1F3CF01BE01655F7F4F0E941A
:1032A000BA17FC0101C0319680818032E1F3893088
:1032B000D1F316C0FF2021F1C801BE01695F7F4F25
:1032C000AE01475F5F4F9E01255F3F4F0E94C018D0
:1032D000FC0101C0319680818032E1F38930D1F365
:1032E000CF01BE016B5F7F4FAE014D5F5F4F9E010F
:1032F0002F5F3F4F0E94D2178C0102C00F5F1F4FFC
:10330000F80180818032D1F38930C1F3C8016BE7C5
:1033100075E00E94B2719C01CE010196232B19F435
:103320000E94984902C00E94934962960FB6F89491
:10333000DEBF0FBECDBFCF91DF911F910F91FF90E8
:103340000895EF92FF920F931F93CF93DF938C0119
:103350007B01C0915008D091510818C0011511058A
:1033600041F06A817B81C8010E94F3718017910747
:1033700051F4E114F10461F06C817D81C7010E9478
:10338000B271009729F00990D881C02D209731F7AC
:10339000CE01DF91CF911F910F91FF90EF90089593
:1033A000CF92DF92EF92FF920F931F93CF93DF9311
:1033B0006C01FC01E084F184C7016FE270E00E94BF
:1033C000E871EC01009729F481EFE82E85E0F82EF2
:1033D00001C01882C70160E070E00E94A119892B2A
:1033E00001F1F6010089118901151105B9F0C80133
:1033F00063EF75E046E050E00E94DA71009771F4E7
:10340000C80106960E94CB3FF601608971896A5F08
:103410007F4FC7010E94A119892B19F42FEF3FEFAD
:1034200002C020E030E0209711F08FE28883C901CC
:10343000DF91CF911F910F91FF90EF90DF90CF9090
:103440000895CF93DF9311C088819981909351089B
:10345000809350088A819B810E94B14C8C819D8110
:103460000E94B14CCE010E94B14CC0915008D09145
:103470005108209749F7DF91CF910895EF92FF927D
:103480000F931F93CF93DF938C017B0186E090E035
:103490000E94B74CEC01009711F180915008909177
:1034A000510899838883C8010E94C74C9B838A83F3
:1034B000009791F0C7010E94C74C9D838C830097B1
:1034C00039F0D0935108C093500820E030E009C093
:1034D0008A819B810E94B14CCE010E94B14C2FEF9A
:1034E0003FEFC901DF91CF911F910F91FF90EF90B6
:1034F0000895CF92DF92EF92FF920F931F93CF9395
:10350000DF937C018B016A01FB018081918101972E
:10351000029720F0C70145EF51E026C0C091520844
:10352000D09153080EC0F801608571856C0D7D1D2A
:103530008A819B810E948971892B31F00990D88101
:10354000C02D209781F70CC0EC81FD81C701B80127
:103550000995892B59F0C701B80144EF51E004C027
:10356000C701B80144E951E00E949C12DF91CF915C
:103570001F910F91FF90EF90DF90CF900895EF9201
:10358000FF920F931F93CF93DF938C017B01C09128
:103590005208D09153080AC06A817B81C8010E94F9
:1035A000B2710097D1F00990D881C02D2097A1F772
:1035B0001EC0809152089091530899838883C80156
:1035C0000E94C74C8A839B83FD82EC82D093530870
:1035D000C093520820E030E002C02FEF3FEFC90156
:1035E000DF91CF911F910F91FF90EF90089586E0AA
:1035F00090E00E94B74CEC010097D9F6EECFCF9245
:10360000DF92EF92FF920F931F93CF93DF936C01A2
:103610007B0160915408709155086115710519F48A
:10362000CAEFD5E028C0EB0126C0219688818B33F4
:10363000E1F3FE0100E010E003C00F5F1F4F319681
:103640008081882311F08B33C1F70115110599F0A2
:10365000F70180859185BE01A8010E94C271892B66
:1036600041F4C601B701A8010E94791A21E030E0B7
:1036700007C0C00FD11F88818823C1F620E030E049
:10368000C901DF91CF911F910F91FF90EF90DF90D3
:10369000CF900895CF93DF93EC01809154089091DF
:1036A0005508009711F00E94B14CCE010E94C74C02
:1036B0008093540890935508DF91CF910895982FE7
:1036C00080538A3038F4292F332727FD3095205333
:1036D000304018C0892F8156863038F4292F33277F
:1036E00027FD3095275530400DC0892F81548630F5
:1036F00018F02FEF3FEF06C0292F332727FD309515
:1037000027533040C90108958F929F92AF92BF9284
:10371000CF92DF92EF92FF920F931F93CF93DF939D
:103720007C01FC019080FFE29F1619F0EE24FF243B
:1037300038C0EC016C012FE2822E2AC08532B9F428
:10374000F50181810E945F1B8C0197FD10C02396BB
:1037500088810E945F1B97FD0AC094E0000F111F33
:103760009A95E1F7800F8883882311F418C0E5014A
:1037700088818C3509F48882892D8E52823020F41C
:1037800088818E52823020F09880F60191926F01EC
:103790005E010894A11CB11C8981882379F6F60189
:1037A0001082C701DF91CF911F910F91FF90EF9091
:1037B000DF90CF90BF90AF909F908F9008950F9320
:1037C0001F93CF93DF938C01C0915608D091570877
:1037D000FE011BC0808D918D8017910799F4828D19
:1037E000938DA48DB58D82179307A407B50751F467
:1037F000868D978D8617970729F48389882311F082
:103800009F0117C00190F081E02D309719F70DC08E
:103810008B89813039F4888D998D8017910711F447
:103820009E0107C00990D881C02D209789F720E01C
:1038300030E0C901DF91CF911F910F910895CF938F
:10384000DF93FC01EA01009709F45FC080E1623078
:103850007807F1F080E16330780744F46230710555
:1038600071F06150704109F04AC037C080E16530A5
:103870007807C9F06650704109F041C01DC041157C
:10388000510589F12230310571F5ED5AFF4F08C01D
:103890004115510541F12230310529F5E85BFF4F13
:1038A0008081918127C041155105E9F0243031050F
:1038B000D1F4E559FF4F08C041155105A1F024305E
:1038C000310589F4E959FF4F80819181A281B3814B
:1038D00088839983AA83BB830FC04115510519F0D2
:1038E0002230310529F0EF59FF4F86E190E00BC0FF
:1038F000818992899983888320E030E008C0EF595C
:10390000FF4F8AE290E0918380832FEF3FEFC90160
:10391000DF91CF910895FC01009719F426E230E081
:1039200004C0EF59FF4F20813181C9010895CF9321
:10393000DF93DC01EA016A30710561F06A307105DC
:1039400034F06B307105B1F06C30710519F02FEF68
:103950003FEF1CC0FD01E65BFF4FAA5BBF4F8D919F
:103960009C9120813181821B930BAA2797FDA09502
:10397000BA2F06C01D968D919C911E97A0E0B0E0D5
:1039800088839983AA83BB8320E030E0C901DF915B
:10399000CF9108950F931F93CF93DF93EC018C0188
:1039A000035B1F4F08C080819181D8018D939C9348
:1039B000CF010E945B5BD801ED91FC91309799F7A4
:1039C00007C08081918199AF88AFCF010E945B5B76
:1039D000E8ADF9AD3097A9F708C08081918199834E
:1039E0008883CF010E945B5B02C0CF5ADF4FE88122
:1039F000F981309791F7DF91CF911F910F91089541
:103A00002F923F924F925F926F927F928F929F92EE
:103A1000AF92BF92CF92DF92EF92FF920F931F93DC
:103A2000DF93CF9300D000D000D0CDB7DEB79E8318
:103A30008D837A8369834A010E9416562D813E81C7
:103A4000232B89F1ED81FE818389843019F08389EC
:103A5000853019F529813A81232B09F4DFC08114BF
:103A6000910409F4DDC04FE4A42EB12C6D817E8158
:103A7000A60EB71E36E4C32ED12CC60ED71E2AE4DE
:103A8000E22EF12CE60EF71E8B0109591F4F1AC0CA
:103A9000ED81FE818389843051F0EF59FF4F89E336
:103AA00090E09183808388248A94982CB9C0F8018F
:103AB0004081518162817381C5010E94685A892BBE
:103AC00009F0ACC0F60180819181F701208131813C
:103AD00082179307E9F2821B930B8815990524F44A
:103AE000009709F49BC04C017901662477242D814D
:103AF0003E81235B3F4F3C832B8396E4292E312C60
:103B00006D817E81260E371E8CE4482E512C460E88
:103B1000571E3CC0EB81FC81A080B180F501C188BB
:103B2000D288CE18DF08840106191709C016D106FD
:103B300008F4860149815A81460D571DF5012785F4
:103B400030892E0D3F1DCA01B901A8010E9479716B
:103B5000E00EF11E0C151D05B8F0F5018081918174
:103B6000EB81FC8191838083F101808191818E19A9
:103B70009F0991838083C5010E945B5BF201808174
:103B800081508083EE24FF24600E711E6814790436
:103B900008F22D813E81265B3F4FF901F182E082E0
:103BA000EA54F040FE83ED8383898430C9F5EC5BF1
:103BB000FF4F40815181349620813181E854F0409B
:103BC000FE83ED83C401840F951F281739070CF479
:103BD000C9012D813E812D5A3F4FF901208131814C
:103BE000E355F040FE83ED832417350778F028175E
:103BF000390760F4EC5BFF4F91838083E454F0401D
:103C0000FE83ED83CF010E942D2D0AC02D813E81C0
:103C10002C5B3F4FF9019183808302C08824992453
:103C2000C40126960FB6F894DEBF0FBECDBFCF916C
:103C3000DF911F910F91FF90EF90DF90CF90BF9099
:103C4000AF909F908F907F906F905F904F903F903C
:103C50002F9008950E94001D08958F929F92AF9219
:103C6000BF92CF92DF92EF92FF920F931F93CF9369
:103C7000DF93EC014B018A010E941656209709F44C
:103C800058C08114910409F457C00115110509F4B5
:103C900055C0CD5ADF4F88819981C355D0408017D8
:103CA000910708F48C01FAE3AF2EB12CAC0EBD1EC7
:103CB000E3E5CE2ED12CCC0EDD1E7BE6E72EF12CDB
:103CC000EC0EFD1E8B89843039F0CF59DF4F89E32C
:103CD00090E0998388832DC049A55AA58DA19EA106
:103CE000481B590B9A013695279536952795F6016D
:103CF000808191812817390738F48DA99EA9841BEA
:103D0000950B8017910758F4F7014081518162812A
:103D10007381C5010E94685A892BA1F20DC088A148
:103D2000806188A3CE01B401A8010E945E2A892B7C
:103D300029F00FEF1FEF02C000E010E0C801DF9193
:103D4000CF911F910F91FF90EF90DF90CF90BF9098
:103D5000AF909F908F900895CF92DF92EF92FF9255
:103D60000F931F93CF93DF936C017B018A01C0E017
:103D7000D0E011C0B7016C0F7D1FA8014C1B5D0B7B
:103D8000C6010E942D1E181619061CF0CFEFDFEF9A
:103D900005C0C80FD91FC017D10764F3CE01DF914A
:103DA000CF911F910F91FF90EF90DF90CF900895EA
:103DB000AF92BF92CF92DF92EF92FF920F931F9339
:103DC000CF93DF938C01E72F6A01009709F4E6C0D7
:103DD000DC0153968C91843041F00F591F4F89E3D9
:103DE00090E0F80191838083D9C0D8011D964D9150
:103DF0005C911E97C114D104C9F44115510509F411
:103E0000D0C01F966D917C915097C8010E94AC1E46
:103E1000F8012785308997FF02C0C90176C0C90122
:103E20000E94B14CF80116861586BBC0C62FD72F4D
:103E30005E01D80151966D917C91529741155105C3
:103E400069F5C616D70610F4E60113C0C6010E9434
:103E50006A6FEC017601E81AF90AC801B501A701F9
:103E60000E94AC1E97FD9AC0209709F49AC0AE0C30
:103E7000BF1CF801818992890E94B74CD8015096E5
:103E80009C938E931F97009709F488C0B501AE01EB
:103E90000E947971F801C587D68783C0C601840F57
:103EA000951FD8011F962D913C9150978617970723
:103EB00080F4240F351FC9016C2F7E2FA6010E94AC
:103EC0007971F801858596858C0D9D1D968785876E
:103ED00068C07B01E41AF50A240F351FC9016C2F55
:103EE0007E2FA7010E947971D8011F966D917C9158
:103EF000509751964D915C915297C8010E94AC1E0B
:103F000097FF0BC0F801878590890E94B14CD801BA
:103F10001E961C921E921D9741C05E01AE0CBF1CE6
:103F200096012E193F09F801618972892617370712
:103F3000E0F0C6010E946A6FEC017901E81AF90A03
:103F4000C801B501A7010E94AC1E97FF0BC0D801A4
:103F50001F968D919C9150970E94B14CF801168646
:103F600015861CC0AE0CBF1C01C0E901209759F09A
:103F7000D8011F968C911F9750969C91B501AE0168
:103F80000E94797105C0F801878590890E94B14C23
:103F9000D8011E96DC93CE931D9703C0CC24CA94FF
:103FA000DC2CC601DF91CF911F910F91FF90EF9014
:103FB000DF90CF90BF90AF900895CF92DF92EF92B5
:103FC000FF920F931F93CF93DF936C017B018A01C4
:103FD0004115510519F4C0E0D0E00CC08BE699E022
:103FE000BA010E947B52EC01009721F0B701A801B1
:103FF0000E943D71C601BE01A8010E94D81E182F63
:10400000092F209729F08BE699E0BE010E94D35238
:10401000812F902FDF91CF911F910F91FF90EF9003
:10402000DF90CF9008950F931F938C0160E070E0B4
:1040300040E050E00E94D81EC8010E9493361F91B4
:104040000F9108950F931F93CF93DF93EC018A0193
:10405000009709F47BC080E16230780759F1E0E114
:1040600063307E0744F46230710571F06150704135
:1040700009F066C04BC080E16530780761F1665099
:10408000704109F05DC030C04115510509F444C0CC
:104090002230310509F040C08B89882329F0CF599F
:1040A000DF4F88E390E050C0CD5ADF4FFA018081A6
:1040B00091810EC04115510579F12230310561F52C
:1040C000FA0180819181C85BDF4F998388832497AF
:1040D0009983888332C041155105F1F024303105B0
:1040E000D9F4C559DF4F08C041155105A9F0243056
:1040F000310591F4C959DF4FF80180819181A28186
:10410000B38188839983AA83BB8317C04115510566
:1041100019F02230310529F0CF59DF4F86E190E0C8
:1041200013C0CE0160E070E040E050E00E94D81E75
:10413000F801808191819A8B898B20E030E008C062
:10414000CF59DF4F8AE290E0998388832FEF3FEFCA
:10415000C901DF91CF911F910F910895FC01062EA7
:10416000672F702D718F608F0E94E1340895EF9258
:10417000FF920F931F93CF93DF93EC01D901009728
:1041800009F453C08B89813029F4CF59DF4F8DE278
:1041900090E049C08B89882329F0CF59DF4F88E30D
:1041A00090E041C0E0905608F090570800E010E120
:1041B00080910306909104060196909304068093E3
:1041C00003068091030690910406892B21F4109335
:1041D000040600930306F7010FC080910306909137
:1041E0000406082E892F902D208D318D2817390730
:1041F000F9F20190F081E02D309779F720C0078423
:10420000F089E02D83859485A585B6858C8B9D8B63
:10421000AE8BBF8BCE010E948C2E9C0108C0CF5963
:10422000DF4F81E490E0998388832FEF3FEFC9014E
:10423000DF91CF911F910F91FF90EF9008958091A2
:10424000030690910406082E892F902D998F888F50
:104250000A2EAB2FB02DBF8FAE8F4A8F5B8F6C8F26
:104260007D8FCB01BA0140E050E00E942724FC0181
:10427000009709F0C4CFD3CF0F931F93CF93DF9351
:1042800080915808882381F486E064E979E20E94ED
:10429000E123892B09F05DC00E94AF2C892B09F026
:1042A00058C081E08093580881E090E063E770E0B7
:1042B0000E94954CEC018C01009709F44CC01B8ABC
:1042C00084E08C838AE29EE19E838D8388ED9EE16B
:1042D00098878F838DED9FE19A87898787E99CE195
:1042E0009C878B870E94EF5669A37AA38BA39CA31C
:1042F0006DA37EA38FA398A769A77AA78BA79CA776
:104300000C5B1F4F80E99CE0F801918380830C5F78
:104310001F4FF80191838083055F1F4F28E132E032
:10432000F801318320830A5F1F4F88EE93E0F80184
:1043300091838083095510408091560890915708C9
:10434000998388833A8B298B1093570800935608DA
:1043500002C000E010E0C801DF91CF911F910F91E2
:104360000895CF93DF93EC01E0915608F091570840
:10437000A6E5B8E014C0EC17FD0769F488819981BF
:1043800011969C938E93CE010E94CA1C8D859E85AA
:10439000892B71F007C0DF010190F081E02D30978B
:1043A00051F70EC08F8598890E94B14C1E861D86DC
:1043B00083E7FE0111928A95E9F7CE010E94B14C84
:1043C000DF91CF910895CF93DF93FC01EB01DA01E8
:1043D000009719F426E230E01FC084859585009788
:1043E00019F420E030E018C09C0182899389082EDE
:1043F000892F902D8D939C9386859785A089B1896F
:1044000088839983AA83BB8315861486138A128AAC
:1044100016861786108A118AC901DF91CF910895F7
:104420009C01E0912D09F0912E090AC082819381AF
:104430008217930711F49F0107C00190F081E02DCE
:104440003097A1F720E030E0C9010895DC01FA01BE
:10445000009791F06250704179F44115510561F077
:104460002230310549F4808191811B969C938E9373
:104470001A9720E030E002C02FEF3FEFC901089506
:10448000DC01FA01009791F06250704179F4411516
:10449000510561F02230310549F41A968D919C91B5
:1044A0001B979183808320E030E002C02FEF3FEF25
:1044B000C90108950F931F93FC01009719F42FEF82
:1044C0003FEF12C046875787608B718B338B228BEF
:1044D0001587048786819781892B21F0CF01069665
:1044E0000E94135A20E030E0C9011F910F910895F6
:1044F000CF93DF93EC01E0912D09F0912E09ADE20D
:10450000B9E01DC0EC17FD07B1F4888199818D9346
:104510009C9307C0808191819D838C83CF010E94F1
:104520005B5BEC81FD813097A9F7CE010E94B14C15
:1045300020E030E008C0DF010190F081E02D3097ED
:1045400009F72FEF3FEFC901DF91CF9108954F9207
:104550005F926F927F928F929F92AF92BF92CF9213
:10456000DF92EF92FF920F931F93CF93DF935C0143
:104570004B013A01522E432EFC0184819581892BF7
:1045800031F4C5010696B701A6010E94685AF501EB
:10459000C481D581209719F400E010E031C08881F2
:1045A0009981F50195838483EF81F88584859585CC
:1045B000A685B785F40180839183A283B383EB85BD
:1045C000FC8580819181082E892F902DF3019183A4
:1045D000808349895A89401751070CF48A01F501F3
:1045E00080859185841B950B918780876F8578895D
:1045F000852D942DA8010E947971CE010E945B5BEC
:10460000C801DF91CF911F910F91FF90EF90DF9044
:10461000CF90BF90AF909F908F907F906F905F9062
:104620004F9008956F927F928F929F92AF92BF9218
:10463000CF92DF92EF92FF920F931F93CF93DF936E
:104640004C015A016B01390180E090E060E8A7015C
:104650000E942F5DEC01009741F48CE090E0F401A2
:10466000958784870FEF1FEF13C08F859889B80156
:10467000A7010E947971C401B601A50193018E01C1
:104680000E9485378C01009719F4CE010E945B5B74
:10469000C801DF91CF911F910F91FF90EF90DF90B4
:1046A000CF90BF90AF909F908F907F906F90089524
:1046B000CF93DF93EC0180915908882369F481E15D
:1046C0006BEF76E30E94E123892B19F020E030E0C4
:1046D00041C081E080935908209719F570912D0908
:1046E00060912E09C0910506D0910606219611F41D
:1046F000C0E0D0E1AE01042E452F502D872F962F1C
:104700009C01F90108C0828193818417950771F398
:104710000190F081E02D3097B1F7C0930506D0935A
:10472000060681E090E064E170E00E94954CFC0197
:104730009C01009779F00C2ECD2FD02DD383C2830E
:1047400080912D0990912E0991838083F0932E09F9
:10475000E0932D09C901DF91CF910895DF92EF9287
:10476000FF920F931F93CF93DF937C018B01DB01AB
:104770001796ED91FC911897D184C0915A08D09169
:104780005B0812C08A81D81661F4EB81FC813097F6
:1047900041F0C701B8010995892B19F420E030E0F8
:1047A00007C00990D881C02D209761F72FEF3FEF08
:1047B000C901DF91CF911F910F91FF90EF90DF9092
:1047C00008951F93CF93DF93182FEB01A0915A0800
:1047D000B0915B0808C012968C9112978117F9F07E
:1047E0000D90BC91A02D1097B1F724C01283809139
:1047F0005A0890915B08009759F4B0935B08A09316
:104800005A088EEA93E2909356098093550907C09F
:1048100011969C938E93B0935B08A0935A081496BC
:10482000DC93CE93139720E030E0C901DF91CF9164
:104830001F91089581E090E065E070E00E94954C42
:10484000FC01DC01009791F62FEF3FEFEECFDF92F6
:10485000EF92FF920F931F93CF93DF937B018C0115
:10486000EA014115510521F0188219821A821B8232
:104870002FEFE2162FEFF2062FEF02072FEF1207AE
:1048800089F0D801C701082E8B2FB02D092E9A2F41
:10489000A02D80709070A070B07F80509040A0409C
:1048A000B04E39F4E0912F09F09130093097E1F5DD
:1048B0003EC0D0902F097091300960E08D2D972F68
:1048C0009C01F90114C086819781A085B1858E2154
:1048D0009F21A023B12322813381448155818217F6
:1048E0009307A407B50731F00190F081E02D3097D0
:1048F00051F71DC0209761F082859385A485B58509
:104900000097A105B10521F088839983AA83BB8311
:1049100086859785892B41F4E284F3840485158587
:104920006F5F643059F603C02685378502C020E0EA
:1049300030E0C901DF91CF911F910F91FF90EF906F
:10494000DF9008952F923F924F925F926F927F92E5
:104950008F929F92AF92BF92CF92DF92EF92FF928F
:104960000F931F93CF93DF932B013C0149015A0111
:104970001601C0912F09D09130098FE2C82E89E02D
:10498000D82E04C06E010990D881C02D209749F01F
:104990008E819F81A885B98588169906AA06BB06CF
:1049A00088F380E190E00E94B74CFC01009719F475
:1049B0002FEF3FEF19C0482059206A207B20428208
:1049C00053826482758286829782A086B186E2864F
:1049D000F3860487158737862686D183C083D60160
:1049E0008D939C9320E030E0C901DF91CF911F911E
:1049F0000F91FF90EF90DF90CF90BF90AF909F907E
:104A00008F907F906F905F904F903F902F90089580
:104A1000CF93DF93EC0119821882E0912F09F09176
:104A2000300906C00196998388830190F081E02DBA
:104A3000888199813097B1F724E0880F991F2A95D2
:104A4000E1F70E94B74C9C010097A1F0E0912F097B
:104A5000F09130090CC0E901DF0180E10D9009926D
:104A60008150E1F7205F3F4F0190F081E02D3097BA
:104A700091F702C019821882C901DF91CF91089580
:104A80004F925F926F927F928F929F92AF92BF925E
:104A9000CF92DF92EF92FF920F931F932B013C0175
:104AA00049015A012FEF3FEF35C082819381A481E4
:104AB000B58184159505A605B70511F58681978101
:104AC000A085B18588159905AA05BB05C9F482851D
:104AD0009385A485B5858E159F05A007B10781F440
:104AE000868597858C159D0559F4808191819093D9
:104AF000300980932F09CF010E94B14C20E030E0B3
:104B0000E0912F09F09130098081918190933009D3
:104B100080932F09E0912F09F0913009309729F601
:104B2000C9011F910F91FF90EF90DF90CF90BF9040
:104B3000AF909F908F907F906F905F904F9008956F
:104B4000CF93DF93EC0117C0868597858C179D075F
:104B500011F0209751F480819181909330098093D6
:104B60002F09CF010E94B14C06C0808191819093A2
:104B7000300980932F09E0912F09F0913009309787
:104B800019F780E090E0DF91CF910895DF93CF9304
:104B900000D000D0CDB7DEB7FC0119821A821B828B
:104BA0001C82DE01119640E0808180538A3098F5A6
:104BB00020E030E0C90163E0880F991F6A95E1F7B2
:104BC000220F331F820F931F2191332727FD30952A
:104BD00020533040280F391F808180333CF08A33C6
:104BE0002CF42F3F310531F328F315C02F3F310549
:104BF00009F088F44F5F2C9380818E3239F0443075
:104C000051F429813A814B815C8109C0443019F00B
:104C100011963196C9CF2FEF3FEF4FEF5FEFB901FC
:104C2000CA010F900F900F900F90CF91DF910895D0
:104C3000AF92BF92CF92DF92EF92FF920F931F93AA
:104C4000DF93CF93CDB7DEB727970FB6F894DEBFCB
:104C50000FBECDBF6C837D838E839F83E4E0EE2EF9
:104C6000F12CEC0EFD1E0EE618E06E010894C11C3E
:104C7000D11C5EE277E0A72EB12CAC0EBD1ED70191
:104C80004C9130E0842F6AE00E945E6F292F842FC0
:104C90000E945E6F482FF601E30FF11D205D208317
:104CA0003F5F882379F7932FF7011082D80106C060
:104CB0003150F601E30FF11D80818D933323C1F74D
:104CC000F801E90FF11DDF015D938D01EA14FB048A
:104CD00021F00894E11CF11CD2CF10828EE698E0FE
:104CE00027960FB6F894DEBF0FBECDBFCF91DF91F0
:104CF0001F910F91FF90EF90DF90CF90BF90AF90FA
:104D00000895DF93CF93CDB7DEB760970FB6F894D1
:104D1000DEBF0FBECDBF9C01DE011196E7E0F6E0DD
:104D200080E101900D928150E1F7A901ACE5B8E076
:104D300020E030E0BE016F5F7F4F9AE3FA0180818F
:104D400082958F70FB01E80FF11D80818C93FA0131
:104D500080818F70FB01E80FF11D808111968C938B
:104D600011972530310521F012969C93129703C0BC
:104D700012961C9212972F5F3F4F4F5F5F4F139613
:104D800026303105D9F68CE598E060960FB6F89498
:104D9000DEBF0FBECDBFCF91DF910895EF92FF929E
:104DA0000F931F93DF93CF9300D000D0CDB7DEB722
:104DB00049835A836B837C830E94DD5A7C01009770
:104DC00069F1DC011B968C911B97833039F51F9696
:104DD000ED91FC9150978081863001F55596ED91CB
:104DE000FC9156973097D1F0C70168E070E1AE01B1
:104DF0004F5F5F4F09958C01009791F449815A816B
:104E00006B817C81403EB0E05B07B0E06B07B1E0B6
:104E10007B0731F0C7010E94F43C02C00FEF1FEF87
:104E2000C8010F900F900F900F90CF91DF911F91BD
:104E30000F91FF90EF900895EF92FF920F931F93C1
:104E4000DF93CF9300D000D0CDB7DEB749835A832C
:104E50006B837C830E94DD5A7C01009769F1DC0141
:104E60001B968C911B97833039F51F96ED91FC9121
:104E700050978081863001F55596ED91FC915697BB
:104E80003097D1F0C70167E070E1AE014F5F5F4F2F
:104E900009958C01009791F449815A816B817C813D
:104EA000403EB0E05B07B0E06B07B1E07B0731F05C
:104EB000C7010E94FA3C02C00FEF1FEFC8010F901C
:104EC0000F900F900F90CF91DF911F910F91FF9056
:104ED000EF9008952F923F924F925F926F927F9240
:104EE0008F929F92AF92BF92CF92DF92EF92FF92FA
:104EF0000F931F93DF93CF9300D000D000D0CDB796
:104F0000DEB71C012A013B0148015901C982DA823E
:104F1000EB82FC82DC011F968C911F9750969C912E
:104F2000411551056105710581F44090410950908A
:104F3000420960904309709044094114510461048E
:104F4000710419F42FEF3FEFA8C08D839E83ED818C
:104F5000FE81438654866586768681149104A10479
:104F6000B10431F488E196E00E94C6254B015C0152
:104F7000AD81BE8153968D929D92AD92BC92569713
:104F8000C501B4016421752186219721A5019401F1
:104F9000EE24FF24870161010E94A22489819A8165
:104FA000AB81BC810097A105B10571F060E070E0B4
:104FB00080E090E020E030E040E050E0E980FA80DE
:104FC0000B811C810E94A224A2E3B9E0F101329678
:104FD00089E001900D928150E1F7AD81BE81159677
:104FE0002C91159716968C911697822B17969C915B
:104FF0001797892B18969C911897892B19969C9135
:105000001997892B1A969C91892B61F020FD0AC073
:10501000ABE3B9E0ED81FE81359686E001900D921B
:105020008150E1F740924109509242096092430950
:10503000709244098092450990924609A0924709CE
:10504000B092480989819A81AB81BC810097A10502
:10505000B105A1F48091490990914A09A0914B09A9
:10506000B0914C0984259525A625B725882199213D
:10507000AA21BB210097A105B10561F089819A8120
:10508000AB81BC818093490990934A09A0934B0955
:10509000B0934C090E9450299C01C90126960FB675
:1050A000F894DEBF0FBECDBFCF91DF911F910F915E
:1050B000FF90EF90DF90CF90BF90AF909F908F9038
:1050C0007F906F905F904F903F902F9008952F9218
:1050D0003F924F925F926F927F928F929F92AF9288
:1050E000BF92CF92DF92EF92FF920F931F93DF93C5
:1050F000CF93CDB7DEB728970FB6F894DEBF0FBEBB
:10510000CDBF6F83788719012A01370148010E94BA
:10511000DD5AFC01009709F491C08385833009F0C2
:105120008DC0FA83E983A785B0898C91863009F018
:1051300040C0258936892115310541F18E010D5F69
:105140001F4FCF0164E070E1A801F9010995E981E1
:10515000FA8125893689CF0165E070E14F81588554
:10516000F90109958B819C81AD81BE8181608B8322
:105170009C83AD83BE83E981FA8125893689CF017D
:1051800063E070E1A801F90109950AC015968F81C5
:1051900098859C01F90186E001900D928150E1F71C
:1051A00089819A81B201A10194018301760165018F
:1051B00041C0873109F042C0C188D288F60121A2DE
:1051C00032A243A254A2E114F1040105110521F415
:1051D00066246A94762C4301F60161A672A683A622
:1051E00094A6C6010E94065AF601FF96808191811D
:1051F00067E171E0AE014F5F5F4F0E949642C601CA
:1052000040E65AEE60E070E00E94685A892BB1F4E3
:10521000F60184AD893091F441A152A163A174A13A
:1052200001A512A523A534A5C5A0D6A0E7A0F0A48A
:1052300089819A810E946A279C0102C02FEF3FEF6B
:10524000C90128960FB6F894DEBF0FBECDBFCF912F
:10525000DF911F910F91FF90EF90DF90CF90BF9063
:10526000AF909F908F907F906F905F904F903F9006
:105270002F900895AF92BF92CF92DF92EF92FF925C
:105280000F931F93AA24BB2465010E9467281F91D6
:105290000F91FF90EF90DF90CF90BF90AF90089567
:1052A00080E28093310980E490E061E379E040E2BC
:1052B00050E00E948A5D892B19F420E030E002C0A2
:1052C0002FEF3FEFC9010895CF93DF93EC0180E406
:1052D00090E061E379E040E250E00E948D5D892B2F
:1052E000E9F480913109803251F482E399E0BE0102
:1052F0000E94B271009719F420E030E011C0E1E3A0
:10530000F9E080E2DF011D928A95E9F7CF010A9664
:105310006FEF70E046E050E00E9482712FEF3FEFA8
:10532000C901DF91CF910895FB01A385B485109742
:1053300069F1828183FF2AC01C968C911C9782950B
:105340008F70880F880F843108F1282F30E0858511
:10535000968582179307D4F0821B930B928B818BD7
:10536000892B71F01C968C911C9782958F7090E020
:10537000880F991F880F991FA80FB91FB08BA78797
:1053800036872587CF010E94CC2C03C0CF010E9415
:105390005B5B80E090E00895AF92BF92CF92DF9286
:1053A000EF92FF920F93CF93DF935C01FC01678133
:1053B0007085C385D4858D8582FD71C0F501128A03
:1053C000118A84E190E096878587288139818A81D6
:1053D0009B81998388833B832A838D8584FF0FC0BB
:1053E00084E08D8788859985AA85BB858C839D837C
:1053F000AE83BF83188619861A861B8620C02C812F
:105400003D814E815F8181FF10C0022E252F502DDE
:10541000032E342F402D2F5F3F4F4F4F5F4F022EF3
:10542000252F502D032E342F402D288739874A876A
:105430005B871C821D821E821F8284E18D876B0127
:1054400080E58C871F861E861B8A1A8A198A188A0D
:10545000F501E584F6840E2CEF2CF02CFB0160891D
:10546000718982899389248535854685578506E02B
:105470000E945738DC01CB01F50145855685BE01F8
:105480000E945038998B888BF60144855585668536
:10549000778586E095010E948F39892B19F4C50123
:1054A0000E945B5B80E090E0DF91CF910F91FF90D5
:1054B000EF90DF90CF90BF90AF9008956F927F9262
:1054C0008F929F92AF92BF92CF92DF92EF92FF9214
:1054D0000F93DF93CF9300D0CDB7DEB76C01F62EDC
:1054E000E72E3A014115510531F4DC0190968C917B
:1054F0008B7009F4B1C1F60180A181FF02C008E1FF
:1055000001C004E180E090E060E4402F50E00E94A0
:105510002F5D4C01009709F483C1FC01A384B4847E
:10552000D60158968D919C915997F501918380836E
:105530005E968D919C915F9793838283000F000FFD
:10554000048790963C919097232F277F90962C93D9
:10555000909799968D919D910D90BC91A02D082EBC
:105560008B2FB02D092E9A2FA02D84839583A6838F
:10557000B78324FF1FC080E18587377ED6019096D0
:105580003C93E0E4F0E0CE0EDF1EF60180819181D5
:10559000A281B38120EC3FEFC20ED31E082E8B2FC9
:1055A000B02D092E9A2FA02DF50180879187A28713
:1055B000B38708C0D5011D961C92F501108611868F
:1055C00012861386D60190962C9121FF36C0E3E512
:1055D000F0E0CE0EDF1ED6018D919C91EDEAFFEF3B
:1055E000CE0EDF1E082E892F902D9A838983D50138
:1055F0001D968C911D9782601D968C932D7FF601D0
:1056000020A381A592A5A3A5B4A50196A11DB11DB6
:1056100081A792A7A3A7B4A782E0D50154968C9343
:10562000549784E055968C935597898156968C9320
:1056300056978A8157968C9347C06114710469F11B
:10564000C40160E8A3010E942F5D4C01009729F47A
:10565000E1E6F0E0CE0EDF1EE7C0FC018785908911
:105660006F2D7E2DA3010E947971C301A0E0B0E0EF
:10567000F60121A532A543A554A5280F391F4A1FBD
:105680005B1FD60199962D933D934D935C939C9708
:10569000F50185858860858717C020FF15C0D50175
:1056A0001D968C911D9781601D968C932E7FF6011F
:1056B00020A381A592A5A3A5B4A50196A11DB11D06
:1056C00081A792A7A3A7B4A724E430E0C20ED31EFB
:1056D000D6012D913C91EFE0F0E0CE0EDF1ED60119
:1056E0008D919C91EDEAFFEFCE0EDF1E2817390752
:1056F00030F4D5011F961C921E921E9706C0022EF2
:10570000232F302DF50137872687D50151961C921E
:105710001E92509753961C921E925297F401E18864
:10572000F28885859685E80EF91E0E2CEF2CF02C5C
:10573000D60154966D917D918D919C9157975A9673
:105740002D913D914D915C915D9706E00E945738F7
:10575000DC01CB01F40145855685B5010E941A385C
:10576000D4011F966D917C91509751964D915C910B
:1057700052970E945038F501918B808B672839F43D
:10578000858590E083709070892B09F453C0D40113
:105790001D921C92D601D896ED91FC91D997309725
:1057A00099F4D9969C928E92D8970E942A57EFE549
:1057B000F0E0CE0EDF1E6160D6016D937C93E1EACE
:1057C000FFEFCE0EDF1E09C0CF010190F081E02D6A
:1057D0003097D1F7FC019182808296012B5A3F4F7E
:1057E000F90180819181A281B3810097A105B10562
:1057F00081F4F50184819581A681B781082E8B2FD4
:10580000B02D092E9A2FA02DF90180839183A283B8
:10581000B383C40160E00E944F5C7C01009759F49F
:1058200021E630E0C20ED31E87E390E0D6018D93CF
:105830009C930CC07401F601428D538D648D758D5F
:1058400086E097010E948F39892B19F02FEF3FEFE7
:1058500005C0C7010E945B5B20E030E0C9010F90EA
:105860000F90CF91DF910F91FF90EF90DF90CF904D
:10587000BF90AF909F908F907F906F900895CF933F
:10588000DF939C01DB011D968D919C911E9745979E
:10589000A0F11B96ED91FC911C977496E901CD5AED
:1058A000DF4F1AC0613019F0623099F402C03196AE
:1058B00013C0528140E08381282F30E0242B352B08
:1058C000888199812817390710F439832883349601
:1058D00003C08181E80FF11D6081662371F01B9682
:1058E0008D919C911C979F01281B390B1D968D91C2
:1058F0009C911E9728173907ACF2DF91CF9108953C
:10590000CF93DF93EC01CF59DF4F798368831A92ED
:105910001A921A921A92CD55D0408B89863018F07F
:105920008AE08B8B01C01B8ACE010E94CA1CCE016B
:10593000815B9F4F0E94065ACE01CA960E94065A6A
:10594000CE018D599F4F0E94065ACE018B599F4F11
:105950000E94065A80E090E0DF91CF9108958091F7
:105960007E0890917F08892B99F486E296E06BE59A
:1059700075E340E050E020E031E00E945D5E9093EE
:105980007F0880937E08892B19F42FEF3FEF02C028
:1059900020E030E0C9010895CF92DF92EF92FF92AC
:1059A0000F931F93CF93DF937C01FC011182108230
:1059B00080917E0890917F08892B21F4C7010E9475
:1059C000CC2942C0C0905109D0905209C114D104D1
:1059D00029F4F0925209E09251092EC0F701C585D1
:1059E000D68581859285C80FD91F81899289C80F74
:1059F000D91F00918008109181080050184F0C0F9A
:105A00001D1F8BE699E00E94505308171907C8F430
:105A100080918008909181088C0F9D1F9093810840
:105A200080938008C601F601C080D180C114D104E2
:105A3000C9F7FC01F182E08283E599E00E94135AE4
:105A400003C0C7010E945B5BDF91CF911F910F9153
:105A5000FF90EF90DF90CF900895FC01009719F42C
:105A60002FEF3FEF0CC080A1886180A3CF0160E0E1
:105A700070E040E050E00E945E2A20E030E0C90182
:105A800008950F931F93CF93DF93EC018B01DC01FB
:105A9000A35BBF4FED91FC911197309751F0CF016F
:105AA0000190F081E02D3097D1F7FC011183008344
:105AB00002C06D937C93FE01EA5BFF4FD8015196C3
:105AC0008D919C91529720813181820F931F9183F8
:105AD0008083FE01E05CFF4F51966D917C9152975F
