:100000000C9466000C94C0000C94C0000C94C000CA
:100010000C94C0000C94C0000C94C0000C94C00060
:100020000C94C0000C94C0000C94C0000C94C00050
:100030000C94C0000C946B140C94C0000C94C00081
:100040000C94C0000C94C0000C94C0000C94C00030
:100050000C94C0000C94C0000C94C0000C94C00020
:100060000C94C0000C945E1D0C941B1E0C94C000DC
:100070000C94C0000C94C0000C94C0000C94C00000
:100080000C94C0000C94C0000C94C0000C94C000F0
:100090000C94C0000C94C0000C94C0000C94C000E0
:1000A0000C94C0000C94C0000C94C0000C94C000D0
:1000B0000C94C0000C94C0000C94C0000C94C000C0
:1000C0000C94C0000C94C0000C94C000E4E7F0E075
:1000D00084E88083E4ECF0E087E08083ECECF0E0FF
:1000E00087E0808311241FBECFEFD1E2DEBFCDBFFA
:1000F00000E00CBF14E0A0E0B2E0E6EFF8E600E0BC
:100100000BBF02C007900D92AC31B107D9F714E0D4
:10011000ACE1B4E001C01D92A939B107E1F7EDE50A
:10012000F0E08FEF9FE79183808389E994E02FEFE0
:100130003FE7A901481B590BCA0151E081389507D7
:1001400070F029E934E08FEF9EE7AC01421B530BBE
:1001500080E794E029E934E0B9010E9403040E9499
:100160006C118BE193E029EB31E0B90140E050E004
:1001700020E831E00E940A120E9400000C947934B9
:100180000C940000DF93CF930F920F92CDB7DEB7A0
:100190009A83898380E20E94220880E092E00E9494
:1001A000302C8CE194E040ED57E060E070E00E947C
:1001B000170F009729F088E092E00E94302C12C0BF
:1001C00080E192E00E94302C64EC79E080E090E0E5
:1001D0000E94AF0C89E192E00E94302C8CE194E007
:1001E0000E94641068EE73E080E090E00E94AF0C23
:1001F000D4CFDF93CF930F920F92CDB7DEB79A8310
:10020000898380E60E94220881E292E00E94302CDD
:100210008CE194E048EB5BE060E070E00E94170F37
:10022000009729F08BE392E00E94302CEDCF85E51A
:1002300092E00E94302C6CEA7DE080E090E00E9429
:10024000AF0C80E792E00E94302C8CE194E00E9499
:100250006410DACFDF93CF9300D00F92CDB7DEB723
:1002600080E092ECA1E0B0E089839A83AB83BC8309
:1002700083E993E060E070E040E00E941611409155
:10028000C4035091C5038AE892E020E932E0B90145
:100290000E94272B8091C4039091C5030E94432A9A
:1002A00061E071E09E012F5F3F4FA9010E94F72995
:1002B00082E992E00E94302C8BEA92E00E94302C7E
:1002C0008CE194E00E94641087EC92E022EC30E034
:1002D000B90140E050E020E031E00E940A128CECCD
:1002E00092E029EF30E0B90140E050E020E031E059
:1002F0000E940A1280ED92E00E94302C8CE194E082
:1003000048EE53E060E070E00E94170F009729F07C
:1003100081EE92E00E94302C12C082EF92E00E94A7
:10032000302C6CED75E080E090E00E94AF0C84E032
:1003300093E00E94302C8CE194E00E94641068EEFF
:1003400073E080E090E00E94AF0CD4CFDF93CF93B6
:100350000F920F92CDB7DEB78A8380911503898300
:100360008A818093150389810F900F90CF91DF913F
:100370000895DF93CF9300D0CDB7DEB79B838A83F8
:100380000E943A0986E193E02AE231E0B90140E0B7
:1003900050E020E03CE00E940A128EEF0E9422080A
:1003A0000E94FF070E947C08809115038F3FC1F3D4
:1003B000E3E5F0E080818E708983A3E5B0E0E3E5BA
:1003C000F0E08081982F917F80911503892B8C9389
:1003D000A3E5B0E0E3E5F0E0808181608C9388954F
:1003E000A3E5B0E0E3E5F0E080818E7F8C93A3E5A8
:1003F000B0E0E3E5F0E08081982F917F8981892B3F
:100400008C93CECFDF93CF93CDB7DEB72E970FB6B9
:10041000F894DEBF0FBECDBF9C878B877E876D872C
:100420001E821D821C821B828D859E8502969A8368
:10043000898389819A818430910520F484E090E059
:100440009A83898389819A8101968E7F9A83898391
:10045000EB85FC85808191819A8789878B859C8536
:1004600098878F8334C0E985FA852081318189811D
:100470009A812817390700F18D819E81009759F0E4
:10048000ED81FE8120813181E985FA85808191812C
:100490008217930788F489859A859E838D838F813F
:1004A00098859C838B83E985FA85208131818981B8
:1004B0009A812817390779F089859A850296988755
:1004C0008F83E985FA85828193819A8789878985D7
:1004D0009A85009741F68D819E81009709F446C068
:1004E000ED81FE812081318189819A81A901481B9A
:1004F000590BCA018430910558F12D813E818981C3
:100500009A81820F931F9A878987ED81FE812081CE
:10051000318189819A81A901481B590BCA01E9855A
:10052000FA8591838083ED81FE8182819381E985C3
:10053000FA8593838283ED81FE8189819A819183FB
:100540008083EB81FC8189859A859183808308C0B3
:10055000ED81FE8182819381EB81FC819183808397
:100560008D819E810E94C1029E838D838D819E819B
:100570002E960FB6F894DEBF0FBECDBFCF91DF91A0
:100580000895DF93CF9300D00F92CDB7DEB79C8351
:100590008B838B819C8102969A83898389819A813E
:1005A0000F900F900F900F90CF91DF910895DF93F0
:1005B000CF9300D000D0CDB7DEB79C838B837E83F2
:1005C0006D838B819C812D813E81B9010E94020245
:1005D0009A83898389819A81009749F089819A81D8
:1005E0002D813E8160E070E0A9010E943A3489814A
:1005F0009A8126960FB6F894DEBF0FBECDBFCF917D
:10060000DF910895DF93CF93CDB7DEB72C970FB668
:10061000F894DEBF0FBECDBF98878F837A87698736
:1006200089859A85009729F48DEF9FEF9C878B87AA
:10063000D0C089859A8502979A83898389819A8116
:100640000E94F403009729F08EEF9FEF9C878B8721
:10065000C0C0EF81F885808191819E838D838F81D9
:1006600098859C838B839EC0ED81FE8120813181A2
:100670008D819E81280F391F89819A81281739071A
:10068000D9F5ED81FE8120813181E981FA81808176
:100690009181820F931FED81FE8191838083ED8193
:1006A000FE81208131818D819E81280F391FED814E
:1006B000FE81828193812817390709F078C0ED8186
:1006C000FE8120813181ED81FE810280F381E02D68
:1006D00080819181820F931FED81FE8191838083C0
:1006E000ED81FE810280F381E02D82819381ED8195
:1006F000FE81938382835BC02D813E8189819A81B3
:100700008217930788F5EB81FC8189819A81918317
:100710008083E981FA812081318189819A81280F42
:10072000391F8D819E8128173907B9F4E981FA8133
:1007300020813181ED81FE8180819181820F931F23
:10074000E981FA8191838083ED81FE8182819381A9
:10075000E981FA81938382832AC0E981FA818D81BC
:100760009E819383828323C0ED81FE81208131812C
:100770008D819E81820F931F9C0189819A818217AE
:10078000930728F48FEF9FEF9C878B8722C08D8182
:100790009E8102969C838B83ED81FE818281938171
:1007A0009E838D838D819E81009709F05DCF8D8121
:1007B0009E81009761F4E981FA818D819E81938306
:1007C0008283EB81FC8189819A81918380831C865D
:1007D0001B868B859C852C960FB6F894DEBF0FBECA
:1007E000CDBFCF91DF910895DF93CF930F920F92FA
:1007F000CDB7DEB79A83898380E090E00F900F90A9
:10080000CF91DF910895DF93CF93CDB7DEB72897CF
:100810000FB6F894DEBF0FBECDBF9C838B837E8363
:100820006D8358874F838D819E8101968E7F9A8339
:1008300089832D813E8189819A81281B390B8F8183
:100840009885820F931F8E7FE981FA81918380833F
:1008500089819A810E94C1029C018B819C81B9018E
:100860000E94020328960FB6F894DEBF0FBECDBFDC
:10087000CF91DF910895DF93CF9300D000D0CDB713
:10088000DEB79E838D831C821B82ED81FE81808179
:1008900091819A83898311C0E981FA812081318114
:1008A0008B819C81820F931F02979C838B83E981AC
:1008B000FA81828193819A83898389819A810097C1
:1008C00059F78B819C8126960FB6F894DEBF0FBE38
:1008D000CDBFCF91DF910895DF93CF9300D000D0AB
:1008E000CDB7DEB79E838D831C821B82ED81FE8196
:1008F000808191819A83898315C0E981FA81208161
:1009000031818B819C818217930730F4E981FA81D0
:10091000808191819C838B83E981FA81828193819B
:100920009A83898389819A81009739F78B819C8189
:10093000029726960FB6F894DEBF0FBECDBFCF91BB
:10094000DF910895DF93CF93CDB7DEB762970FB6EF
:10095000F894DEBF0FBECDBF9C878B877E876D87E7
:10096000588B4F878D859E85009751F48B859C858C
:100970002F853889B9010E9402029A8B898B4DC15B
:100980008F859889009789F48B859C852D853E8578
:10099000B9010E940203009719F01A8A198A3DC111
:1009A0004D855E855A8B498B38C18D859E85029712
:1009B0009E838D838D819E810E94F403009719F0A0
:1009C0001A8A198A2AC18F8598890296988B8F87EF
:1009D0008F8598898430910520F484E090E0988B8D
:1009E0008F878F85988901968E7F988B8F87ED8171
:1009F000FE81208131818F8598892817390708F079
:100A0000D2C0ED81FE81208131818F859889821B42
:100A1000930B9A838983EB85FC85808191819A87EA
:100A200089878B859C8598878F830BC089859A855C
:100A3000029698878F83E985FA85828193819A87C8
:100A4000898789859A85009739F029853A858D812E
:100A50009E812817390750F389859A85009709F4F4
:100A60007BC0E985FA852081318189819A812817A7
:100A7000390708F471C0ED81FE81208131818D81BB
:100A80009E81280F391F89859A852817390709F013
:100A900063C0E985FA852081318189819A81A90124
:100AA000481B590BCA0184309105B8F1ED81FE81D4
:100AB0002081318189819A81820F931FED81FE818E
:100AC0009183808329853A8589819A81820F931F3A
:100AD000EF81F88591838083EF81F885A081B181D2
:100AE000E985FA858281938113969C938E93129760
:100AF000EF81F885A081B181E985FA852081318176
:100B000089819A81A901481B590BCA018D939C9335
:100B10008D819E810E94C1021AC0ED81FE812081DB
:100B20003181E985FA8580819181820F931FED8162
:100B3000FE81918380838D819E810E94C102E9851F
:100B4000FA8582819381EF81F885918380838D85F9
:100B50009E859A8B898B61C08B859C852F85388972
:100B6000B9010E9402029C838B838B819C81009738
:100B7000A9F0ED81FE8180819181AC01425050400D
:100B80008B819C812D853E85B9010E9431348B85F6
:100B90009C852D853E85B9010E9402034B815C81B5
:100BA0005A8B498B3AC0ED81FE81808191819C01F5
:100BB000245030408F8598898217930750F52D81F6
:100BC0003E818F859889820F931F9A878987ED814F
:100BD000FE81208131818F859889A901481B590B9D
:100BE000CA01E985FA859183808389859A850E9467
:100BF000C1029C018B859C85B9010E940203ED8195
:100C0000FE818F859889918380838D819E810E944A
:100C1000C1028D859E859A8B898B89899A89629676
:100C20000FB6F894DEBF0FBECDBFCF91DF91089510
:100C3000DF93CF93CDB7DEB780E090E0CF91DF9127
:100C40000895DF93CF9300D00F92CDB7DEB79C838A
:100C50008B8380917004909171049A8389832EC054
:100C60002B813C81E981FA8180819181AC018DB732
:100C70009EB708970FB6F8949EBF0FBE8DBFEDB715
:100C8000FEB731963183208380E293E093838283A1
:100C900089819A8195838483578346830E94122C8D
:100CA0008DB79EB708960FB6F8949EBF0FBE8DBF46
:100CB000E981FA81828193819A83898389819A81EA
:100CC000009771F60F900F900F900F90CF91DF91DA
:100CD0000895DF93CF9300D000D0CDB7DEB79C83CB
:100CE0008B837E836D83EB81FC818D819E81908FD0
:100CF000878BEB81FC81158214820FB6F8940F92DA
:100D0000ED81FE81808191819A83898389819A8195
:100D10002FEF8F3F920761F41A821982EB81FC81D9
:100D2000848195810196EB81FC819583848321C028
:100D300089819A810097E9F00F900FBE0BC08981DD
:100D40009A8102969E838D83E981FA8182819381C3
:100D50009A83898389819A81009741F0E981FA8198
:100D60009289EB81FC818289891748F70FB6F89444
:100D70000F92EB81FC8189819A8193838283ED813B
:100D8000FE818B819C8191838083EB81FC818281B8
:100D90009381009709F1EB81FC810280F381E02DC2
:100DA000848195810097C1F0EB81FC81248135819C
:100DB000EB81FC810280F381E02D84819581820F9B
:100DC000931FEB81FC8195838483EB81FC810280FE
:100DD000F381E02D158214820F900FBE26960FB678
:100DE000F894DEBF0FBECDBFCF91DF910895DF93A2
:100DF000CF9300D000D0CDB7DEB79C838B837E83AA
:100E00006D830FB6F8940F92ED81FE818081918100
:100E10009A8389830F900FBE89819A812FEF8F3F2C
:100E2000920709F44AC044C029813A818B819C8190
:100E30002817390791F50FB6F8940F92EB81FC81D2
:100E400082819381ED81FE8191838083EB81FC819E
:100E5000848195810097B1F0EB81FC81828193813F
:100E6000009761F0EB81FC81A281B381EB81FC8171
:100E70008481958115969C938E931497EB81FC81C8
:100E8000158214820F900FBEEB81FC8113821282B7
:100E9000EB81FC81108E178A10C089819A8102969D
:100EA0009E838D83E981FA81828193819A838983EC
:100EB00089819A81009709F0B7CF26960FB6F894EA
:100EC000DEBF0FBECDBFCF91DF910895DF93CF93EB
:100ED000CDB7DEB728970FB6F894DEBF0FBECDBFF3
:100EE000809172049091730498878F8339C00FB6F4
:100EF000F8940F92EF81F885848195819A83898394
:100F00000F900FBE89819A81009721F1EF81F885BA
:100F10008789908D9E838D830FB6F8940F92EF8111
:100F2000F885848195810197EF81F8859583848385
:100F3000ED81FE81808191819C838B830F900FBE18
:100F40008B819C812FEF8F3F920721F08D819E81B5
:100F50000E94DD0FEF81F8858081918198878F83D2
:100F60008F819885009709F0C2CF0E94D70A2091FF
:100F70007604309177048091740490917504281759
:100F80003907A1F0E0917604F091770487858130EC
:100F900031F4E0917604F091770482E087870FB610
:100FA000F8940F920E94C7110F900FBE28960FB6AB
:100FB000F894DEBF0FBECDBFCF91DF910895DF93D0
:100FC000CF9300D00F92CDB7DEB79A8389837C830D
:100FD0006B83EB81FC81168A158AEB81FC8182E0B0
:100FE00087878B819C8124E734E0B9010E946906E0
:100FF0000F900F900F900F90CF91DF910895DF9396
:10100000CF93CDB7DEB7E0917604F091770482817B
:101010009381009791F0809176049091770424E772
:1010200034E0B9010E94F70680917604909177042C
:1010300024E734E0B9010E9469060E946607CF9157
:10104000DF910895DF93CF930F920F92CDB7DEB764
:101050008A83E0917604F091770482898983809174
:1010600076049091770424E734E0B9010E94F706F2
:10107000E0917604F09177048A81828B8A818F3F98
:1010800051F0809176049091770424E734E0B9011F
:101090000E94690602C00E9498082091760430914F
:1010A000770480917404909175042817390739F4F6
:1010B000E0917604F091770481E087870DC0E0919C
:1010C0007604F091770482E087870FB6F8940F9248
:1010D0000E94C7110F900FBE89810F900F90CF9182
:1010E000DF910895DF93CF93CDB7DEB78FEF0E94E6
:1010F0002208CF91DF910895DF93CF93CDB7DEB76C
:101100008091780490917904009779F0E0917804C7
:10111000F09179042389348980E794E0B9010E9431
:1011200002031092790410927804CF91DF91089510
:10113000DF93CF9300D00F92CDB7DEB780917204CA
:10114000909173049C838B8382E794E09A838983D4
:101150000E947C081CC020917604309177048B811A
:101160009C818217930749F4EB81FC8180819181F6
:10117000E981FA81918380830EC08B819C819A835F
:101180008983EB81FC81808191819C838B838B811E
:101190009C81009701F78091760490917704909359
:1011A0007904809378040F900F900F900F90CF9157
:1011B000DF910895DF93CF9300D000D0CDB7DEB795
:1011C0009C838B838B819C81009719F180917204A1
:1011D000909173049A83898315C089819A810696B8
:1011E0002B813C81B9010E944134009729F4898107
:1011F0009A819E838D8313C0E981FA8180819181D8
:101200009A83898389819A81009739F71E821D828A
:1012100006C080917604909177049E838D838D81A2
:101220009E8126960FB6F894DEBF0FBECDBFCF913C
:10123000DF910895DF93CF930F920F92CDB7DEB772
:101240009A8389838091800490918104A091820483
:10125000B09183040196A11DB11D809380049093E9
:101260008104A0938204B09383040F900F90CF91D8
:10127000DF910895DF93CF9300D00F92CDB7DEB703
:101280008AE199E00E941313A0E7B0E0E0E7F0E004
:10129000808182608C930E949B0DDC01CB0189834D
:1012A0009A83AB83BC830E949B0D9B01AC01898117
:1012B0009A81AB81BC81281739074A075B0799F3EC
:1012C0000E949B0DDC01CB0189839A83AB83BC8395
:1012D00013C080917A0490917B04A0917C04B0911A
:1012E0007D040196A11DB11D80937A0490937B0427
:1012F000A0937C04B0937D040E949B0D9B01AC01E4
:1013000089819A81AB81BC81281739074A075B071D
:1013100001F380917A0490917B04A0917C04B091B8
:101320007D0427E630E040E050E0BC01CD010E94A2
:10133000C633DC01CB0180937A0490937B04A093A5
:101340007C04B0937D0480917A0490917B04A091F9
:101350007C04B0917D042AE130E040E050E0BC0123
:10136000CD010E94E533DA01C90180937A0490939C
:101370007B04A0937C04B0937D040F900F900F909A
:101380000F90CF91DF910895DF93CF93CDB7DEB764
:1013900029970FB6F894DEBF0FBECDBF69837A835D
:1013A0008B839C8380917A0490917B04A0917C0430
:1013B000B0917D0429813A814B815C81BC01CD01D2
:1013C0000E94C633DC01CB0128EE33E040E050E060
:1013D000BC01CD010E94E533DA01C9018D839E83F2
:1013E000AF83B88701C0000019868D819E81AF81CF
:1013F000B8850097A105B10511F091E099878D811D
:101400009E81AF81B8850197A109B1098D839E8323
:10141000AF83B8879985992331F729960FB6F89449
:10142000DEBF0FBECDBFCF91DF910895DF93CF9385
:101430000F92CDB7DEB789838981882F90E0A0E035
:10144000B0E028EE33E040E050E0BC01CD010E9466
:10145000C633DC01CB01BC01CD010E94C4090F9051
:10146000CF91DF910895EF92FF920F931F93DF9337
:10147000CF9300D00F92CDB7DEB79C838B83EB81E7
:10148000FC811382128280917E0490917F049A8362
:10149000898352C0EB81FC8120853185428553854B
:1014A000E981FA8180859185A285B385281739075E
:1014B0004A075B07D8F4E981FA81208531854285A6
:1014C0005385EB81FC8180859185A285B385790167
:1014D0008A01E81AF90A0A0B1B0BD801C701E98136
:1014E000FA8180879187A287B3872BC0EB81FC812B
:1014F0002085318542855385E981FA8180859185F2
:10150000A285B38579018A01E81AF90A0A0B1B0B37
:10151000D801C701EB81FC8180879187A287B387BF
:10152000EB81FC8189819A8193838283E981FA81AD
:10153000808191819A83898389819A81009709F0BA
:10154000A9CFEB81FC8189819A8191838083EB8192
:10155000FC8180819181009749F0EB81FC810190B1
:10156000F081E02D8B819C8193838283EB81FC81D0
:1015700082819381009751F0EB81FC810280F3819D
:10158000E02D8B819C819183808306C08B819C811F
:1015900090937F0480937E040F900F900F900F9094
:1015A000CF91DF911F910F91FF90EF900895EF92EF
:1015B000FF920F931F93DF93CF93CDB7DEB72A9798
:1015C0000FB6F894DEBF0FBECDBF0E949B0DDC01AD
:1015D000CB018D839E83AF83B88720911F04309108
:1015E000200440912104509122048D819E81AF817D
:1015F000B885821B930BA40BB50B89839A83AB83AD
:10160000BC838D819E81AF81B88580931F049093A8
:101610002004A0932104B0932204A0C080917E04F2
:1016200090917F049A878987E985FA85208531859D
:101630004285538589819A81AB81BC81821793074A
:10164000A407B507E8F4E985FA8520853185428548
:10165000538589819A81AB81BC8179018A01E81A1D
:10166000F90A0A0B1B0BD801C701E985FA858087A7
:101670009187A287B38719821A821B821C8218C0A5
:10168000E985FA85208531854285538589819A814E
:10169000AB81BC81821B930BA40BB50B89839A830E
:1016A000AB83BC83E985FA85108611861286138682
:1016B000E985FA8580859185A285B3850097A10586
:1016C000B10509F04BC0E985FA85848595850097B9
:1016D00069F0E985FA8544855585E985FA85268589
:1016E000378589859A85B901FA011995E0917E04BB
:1016F000F0917F048081918190937F0480937E0498
:1017000080917E0490917F04009731F0E0917E04F7
:10171000F0917F0413821282E985FA858481958194
:10172000A681B781E985FA8580879187A287B387EB
:10173000E985FA8580859185A285B3850097A10505
:10174000B10541F480E794E029853A85B9010E940A
:10175000020304C089859A850E94330A80917E0421
:1017600090917F04009749F089819A81AB81BC8177
:101770000097A105B10509F051CF2A960FB6F8944C
:10178000DEBF0FBECDBFCF91DF911F910F91FF90B4
:10179000EF900895EF92FF920F931F93DF93CF93F3
:1017A000CDB7DEB72B970FB6F894DEBF0FBECDBF17
:1017B0006B837C838D839E8358874F833A872987E9
:1017C0000B8780E794E060E170E00E9402029A8358
:1017D000898389819A81009709F446C00E949B0DF4
:1017E0009B01AC018B819C81AD81BE81280F391F8B
:1017F0004A1F5B1F80911F0490912004A091210437
:10180000B091220479018A01E81AF90A0A0B1B0B2C
:10181000D801C701E981FA8180879187A287B387C0
:101820008B85882F90E081709070882339F0E98152
:10183000FA8114821582168217820AC0E981FA8120
:101840008B819C81AD81BE8184839583A683B78380
:10185000E981FA818F81988595878487E981FA816A
:1018600089859A859787868789819A812B960FB675
:10187000F894DEBF0FBECDBFCF91DF911F910F91C6
:10188000FF90EF9008950F93DF93CF93CDB7DEB71E
:101890002B970FB6F894DEBF0FBECDBF6B837C8352
:1018A0008D839E8358874F833A8729870B878B8147
:1018B0009C81AD81BE812F813885E985FA85BC0187
:1018C000CD01A9019F010B850E94CA0B9A838983D0
:1018D00089819A81009721F089819A810E94330A37
:1018E00089819A812B960FB6F894DEBF0FBECDBFCB
:1018F000CF91DF910F9108950F93DF93CF93CDB7E1
:10190000DEB729970FB6F894DEBF0FBECDBF69834F
:101910007A838B839C835E834D8338872F830987EB
:1019200089819A81AB81BC81BC01CD010E94731376
:10193000DC01CB012D813E81EF81F885BC01CD0119
:10194000A9019F0109850E94430C29960FB6F894BE
:10195000DEBF0FBECDBFCF91DF910F910895EF9203
:10196000FF920F93DF93CF9300D00F92CDB7DEB7E6
:1019700069837A838B839C8389819A81AB81BC81C3
:101980000097A105B10509F450C0809176049091AB
:10199000770424E734E0B9010E94F706E091760469
:1019A000F091770483E08787E0907604F0907704E5
:1019B000E0917604F091770489819A81AB81BC81B2
:1019C0002FED37E0BC01CD01A9019F0101E00E948C
:1019D0007C0CF701968B858BF7018589968900979A
:1019E00019F00E94660723C0E0917604F091770415
:1019F00084E794E0908F878BE0917604F0917704F0
:101A0000809174049091750493838283E0917604AD
:101A1000F091770481E08787809176049091770434
:101A2000909375048093740402C00E94FF070F9086
:101A30000F900F900F90CF91DF910F91FF90EF904B
:101A40000895DF93CF9300D00F92CDB7DEB79C837C
:101A50008B838B819C819A838983E981FA811482AB
:101A6000158216821782E981FA8115861486E9812A
:101A7000FA8180859185A285B3850097A105B1057E
:101A800009F452C0E981FA8182819381009761F063
:101A9000E981FA81A281B381E981FA818081918112
:101AA00011969C938E9308C0E981FA81808191817F
:101AB00090937F0480937E04E981FA8180819181F3
:101AC000009741F1E981FA81A081B181E981FA8130
:101AD0008281938113969C938E931297E981FA8168
:101AE00060817181E981FA810190F081E02D20858A
:101AF000318542855385E981FA8180859185A2856A
:101B0000B385820F931FA41FB51FFB0180879187A8
:101B1000A287B387E981FA8110861186128613861F
:101B200089819A810E94330A0F900F900F900F9035
:101B3000CF91DF910895DF93CF9300D00F92CDB76F
:101B4000DEB70FB6F8940F928091800490918104D3
:101B5000A0918204B091830489839A83AB83BC8370
:101B60000F900FBE89819A81AB81BC81BC01CD01F0
:101B70000F900F900F900F90CF91DF910895EF92FB
:101B8000FF920F931F93DF93CF93CDB7DEB70E94E1
:101B90009B0D7B018C010E9466139B01AC01C80167
:101BA000B7010E94E533DA01C901BC01CD01CF9133
:101BB000DF911F910F91FF90EF900895AF92BF9228
:101BC000CF92DF92EF92FF920F931F93DF93CF9309
:101BD000CDB7DEB728970FB6F894DEBF0FBECDBFE6
:101BE0000E949B0DDC01CB018D839E83AF83B88760
:101BF0000E9466139B01AC018D819E81AF81B885E7
:101C0000BC01CD010E94E533DA01C90189839A83C1
:101C1000AB83BC830E946613DC01CB0129813A812E
:101C20004B815C81BC01CD010E94C6339B01AC019C
:101C30008D819E81AF81B885821B930BA40BB50B60
:101C40008D839E83AF83B88789819A81AB81BC8164
:101C500028EE33E040E050E0BC01CD010E94C633E5
:101C60005B016C018D819E81AF81B88528EE33E0E8
:101C700040E050E0BC01CD010E94C6337B018C01E5
:101C80000E9466139B01AC01C801B7010E94E533B5
:101C9000DA01C9018A0D9B1DAC1DBD1DBC01CD0122
:101CA00028960FB6F894DEBF0FBECDBFCF91DF915F
:101CB0001F910F91FF90EF90DF90CF90BF90AF906A
:101CC0000895DF93CF9300D000D0CDB7DEB79A83CD
:101CD00089834B835C836D837E8383E294E060E041
:101CE00070E044E050E00E943A3480E090E02696B4
:101CF0000FB6F894DEBF0FBECDBFCF91DF91089530
:101D0000DF93CF93CDB7DEB780E090E0A1EEB0E0F7
:101D1000BC01CD01CF91DF910895DF93CF93CDB773
:101D2000DEB728970FB6F894DEBF0FBECDBF9E83F7
:101D30008D8378876F838F8198859A8389830FB687
:101D4000F8940F92E981FA81808191819C838B8341
:101D50000F900FBE8B819C812FEF8F3F920709F46C
:101D60005DC057C0EB81FC81258936898D819E81BC
:101D70002817390709F042C00FB6F8940F92EB818B
:101D8000FC8182819381E981FA8191838083EB8157
:101D9000FC81848195810097E9F0EB81FC8182814F
:101DA0009381009769F0EB81FC81A281B381EB8183
:101DB000FC818481958115969C938E93149706C01F
:101DC000E981FA818FEF9FEF91838083EB81FC8122
:101DD000158214820F900FBEEB81FC8182E0878711
:101DE00024E734E08B819C81B9010E946906EB8174
:101DF000FC818FEF9FEF968B858B10C08B819C8130
:101E000002969A838983EB81FC81828193819C83F2
:101E10008B838B819C81009709F0A4CF28960FB605
:101E2000F894DEBF0FBECDBFCF91DF910895EF9242
:101E3000FF920F93DF93CF93CDB7DEB72A970FB6FC
:101E4000F894DEBF0FBECDBF9C838B834D835E8332
:101E50006F8378870FB6F8940F92EB81FC818081B5
:101E600091819A8389830F900FBE89819A812FEF88
:101E70008F3F920771F40FB6F8940F92EB81FC81BB
:101E8000118210820F900FBE0E94FF071A861986DA
:101E900056C0809176049091770424E734E0B9012C
:101EA0000E94F70680917604909177042B813C8103
:101EB000B9010E946906E0917604F091770483E00D
:101EC00087878D819E81AF81B8850097A105B10577
:101ED000B9F0E0907604F09077048D819E81AF8117
:101EE000B8852DE83EE0EB81FC81BC01CD01A90164
:101EF0009F0101E00E947C0CF701968B858B06C048
:101F0000E0917604F0917704168A158A0E9466079C
:101F1000E0917604F091770485899689FFEF8F3FF1
:101F20009F0759F4E0917604F0917704168A158A98
:101F30008FEF9FEF9A87898702C01A861986898555
:101F40009A852A960FB6F894DEBF0FBECDBFCF910B
:101F5000DF910F91FF90EF900895DF93CF9300D022
:101F600000D0CDB7DEB79A8389834B835C836D83C2
:101F70007E830FB6F8940F92E981FA818081918176
:101F80002FEF8F3F920721F4E981FA8111821082AD
:101F90000F900FBE89819A812B813C814D815E819A
:101FA000BA01A9010E94170F26960FB6F894DEBF5A
:101FB0000FBECDBFCF91DF910895DF93CF9300D0B7
:101FC00000D0CDB7DEB79C838B830FB6F8940F9209
:101FD000EB81FC81808191819A8389830F900FBE70
:101FE00089819A812FEF8F3F920709F460C0898120
:101FF0009A81009709F450C00FB6F8940F92E981C6
:10200000FA8182819381EB81FC8191838083E981D4
:10201000FA81848195810097E9F0E981FA818281D2
:102020009381009769F0E981FA81A281B381E98106
:10203000FA818481958115969C938E93149706C09E
:10204000EB81FC818FEF9FEF91838083E981FA819F
:10205000158214820F900FBEE981FA8185899689D5
:10206000009751F0E981FA81858996890E94210DB6
:10207000E981FA81168A158AE981FA8182E08787E7
:1020800024E734E089819A81B9010E94690681E0E0
:1020900090E09E838D830DC00FB6F8940F92EB8174
:1020A000FC818FEF9FEF918380830F900FBE1E8284
:1020B0001D828D819E8126960FB6F894DEBF0FBEDD
:1020C000CDBFCF91DF910895DF93CF9300D00F92D2
:1020D000CDB7DEB79C838B838B819C810E94DD0F03
:1020E0009A8389830E94FF0789819A810F900F90BC
:1020F0000F900F90CF91DF910895DF93CF9300D091
:1021000000D0CDB7DEB79E838D831C821B820FB6B5
:10211000F8940F92ED81FE81808191819A83898369
:102120000F900FBE89819A812FEF8F3F920751F454
:102130000FB6F8940F92ED81FE81118210820F90FC
:102140000FBE24C089819A81009701F18D819E8103
:102150000E94DD0F9C018B819C81820F931F9C83C9
:102160008B830FB6F8940F92ED81FE81808191816F
:102170009A8389830F900FBE89819A81009731F0ED
:1021800089819A812FEF8F3F920701F78B819C8184
:1021900026960FB6F894DEBF0FBECDBFCF91DF916C
:1021A0000895DF93CF9300D00F92CDB7DEB79C8315
:1021B0008B838B819C810E947D109A8389830E94EE
:1021C000FF0789819A810F900F900F900F90CF9108
:1021D000DF910895DF93CF9300D00F92CDB7DEB794
:1021E0009C838B8380912704909128049A83898310
:1021F00010C089819A8102962B813C81B9010E948D
:102200004134009751F0E981FA81808191819A836C
:10221000898389819A81009761F789819A810F90DA
:102220000F900F900F90CF91DF910895DF93CF9390
:10223000CDB7DEB727970FB6F894DEBF0FBECDBF80
:102240009C838B837E836D834F838FEF9FEF9A8375
:1022500089838D819E81009731F0EB81FC818D8196
:102260009E81958784878F81882321F0EB81FC8173
:102270008F8186878B819C8102960E94EA1000974D
:1022800001F5EB81FC8183899489009751F0EB8102
:10229000FC810388F489E02D8B819C81199500973E
:1022A00081F48091270490912804EB81FC81918333
:1022B00080838B819C8190932804809327041A82C9
:1022C000198289819A8127960FB6F894DEBF0FBED6
:1022D000CDBFCF91DF910895DF93CF930F920F92EF
:1022E000CDB7DEB724E834E080E090E0B90143E107
:1022F00050E00E944D29009791F48091840483312D
:1023000071F485E894E028E233E0B90142E050E05E
:102310000E942434009719F41A8219820DC087E8AC
:1023200094E02BE233E0B90149E050E00E943134FF
:102330008FEF9FEF9A83898389819A810F900F9005
:10234000CF91DF910895DF93CF93CDB7DEB783E1CF
:102350008093840485E894E028E233E0B90142E008
:1023600050E00E94313424E834E080E090E0B9018C
:1023700043E150E00E946B29CF91DF9108959F9136
:102380008F910F900BBE0F900FBE1F901895E0918C
:102390007604F09177042F923F924F925F926F9262
:1023A0007F928F929F92AF92BF92CF92DF92EF92E5
:1023B000FF920F931F93CF93DF938DB79EB7918BAF
:1023C000808B80917404909175049093770480932E
:1023D0007604E0917604F091770481E08787E091BC
:1023E0007604F0917704808991898DBF9EBFDF913B
:1023F000CF911F910F91FF90EF90DF90CF90BF9002
:10240000AF909F908F907F906F905F904F903F9094
:102410002F900895DF93CF93CDB7DEB762970FB6B5
:10242000F894DEBF0FBECDBF9A8789877C876B8704
:102430005E874D87388B2F878F8598899C01275E13
:102440003F4F80E794E0B9010E94020298878F8392
:102450008F819885009719F41A8A198AD9C02F811B
:1024600038858F859889820F931F9A838983898104
:102470009A8108979C838B838B819C8145979E834F
:102480008D8389819A81069629853A85B90148E02C
:1024900050E00E943134E981FA8116868D819E8157
:1024A0000197E981FA81918B808BE981FA818F8193
:1024B0009885948B838BEF81F8858FEE9EEBADEA48
:1024C000BEED80839183A283B3838F819885FC01C5
:1024D00034968FEE9EEBADEABEED80839183A283AE
:1024E000B3838F819885FC0138968FEE9EEBADEA21
:1024F000BEED80839183A283B3838F819885FC0195
:102500003C968FEE9EEBADEABEED80839183A28375
:10251000B383E981FA8180E4828BEB81FC811582AF
:102520008B859C85892F9927EB81FC8186838B8500
:102530009C85EB81FC818783EB81FC8180E8838330
:10254000EB81FC811282EB81FC8114828D859E855A
:10255000EB81FC8181838D859E85892F9927EB8175
:10256000FC818083ED81FE81128A8FEB91E1892FBE
:102570009927ED81FE81838B8FEB91E1ED81FE81C7
:10258000848B8091720490917304E981FA81918324
:10259000808389819A819093730480937204E98186
:1025A000FA8182E08787E981FA81168A158AE981B2
:1025B000FA81108E178A24E734E089819A81B90163
:1025C0000E9469068091760490917704009721F427
:1025D0000FB6F8940F92F5CE2091760430917704DF
:1025E00080917404909175042817390769F0E0917F
:1025F0007604F091770482E087870FB6F8940F9203
:102600000E94C7110F900FBE89819A819A8B898B86
:1026100089899A8962960FB6F894DEBF0FBECDBF46
:10262000CF91DF910895DF93CF930F920F92CDB7A3
:10263000DEB79A83898380E090E0A1EEB0E08093DA
:10264000290490932A04A0932B04B0932C04A0E7B0
:10265000B0E0E0E7F0E080818D7F8C93E2EBF0E08A
:102660001082E0EBF0E082E08083E1EBF0E085E0D7
:102670008083E3EBF0E082E78083E5E3F0E082E053
:10268000808384E393E029813A81B90140E050E0FE
:102690000E946A1E0F900F90CF91DF910895DF93F3
:1026A000CF930F920F92CDB7DEB79A838983809133
:1026B000290490912A04A0912B04B0912C04BC0110
:1026C000CD010F900F90CF91DF910895DF93CF93BD
:1026D000CDB7DEB78AEE93E0A0E0B0E0BC01CD015B
:1026E000CF91DF910895DF93CF93CDB7DEB72897D1
:1026F0000FB6F894DEBF0FBECDBF69837A838B839C
:102700009C8389819A81AB81BC81803020E89207CB
:102710002EE3A20720E0B207D8F089819A81AB812D
:10272000BC8128EE33E040E050E0BC01CD010E94C6
:10273000E533DA01C9012AEE33E040E050E0BC01A4
:10274000CD010E94C6336D837E838F83988720C01E
:1027500089819A81AB81BC812AEE33E040E050E070
:10276000BC01CD010E94C633DC01CB0189519C4FD5
:10277000AF4FBF4F28EE33E040E050E0BC01CD0149
:102780000E94E533DA01C9018D839E83AF83B88748
:102790008D819E81AF81B885BC01CD0128960FB691
:1027A000F894DEBF0FBECDBFCF91DF910895DF93C8
:1027B000CF93CDB7DEB72B970FB6F894DEBF0FBE21
:1027C000CDBF9F838E83798768871D821C82888511
:1027D00099859B838A83E0E7F0E08081827089831A
:1027E000A0E7B0E0E0E7F0E080818D7F8C938E8100
:1027F0009F819B878A878A859B858031910529F1F6
:102800008A859B858131910554F48A859B85009743
:10281000B1F08A859B858130910591F043C08A850E
:102820009B8582319105A9F18A859B85823191052D
:102830006CF18A859B858032910569F133C01982DC
:10284000E7E3F0E082E0808331C0E7E3F0E08081FD
:10285000882F90E082709070009739F0EA81FB81B8
:1028600081E090E09183808304C0EA81FB81118242
:10287000108289818823D1F0EA81FB818081918156
:102880008068EA81FB819183808310C081E0898325
:102890000DC019820BC0EA81FB8188E090E0918332
:1028A000808304C08FEF9FEF9D838C838981882371
:1028B00039F0A0E7B0E0E0E7F0E0808182608C933F
:1028C0008C819D812B960FB6F894DEBF0FBECDBFD5
:1028D000CF91DF9108951F920F920FB60F92009043
:1028E0005B000F9211242F933F934F935F936F934D
:1028F0007F938F939F93AF93BF93EF93FF93DF9358
:10290000CF93CDB7DEB784E393E00E944D1ECF9105
:10291000DF91FF91EF91BF91AF919F918F917F9147
:102920006F915F914F913F912F910F9000925B00BB
:102930000F900FBE0F901F901895DF93CF93CDB7D8
:10294000DEB72A970FB6F894DEBF0FBECDBF9E83C9
:102950008D832D813E813A872987A985BA85129674
:102960000D90BC91A02DB887AF8380912E04882F45
:1029700090E080739070009709F180912E04882F69
:1029800090E080719070009751F0E6ECF0E083E108
:10299000808380912E04806480932E0409C0E6EC2D
:1029A000F0E081E1808380912E048F7B80932E0460
:1029B00080912E048F7C80932E04C2C080912E04BF
:1029C000882344F4A1ECB0E0E1ECF0E080818F7D5D
:1029D0008C93B6C0E985FA8582859385009709F4C2
:1029E0007AC0A985BA851A968D919C911B970197FB
:1029F000E985FA859387828780912F04882341F0A7
:102A0000A1ECB0E0E1ECF0E0808181608C9307C044
:102A1000A1ECB0E0E1ECF0E080818E7F8C93E6ECFD
:102A2000F0E0AF81B8858C918083EF81F885319695
:102A3000F887EF83A985BA8516968D919C91179793
:102A4000EF81F885E817F90741F4A985BA8514964E
:102A50000D90BC91A02DB887AF832F813885E98573
:102A6000FA8533832283A985BA851A962D913C91E4
:102A70001B97E985FA85848595852817390709F01C
:102A80005FC0A985BA8550968D919C91519700970A
:102A900039F48FEF9FEFE985FA85918B808B50C0D9
:102AA000A985BA8550968D919C915197BFEF8F3F24
:102AB0009B0709F445C0E985FA85808991899C8343
:102AC0008B83EB81FC81848195810196EB81FC8174
:102AD0009583848335C0A1ECB0E0E1ECF0E0808127
:102AE0008F7D8C93A985BA851B961C921E921A978E
:102AF000E985FA8580899189009749F48FEF9FEFE6
:102B0000A985BA8551969C938E93509719C0E985F3
:102B1000FA8580899189FFEF8F3F9F0789F0A9850A
:102B2000BA8550968D919C9151979A838983E981BA
:102B3000FA81848195810196E981FA819583848364
:102B40002A960FB6F894DEBF0FBECDBFCF91DF91AE
:102B50000895DF93CF93CDB7DEB72A970FB6F894D9
:102B6000DEBF0FBECDBF9C838B832B813C81398719
:102B70002887E0ECF0E0908180912D04892B8093F0
:102B80002D04E6ECF0E030813D8380912E04882313
:102B900001F18D81833169F4A1ECB0E0E1ECF0E06A
:102BA00080818F7D8C9380912E04806880932E0489
:102BB000BCC09D81913169F4A1ECB0E0E1ECF0E0A2
:102BC000808180628C9380912E048F7780932E0475
:102BD000ACC0A885B9851A960D90BC91A02DBF8375
:102BE000AE83E885F985808591852E813F81281700
:102BF000390730F080912D04886080932D0495C0B2
:102C00001A868E819F81009711F491E09A87AE8198
:102C1000BF811196BF83AE83BA85BB2351F1E8858E
:102C2000F98580899189009749F48FEF9FEFA885F6
:102C3000B98551969C938E9350974DC0E885F98540
:102C400080899189FFEF8F3F9F0709F444C0A885D1
:102C5000B98550968D919C9151979A838983E9818A
:102C6000FA81848195810196E981FA819583848333
:102C700032C080912E04882371F1E885F98586851C
:102C800097852E813F812817390728F180912E04DE
:102C9000882F90E0807490700097E9F4E0ECF0E009
:102CA0008081882F90E080729070009779F0E6EC38
:102CB000F0E083E1808380912E04806480932E0471
:102CC00080912E048F7D80932E0405C080912E0468
:102CD000806280932E04A885B985ED91FC91BD8119
:102CE000B083CF010196E885F98591838083A8851B
:102CF000B9852D913C911197E885F9858681978159
:102D00002817390751F4A885B98514968D919C919F
:102D10001597E885F98591838083EE81FF81A885E9
:102D2000B9851B96FC93EE931A972A960FB6F894E2
:102D3000DEBF0FBECDBFCF91DF910895DF93CF935C
:102D4000CDB7DEB70FB6F8940F92E1ECF0E088EB68
:102D500080830F900FBECF91DF910895DF93CF93C3
:102D6000CDB7DEB70FB6F8940F92A1ECB0E0E1EC6E
:102D7000F0E080818F778C93A1ECB0E0E1ECF0E0A3
:102D800080818F7B8C93A1ECB0E0E1ECF0E080815E
:102D90008F7D8C930F900FBE8AE00E94160AA1ECE3
:102DA000B0E0E1ECF0E080818F7E8C93A1ECB0E0AC
:102DB000E1ECF0E08081877F8C93CF91DF910895E3
:102DC000EF92FF920F931F93DF93CF9300D000D029
:102DD000CDB7DEB7E4ECF0E08081882F90E09A83F5
:102DE0008983E5ECF0E08081882F90E0382F22275E
:102DF00089819A81822B932B9A838983E2ECF0E07C
:102E00008081882F90E080749070009749F082E074
:102E100090E0A0E0B0E08B839C83AD83BE831AC0BA
:102E2000E0ECF0E08081882F90E082709070009755
:102E300049F088E090E0A0E0B0E08B839C83AD8314
:102E4000BE8308C080E190E0A0E0B0E08B839C836B
:102E5000AD83BE830E94800E7B018C0189819A81A3
:102E6000CC01A0E0B0E00196A11DB11D2B813C81F9
:102E70004D815E81BC01CD010E94C6339B01AC0136
:102E8000C801B7010E94E533DA01C901BC01CD01D7
:102E900026960FB6F894DEBF0FBECDBFCF91DF915F
:102EA0001F910F91FF90EF900895DF93CF9300D083
:102EB00000D0CDB7DEB76B837C838D839E830E9469
:102EC000AE16E2ECF0E08081882F90E08074907084
:102ED000009771F5E0ECF0E08081882F90E082703F
:102EE0009070009789F08B819C81AD81BE81880FA5
:102EF000991FAA1FBB1F880F991FAA1FBB1F8B8377
:102F00009C83AD83BE8314C08B819C81AD81BE81C7
:102F1000880F991FAA1FBB1F880F991FAA1FBB1FCD
:102F2000880F991FAA1FBB1F8B839C83AD83BE8311
:102F30000E94800EDC01CB012B813C814D815E81A2
:102F4000BC01CD010E94E533DA01C9010196A11D42
:102F5000B11DB695A7959795879501979A83898313
:102F6000E4ECF0E089818083E5ECF0E089819A81EE
:102F7000892F992780830E949E1680E090E02696F4
:102F80000FB6F894DEBF0FBECDBFCF91DF9108958D
:102F9000DF93CF930F92CDB7DEB7E1ECF0E0808105
:102FA000882F90E084709070009719F089E08983F1
:102FB00026C0E2ECF0E08081882F90E08470907071
:102FC000009779F0E2ECF0E08081882F90E0827049
:102FD0009070009719F088E0898311C087E0898399
:102FE0000EC0E2ECF0E08081882F90E0827090705B
:102FF000009719F086E0898302C085E08983898182
:103000000F90CF91DF910895DF93CF9300D00F926F
:103010000F92CDB7DEB789830E94AE16A1ECB0E067
:10302000E1ECF0E080818B7F8C93A2ECB0E0E2ECED
:10303000F0E080818D7F8C93A2ECB0E0E2ECF0E0D8
:1030400080818B7F8C938981282F30E03D832C8376
:103050008C819D818730910561F12C813D812830E3
:10306000310534F48C819D818630910561F028C052
:103070002C813D8128303105A9F08C819D818930DA
:10308000910549F01DC0A2ECB0E0E2ECF0E08081D7
:1030900082608C9315C0A1ECB0E0E1ECF0E080819F
:1030A00084608C93A2ECB0E0E2ECF0E0808182607E
:1030B0008C93A2ECB0E0E2ECF0E0808184608C9331
:1030C0000E949E160E94C817982F8981981729F090
:1030D0002FEF3FEF3B832A8302C01B821A828A8133
:1030E0009B810F900F900F900F900F90CF91DF91D9
:1030F0000895DF93CF930F92CDB7DEB7E2ECF0E007
:103100008081882F90E080729070009779F0E2ECD7
:10311000F0E08081882F90E080719070009719F026
:1031200081E0898304C082E0898301C0198289819A
:103130000F90CF91DF910895DF93CF9300D00F923E
:103140000F92CDB7DEB789830E94AE168981282FF2
:1031500030E03D832C838C819D8181309105C1F0CD
:103160002C813D812230310511F18C819D810097A8
:1031700061F5A2ECB0E0E2ECF0E080818F7E8C9310
:10318000A2ECB0E0E2ECF0E080818F7D8C931DC07A
:10319000A2ECB0E0E2ECF0E0808180618C93A2ECE4
:1031A000B0E0E2ECF0E0808180628C930EC0A2EC93
:1031B000B0E0E2ECF0E080818F7E8C93A2ECB0E096
:1031C000E2ECF0E0808180628C930E949E160E9467
:1031D0007918982F8981981729F02FEF3FEF3B83BB
:1031E0002A8302C01B821A828A819B810F900F90D2
:1031F0000F900F900F90CF91DF910895DF93CF93B1
:103200000F92CDB7DEB7E2ECF0E08081882F90E03E
:1032100088709070009719F082E0898302C081E085
:10322000898389810F90CF91DF910895DF93CF93A8
:1032300000D0CDB7DEB789830E94AE168981813078
:1032400041F4A2ECB0E0E2ECF0E08081877F8C9367
:103250000AC08981823039F4A2ECB0E0E2ECF0E0FF
:10326000808188608C930E949E160E94FE18982F81
:103270008981981729F08FEF9FEF9B838A8302C083
:103280001B821A828A819B810F900F900F90CF91A1
:10329000DF910895DF93CF9300D00F92CDB7DEB7C3
:1032A00019821A821B821C8280912D04882F90E043
:1032B00080719070009749F089819A81AB81BC81BF
:1032C000816089839A83AB83BC8380912D04882F8E
:1032D00090E088709070009749F089819A81AB8165
:1032E000BC81826089839A83AB83BC8380912D04E7
:1032F000882F90E084709070009749F089819A81BE
:10330000AB81BC81846089839A83AB83BC838091C9
:103310002E048823F1F080912E04882F90E0807491
:103320009070009749F089819A81AB81BC81A2603D
:1033300089839A83AB83BC8380912E0488234CF4C9
:1033400089819A81AB81BC81A86089839A83AB8390
:10335000BC8389819A81AB81BC8180709070A2709E
:10336000B0700097A105B10549F489819A81AB81BC
:10337000BC81A16089839A83AB83BC8389819A8154
:10338000AB81BC8180709070A870B0700097A1056F
:10339000B10549F489819A81AB81BC81A46089839C
:1033A0009A83AB83BC8380912F04882351F0898159
:1033B0009A81AB81BC81A06489839A83AB83BC83EF
:1033C00009C089819A81AB81BC81A06889839A8375
:1033D000AB83BC83E0ECF0E08081882F90E08170CB
:1033E0009070882351F089819A81AB81BC81A06162
:1033F00089839A83AB83BC8309C089819A81AB811D
:10340000BC81A06289839A83AB83BC8389819A81C2
:10341000AB81BC81BC01CD010F900F900F900F903C
:10342000CF91DF910895DF93CF9300D000D0CDB737
:10343000DEB769837A838B839C8380912E048823F3
:1034400009F44BC00FB6F8940F9289819A81AB8131
:10345000BC8180709070A170B0700097A105B1051B
:1034600031F080912E048F7B80932E0411C08981CE
:103470009A81AB81BC8180709070A270B07000970F
:10348000A105B10529F080912E04806480932E045B
:1034900089819A81AB81BC8180709070A470B0707A
:1034A0000097A105B10531F080912E048F778093AC
:1034B0002E0411C089819A81AB81BC81807090708B
:1034C000A870B0700097A105B10529F080912E0475
:1034D000806880932E040F900FBE89819A81AB8102
:1034E000BC8180709070A074B0700097A105B10588
:1034F00019F081E080932F0489819A81AB81BC818E
:1035000080709070A078B0700097A105B10511F09F
:1035100010922F0489819A81AB81BC818070907058
:10352000A071B0700097A105B10539F0A0ECB0E032
:10353000E0ECF0E0808181608C9389819A81AB819D
:10354000BC8180709070A072B0700097A105B10529
:1035500039F0A0ECB0E0E0ECF0E080818E7F8C935D
:1035600089819A8181709070882329F080912D043F
:103570008F7E80932D0489819A81AB81BC8182707A
:103580009070A070B0700097A105B10529F08091EE
:103590002D04877F80932D0489819A81AB81BC8122
:1035A00084709070A070B0700097A105B10529F0EB
:1035B00080912D048B7F80932D040E944A19DC0199
:1035C000CB019C01AD01287F89819A81AB81BC81AF
:1035D000281739074A075B0729F08FEF9FEF9E8373
:1035E0008D8302C01E821D828D819E8126960FB61C
:1035F000F894DEBF0FBECDBFCF91DF910895DF936A
:10360000CF930F92CDB7DEB71982E2ECF0E0808164
:10361000882F90E0807490700097E1F0898181603C
:103620008983EDE2F0E08081882F90E084709070D3
:10363000009719F0898182608983E2ECF0E0808153
:10364000882F90E081709070882381F08981846058
:1036500089830CC0E0ECF0E08081882F90E08270DC
:103660009070009719F089818062898389810F9019
:10367000CF91DF910895DF93CF9300D0CDB7DEB720
:1036800089830E94AE168981882F90E081709070A6
:103690008823D9F18981882F90E0827090700097FB
:1036A00041F0ADE2B0E0EDE2F0E0808184608C9327
:1036B00007C0ADE2B0E0EDE2F0E080818B7F8C935B
:1036C0008981882F90E084709070009741F0A2EC7F
:1036D000B0E0E2ECF0E0808181608C9307C0A2EC66
:1036E000B0E0E2ECF0E080818E7F8C93A0ECB0E063
:1036F000E0ECF0E080818D7F8C93A2ECB0E0E2EC16
:10370000F0E0808180648C9324C08981882F90E0D0
:1037100080729070009741F0A0ECB0E0E0ECF0E037
:10372000808182608C9307C0A0ECB0E0E0ECF0E018
:1037300080818D7F8C93A2ECB0E0E2ECF0E08081A0
:103740008E7F8C93A2ECB0E0E2ECF0E080818F7B86
:103750008C930E949E160E94FF1A982F89819817B9
:1037600029F08FEF9FEF9B838A8302C01B821A820E
:103770008A819B810F900F900F90CF91DF910895D8
:10378000DF93CF9300D00F92CDB7DEB719821A82A4
:103790001B821C8280912E04882351F089819A819A
:1037A000AB81BC81806289839A83AB83BC8309C06F
:1037B00089819A81AB81BC818F7D89839A83AB8318
:1037C000BC8389819A81AB81BC81BC01CD010F9002
:1037D0000F900F900F90CF91DF910895DF93CF93CB
:1037E00000D000D0CDB7DEB769837A838B839C830A
:1037F00089819A81AB81BC8180729070A070B07019
:103800000097A105B10569F080912E04882381F409
:103810000FB6F8940F9281E480932E040F900FBEA0
:1038200007C00FB6F8940F9210922E040F900FBE9F
:103830000E94C01B9B01AC0189819A81AB81BC8134
:10384000281739074A075B0729F08FEF9FEF9E8300
:103850008D8302C01E821D828D819E8126960FB6A9
:10386000F894DEBF0FBECDBFCF91DF910895DF93F7
:10387000CF93CDB7DEB7A1ECB0E0E1ECF0E0808112
:1038800080628C93CF91DF910895DF93CF93CDB772
:10389000DEB780912E04882351F180912E04882F69
:1038A00090E080749070009711F10FB6F8940F9229
:1038B000E0ECF0E08081882F90E0807290700097BB
:1038C00051F0E6ECF0E081E1808380912E048F7E60
:1038D00080932E0405C080912E04806180932E0475
:1038E00080912E048F7980932E040F900FBECF917C
:1038F000DF910895DF93CF930F920F92CDB7DEB78C
:1039000086EB93E029EA35E14CE553E0B9010E94EA
:103910006A1E009729F08FEF9FEF9A8389831AC060
:103920008CEB93E02DE934E14AE453E0B9010E94C5
:103930006A1E009769F086EB93E060E070E040E07B
:1039400050E00E946A1E8FEF9FEF9A83898302C026
:103950001A82198289819A810F900F90CF91DF91FD
:103960000895DF93CF93CDB7DEB786EB93E060E0A9
:1039700070E040E050E00E946A1E8CEB93E060E053
:1039800070E040E050E00E946A1E80E090E0CF913D
:10399000DF910895DF93CF93CDB7DEB72C970FB6A5
:1039A000F894DEBF0FBECDBF98878F837A87698773
:1039B0001E821D8289859A859C838B83E1ECF0E0D1
:1039C000808180788A83A1ECB0E0E1ECF0E0808136
:1039D0008F778C938F8198859C878B878B859C852F
:1039E0008031910549F18B859C858131910554F495
:1039F0008B859C850097B1F08B859C8581309105E6
:103A000091F043C08B859C8582319105A9F18B850E
:103A10009C85823191056CF18B859C858032910566
:103A200069F133C01A82E6ECF0E080818983E6EC2C
:103A3000F0E0808189832DC0E0ECF0E08081882374
:103A40003CF4EB81FC8181E090E09183808304C0B1
:103A5000EB81FC81118210828A818823D1F0EB8175
:103A6000FC81808191818068EB81FC8191838083DE
:103A700010C081E08A830DC01A820BC0EB81FC81EB
:103A800080E190E09183808304C08FEF9FEF9E835D
:103A90008D838A81882339F0A1ECB0E0E1ECF0E07D
:103AA000808180688C938D819E812C960FB6F894CE
:103AB000DEBF0FBECDBFCF91DF9108951F920F9251
:103AC0000FB60F9200905B000F9211242F933F933B
:103AD0004F935F936F937F938F939F93AF93BF9316
:103AE000EF93FF93DF93CF93CDB7DEB786EB93E0F1
:103AF0000E944D1ECF91DF91FF91EF91BF91AF9149
:103B00009F918F917F916F915F914F913F912F91F5
:103B10000F9000925B000F900FBE0F901F901895B2
:103B2000DF93CF93CDB7DEB72B970FB6F894DEBFF8
:103B30000FBECDBF9F838E83798768871D821C82CD
:103B4000888599859B838A83E1ECF0E0808180728F
:103B50008983A1ECB0E0E1ECF0E080818F7D8C9373
:103B60008E819F819B878A878A859B85813191057C
:103B7000E9F18A859B858231910554F48A859B857C
:103B8000009789F08A859B858031910571F03AC054
:103B90008A859B858231910561F18A859B8580327A
:103BA000910549F12FC0198231C0E0ECF0E080812D
:103BB000882F90E080729070009739F0EA81FB8145
:103BC00081E090E09183808304C0EA81FB811182CF
:103BD000108289818823D1F0EA81FB8180819181E3
:103BE0008068EA81FB819183808310C081E08983B2
:103BF0000DC019820BC0EA81FB8180E190E09183C6
:103C0000808304C08FEF9FEF9D838C8389818823FD
:103C100039F0A1ECB0E0E1ECF0E0808180628C93BF
:103C20008C819D812B960FB6F894DEBF0FBECDBF61
:103C3000CF91DF9108951F920F920FB60F920090CF
:103C40005B000F9211242F933F934F935F936F93D9
:103C50007F938F939F93AF93BF93EF93FF93DF93E4
:103C6000CF93CDB7DEB78CEB93E00E944D1ECF9182
:103C7000DF91FF91EF91BF91AF919F918F917F91D4
:103C80006F915F914F913F912F910F9000925B0048
:103C90000F900FBE0F901F901895DF93CF930F9248
:103CA0000F92CDB7DEB79A838983E981FA81828149
:103CB0009381009751F0E981FA8122813381E98172
:103CC000FA8180819181F90119950F900F90CF9120
:103CD000DF910895DF93CF93CDB7DEB728970FB666
:103CE000F894DEBF0FBECDBF9C838B837E836D8334
:103CF00058874F831A821982EB81FC8184819581D8
:103D0000009761F0EB81FC810480F581E02D80E07B
:103D100090E060E070E019959A838983EB81FC81E3
:103D20008F81988591838083EB81FC818D819E8139
:103D30009383828389819A8128960FB6F894DEBF97
:103D40000FBECDBFCF91DF910895DF93CF9300D009
:103D50000F92CDB7DEB79C838B838FEF9FEF9A8353
:103D60008983EB81FC8184819581009761F0EB81EF
:103D7000FC810480F581E02D81E190E060E070E05D
:103D800019959A83898389819A810F900F900F905A
:103D90000F90CF91DF910895DF93CF9300D00F92D2
:103DA000CDB7DEB79C838B838FEF9FEF9A83898398
:103DB000EB81FC8184819581009761F0EB81FC812E
:103DC0000480F581E02D82E190E060E070E01995DB
:103DD0009A83898389819A810F900F900F900F9019
:103DE000CF91DF910895DF93CF93CDB7DEB72897BA
:103DF0000FB6F894DEBF0FBECDBF9E838D8378874C
:103E00006F838FEF9FEF9A838983ED81FE81848199
:103E10009581009741F1ED81FE810480F581E02DCF
:103E20009E012D5F3F4F80E290E0B90119959A8382
:103E3000898389819A810097B1F4ED81FE810480A4
:103E4000F581E02D9E01295F3F4F81E290E0B901AD
:103E500019959A83898389819A81009721F48B81AE
:103E60009C819A83898389819A8128960FB6F894D8
:103E7000DEBF0FBECDBFCF91DF910895DF93CF930B
:103E8000CDB7DEB728970FB6F894DEBF0FBECDBF13
:103E90009E838D8378876F838FEF9FEF9A838983CB
:103EA000ED81FE8184819581009761F1ED81FE8134
:103EB0000480F581E02D9E012D5F3F4F88E190E069
:103EC000B90119959A83898389819A810097D1F4E0
:103ED0008F819885009791F0ED81FE810480F581B6
:103EE000E02D9E01295F3F4F89E190E0B9011995CE
:103EF0009A83898389819A81009721F48B819C819F
:103F00009A83898389819A8128960FB6F894DEBFB7
:103F10000FBECDBFCF91DF910895DF93CF9300D037
:103F200000D0CDB7DEB79E838D83ED81FE81818980
:103F300092899A838983E981FA8105A8F6A9E02DFF
:103F400019959C838B838B819C81009769F489816F
:103F50009A81FC01EF5BFF4F0190F081E02D60E062
:103F600072EC81E090E019958B819C8126960FB6CA
:103F7000F894DEBF0FBECDBFCF91DF910895DF93E0
:103F8000CF93CDB7DEB72E970FB6F894DEBF0FBE36
:103F9000CDBF9E838D8378876F835A8749873C87FF
:103FA0002B87ED81FE81848195819C838B83ED81BC
:103FB000FE81808591859A8389830FB6F8940F924C
:103FC000ED81FE81118610860F900FBE29813A8106
:103FD0008F81988528173907F9F089819A81009790
:103FE00041F08B819C81009721F08B819C810E9404
:103FF000A62C8F819885009779F08F8198850E94F3
:10400000822C9C838B838B819C81009729F48FEF7A
:104010009FEF9E878D873EC08F819885009709F41A
:1040200037C0ED81FE818B819C8195838483ED81F6
:10403000FE818B819C8191838083ED81FE818B81C8
:104040009C81938382832B813C818F819885820F11
:10405000931FED81FE8197838683ED81FE818985A3
:104060009A8595878487ED81FE818B859C859787CE
:104070008687ED81FE81138612860FB6F8940F9223
:10408000ED81FE818F819885918780870F900FBE8B
:104090001E861D868D859E852E960FB6F894DEBFF2
:1040A0000FBECDBFCF91DF910895DF93CF93CDB7F2
:1040B000DEB767970FB6F894DEBF0FBECDBF998B02
:1040C000888B7B8B6A8B5D8B4C8B1B861A868A89CF
:1040D0009B8998878F83E889F989828193819E8360
:1040E0008D83ED81FE81818992899C838B838B8175
:1040F0009C8182969A838983E981FA818085918562
:10410000009729F44FEF5FEF5F8B4E8B3CC18A899C
:104110009B890097C9F4E981FA8160857185E981FD
:10412000FA8144855585E981FA812685378589811B
:104130009A810E94BF1FEB81FC8103ACF4ADE02D9E
:1041400019951F8A1E8A1FC10FB6F8940F92E98134
:10415000FA81828593859D878C870F900FBE8C8511
:104160009D85009719F5EB81FC8103ACF4ADE02D42
:10417000199589819A814096EB81FC812085318552
:1041800042855385BA01A9010E94170F009719F0C3
:104190001F8A1E8AF8C0E981FA818085918500977F
:1041A00099F68FEF9FEF9F8B8E8BEDC0EB81FC819B
:1041B00080819181A281B38180789070A070B0706D
:1041C0000097A105B10509F46EC01F861E8662C066
:1041D0002A853B858C859D852817390708F0A7C05F
:1041E000E981FA810280F381E02D80818987CF0106
:1041F0000196E981FA8193838283E981FA812281A0
:104200003381E981FA81868197812817390741F442
:10421000E981FA8184819581E981FA81938382839E
:104220008A859B8501969B878A8789858D3019F0C1
:1042300089858A30F1F4EB81FC8184A9882331F0EF
:10424000EB81FC8194A98985981721F5EB81FC818C
:10425000898584ABEF81F8858AE080838F8198859A
:10426000019698878F838E859F8501969F878E877D
:1042700011C0EB81FC8114AAEF81F88589858083C8
:104280008F819885019698878F838E859F8501966B
:104290009F878E872C893D898E859F8582179307FE
:1042A00008F496CF44C08C899D899F878E872E8580
:1042B0003F858C859D858217930720F48C859D858D
:1042C0009F878E871B861A862BC0E981FA81A2817F
:1042D000B3818C91EF81F88580838F8198850196D9
:1042E00098878F83CD010196E981FA819383828338
:1042F000E981FA8122813381E981FA81868197817E
:104300002817390741F4E981FA8184819581E9818F
:10431000FA81938382838A859B8501969B878A870E
:104320002A853B858E859F852817390770F28A85F7
:104330009B85009721F10FB6F8940F92E981FA81DD
:10434000228533858A859B85A901481B590BCA01A3
:10435000E981FA81938782870F900FBEE981FA8104
:1043600022853385E981FA81848595852817390767
:1043700030F4EB81FC8103ACF4ADE02D19958E8512
:104380009F859F8B8E8B8E899F8967960FB6F89439
:10439000DEBF0FBECDBFCF91DF910895DF93CF93E6
:1043A000CDB7DEB72A970FB6F894DEBF0FBECDBFEC
:1043B0009E838D8378876F835A8749878D819E81FD
:1043C00040969A8389830FB6F8940F92E981FA8117
:1043D000228533858F819885820F931FE981FA8129
:1043E00093878287E981FA81828593859C838B8379
:1043F0000F900FBE20C0ED81FE8101ACF2ADE02D2B
:10440000199589819A814096ED81FE8124853585B3
:1044100046855785BA01A9010E94170F009791F4AC
:104420000FB6F8940F92E981FA81828593859C8377
:104430008B830F900FBE2B813C8189859A858217D3
:104440009307C8F28B819C812A960FB6F894DEBF41
:104450000FBECDBFCF91DF910895DF93CF93CDB73E
:10446000DEB76D970FB6F894DEBF0FBECDBF9C8B45
:104470008B8B7E8B6D8B588F4F8B3A8F298FEB896F
:10448000FC89818992899F838E838E819F8140964A
:104490009D838C83EC81FD8180859185009729F433
:1044A0008FEF9FEF9D8F8C8FEDC08D899E89009738
:1044B00059F48E819F8160E070E040E050E00E94FE
:1044C000CE219D8F8C8FDEC0EE81FF818081918116
:1044D000A281B38180709270A070B0700097A10526
:1044E000B10519F081E08E8701C01E86EE81FF8143
:1044F00080819181A281B38180789070A070B0702A
:104500000097A105B10519F081E08D8701C01D86D6
:104510000FB6F8940F92EC81FD81828593859B877D
:104520008A870F900FBE8D899E89988B8F871986F9
:1045300018861A8A198A7FC02A853B8588859985BD
:10454000280F391FEC81FD8186859785281739074B
:10455000C8F0EC81FD81448555858E819F81288539
:104560003985B9010E94CE219B878A8719861886D2
:10457000EC81FD81248535858A859B85281739073F
:1045800008F461C0898D9A8D009759F08F859889BC
:104590009B838A83EA81FB818491898389818B8FC4
:1045A00004C0EF85F88990819B8F8B8D8C878D85DA
:1045B000813069F48C858A3051F482E08D878DE0FA
:1045C0008C878E85813091F482E08E870FC08D8537
:1045D000823011F481E08D878F8598890196988BC0
:1045E0008F8789899A8901969A8B898BEC81FD81C5
:1045F0000190F081E02D8C858083CF010196EC81C4
:10460000FD8191838083EC81FD8120813181EC816A
:10461000FD81868197812817390741F4EC81FD815E
:1046200084819581EC81FD81918380838885998542
:1046300001969987888729893A898F89988D2817C3
:1046400039070CF479CF888599850097B9F00FB6B2
:10465000F8940F92EC81FD812285338588859985B8
:10466000820F931FEC81FD81938782870F900FBE8D
:10467000EE81FF8101ACF2ADE02D199589899A890F
:104680009D8F8C8F8C8D9D8D6D960FB6F894DEBFAF
:104690000FBECDBFCF91DF910895DF93CF9300D0B0
:1046A00000D0CDB7DEB79A8389837C836B835E832A
:1046B0004D83E981FA81828193812B813C814D81F7
:1046C0005E81B90120E030E00E942D2226960FB6CF
:1046D000F894DEBF0FBECDBFCF91DF910895DF9379
:1046E000CF9300D000D0CDB7DEB79A8389837C8387
:1046F0006B835E834D83E981FA81828193812B8173
:104700003C814D815E81B90121E030E00E942D2283
:1047100026960FB6F894DEBF0FBECDBFCF91DF91C6
:104720000895DF93CF93CDB7DEB728970FB6F894EF
:10473000DEBF0FBECDBF9E838D83ED81FE81828162
:1047400093819C838B83EB81FC81818992899A83FD
:1047500089838D819E81009731F08D819E812FEF1D
:104760008F3F920729F48FEF9FEF98878F832EC09A
:1047700089819A81FC01EF5AFF4F0190F081E02D71
:1047800060E072E080E090E019958D819E810E944A
:10479000A62C89819A81409660E070E040E050E06C
:1047A00020E030E00E94BF1F89819A81829660E0FC
:1047B00070E040E050E020E030E00E94BF1F8981BF
:1047C0009A81C2960E94D11018861F828F81988587
:1047D00028960FB6F894DEBF0FBECDBFCF91DF9104
:1047E0000895DF93CF93CDB7DEB72E970FB6F89429
:1047F000DEBF0FBECDBF9E838D8378876F835A87C0
:1048000049873C872B87ED81FE81818992899C8332
:104810008B8389859A8583709070009791F08B8146
:104820009C81409660E470E048E250E028E330E08C
:104830000E94BF1F009729F08FEF9FEF9E878D8703
:104840007CC089859A858370907081309105C1F014
:104850008B819C81829660E071E040ED50E020EF1A
:1048600030E00E94BF1F009759F0EB81FC818489E2
:1048700095890E94A62C8FEF9FEF9E878D875DC044
:1048800086E090E00E94822C9A83898389819A81B4
:10489000009789F4EB81FC81848995890E94A62C7C
:1048A000EB81FC8186A197A10E94A62C8FEF9FEF40
:1048B0009E878D8742C089859A858070907C20E88C
:1048C0008030920771F4EB81FC8180819181A2811B
:1048D000B3818F77EB81FC8180839183A283B38343
:1048E0000DC0EB81FC8180819181A281B3818068C0
:1048F000EB81FC8180839183A283B383E981FA8178
:1049000011821082E981FA818D819E819383828355
:10491000E981FA811582148289859A858370907065
:104920008130910531F0EB81FC8103ACF4ADE02DD9
:10493000199589819A819E878D878D859E852E9672
:104940000FB6F894DEBF0FBECDBFCF91DF910895B3
:10495000DF93CF93CDB7DEB765970FB6F894DEBF80
:104960000FBECDBF9F878E87798B688B5B8B4A8B01
:104970001D861C868A899B899F838E83EE81FF8199
:1049800080819181A281B3818A839B83AC83BD8323
:104990008A818983EE85FF85818992899B878A87B1
:1049A000888999899D8B8C8B8C899D8921E08231A6
:1049B000920709F4BCC28C899D8921E0833192075A
:1049C0000CF087C08C899D8921E08930920709F419
:1049D0009CC18C899D8921E08A3092070CF040C0EF
:1049E0008C899D8921E08430920709F438C18C8933
:1049F0009D8921E085309207B4F48C899D8921E05E
:104A00008230920709F40CC18C899D8921E08330A2
:104A100092070CF017C18C899D8921E081309207A3
:104A200009F4ECC0EFC38C899D8921E086309207A0
:104A300009F436C18C899D8921E0863092070CF4F7
:104A400022C18C899D8921E08730920709F43CC1FD
:104A50008C899D8921E08830920709F442C1D2C334
:104A60008C899D8921E08D30920709F4FAC18C89E7
:104A70009D8921E08E3092077CF48C899D8921E00C
:104A80008B30920709F4D5C18C899D8921E08C3047
:104A900092070CF0D9C194C18C899D8921E08F3097
:104AA000920709F4F6C18C899D8921E08F30920725
:104AB0000CF4E2C18C899D8921E08031920709F4D0
:104AC00007C28C899D8921E08131920709F420C2B7
:104AD00099C38C899D8921E08032920709F42AC309
:104AE0008C899D8921E0813292070CF040C08C892D
:104AF0009D8921E08A31920709F4B5C28C899D898C
:104B000021E08B319207B4F48C899D8921E08431B6
:104B1000920709F43CC28C899D8921E08431920777
:104B20000CF416C28C899D8921E08931920709F421
:104B30008DC268C38C899D8921E08C31920709F46C
:104B4000C7C28C899D8921E08C3192070CF49FC2E9
:104B50008C899D8921E08D31920709F4C7C28C8927
:104B60009D8921E08E31920709F4D6C24BC38C890E
:104B70009D8921E08532920709F41CC38C899D89A7
:104B800021E086329207ECF48C899D8921E0823203
:104B9000920709F4E9C28C899D8921E0823292074B
:104BA0000CF4D4C28C899D8921E08332920709F4E8
:104BB000E7C28C899D8921E08432920709F4EEC214
:104BC00021C38C899D8921E08732920709F40CC3A7
:104BD0008C899D8921E0873292070CF4F9C28C8977
:104BE0009D8921E08C32920709F4F1C18C899D895D
:104BF00021E08D32920709F409C204C38A859B859E
:104C0000FC01EF5BFF4F0190F081E02D8A819B81D9
:104C1000AC81BD81BC01CD0119959D878C87F6C201
:104C20008A859B85FC01ED5BFF4F0190F081E02DB3
:104C30001995DC01CB01EE81FF8180839183A283F2
:104C4000B383E4C28A859B85FC01EB5BFF4F019037
:104C5000F081E02D898119959D878C87D7C28A853F
:104C60009B85FC01E95BFF4F0190F081E02D1995D8
:104C7000882F90E0A0E0B0E0EE81FF8180839183F7
:104C8000A283B383C3C28A859B85FC01E75BFF4F88
:104C90000190F081E02D898119959D878C87B6C29E
:104CA0008A859B85FC01E55BFF4F0190F081E02D3B
:104CB0001995882F90E0A0E0B0E0EE81FF8180831D
:104CC0009183A283B383A2C28A859B85FC01E35BA7
:104CD000FF4F0190F081E02D898119959D878C8788
:104CE00095C28A859B85FC01E15BFF4F0190F081B5
:104CF000E02D1995882F90E0A0E0B0E0EE81FF81D3
:104D000080839183A283B38381C28A819B81AC819A
:104D1000BD8180749070A070B0700097A105B1053E
:104D2000D9F08A859B85829699878887E885F98559
:104D300060857185E885F98544855585E885F9851F
:104D400026853785888599850E94BF1FEA85FB8562
:104D500003ACF4ADE02D19958A819B81AC81BD81B6
:104D600080789070A070B0700097A105B105A9F08F
:104D70008A859B85409699878887E885F98560852F
:104D80007185E885F98544855585E885F985268509
:104D90003785888599850E94BF1F8A859B85FC0180
:104DA000EF5AFF4F0190F081E02D8A819B81AC8109
:104DB000BD818F73BC01CD0119959D878C8726C25B
:104DC0008A859B85FC01ED5AFF4F0190F081E02D13
:104DD0001995DC01CB01EE81FF8180839183A28351
:104DE000B383EA85FB8584A595A5009769F4EE81D8
:104DF000FF8180819181A281B3818064EE81FF81F6
:104E000080839183A283B383EA85FB85828D938D12
:104E1000009709F0FBC1EE81FF8180819181A28121
:104E2000B3818068EE81FF8180839183A283B38305
:104E3000EDC1EA85FB858A819B81AC81BD8180873C
:104E40009187A287B387E2C1EA85FB85808591853A
:104E5000A285B385EE81FF8180839183A283B38392
:104E6000D5C1EA85FB858A819B81AC81BD81848720
:104E70009587A687B787CAC1EA85FB85848595850E
:104E8000A685B785EE81FF8180839183A283B3835A
:104E9000BDC18981882371F0EA85FB85808191817C
:104EA000A281B3818064EA85FB8580839183A2839C
:104EB000B383ACC1EA85FB8580819181A281B381F6
:104EC0008F7BEA85FB8580839183A283B3839EC118
:104ED000EA85FB8580819181A281B3818074907085
:104EE000A070B0700097A105B10559F0EE81FF8167
:104EF00081E090E0A0E0B0E080839183A283B3835F
:104F000085C1EE81FF8110821182128213827EC1DF
:104F1000EA85FB8505ACF6ADE02D8A819B81AC81ED
:104F2000BD81BC01CD0119959D878C876FC18A8594
:104F30009B85FC01FF960190F081E02D1995DC0125
:104F4000CB01EE81FF8180839183A283B3835EC115
:104F50008981882371F0EA85FB8580819181A28116
:104F6000B3818068EA85FB8580839183A283B383C4
:104F70004DC1EA85FB8580819181A281B3818F77C4
:104F8000EA85FB8580839183A283B3833FC1EA8551
:104F9000FB8580819181A281B38180789070A0701F
:104FA000B0700097A105B10559F0EE81FF8181E055
:104FB00090E0A0E0B0E080839183A283B38326C118
:104FC000EE81FF8110821182128213821FC18981BA
:104FD000882371F0EA85FB8580819181A281B3816C
:104FE0009460EA85FB8580839183A283B3830EC19D
:104FF000EA85FB8580819181A281B3819B7FEA85CF
:10500000FB8580839183A283B38300C1EA85FB85FE
:1050100080819181A281B38180709470A070B07002
:105020000097A105B10559F0EE81FF8181E090E084
:10503000A0E0B0E080839183A283B383E7C0EE81D8
:10504000FF811082118212821382E0C08A859B85C3
:10505000FC01EB5AFF4F0190F081E02D8A811995F8
:105060009D878C87D3C08A859B85FC01E95AFF4FB9
:105070000190F081E02D1995882F90E0A0E0B0E03C
:10508000EE81FF8180839183A283B383BFC08A8531
:105090009B854096998788876A817B81E885F98519
:1050A00044855585E885F9852685378588859985E0
:1050B0000E94BF1F9D878C878C859D85009709F076
:1050C000A5C0EA85FB8503ACF4ADE02D19959EC023
:1050D000EA85FB85808D918DCC01A0E0B0E0EE816A
:1050E000FF8180839183A283B38390C08A859B854F
:1050F0008296998788876A817B81E885F9854485CE
:105100005585E885F98526853785888599850E94A6
:10511000BF1F9D878C877AC0EA85FB8582A593A5F2
:10512000CC01A0E0B0E0EE81FF8180839183A28377
:10513000B3836CC00FB6F8940F928A819B81EA8585
:10514000FB85958F848F0F900FBE60C0EA85FB852D
:10515000848D958DCC01A0E0B0E0EE81FF8180834D
:105160009183A283B38352C00FB6F8940F928A81C1
:105170009B81EA85FB85978F868F0F900FBE46C077
:10518000EA85FB85868D978DCC01A0E0B0E0EE81AD
:10519000FF8180839183A283B38338C00FB6F894D4
:1051A0000F928A819B81EA85FB8597A786A70F903E
:1051B0000FBE2CC0EA85FB8586A597A5CC01A0E093
:1051C000B0E0EE81FF8180839183A283B3831EC010
:1051D0000FB6F8940F928A819B81EA85FB8591AB8B
:1051E00080AB0F900FBE12C0EA85FB8580A991A904
:1051F000CC01A0E0B0E0EE81FF8180839183A283A7
:10520000B38304C08FEF9FEF9D878C878C859D852E
:1052100065960FB6F894DEBF0FBECDBFCF91DF917C
:105220000895DF93CF93CDB7DEB72C970FB6F894E0
:10523000DEBF0FBECDBF9C878B87EB85FC8582814F
:1052400093819E838D83ED81FE81818992899C83E8
:105250008B838B819C8182969A8389830FB6F89485
:105260000F92E981FA8182859385CC01A0E0B0E0BC
:105270008F839887A987BA870F900FBE8F819885F3
:10528000A985BA85BC01CD012C960FB6F894DEBF76
:105290000FBECDBFCF91DF910895DF93CF9300D0A4
:1052A00000D0CDB7DEB79A8389837C836B835E831E
:1052B0004D8389819A812B813C814D815E81B90129
:1052C0000E94892926960FB6F894DEBF0FBECDBF87
:1052D000CF91DF910895DF93CF9300D000D0CDB769
:1052E000DEB79A8389837C836B835E834D83898158
:1052F0009A812B813C814D815E81B9010E94AA294E
:1053000026960FB6F894DEBF0FBECDBFCF91DF91CA
:105310000895DF93CF9300D000D0CDB7DEB79A8346
:1053200089837C836B835E834D8349815A818B8122
:105330009C812D813E81BA01A9010E94533480E0F5
:1053400090E026960FB6F894DEBF0FBECDBFCF918A
:10535000DF910895DF93CF93CDB7DEB72A970FB6CD
:10536000F894DEBF0FBECDBF9E838D8378876F8399
:105370005A8749878F8198859C838B831A821982EB
:1053800024C02D813E8189819A81820F931F0E94C2
:105390006334982FEB81FC818081981761F02D8117
:1053A0003E8189819A81820F931FEB81FC8120814C
:1053B000622F0E946B348B819C8101969C838B832E
:1053C00089819A8101969A83898329813A81898585
:1053D0009A8528173907A8F280E090E02A960FB640
:1053E000F894DEBF0FBECDBFCF91DF910895DF935C
:1053F000CF93CDB7DEB72E970FB6F894DEBF0FBEB2
:10540000CDBF98878F837A8769875C874B878F8129
:1054100098859E838D83ED81FE81828193819C831B
:105420008B838B819C810097A1F48D819E819A83CF
:105430008983E981FA810384F485E02D89819A8149
:1054400029853A854B855C85B90119959E878D879D
:105450000FC0EB81FC810588F689E02D8B819C8152
:1054600029853A854B855C85B90119959E878D877D
:105470008D859E852E960FB6F894DEBF0FBECDBFEC
:10548000CF91DF910895DF93CF930F920F92CDB715
:10549000DEB79A838983E981FA81808191810F90B7
:1054A0000F90CF91DF9108950F931F93DF93CF93C8
:1054B000CDB7DEB729970FB6F894DEBF0FBECDBFCC
:1054C0009D838C837F836E8380E090E49B838A83BB
:1054D0008E819F810E94E4329B838A838A819B8193
:1054E0002FEF8F3F920719F419861886A3C083E027
:1054F00089830FC08981873048F087E190E09093DD
:105500009804809397041986188694C089818F5FC8
:1055100089838981882F90E0880F991FFC01EE53C1
:10552000FC4F80819181009729F78981082F10E035
:1055300087E090E00E94822C9C01C801880F991F8F
:10554000FC01EE53FC4F31832083C801880F991F63
:10555000FC01EE53FC4F80819181009719F419866C
:10556000188668C08981882F90E0880F991FFC01F8
:10557000EE53FC4F008111818C819D812A813B81FA
:10558000B9010E94BA2CF80191838083F8018081CF
:105590009181FFEF8F3F9F07C9F48981882F90E0A9
:1055A000880F991FFC01EE53FC4F808191810E946E
:1055B000A62C8981882F90E0880F991FFC01EE535B
:1055C000FC4F118210821986188634C08981882F79
:1055D00090E0880F991FFC01EE53FC4F0190F08181
:1055E000E02D8A819B81938382838981882F90E03B
:1055F000880F991FFC01EE53FC4F0190F081E02DC4
:1056000014828981882F90E0880F991FFC01EE5346
:10561000FC4F0190F081E02D168215828981882F40
:1056200090E0880F991FFC01EE53FC4F808191811F
:10563000998788878885998529960FB6F894DEBF63
:105640000FBECDBFCF91DF911F910F9108950F93A2
:105650001F93DF93CF93CDB7DEB72B970FB6F89498
:10566000DEBF0FBECDBF9D838C837F836E83598742
:10567000488780E090E49B838A838E819F810E948B
:10568000E4329B838A838A819B812FEF8F3F92072D
:1056900019F41B861A86B9C019820FC089818F5FE1
:1056A00089838981883048F089E090E0909398045C
:1056B000809397041B861A86A8C08981882F90E062
:1056C000880F991FFC01EE53FC4F208131818885A2
:1056D00099852817390711F78981082F10E087E08D
:1056E00090E00E94822C9C01C801880F991FFC0148
:1056F000EE53FC4F31832083C801880F991FFC01B2
:10570000EE53FC4F80819181009719F41B861A8615
:105710007CC08981882F90E0880F991FFC01EE538F
:10572000FC4F008111818C819D812A813B81B901CF
:105730000E94BA2CF80191838083F80180819181C5
:10574000FFEF8F3F9F0769F58981882F90E0880FD1
:10575000991FFC01EE53FC4F808191810E94A62C81
:105760008981833088F48981482F50E08981882F8E
:1057700090E001969C01CA01880F991FFC01EE532D
:10578000FC4F318320830AC08981882F90E0880FE5
:10579000991FFC01EE53FC4F118210821B861A8662
:1057A00034C08981882F90E0880F991FFC01EE5347
:1057B000FC4F0190F081E02D8A819B81938382834D
:1057C0008981882F90E0880F991FFC01EE53FC4FD0
:1057D0000190F081E02D14828981882F90E0880F5C
:1057E000991FFC01EE53FC4F0190F081E02D1682D1
:1057F00015828981882F90E0880F991FFC01EE5354
:10580000FC4F808191819B878A878A859B852B9617
:105810000FB6F894DEBF0FBECDBFCF91DF911F91C1
:105820000F910895DF93CF9300D00F92CDB7DEB7DD
:10583000CE010E969C838B834B815C818A859B85F0
:105840002C853D85B9010E945E2C9A8389838981CC
:105850009A810F900F900F900F90CF91DF91089544
:10586000DF93CF9300D00F92CDB7DEB79A838983B1
:105870002091C4033091C50389819A81B9010E94A6
:10588000A2332FEF8F3F920729F48FEF9FEF9C8376
:105890008B830BC02091C4033091C5038AE090E054
:1058A000B9010E9478331C821B828B819C810F90EE
:1058B0000F900F900F90CF91DF910895DF93CF93CA
:1058C00000D000D0CDB7DEB79A8389837C836B8309
:1058D0005E834D83E981FA814081518188E992E3B9
:1058E0002B813C81ED81FE81BA01A9019F010E94BB
:1058F0007A2D26960FB6F894DEBF0FBECDBFCF919E
:10590000DF910895DF93CF9300D00F92CDB7DEB72C
:105910009C838B8380E794E02B813C81B9010E94BA
:1059200002029A83898389819A81009731F48CE0FD
:1059300090E0909398048093970489819A810F90C6
:105940000F900F900F90CF91DF910895DF93CF9339
:105950000F920F92CDB7DEB79A83898380E794E0E8
:1059600029813A81B9010E9402030F900F90CF91D3
:10597000DF910895DF93CF93CDB7DEB765970FB66C
:10598000F894DEBF0FBECDBF988B8F877A8B698B63
:105990008F8598899A8389831B8214C08B81282FD5
:1059A00030E0E981FA814081CE010696FC01E20FE8
:1059B000F31F408389819A8101969A8389838B8121
:1059C0008F5F8B83E981FA818081882341F0E981AF
:1059D000FA8180818A3319F08B818830F8F28B81CB
:1059E000282F30E0CE010696FC01E20FF31F108253
:1059F000CE0106960E94EA109D838C838C819D8146
:105A0000009759F482E090E0909398048093970473
:105A10008FEF9FEF9D8B8C8B23C0E981FA81808172
:105A20001B8A8A3311F091E09B8B89819A810196C0
:105A30009A8389838B89882311F01A821982EC81D9
:105A4000FD81058CF68DE02D8C819D8129813A8127
:105A500049895A89B90120E030E019959D8B8C8BDA
:105A60008C899D8965960FB6F894DEBF0FBECDBFB9
:105A7000CF91DF910895DF93CF93CDB7DEB728970D
:105A80000FB6F894DEBF0FBECDBF9A8389837C83A7
:105A90006B835E834D8338872F830FC08B819C81FE
:105AA0002D813E81E981FA81B90140E150E01995EB
:105AB0008F819885409798878F838F8198858131D2
:105AC000910564F78F8198851816190654F44F8153
:105AD00058858B819C812D813E81E981FA81B901B4
