:100000000C942E010C9488010C9488010C948801A6
:100010000C9488010C9488010C949BB60C94880174
:100020000C9488010C9488010C9488010C9488012C
:100030000C9488010C94DCA30C9488010C94880126
:100040000C9488010C9488010C9488010C9488010C
:100050000C9488010C9488010C9488010C948801FC
:100060000C9488010C9461B70C941EB80C94880110
:100070000C9488010C9488010C9488010C948801DC
:100080000C9488010C9488010C9488010C948801CC
:100090000C9488010C9488010C9488010C948801BC
:1000A0000C9488010C9488010C9488010C948801AC
:1000B0000C9488010C9488010C9488010C9488019C
:1000C0000C9488010C9488010C9488013C68746D30
:1000D0006C3E0A3C686561643E3C2F686561643E25
:1000E0000A3C626F64793E0A3C68313E576F726B1E
:1000F000733C2F68313E0A3C2F626F64793E0A3CA4
:100100002F68746D6C3E0A696E6465782E68746D34
:100110006C00485454502F25642E256420256420FB
:1001200025730D0A5365727665723A2045746865C9
:10013000726E75742025730D0A00636C6F73650D04
:100140000A0D0A00436F6E6E656374696F6E3A2024
:1001500000436F6E74656E742D456E636F64696ED7
:10016000673A20677A69700D0A00436F6E74656E96
:10017000742D4C656E6774683A20256C640D0A0016
:10018000436F6E74656E742D547970653A202573D3
:100190000D0A005757572D41757468656E74696371
:1001A0006174653A204261736963207265616C6DA8
:1001B0003D222573220D0A003C48544D4C3E3C48DC
:1001C0004541443E3C5449544C453E2564202573EA
:1001D0003C2F5449544C453E3C2F484541443E3CFD
:1001E000424F44593E25642025733C2F424F4459C9
:1001F0003E3C2F48544D4C3E0D0A00FFFFFFFFFFD1
:10020000FFFFFFFFFFFF3EFFFFFF3F34353637386C
:10021000393A3B3C3DFFFFFFFFFFFFFF00010203B8
:100220000405060708090A0B0C0D0E0F1011121316
:10023000141516171819FFFFFFFFFFFF1A1B1C1DCF
:100240001E1F202122232425262728292A2B2C2D56
:100250002E2F30313233FFFFFFFFFF00E4E7F0E0E5
:1002600084E88083E4ECF0E087E08083ECECF0E06D
:1002700087E0808311241FBECFEFD1E2DEBFCDBF68
:1002800000E00CBF19E0A0E0B2E0E2E8F0E901E034
:100290000BBF02C007900D92AE31B107D9F71AE03B
:1002A000AEE1B9E001C01D92A03AB107E1F7EDE57A
:1002B000F0E08FEF9FE79183808380EA9AE02FEF51
:1002C0003FE7A901481B590BCA0151E08138950746
:1002D00070F020EA3AE08FEF9EE7AC01421B530B2F
:1002E00087E79AE020EA3AE0B9010E94458E0E9431
:1002F000AE9B85E493E02AEC32E0B90140E050E0A7
:1003000020E831E00E947BA10E9400000C943FC8CD
:100310000C940000DF93CF93CDB7DEB728970FB6CC
:10032000F894DEBF0FBECDBF80E092ECA1E0B0E05C
:100330008D839E83AF83B88786E998E060E070E0A4
:1003400040E00E94589B409173075091740780E0F1
:1003500092E026E032E0B9010E940F7580917307A8
:10036000909174070E9497739E012B5F3F4F61E04D
:1003700071E0A9010E94C2700E94398C9C0100D0DA
:100380000F92EDB7FEB7319688E092E091838083BB
:10039000338322830E9425770F900F900F900F9048
:1003A00000D00F92EDB7FEB7319683E392E09183D0
:1003B000808383E492E0938382830E9425770F9069
:1003C0000F900F900F9089EE98E060E070E040E0B1
:1003D0000E94589B009729F088E492E00E9445779C
:1003E000FFCF83E492E060E070E020E63AEE40E088
:1003F00050E00E94EF14009729F081E792E00E94FC
:100400004577FFCF80914D0A90914E0AA0914F0AF7
:10041000B091500ABC01CD010E94E83D9C0100D082
:100420000F92EDB7FEB7319681EA92E09183808317
:10043000338322830E9425770F900F900F900F90A7
:100440000F920F92EDB7FEB731968BEA92E091834F
:1004500080830E9425770F900F908EE497E060E0F4
:1004600070E040E00E94589B009729F088EC92E0F1
:100470000E944577FFCF80ED92E00E9445770E9471
:10048000562C9C838B838B819C810097E1F4209177
:10049000750A3091760A00D00F92EDB7FEB731960B
:1004A00084ED92E091838083338322830E942577B9
:1004B0000F900F900F900F9068EE73E080E090E047
:1004C0000E94F196DCCF0F920F92EDB7FEB73196F6
:1004D0008FEE92E0918380830E9425770F900F909A
:1004E0008B819C8160E570E00E943F300F920F92FB
:1004F000EDB7FEB731968CEF92E0918380830E9436
:1005000025770F900F908B819C8129E033E0B90112
:100510000E9443729A83898389819A810097B1F4FA
:100520002091750A3091760A00D00F92EDB7FEB790
:1005300031968DE093E091838083338322830E9400
:1005400025770F900F900F900F9008C089819A81A6
:100550000E94772189819A810E94DB718B819C8125
:100560000E94E43288E293E00E94457788CFDF93CF
:10057000CF930F920F92CDB7DEB78A8380913F035E
:1005800089838A8180933F0389810F900F90CF9157
:10059000DF910895DF93CF9300D0CDB7DEB79B8373
:1005A0008A830E947C9380E493E02AE831E0B901D9
:1005B00040E050E020E03CE00E947BA18EEF0E94F2
:1005C00064920E9441920E94BE9280913F038F3FAD
:1005D000C1F3E3E5F0E080818E708983A3E5B0E0AC
:1005E000E3E5F0E08081982F917F80913F03892B94
:1005F0008C93A3E5B0E0E3E5F0E0808181608C932B
:100600008895A3E5B0E0E3E5F0E080818E7F8C93F0
:10061000A3E5B0E0E3E5F0E08081982F917F898148
:10062000892B8C93CECFDF93CF9300D000D0CDB762
:10063000DEB79A8389837C836B835E834D83E981F4
:10064000FA8180819181009731F0E981FA8180817E
:1006500091810E940E838D819E8101960E94EA8283
:10066000E981FA8191838083E981FA818081918196
:100670000097C9F08D819E81009759F0E981FA8138
:10068000808191814D815E812B813C81B9010E94E5
:1006900064C7E981FA81208131818D819E81F901D0
:1006A000E80FF91F108226960FB6F894DEBF0FBE32
:1006B000CDBFCF91DF910895DF93CF930F920F922B
:1006C000CDB7DEB79A83898389819A810097E1F05B
:1006D000E981FA8181A592A5009731F0E981FA813B
:1006E00081A592A50E940E83E981FA8183A594A534
:1006F000009731F0E981FA8183A594A50E940E83C9
:1007000089819A810E940E830F900F90CF91DF9183
:100710000895DF93CF93CDB7DEB761970FB6F89406
:10072000DEBF0FBECDBF9D878C877F876E878DE232
:1007300090E00E94EA829F838E838E819F81009742
:1007400019F4198A188A7BC28E819F8160E070E05B
:100750004DE250E00E946DC7EE81FF8180EC98EA87
:10076000A0E0B0E085A396A3A7A3B0A78E819F8148
:10077000AC014F5F5F4F8C859D859C01205F3F4F93
:10078000CA01B90144E050E00E9464C78C859D8590
:1007900080519F4F9B878A878E859F85805F904081
:1007A00099878887D2C1EA85FB858081882359F49F
:1007B0008A859B8501969B878A878885998501977D
:1007C00099878887C2C18A859B85FC013196808183
:1007D0008D838D81282F30E0888599858217930736
:1007E0000CF4BEC1EA85FB858081853369F48D8177
:1007F000813009F0B5C18A859B85FC0132968081E4
:10080000EE81FF81808386C1EA85FB8580818C3003
:1008100099F48E819F81BC01675D7F4F8A859B859E
:10082000AC014E5F5F4F8D81282F30E0CB01BA01C4
:10083000A9010E9413036EC1EA85FB8580818F3078
:1008400099F48E819F81BC01655D7F4F8A859B8570
:10085000AC014E5F5F4F8D81282F30E0CB01BA0194
:10086000A9010E94130356C18D81843008F452C13E
:100870008A859B85FC0132968081882F90E0A0E0DC
:10088000B0E089839A83AB83BC838A859B85FC0116
:1008900033968081882F90E0A0E0B0E02227382FA7
:1008A000492F5A2F89819A81AB81BC81820F931F76
:1008B000A41FB51F89839A83AB83BC838A859B85DC
:1008C000FC0134968081882F90E0A0E0B0E0AC017C
:1008D0003327222789819A81AB81BC81820F931FA4
:1008E000A41FB51F89839A83AB83BC838A859B85AC
:1008F000FC0135968081882F90E0A0E0B0E0582F71
:1009000044273327222789819A81AB81BC81820FBA
:10091000931FA41FB51F89839A83AB83BC83EA8589
:10092000FB858081813059F4EE81FF8189819A8134
:10093000AB81BC8185839683A783B087EBC0EA85B2
:10094000FB8580818C3159F4EE81FF8189819A8108
:10095000AB81BC8181879287A387B487DBC0EA859E
:10096000FB858081833059F4EE81FF8189819A81F2
:10097000AB81BC8185879687A787B08BCBC0EA8582
:10098000FB858081863009F074C0EE81FF8189810A
:100990009A81AB81BC81818B928BA38BB48B8D812F
:1009A000883008F4B7C08A859B85FC013696808123
:1009B000882F90E0A0E0B0E0EE81FF81858B968BE0
:1009C000A78BB08FEE81FF81258936894789508DAD
:1009D0008A859B85FC0137968081882F90E0A0E076
:1009E000B0E0BA2FA92F982F8827820F931FA41F3A
:1009F000B51FEE81FF81858B968BA78BB08FEE8123
:100A0000FF81258936894789508D8A859B85FC0120
:100A100038968081882F90E0A0E0B0E0DC01992733
:100A20008827820F931FA41FB51FEE81FF81858B3E
:100A3000968BA78BB08FEE81FF81258936894789F8
:100A4000508D8A859B85FC0139968081882F90E0A6
:100A5000A0E0B0E0B82FAA2799278827820F931F1C
:100A6000A41FB51FEE81FF81858B968BA78BB08F5E
:100A700051C0EA85FB858081863359F4EE81FF8180
:100A800089819A81AB81BC81818F928FA38FB48F32
:100A900041C0EA85FB8580818A3389F489819A8106
:100AA000AB81BC81BC01CD010E942A06DC01CB01D7
:100AB000EE81FF81858F968FA78FB0A32BC0EA852B
:100AC000FB8580818B3389F489819A81AB81BC81DC
:100AD000BC01CD010E942A06DC01CB01EE81FF8121
:100AE00081A392A3A3A3B4A315C0EA85FB8580814B
:100AF000833381F489819A81AB81BC81BC01CD01B2
:100B00000E942A06DC01CB01EE81FF8185A396A31A
:100B1000A7A3B0A78D81882F90E09C012E5F3F4F47
:100B20008A859B85820F931F9B878A878D81282FBB
:100B300030E08EEF9FEFAC01421B530B9A0188858A
:100B40009985820F931F99878887EA85FB85808125
:100B50008F3F31F088859985181619060CF423CE3D
:100B6000EA85FB8580818F3F79F4EE81FF8180816A
:100B7000823089F0EE81FF818081853061F0EE81E5
:100B8000FF818081863039F08E819F810E945C03D5
:100B9000198A188A54C0EE81FF81858D968DA78DA4
:100BA000B0A10097A105B10581F4EE81FF8185A177
:100BB00096A1A7A1B0A5B695A79597958795EE8123
:100BC000FF81858F968FA78FB0A3EE81FF8181A1D2
:100BD00092A1A3A1B4A10097A105B10561F5EE8191
:100BE000FF81258D368D478D50A1EE81FF81858D4A
:100BF000968DA78DB0A1B695A79597958795280F47
:100C0000391F4A1F5B1FEE81FF81858D968DA78D51
:100C1000B0A1B695A79597958795B695A795979501
:100C20008795820F931FA41FB51FEE81FF8181A3BB
:100C300092A3A3A3B4A38E819F81998B888B88896B
:100C4000998961960FB6F894DEBF0FBECDBFCF91E4
:100C5000DF910895DF93CF9300D00F92CDB7DEB729
:100C600069837A838B839C8389819A81AB81BC81E0
:100C7000082E8B2FB02D092E9A2FA02D89839A83B1
:100C8000AB83BC8389819A81AB81BC81BC01CD01DE
:100C90000F900F900F900F90CF91DF910895DF93F9
:100CA000CF9300D000D0CDB7DEB79A8389836B8312
:100CB0005D834C832E83E981FA818B8180838981D6
:100CC0009A8101969A838983E981FA818E81808352
:100CD00089819A8101969A8389838E81482F50E079
:100CE00089819A812C813D81B9010E9464C78E81DE
:100CF000882F90E0029626960FB6F894DEBF0FBEBE
:100D0000CDBFCF91DF910895DF93CF9300D00F92A5
:100D1000CDB7DEB79A8389836B834C83E981FA81EF
:100D20008B81808389819A8101969A838983E98165
:100D3000FA8181E0808389819A8101969A838983EF
:100D4000E981FA818C81808389819A8101969A83D5
:100D5000898383E090E00F900F900F900F90CF91D8
:100D6000DF910895DF93CF9300D00F920F92CDB70C
:100D7000DEB79A8389836B835D834C83E981FA8133
:100D80008B81808389819A8101969A838983E98105
:100D9000FA8182E0808389819A8101969A8389838E
:100DA0008C819D810E94EA069D838C8389819A8132
:100DB0009E012C5F3F4FB90142E050E00E9464C7A2
:100DC00084E090E00F900F900F900F900F90CF91D4
:100DD000DF910895DF93CF930F920F92CDB7DEB7D7
:100DE0009A83898389819A81082E892F902D9A83ED
:100DF000898389819A810F900F90CF91DF91089517
:100E0000DF93CF930F920F92CDB7DEB79A8389838A
:100E1000E981FA8187E3808389819A8101969A83A7
:100E20008983E981FA8183E0808389819A810196AF
:100E30009A838983E981FA8181E0808389819A811B
:100E400001969A838983E981FA8183E0808389818D
:100E50009A8101969A838983E981FA8186E0808369
:100E600089819A8101969A83898385E090E00F9029
:100E70000F90CF91DF910895CF92DF92EF92FF9282
:100E80000F931F93DF93CF93CDB7DEB72F970FB696
:100E9000F894DEBF0FBECDBF9C838B836D832E8302
:100EA0003F8348875987EA86FB860C871D87DF8644
:100EB000CE868B819C8160E070E044E252E00E942B
:100EC0006DC7EB81FC8181E08083EB81FC8181E057
:100ED0008183EB81FC8186E082838B819C814C96AF
:100EE00027E43AE0B90146E050E00E9464C7EB8194
:100EF000FC818E819F81A885B98584839583A68393
:100F0000B7838E859F850E94EA06EB81FC819187DD
:100F10008087EB81FC818A859B85AC85BD85848734
:100F20009587A687B7878B819C8184519F4F9A8331
:100F30008983E981FA8183E6808389819A81019698
:100F40009A838983E981FA8182E8808389819A8101
:100F500001969A838983E981FA8183E58083898177
:100F60009A8101969A838983E981FA8183E6808355
:100F700089819A8101969A83898389819A8165E31F
:100F80004D810E94840604962F960FB6F894DEBF1A
:100F90000FBECDBFCF91DF911F910F91FF90EF90CA
:100FA000DF90CF900895EF92FF920F931F93DF93FE
:100FB000CF93CDB7DEB72C970FB6F894DEBF0FBE38
:100FC000CDBF9A8389834B835C836D837E8338870F
:100FD0002F831A87098729853A858F819885820F03
:100FE000931FFC01E451FF4F8FEF808389859A8521
:100FF00001969A87898789859A8584519F4F9A8718
:10100000898789859A8521E08C32920720F48CE2C9
:1010100091E09A878987A985BA8589819A812B81F0
:101020003C814D815E81EF81F885BA01A90123E4FD
:1010300030E08F017D010E94B83699235CF483E192
:1010400090E090932509809324098FEF9FEF9C8770
:101050008B8702C01C861B868B859C852C960FB6C1
:10106000F894DEBF0FBECDBFCF91DF911F910F91DE
:10107000FF90EF900895CF92DF92EF92FF920F933F
:101080001F93DF93CF93CDB7DEB76C970FB6F8946D
:10109000DEBF0FBECDBF9A8B898B4B8B5C8B6D8B6C
:1010A0007E8B388F2F8BE98EFA8E0B8F1C8F0E94D0
:1010B0002098DC01CB018D839E83AF83B887898D17
:1010C0009A8DAB8DBC8D89839A83AB83BC838989D0
:1010D0009A899E01235F3F4FAE01455F5F4FEF89C5
:1010E000F88DC980DA80EB80FC80B9019F0104E2B1
:1010F00012E00E9423379A87898789859A85181676
:10110000190664F089859A8599230CF05BC084E107
:1011100090E0909325098093240954C089859A858D
:10112000823F9105A0F0EF89F88D8081823079F4BB
:10113000EF89F88D24813581468157818B899C897F
:10114000AD89BE89281739074A075B07D9F10E9484
:1011500020989B01AC018D819E81AF81B88579017A
:101160008A01E81AF90A0A0B1B0BD801C701898307
:101170009A83AB83BC83898D9A8DAB8DBC8D9C018A
:10118000AD012A5F30404040504089819A81AB8157
:10119000BC8182179307A407B50718F01A86198631
:1011A00011C0898D9A8DAB8DBC8D29813A814B817F
:1011B0005C81821B930BA40BB50B89839A83AB8351
:1011C000BC8385CF89859A856C960FB6F894DEBF6F
:1011D0000FBECDBFCF91DF911F910F91FF90EF9088
:1011E000DF90CF900895CF92DF92EF92FF920F930E
:1011F0001F93DF93CF93CDB7DEB764970FB6F89404
:10120000DEBF0FBECDBF98878F837A8769872B8714
:101210003C874D875E87EF86F88A098B1A8BDC8ABC
:10122000CB8A89859A8584519F4F9A838983898542
:101230009A852B853C854D855E85EB89FC8961E02F
:10124000EE24FF2487016F010E943C079E838D835B
:101250008F859889A989BA890097A105B105A9F058
:1012600029813A818D819E81820F931F9E01215F8A
:101270003F4F62E3A90124E00E944F069C018D814B
:101280009E81820F931F9E838D8329813A818D8158
:101290009E81820F931F0E9400079C018D819E8179
:1012A000820F931F9E838D838EE89AE00E94ADC7C4
:1012B0009C838B838B819C8118161906ACF4298141
:1012C0003A818D819E81820F931F7B812EE83AE0C7
:1012D0006CE0A901272F0E944F069C018D819E8101
:1012E000820F931F9E838D8329813A818D819E81F8
:1012F000820F931F69E340E452E00E94B2069C0112
:101300008D819E81820F931F9E838D838F8198850F
:1013100029853A85ED81FE814FEF5FEF6FEF7FEF1B
:101320008F010E94D30764960FB6F894DEBF0FBEFC
:10133000CDBFCF91DF911F910F91FF90EF90DF9084
:10134000CF900895AF92BF92CF92DF92EF92FF922B
:101350000F931F93DF93CF93CDB7DEB766970FB68A
:10136000F894DEBF0FBECDBF98878F8349875A8719
:101370006B877C873E872D87EF86F88A098B1A8BCF
:10138000AB8ABC8ACD8ADE8A8D859E8584519F4F2B
:101390009A8389838D859E852F85388949895A89C5
:1013A000EB88FC880D891E89ECA5FDA563E06F0123
:1013B0000E943C079E838D838CA19DA1AEA1BFA1FD
:1013C0000097A105B105A1F029813A818D819E8107
:1013D000820F931F62E3AE014C5D5F4F24E00E94D9
:1013E0004F069C018D819E81820F931F9E838D836A
:1013F00088A599A5AAA5BBA50097A105B105A9F047
:1014000029813A818D819E81820F931F9E01285DE3
:101410003F4F66E3A90124E00E944F069C018D81A5
:101420009E81820F931F9E838D8329813A818D81B6
:101430009E81820F931F0E9400079C018D819E81D7
:10144000820F931F9E838D838EE89AE00E94ADC722
:101450009C838B838B819C8118161906ACF429819F
:101460003A818D819E81820F931F7B812EE83AE025
:101470006CE0A901272F0E944F069C018D819E815F
:10148000820F931F9E838D838F81988529853A854E
:101490004B855C85ED85FE85AD81BE81BA01A901D4
:1014A0009F018D010E94D30766960FB6F894DEBFA8
:1014B0000FBECDBFCF91DF911F910F91FF90EF90A5
:1014C000DF90CF90BF90AF9008958F929F92AF9290
:1014D000BF92CF92DF92EF92FF920F931F93DF9311
:1014E000CF93CDB7DEB760970FB6F894DEBF0FBECF
:1014F000CDBF9A8389837C836B832D833E834F8307
:101500005887E986FA860B871C87AD86BE86CF860C
:10151000D88A2DB73EB72A5030400FB6F8943EBF58
:101520000FBE2DBFEDB7FEB7319629813A818B8072
:101530009C80ED80FE800F811885A984BA84CB84BD
:10154000DC848D859E85AF85B88980839183A28355
:10155000B38388A199A1AAA1BBA184839583A68303
:10156000B7838CA19DA191878087C9014FEF5FEF61
:101570006FEF7FEF94010E94A2092DB73EB7265F5F
:101580003F4F0FB6F8943EBF0FBE2DBF60960FB60B
:10159000F894DEBF0FBECDBFCF91DF911F910F91A9
:1015A000FF90EF90DF90CF90BF90AF909F908F9083
:1015B0000895AF92BF92CF92DF92EF92FF920F9376
:1015C0001F93DF93CF93CDB7DEB764970FB6F89430
:1015D000DEBF0FBECDBF9E838D834F835887698743
:1015E0007A873C872B87ED86FE860F87188BA98A22
:1015F000BA8ACB8ADC8A8B859C8584519F4F9A83DB
:1016000089838B859C852D853E854F855889E98802
:10161000FA880B891C8967E0CC24DD240E943C07F2
:101620009C838B838AA19BA1ACA1BDA10097A1053E
:10163000B105A1F029813A818B819C81820F931F92
:1016400066E3AE014E5D5F4F24E00E944F069C01B1
:101650008B819C81820F931F9C838B838D819E81C4
:101660002F81388549855A85EB85FC85AB81BC8106
:10167000BA01A9019F018D010E94D30764960FB69C
:10168000F894DEBF0FBECDBFCF91DF911F910F91B8
:10169000FF90EF90DF90CF90BF90AF900895AF9202
:1016A000BF92CF92DF92EF92FF920F931F93DF933F
:1016B000CF93CDB7DEB766970FB6F894DEBF0FBEF7
:1016C000CDBF98878F8349875A876B877C873E87F2
:1016D0002D87EF86F88A098B1A8BAB8ABC8ACD8A54
:1016E000DE8A8D859E8584519F4F9A8389838D855F
:1016F0009E852F85388949895A89EB88FC880D8910
:101700001E8968E0CC24DD240E943C079E838D83E3
:1017100029813A818D819E81820F931F0E9400074B
:101720009C018D819E81820F931F9E838D838EE805
:101730009AE00E94ADC79C838B838B819C8100972C
:10174000A9F029813A818D819E81820F931F7B812F
:101750002EE83AE06CE0A901272F0E944F069C0179
:101760008D819E81820F931F9E838D8329813A8173
:101770008D819E81820F931F69E340E452E00E94B5
:10178000B2069C018D819E81820F931F9E838D8363
:101790008F81988529853A854B855C85ED85FE8509
:1017A000AD81BE81BA01A9019F018D010E94D307BD
:1017B00066960FB6F894DEBF0FBECDBFCF91DF9116
:1017C0001F910F91FF90EF90DF90CF90BF90AF905F
:1017D0000895DF93CF93CDB7DEB72A970FB6F8946D
:1017E000DEBF0FBECDBF9C838B837E836D83588706
:1017F0004F832F8138858D819E81B9010E94890395
:101800009A83898389819A81009729F48B819C81AD
:101810009A87898780C0E981FA818081823049F086
:1018200089819A810E945C038B819C819A87898738
:1018300072C08B819C81009729F489819A819C8355
:101840008B8365C080914D0A90914E0AA0914F0AFA
:10185000B091500A2091510A3091520A4091530A96
:101860005091540A82239323A423B5230097A10502
:10187000B10579F1EB81FC81218132814381548171
:1018800080914D0A90914E0AA0914F0AB091500A52
:10189000281739074A075B07D1F1E981FA812181CD
:1018A00032814381548180914D0A90914E0AA091DA
:1018B0004F0AB091500A281739074A075B0739F5D4
:1018C0008B819C810E945C0389819A819C838B839C
:1018D0001EC0E981FA8125A136A147A150A5EB815F
:1018E000FC8185A196A1A7A1B0A582179307A407A3
:1018F000B50748F48B819C810E945C0389819A81A1
:101900009C838B8304C089819A810E945C038B81B4
:101910009C819A87898789859A852A960FB6F8943B
:10192000DEBF0FBECDBFCF91DF910895DF93CF9380
:10193000CDB7DEB7E5970FB6F894DEBF0FBECDBFCB
:1019400099AB88AB1DA61CA61BA61AA619A618A69D
:101950001F8E1E8E0E940198DC01CB018A8F9B8F07
:10196000AC8FBD8F1E8A1F8A188E198E80EA9FE069
:10197000A0E0B0E08D879E87AF87B88B80914D0A3D
:1019800090914E0AA0914F0AB091500A89879A8788
:10199000AB87BC87E8A9F9A98785908999A388A313
:1019A0001AA21BA21CA21DA2198A2FC08AA19BA148
:1019B000ACA1BDA1BA2FA92F982F88278AA39BA3DA
:1019C000ACA3BDA38989282F30E085E090E05C01BD
:1019D000A21AB30A950188A199A1820F931FFC0155
:1019E00035968081282F30E040E050E08AA19BA10D
:1019F000ACA1BDA1820F931FA41FB51F8AA39BA3F7
:101A0000ACA3BDA389898F5F898B8989843070F2EB
:101A1000198A8FEF9FEFAFEFBFEF8D839E83AF8368
:101A2000B8878989882331F12D853E854F8558896E
:101A30008D859E85AF85B889820F931FA41FB51F22
:101A40008D879E87AF87B88B8D859E85AF85B8893A
:101A500081300AEF900700E0A00700E0B00708F42B
:101A60003EC080E09AEFA0E0B0E08D879E87AF8710
:101A7000B88B35C080EA9FE0A0E0B0E08D879E87FC
:101A8000AF87B88B80912309833059F08AA19BA13D
:101A9000ACA1BDA10196A11DB11D8AA39BA3ACA3BE
:101AA000BDA380911F09909120090097C1F0E0919A
:101AB0001F09F0912009818D928DA38DB48D00971F
:101AC000A105B10561F0E0911F09F0912009818D18
:101AD000928DA38DB48D8D839E83AF83B8878091C3
:101AE0002309882309F46CC080912A0990912B095D
:101AF000A0912C09B0912D090097A105B10509F419
:101B00005FC00E9420989B01AC0180912E099091AA
:101B10002F09A0913009B091310959016A01A81A21
:101B2000B90ACA0ADB0AD601C50189839A83AB8345
:101B3000BC8320912A0930912B0940912C095091A6
:101B40002D0989819A81AB81BC8182179307A407F3
:101B5000B50748F081E090E090932509809324092F
:101B60001092230956CF20912A0930912B094091D8
:101B70002C0950912D0989819A81AB81BC81690121
:101B80007A01C81AD90AEA0AFB0AD701C601898371
:101B90009A83AB83BC8329813A814B815C818D859B
:101BA0009E85AF85B889281739074A075B0740F437
:101BB00089819A81AB81BC818D879E87AF87B88BE5
:101BC00080912309823041F080912309863021F0F1
:101BD000809123098730A1F58989882339F10E94F2
:101BE0000198DC01CB012A8D3B8D4C8D5D8D821BD4
:101BF000930BA40BB50B803000E0900701E0A00729
:101C000000E0B00728F08FEF9FEF9F8F8E8F18C0F6
:101C10000E940198DC01CB019C018A8D9B8DA9015A
:101C2000481B590BCA019F8F8E8F0AC00E940198D2
:101C3000DC01CB018A8F9B8FAC8FBD8F1F8E1E8ED8
:101C400080912309853021F0809123098823B1F404
:101C50008AA59BA5009731F08AA59BA50E94CC3749
:101C60001BA61AA688A599A5009709F457C088A5B0
:101C700099A50E940E8319A618A650C080911F092D
:101C800090912009009769F4E8A1F9A183859485D2
:101C9000A585B6850097A105B10519F01092230915
:101CA000B8CE8AA59BA5009721F088A599A5009795
:101CB000A9F58AA59BA5009731F484E490E00E94E1
:101CC00011369BA78AA788A599A5009731F484E2CD
:101CD00092E00E94EA8299A788A78AA59BA500970F
:101CE00021F088A599A5009749F482E190E09093AE
:101CF000250980932409109223098BCE80EC96E06D
:101D00009FA78EA78AA59BA59E01225D3F4F62E0FB
:101D100070E1A90122E030E00E94C03880912309DF
:101D2000813041F5198A8AA19BA1ACA1BDA1019680
:101D3000A11DB11D8AA39BA3ACA3BDA32091510AF1
:101D40003091520A4091530A5091540A89859A85DC
:101D5000AB85BC8582239323A423B5230097A105DB
:101D6000B10521F482E080932309AAC584E0809321
:101D70002309A6C580912309823009F096C01CAAC8
:101D80008989843010F051E05CAB89898F5F898B41
:101D90006CA96623E9F080911F09909120090097B2
:101DA00071F01DA61CA68A8D9B8DAC8DBD8D8E8B72
:101DB0009F8BA88FB98F85E08093230981C581E02F
:101DC00090E090932509809324091092230978C507
:101DD0008AA59BA568A579A52AA13BA14CA15DA1D7
:101DE000E984FA840B851C85EE8DFF8D6F010E94BE
:101DF000F308992384F51092230962C580911F0985
:101E0000909120094EA15FA128A539A5B9010E9492
:101E1000E90B9093200980931F0980911F099091ED
:101E200020090097C1F080912A0990912B09A09177
:101E30002C09B0912D09803E7EE2970770E0A7073C
:101E400070E0B70708F180EA9FE0A0E0B0E08D877E
:101E50009E87AF87B88B8AA59BA52AA13BA14CA1E1
:101E60005DA1E8A5F9A5ED84FE840F851889BA0166
:101E7000A9019F010E943B089FA38EA38EA19FA151
:101E8000181619060CF4BACF8EA19FA199231CF441
:101E90001092230915C580911F0990912009009780
:101EA00009F40EC584E0898B0BC58091230983302A
:101EB00009F0A1C01BAA8989843010F081E08BABA6
:101EC00089898F5F898BABA8AA2021F081E080935C
:101ED0002309F6C4E0911F09F0912009A180B28086
:101EE000C380D480E0911F09F0912009818D928DEB
:101EF000A38DB48D00D000D0EDB7FEB731966AA5A2
:101F00007BA508A519A52AA13BA14CA15DA18083B1
:101F10009183A283B3838E8D9F8D95838483CB0120
:101F2000B801EE24FF2487010E94650A0DB71EB791
:101F30000A5F1F4F0FB6F8941EBF0FBE0DBF992347
:101F40001CF410922309BCC48AA59BA52AA13BA11D
:101F50004CA15DA1E8A5F9A5ED84FE840F85188943
:101F6000BA01A9019F010E943B089FA38EA38EA1E5
:101F70009FA199231CF410922309A2C48EA19FA1B2
:101F8000181619060CF09CC488A599A52EA13FA18E
:101F9000B9010E9489039DA78CA78CA59DA50097D8
:101FA00009F48EC4ECA5FDA580818530D1F4809123
:101FB0001F09909120090E945C038CA59DA5909318
:101FC000200980931F091DA61CA68A8D9B8DAC8DB0
:101FD000BD8D8E8B9F8BA88FB98F85E08093230951
:101FE0006FC4ECA5FDA58081863009F069C481E04D
:101FF0008093230965C480912309843009F097C038
:1020000089898F5F898B8989843040F019861A8687
:102010001B861C8681E08093230952C400D000D027
:10202000EDB7FEB731966AA57BA5A8A5B9A52AA1EB
:102030003BA14CA15DA1A984BA84CB84DC8410822D
:102040001182128213828E8D9F8D95838483CB01A2
:10205000BD01EE24FF2487010E94650A2DB73EB71B
:102060002A5F3F4F0FB6F8943EBF0FBE2DBF992396
:102070001CF41092230924C48AA59BA52AA13BA184
:102080004CA15DA1E8A5F9A5ED84FE840F85188912
:10209000BA01A9019F010E943B089FA38EA38EA1B4
:1020A0009FA199231CF4109223090AC48EA19FA119
:1020B000181619060CF004C488A599A52EA13FA1F5
:1020C000B9010E9489039DA78CA78CA59DA50097A7
:1020D00009F4F6C3ECA5FDA580818530D1F480918B
:1020E0001F09909120090E945C038CA59DA59093E7
:1020F000200980931F091DA61CA68A8D9B8DAC8D7F
:10210000BD8D8E8B9F8BA88FB98F85E0809323091F
:10211000D7C3ECA5FDA58081863009F0D1C319860F
:102120001A861B861C8681E080932309C9C380918F
:102130002309853009F06CC0198A88E299E00E9471
:10214000139BE0911F09F0912009E58CF68C078D17
:1021500010A10E9401989B01AC018E899F89A88DD6
:10216000B98D59016A01A81AB90ACA0ADB0AD6014F
:10217000C5018E159F05A007B10720F086E080936A
:1021800023099EC3E0911F09F0912009E58CF68C8C
:10219000078D10A10E9401989B01AC018E899F8937
:1021A000A88DB98D821B930BA40BB50B8E0D9F1DB3
:1021B000A01FB11F8A8B9B8BAC8BBD8B8A899B899F
:1021C000AC89BD89883309E8900701E4A00700E0E5
:1021D000B00740F087E399E8A1E4B0E08A8B9B8BDD
:1021E000AC8BBD8B06E219E08A899B89AC89BD89DD
:1021F00028EE33E040E050E0BC01CD010E942AC54A
:102200009B01AC01C801BA01A9010E94599958C3A8
:1022100080912309863009F026C189898F5F898BD7
:102220008D859E85AF85B88928EE33E040E050E08B
:10223000BC01CD010E947CC5DA01C9015C016D01C0
:10224000E0911F09F0912009E1A0F2A003A114A1DF
:102250000E9401989B01AC018E899F89A88DB98D40
:10226000821B930BA40BB50B8E0D9F1DA01FB11FDE
:102270008A159B05AC05BD0570F5E0911F09F0912D
:102280002009E1A0F2A003A114A10E9401989B01E2
:10229000AC018E899F89A88DB98D59016A01A81A50
:1022A000B90ACA0ADB0AD601C50128EE33E040E0CC
:1022B00050E0BC01CD010E942AC5DC01CB01A80180
:1022C0009701281B390B4A0B5B0BDA01C9018D877B
:1022D0009E87AF87B88BE0911F09F0912009E1A09C
:1022E000F2A003A114A10E9401989B01AC018E8968
:1022F0009F89A88DB98D59016A01A81AB90ACA0A1D
:10230000DB0AD601C5018E159F05A007B10728F08D
:10231000198A87E080932309D3C2E0911F09F091C5
:102320002009218D328D438D548DE0911F09F0914C
:102330002009A180B280C380D480E0911F09F09170
:10234000200981819281A381B4810DB71EB70A5003
:1023500010400FB6F8941EBF0FBE0DBFEDB7FEB70D
:1023600031966AA57BA588A499A4EAA0FBA00CA13C
:102370001DA180839183A283B38314821582168268
:1023800017828E8D9F8D91878087CB01BA01A9011D
:1023900094010E94A2092DB73EB7265F3F4F0FB6AA
:1023A000F8943EBF0FBE2DBF99232CF4198A87E005
:1023B0008093230985C28AA59BA52AA13BA14CA194
:1023C0005DA1E8A5F9A5ED84FE840F851889BA0101
:1023D000A9019F010E943B089FA38EA38EA19FA1EC
:1023E00099231CF4109223096BC28EA19FA1181689
:1023F00019060CF065C288A599A52EA13FA1B901C7
:102400000E9489039DA78CA78CA59DA5009709F420
:1024100057C2ECA5FDA580818530D1F480911F09BC
:10242000909120090E945C038CA59DA590932009A2
:1024300080931F091DA61CA68A8D9B8DAC8DBD8D1A
:102440008E8B9F8BA88FB98F85E08093230938C22C
:10245000ECA5FDA58081863009F032C2198A87E09B
:10246000809323092DC280912309873009F0F8C099
:1024700089898F5F898BE0911F09F0912009E1A084
:10248000F2A003A114A10E9401989B01AC018E89C6
:102490009F89A88DB98D821B930BA40BB50BA80146
:1024A0009701280F391F4A1F5B1F8D859E85AF85B9
:1024B000B889281739074A075B0710F5E0911F090B
:1024C000F0912009E1A0F2A003A114A10E940198BB
:1024D000DC01CB01A8019701281B390B4A0B5B0BD0
:1024E0008E899F89A88DB98D59016A01A81AB90AE8
:1024F000CA0ADB0AD601C5018D879E87AF87B88BD4
:10250000E0911F09F0912009E1A0F2A003A114A11C
:102510000E9401989B01AC018E899F89A88DB98D7D
:1025200059016A01A81AB90ACA0ADB0AD601C5010B
:102530008E159F05A007B10728F0198A87E08093C0
:102540002309BEC1E0911F09F0912009E180F280CA
:1025500003811481E0911F09F0912009A180B280CC
:10256000C380D48000D000D0EDB7FEB731966AA505
:102570007BA5A8A5B9A52AA13BA14CA15DA110826C
:102580001182128213828E8D9F8D95838483CB015D
:10259000BD010E94650A0DB71EB70A5F1F4F0FB637
:1025A000F8941EBF0FBE0DBF99231CF4109223098F
:1025B00087C18AA59BA52AA13BA14CA15DA1E8A545
:1025C000F9A5ED84FE840F851889BA01A9019F0140
:1025D0000E943B089FA38EA38EA19FA199231CF468
:1025E000109223096DC18EA19FA1181619060CF037
:1025F00067C188A599A52EA13FA1B9010E948903B1
:102600009DA78CA78CA59DA5009709F459C1ECA5A1
:10261000FDA580818530D1F480911F09909120091A
:102620000E945C038CA59DA59093200980931F09AF
:102630001DA61CA68A8D9B8DAC8DBD8D8E8B9F8B10
:10264000A88FB98F85E0809323093AC1ECA5FDA539
:102650008081863009F034C181E08093230930C144
:1026600080912309883009F078C01AAA89898430BA
:1026700010F011E01AAB89898F5F898B2AA9222378
:1026800019F0109223091CC1E8A1F9A1A384B48414
:10269000C584D6848AA59BA52D813E814F8158850E
:1026A000E8A5F9A5EAA0FBA00CA11DA1BA01A9010A
:1026B0009F010E944F0B992384F48D819E81AF81ED
:1026C000B8858F3F3FEF93073FEFA3073FEFB30777
:1026D00009F0F6C010922309F3C08AA59BA52AA190
:1026E0003BA14CA15DA1E8A5F9A5ED84FE840F8571
:1026F0001889BA01A9019F010E943B089FA38EA3DC
:102700008EA19FA1009709F4DBC08EA19FA118168E
:10271000190604F588A599A52EA13FA1B9010E942B
:1027200089039DA78CA78CA59DA5009799F0ECA582
:10273000FDA58081853071F480911F099091200959
:102740000E945C038CA59DA59093200980931F098E
:102750001DA61CA610922309B3C0809123098930BD
:1027600009F093C080911F0990912009009709F406
:1027700040C049894DAB5DA9552311F061E06DABB7
:102780008DA999899F5F998B882399F5E0911F09FD
:10279000F091200981809280A380B480E0911F098C
:1027A000F0912009818D928DA38DB48D00D00F9270
:1027B000EDB7FEB731966AA57BA52D813E814F818D
:1027C0005885C8A4D9A4EAA0FBA00CA11DA18083B0
:1027D0009183A283B383CB01BA01A901960165015C
:1027E00054010E94D90A0F900F900F900F909923D7
:1027F00084F48D819E81AF81B8858F3F7FEF9707ED
:102800007FEFA7077FEFB70709F05AC0109223099F
:1028100057C08AA59BA52AA13BA14CA15DA1E8A513
:10282000F9A5ED84FE840F851889BA01A9019F01DD
:102830000E943B089FA38EA38EA19FA199231CF405
:10284000109223093DC08EA19FA118161906C4F548
:1028500088A599A52EA13FA1B9010E9489039DA732
:102860008CA78CA59DA5009759F1ECA5FDA58081AD
:10287000853019F41092230923C0ECA5FDA58081B1
:102880008630F1F4109223091BC08091230988231C
:10289000B9F480911F09909120090E945C03109265
:1028A000200910921F09198A88E299E00E94139B5F
:1028B00086E299E040E050E060E070E00E945999C3
:1028C0008CA59DA5009709F4A4C88CA59DA50E9480
:1028D0005C031DA61CA69DC8DF93CF93CDB7DEB7C2
:1028E0002D970FB6F894DEBF0FBECDBF9E838D83AC
:1028F0006F83288739874A875B878D819E810E94F5
:102900002C9B9C838B838B819C810097A1F0EB8116
:10291000FC818385833079F4EB81FC818785908904
:102920009A83898389819A81009729F0E981FA81C4
:102930008081863059F081E190E090932509809361
:1029400024098FEF9FEF9D878C873EC00E942098BF
:10295000DC01CB0180932E0990932F09A0933009BD
:10296000B093310988859985AA85BB8580932A090A
:1029700090932B09A0932C09B0932D098F818093FC
:1029800023098091210990912209009779F48AE422
:1029900093E026E93CE04B815C81B90120E633E01D
:1029A0000E947BA1909322098093210986E299E0FD
:1029B0000E94A69A88E299E040E050E060E070E072
:1029C0000E9459991D861C868C859D852D960FB673
:1029D000F894DEBF0FBECDBFCF91DF9108956F9207
:1029E0007F928F929F92AF92BF92CF92DF92EF929F
:1029F000FF920F931F93DF93CF93CDB7DEB76A9704
:102A00000FB6F894DEBF0FBECDBF9A8B898B7C8B3F
:102A10006B8B2D8B3E8B4F8B588F89899A890E94A7
:102A20002C9B9C838B838B819C810097A1F0EB81F5
:102A3000FC818385833079F4EB81FC8187859089E3
:102A40009A83898389819A81009729F0E981FA81A3
:102A50008081863059F081E190E090932509809340
:102A600024098FEF9FEF9A8F898F5CC1CE01059665
:102A700060E070E046E050E00E946DC7CE010B962A
:102A80006FEF70E046E050E00E946DC789819A8147
:102A900005969E012B5F3F4FB90146E050E00E9432
:102AA00057C7009769F089819A8105969E01255F35
:102AB0003F4FB90146E050E00E9457C7009779F5B3
:102AC0008B899C89009751F087E49AE02B893C8997
:102AD000B90146E050E00E9464C711C089899A8913
:102AE0000E948F42009759F082E090E09093250970
:102AF000809324098FEF9FEF9A8F898F13C189816B
:102B00009A81059627E43AE0B90146E050E00E9438
:102B100064C764EF71E080E090E00E94F196E98183
:102B2000FA8113861486158616868091510A909133
:102B3000520AA091530AB091540AE981FA81838B19
:102B4000948BA58BB68B2091590A30915A0A4091EB
:102B50005B0A50915C0A8091510A9091520AA091AF
:102B6000530AB091540A82239323A423B5230097D8
:102B7000A105B10509F440C089899A8940EE5EE259
:102B800060E070E00E94A9168091590A90915A0A5B
:102B9000A0915B0AB0915C0A80934D0A90934E0A13
:102BA000A0934F0AB093500AE0904D0AF0904E0A5D
:102BB00000914F0A1091500AA090510AB090520A09
:102BC000C090530AD090540A6090550A7090560AEB
:102BD0008090570A9090580A89899A8927E43AE0A8
:102BE000B901A801970186017501640153010E9492
:102BF00083401A8E198E96C089899A892D893E89BB
:102C00004F89588D61E00E946C14009709F086C0CE
:102C1000809123098530A9F5E0911F09F0912009E1
:102C20004181528163817481E0911F09F0912009F3
:102C30000581168127813085E0911F09F0912009D7
:102C4000C584D684E784F0888B819C810E940E3FE6
:102C5000E0911F09F0912009218932894389548923
:102C6000E0911F09F0912009E588F6880789108D09
:102C700080E090E060E070E00E9456171A8E198E96
:102C800051C0E981FA8183859485A585B685009731
:102C9000A105B10519F01A8E198E44C080914D0A14
:102CA00090914E0AA0914F0AB091500A2091510A7A
:102CB0003091520A4091530A5091540A822393232F
:102CC000A423B5230097A105B10541F1E0904D0A79
:102CD000F0904E0A00914F0A1091500AA090510AAC
:102CE000B090520AC090530AD090540A6090550A8E
:102CF0007090560A8090570A9090580A89899A894C
:102D000027E43AE0B901A801970186017501640141
:102D100053010E9483401A8E198E04C08FEF9FEFDB
:102D20009A8F898F898D9A8D6A960FB6F894DEBF37
:102D30000FBECDBFCF91DF911F910F91FF90EF900C
:102D4000DF90CF90BF90AF909F908F907F906F90CB
:102D50000895DF93CF93CDB7DEB728970FB6F894D9
:102D6000DEBF0FBECDBF9A8389834B835C836D83A7
:102D70007E8380912309853059F083E090E0909321
:102D80002509809324098FEF9FEF98878F830BC0CD
:102D900089819A812B813C814D815E8169E00E940D
:102DA0006C1498878F838F81988528960FB6F89436
:102DB000DEBF0FBECDBFCF91DF910895DF93CF93DC
:102DC000CDB7DEB728970FB6F894DEBF0FBECDBFE4
:102DD0009A8389834B835C836D837E8380912309EF
:102DE000882359F083E090E090932509809324098B
:102DF0008FEF9FEF98878F830BC089819A812B81FA
:102E00003C814D815E8168E00E946C1498878F83BD
:102E10008F81988528960FB6F894DEBF0FBECDBF80
:102E2000CF91DF910895DF93CF930F920F92CDB79B
:102E3000DEB79A83898380912309882F90E00F90D1
:102E40000F90CF91DF910895DF93CF9300D00F9231
:102E5000CDB7DEB79C838B8380912409909125099F
:102E60009A838983109225091092240989819A8175
:102E70000F900F900F900F90CF91DF910895DF93F7
:102E8000CF930F920F92CDB7DEB7809123091A82AC
:102E90001982853021F481E090E09A8389838981C9
:102EA0009A810F900F90CF91DF910895EF92FF924A
:102EB0000F931F93DF93CF93CDB7DEB72C970FB649
:102EC000F894DEBF0FBECDBF9A8389837C836B836A
:102ED0002D833E834F835887E986FA860B871C87AC
:102EE00080912B0A90912C0A009751F080912B0A27
:102EF00090912C0A0E940E8310922C0A10922B0A99
:102F000080912D0A90912E0A009751F080912D0A00
:102F100090912E0A0E940E8310922E0A10922D0A72
:102F200089819A81009741F089819A810E94228348
:102F300090932C0A80932B0A8B819C81009741F0FF
:102F40008B819C810E94228390932E0A80932D0A6C
:102F50008D819E81AF81B88580932F0A9093300A2E
:102F6000A093310AB093320A89859A85AB85BC85D6
:102F70008093330A9093340AA093350AB093360AAB
:102F80002C960FB6F894DEBF0FBECDBFCF91DF9168
:102F90001F910F91FF90EF900895DF93CF93CDB7DE
:102FA000DEB72C970FB6F894DEBF0FBECDBF9E8361
:102FB0008D8378876F835A8749873C872B870E9448
:102FC000398C9C018DB79EB70E970FB6F8949EBFB3
:102FD0000FBE8DBFEDB7FEB731968D819E81918377
:102FE000808382E191E09383828381E090E0958306
:102FF000848381E090E09783868389859A85918791
:1030000080878B859C8593878287358724870E945C
:1030100097778DB79EB70E960FB6F8949EBF0FBEEA
:103020008DBF8091320990913309A0913409B091FC
:10303000350981709070882351F180E090E00E9402
:10304000277EDC01CB0189839A83AB83BC83CE01CD
:1030500001960E94A87A0E94F3269C0100D000D01D
:10306000EDB7FEB731968D819E819183808388E292
:1030700095E093838283358324830E94AF768DB756
:103080009EB706960FB6F8949EBF0FBE8DBF2C96C6
:103090000FB6F894DEBF0FBECDBFCF91DF9108957C
:1030A0000F931F93DF93CF93CDB7DEB728970FB65B
:1030B000F894DEBF0FBECDBF9A8389837C836B8378
:1030C0002D833E834F83588789819A814B815C8110
:1030D0000D811E812F81388560E070E00E94071904
:1030E00028960FB6F894DEBF0FBECDBFCF91DF910B
:1030F0001F910F910895EF92FF920F931F93DF930B
:10310000CF93CDB7DEB72C970FB6F894DEBF0FBEC6
:10311000CDBF9A8389837C836B835E834D830F83CA
:10312000188729873A87FC86EB868D819E810097D8
:10313000D9F000D000D0EDB7FEB7319689819A81E1
:103140009183808380E891E0938382838D819E8147
:10315000958384830E9497778DB79EB706960FB6A6
:10316000F8949EBF0FBE8DBF8F819885A985BA85C3
:10317000BB232CF18DB79EB708970FB6F8949EBF6E
:103180000FBE8DBFEDB7FEB7319689819A819183CD
:1031900080838AE691E0938382838F819885A985D5
:1031A000BA8584839583A683B7830E9497778DB76A
:1031B0009EB708960FB6F8949EBF0FBE8DBF8B8545
:1031C0009C852BE88F31920739F481E591E02981C4
:1031D0003A81B9010E94B57784E491E029813A816E
:1031E000B9010E94B5778AE391E029813A81B9015A
:1031F0000E94B5772C960FB6F894DEBF0FBECDBFF8
:10320000CF91DF911F910F91FF90EF900895EF9272
:10321000FF920F931F93DF93CF93CDB7DEB72A971B
:103220000FB6F894DEBF0FBECDBF9A8389837C832F
:103230006B835E834D830F83188729873A87898143
:103240009A814B815C81ED81FE810F8118852985F2
:103250003A85BA01AF01EE24FF240E947B182A961A
:103260000FB6F894DEBF0FBECDBFCF91DF911F9197
:103270000F91FF90EF9008950F931F93DF93CF93DB
:10328000CDB7DEB72E970FB6F894DEBF0FBECDBF19
:1032900098878F837A8769875C874B878B859C8526
:1032A0009E878D878D859E8521E08139920781F1EA
:1032B0008D859E8521E0823992076CF48D859E85EF
:1032C00021E080339207D1F08D859E8521E0803901
:1032D0009207C9F031C08D859E8521E0843F920719
:1032E00009F18D859E8521E0853F920701F18D854D
:1032F0009E8521E08439920781F01EC087E395E026
:103300009E838D831DC084E495E09E838D8318C0C9
:1033100080E595E09E838D8313C08DE595E09E83C7
:103320008D830EC087E695E09E838D8309C086E776
:1033300095E09E838D8304C086E895E09E838D830F
:103340008F81988529853A854B855C85ED81FE8145
:10335000B9019F010E94CD178B859C8521E08139A1
:10336000920709F03FC01C821B82E985FA8580859F
:1033700091859A83898389819A816FE270E00E94A6
:10338000DCC79C838B838B819C81009721F0EB8130
:10339000FC81108204C08CE895E09A83898300D078
:1033A00000D0EDB7FEB731968F81988591838083E9
:1033B00083E991E09383828389819A8195838483D1
:1033C0000E9497778DB79EB706960FB6F8949EBF6A
:1033D0000FBE8DBF8B819C81009721F0EB81FC811A
:1033E0008FE280838F81988529853A854FEE53E05F
:1033F000B9010FEF1FEF2FEF3FEF0E9407198DB7B5
:103400009EB70C970FB6F8949EBF0FBE8DBFEDB759
:10341000FEB731968F8198859183808388EB91E008
:10342000938382838B859C85958384838D819E8104
:10343000978386838B859C85918780878D819E81EC
:10344000938782870E9497778DB79EB70C960FB6A9
:10345000F8949EBF0FBE8DBF2E960FB6F894DEBFB8
:103460000FBECDBFCF91DF911F910F9108950F93A4
:103470001F93DF93CF93CDB7DEB728970FB6F8949D
:10348000DEBF0FBECDBF9E838D838D819E81009751
:1034900051F08D819E810E94ADC79A838983898175
:1034A0009A81009729F48EEC94E098878F8331C03D
:1034B00088EC94E09C838B8322C009811A81EB8184
:1034C000FC81808191810E94ADC79801281B390B36
:1034D0008D819E81820F931FEB81FC812081318140
:1034E000B9010E9474C7009729F48B819C81988749
:1034F0008F830FC08B819C8106969C838B83EB818D
:10350000FC81808191810097C1F688EC94E09887D6
:103510008F838F81988528960FB6F894DEBF0FBEF3
:10352000CDBFCF91DF911F910F910895DF93CF937E
:103530000F920F92CDB7DEB79A83898389819A81E2
:103540000E94371AFC01828193810F900F90CF91D6
:10355000DF910895DF93CF930F920F92CDB7DEB72F
:103560009A83898389819A810E94371AFC01848118
:1035700095810F900F90CF91DF910895DF93CF93B6
:10358000CDB7DEB72E970FB6F894DEBF0FBECDBF16
:103590009D838C83CE0101969B878A87EEE8F5E0B8
:1035A000FD87EC87F3E0FE87EC85FD8500808C8548
:1035B0009D8501969D878C87EA85FB8500828A859B
:1035C0009B8501969B878A879E8591509E87EE8575
:1035D000EE2351F78C819D819F838E83EE81FF8145
:1035E000F987E88746C0E885F98580818B3251F4F8
:1035F00080E2EE81FF8180838E819F8101969F838F
:103600008E8332C0E885F9858081853211F5E885A1
:10361000F985319680818983E885F98532968081A4
:103620008A83CE01019660E070E040E150E00E94A4
:10363000B9C5DC01CB01EE81FF8180838E819F8142
:1036400001969F838E83E885F9853296F987E8870E
:103650000BC0E885F9858081EE81FF8180838E81B2
:103660009F8101969F838E83E885F9853196F9873E
:10367000E887E885F9858081882309F0B4CFEE8159
:10368000FF8110822E960FB6F894DEBF0FBECDBF1D
:10369000CF91DF910895DF93CF9300D000D0CDB7C5
:1036A000DEB79A838983E981FA81828593850097C1
:1036B00009F402C1E981FA8181E090E0978B868B61
:1036C000E981FA81228533853C832B8314C0EB8109
:1036D000FC818081863249F4E981FA818689978963
:1036E0000196E981FA81978B868B2B813C812F5F34
:1036F0003F4F3C832B83EB81FC818081882339F70A
:10370000E981FA8186899789880F991F880F991F07
:103710000E94EA82E981FA81958B848BE981FA81A2
:1037200084899589009729F4E981FA81178A168A94
:10373000C3C0E981FA81A489B589E981FA818285CA
:10374000938511969C938E93E981FA81848995895A
:10375000FC01329611821082E981FA81228533853B
:103760003C832B8382E090E09E838D8331C0EB818C
:10377000FC818081863239F5E981FA812489358995
:103780008D819E81880F991FF901E80FF91F8B81A8
:103790009C81019691838083E981FA81248935890E
:1037A0008D819E810196880F991FF901E80FF91FFD
:1037B00011821082EB81FC8110822D813E812E5F6F
:1037C0003F4F3E832D838B819C8101969C838B830D
:1037D000EB81FC818081882351F61E821D8262C0AC
:1037E000E981FA81248935898D819E81880F991F0D
:1037F000880F991FF901E80FF91F208131813C835F
:103800002B8334C0EB81FC8180818D3349F5E981C4
:10381000FA81248935898D819E81880F991F0196AF
:10382000880F991FF901E80FF91F8B819C81019680
:1038300091838083EB81FC811082E981FA81248964
:1038400035898D819E81880F991F0196880F991F58
:10385000F901E80FF91F808191810E94BE1A0BC007
:103860002B813C812F5F3F4F3C832B83EB81FC817D
:103870008081882339F6E981FA81248935898D810F
:103880009E81880F991F880F991FF901E80FF91F72
:10389000808191810E94BE1A2D813E812F5F3F4F12
:1038A0003E832D83E981FA8186899789ED81FE81A6
:1038B000E817F9070CF494CF26960FB6F894DEBFFC
:1038C0000FBECDBFCF91DF910895EF92FF920F937E
:1038D0001F93DF93CF93CDB7DEB7AD970FB6F894B4
:1038E000DEBF0FBECDBF9BA78AA77DA76CA71A8698
:1038F000198618861F821E821D828CA59DA50E9496
:103900003C28009751F08AA59BA52CA53DA5B9019F
:1039100041E951E00E943C19C6C18AA59BA52CA58E
:103920003DA5B9010E94D128009709F0BCC11E8AAB
:103930001D8A8FEF9FEF988F8F8B46C0ECA5FDA55A
:10394000408551858D899E89880F991FFC01EF5B09
:10395000F94F20813181CA01B9010E94BC229A87A6
:10396000898789859A85009751F48AA59BA52CA5FE
:103970003DA5B90144EF51E00E943C1994C18985ED
:103980009A8560E070E80E940E71988F8F8B8F8906
:10399000988D2FEF8F3F920771F08F89988D0E943D
:1039A0001973DC01CB010097A105B105C9F48F891A
:1039B000988D0E94807089859A850E940E838D89DA
:1039C0009E8901969E8B8D8B8D899E89880F991F6C
:1039D000FC01EF5BF94F80819181009709F0AECF38
:1039E0008F89988D2FEF8F3F920751F48AA59BA561
:1039F0002CA53DA5B90144E951E00E943C1953C1F1
:103A000089859A850E94961A9C878B8789859A85D5
:103A10000E94AA1A9E878D878D859E85009709F042
:103A200067C08091320990913309A0913409B09117
:103A3000350982709070A070B0700097A105B10533
:103A400009F456C089859A859E01275E3F4FB901CA
:103A50000E94C56C009749F48AA19BA1ACA1BDA1AD
:103A60008EA39FA3A8A7B9A70AC081E995E00E94E9
:103A70000826DC01CB018EA39FA3A8A7B9A7ECA5BC
:103A8000FDA5808D918DA28DB38D0097A105B10507
:103A900009F12AA13BA14CA15DA1ECA5FDA5808D5A
:103AA000918DA28DB38D82179307A407B50794F06B
:103AB0008F89988D0E9480708AA59BA52CA53DA515
:103AC000B90140E351E00E943C1989859A850E9422
:103AD0000E83E9C0CE0186960E94A87A0E94F32642
:103AE0009C838B838B819C810E94228398878F8308
:103AF00089859A850E940E838AA59BA52CA53DA544
:103B0000EAEAF5E0B90148EC50E09F010E94CD17C8
:103B10008F8198850097F9F000D000D0EDB7FEB7FF
:103B200031968AA59BA5918380838DEA95E0938346
:103B300082838F819885958384830E94AF768DB729
:103B40009EB706960FB6F8949EBF0FBE8DBF8F81AD
:103B500098850E940E838F89988D0E941973DC01CD
:103B6000CB018F87988BA98BBA8B8D859E8500970B
:103B700009F18AA59BA52CA53DA54B855C85B901BE
:103B80000FEF1FEF2FEF3FEF0E9407194F85588966
:103B90000091370A1091380A8AA59BA52F89388D84
:103BA000ECA5FDA5AD85BE85B90198018F01FD018C
:103BB000199575C08AA59BA54CA55DA5EB85FC85CF
:103BC0000F85188929893A89AD81BE81BA01AF0173
:103BD0007D010E947B18ECA5FDA580819181833039
:103BE000910509F45CC080E092E09A838983898121
:103BF0009A810E94EA829C8B8B8B8B899C8900978F
:103C000009F44DC03FC08F859889A989BA89803051
:103C100022E0920720E0A20720E0B20724F48F857B
:103C200098899A8389838F89988D2B893C894981CA
:103C30005A81B9010E948F719E8B8D8B8D899E89CF
:103C40001816190644F54D895E898B899C892AA529
:103C50003BA561E070E00E94CD760097E1F08D8990
:103C60009E899C01442737FD4095542F8F85988964
:103C7000A989BA89821B930BA40BB50B8F87988BEC
:103C8000A98BBA8B8F859889A989BA890097A105D4
:103C9000B10509F0B8CF8B899C890E940E838F896A
:103CA000988D0E948070AD960FB6F894DEBF0FBE5F
:103CB000CDBFCF91DF911F910F91FF90EF900895AD
:103CC000DF93CF930F920F92CDB7DEB79A8389839C
:103CD00005C089819A8101969A838983E981FA8155
:103CE0008081882351F0E981FA818081803229F036
:103CF000E981FA818081893061F7E981FA818081E7
:103D0000882371F0E981FA81108289819A81019674
:103D10009A83898305C089819A8101969A838983D0
:103D2000E981FA8180818032B1F3E981FA81808171
:103D3000893089F389819A810F900F90CF91DF911B
:103D40000895DF93CF930F920F92CDB7DEB781E046
:103D500090E064E270E00E94B4829A838983898152
:103D60009A81009731F0E981FA818BE090E09383AA
:103D7000828389819A810F900F90CF91DF9108956E
:103D8000DF93CF9300D000D0CDB7DEB79C838B8379
:103D90008091370A9091380A009731F08091370A64
:103DA0009091380A0E940E838B819C81009741F18B
:103DB0008B819C810E94ADC79A83898389819A8176
:103DC0000097F1F089819A8101960E94EA8290938E
:103DD000380A8093370A8091370A9091380A009701
:103DE00051F08091370A9091380A2B813C81B901BA
:103DF0000E94A6C709C08FEF9FEF9E838D8306C0E8
:103E00001092380A1092370A1E821D828D819E817F
:103E100026960FB6F894DEBF0FBECDBFCF91DF91CF
:103E20000895DF93CF9300D00F92CDB7DEB76983AB
:103E30007A838B839C8389819A81AB81BC818093B7
:103E4000320990933309A0933409B09335090F9048
:103E50000F900F900F90CF91DF910895DF93CF9344
:103E6000CDB7DEB78091320990913309A091340922
:103E7000B0913509BC01CD01CF91DF910895DF9359
:103E8000CF9300D000D0CDB7DEB79A8389837C83EF
:103E90006B83E981FA8180819181009719F505C0D2
:103EA0008B819C8101969C838B83EB81FC8180813B
:103EB0008032B1F3EB81FC818081893089F38B8181
:103EC0009C810E942283E981FA8191838083E98128
:103ED000FA8180819181009729F48FEF9FEF9E8373
:103EE0008D8302C01E821D828D819E8126960FB613
:103EF000F894DEBF0FBECDBFCF91DF9108950F9331
:103F00001F93DF93CF93CDB7DEB729970FB6F89401
:103F1000DEBF0FBECDBF9D838C837F836E831B82EC
:103F20001A821982EE81FF8110828C819D810E940C
:103F3000FA759A83898389819A818D309105A9F3D5
:103F400089819A818A30910509F079C0198618868D
:103F500083C089819A812FEF8F3F920709F478C03F
:103F600089819A818A30910509F472C089819A8188
:103F70008A33910509F050C0EE81FF818081282F9E
:103F800030E0C901880F991F820F931FFC01E5548F
:103F9000FC4F90818B81981709F45AC0EE81FF8104
:103FA0008FEF808355C0EE81FF818081282F30E024
:103FB000C901880F991F820F931FFC01E554FC4F24
:103FC00090818B81891708F5EE81FF818081282FF0
:103FD00030E0C901880F991F820F931FFC01E45440
:103FE000FC4F208131818B81882F90E0F901E80F0F
:103FF000F91F8081082F112707FD109589819A816B
:104000000E9420C70817190761F0EE81FF818081A7
:104010008F5FEE81FF818083EE81FF8180818A3016
:1040200010F28B818F5F8B838C819D810E94FA754A
:104030009A83898389819A818D309105A9F38B8137
:10404000813130F4EE81FF8180818A3008F481CFA4
:1040500089819A81998788878885998529960FB65D
:10406000F894DEBF0FBECDBFCF91DF911F910F91AE
:104070000895DF93CF9300D00F92CDB7DEB79C8326
:104080008B838B819C810E94FA759A8389838981B5
:104090009A812FEF8F3F920729F089819A818A3088
:1040A000910579F70F900F900F900F90CF91DF91BE
:1040B0000895DF93CF93CDB7DEB761970FB6F8942D
:1040C000DEBF0FBECDBF9B878A877D876C8780E070
:1040D00091E00E94EA829A83898389819A8100977C
:1040E00009F4F6C08A859B859E01275F3F4FB90181
:1040F0000E947F1F9E838D838D819E812FEF8F3F36
:10410000920709F4E1C08D819E81009739F489817D
:104110009A810E940E83198A188ADEC08D819E8141
:104120008A33910519F489858A3028F08A859B8520
:104130000E943920D7CF89819A812A853B8560E00A
:1041400071E0A9010E945876009709F4BDC08981E9
:104150009A816AE070E00E9492C798878F838F816E
:104160009885009729F48A859B850E943920BACFCB
:10417000EF81F88510822F81388589819A81821795
:10418000930768F48F819885019798878F83EF81D3
:10419000F88580818D3019F4EF81F88510821C82BA
:1041A0001B828985282F30E03F872E878E859F854B
:1041B0008530910509F455C02E853F85263031059F
:1041C000D4F48E859F858130910591F12E853F85B0
:1041D000223031052CF48E859F85009719F165C03A
:1041E0002E853F852330310549F18E859F858430AA
:1041F000910589F15AC02E853F8527303105E9F1B7
:104200008E859F858730910594F12E853F852830D6
:10421000310509F43FC08E859F858930910509F4E9
:104220003FC043C08C859D8582969C838B833DC017
:104230008C859D8540969C838B8337C089819A812C
:104240000E94E8C6DC01CB01EC85FD858483958363
:10425000A683B7832AC08C859D850C969C838B830F
:1042600024C08C859D850E969C838B831EC08C8577
:104270009D854E969C838B8318C089819A810E946C
:104280000826DC01CB01EC85FD85808F918FA28F04
:10429000B38F0BC08C859D854C969C838B8305C00A
:1042A0008C859D8542969C838B838B819C81009716
:1042B00009F418CF8B819C8129813A81B9010E9430
:1042C0003F1F009709F40ECF89819A810E940E83C7
:1042D0002FEF3FEF398B288B8889998961960FB62C
:1042E000F894DEBF0FBECDBFCF91DF910895DF936D
:1042F000CF93CDB7DEB72C970FB6F894DEBF0FBEC5
:10430000CDBF9C878B871A86198618861F82898560
:104310009A850E9443230E94A11E9A8789878985D6
:104320009A85009709F413C18F819885009721F031
:104330008F8198850E940E8380E091E00E94EA823E
:1043400098878F838F819885009709F400C18F81AA
:1043500098852B853C8560E071E0A9010E94587624
:10436000009709F4F4C08F8198856DE070E00E9499
:1043700092C79A83898389819A81009719F0E9818C
:10438000FA8110828F8198856AE070E00E9492C75E
:104390009A83898389819A81009719F0E981FA814A
:1043A00010828B859C8529853A85B9010E94592008
:1043B000009709F0CCC08F8198850E94601E9E8373
:1043C0008D838D819E810E94601E9C838B838B8157
:1043D0009C810E94601E8F81988525EC35E0B90193
:1043E0000E9474C7009739F4E985FA8581E090E06E
:1043F000918380832AC08F81988529EC35E0B901AB
:104400000E9474C7009739F4E985FA8583E090E04B
:10441000918380831AC08F8198852EEC35E0B90195
:104420000E9474C7009739F4E985FA8582E090E02C
:10443000918380830AC08B859C8529853A85B90143
:1044400045EF51E00E943C1982C0ED81FE818081E0
:10445000882329F0EB81FC818081882351F48B85AE
:104460009C8529853A85B90140E951E00E943C19B3
:104470006EC08B819C8123ED35E0B9010E9474C729
:10448000009731F4E985FA858AE090E0938382838E
:10449000E985FA8581E090E091A380A38D819E81DA
:1044A0006FE370E00E9492C79A83898389819A8121
:1044B0000097D1F0E981FA81108289819A81019671
:1044C0009A83898389819A810E942283E985FA856A
:1044D00093878287E985FA85828593850097B9F16C
:1044E00089859A850E944B1B8D819E810E94228323
:1044F000E985FA8591878087E985FA8580859185A8
:10450000009729F1E985FA85808591850E947C2AAA
:10451000009751F48B859C8529853A85B90140E93E
:1045200051E00E943C1907C08B859C8529853A85FE
:10453000B9010E94651C8B859C850E94F572E985F6
:10454000FA8580A191A18130910509F0E0CE89859D
:104550009A850E9443238F819885009721F08F814F
:1045600098850E940E832C960FB6F894DEBF0FBE7E
:10457000CDBFCF91DF9108950F931F93DF93CF931A
:10458000CDB7DEB72E970FB6F894DEBF0FBECDBF06
:1045900098878F837A8769878091370A9091380A44
:1045A000009739F08091370A9091380A9E878D875D
:1045B00004C085E596E09E878D878D859E859E83C8
:1045C0008D838F8198850E94ADC79C838B838D815D
:1045D0009E810E94ADC79C018B819C818901080F3F
:1045E000191F89859A850E94ADC7800F911F01967A
:1045F0000E94EA829A83898389819A810097B1F126
:1046000089819A812D813E81B9010E94A6C7898145
:104610009A812F813885B9010E9487C7E985FA857B
:104620008081882319F18B819C81009769F08B81AF
:104630009C819C01215030408F819885FC01E20FC4
:10464000F31F80818F3229F481E090E09C878B8773
:1046500002C01C861B862B853C8589859A85280F80
:10466000391F89819A81B9010E9487C789819A81FE
:104670002E960FB6F894DEBF0FBECDBFCF91DF915F
:104680001F910F910895DF93CF930F920F92CDB7A3
:10469000DEB79A83898389819A81009709F47CC067
:1046A000E981FA8180859185009731F0E981FA816D
:1046B000808591850E940E83E981FA8182859385A8
:1046C000009731F0E981FA81828593850E940E83FB
:1046D000E981FA8184859585009731F0E981FA8135
:1046E000848595850E940E83E981FA818685978568
:1046F000009731F0E981FA81868597850E940E83C3
:10470000E981FA8180899189009731F0E981FA8104
:10471000808991890E940E83E981FA818289938937
:10472000009731F0E981FA81828993890E940E8392
:10473000E981FA8184899589009731F0E981FA81CC
:10474000848995890E940E83E981FA81848D958DF3
:10475000009731F0E981FA81848D958D0E940E8356
:10476000E981FA81868D978D009731F0E981FA8190
:10477000868D978D0E940E83E981FA8182A193A193
:10478000009731F0E981FA8182A193A10E940E8302
:1047900089819A810E940E830F900F90CF91DF91B3
:1047A0000895DF93CF930F920F92CDB7DEB79A8320
:1047B000898305C089819A8101969A838983E981D9
:1047C000FA8180818032B1F3E981FA818081893078
:1047D00089F389819A810F900F90CF91DF9108958D
:1047E000DF93CF9300D00F92CDB7DEB79A83898342
:1047F0007C836B83EB81FC811182108228C0EB816A
:10480000FC81808191819C01220F331FC901880F97
:10481000991F880F991F820F931FEB81FC81918351
:104820008083EB81FC8120813181E981FA81808163
:10483000992787FD9095C097820F931FEB81FC818C
:104840009183808389819A8101969A838983E98102
:10485000FA818081882F90E0C0978A30910578F2A4
:1048600089819A810F900F900F900F90CF91DF91D7
:104870000895DF93CF9300D00F92CDB7DEB79A8320
:1048800089837C836B8389819A812B813C81B901E7
:104890000E94F0239A838983EB81FC81808191813E
:1048A000863491055CF4EB81FC81808191818C5987
:1048B0009F4FEB81FC819183808312C0EB81FC814F
:1048C0008081918127E08D36920754F0EB81FC8145
:1048D000808191818C569740EB81FC81918380830C
:1048E00089819A810F900F900F900F90CF91DF9157
:1048F0000895DF93CF9300D00F92CDB7DEB79A83A0
:1049000089837C836B83E981FA8180818134E9F436
:1049100089819A8101969A838983E981FA818081CC
:10492000803729F0E981FA818081803539F4EB8183
:10493000FC8183E090E091838083AAC0EB81FC81BD
:1049400087E090E091838083A3C0E981FA81808130
:10495000843439F4EB81FC818BE090E09183808397
:1049600097C0E981FA818081863439F4EB81FC813A
:1049700081E090E0918380838BC0E981FA8180811E
:104980008A34B1F589819A8101969A838983E98174
:10499000FA818081813629F0E981FA818081813430
:1049A00029F4EB81FC811182108272C0E981FA81C5
:1049B00080818823B1F089819A8101969A838983C5
:1049C000E981FA8180818C3629F0E981FA81808140
:1049D0008C3439F4EB81FC8186E090E09183808314
:1049E00057C0EB81FC8185E090E09183808350C0CB
:1049F000E981FA8180818D3439F589819A81019626
:104A00009A838983E981FA8180818136B1F4898131
:104A10009A8101969A838983E981FA81808182371C
:104A200029F0E981FA818081823539F4EB81FC81BA
:104A300082E090E0918380832BC0EB81FC8184E055
:104A400090E09183808324C0E981FA8180818E3453
:104A500039F4EB81FC818AE090E09183808318C077
:104A6000E981FA8180818F3439F4EB81FC8189E01E
:104A700090E0918380830CC0EB81FC8188E090E022
:104A80009183808305C089819A8101969A83898365
:104A9000E981FA818081882F90E00E9411C70097F8
:104AA00091F789819A810F900F900F900F90CF917D
:104AB000DF910895DF93CF93CDB7DEB728970FB678
:104AC000F894DEBF0FBECDBF9A8389837C836B834E
:104AD0005E834D8338872F8389819A812B813C8126
:104AE000B9010E94F0239A83898305C089819A8144
:104AF00001969A838983E981FA818081882349F02C
:104B0000E981FA818081882F90E00E9411C7009787
:104B100069F389819A812D813E81B9010E947924AE
:104B20009A83898305C089819A8101969A838983B2
:104B3000E981FA818081882349F0E981FA818081C5
:104B4000882F90E0C0978A30910568F789819A8113
:104B50002F813885B9010E9439249A8389838981FC
:104B60009A8128960FB6F894DEBF0FBECDBFCF91C5
:104B7000DF910895DF93CF93CDB7DEB728970FB6B7
:104B8000F894DEBF0FBECDBF9A8389837C836B838D
:104B90005E834D8338872F8389819A812B813C8165
:104BA000B9010E94F0239A838983E981FA81808187
:104BB0008A33F9F489819A8101962D813E81B90168
:104BC0000E94F0239A838983E981FA8180818A3364
:104BD00059F489819A8101962F813885B9010E9403
:104BE000F0239A83898309C0EF81F88511821082AE
:104BF00004C0ED81FE811182108289819A812896FC
:104C00000FB6F894DEBF0FBECDBFCF91DF910895F0
:104C1000DF93CF93CDB7DEB768970FB6F894DEBFBA
:104C20000FBECDBF9C8B8B8B82E1FE013196DF01E5
:104C3000982F1D929A95E9F781E090E098878F83ED
:104C40008B899C890E94D1239C8B8B8BEB89FC895F
:104C50008081882F90E00E9411C70097D9F005C08D
:104C60008B899C8901969C8B8B8BEB89FC8980813D
:104C7000882351F0EB89FC898081803229F0EB890F
:104C8000FC898081893061F78B899C890E94D123BE
:104C90009C8B8B8BEB89FC898081882F90E00E9414
:104CA00011C7009709F441C08B899C899E01275F39
:104CB0003F4FB9010E9479249C8B8B8B8B899C89F7
:104CC0000E94D1239C8B8B8B8B899C899E01295FB1
:104CD0003F4FB9010E94F0239C8B8B8B8B899C8961
:104CE0000E94D1239C8B8B8B8B899C899E01255F95
:104CF0003F4FB9010E9439249C8B8B8B8B899C89F7
:104D00000E94D1239C8B8B8B8B899C899E012B5F6E
:104D10003F4FAE014D5F5F4FB9019E012F5F3F4F87
:104D20000E94BA259C8B8B8B2BC0EB89FC898081E0
:104D3000882331F18B899C899E01295F3F4FAE0109
:104D4000475F5F4FFE013B96B9019F010E945A25C4
:104D50009C8B8B8B8B899C890E94D1239C8B8B8B0A
:104D60008B899C899E012B5F3F4FAE014D5F5F4F4A
:104D7000B9019E012F5F3F4F0E94BA259C8B8B8B00
:104D80008B899C890E94D1239C8B8B8B8B899C89DE
:104D90002DEC36E0B9010E949DC7009759F4CE0171
:104DA00001960E94F97DDC01CB018D8B9E8BAF8B30
:104DB000B88F0AC0CE0101960E94107EDC01CB01A3
:104DC0008D8B9E8BAF8BB88F8D899E89AF89B88D67
:104DD000BC01CD0168960FB6F894DEBF0FBECDBF03
:104DE000CF91DF910895CF92DF92EF92FF920F93D0
:104DF0001F93DF93CF930F920F92CDB7DEB79A83B5
:104E00008983E981FA8184859585880F991FFC0142
:104E1000E958F94FE080F180E981FA81C680D780B6
:104E2000E981FA8180859185880F991FFC01EB54F7
:104E3000F94F20813181E981FA8182859385AC0126
:104E40004459584FE981FA8164817581E981FA8179
:104E5000A281B381E981FA81008111818DB79EB76A
:104E600042970FB6F8949EBF0FBE8DBFEDB7FEB749
:104E7000319686E399E09183808381ED96E0938378
:104E80008283F582E482D782C68231872087538766
:104E9000428775876487B787A687118B008B0E942E
:104EA00032788DB79EB742960FB6F8949EBF0FBE6C
:104EB0008DBF86E399E00F900F90CF91DF911F9106
:104EC0000F91FF90EF90DF90CF900895DF93CF93F5
:104ED00000D000D0CDB7DEB79C838B837E836D83FB
:104EE00080915609909157099A83898328C08B81B4
:104EF0009C81009779F0E981FA81228133818B814D
:104F00009C81B9010E94E7C79C018B819C81281775
:104F1000390779F48D819E810097A9F0E981FA81A2
:104F2000248135818D819E81B9010E949DC70097A2
:104F300051F0E981FA81808191819A838983898105
:104F40009A810097A1F689819A8126960FB6F894E6
:104F5000DEBF0FBECDBFCF91DF910895DF93CF931A
:104F6000CDB7DEB728970FB6F894DEBF0FBECDBF22
:104F70009C838B837E836D8386E090E00E94EA822F
:104F80009A83898389819A810097B9F18091560922
:104F900090915709E981FA81918380838B819C816B
:104FA0000E942283E981FA8193838283E981FA81D5
:104FB000828193810097E9F08D819E810E942283F6
:104FC000E981FA8195838483E981FA8184819581DD
:104FD000009749F089819A819093570980935609E7
:104FE00018861F820EC0E981FA81828193810E9416
:104FF0000E8389819A810E940E838FEF9FEF98879D
:105000008F838F81988528960FB6F894DEBF0FBEE8
:10501000CDBFCF91DF910895DF93CF930F920F9281
:10502000CDB7DEB71EC080915609909157099A837B
:105030008983E981FA8180819181909357098093D6
:105040005609E981FA81828193810E940E83E98168
:10505000FA81848195810E940E8389819A810E94C0
:105060000E8380915609909157090097E1F60F90B1
:105070000F90CF91DF910895DF93CF93CDB7DEB737
:1050800028970FB6F894DEBF0FBECDBF98878F83E9
:105090001C821B828FEF9FEF9A838983EF81F885B3
:1050A000808591859E838D838D819E816FE270E0E6
:1050B0000E94DCC79C838B838B819C81009721F0AD
:1050C000EB81FC81108204C081EF96E09E838D838A
:1050D0008D819E8160E070E00E946627009759F103
:1050E000EF81F88580899189009739F1EF81F88502
:1050F0008089918923EF36E0B90146E050E00E94B3
:10510000CEC70097D1F4EF81F88580899189069602
:105110000E94206BEF81F885808991899C012A5F2C
:105120003F4F8D819E81B9010E946627009729F02B
:105130001A82198202C01A8219828B819C8100977F
:1051400021F0EB81FC818FE2808389819A8128960E
:105150000FB6F894DEBF0FBECDBFCF91DF9108959B
:10516000DF93CF930F920F92CDB7DEB79A838983E7
:1051700080915A0990915B09009731F080915A090A
:1051800090915B090E940E8389819A810E942283FB
:1051900090935B0980935A090F900F90CF91DF9104
:1051A0000895DF93CF93CDB7DEB72E970FB6F8945F
:1051B000DEBF0FBECDBF98878F837A8769878091C6
:1051C0005A0990915B09009739F080915A099091A2
:1051D0005B099E878D8704C08AEF96E09E878D8746
:1051E0008D859E859A8389834DC089819A81019698
:1051F0009A838983E981FA8180818B33B1F31E829E
:105200001D8289819A819C838B830AC08D819E81B6
:1052100001969E838D838B819C8101969C838B83D9
:10522000EB81FC818081882329F0EB81FC818081E6
:105230008B3361F78D819E81009721F1E985FA8595
:105240008085918529813A814D815E81B9010E94D5
:10525000B6C7009779F42D813E818F819885498565
:105260005A85BA01A9010E94C22981E090E09C8779
:105270008B8710C089819A812D813E81820F931F77
:105280009A838983E981FA818081882309F0B2CFEA
:105290001C861B868B859C852E960FB6F894DEBFE8
:1052A0000FBECDBFCF91DF910895DF93CF93CDB7E0
:1052B000DEB72A970FB6F894DEBF0FBECDBF9E8330
:1052C0008D8378876F8381E090E09C838B838091CE
:1052D0005809909159099A83898314C0E981FA8108
:1052E000228133818D819E81B9010E949DC70097E3
:1052F00019F41C821B820AC0E981FA8180819181A4
:105300009A83898389819A81009741F78B819C8157
:10531000009751F086E090E00E94EA829A838983A8
:1053200089819A81009729F48FEF9FEF9A87898767
:105330001EC08091580990915909E981FA819183A1
:1053400080838D819E810E942283E981FA819383EB
:105350008283E981FA818F8198859583848389810D
:105360009A8190935909809358091A8619868985DC
:105370009A852A960FB6F894DEBF0FBECDBFCF91A7
:10538000DF910895DF93CF93CDB7DEB728970FB69F
:10539000F894DEBF0FBECDBF9C838B837E836D836D
:1053A00058874F83ED81FE81808191818130910505
:1053B00089F0ED81FE81808191818230910551F0EB
:1053C0008B819C812D813E81B90145EF51E00E9486
:1053D0003C1947C080915809909159099A83898353
:1053E00018C0E981FA8142815381ED81FE812085D7
:1053F00031858F819885280F391FCA01B9010E9414
:1054000074C7009751F0E981FA81808191819A8374
:10541000898389819A81009721F789819A810097F0
:1054200051F48B819C812D813E81B90144E951E089
:105430000E943C1916C0E981FA810480F581E02DB3
:105440008B819C812D813E81B9011995009749F08E
:105450008B819C812D813E81B90144EF51E00E94F6
:105460003C1928960FB6F894DEBF0FBECDBFCF9182
:10547000DF910895DF93CF9300D0CDB7DEB7898356
:10548000898180336CF089818A3354F4898199272A
:1054900087FD90959C01205330403B832A8324C094
:1054A000898181366CF08981873654F48981992706
:1054B00087FD90959C01275530403B832A8314C07B
:1054C000898181346CF08981873454F489819927EA
:1054D00087FD90959C01275330403B832A8304C06D
:1054E0008FEF9FEF9B838A838A819B810F900F9020
:1054F0000F90CF91DF910895DF93CF93CDB7DEB7B3
:105500002D970FB6F894DEBF0FBECDBF9B878A875D
:105510008A859B859D838C838A859B859B838A83D3
:10552000EA85FB858081898389818F3209F460C097
:105530001D861C866FC0EC81FD818081853291F5CE
:105540008C819D81FC01319680810E943A2A998745
:1055500088878885998599232CF18C819D81FC0110
:10556000329680810E943A2A9F838E838E819F810A
:105570009923C4F08C819D8102969D838C838885BC
:10558000998582959295907F9827807F9827982F6C
:105590008E81890FEC81FD818083EC81FD8180818A
:1055A000882389F1EC81FD8180818C3521F4EC81A7
:1055B000FD818FE2808389818E3219F089818F325B
:1055C00051F4EC81FD8180818E3291F0EC81FD817E
:1055D00080818F3269F0EC81FD8180818983EA814D
:1055E000FB81898180838A819B8101969B838A8349
:1055F0008C819D8101969D838C83EC81FD818081CE
:10560000882309F098CFEA81FB8110828A859B85E7
:105610009D878C878C859D852D960FB6F894DEBF6F
:105620000FBECDBFCF91DF910895DF93CF9300D010
:105630000F92CDB7DEB79C838B830FC0E981FA81CF
:10564000208131818B819C81FC01E35BFF4F3183A1
:10565000208389819A810E94469E8B819C81FC01D6
:10566000E35BFF4F808191819A83898389819A814D
:10567000009721F70CC0E981FA8180819181EB814B
:10568000FC8191AF80AF89819A810E94469EEB8117
:10569000FC8180AD91AD9A83898389819A8100973D
:1056A00051F70FC0E981FA81208131818B819C8182
:1056B000FC01EF5AFF4F3183208389819A810E9438
:1056C000469E8B819C81FC01EF5AFF4F8081918126
:1056D0009A83898389819A81009721F70F900F908F
:1056E0000F900F90CF91DF910895DF93CF9300D06B
:1056F00000D0CDB7DEB79E838D8380915C099091F9
:105700005D099C838B838CE599E09A8389831AC019
:105710002B813C818D819E812817390749F4EB81CB
:10572000FC8180819181E981FA81918380830EC01F
:105730008B819C819A838983EB81FC81808191811B
:105740009C838B838B819C81009711F78B819C813B
:10575000009701F18D819E810E94152BED81FE81C4
:1057600085859685009751F0ED81FE81878590892A
:105770000E940E83ED81FE81168615868D819E81A5
:1057800060E070E043E750E00E946DC78D819E812C
:105790000E940E8326960FB6F894DEBF0FBECDBFD3
:1057A000CF91DF910895DF93CF93CDB7DEB72C97DC
:1057B0000FB6F894DEBF0FBECDBF9E838D83788772
:1057C0006F8329873A874B875C871A821982809179
:1057D0005C0990915D099C838B8331C0EB81FC81D6
:1057E000208D318D8D819E812817390711F5EB8130
:1057F000FC81228D338D448D558D89859A85AB85AD
:10580000BC85281739074A075B0799F4EB81FC81AF
:10581000268D378D8F8198852817390751F4EB81B4
:10582000FC818389882329F08B819C819A838983D9
:105830000AC0EB81FC81808191819C838B838B8169
:105840009C81009759F689819A81009721F5809172
:105850005C0990915D099C838B8319C0EB81FC816D
:105860008389813071F4EB81FC81208D318D8D81B4
:105870009E812817390729F48B819C819A8389831B
:105880000AC0EB81FC81808191819C838B838B8119
:105890009C81009719F789819A812C960FB6F8940C
:1058A000DEBF0FBECDBFCF91DF910895DF93CF93C1
:1058B00000D00F92CDB7DEB71A82198280915E09AF
:1058C000882391F426EF32E486E0B9010E94EF3993
:1058D000009721F40E944D5B009719F01C821B82F7
:1058E0008DC081E080935E0981E090E063E770E025
:1058F0000E94B4829A83898389819A81009709F4EE
:1059000079C0E981FA81138AE981FA8184E084838C
:10591000E981FA8180E293E396838583E981FA81C4
:105920008EE893E390878783E981FA818BE595E39D
:1059300092878187E981FA8189EA95E39487838751
:105940000E94DD97DC01CB01E981FA8181A392A35A
:10595000A3A3B4A3E981FA8181A192A1A3A1B4A1D7
:10596000E981FA8185A396A3A7A3B0A7E981FA816B
:1059700081A192A1A3A1B4A1E981FA8181A792A7F3
:10598000A3A7B4A789819A81FC01EC5BFF4F80E952
:105990009CE09183808389819A81FC01E85BFF4FC1
:1059A00080E99CE09183808389819A81FC01ED5A92
:1059B000FF4F88E192E09183808389819A81FC0185
:1059C000E75AFF4F88EE93E09183808380915C09D2
:1059D00090915D09E981FA8191838083E981FA815F
:1059E00088E192E0928B818B89819A8190935D0905
:1059F00080935C0989819A819C838B838B819C81B4
:105A00000F900F900F900F90CF91DF910895DF933B
:105A1000CF93CDB7DEB72E970FB6F894DEBF0FBE8B
:105A2000CDBF9C838B837E836D8358874F833A875A
:105A300029878FEF9FEF9A8389838B819C810097C1
:105A400029F48FEF9FEF9C878B870BC18D819E81FF
:105A50009E878D878D859E8520E18230920709F48F
:105A600052C08D859E8520E1833092076CF48D8530
:105A70009E8582309105B9F08D859E8520E181302B
:105A8000920709F4BBC0E0C08D859E8520E185307A
:105A9000920709F469C08D859E8520E186309207C2
:105AA00009F487C0D1C08F819885009729F0898536
:105AB0009A858230910551F08B819C81FC01EF59D0
:105AC000FF4F86E190E091838083C7C0EB81FC812A
:105AD0008389882351F08B819C81FC01EF59FF4F12
