:100000000C9473000C94D7000C94D7000C94D70078
:100010000C94D7000C94D7000C94D7000C94991131
:100020000C94D7000C94D7000C94D7000C94D700F4
:100030000C94D7000C94D7000C94D7000C94200C8F
:100040000C94D7000C94D7000C9402120C94CC1290
:100050000C946A120C94D7000C94D7000C94D7001F
:100060000C94D7000C94D7000C94D7000C94D700B4
:100070000C94D7000C94D7000C94D7000C94D700A4
:100080000C94D7000C94D7000C94D7006014631420
:1000900066146E147114741477147A148114AC14E9
:1000A000D114D614DB14E014E514EF14F314F61491
:1000B00000150A155D145D145D145D142E153115BF
:1000C00034154515481552155D1455155D15601507
:1000D00068156B15731576157E155D145D145D142A
:1000E0005D140E151C1580EC85BF85E388BB8FE37E
:1000F00087BB88EE82BB80EB81BB8EE083B982E058
:1001000082B980EF809362008FE0809361008FE17D
:100110008093650087E080936400479A1092710095
:1001200081E4809370008FE589B980939900112450
:100130001FBECFEFD0E1DEBFCDBF13E0A0E0B1E046
:10014000E0E4FDE300E00BBF02C007900D92A8328F
:10015000B107D9F713E0A8E2B3E001C01D92A836B9
:10016000B107E1F78FEF9FE79EBF8DBF8FEF9FE74E
:10017000885693408158914050F04FEF5EE74856C3
:1001800053408FE393E068E673E00E949C020E9474
:10019000780A85E192E06FEA71E040E050E020E803
:1001A00031E00E94E00A0E9400000C949E1E0C9414
:1001B0000000DF93CF9300D000D0CDB7DEB780E052
:1001C00092ECA1E0B0E089839A83AB83BC838AE39D
:1001D00092E060E070E040E00E943B0A4091D00273
:1001E0005091D10280E091E066E071E00E94E71852
:1001F0008091D0029091D1020E94851861E071E057
:10020000AE014F5F5F4F0E94701888E091E00E943E
:100210006A1981E291E00E946A1988E293E00E94E3
:1002200055098DE391E06AE771E040E050E020E09D
:1002300031E00E94E00A82E491E061E571E040E093
:1002400050E020E031E00E94E00A86E491E00E9464
:100250006A1988E293E048EE53E060E070E00E94A3
:10026000AA09892B29F087E591E00E946A1912C03A
:1002700088E691E00E946A196CED75E080E090E0FC
:100280000E946B078AE791E00E946A1988E293E076
:100290000E94550968EE73E080E090E00E946B07D1
:1002A000D4CF80E60E94F3048BE891E00E946A19A3
:1002B00088E293E048EB5BE060E070E00E94AA090E
:1002C000892B29F085EA91E00E946A19EDCF8FEB26
:1002D00091E00E946A196CEA7DE080E090E00E9463
:1002E0006B078AED91E00E946A1988E293E00E9410
:1002F0005509DACF80E20E94F30484EF91E00E9476
:100300006A1988E293E040ED57E060E070E00E94F7
:10031000AA09892B29F08CEF91E00E946A1912C07A
:1003200084E092E00E946A1964EC79E080E090E059
:100330000E946B078DE092E00E946A1988E293E0C8
:100340000E94550968EE73E080E090E00E946B0720
:10035000D4CF90911F0280931F02892F08950E948D
:1003600048088AE192E069ED70E040E050E020E06A
:1003700033E00E94E00A8EEF0E94F3040E947305AE
:100380000E94BB0420911F022F3FC1F395B785B790
:10039000837E822B85BF85B7806285BF889585B7B0
:1003A0008F7D85BF85B79C71837E982B95BFE6CFE7
:1003B000CF93DF93DC016E5F7F4F6430710510F4E3
:1003C00064E070E06F5F7F4F6E7FED91FC9111975D
:1003D000AD01A0E0B0E0C0E0D0E01BC020813181E1
:1003E0002617370780F0109731F08D919C91119767
:1003F0002817390740F42617370719F4DF01EA01F7
:100400000DC0DF01EA01AF014E5F5F4F0280F38153
:10041000E02D309719F79D011097F1F08D919C9187
:100420001197861B970B12962D913C911397843050
:10043000910568F0FD01E60FF71F918380833383F8
:10044000228311967C936E93F983E88302C03983EB
:1004500028839D012E5F3F4FC901DF91CF91089501
:10046000CF93DF93EC016115710519F42DEF3FEF88
:100470005FC0DB011297E881F9814FC02081318193
:10048000CF01820F931F8A179B07E9F46D917C912E
:10049000620F731F71836083DF01A60FB71F828114
:1004A0009381A817B90709F041C08D919C911197CC
:1004B000680F791F7183608312968D919C911397B9
:1004C0009383828333C0AE17BF07E0F4B983A88358
:1004D0004D915C911197CD01840F951F8E179F0749
:1004E00061F4240F351F11963C932E9382819381E2
:1004F00013969C938E93129719C01396FC93EE93C8
:10050000129714C0A817B90718F42FEF3FEF10C0C7
:10051000EF0122960280F381E02D309709F0AECFF3
:1005200013961C921E921297B983A88320E030E0A4
:10053000C901DF91CF9108956F5F7F4FFB01EE7F7F
:1005400061507040640F751F6E1B7F0B6E7F61934F
:100550007193BF010E9430020895FC010190F08167
:10056000E02D20E030E008C0808191810297280FC3
:10057000391F0280F381E02D3097B1F7C90108954A
:10058000FC010190F081E02D20E030E009C0808185
:1005900091812817390708F49C010280F381E02D2E
:1005A0003097A9F722503040C901089580E090E0CB
:1005B0000895EF92FF920F931F93CF93DF938C01D7
:1005C000C0913F03D091400380E2E82E82E0F82EF4
:1005D00026C08DB79EB708970FB6F8949EBF0FBE82
:1005E0008DBFEDB7FEB73196ADB7BEB712961C936F
:1005F0000E931197F382E282D583C4838881998117
:10060000978386830E9459190A80DB81C02D8DB79C
:100610009EB708960FB6F8949EBF0FBE8DBF209769
:10062000C1F6DF91CF911F910F91FF90EF90089548
:10063000AF92BF92CF92DF92EF92FF920F931F93F0
:10064000CF93DF936C017B016115710529F4BA0129
:100650000E94D8017C018FC04115510531F40E94E0
:100660003002892B09F487C061C08B010250104011
:100670004E5F5F4F4430510510F444E050E0EA0112
:100680002196CE7FF801208131812C173D0708F09B
:100690005FC0F601A081B181560109C092E0A92E88
:1006A000B12CAA0EBB1E12960D90BC91A02D1097D6
:1006B000B1F1A017B10790F36AC0C801820F931F70
:1006C0008A179B0761F5CA01861B970B0497D0F028
:1006D000260F371FE80139832883FD01E60FF71F36
:1006E000E501F983E88312968D919C91139793838A
:1006F0008283E881F9818D919C91861B970B918370
:10070000808339C0420F531FF801518340831296F2
:100710008D919C911397E501998388832CC0C60124
:10072000BE010E94D801EC01009719F4EE24FF24C9
:1007300022C0F8012081318122503040B701A90147
:100740000E94591EC601B7010E9430027E0113C0EB
:10075000C9010497C817D90770F42C1B3D0BF80189
:10076000EC0FFD1F21933193C601BF010E9430029F
:10077000F801D183C083C701DF91CF911F910F9101
:10078000FF90EF90DF90CF90BF90AF900895BE01A3
:10079000621B730B4D915C9111974617570708F038
:1007A0008CCFBDCF0F931F93CF93DF93162F072FBF
:1007B0000E94D801EC01009731F060E070E0412F19
:1007C000502F0E94621ECE01DF91CF911F910F9199
:1007D0000895CF93DF93DC01EB0158967C936E93E1
:1007E000579715961C921E9214970FB6F8940F9275
:1007F000E881F9818FEFEF3FF80761F414968D914E
:100800009C911597019615969C938E931497E0E012
:10081000F0E015C0309799F00F900FBE52969C9162
:10082000529707C0EF0122960280F381E02D3097A6
:1008300019F082899817B0F70FB6F8940F921396B3
:10084000FC93EE931297B983A8831296ED91FC91D5
:100850001397309791F084819581892B71F01496CC
:100860002D913C91159784819581820F931F159648
:100870009C938E931497158214820F900FBEDF9174
:10088000CF910895CF93DF93DC01EB010FB6F8947D
:100890000F92E881F9810F900FBE8FEFEF3FF807BD
:1008A00099F534C0EA17FB0751F50FB6F8940F928B
:1008B00012968D919C9113979983888314968D91AC
:1008C0009C911597892B81F01296ED91FC911397CD
:1008D000309731F014968D919C9115979583848370
:1008E00015961C921E9214970F900FBE13961C9291
:1008F0001E92129758961C921E92579707C0EF01AE
:1009000022960280F381E02D309761F6DF91CF913E
:100910000895FB01168A158A82E08787CB0163E47C
:1009200073E00E94E90308950F931F93CF93DF9321
:100930008C010097B1F0C0914103D09142030CC0EB
:10094000CE010696B8010E94691E009711F49E011F
:100950000CC00990D881C02D209791F720E030E09D
:1009600004C02091450330914603C901DF91CF9126
:100970001F910F910895E0914703F091480330973C
:1009800051F0638974898FE393E00E9430021092E2
:100990004803109247030895CF93DF93C09141031A
:1009A000D09142030E94BB044091450350914603FD
:1009B000E1E4F3E00BC028813981C417D50719F4AD
:1009C0002083318305C0FE01C901EC01209799F70E
:1009D0008091450390914603909348038093470389
:1009E000DF91CF9108950F931F93182FE091450346
:1009F000F09146030289CF0163E473E00E94420450
:100A0000E0914503F0914603128B1F3F31F0CF0177
:100A100063E473E00E94E90302C00E94CC04E09109
:100A20004503F09146038091430390914403E817F6
:100A3000F90719F481E0878709C082E087870FB63C
:100A4000F8940F920E94A50A0F900FBE802F1F915D
:100A50000F9108958FEF0E94F3040895CF93DF93D1
:100A6000C0914103D091420320C00FB6F8940F9279
:100A70008C819D810F900FBE892BA1F0EF89F88D9D
:100A80000FB6F8940F928C819D8101979D838C8382
:100A90000F900FBE808191818F5F9F4F19F0CF0122
:100AA0000E94C0080990D881C02D2097F1F60E94BD
:100AB000BA07E0914503F09146038091430390917A
:100AC0004403E817F90761F08785813011F482E06B
:100AD00087870FB6F8940F920E94A50A0F900FBE59
:100AE000DF91CF910895E0914503F0914603828113
:100AF0009381892B69F0CF0163E473E00E94420483
:100B0000809145039091460363E473E00E94E903FA
:100B10000E942E05089580914F0390915003A0915B
:100B20005103B09152030196A11DB11D80934F0353
:100B300090935003A0935103B093520308952091D2
:100B4000490330914A0340914B0350914C030E945A
:100B5000EE1D28EE33E040E050E00E940D1EC9017A
:100B6000DA0104C000000197A109B1090097A105AD
:100B7000B105C1F7089590E0A0E0B0E0BC01CD015F
:100B800028EE33E040E050E00E94EE1D0E949F05F9
:100B90000895CF93DF93EC011B821A82E0914D03FD
:100BA000F0914E0323C0288539854A855B85808571
:100BB0009185A285B385281739074A075B0748F452
:100BC000821B930BA40BB50B80879187A287B387F9
:100BD0000FC0281B390B4A0B5B0B288739874A87C4
:100BE0005B87FB83EA830190F081E02D3097D9F693
:100BF000F983E883309711F0D383C283EA81FB81C4
:100C0000309719F0D183C08304C0D0934E03C093B2
:100C10004D03DF91CF910895CF93DF93FC011482B0
:100C20001582168217821586148680859185A28585
:100C3000B3850097A105B10561F1A281B3818081DF
:100C40009181109719F08D939C9304C090934E035B
:100C500080934D03C081D1812097A1F0828193813F
:100C60009B838A8388859985AA85BB852085318564
:100C700042855385820F931FA41FB51F88879987CC
:100C8000AA87BB871086118612861386CF010E9421
:100C9000C905DF91CF9108950FB6F8940F92209176
:100CA0004F033091500340915103509152030F90E4
:100CB0000FBEB901CA01089560E070E081EE90E0D6
:100CC000089510922F031092300310923103109266
:100CD000320380E090E008952F923F924F925F920E
:100CE0006F927F928F929F92AF92BF92CF92DF923C
:100CF000EF92FF920F931F930FB6F8940F92E0902C
:100D00004F03F090500300915103109152030F9044
:100D10000FBE0E94890B9B01AC01C801B7010E9464
:100D20000D1E522E432E342E252E0E94890B5B0160
:100D30006C010E94890B3B014C01652D742D832DA4
:100D4000922DA60195010E94EE1DE61AF70A080BE6
:100D5000190BC801B70128EE33E040E050E00E94D3
:100D6000EE1DA40193010E940D1E79018A01652DDB
:100D7000742D832D922D28EE33E040E050E00E9448
:100D8000EE1DE60EF71E081F191FB701C8011F91BF
:100D90000F91FF90EF90DF90CF90BF90AF909F901A
:100DA0008F907F906F905F904F903F902F9008951D
:100DB000EF92FF920F931F930FB6F8940F92E0906B
:100DC0004F03F090500300915103109152030F9084
:100DD0000FBE0E94890B9B01AC01C801B7010E94A4
:100DE0000D1ECA01B9011F910F91FF90EF90089558
:100DF000AF92BF92CF92DF92EF92FF920F93CF9379
:100E0000DF936B017C01EA0159018FE393E060E11C
:100E100070E00E94D801FC01009781F10FB6F894B0
:100E20000F9280914F0390915003A0915103B09184
:100E300052030F900FBE20912B0330912C03409151
:100E40002D0350912E03821B930BA40BB50B8C0D1D
:100E50009D1DAE1DBF1D80879187A287B38700FFB0
:100E600005C0148215821682178204C0C482D582FE
:100E7000E682F782D587C487B786A686CF01DF9141
:100E8000CF910F91FF90EF90DF90CF90BF90AF90F8
:100E900008950F93CF93DF930E94F806EC0100971B
:100EA00011F00E94C905CE01DF91CF910F910895F5
:100EB000CF92DF92EF92FF920F937A0169010E9425
:100EC0008E0BA70196010E9449070F91FF90EF90AA
:100ED000DF90CF900895AF92BF92CF92DF92EF92C2
:100EE000FF920F93CF93DF935B016C016115710546
:100EF0008105910599F1C3E4D3E080914503909178
:100F00004603BE010E944204E0904503F090460370
:100F100083E0F7018787C601B50149E854E09701EE
:100F200001E00E945807F701968B858B892B19F0F9
:100F30000E942E0515C0E0914503F0914603D08F25
:100F4000C78B80914303909144039383828381E014
:100F50008787F0934403E093430302C00E94730524
:100F6000DF91CF910F91FF90EF90DF90CF90BF90E6
:100F7000AF900895EF92FF920F931F93CF93DF935B
:100F80000FB6F8940F9220914F0330915003409187
:100F90005103509152030F900FBE80912B039091FB
:100FA0002C03A0912D03B0912E0379018A01E81A38
:100FB000F90A0A0B1B0B20932B0330932C0340934D
:100FC0002D0350932E0351C088859985AA85BB8532
:100FD000E816F9060A071B0760F48E199F09A00B93
:100FE000B10B88879987AA87BB87EE24FF248701E6
:100FF00008C0E81AF90A0A0B1B0B188619861A860C
:101000001B8688859985AA85BB850097A105B105B2
:1010100061F5EC85FD85309721F06E857F85CE01E9
:101020000995E0914D03F0914E030190F081E02D80
:10103000F0934E03E0934D03309711F01382128228
:101040008C819D81AE81BF8188879987AA87BB8764
:101050000097A105B10531F48FE393E0BE010E9432
:10106000300203C0CE010E94C905C0914D03D0914A
:101070004E03209731F0E114F1040105110509F048
:10108000A3CFDF91CF911F910F91FF90EF90089523
:10109000CF92DF92EF92FF920F931F938BE895E030
:1010A0000E94BA0B87B7826087BF0FB6F8940F9281
:1010B00020914F03309150034091510350915203BE
:1010C0000F900FBE0FB6F8940F9280914F0390913E
:1010D0005003A0915103B09152030F900FBE2817F7
:1010E00039074A075B0771F30FB6F8940F92E09047
:1010F0004F03F090500300915103109152030F9051
:101100000FBE2091490330914A0340914B03509107
:101110004C030FB6F8940F9280914F0390915003B7
:10112000A0915103B09152030F900FBEF901D42E3C
:10113000C52E2F5F3F4F4F4F5F4FE816F9060A0746
:101140001B0739F3BF018D2D9C2D27E630E040E0D1
:1011500050E00E94EE1D2AE130E040E050E00E94A5
:101160000D1E2093490330934A0340934B03509341
:101170004C031F910F91FF90EF90DF90CF90089557
:10118000CF93DF93DC010FB6F8940F92CD91DC91F1
:1011900011970F900FBE8FEFCF3FD80709F43AC0D9
:1011A000209771F10FB6F8940F92EA81FB811196A6
:1011B000FC93EE938C819D81892B71F0309729F0FF
:1011C0008C819D819583848305C08FEF9FEF11965D
:1011D0009C938E931D821C820F900FBE8D899E89D9
:1011E000009721F00E940C061E8A1D8A82E08F87DC
:1011F000CE0163E473E00E94E90321E030E00CC01B
:101200000FB6F8940F928FEF9FEF11969C938E93E9
:101210000F900FBE20E030E0C901DF91CF9108951B
:101220000F931F93CF93DF938C010FB6F8940F9217
:10123000FC01808191810F900FBEFFEF8F3F9F07D0
:1012400049F40FB6F8940F92F801118210820F90B2
:101250000FBE02C0892B19F4C0E0D0E013C0C0E07B
:10126000D0E0C8010E94C008C80FD91F0FB6F8947B
:101270000F92F801808191810F900FBE01978E5FD0
:101280009F4F78F3CE01DF91CF911F910F91089579
:101290000F931F930E941009182F092F0E947305A6
:1012A000812F902F1F910F9108950F931F930E94EC
:1012B000C008182F092F0E947305812F902F1F91AE
:1012C0000F910895CF93DF93AC01DB010FB6F89433
:1012D0000F92CD91DC9111970F900FBE8FEFCF3F02
:1012E000D80799F534C08D899E892A813B8184175E
:1012F000950741F50FB6F8940F9211963C932E93F3
:101300008C819D81892B81F0EA81FB81309729F0C6
:101310008C819D819583848305C08FEF9FEF11960B
:101320009C938E931D821C820F900FBE82E08F874C
:10133000CE0163E473E00E94E9038FEF9FEF9E8B81
:101340008D8B05C0DE011296E901209761F6DF91D1
:10135000CF910895CF92DF92EF92FF920F931F9358
:10136000CF93DF938C016A017B010FB6F8940F9243
:10137000FC01808191810F900FBE8F5F9F4F59F4C8
:101380000FB6F8940F92F801118210820F900FBEE1
:101390000E94730532C0809145039091460363E437
:1013A00073E00E9442048091450390914603B80186
:1013B0000E94E903C0914503D091460383E08F87E3
:1013C000C114D104E104F10459F0C701B60142E6A9
:1013D00059E0980101E00E9458079E8B8D8B02C056
:1013E0001E8A1D8A0E942E05E0914503F091460356
:1013F000858996898F5F9F4F19F020E030E004C007
:10140000168A158A2FEF3FEFC901DF91CF911F9107
:101410000F91FF90EF90DF90CF900895FC010FB6F1
:10142000F8940F92808191818F5F9F4F11F4118208
:1014300010820F900FBECF010E94AA0908950F934A
:101440001F93CF93DF938C01C0913303D09134036A
:101450000AC0CE010296B8010E94691E009729F0C9
:101460000990D881C02D2097A1F7CE01DF91CF91AF
:101470001F910F910895CF93DF93EC0161157105D2
:1014800011F07D876C8741114E87CE0102960E9434
:101490001F0A892BA9F4EB89FC89309721F0CE0132
:1014A0000995892B69F480913303909134039983D2
:1014B0008883D0933403C093330320E030E002C02C
:1014C0002FEF3FEFC901DF91CF91089583E1809322
:1014D00053038FE493E5909355038093540380E086
:1014E00090E063E573E043E150E00E94371808950F
:1014F00080E090E063E573E043E150E00E943A1839
:10150000892B89F480915303833169F484E593E056
:1015100068E272E042E050E00E944C1E009719F42D
:1015200020E030E008C086E593E06BE272E00E94C4
:10153000721E2FEF3FEFC90108959F918F910F9079
:101540000BBE0F900FBE1F9018952F923F924F9297
:101550005F926F927F928F929F92AF92BF92CF9243
:10156000DF92EF92FF920F931F93CF93DF938DB78C
:101570009EB7E0914503F0914603918B808BE091FB
:101580004303F0914403F0934603E093450381E065
:101590008787808991898DBF9EBFDF91CF911F91F1
:1015A0000F91FF90EF90DF90CF90BF90AF909F9002
:1015B0008F907F906F905F904F903F902F90089505
:1015C000AF92BF92CF92DF92EF92FF920F931F9351
:1015D000CF93DF93F82EE92E6B01B42EA52EE901EF
:1015E000B901675E7F4F8FE393E00E94D801FC0151
:1015F000009719F420E030E077C0C80FD91FAE0182
:1016000047505040BE016B5170408E010A5F1F4F22
:101610008F2D9E2D9C0188E0D9010D909D01D80150
:101620000D928D018150C1F71E8661507040798BFB
:10163000688B6F5F7F4FFC8BEB8B8FEE9EEBADEA81
:10164000BEED80839183A283B38384839583A68335
:10165000B78380879187A287B38784879587A6877A
:10166000B78780E48A8BFA01D582C68280E88383BB
:1016700012821482B182A0828DE99AE0DB01529637
:101680009C93529753968C9380914103909142037F
:1016900099838883D0934203C093410382E08F876C
:1016A0001E8A1D8A188E1F8ACE0163E473E00E9491
:1016B000E903E0914503F0914603309721F40FB61A
:1016C000F8940F925CCF8091430390914403E81704
:1016D000F90749F082E087870FB6F8940F920E94CD
:1016E000A50A0F900FBE9E01C901DF91CF911F91F6
:1016F0000F91FF90EF90DF90CF90BF90AF90089543
:1017000060913503709136038091370390913803CF
:1017100008956AEE73E080E090E00895603020E87C
:1017200072072EE3820720E0920788F028EE33E06C
:1017300040E050E00E940D1ECA01B9012AEE33E0DC
:1017400040E050E00E94EE1D9B01AC0110C02AEE6B
:1017500033E040E050E00E94EE1D69517C4F8F4F16
:101760009F4F28EE33E040E050E00E940D1EB9018B
:10177000CA010895BC0180E090E0A1EEB0E0809342
:10178000350390933603A0933703B093380387B79C
:101790008D7F87BF12BE8DE083BF82E781BF82E06D
:1017A00086BF84E392E040E050E00E940113089578
:1017B0009C01FB0147B7427087B78D7F87BF2031FF
:1017C0003105D1F0213131053CF42115310581F08D
:1017D0002130310551F40DC02231310569F122313A
:1017E0003105DCF020323105D9F02FEF3FEF1EC07C
:1017F00040E082E086BF18C006B601FE05C081E069
:1018000090E09183808302C0118210824423A1F072
:101810008081918180689183808320E030E008C0DE
:101820008EE090E09183808320E030E0442331F02B
:1018300087B7826087BF02C020E030E0C901089509
:101840001F920F920FB60F920BB60F9211242F9387
:101850003F934F935F936F937F938F939F93AF9338
:10186000BF93EF93FF9384E392E00E94F612FF91FF
:10187000EF91BF91AF919F918F917F916F915F9108
:101880004F913F912F910F900BBE0F900FBE0F9075
:101890001F901895559A89B78F7B89BF0895282F77
:1018A00080913C03882339F0E22FF92F82859385BC
:1018B000892B09F4C1980895FC01628173812091FC
:1018C0003A03422F50E0CA0180739070892B89F04F
:1018D00024FF04C083E18CB9206403C081E18CB98A
:1018E0002F7B20933A0380913A038F7C80933A03B5
:1018F000089527FF02C05598089582859385892B06
:10190000E1F180913E03882339F00E9B05C0559884
:1019100089B7806489BF08958285938501979387ED
:10192000828780913B03882311F0509A01C0509820
:10193000DB018D918CB986819781A817B90711F4C5
:10194000A481B581B383A28322853385848595855F
:101950002817390759F5A089B1891097A9F08FEF99
:10196000AF3FB80719F114968D919C911597019688
:1019700015969C938E931497089555981386128606
:10198000A089B189109729F48FEF9FEF918B808BFD
:1019900008958FEFAF3FB80749F014968D919C9151
:1019A0001597019615969C938E93149708951F93FF
:1019B000282F5BB180913903582B509339031CB108
:1019C00040913A03442361F0133119F4559840686B
:1019D00004C0113129F4559A4F7740933A036BC0F4
:1019E000A22FB92F1A962D913C911B9718968D9185
:1019F0009C9119972817390720F0586050933903A4
:101A00005AC0B9016F5F7F4F232BB9F45096ED9107
:101A1000FC915197309739F48FEF9FEF51969C933B
:101A20008E9350972CC08FEFEF3FF80741F18481E0
:101A3000958101969583848322C04423A1F01E964C
:101A40008D919C911F9768177907C8F046FD17C0C4
:101A50005D9B05C083E18CB940644F7D01C040624D
:101A600040933A030CC080913D03882341F01E96B9
:101A70008D919C911F976817790708F0C49AED9192
:101A8000FC91119711931196FC93EE932D913C913B
:101A9000119716968D919C9117972817390739F44D
:101AA00014968D919C91159711969C938E931B96ED
:101AB0007C936E931A971F9108950FB6F8940F9226
:101AC00088EB8AB980913C038111569A0F900FBE22
:101AD0000895529B02C089E008958091950082FF8D
:101AE00008C08091950081FD02C087E0089588E0DC
:101AF00008958091950081FD02C085E0089586E0FB
:101B000008958091950085FD02C080E00895809140
:101B1000950084FD02C082E0089581E008958091DF
:101B2000950083FD02C081E0089582E00895EF9260
:101B3000FF920F931F9380913903682F70E0CB01C0
:101B400074E0969587957A95E1F79C0140E050E026
:101B5000217030704070507063FD226062FD24601F
:101B600080913A03882321F086FD426087FD48601A
:101B7000C49B14C0E12C62E0F62E012D112DE22A47
:101B8000F32A042B152B80913D03882381F0E12C4F
:101B900092E0F92E98E0092F112D05C0E12C81E08B
:101BA000F82E012D112DE22AF32A042B152B0E9B62
:101BB0000CC0A8019701386080913E03882341F052
:101BC000A80197013860426003C0A8019701346002
:101BD000C59B02C0306101C0306241FF416043FFDC
:101BE000446080913B03882321F0CA01B9018064DD
:101BF00003C0CA01B9018068589B04C09B01AC01B5
:101C0000406103C09B01AC014062B901CA011F9150
:101C10000F91FF90EF900895EF92FF920F931F9313
:101C20007B018C0180913A038823D9F00FB6F89498
:101C30000F9200FF02C08F7B03C001FF03C08064CE
:101C400080933A0302FF04C080913A038F7705C066
:101C500003FF05C080913A03806880933A030F9098
:101C60000FBE80913D03882321F001FDC49A00FD41
:101C7000C498F1FCC49AF0FCC498F5FE02C0BD9A69
:101C8000C59AF4FE02C0BD9AC59806FF03C081E064
:101C900080933B0307FF02C010923B0304FD589A58
:101CA00005FD5898C70181709070892B29F08091AB
:101CB00039038F7E80933903E1FE05C0809139039B
:101CC000877F80933903E2FE05C0809139038B7FC3
:101CD000809339030E94970D687F6E157F058007FA
:101CE000910719F420E030E002C02FEF3FEFC90167
:101CF0001F910F91FF90EF9008958091950086FFBE
:101D00000BC0129B02C093E001C091E0809195004E
:101D100080FF07C0946005C0599B02C090E201C0DB
:101D200090E0892F089580913A03882329F420E0D8
:101D300030E040E050E004C020E230E040E050E01D
:101D400080913D03882311F0216001C02E7F809196
:101D50003E03882311F0226001C02D7F80913C0357
:101D6000882311F0346001C03B7FB901CA01089596
:101D700080913C038111C19A559A089590913A033C
:101D80009923A9F096FF13C00FB6F8940F925D9BAC
:101D900004C081E18CB99F7E01C0906190933A03A9
:101DA00080913A038F7980933A030F900FBE809110
:101DB0003D038111C49808950FB6F8940F92579877
:101DC000569855980F900FBE8AE00E94BB05549814
:101DD000539808951F93182F0E94DC0E812F10FF37
:101DE00015C011FF02C0129A01C0129882FF04C0F0
:101DF00080919500816003C0809195008E7F8093D3
:101E0000950059988091950080640DC015FF02C01F
:101E1000599A01C05998809195008E7F80939500C2
:101E2000809195008F7B809395000E945D0D0E94AC
:101E30007D0E811719F420E030E002C02FEF3FEF54
:101E4000C9011F9108951F93182F0E94DC0E1130B5
:101E500021F480919500877F05C0123029F480918C
:101E600095008860809395000E945D0D809195009B
:101E700083FD02C081E001C082E0811719F420E0F7
:101E800030E002C02FEF3FEFC9011F9108951F936B
:101E9000182F0E94DC0E113071F0113018F0123042
:101EA000C1F40DC0809195008F7E80939500809144
:101EB00095008F7D0CC080919500806103C080915A
:101EC00095008F7E8093950080919500806280932D
:101ED00095000E945D0D0E94810D811719F420E08C
:101EE00030E002C02FEF3FEFC9011F9108951F930B
:101EF000182F0E94DC0E5298809195008D7F809360
:101F00009500809195008B7F809395001730A1F00C
:101F1000183018F41630A9F405C0183041F0193003
:101F200081F404C080919500826009C0529A80912A
:101F300095008260809395008091950084608093E5
:101F400095000E945D0D0E94690D811719F420E033
:101F500030E002C02FEF3FEFC9011F9108958F922B
:101F60009F92AF92BF92CF92DF92EF92FF920F9328
:101F70001F9399B0809090008091950086FF06C0D5
:101F8000A2E0AA2EB12CC12CD12C0DC0599906C0AB
:101F9000F0E1AF2EB12CC12CD12C05C0E8E0AE2E63
:101FA000B12CC12CD12C0E945C067B018C01892DA7
:101FB00090E0382D20E0282B392B40E050E02F5FB7
:101FC0003F4F4F4F5F4FC601B5010E94EE1D9B0171
:101FD000AC01C801B7010E940D1ECA01B9011F91D1
:101FE0000F91FF90EF90DF90CF90BF90AF909F90B8
:101FF0008F900895EF92FF920F931F937B018C01B6
:102000000E94DC0E8091950086FD11C0599B08C08E
:1020100092E0EE0CFF1C001F111F9A95D1F707C02C
:1020200083E0EE0CFF1C001F111F8A95D1F70E9460
:102030005C06A80197010E940D1E2F5F3F4F4F4F76
:102040005F4F56954795379527952150304029B9D0
:10205000309390000E945D0D80E090E01F910F9101
:10206000FF90EF900895EF92FF920F931F937B01E3
:102070008C0165FF0DC080913A03882381F40FB66F
:10208000F8940F9281E480933A030F900FBE07C03B
:102090000FB6F8940F9210923A030F900FBEC7013B
:1020A00081709070892B31F0C49ABC9A81E0809342
:1020B0003D0307C080913D03882319F010923D0332
:1020C000BC98E1FE11C086EB92E06AE47CE040E05F
:1020D00050E00E940113892B09F042C01E9A169805
:1020E00081E080933E030FC080913E03882359F026
:1020F00010923E0386EB92E060E070E040E050E03A
:102100000E9401131698F2FE11C082EC92E06FE477
:102110007CE04DE652E00E940113892B09F5C1983D
:10212000B99A81E080933C03569A10C080913C0399
:10213000882361F010923C03569882EC92E060E0B4
:1021400070E040E050E00E940113B9980E94930EA5
:102150006E157F058007910719F420E030E002C07A
:102160002FEF3FEFC9011F910F91FF90EF9008955E
:102170008CEB92E060E070E040E050E00E940113E0
:1021800088EC92E060E070E040E050E00E940113D3
:1021900080913C03882351F010923C0382EC92E042
:1021A00060E070E040E050E00E94011380913E0347
:1021B000882359F010923E03169886EB92E060E077
:1021C00070E040E050E00E94011380913D038823BD
:1021D00019F010923D03BC98BD9880E090E00895FE
:1021E0008CEB92E067ED7CE04FE752E00E94011338
:1021F000892B91F488EC92E06CE57CE04DE652E0AE
:102200000E940113892B59F08CEB92E060E070E0A2
:1022100040E050E00E9401132FEF3FEF04C0BC9A52
:10222000BD9A20E030E0C90108959C01FB0149B747
:10223000407489B78F7B89BF21313105D1F12231BB
:1022400031054CF421303105F9F020313105F9F038
:10225000232BA1F062C02831310571F129313105FC
:102260002CF42231310509F058C05FC02931310505
:1022700061F12032310509F050C04AC08AB78F7E23
:102280008ABF8AB78F7D8ABF80E488BF38C008B60E
:1022900006FE05C081E090E09183808302C0118238
:1022A0001082442309F441C0808191818068918328
:1022B000808320E030E035C00AB605FE03C085E02B
:1022C00090E028C081E090E025C06081718161309C
:1022D000710519F48AB78F7E05C06730710531F436
:1022E0008AB780618ABF8AB78F7D08C06530710563
:1022F00049F48AB78F7E8ABF8AB780628ABF20E09E
:1023000030E00DC06630710541F48AB78061F3CFCB
:1023100086E090E091838083F2CF2FEF3FEF44235C
:1023200031F089B7806489BF02C020E030E0C90184
:1023300008951F920F920FB60F920BB60F921124B1
:102340002F933F934F935F936F937F938F939F93BD
:10235000AF93BF93EF93FF9386EB92E00E94F61248
:10236000FF91EF91BF91AF919F918F917F916F916D
:102370005F914F913F912F910F900BBE0F900FBE29
:102380000F901F901895FB014AB140785798803103
:102390009105B9F0813191052CF4009771F0019706
:1023A00049F40CC08231910549F182319105CCF09C
:1023B0008097D1F02FEF3FEF1DC040E08CB18CB182
:1023C00017C05F9B05C081E090E09183808302C0CD
:1023D00011821082442391F08081918180689183E1
:1023E000808320E030E008C080E190E0918380832A
:1023F00020E030E0442321F0579A02C020E030E092
:10240000C90108951F920F920FB60F920BB60F924B
:1024100011242F933F934F935F936F937F938F93E9
:102420009F93AF93BF93EF93FF938CEB92E00E9447
:10243000F612FF91EF91BF91AF919F918F917F9194
:102440006F915F914F913F912F910F900BBE0F9025
:102450000FBE0F901F901895FB014AB1407456981B
:1024600080319105B1F0813191052CF4009771F024
:10247000019749F40CC08231910541F182319105F7
:10248000C4F08097C9F02FEF3FEF1CC040E05E9A88
:1024900017C05E9B05C081E090E09183808302C0FD
:1024A00011821082442391F0808191818068918310
:1024B000808320E030E008C080E190E09183808359
:1024C00020E030E0442321F0569A02C020E030E0C2
:1024D000C90108951F920F920FB60F920BB60F927B
:1024E00011242F933F934F935F936F937F938F9319
:1024F0009F93AF93BF93EF93FF9382EC92E00E9480
:10250000F612FF91EF91BF91AF919F918F917F91C3
:102510006F915F914F913F912F910F900BBE0F9054
:102520000FBE0F901F901895FB014AB1407255984D
:102530008131910501F1823191052CF4009741F12F
:10254000409731F408C08231910511F18097B1F0C4
:102550002FEF3FEF19C05D9B05C081E090E09183B4
:10256000808302C011821082442391F08081918186
:1025700080689183808320E030E008C080E190E0B3
:102580009183808320E030E0442321F0559A02C0FB
:1025900020E030E0C90108951F920F920FB60F920C
:1025A0000BB60F9211242F933F934F935F936F932A
:1025B0007F938F939F93AF93BF93EF93FF9388EC99
:1025C00092E00E94F612FF91EF91BF91AF919F911F
:1025D0008F917F916F915F914F913F912F910F90CC
:1025E0000BBE0F900FBE0F901F901895DC01129636
:1025F000ED91FC911397309719F08D919C9109956D
:102600000895EF92FF920F931F93CF93DF93EC0106
:102610007B018A01EC81FD81309719F420E030E0E4
:1026200006C080E090E060E070E009959C011983AD
:102630000883FB82EA82C901DF91CF911F910F913C
:10264000FF90EF900895DC011496ED91FC911597A1
:10265000309719F42FEF3FEF06C081E190E060E082
:1026600070E009959C01C9010895DC011496ED9173
:10267000FC911597309719F42FEF3FEF06C082E1D8
:1026800090E060E070E009959C01C90108950F9306
:102690001F93DF93CF9300D000D0CDB7DEB78C016E
:1026A0007C836B83DC011496ED91FC911597309738
:1026B00019F42FEF3FEF19C080E290E0BE016F5F89
:1026C0007F4F09959C01009781F4D8011496ED91F4
:1026D000FC91159781E290E0BE016D5F7F4F0995F7
:1026E0009C01009711F429813A81C9010F900F9044
:1026F0000F900F90CF91DF911F910F9108950F933D
:102700001F93DF93CF9300D000D0CDB7DEB78C01FD
:102710007C836B83DC011496ED91FC9115973097C7
:1027200019F42FEF3FEF1DC088E190E0BE016F5F0D
:102730007F4F09959C010097A1F48B819C81892B87
:1027400071F0D8011496ED91FC91159789E190E014
:10275000BE016D5F7F4F09959C01009711F429819F
:102760003A81C9010F900F900F900F90CF91DF9198
:102770001F910F9108950F931F93CF93DF93FC0147
:10278000C189D289EDA9FEA909958C01009749F468
:10279000CF5BDF4FE881F98160E072EC81E090E08F
:1027A0000995C801DF91CF911F910F910895DC0128
:1027B0001296ED91FC9113970188F289E02D0FB6E6
:1027C000F8940F9284A595A50F900FBEBC0180E0F0
:1027D00090E00895CF92DF92EF92FF920F931F93B4
:1027E000CF93DF93EC018B017A0169018C819D818C
:1027F000288539850FB6F8940F92198618860F90A0
:102800000FBE2617370789F0232B21F0009711F010
:102810000E948E190115110511F1C8010E94941929
:10282000009731F42FEF3FEF1CC061157105B9F02F
:102830009D838C83998388839B838A83800F911FD8
:102840009F838E83FD86EC86DF86CE861B861A8666
:102850000FB6F8940F92198708870F900FBE20E0EB
:1028600030E0C901DF91CF911F910F91FF90EF9060
:10287000DF90CF900895CF92DF92EF92FF920F9367
:102880001F93CF93DF93FB016A01DA01ED90FD9076
:102890000D911C912E2DDC015196CD91DC9152971A
:1028A000E150F140ED32F10540F4EA5BFF4FEE0FED
:1028B000FF1F0590F491E02D09940FEF1FEF29C140
:1028C000CF5BDF4F43C0CD5BDF4F91C0CB5BDF4FB2
:1028D000E881F981822F09958C011BC1C95BDF4F0B
:1028E0000BC0C75BDF4FF4CFC55BDF4F05C0C35BD9
:1028F000DF4FEECFC15BDF4FE881F981099590E0B2
:10290000FFC0E6FE0DC06AA57BA54EA55FA528A960
:1029100039A9CE0182960E94EA13EBADFCAD099570
:10292000E7FE0AC0688D798D4C8D5D8D2E8D3F8DB3
:10293000CE0140960E94EA13CF5ADF4F8FE39FEFFC
:10294000AFEFBFEFE822F9220A231B23E881F981C8
:10295000C801B7010995C0CFCD5ADF4FE881F98191
:10296000C355D04009959B01AC01D6016D937D9371
:102970008D939C9313978CA59DA5892B31F420648E
:10298000F60120833183428353838A8D9B8D892B6B
:1029900009F0BDC0F60180819181A281B381806878
:1029A000B2C0E886F9860A871B87B1C088859985F9
:1029B000AA85BB85A7C0EC86FD860E871F87A7C0AA
:1029C0008C859D85AE85BF859DC088819981AA81B2
:1029D000BB81EE2011F080642AC08F7B28C08881E3
:1029E00086FF35C02FC0EDADFEADB2CFEF96E881CA
:1029F000F9810995F601608371838283938387C08F
:102A000088819981AA81BB81EE2011F080680FC076
:102A10008F770DC0888187FF1AC014C08881998183
:102A2000AA81BB81EE2011F0946001C09B7F888356
:102A30009983AA83BB836BC088819981AA81BB815A
:102A400092FF05C081E090E0A0E0B0E05BC0D6015D
:102A50001D921D921D921C92139759C0CB5ADF4FA5
:102A600037CFC95ADF4F48CF4C8D5D8D2E8D3F8DAE
:102A7000CE014096B7010E94EA138C01009709F03D
:102A800048C0EBADFCAD099544C0888D998D38C028
:102A90004EA55FA528A939A9CE018296B7010E944B
:102AA000EA131ACF8AA59BA52BC00FB6F8940F92F4
:102AB000FD8EEC8E0F900FBE2AC08C8D9D8D20C098
:102AC0000FB6F8940F92FF8EEE8E0F900FBE1FC0C0
:102AD0008E8D9F8D15C00FB6F8940F92FFA6EEA6AF
:102AE0000F900FBE14C08EA59FA50AC00FB6F89414
:102AF0000F92F9AAE8AA0F900FBE09C088A999A958
:102B0000A0E0B0E0F60180839183A283B38300E06C
:102B100010E0C801DF91CF911F910F91FF90EF90CE
:102B2000DF90CF900895AF92BF92CF92DF92EF9255
:102B3000FF920F931F93CF93DF935C017A01FC0107
:102B4000C189D28983E0C82ED12CC422D522C114D8
:102B5000D10481F0CE01409660E470E048E250E09C
:102B600028E330E00E94EA13892BA1F4F1E0CF16AC
:102B7000D10499F0CE01829660E071E040ED50E022
:102B800020EF30E00E94EA13892B39F08C899D896F
:102B90000E948E190FEF1FEF30C086E090E00E9478
:102BA0009419FC018C01009739F48C899D890E944D
:102BB0008E198EA19FA1ECCF80E090ECE822F92243
:102BC00088819981AA81BB8120E0E21620E8F20683
:102BD00011F48F7701C0806888839983AA83BB83AF
:102BE00011821082B382A2821582148281E0C816FB
:102BF000D10419F0EBADFCAD0995C801DF91CF917F
:102C00001F910F91FF90EF90DF90CF90BF90AF900A
:102C100008950F931F93CF93DF93EC01EA81FB811B
:102C20002189328901978E5F9F4F18F02FEF3FEF78
:102C30002AC089010F5A1F4FD801ED91FC9101550F
:102C4000104060E072E080E090E00995CE010E94C3
:102C50008E19C801409660E070E040E050E020E04E
:102C600030E00E94EA13C801829660E070E040E024
:102C700050E020E030E00E94EA13C801C2960E94B2
:102C8000480920E030E0C901DF91CF911F910F91F9
:102C90000895CF92DF92EF92FF920F931F93CF93FD
:102CA000DF93EC016A010FB6F8940F928A8D9B8D29
:102CB000860F971F9B8F8A8F0A8D1B8D0F900FBEDB
:102CC00090E2E92EF12CEC0EFD1E13C0E9ADFAAD39
:102CD00009954C855D856E857F85C7010E94AA098F
:102CE000892B51F40FB6F8940F920A8D1B8D0F901B
:102CF0000FBEC016D10650F3C801DF91CF911F91CE
:102D00000F91FF90EF90DF90CF9008958F929F9258
:102D1000AF92BF92CF92DF92EF92FF920F931F93E9
:102D2000DF93CF9300D0CDB7DEB78B015A01690195
:102D3000DC0151968D909C905297F401808D918D7D
:102D4000892B19F40FEF1FEFABC06115710549F422
:102D5000C40160E070E040E050E00E9449168C0140
:102D60009FC0F40180819181A281B3819C01AD015A
:102D700069E056954795379527956A95D1F7F22FD3
:102D8000F170FA8327E0B695A795979587952A95D0
:102D9000D1F7282F217029830FB6F8940F92D40110
:102DA0005A964D915C915B970F900FBE780100E0B1
:102DB00010E060E070E05BC09B01240F351FF40160
:102DC000868D978D2817390788F0448D558DC4015D
:102DD0000E944916AC01D4015C968D919C915D973F
:102DE0008417950708F45CC060E070E0C114D1045A
:102DF00019F0F701849102C0D7018C91B981B130EB
:102E000069F48A3081F4EA81E13021F4F2E0FA8356
:102E1000F98302C022E029838DE00AC099819230B3
:102E200011F4A1E0A9830894E11CF11C0F5F1F4F6E
:102E3000D4015096ED91FC91519781935196FC935A
:102E4000EE93509750962D913C91519756968D91B7
:102E50009C9157972817390741F454968D919C916E
:102E6000559751969C938E9350976F5F7F4F0A159D
:102E70001B050CF4A1CF6115710591F00FB6F89404
:102E80000F92F401828D938D680F791F738F628F7B
:102E90000F900FBED401D996ED91FC91DA97099568
:102EA000C8010F900F90CF91DF911F910F91FF906C
:102EB000EF90DF90CF90BF90AF909F908F9008954C
:102EC000FC018281938121E030E00E948616089502
:102ED000FC018281938120E030E00E9486160895F3
:102EE000AF92BF92CF92DF92EF92FF920F931F9318
:102EF000CF93DF936B015A01DC011296ED91FC91A7
:102F00001397C189D2896AA57BA56115710509F45A
:102F1000A0C0C114D10461F44EA55FA528A939A9A8
:102F2000CE0182960E94EA13EBADFCAD099519C063
:102F30008E010E5C1F4F0FB6F8940F92ECA4FDA407
:102F40000F900FBEE114F104A1F4EBADFCAD0995B7
:102F5000488559856A857B85C8010E94AA09892B05
:102F600019F020E030E077C08AA59BA5892B19F7DE
:102F700070C0D601888187FF30C000E010E040E0DB
:102F800050E07AE026C04E155F0508F048C0ECA17D
:102F9000FDA16191FDA3ECA32CA13DA188A599A55C
:102FA0002817390721F48EA19FA19DA38CA36D3012
:102FB00011F06A3041F48CA9882311F0861739F496
:102FC0006CAB7D9302C01CAA6D930F5F1F4F4F5FC8
:102FD0005F4F0A151B05B8F222C08501EA14FB04F5
:102FE00008F4870140E050E016C0ECA1FDA1D60135
:102FF000A40FB51F81918C93FDA3ECA32CA13DA13F
:1030000088A599A52817390721F48EA19FA19DA312
:103010008CA34F5F5F4F4017510738F3A80141154C
:103020005105A9F00FB6F8940F928CA59DA5841BAD
:10303000950B9DA78CA70F900FBE2CA53DA58EA527
:103040009FA52817390718F4EBADFCAD0995980139
:1030500002C02FEF3FEFC901DF91CF911F910F9178
:10306000FF90EF90DF90CF90BF90AF9008950E94B7
:103070003D1808950E9468180895CF92DF92EF924C
:10308000FF920F931F93CF93DF938C016B017A0113
:10309000C0E0D0E00FC0C8010E94891EF601EC0F0D
:1030A000FD1F6081861719F0C8010E94911E2196AC
:1030B0000F5F1F4FCE15DF0570F380E090E0DF91CA
:1030C000CF911F910F91FF90EF90DF90CF900895D7
:1030D0009C01CB01B9010E94791E80E090E0089527
:1030E000CF93DF93DC011296CD91DC91139720975B
:1030F00029F41B96ED91FC911C9703C0ED89FE8984
:10310000CE010995DF91CF910895FC0180819181D5
:103110000895CF92DF92EF92FF920F931F93CF9378
:10312000DF936C01CB010E948C1D7C012FEF8F3F40
:10313000920709F440C0E4EDF2E003E010E00DC0B6
:103140000F5F1F4F32960830110539F487E190E088
:1031500090936703809366032EC080819181892BB1
:1031600079F787E090E00E949419EC01000F111F9D
:1031700002531D4FD801CD93DC932097E1F0C60197
:10318000B7010E94A41999838883D801ED91FC911D
:103190008F5F9F4F39F4CF010E948E19F801118281
:1031A000108209C0F382E2821482D801ED91FC9171
:1031B0001682158202C0E0E0F0E0CF01DF91CF91EE
:1031C0001F910F91FF90EF90DF90CF9008959F9205
:1031D000AF92BF92CF92DF92EF92FF920F931F9325
:1031E000CF93DF935C01CB01EA010E948C1D6C013F
:1031F0002FEF8F3F920781F44DC00894E11CF11C22
:10320000329688E0E816F10459F489E090E0909352
:103210006703809366033EC0EEECF2E0EE24FF24E9
:10322000808191818C179D0741F787E090E00E9493
:103230009419EC018701000F111F02531D4FD80193
:10324000CD93DC93209731F1C501B6010E94A419FA
:1032500099838883D801ED91FC918F5F9F4F89F40A
:10326000CF010E948E19E2E0EE1538F00894E11CBF
:10327000F11CD801ED92FC920DC0F8011182108270
:1032800009C0D382C2821482D801ED91FC911682CA
:10329000158202C0E0E0F0E0CF01DF91CF911F91F5
:1032A0000F91FF90EF90DF90CF90BF90AF909F90E5
:1032B0000895DF93CF93CDB7DEB79E01275F3F4FD1
:1032C0008D819E816F817885A9010E948319CF919C
:1032D000DF9108956091D0027091D1020E94DE1DAD
:1032E0009C012F5F3F4F19F42FEF3FEF0AC0609111
:1032F000D0027091D1028AE090E00E94C01D20E0CF
:1033000030E0C9010895FC01DB019A0160817181FF
:103310008AE79DE1AD010E942B1A0895BC018FE35D
:1033200093E00E9430020895BC018FE393E00E9475
:10333000D8019C01009731F48CE090E090936703F2
:1033400080936603C9010895DF92EF92FF920F9375
:103350001F93DF93CF93CDB7DEB729970FB6F894BD
:10336000DEBF0FBECDBFD82E7B01FE013196282FC8
:10337000392F8901AE01475F5F4F03C081930F5F13
:103380001F4F202F2D19D8018C91882329F08A33C3
:1033900019F0E417F50791F7CE010196FC01E20F51
:1033A000F11D10820E941F0ADC01009749F482E09F
:1033B00090E090936703809366032FEF3FEF14C074
:1033C000F80180818A3319F060E070E003C0B80131
:1033D0006F5F7F4F5D96ED91FC915E97CD01A701E8
:1033E00020E030E009959C01C90129960FB6F894B8
:1033F000DEBF0FBECDBFCF91DF911F910F91FF9028
:10340000EF90DF900895CF92DF92EF92FF920F93AB
:103410001F93CF93DF936C018B017A01E90107C001
:10342000C801B70140E150E0F60109956097C1314C
:10343000D105B4F71C161D062CF4C801B701AE0166
:10344000F6010995DF91CF911F910F91FF90EF90B9
:10345000DF90CF9008952F923F924F925F926F929C
:103460007F928F929F92AF92BF92CF92DF92EF9214
:10347000FF920F931F93DF93CF93CDB7DEB76D9776
:103480000FB6F894DEBF0FBECDBF998F888F7B8FAC
:103490006A8F1A0149011D8A1C8A9E012E5E3F4FC8
:1034A0003D8F2C8FB10103C00894211C311CD10128
:1034B000FC90FF2019F0B5E2FB16B1F78101061B65
:1034C000170B61F08A8D9B8DA801E88DF98D099508
:1034D0002C893D89200F311F3D8B2C8BFF2009F457
:1034E000EEC20894211C311C19821E8A44245524E2
:1034F00066246A94762CD101BD901D01B0E2BB1602
:1035000021F489818823B9F703C0EBE2BE1611F4D8
:10351000B982F1CFFDE2BF1621F42E8924602E8BF3
:10352000EACF33E2B31621F44E8941604E8BE3CFEC
:1035300080E3B81621F49E8990619E8BDCCFACE6C7
:10354000BA1621F4BE89B860BE8BD5CFEAE7BE16A5
:1035500091F2FAE2BF1681F4C4010296D4014D90B3
:103560005C9057FE07C0BE89B460BE8B50944194F6
:10357000510853944C01BFCFEEE2BE1691F5D10134
:103580008C918A3219F06624772422C00894211C79
:10359000311CF4016080718022E030E0820E931EC5
:1035A0001DC0C301E3E0880F991FEA95E1F7660C9F
:1035B000771C860D971D622E772467FC7094A0ED12
:1035C000BFEF6A0E7B1E680E791E0894211C311C09
:1035D000F1012081822F80538A3018F377FE8BCF40
:1035E00087CF8B2D8153893028F54B2C552420ED26
:1035F0003FEF420E531E17C0C20163E0880F991FB0
:103600006A95E1F7440C551C840D951D422E5524F6
:1036100047FC5094A0EDBFEF4A0E5B1E480E591EAA
:103620000894211C311CF1012081822F80538A30A3
:1036300018F361CFF401BF8A27E62B15E8F035E6D1
:10364000B31608F0B0C140E5B416C1F14B1548F00F
:1036500085E4B81609F4A7C197E4B91609F0A7C123
:10366000A2C1A3E6BA1611F1AB1508F475C0B8E50E
:10367000BB1609F09CC138C120E7B21609F434C169
:103680002B1548F039E6B31609F466C04FE6B416B8
:1036900009F08DC1D9C08F89853709F45CC088379E
:1036A00009F422C1833709F082C128C0A2E0B0E04A
:1036B0008A0E9B1E80818A8319827FC122E030E0BE
:1036C000820E931EE080F180E114F10439F44EED96
:1036D000C42E42E0D42E33E73F8B1DC0C7010E94A9
:1036E000361E01960E949419182F092FB7010E94C7
:1036F0002F1E212F302FC9016C0106C082E090E0FF
:10370000880E991EC080D180C114D10421F43EEDF1
:10371000C32E32E0D32E77FC0FC0C60160E070E00C
:10372000A3010E943F1E009789F08C010C191D090E
:10373000601671065CF00BC0D6010D900020E9F711
:103740008D01015010400C191D0901C0830119821F
:10375000EE24FF243BC11982BE89B3FF09C024E0D7
:1037600030E0820E931EE080F1800281138113C04D
:10377000C4010296D4012D913C91B5E7BB1629F402
:103780004C01790100E010E015C04C0179010027DF
:10379000F7FC0095102FE5E7BE1661F017FF0AC091
:1037A00010950095F094E094E11CF11C011D111D91
:1037B000FDE2F98377FC03C02E892F7E2E8BE11466
:1037C000F1040105110549F46114710461F422E169
:1037D000C22ED12CCC0EDD1E31C03AE0E316F1042E
:1037E0000105110548F491E1C92ED12CCC0EDD1E46
:1037F0008E2D805D898B22C082E1C82ED12CCC0E0B
:10380000DD1EC801B7012AE030E040E050E00E9430
:103810000D1E605DD6016E936D01C801B7012AE0EF
:1038200030E040E050E00E940D1EC901DA017C0149
:103830008D01E114F1040105110519F70C8D1D8DA1
:103840000C191D09BF8AADC0BE89B3FF09C024E0B1
:1038500030E0820E931E608171818281938109C064
:1038600082E090E0880E991E80819181BC0180E009
:1038700090E0198277FC03C0AE89AF7EAE8B6115F4
:1038800071058105910549F46114710431F4B2E1C7
:10389000CB2ED12CCC0EDD1E20C0A2E1CA2ED12C05
:1038A000CC0EDD1E262F2770205DF60122936F01BE
:1038B000F3E09695879577956795FA95D1F7611519
:1038C00071058105910571F7FE89F0FF06C020336F
:1038D00021F0D601E0E3EE936D010C8D1D8D0C19E6
:1038E0001D09FFE6FF8B5DC020E7B21679F482E088
:1038F00090E0880E991E808191819C0140E050E00B
:103900009E8991609E8BA8E7AF8B16C0BE89B3FFDE
:1039100009C024E030E0820E931E20813181428173
:10392000538109C082E090E0880E991E80819181C8
:103930009C0140E050E0BF8A77FC03C09E899F7ED7
:103940009E8BAF89A83519F065EE72E002C066EF74
:1039500072E01982E2E1CE2ED12CCC0EDD1EF901EF
:10396000EF70F070E60FF71F8081F60182936F0110
:1039700094E056954795379527959A95D1F7211557
:1039800031054105510559F7FE89F0FF06C0D60102
:10399000EF89EE93E0E3EE936D010C8D1D8D0C1914
:1039A0001D09730113C024E030E0820E931EBB207A
:1039B00009F485C0BA821982BF8A82E0C82ED12C50
:1039C000CC0EDD1EEE24FF2401E010E058010E15A0
:1039D0001F050CF457018981882319F00894A11C54
:1039E000B11C9E89892F90E09B8B8A8B3C01A4E1BE
:1039F0006A2277246114710459F492012A193B094F
:103A0000888D998D6A8D7B8D47E053E00E94031A63
:103A10008981882351F08A8D9B8DBE016F5F7F4F16
:103A200041E050E0E88DF98D0995F0E16F167104E1
:103A300059F492012A193B09888D998D6A8D7B8DE5
:103A400047E153E00E94031AE01AF10A888D998D2C
:103A50006A8D7B8D47E153E097010E94031A01159F
:103A6000110541F08A8D9B8DB601A801288D398DF5
:103A7000F90109953F89303519F4C6010E948E1964
:103A80004A8942FF0BC092012A193B09888D998D02
:103A90006A8D7B8D47E053E00E94031A4A145B0451
:103AA0003CF08C899D89840D951D9D8B8C8BFACC67
:103AB000AC89BD89AA0DBB1DBD8BAC8BF3CC8C89A9
:103AC0009D896D960FB6F894DEBF0FBECDBFCF9126
:103AD000DF911F910F91FF90EF90DF90CF90BF90FB
:103AE000AF909F908F907F906F905F904F903F909E
:103AF0002F900895DC011296ED91FC911397309769
:103B000031F41796ED91FC91189709950895018C61
:103B1000F28DE02D09950895FC018081823751F0E6
:103B2000873719F08136C9F40AC081E093E042E09A
:103B300053E009C080E090E042E050E004C089E03A
:103B400091E04AE051E060E070E411C02B3271F086
:103B5000223619F460E070E80AC086E190E09093A4
:103B60006703809366032FEF3FEF08C0CA013196C9
:103B70002081222359F79B01282B392BC901089555
:103B80000F931F93DF93CF930F92CDB7DEB78C01C6
:103B9000FB01898380819181BE016F5F7F4F41E08E
:103BA00050E00E947A1D019711F00FEF1FEFC8013E
:103BB0000F90CF91DF911F910F9108959C01D90132
:103BC0000D900020E9F71197A21BB30BFB01808138
:103BD0009181B901AD010E947A1D0895629FD001C3
:103BE000739FF001829FE00DF11D649FE00DF11DB8
:103BF000929FF00D839FF00D749FF00D659FF00D67
:103C00009927729FB00DE11DF91F639FB00DE11D53
:103C1000F91FBD01CF0111240895A1E21A2EAA1B9C
:103C2000BB1BFD010DC0AA1FBB1FEE1FFF1FA2176C
:103C3000B307E407F50720F0A21BB30BE40BF50B69
:103C4000661F771F881F991F1A9469F760957095F2
:103C5000809590959B01AC01BD01CF010895FB01BA
:103C6000DC0105900D920020E1F70895FC0105901C
:103C70000020E9F7809590958E0F9F1F0895FC0115
:103C80004150504030F001900616D1F73197CF01E6
:103C90000895882799270895FB01DC0104C08D91C0
:103CA0000190801921F441505040C8F7881B990BAE
:103CB0000895FB01DC0102C001900D92415050407B
:103CC000D8F70895DC0101C06D9341505040E0F7F2
:103CD0000895FB01DC018D91019080190110D9F349
:103CE000990B0895FB01DC0101900D920020E1F792
:103CF0000895DC01CB01FC01E199FECF06C0FFBBBA
:103D0000EEBBE09A31960DB20D9241505040B8F79B
:103D10000895E199FECF9FBB8EBBE09A99278DB3A2
:103D20000895262FE199FECF9FBB8EBB2DBB0FB60A
:103D3000F894E29AE19A0FBE01960895F894FFCFA5
:103D400075617274300077000A4E75742F4F5320DE
:103D50004576656E742051756575652044656D6F97
:103D6000004869676820202020204D61696E20206E
:103D70002020204C6F7720202020202000686967B9
:103D800068006C6F77002020202020202020205207
:103D9000657175657374002020202020202020206C
:103DA00054696D656F75740020202020202020202C
:103DB00020416371756972656400202020202020F5
:103DC00020202052656C6561736500202020202032
:103DD000202020202020202020202020205265711B
:103DE00075657374002020202020202020202020B2
:103DF0002020202020202054696D656F75740020DC
:103E000020202020202020202020202020202020B2
:103E10002041637175697265640020202020202094
:103E200020202020202020202020202052656C658A
:103E300061736500526571756573740054696D65D1
:103E40006F75740041637175697265640052656CC9
:103E5000656173650069646C65006D61696E00FF82
:103E60002570282564290A004F530065746865721F
:103E70006E75740000000000D80B0000756172744C
:103E800030000000000500000000005D02BB133B95
:103E90001470176817601793150916D713000000E0
:103EA0000000000000000000000000000000000012
:103EB0000000000000000000000000000000000002
:103EC00000000000000000000000000000000000F2
:103ED0000000F010B810B80EBE0E3310930EFA0F9B
:103EE000AF0F770F690D470F810D230F8F0D0C0E4C
:103EF000970DEA0E7D0E0000000015110000000075
:103F0000C311000000002C120000000094120100F8
:103F10000200030000000000000000000000286E06
:103F2000756C6C29003031323334353637383961AD
:103F30006263646566003031323334353637383980
:103F400041424344454600202020202020202020BC
:103F500020202020202020303030303030303030D1
:083F6000303030303030300009
:00000001FF
