:100000000C9493000C94DD000C94DD000C94DD0046
:100010000C94DD000C94DD000C94DD000C94DD00EC
:100020000C94DD000C94DD000C94DD000C94DD00DC
:100030000C94DD000C9423150C94DD000C94DD0071
:100040000C94DD000C94DD000C94DD000C94DD00BC
:100050000C94DD000C94DD000C94DD000C94DD00AC
:100060000C94DD000C94C7190C94381A0C94DD0024
:100070000C94DD000C94DD000C94DD000C94DD008C
:100080000C94DD000C94DD000C94DD000C94DD007C
:100090000C94DD000C94DD000C94DD000C94DD006C
:1000A0000C94DD000C94DD000C94DD000C94DD005C
:1000B0000C94DD000C94DD000C94DD000C94DD004C
:1000C0000C94DD000C94DD000C94DD00CC1BCF1BE8
:1000D000D21BDA1BDD1BE01BE31BE61BED1B181C10
:1000E0003D1C421C471C4C1C511C5B1C5F1C621CB1
:1000F0006C1C761CC91BC91BC91BC91B9A1C9D1CE7
:10010000A01CB11CB41CBE1CC91BC11CC91CCC1C2E
:10011000D41CD71CDF1CE21CEA1CC91BC91BC91B51
:10012000C91B7A1C881C84E88093740087E0809344
:10013000C4008093CC0011241FBECFEFD1E2DEBFFC
:10014000CDBF00E00CBF14E0A0E0B2E0E8E3F1E4D2
:1001500000E00BBF02C007900D92AA34B107D9F797
:1001600015E0AAE4B4E001C01D92AF31B107E1F798
:100170008FEF9FE79EBF8DBF8FEF9FE78F51954019
:100180008158914050F04FEF5EE74F51554086ED5A
:1001900094E06FE175E00E948A030E94680B81E29F
:1001A00093E06DE972E040E050E020E831E00E9429
:1001B000CD130E9400000C949A200C9400008F92A2
:1001C0009F92AF92BF92CF92DF92EF92FF920F93E6
:1001D0001F93CF93DF936B015A01EB01099000202D
:1001E000E9F72197C61BD70B00D000D0EDB7FEB7BB
:1001F000319620E032E0ADB7BEB712963C932E9315
:10020000119793838283758364830E946A0EEDB78E
:10021000FEB736960FB6F894FEBF0FBEEDBF87E06F
:10022000882E82E0982E03C0EE24FF24E7010E946E
:100230003F0E8C018830910599F42097A9F37E0137
:100240000894E108F1080F920F92ADB7BEB712966D
:100250009C928E9211970E946A0E0F900F90E6CF9B
:10026000803291059CF07E010894E11CF11CEA1497
:10027000FB0434F40E947C0ECC0DDD1D0883D6CF28
:1002800087E090E00E947C0E7E01D0CFCC0DDD1D7A
:1002900018828AE090E00E947C0E80E090E0DF917E
:1002A000CF911F910F91FF90EF90DF90CF90BF9073
:1002B000AF909F908F900895EF92FF920F931F93AE
:1002C000DF93CF93CDB7DEB7A4970FB6F894DEBF18
:1002D0000FBECDBF80E092ECA1E0B0E089839A83AD
:1002E000AB83BC8381EC93E060E070E040E00E946F
:1002F0002B0B40916403509165038BE092E061E128
:1003000072E00E94CD0D40916203509163038BE037
:1003100092E063E172E00E94CD0D809164039091C0
:1003200065030E946B0D61E071E0AE014F5F5F4FAE
:100330000E94560D85E192E00E94830E0E94760293
:100340008E010B5F1F4F94EBE92E92E0F92E86E5AC
:1003500092E00E94260D892B59F08BE592E00E94D5
:10036000830E8EEF94E066E572E00E946D2004C07B
:1003700087E792E00E94830E87E095E00E94950C4B
:10038000BC01C8010E946D208DE892E0B80142E1F5
:1003900050E00E94DF00C8010E94BC0C009761F38E
:1003A000A7E0B5E0FC0186E001900D928150E1F7F5
:1003B0006091190570911A0580911B0590911C059B
:1003C0000E94DF0BBC01C8010E946D2089E992E008
:1003D000B80140E150E00E94DF00C8010E948D0B8F
:1003E0006F3F2FEF72072FEF82072FEF920701F376
:1003F0006093190570931A0580931B0590931C0553
:10040000609111057091120580911305909114056A
:100410000E94DF0BBC01C8010E946D2084EA92E0BB
:10042000B80140E150E00E94DF00C8010E948D0B3E
:100430006F3FEFEF7E07EFEF8E07EFEF9E0701F3C1
:100440006093110570931205809313059093140522
:10045000609115057091160580911705909118050A
:100460000E94DF0BBC01C8010E946D208CEA92E063
:10047000B80140E150E00E94DF00C8010E948D0BEE
:100480006F3FFFEF7F07FFEF8F07FFEF9F0701F33E
:1004900060931505709316058093170590931805C2
:1004A0000F920F92EDB7FEB7F282E1820E946A0EC0
:1004B0000F900F9002C00E943F0E0E94460E892BA3
:1004C000D1F70E943F0E833711F0833551F40E941B
:1004D000120D892B19F089ED92E005C080EE92E0B3
:1004E00002C086EE92E00E94830E31CF0F920F92EF
:1004F00080EF92E0EDB7FEB7928381830E946A0E8F
:100500000F900F908BEF92E00E94830E0F920F924C
:1005100086E093E0EDB7FEB7928381830E946A0E76
:100520000F900F9081E193E00E94830E08959091C7
:100530002B0380932B03892F08950E94360986E2AE
:1005400093E06CE571E040E050E020E033E00E9491
:10055000CD138EEF0E94E1050E9461060E94A9055D
:1005600020912B032F3FC1F393B783B7817F822B59
:1005700083BF83B7816083BF889583B78E7F83BF36
:1005800083B79E70817F982B93BFE6CFCF93DF9385
:10059000DC016E5F7F4F6430710510F464E070E041
:1005A0006F5F7F4F6E7FED91FC911197AD01A0E0E1
:1005B000B0E0C0E0D0E01BC02081318126173707B2
:1005C00080F0109731F08D919C9111972817390781
:1005D00040F42617370719F4DF01EA010DC0DF01E7
:1005E000EA01AF014E5F5F4F0280F381E02D30974B
:1005F00019F79D011097F1F08D919C911197861B31
:10060000970B12962D913C9113978430910568F0C9
:10061000FD01E60FF71F91838083338322831196B8
:100620007C936E93F983E88302C0398328839D010C
:100630002E5F3F4FC901DF91CF910895CF93DF9394
:10064000EC016115710519F42DEF3FEF5FC0DB017F
:100650001297E881F9814FC020813181CF01820F4B
:10066000931F8A179B07E9F46D917C91620F731FAA
:1006700071836083DF01A60FB71F82819381A81762
:10068000B90709F041C08D919C911197680F791FAE
:100690007183608312968D919C91139793838283CB
:1006A00033C0AE17BF07E0F4B983A8834D915C91C6
:1006B0001197CD01840F951F8E179F0761F4240FAA
:1006C000351F11963C932E938281938113969C93B0
:1006D0008E93129719C01396FC93EE93129714C041
:1006E000A817B90718F42FEF3FEF10C0EF012296BB
:1006F0000280F381E02D309709F0AECF13961C9263
:100700001E921297B983A88320E030E0C901DF91DF
:10071000CF9108956F5F7F4FFB01EE7F6150704076
:10072000640F751F6E1B7F0B6E7F61937193BF010A
:100730000E941E030895FC010190F081E02D20E04D
:1007400030E008C0808191810297280F391F028014
:10075000F381E02D3097B1F7C9010895FC010190B4
:10076000F081E02D20E030E009C0808191812817E0
:10077000390708F49C010280F381E02D3097A9F736
:1007800022503040C901089580E090E00895EF9232
:10079000FF920F931F93CF93DF938C01C091D604E8
:1007A000D091D7048CE2E82E83E0F82E26C08DB7D6
:1007B0009EB708970FB6F8949EBF0FBE8DBFEDB7DA
:1007C000FEB73196ADB7BEB712961C930E93119734
:1007D000F382E282D583C48388819981978386835B
:1007E0000E94590E0A80DB81C02D8DB79EB70896F6
:1007F0000FB6F8949EBF0FBE8DBF2097C1F6DF9154
:10080000CF911F910F91FF90EF900895AF92BF92FB
:10081000CF92DF92EF92FF920F931F93CF93DF93CC
:100820006C017B016115710529F4BA010E94C602B1
:100830007C018FC04115510531F40E941E03892BA4
:1008400009F487C061C08B01025010404E5F5F4FBA
:100850004430510510F444E050E0EA012196CE7F87
:10086000F801208131812C173D0708F05FC0F601A7
:10087000A081B181560109C092E0A92EB12CAA0E27
:10088000BB1E12960D90BC91A02D1097B1F1A01730
:10089000B10790F36AC0C801820F931F8A179B07A4
:1008A00061F5CA01861B970B0497D0F0260F371FFE
:1008B000E80139832883FD01E60FF71FE501F9837D
:1008C000E88312968D919C91139793838283E8819C
:1008D000F9818D919C91861B970B9183808339C000
:1008E000420F531FF8015183408312968D919C91C2
:1008F0001397E501998388832CC0C601BE010E942D
:10090000C602EC01009719F4EE24FF2422C0F8017E
:100910002081318122503040B701A9010E9454202A
:10092000C601B7010E941E037E0113C0C9010497CE
:10093000C817D90770F42C1B3D0BF801EC0FFD1FF5
:1009400021933193C601BF010E941E03F801D18398
:10095000C083C701DF91CF911F910F91FF90EF905E
:10096000DF90CF90BF90AF900895BE01621B730BD4
:100970004D915C9111974617570708F08CCFBDCF6A
:100980000F931F93CF93DF93162F072F0E94C6025A
:10099000EC01009731F060E070E0412F502F0E9491
:1009A0005D20CE01DF91CF911F910F910895CF93DC
:1009B000DF93DC01EB0158967C936E935797159665
:1009C0001C921E9214970FB6F8940F92E881F98149
:1009D0008FEFEF3FF80761F414968D919C91159776
:1009E000019615969C938E931497E0E0F0E015C065
:1009F000309799F00F900FBE52969C91529707C076
:100A0000EF0122960280F381E02D309719F0828960
:100A10009817B0F70FB6F8940F921396FC93EE93D5
:100A20001297B983A8831296ED91FC911397309792
:100A300091F084819581892B71F014962D913C91D0
:100A4000159784819581820F931F15969C938E93A1
:100A50001497158214820F900FBEDF91CF910895E5
:100A6000CF93DF93DC01EB010FB6F8940F92E8818E
:100A7000F9810F900FBE8FEFEF3FF80799F534C063
:100A8000EA17FB0751F50FB6F8940F9212968D9165
:100A90009C9113979983888314968D919C911597B7
:100AA000892B81F01296ED91FC911397309731F0DC
:100AB00014968D919C9115979583848315961C921D
:100AC0001E9214970F900FBE13961C921E921297AF
:100AD00058961C921E92579707C0EF0122960280EB
:100AE000F381E02D309761F6DF91CF910895FB01FE
:100AF000168A158A82E08787CB016AED74E00E942E
:100B0000D70408950F931F93CF93DF938C01009721
:100B1000B1F0C091D804D091D9040CC0CE01069692
:100B2000B8010E946420009711F49E010CC0099046
:100B3000D881C02D209791F720E030E004C02091AB
:100B4000DC043091DD04C901DF91CF911F910F9139
:100B50000895E091DE04F091DF04309751F063894D
:100B6000748986ED94E00E941E031092DF041092B7
:100B7000DE040895CF93DF93C091D804D091D904B7
:100B80000E94A9054091DC045091DD04E8EDF4E0F9
:100B90000BC028813981C417D50719F4208331830C
:100BA00005C0FE01C901EC01209799F78091DC0492
:100BB0009091DD049093DF048093DE04DF91CF9168
:100BC00008950F931F93182FE091DC04F091DD043A
:100BD0000289CF016AED74E00E943005E091DC04E7
:100BE000F091DD04128B1F3F31F0CF016AED74E00C
:100BF0000E94D70402C00E94BA05E091DC04F09183
:100C0000DD048091DA049091DB04E817F90719F408
:100C100081E0878709C082E087870FB6F8940F923A
:100C20000E9492130F900FBE802F1F910F91089575
:100C30008FEF0E94E1050895CF93DF93C091D80410
:100C4000D091D90420C00FB6F8940F928C819D8169
:100C50000F900FBE892BA1F0EF89F88D0FB6F89495
:100C60000F928C819D8101979D838C830F900FBE85
:100C7000808191818F5F9F4F19F0CF010E94B00951
:100C80000990D881C02D2097F1F60E94A808E09124
:100C9000DC04F091DD048091DA049091DB04E81724
:100CA000F90761F08785813011F482E087870FB6FC
:100CB000F8940F920E9492130F900FBEDF91CF9184
:100CC0000895E091DC04F091DD0482819381892B09
:100CD00069F0CF016AED74E00E9430058091DC0478
:100CE0009091DD046AED74E00E94D7040E941C0616
:100CF00008958091E6049091E704A091E804B091F2
:100D0000E9040196A11DB11D8093E6049093E704C8
:100D1000A093E804B093E90408952091E004309191
:100D2000E1044091E2045091E3040E94DD1F28EEAB
:100D300033E040E050E00E940820C901DA0104C01D
:100D400000000197A109B1090097A105B105C1F7FC
:100D5000089590E0A0E0B0E0BC01CD0128EE33E0C2
:100D600040E050E00E94DD1F0E948D060895CF9361
:100D7000DF93EC011B821A82E091E404F091E50418
:100D800023C0288539854A855B8580859185A28524
:100D9000B385281739074A075B0748F4821B930B72
:100DA000A40BB50B80879187A287B3870FC0281B40
:100DB000390B4A0B5B0B288739874A875B87FB8394
:100DC000EA830190F081E02D3097D9F6F983E8832A
:100DD000309711F0D383C283EA81FB81309719F0F9
:100DE000D183C08304C0D093E504C093E404DF91B1
:100DF000CF910895CF93DF93FC0114821582168260
:100E000017821586148680859185A285B385009703
:100E1000A105B10561F1A281B38180819181109713
:100E200019F08D939C9304C09093E5048093E4049F
:100E3000C081D1812097A1F0828193819B838A8395
:100E400088859985AA85BB8520853185428553850E
:100E5000820F931FA41FB51F88879987AA87BB8716
:100E60001086118612861386CF010E94B706DF9185
:100E7000CF9108950FB6F8940F922091E604309127
:100E8000E7044091E8045091E9040F900FBEB901C6
:100E9000CA01089560E070E081EE90E0089510923C
:100EA0004F0410925004109251041092520480E0AA
:100EB00090E008952F923F924F925F926F927F92AF
:100EC0008F929F92AF92BF92CF92DF92EF92FF925A
:100ED0000F931F930FB6F8940F92E090E604F090F2
:100EE000E7040091E8041091E9040F900FBE0E94FE
:100EF00081149B01AC01C801B7010E940820522E49
:100F0000432E342E252E0E9481145B016C010E9419
:100F100081143B014C01652D742D832D922DA6016A
:100F200095010E94DD1FE61AF70A080B190BC8018C
:100F3000B70128EE33E040E050E00E94DD1FA4013D
:100F400093010E94082079018A01652D742D832D5B
:100F5000922D28EE33E040E050E00E94DD1FE60EC7
:100F6000F71E081F191FB701C8011F910F91FF90AD
:100F7000EF90DF90CF90BF90AF909F908F907F9039
:100F80006F905F904F903F902F900895EF92FF9257
:100F90000F931F930FB6F8940F92E090E604F09031
:100FA000E7040091E8041091E9040F900FBE0E943D
:100FB00081149B01AC01C801B7010E940820CA013D
:100FC000B9011F910F91FF90EF900895AF92BF92DA
:100FD000CF92DF92EF92FF920F93CF93DF936B014B
:100FE0007C01EA01590186ED94E060E170E00E9425
:100FF000C602FC01009781F10FB6F8940F92809120
:10100000E6049091E704A091E804B091E9040F9000
:101010000FBE20914B0430914C0440914D045091EF
:101020004E04821B930BA40BB50B8C0D9D1DAE1DA6
:10103000BF1D80879187A287B38700FF05C01482F8
:1010400015821682178204C0C482D582E682F78296
:10105000D587C487B786A686CF01DF91CF910F9140
:10106000FF90EF90DF90CF90BF90AF9008950F93D7
:10107000CF93DF930E94E607EC01009711F00E94E6
:10108000B706CE01DF91CF910F910895CF92DF92F5
:10109000EF92FF920F937A0169010E948614A701D3
:1010A00096010E9437080F91FF90EF90DF90CF904C
:1010B0000895AF92BF92CF92DF92EF92FF920F937B
:1010C000CF93DF935B016C0161157105810591057B
:1010D00099F1CAEDD4E08091DC049091DD04BE0169
:1010E0000E943005E090DC04F090DD0483E0F7011D
:1010F0008787C601B50147E755E0970101E00E94E7
:101100004608F701968B858B892B19F00E941C06E7
:1011100015C0E091DC04F091DD04D08FC78B809185
:10112000DA049091DB049383828381E08787F093D4
:10113000DB04E093DA0402C00E946106DF91CF91E4
:101140000F91FF90EF90DF90CF90BF90AF900895F8
:10115000EF92FF920F931F93CF93DF930FB6F89404
:101160000F922091E6043091E7044091E8045091F9
:10117000E9040F900FBE80914B0490914C04A09114
:101180004D04B0914E0479018A01E81AF90A0A0B5C
:101190001B0B20934B0430934C0440934D0450930D
:1011A0004E0451C088859985AA85BB85E816F90645
:1011B0000A071B0760F48E199F09A00BB10B8887E3
:1011C0009987AA87BB87EE24FF24870108C0E81A05
:1011D000F90A0A0B1B0B188619861A861B86888546
:1011E0009985AA85BB850097A105B10561F5EC85B8
:1011F000FD85309721F06E857F85CE011995E091B0
:10120000E404F091E5040190F081E02DF093E50411
:10121000E093E404309711F0138212828C819D8157
:10122000AE81BF8188879987AA87BB870097A10570
:10123000B10531F486ED94E0BE010E941E0303C0A7
:10124000CE010E94B706C091E404D091E504209736
:1012500031F0E114F1040105110509F0A3CFDF918C
:10126000CF911F910F91FF90EF900895CF92DF9251
:10127000EF92FF920F931F9389E796E00E94B214BA
:10128000809170008260809370000FB6F8940F9286
:101290002091E6043091E7044091E8045091E9047C
:1012A0000F900FBE0FB6F8940F928091E6049091C4
:1012B000E704A091E804B091E9040F900FBE28174D
:1012C00039074A075B0771F30FB6F8940F92E09065
:1012D000E604F090E7040091E8041091E9040F900F
:1012E0000FBE2091E0043091E1044091E20450915E
:1012F000E3040FB6F8940F928091E6049091E7040E
:10130000A091E804B091E9040F900FBEF901D42E2A
:10131000C52E2F5F3F4F4F4F5F4FE816F9060A0764
:101320001B0739F3BF018D2D9C2D27E630E040E0EF
:1013300050E00E94DD1F2AE130E040E050E00E94D2
:1013400008202093E0043093E1044093E20450939A
:10135000E3041F910F91FF90EF90DF90CF900895DD
:10136000CF93DF93DC010FB6F8940F92CD91DC910F
:1013700011970F900FBE8FEFCF3FD80709F43AC0F7
:10138000209771F10FB6F8940F92EA81FB811196C4
:10139000FC93EE938C819D81892B71F0309729F01D
:1013A0008C819D819583848305C08FEF9FEF11967B
:1013B0009C938E931D821C820F900FBE8D899E89F7
:1013C000009721F00E94FA061E8A1D8A82E08F870C
:1013D000CE016AED74E00E94D70421E030E00CC039
:1013E0000FB6F8940F928FEF9FEF11969C938E9308
:1013F0000F900FBE20E030E0C901DF91CF9108953A
:101400000F931F93CF93DF938C010FB6F8940F9235
:10141000FC01808191810F900FBEFFEF8F3F9F07EE
:1014200049F40FB6F8940F92F801118210820F90D0
:101430000FBE02C0892B19F4C0E0D0E013C0C0E099
:10144000D0E0C8010E94B009C80FD91F0FB6F894A8
:101450000F92F801808191810F900FBE01978E5FEE
:101460009F4F78F3CE01DF91CF911F910F91089597
:101470000F931F930E94000A182F092F0E946106E4
:10148000812F902F1F910F9108950F931F930E940A
:10149000B009182F092F0E946106812F902F1F91EC
:1014A0000F910895CF93DF93AC01DB010FB6F89451
:1014B0000F92CD91DC9111970F900FBE8FEFCF3F20
:1014C000D80799F534C08D899E892A813B8184177C
:1014D000950741F50FB6F8940F9211963C932E9311
:1014E0008C819D81892B81F0EA81FB81309729F0E5
:1014F0008C819D819583848305C08FEF9FEF11962A
:101500009C938E931D821C820F900FBE82E08F876A
:10151000CE016AED74E00E94D7048FEF9FEF9E8B9F
:101520008D8B05C0DE011296E901209761F6DF91EF
:10153000CF910895CF92DF92EF92FF920F931F9376
:10154000CF93DF938C016A017B010FB6F8940F9261
:10155000FC01808191810F900FBE8F5F9F4F59F4E6
:101560000FB6F8940F92F801118210820F900FBEFF
:101570000E94610632C08091DC049091DD046AED26
:1015800074E00E9430058091DC049091DD04B80184
:101590000E94D704C091DC04D091DD0483E08F87E2
:1015A000C114D104E104F10459F0C701B60142E5C8
:1015B0005AE0980101E00E9446089E8B8D8B02C084
:1015C0001E8A1D8A0E941C06E091DC04F091DD0455
:1015D000858996898F5F9F4F19F020E030E004C025
:1015E000168A158A2FEF3FEFC901DF91CF911F9126
:1015F0000F91FF90EF90DF90CF900895FC010FB610
:10160000F8940F92808191818F5F9F4F11F4118226
:1016100010820F900FBECF010E949A0A08950F9377
:101620001F93CF93DF938C01C0915304D091540446
:101630000AC0CE010296B8010E946420009729F0EA
:101640000990D881C02D2097A1F7CE01DF91CF91CD
:101650001F910F910895CF93DF93EC0161157105F0
:1016600011F07D876C8741114E87CE0102960E9452
:101670000F0B892BA9F4EB89FC89309721F0CE015F
:101680001995892B69F4809153049091540499839E
:101690008883D0935404C093530420E030E002C008
:1016A0002FEF3FEFC901DF91CF91089583E1809340
:1016B000EA048FE493E59093EC048093EB0480E0DC
:1016C00090E06AEE74E043E150E00E94A41F0895A8
:1016D00080E090E06AEE74E043E150E00E94A71FD2
:1016E000892B89F48091EA04833169F48BEE94E0CC
:1016F00064E373E042E050E00E944720009719F451
:1017000020E030E008C08DEE94E067E373E00E94D3
:101710006D202FEF3FEFC9010895DF93CF9300D0E5
:101720000F92CDB7DEB7FC0119821A821B821C8290
:10173000DE01119640E0808180538A3098F520E0E8
:1017400030E0C90163E0880F991F6A95E1F7220F25
:10175000331F820F931F2191332727FD309520538C
:101760003040280F391F808180333CF08A332CF4BD
:101770002F3F310531F328F315C02F3F310509F014
:1017800088F44F5F2C9380818E3239F0443051F4CD
:1017900029813A814B815C8109C0443019F011964E
:1017A0003196C9CF2FEF3FEF4FEF5FEFB901CA017D
:1017B0000F900F900F900F90CF91DF910895AF92FF
:1017C000BF92CF92DF92EF92FF920F931F93DF931E
:1017D000CF93CDB7DEB727970FB6F894DEBF0FBE15
:1017E000CDBF6C837D838E839F83E4E0EE2EF12C4E
:1017F000EC0EFD1E07E614E06E010894C11CD11C1E
:101800005EE277E0A72EB12CAC0EBD1ED7014C9145
:1018100030E0842F6AE00E94FC1F292F842F0E9451
:10182000FC1F482FF601E30FF11D205D20833F5F71
:10183000882379F7932FF7011082D80106C0315021
:10184000F601E30FF11D80818D933323C1F7F80179
:10185000E90FF11DDF015D938D01EA14FB0421F016
:101860000894E11CF11CD2CF108287E694E0279601
:101870000FB6F894DEBF0FBECDBFCF91DF911F91A1
:101880000F91FF90EF90DF90CF90BF90AF900895B1
:10189000DF93CF93CDB7DEB760970FB6F894DEBF76
:1018A0000FBECDBF9C01DE011196E0E4F3E080E1C4
:1018B00001900D928150E1F7A901A5E5B4E020E087
:1018C00030E0BE016F5F7F4F9AE3FA01808182951D
:1018D0008F70FB01E80FF11D80818C93FA018081EC
:1018E0008F70FB01E80FF11D808111968C93119789
:1018F0002530310521F012969C93129703C0129661
:101900001C9212972F5F3F4F4F5F5F4F1396263009
:101910003105D9F685E594E060960FB6F894DEBF00
:101920000FBECDBFCF91DF910895CF93DF93EC0130
:10193000A7E7B4E09AE3E881E295EF70F0E0EF5AB0
:10194000FC4F80818C93E991F0E0EF70F070EF5ADA
:10195000FC4F808111968C93119712969C9312974D
:10196000139684E0A938B80731F710928804CD01A6
:101970004297DF91CF910895E9E8F4E026E0DF0196
:101980001D922A95E9F7DC0142C090330CF446C061
:10199000892F8A53873008F441C08D508A31F0F185
:1019A0009736E4F580818031C8F5282F2295207F75
:1019B00020839C91892F80538A3030F4892F992776
:1019C00087FD9095C09717C0892F8156863038F4CF
:1019D000892F992787FD9095875590400CC0892FB6
:1019E0008154863018F080E090E005C0892F992757
:1019F00087FD9095C797282B208311968C918A3369
:101A000031F4319684E0EF38F80741F011969C915B
:101A1000992309F0BACF29E834E002C020E030E091
:101A2000C901089580E28093FD0480E490E06DEFA9
:101A300074E040E250E00E94A41F892B19F420E0DA
:101A400030E002C02FEF3FEFC9010895CF93DF933D
:101A5000EC0180E490E06DEF74E040E250E00E9421
:101A6000A71F892BE9F48091FD04803251F48EEF99
:101A700094E0BE010E946420009719F420E030E059
:101A800011C0EDEFF4E080E2DF011D928A95E9F7E5
:101A9000CF010A966FEF70E046E050E00E945D20B3
:101AA0002FEF3FEFC901DF91CF910895CF93DF93DF
:101AB000DC011296CD91DC911397209729F41B96A7
:101AC000ED91FC911C9703C0ED89FE89CE0119951B
:101AD000DF91CF910895FC01808191810895CF928B
:101AE000DF92EF92FF920F931F93CF93DF936C01DE
:101AF000CB010E94E2127C012FEF8F3F920709F485
:101B000040C0E8E6F3E003E010E00DC00F5F1F4FB8
:101B100032960830110539F487E190E090931E0564
:101B200080931D052EC080819181892B79F787E0F4
:101B300090E00E94AD0EEC01000F111F0E591C4FDA
:101B4000D801CD93DC932097E1F0C601B7010E9444
:101B5000BD0E99838883D801ED91FC918F5F9F4FD3
:101B600039F4CF010E94A70EF8011182108209C03A
:101B7000F382E2821482D801ED91FC9116821582E3
:101B800002C0E0E0F0E0CF01DF91CF911F910F9113
:101B9000FF90EF90DF90CF9008959F92AF92BF9209
:101BA000CF92DF92EF92FF920F931F93CF93DF9329
:101BB0005C01CB01EA010E94E2126C012FEF8F3F22
:101BC000920781F44DC00894E11CF11C329688E024
:101BD000E816F10459F489E090E090931E05809393
:101BE0001D053EC0E2E6F3E0EE24FF2480819181F2
:101BF0008C179D0741F787E090E00E94AD0EEC0145
:101C00008701000F111F0E591C4FD801CD93DC9393
:101C1000209731F1C501B6010E94BD0E99838883DA
:101C2000D801ED91FC918F5F9F4F89F4CF010E9405
:101C3000A70EE2E0EE1538F00894E11CF11CD80183
:101C4000ED92FC920DC0F8011182108209C0D3827E
:101C5000C2821482D801ED91FC911682158202C0D5
:101C6000E0E0F0E0CF01DF91CF911F910F91FF9065
:101C7000EF90DF90CF90BF90AF909F9008958091AC
:101C80006203909163030E9416130895809162038A
:101C9000909163030E946B0D0E94A51220E030E03A
:101CA000161617061806190614F421E030E0C901CB
:101CB0000895DF93CF93CDB7DEB79E01265F3F4FE8
:101CC0008E819F8168857985A9010E949C0ECF91A4
:101CD000DF910895DF93CF93CDB7DEB7FE0136963F
:101CE000619171918091640390916503AF010E94AD
:101CF0009C0ECF91DF91089560916403709165030C
:101D00000E944A13089560916403709165030E94D4
:101D100068139C012F5F3F4F19F42FEF3FEF0AC06C
:101D200060916403709165038AE090E00E944A1319
:101D300020E030E0C9010895FC01DB019A016081D7
:101D4000718183E992E1AD010E94440F0895BC01C5
:101D500086ED94E00E941E030895BC0186ED94E098
:101D60000E94C6029C01009731F48CE090E09093B1
:101D70001E0580931D05C9010895DF92EF92FF9221
:101D80000F931F93DF93CF93CDB7DEB729970FB68D
:101D9000F894DEBF0FBECDBFD82E7B01FE01319679
:101DA000282F392F8901AE01475F5F4F03C0819310
:101DB0000F5F1F4F202F2D19D8018C91882329F0F8
:101DC0008A3319F0E417F50791F7CE010196FC016B
:101DD000E20FF11D10820E940F0BDC01009749F405
:101DE00082E090E090931E0580931D052FEF3FEF5A
:101DF00014C0F80180818A3319F060E070E003C0FC
:101E0000B8016F5F7F4F5D96ED91FC915E97CD01BC
:101E1000A70120E030E019959C01C90129960FB671
:101E2000F894DEBF0FBECDBFCF91DF911F910F9110
:101E3000FF90EF90DF900895CF92DF92EF92FF92A4
:101E40000F931F93CF93DF936C018B017A01E9010C
:101E500007C0C801B70140E150E0F601199560974D
:101E6000C131D105B4F71C161D062CF4C801B70109
:101E7000AE01F6011995DF91CF911F910F91FF905F
:101E8000EF90DF90CF9008952F923F924F925F9204
:101E90006F927F928F929F92AF92BF92CF92DF927A
:101EA000EF92FF920F931F93DF93CF93CDB7DEB7DF
:101EB0006D970FB6F894DEBF0FBECDBF998F888F98
:101EC0007B8F6A8F1A0149011D8A1C8A9E012E5E32
:101ED0003F4F3D8F2C8FB10103C00894211C311C52
:101EE000D101FC90FF2019F0B5E2FB16B1F781019A
:101EF000061B170B61F08A8D9B8DA801E88DF98D6B
:101F000019952C893D89200F311F3D8B2C8BFF208B
:101F100009F4EEC20894211C311C19821E8A442443
:101F2000552466246A94762CD101BD901D01B0E23F
:101F3000BB1621F489818823B9F703C0EBE2BE16F2
:101F400011F4B982F1CFFDE2BF1621F42E8924608D
:101F50002E8BEACF33E2B31621F44E8941604E8BCB
:101F6000E3CF80E3B81621F49E8990619E8BDCCF8D
:101F7000ACE6BA1621F4BE89B860BE8BD5CFEAE7CD
:101F8000BE1691F2FAE2BF1681F4C4010296D401A2
:101F90004D905C9057FE07C0BE89B460BE8B5094D4
:101FA0004194510853944C01BFCFEEE2BE1691F517
:101FB000D1018C918A3219F06624772422C00894CA
:101FC000211C311CF4016080718022E030E0820E1F
:101FD000931E1DC0C301E3E0880F991FEA95E1F746
:101FE000660C771C860D971D622E772467FC709413
:101FF000A0EDBFEF6A0E7B1E680E791E0894211CAF
:10200000311CF1012081822F80538A3018F377FE32
:102010008BCF87CF8B2D8153893028F54B2C5524BE
:1020200020ED3FEF420E531E17C0C20163E0880F40
:10203000991F6A95E1F7440C551C840D951D422E9D
:10204000552447FC5094A0EDBFEF4A0E5B1E480E8E
:10205000591E0894211C311CF1012081822F8053CC
:102060008A3018F361CFF401BF8A27E62B15E8F018
:1020700035E6B31608F0B0C140E5B416C1F14B1512
:1020800048F085E4B81609F4A7C197E4B91609F039
:10209000A7C1A2C1A3E6BA1611F1AB1508F475C029
:1020A000B8E5BB1609F09CC138C120E7B21609F4A7
:1020B00034C12B1548F039E6B31609F466C04FE673
:1020C000B41609F08DC1D9C08F89853709F45CC079
:1020D000883709F422C1833709F082C128C0A2E001
:1020E000B0E08A0E9B1E80818A8319827FC122E024
:1020F00030E0820E931EE080F180E114F10439F4A7
:1021000042E7C42E43E0D42E33E73F8B1DC0C70106
:102110000E94312001960E94AD0E182F092FB701A1
:102120000E942A20212F302FC9016C0106C082E0B5
:1021300090E0880E991EC080D180C114D10421F492
:1021400032E7C32E33E0D32E77FC0FC0C60160E028
:1021500070E0A3010E943A20009789F08C010C19CD
:102160001D09601671065CF00BC0D6010D900020B1
:10217000E9F78D01015010400C191D0901C08301C0
:102180001982EE24FF243BC11982BE89B3FF09C026
:1021900024E030E0820E931EE080F1800281138102
:1021A00013C0C4010296D4012D913C91B5E7BB1632
:1021B00029F44C01790100E010E015C04C017901CF
:1021C0000027F7FC0095102FE5E7BE1661F017FF1A
:1021D0000AC010950095F094E094E11CF11C011DDB
:1021E000111DFDE2F98377FC03C02E892F7E2E8B13
:1021F000E114F1040105110549F46114710461F45D
:1022000022E1C22ED12CCC0EDD1E31C03AE0E31605
:10221000F1040105110548F491E1C92ED12CCC0E31
:10222000DD1E8E2D805D898B22C082E1C82ED12CCF
:10223000CC0EDD1EC801B7012AE030E040E050E0DE
:102240000E940820605DD6016E936D01C801B70140
:102250002AE030E040E050E00E940820C901DA01A5
:102260007C018D01E114F1040105110519F70C8DB4
:102270001D8D0C191D09BF8AADC0BE89B3FF09C0F1
:1022800024E030E0820E931E60817181828193810F
:1022900009C082E090E0880E991E80819181BC0186
:1022A00080E090E0198277FC03C0AE89AF7EAE8BF0
:1022B000611571058105910549F46114710431F4CA
:1022C000B2E1CB2ED12CCC0EDD1E20C0A2E1CA2E55
:1022D000D12CCC0EDD1E262F2770205DF601229317
:1022E0006F01F3E09695879577956795FA95D1F705
:1022F000611571058105910571F7FE89F0FF06C032
:10230000203321F0D601E0E3EE936D010C8D1D8D9D
:102310000C191D09FFE6FF8B5DC020E7B21679F4AA
:1023200082E090E0880E991E808191819C0140E0BE
:1023300050E09E8991609E8BA8E7AF8B16C0BE8946
:10234000B3FF09C024E030E0820E931E208131816A
:102350004281538109C082E090E0880E991E8081FD
:1023600091819C0140E050E0BF8A77FC03C09E89C8
:102370009F7E9E8BAF89A83519F069E773E002C094
:102380006AE873E01982E2E1CE2ED12CCC0EDD1E7C
:10239000F901EF70F070E60FF71F8081F60182936C
:1023A0006F0194E056954795379527959A95D1F703
:1023B000211531054105510559F7FE89F0FF06C089
:1023C000D601EF89EE93E0E3EE936D010C8D1D8D48
:1023D0000C191D09730113C024E030E0820E931E16
:1023E000BB2009F485C0BA821982BF8A82E0C82E58
:1023F000D12CCC0EDD1EEE24FF2401E010E05801AC
:102400000E151F050CF457018981882319F00894D3
:10241000A11CB11C9E89892F90E09B8B8A8B3C016B
:10242000A4E16A2277246114710459F492012A19F3
:102430003B09888D998D6A8D7B8D4BE953E00E9415
:102440001C0F8981882351F08A8D9B8DBE016F5F9F
:102450007F4F41E050E0E88DF98D1995F0E16F165E
:10246000710459F492012A193B09888D998D6A8D5E
:102470007B8D4BEA53E00E941C0FE01AF10A888D15
:10248000998D6A8D7B8D4BEA53E097010E941C0F5A
:102490000115110541F08A8D9B8DB601A801288D8B
:1024A000398DF90119953F89303519F4C6010E941B
:1024B000A70E4A8942FF0BC092012A193B09888D59
:1024C000998D6A8D7B8D4BE953E00E941C0F4A1455
:1024D0005B043CF08C899D89840D951D9D8B8C8BB4
:1024E000FACCAC89BD89AA0DBB1DBD8BAC8BF3CCDE
:1024F0008C899D896D960FB6F894DEBF0FBECDBF57
:10250000CF91DF911F910F91FF90EF90DF90CF90CF
:10251000BF90AF909F908F907F906F905F904F9003
:102520003F902F900895DC011296ED91FC91139746
:10253000309731F41796ED91FC91189719950895FD
:10254000018CF28DE02D19950895DF93CF9300D083
:102550000F92CDB7DEB7FC01A281B381109799F439
:102560002385348521153105A9F06AE070E0AE01BC
:102570004F5F5F4FF9011995892B61F429813A81E9
:102580004B815C8116C091962D913C9192972115BB
:10259000310559F489E090E090931E0580931D0564
:1025A0002FEF3FEF4FEF5FEF04C0F90119959B014B
:1025B000AC01B901CA010F900F900F900F90CF910D
:1025C000DF910895FC018081823751F0873719F03F
:1025D0008136C9F40AC081E093E042E053E009C0CB
:1025E00080E090E042E050E004C089E091E04AE001
:1025F00051E060E070E411C02B3271F0223619F422
:1026000060E070E80AC086E190E090931E05809338
:102610001D052FEF3FEF08C0CA013196208122230C
:1026200059F79B01282B392BC90108950F931F934C
:10263000DF93CF930F92CDB7DEB78C01FC0184817D
:1026400083FF05C0877F8483258136811CC0F80104
:1026500080819181BE016F5F7F4F41E050E00E9419
:1026600078138130910561F0F8012481892B11F0F4
:10267000206102C02062F80124832FEF3FEF03C0E6
:102680008981282F30E0C9010F90CF91DF911F91F0
:102690000F9108950F931F93DF93CF930F92CDB7B0
:1026A000DEB78C01FB01898380819181BE016F5F60
:1026B0007F4F41E050E00E949312019711F00FEF1D
:1026C0001FEFC8010F90CF91DF911F910F910895D7
:1026D0009C01D9010D900020E9F71197A21BB30BC3
:1026E000FB0180819181B901AD010E94931208958F
:1026F000DC011296ED91FC911397309731F4159609
:10270000ED91FC911697199508950788F08DE02DAD
:10271000199508959F918F910F900BBE0F900FBE4A
:102720001F9018952F923F924F925F926F927F92D7
:102730008F929F92AF92BF92CF92DF92EF92FF92D1
:102740000F931F93CF93DF938DB79EB7E091DC0477
:10275000F091DD04918B808BE091DA04F091DB0441
:10276000F093DD04E093DC0481E087878089918920
:102770008DBF9EBFDF91CF911F910F91FF90EF9082
:10278000DF90CF90BF90AF909F908F907F906F9091
:102790005F904F903F902F900895AF92BF92CF924D
:1027A000DF92EF92FF920F931F93CF93DF93F82E58
:1027B000E92E6B01B42EA52EE901B901675E7F4FAA
:1027C00086ED94E00E94C602FC01009719F420E017
:1027D00030E082C08C010C0F1D1FE8012897A80172
:1027E0004D515040B8016A5F7F4F8F2D9E2D9C0147
:1027F00088E0D9010D909D01DB010D92BD01815052
:10280000C1F7D8011E961C921E9741505040519618
:102810005C934E9350974F5F5F4F5496FC93EE93AB
:1028200053978FEE9EEBADEABEED80839183A2833A
:10283000B38384839583A683B78380879187A28798
:10284000B38784879587A687B78780E4F801828B52
:102850001D82DE82CF8280E88B831A821C82B9823D
:10286000A882DA0152961C9252978AE893E1539615
:102870009C93539754968C938091D8049091D9044B
:10288000918380831093D9040093D80482E08787D2
:10289000168A158A108E178AC8016AED74E00E94A4
:1028A000D704E091DC04F091DD04309721F40FB6F9
:1028B000F8940F9251CF8091DA049091DB04E817DD
:1028C000F90749F082E087870FB6F8940F920E94CB
:1028D00092130F900FBE9801C901DF91CF911F9104
:1028E0000F91FF90EF90DF90CF90BF90AF90089541
:1028F00060918F0470919004809191049091920462
:1029000008956AEE73E080E090E00895603020E87A
:1029100072072EE3820720E0920788F028EE33E06A
:1029200040E050E00E940820CA01B9012AEE33E0DD
:1029300040E050E00E94DD1F9B01AC0110C02AEE78
:1029400033E040E050E00E94DD1F69517C4F8F4F23
:102950009F4F28EE33E040E050E00E940820B9018C
:10296000CA010895BC0180E090E0A1EEB0E0809340
:102970008F0490939004A0939104B0939204E0E7A5
:10298000F0E080818D7F80831092B20092E090937E
:10299000B00085E08093B10082E78093B30095BBDF
:1029A0008BEB93E040E050E00E946D1A08959C018B
:1029B000FB01409170004270809170008D7F809388
:1029C000700020313105D1F0213131053CF4211561
:1029D000310581F02130310551F40DC0223131052E
:1029E00071F122313105D4F020323105D1F02FEFD1
:1029F0003FEF1DC040E082E087BB17C0B99B05C018
:102A000081E090E09183808302C011821082442390
:102A1000B1F08081918180689183808320E030E0F3
:102A200008C088E090E09183808320E030E0442378
:102A300041F08091700082608093700002C020E0BD
:102A400030E0C90108951F920F920FB60F920BB696
:102A50000F9211242F933F934F935F936F937F9324
:102A60008F939F93AF93BF93EF93FF938BEB93E081
:102A70000E94621AFF91EF91BF91AF919F918F9148
:102A80007F916F915F914F913F912F910F900BBE6E
:102A90000F900FBE0F901F901895FC0162817381FB
:102AA00020919404422F50E0CA0180739070892BCA
:102AB00099F024FF05C083E18093C600206404C020
:102AC00081E18093C6002F7B20939404809194042D
:102AD0008F7C80939404089527FF06C08091C100E5
:102AE0008F7D8093C100089582859385892BC1F1E4
:102AF00082859385019793878287809195048823A7
:102B000021F08091C100816003C08091C1008E7F5F
:102B10008093C100DB018D918093C60086819781EF
:102B2000A817B90711F4A481B581B383A2832285C4
:102B30003385848595852817390779F5A089B1896A
:102B40001097C9F08FEFAF3FB80739F114968D9108
:102B50009C911597019615969C938E9314970895C2
:102B60008091C1008F7D8093C10013861286A08959
:102B7000B189109729F48FEF9FEF918B808B089587
:102B80008FEFAF3FB80749F014968D919C91159740
:102B9000019615969C938E9314970895CF93DF9387
:102BA000282F5091C00080919304582B5093930488
:102BB0006091C600409194044423A1F0633139F43C
:102BC0008091C1008F7D8093C100406808C0613151
:102BD00049F48091C10080628093C1004F77409397
:102BE000940460C0A22FB92F1A962D913C911B9787
:102BF00018968D919C9119972817390720F05860E5
:102C0000509393044FC0E9012196232BB9F45096B9
:102C1000ED91FC915197309739F48FEF9FEF5196DA
:102C20009C938E93509722C08FEFEF3FF807F1F0FF
:102C30008481958101969583848318C04423B1F0E3
:102C40001E968D919C911F97C817D90778F046FD65
:102C50000DC08091C00085FF06C083E18093C6004F
:102C600040644F7D01C0406240939404ED91FC911B
:102C7000119761931196FC93EE932D913C911197CE
:102C800016968D919C9117972817390739F4149649
:102C90008D919C91159711969C938E931B96DC9326
:102CA000CE931A97DF91CF9108958091C10082FF52
:102CB00002C089E008958091C20082FF08C080911F
:102CC000C20081FD02C087E0089588E008958091E8
:102CD000C20081FD02C085E0089586E008958091DC
:102CE000C20085FD02C080E008958091C20084FD8D
:102CF00002C082E0089581E008958091C20083FDC2
:102D000002C081E0089582E0089580919304682FC5
:102D100070E0CB0124E0969587952A95E1F79C0118
:102D200040E050E0217030704070507063FD2260D0
:102D300062FD246080919404882321F086FD426026
:102D400087FD486041FF416043FF446080919504E6
:102D5000882311F0406401C040688091C00080FF6A
:102D600002C0406101C04062B901CA010895EF92FA
:102D7000FF920F931F937B018C0180919404882311
:102D8000D9F00FB6F8940F9200FF02C08F7B03C0FA
:102D900001FF03C080648093940402FF04C080910B
:102DA00094048F7705C003FF05C080919404806868
:102DB000809394040F900FBE06FF03C081E08093C0
:102DC000950407FF02C01092950404FF05C080918E
:102DD000C00081608093C00005FF05C08091C000E5
:102DE0008E7F8093C000C70181709070892B29F07D
:102DF000809193048F7E80939304E1FE05C08091BF
:102E00009304877F80939304E2FE05C0809193042E
:102E10008B7F809393040E948516687F6E157F05D3
:102E20008007910719F420E030E002C02FEF3FEF58
:102E3000C9011F910F91FF90EF9008958091C200FA
:102E400086FF0BC06A9B02C093E001C091E08091B5
:102E5000C20080FF09C0946007C08091C00081FF5C
:102E600002C090E201C090E0892F089580919404FF
:102E7000882329F420E030E040E050E004C020E264
:102E800030E040E050E0B901CA010895EF92FF92AE
:102E90000F931F937B018C0165FF0DC080919404FB
:102EA000882381F40FB6F8940F9281E48093940400
:102EB0000F900FBE07C00FB6F8940F9210929404B3
:102EC0000F900FBE80919404882329F420E030E015
:102ED00040E050E004C020E230E040E050E02E1539
:102EE0003F054007510719F420E030E002C02FEF02
:102EF0003FEFC9011F910F91FF90EF900895E1EC12
:102F0000F0E08081806280830895909194049923F9
:102F1000C1F096FF16C00FB6F8940F928091C000D2
:102F200085FF05C081E18093C6009F7E01C090614E
:102F300090939404809194048F79809394040F90DB
:102F40000FBE08950F931F930FB6F8940F9201ECE4
:102F500010E0F80180818F77808380818F7B808370
:102F600080818F7D80830F900FBE8AE00E94A9062A
:102F7000F80180818F7E80838081877F80831F918D
:102F80000F9108951F93182F0E94A217812F10FFF1
:102F900019C011FF02C06A9A01C06A9882FF04C07A
:102FA0008091C200816003C08091C2008E7F8093B7
:102FB000C2008091C0008D7F8093C0008091C200CC
:102FC000806413C015FF04C08091C000826003C0FC
:102FD0008091C0008D7F8093C0008091C2008E7F61
:102FE0008093C2008091C2008F7B8093C2000FB695
:102FF000F8940F9288EB8093C1000F900FBE0E944F
:103000001E17811719F420E030E002C02FEF3FEFC8
:10301000C9011F9108951F93182F0E94A217113004
:1030200021F48091C200877F05C0123029F480917D
:10303000C20088608093C2000FB6F8940F9288EBAC
:103040008093C1000F900FBE8091C20083FD02C02B
:1030500081E001C082E0811719F420E030E002C075
:103060002FEF3FEFC9011F9108951F93182F0E9462
:10307000A217113071F0113018F01230C1F40DC0E8
:103080008091C2008F7E8093C2008091C2008F7DAC
:103090000CC08091C200806103C08091C2008F7E0D
:1030A0008093C2008091C20080628093C2000FB6FC
:1030B000F8940F9288EB8093C1000F900FBE0E948E
:1030C0006F16811719F420E030E002C02FEF3FEFB8
:1030D000C9011F9108951F93182F0E94A217809174
:1030E000C1008B7F8093C1008091C2008D7F80934F
:1030F000C2008091C2008B7F8093C2001730C1F064
:10310000183018F41630C9F405C0183061F01930C1
:10311000A1F404C08091C20082600DC08091C10002
:1031200084608093C1008091C20082608093C2005D
:103130008091C20084608093C2000FB6F8940F9211
:1031400088EB8093C1000F900FBE0E945516811727
:1031500019F420E030E002C02FEF3FEFC9011F91CA
:1031600008958F929F92AF92BF92CF92DF92EF928B
:10317000FF920F931F939090C4008090C5008091A0
:10318000C20086FF06C052E0A52EB12CC12CD12C66
:103190000FC08091C00081FD06C040E1A42EB12C7B
:1031A000C12CD12C05C038E0A32EB12CC12CD12CC0
:1031B0000E944A077B018C01892D90E0382D20E088
:1031C000282B392B40E050E02F5F3F4F4F4F5F4F90
:1031D000C601B5010E94DD1F9B01AC01C801B7010A
:1031E0000E940820CA01B9011F910F91FF90EF9032
:1031F000DF90CF90BF90AF909F908F900895EF9207
:10320000FF920F931F937B018C010E94A217809164
:10321000C20086FD13C08091C00081FF08C0E2E0BB
:10322000EE0CFF1C001F111FEA95D1F707C073E0D9
:10323000EE0CFF1C001F111F7A95D1F70E944A0760
:10324000A80197010E9408202F5F3F4F4F4F5F4F0B
:103250005695479537952795215030402093C400C7
:103260003093C5000FB6F8940F9288EB8093C1009D
:103270000F900FBE80E090E01F910F91FF90EF90B4
:1032800008958DE394E060E070E040E050E00E943B
:103290006D1A83E494E060E070E040E050E00E944A
:1032A0006D1A80E090E008958DE394E06EEC75E196
:1032B00046E054E00E946D1A892BA9F483E494E05F
:1032C0006DE475E144EF53E00E946D1A892B19F407
:1032D00020E030E00AC08DE394E060E070E040E080
:1032E00050E00E946D1A2FEF3FEFC90108959C0135
:1032F000FB014091C10040788091C1008F7780939D
:10330000C10020313105E1F0213131053CF42115B6
:10331000310581F02130310551F40DC022313105E4
:1033200091F122313105F4F020323105F1F02FEF27
:103330003FEF21C040E08091C6008091C60019C0D7
:103340008091C00087FF05C081E090E09183808379
:1033500002C0118210824423B1F080819181806883
:103360009183808320E030E008C080E190E0918389
:10337000808320E030E0442341F08091C1008068E8
:103380008093C10002C020E030E0C90108951F927F
:103390000F920FB60F920BB60F9211242F933F93FB
:1033A0004F935F936F937F938F939F93AF93BF934D
:1033B000EF93FF938DE394E00E94621AFF91EF91E7
:1033C000BF91AF919F918F917F916F915F914F913D
:1033D0003F912F910F900BBE0F900FBE0F901F903B
:1033E00018959C01FB014091C10040728091C10081
:1033F0008F7D8093C1002131310529F122313105C2
:103400003CF42115310581F12031310539F409C031
:103410002231310549F120323105C1F02FEF3FEF64
:103420001BC08091C00085FF05C081E090E09183C2
:10343000808302C0118210824423B1F08081918187
:1034400080689183808320E030E008C080E190E0D4
:103450009183808320E030E0442341F08091C100DB
:1034600080628093C10002C020E030E0C90108956D
:103470001F920F920FB60F920BB60F9211242F933B
:103480003F934F935F936F937F938F939F93AF93EC
:10349000BF93EF93FF9383E494E00E94621AFF913D
:1034A000EF91BF91AF919F918F917F916F915F91BC
:1034B0004F913F912F910F900BBE0F900FBE0F9029
:1034C0001F901895DC011296ED91FC91139730979F
:1034D00019F08D919C9119950895EF92FF920F9399
:1034E0001F93CF93DF93EC017B018A01EC81FD8177
:1034F000309719F420E030E006C080E090E060E012
:1035000070E019959C0119830883FB82EA82C90146
:10351000DF91CF911F910F91FF90EF900895DC0103
:103520001496ED91FC911597309719F42FEF3FEF1A
:1035300006C081E190E060E070E019959C01C9014E
:103540000895DC011496ED91FC911597309719F4CC
:103550002FEF3FEF06C082E190E060E070E0199548
:103560009C01C90108950F931F93DF93CF9300D05F
:103570000F92CDB7DEB78C017C836B83DC01149690
:10358000ED91FC911597309719F42FEF3FEF19C08B
:1035900080E290E0BE016F5F7F4F19959C0100971C
:1035A00081F4D8011496ED91FC91159781E290E099
:1035B000BE016D5F7F4F19959C01009711F4298121
:1035C0003A81C9010F900F900F900F90CF91DF912A
:1035D0001F910F9108950F931F93DF93CF9300D006
:1035E0000F92CDB7DEB78C017C836B83DC01149620
:1035F000ED91FC911597309719F42FEF3FEF1DC017
:1036000088E190E0BE016F5F7F4F19959C010097A4
:10361000A1F48B819C81892B71F0D8011496ED91D6
:10362000FC91159789E190E0BE016D5F7F4F199580
:103630009C01009711F429813A81C9010F900F90E4
:103640000F900F90CF91DF911F910F9108950F93DD
:103650001F93CF93DF93FC01C189D289EDA9FEA905
:1036600019958C01009749F4CF5BDF4FE881F98110
:1036700060E072EC81E090E01995C801DF91CF9194
:103680001F910F910895DC011296ED91FC91139713
:103690000188F289E02D0FB6F8940F9284A595A5C4
:1036A0000F900FBEBC0180E090E00895CF92DF92B2
:1036B000EF92FF920F931F93CF93DF93EC018B0157
:1036C0007A0169018C819D81288539850FB6F8942E
:1036D0000F92198618860F900FBE2617370789F0AC
:1036E000232B21F0009711F00E94A70E0115110560
:1036F00011F1C8010E94AD0E009731F42FEF3FEF9A
:103700001CC061157105B9F09D838C8399838883F2
:103710009B838A83800F911F9F838E83FD86EC8617
:10372000DF86CE861B861A860FB6F8940F9219870D
:1037300008870F900FBE20E030E0C901DF91CF91E4
:103740001F910F91FF90EF90DF90CF900895CF924F
:10375000DF92EF92FF920F931F93CF93DF93FB01C2
:103760006A01DA01ED90FD900D911C912E2DDC0186
:103770005196CD91DC915297E150F140ED32F10537
:1037800040F4EA59FF4FEE0FFF1F0590F491E02D32
:1037900019940FEF1FEF29C1CF5BDF4F43C0CD5B03
:1037A000DF4F91C0CB5BDF4FE881F981822F199504
:1037B0008C011BC1C95BDF4F0BC0C75BDF4FF4CF70
:1037C000C55BDF4F05C0C35BDF4FEECFC15BDF4F93
:1037D000E881F981199590E0FFC0E6FE0DC06AA569
:1037E0007BA54EA55FA528A939A9CE0182960E9486
:1037F000561BEBADFCAD1995E7FE0AC0688D798DBF
:103800004C8D5D8D2E8D3F8DCE0140960E94561BB6
:10381000CF5ADF4F8FE39FEFAFEFBFEFE822F922E0
:103820000A231B23E881F981C801B7011995C0CF8C
:10383000CD5ADF4FE881F981C355D04019959B01DE
:10384000AC01D6016D937D938D939C9313978CA5BA
:103850009DA5892B31F42064F601208331834283B6
:1038600053838A8D9B8D892B09F0BDC0F601808121
:103870009181A281B3818068B2C0E886F9860A8707
:103880001B87B1C088859985AA85BB85A7C0EC86B2
:10389000FD860E871F87A7C08C859D85AE85BF8559
:1038A0009DC088819981AA81BB81EE2011F080643E
:1038B0002AC08F7B28C0888186FF35C02FC0EDAD20
:1038C000FEADB2CFEF96E881F9811995F6016083DC
:1038D00071838283938387C088819981AA81BB8108
:1038E000EE2011F080680FC08F770DC0888187FFB0
:1038F0001AC014C088819981AA81BB81EE2011F081
:10390000946001C09B7F88839983AA83BB836BC02B
:1039100088819981AA81BB8192FF05C081E090E0F6
:10392000A0E0B0E05BC0D6011D921D921D921C92DA
:10393000139759C0CB5ADF4F37CFC95ADF4F48CF03
:103940004C8D5D8D2E8D3F8DCE014096B7010E942E
:10395000561B8C01009709F048C0EBADFCAD1995E2
:1039600044C0888D998D38C04EA55FA528A939A976
:10397000CE018296B7010E94561B1ACF8AA59BA53D
:103980002BC00FB6F8940F92FD8EEC8E0F900FBEE9
:103990002AC08C8D9D8D20C00FB6F8940F92FF8E9B
:1039A000EE8E0F900FBE1FC08E8D9F8D15C00FB66F
:1039B000F8940F92FFA6EEA60F900FBE14C08EA52E
:1039C0009FA50AC00FB6F8940F92F9AAE8AA0F9023
:1039D0000FBE09C088A999A9A0E0B0E0F6018083D4
:1039E0009183A283B38300E010E0C801DF91CF91FF
:1039F0001F910F91FF90EF90DF90CF900895AF92BD
:103A0000BF92CF92DF92EF92FF920F931F93CF93CB
:103A1000DF935C017A01FC01C189D28983E0C82E61
:103A2000D12CC422D522C114D10481F0CE014096FC
:103A300060E470E048E250E028E330E00E94561B6A
:103A4000892BA1F4F1E0CF16D10499F0CE01829632
:103A500060E071E040ED50E020EF30E00E94561B46
:103A6000892B39F08C899D890E94A70E0FEF1FEFDB
:103A700030C086E090E00E94AD0EFC018C01009702
:103A800039F48C899D890E94A70E8EA19FA1ECCF4D
:103A900080E090ECE822F92288819981AA81BB819B
:103AA00020E0E21620E8F20611F48F7701C080686A
:103AB00088839983AA83BB8311821082B382A282F6
:103AC0001582148281E0C816D10419F0EBADFCAD6B
:103AD0001995C801DF91CF911F910F91FF90EF9041
:103AE000DF90CF90BF90AF9008950F931F93CF9327
:103AF000DF93EC01EA81FB812189328901978E5F96
:103B00009F4F18F02FEF3FEF2AC089010F5A1F4F28
:103B1000D801ED91FC910155104060E072E080E029
:103B200090E01995CE010E94A70EC801409660E072
:103B300070E040E050E020E030E00E94561BC801F9
:103B4000829660E070E040E050E020E030E00E94CB
:103B5000561BC801C2960E94380A20E030E0C90115
:103B6000DF91CF911F910F910895CF92DF92EF9245
:103B7000FF920F931F93CF93DF93EC016A010FB66F
:103B8000F8940F928A8D9B8D860F971F9B8F8A8F3B
:103B90000A8D1B8D0F900FBE90E2E92EF12CEC0EDA
:103BA000FD1E13C0E9ADFAAD19954C855D856E8596
:103BB0007F85C7010E949A0A892B51F40FB6F894A9
:103BC0000F920A8D1B8D0F900FBEC016D10650F3B9
:103BD000C801DF91CF911F910F91FF90EF90DF907F
:103BE000CF9008958F929F92AF92BF92CF92DF9223
:103BF000EF92FF920F931F93DF93CF930F920F9249
:103C0000CDB7DEB78B015A016901DC0151968D9069
:103C10009C905297F401808D918D892B19F40FEFB0
:103C20001FEFABC06115710549F4C40160E070E09D
:103C300040E050E00E94B51D8C019FC0F4018081DE
:103C40009181A281B3819C01AD0169E056954795B0
:103C5000379527956A95D1F7F22FF170FA8327E00F
:103C6000B695A795979587952A95D1F7282F217016
:103C700029830FB6F8940F92D4015A964D915C9116
:103C80005B970F900FBE780100E010E060E070E0FD
:103C90005BC09B01240F351FF401868D978D28177B
:103CA000390788F0448D558DC4010E94B51DAC01C3
:103CB000D4015C968D919C915D978417950708F4CB
:103CC0005CC060E070E0C114D10419F0F701849188
:103CD00002C0D7018C91B981B13069F48A3081F486
:103CE000EA81E13021F4F2E0FA83F98302C022E0B4
:103CF00029838DE00AC09981923011F4A1E0A98353
:103D00000894E11CF11C0F5F1F4FD4015096ED91F8
:103D1000FC91519781935196FC93EE935097509656
:103D20002D913C91519756968D919C9157972817BC
:103D3000390741F454968D919C91559751969C93D7
:103D40008E9350976F5F7F4F0A151B050CF4A1CF20
:103D50006115710591F00FB6F8940F92F401828D00
:103D6000938D680F791F738F628F0F900FBED401F0
:103D7000D996ED91FC91DA971995C8010F900F90A3
:103D8000CF91DF911F910F91FF90EF90DF90CF9037
:103D9000BF90AF909F908F900895FC018281938196
:103DA00021E030E00E94F21D0895FC0182819381A0
:103DB00020E030E00E94F21D0895AF92BF92CF92B2
:103DC000DF92EF92FF920F931F93CF93DF936B01DC
:103DD0005A01DC011296ED91FC911397C189D289A9
:103DE0006AA57BA56115710509F4A0C0C114D104B1
:103DF00061F44EA55FA528A939A9CE0182960E943B
:103E0000561BEBADFCAD199519C08E010E5C1F4F12
:103E10000FB6F8940F92ECA4FDA40F900FBEE1141E
:103E2000F104A1F4EBADFCAD1995488559856A857F
:103E30007B85C8010E949A0A892B19F020E030E0A6
:103E400077C08AA59BA5892B19F770C0D6018881F8
:103E500087FF30C000E010E040E050E07AE026C08C
:103E60004E155F0508F048C0ECA1FDA16191FDA3CE
:103E7000ECA32CA13DA188A599A52817390721F409
:103E80008EA19FA19DA38CA36D3011F06A3041F4E7
:103E90008CA9882311F0861739F46CAB7D9302C08E
:103EA0001CAA6D930F5F1F4F4F5F5F4F0A151B05D5
:103EB000B8F222C08501EA14FB0408F4870140E04F
:103EC00050E016C0ECA1FDA1D601A40FB51F819151
:103ED0008C93FDA3ECA32CA13DA188A599A528173F
:103EE000390721F48EA19FA19DA38CA34F5F5F4F43
:103EF0004017510738F3A80141155105A9F00FB635
:103F0000F8940F928CA59DA5841B950B9DA78CA75B
:103F10000F900FBE2CA53DA58EA59FA5281739078C
:103F200018F4EBADFCAD1995980102C02FEF3FEFEF
:103F3000C901DF91CF911F910F91FF90EF90DF901A
:103F4000CF90BF90AF9008950E94AA1F08950E943D
:103F5000D51F0895CF92DF92EF92FF920F931F9398
:103F6000CF93DF938C016B017A01C0E0D0E00FC0EA
:103F7000C8010E948420F601EC0FFD1F60818617A6
:103F800019F0C8010E948C2021960F5F1F4FCE159B
:103F9000DF0570F380E090E0DF91CF911F910F91EA
:103FA000FF90EF90DF90CF9008959C01CB01B90175
:103FB0000E94742080E090E00895629FD001739F7A
:103FC000F001829FE00DF11D649FE00DF11D929FB5
:103FD000F00D839FF00D749FF00D659FF00D9927F4
:103FE000729FB00DE11DF91F639FB00DE11DF91F18
:103FF000BD01CF0111240895991B79E004C0991FD8
:10400000961708F0961B881F7A95C9F78095089532
:10401000A1E21A2EAA1BBB1BFD010DC0AA1FBB1FCC
:10402000EE1FFF1FA217B307E407F50720F0A21B3E
:10403000B30BE40BF50B661F771F881F991F1A94AB
:1040400069F760957095809590959B01AC01BD01D5
:10405000CF010895FB01DC0105900D920020E1F7EE
:104060000895FC0105900020E9F7809590958E0F4A
:104070009F1F0895FC014150504030F001900616FA
:10408000D1F73197CF010895882799270895FB012B
:10409000DC0104C08D910190801921F44150504001
:1040A000C8F7881B990B0895FB01DC0102C0019041
:1040B0000D9241505040D8F70895DC0101C06D9336
:1040C00041505040E0F70895FB01DC018D910190D3
:1040D00080190110D9F3990B0895FB01DC010190BF
:1040E0000D920020E1F70895DC01CB01FC01F99964
:1040F000FECF06C0F2BDE1BDF89A319600B40D9234
:1041000041505040B8F70895F999FECF92BD81BD56
:10411000F89A992780B50895262FF999FECF1FBAEE
:1041200092BD81BD20BD0FB6F894FA9AF99A0FBEE0
:0841300001960895F894FFCFF9
:1041380025733A20257300082008007561727430D1
:1041480000770072000A0A4E6574776F726B20431D
:104158006F6E66696775726174696F6E2045646910
:10416800746F72202D20436F6D70696C6564204AEE
:10417800756E2031322032303132202D2031393ADB
:1041880035353A34320065746830000A4E6F206362
:104198006F6E66696775726174696F6E20617661AA
:1041A800696C61626C65000A436F6E666967757257
:1041B8006174696F6E206C6F61646564004D414382
:1041C80020416464726573730049502041646472CD
:1041D800657373004950204D61736B004950204747
:1041E800617465000A5072657373205320746F20E0
:1041F80073617665207468697320636F6E6669679A
:1042080075726174696F6E20004661696C6564003F
:104218005361766564004469736361726465640020
:10422800426F6172642020203A20004574686572EC
:104238006E75742031004D656D6F727920203A20BB
:1042480000496E7465726E616C20454550524F4D41
:104258000069646C65006D61696E00FF2570282532
:1042680064290A004F530065746865726E7574009E
:104278003031323334353637383941424344454694
:1042880000303132333435363738394142434445CA
:1042980046000100020003000000000000000000CA
:1042A8000000286E756C6C29003031323334353695
:1042B80037383961626364656600303132333435CA
:1042C80036373839414243444546002020202020D3
:1042D8002020202020202020202020303030303086
:1042E800303030303030303030303000000000D7DF
:1042F80014000075617274300000000005000000B1
:104308000000E403271BA71BDD1ED51ECD1EFF1CC6
:10431800751D431B000000000000000000000000A5
:104328000000000000000000000000000000000085
:104338000000000000000000000000000000000075
:10434800000000000000000000541941197F178583
:104358001746173617FF18B1186B18551635186F0A
:10436800160B187D16B7168516C2171E1700000003
:0A43780000771900000000F11900A1
:00000001FF
