:100000000C946F000C94B9000C94B9000C94B900D6
:100010000C94B9000C94B9000C94E6400C94B9000F
:100020000C94B9000C94B9000C94B9000C94B9006C
:100030000C94B9000C94A1520C94B9000C94B90022
:100040000C94B9000C94B9000C94B9000C94B9004C
:100050000C94B9000C94B9000C94B9000C94B9003C
:100060000C94B9000C94B9000C94B9000C94B9002C
:100070000C94B9000C94B9000C94B9000C94B9001C
:100080000C94B9000C94B9000C94B9000C94B9000C
:100090000C94B9000C94B9000C94B9000C94B900FC
:1000A0000C94B9000C94B9000C94B9000C94B900EC
:1000B0000C94B9000C94B9000C94B9000C94B900DC
:1000C0000C94B9000C94B9000C94B900FFFFFF30F8
:1000D000FFFFFFFFFFFFFFFFFFFFFFFFFFFF84E8C2
:1000E0008093740087E08093C4008093CC00112437
:1000F0001FBECFEFD1E2DEBFCDBF00E00CBF14E0EA
:10010000A0E0B2E0E0E8F7EA00E00BBF02C0079031
:100110000D92A03BB107D9F715E0A0EBB4E001C008
:100120001D92A53EB107E1F78FEF9FE79EBF8DBF00
:100130008FEF9FE7855E95408158914050F04FEFDB
:100140005EE7455E55408EEB95E065EE75E00E94FA
:10015000F3490E94D1518DE893E069E773E040E0F4
:1001600050E020E831E00E9436370E9400000C94F5
:10017000BE530C94000082E090E060E070E024E068
:1001800030E040E050E00E94A13A82E090E061E07F
:1001900070E024E030E040E050E00E94A13A82E0CC
:1001A00090E062E070E024E030E040E050E00E9447
:1001B000A13A82E090E063E070E024E030E040E0CB
:1001C00050E00E94A13A82E090E064E070E022E01A
:1001D00030E040E050E00E94A13A82E090E064E02C
:1001E00070E00E94133882E090E065E070E022E069
:1001F00030E040E050E00E94A13A82E090E065E00B
:1002000070E00E94133882E090E066E070E022E047
:1002100030E040E050E00E94A13A82E090E066E0E9
:1002200070E00E94133882E090E067E070E022E026
:1002300030E040E050E00E94A13A82E090E067E0C8
:1002400070E00E94133808954F925F926F927F92F0
:100250008F929F92AF92BF92CF92DF92EF92FF92D6
:100260000F931F9382E090E060E070E00E94E1371E
:100270002C0182E090E061E070E00E94E1378C01A7
:1002800082E090E062E070E00E94E1373C0182E0B1
:1002900090E063E070E00E94E1374C0182E090E082
:1002A00064E070E00E94E1375C0182E090E065E08C
:1002B00070E00E94E1376C0182E090E066E070E05F
:1002C0000E94E1377C0182E090E067E070E00E94EC
:1002D000E137000F111F660C771C660C771C06298E
:1002E00017290429152963E0880C991C6A95E1F700
:1002F0000829192954E0AA0CBB1C5A95E1F70A29D0
:100300001B2945E0CC0CDD1C4A95E1F70C291D2981
:1003100036E0EE0CFF1C3A95E1F70E291F29969561
:10032000982F882797958795082B192BC8011F911F
:100330000F91FF90EF90DF90CF90BF90AF909F9084
:100340008F907F906F905F904F9008954F925F9243
:100350006F927F928F929F92AF92BF92CF92DF92D5
:10036000EF92FF920F931F93DF93CF93CDB7DEB73A
:10037000C058D0400FB6F894DEBF0FBECDBF6C01A1
:1003800080E092E0B6010E949A4288248A94982CD8
:100390005E010894A11CB11CA9E66A2EA2E07A2E87
:1003A000F8E34F2EF2E05F2EC6010E94BA41C5016C
:1003B00060E870E0A6010E945E42892B09F401C149
:1003C000C5016DE070E00E946F53FC01009709F0D9
:1003D0001082C5016AE070E00E946F53FC01009733
:1003E00009F0108289818823F9F2D5010D9000204F
:1003F000E9F77D010894E108F108EA18FB08C50156
:1004000061E372E0A7010E948A530097A1F48EEB8A
:1004100095E00E94044A00D000D0EDB7FEB73196B7
:10042000ADB7BEB71296DC92CE921197538242823C
:100430009583848394C0F2E0EF16F10408F465C05C
:10044000870101501040C50160E572E0A8010E94DB
:100450008A53009741F50A0D1B1DD8014C91423378
:1004600089F0433324F4413309F0A5C006C0433377
:1004700071F0443309F09FC00FC082E090E064E067
:1004800070E00EC082E090E065E070E009C082E0BC
:1004900090E066E070E004C082E090E067E070E029
:1004A0000E9413382FC0C5016FE572E0A8010E94B9
:1004B0008A53009751F50A0D1B1DF8014081423304
:1004C00089F0433324F4413309F075C006C0433347
:1004D00071F0443309F06FC00FC082E090E064E037
:1004E00070E00EC082E090E065E070E009C082E05C
:1004F00090E066E070E004C082E090E067E070E0C9
:100500000E94853886E592E058C0C50163E672E036
:10051000A7010E948A53009781F0C50164E772E049
:10052000A7010E948A53009719F024C00E94CA4C68
:100530000E94240188169906C9F30E9424014C01E7
:1005400000D000D0EDB7FEB73196ADB7BEB712966A
:10055000DC92CE92119773826282958384830E948B
:100560008942EDB7FEB736960FB6F894FEBF0FBEC0
:10057000EDBF1ACF89E792E0B6010E949A4288E95E
:1005800092E0B6010E949A4282EC92E0B6010E948B
:100590009A4283EE92E0B6010E949A4283E093E091
:1005A000B6010E949A4284E293E0B6010E949A4208
:1005B00088E493E002C08CE493E0B6010E949A4282
:1005C000F3CEC058DF4F0FB6F894DEBF0FBECDBFDD
:1005D000CF91DF911F910F91FF90EF90DF90CF901F
:1005E000BF90AF909F908F907F906F905F904F9053
:1005F0000895EF92FF920F931F930E942F167C0194
:1006000069E370E30E94A115C7016AE573E00E94E7
:1006100063418C010E94A601C8010E942541C701C7
:100620000E940615EACF8F929F92AF92BF92CF920F
:10063000DF92EF92FF920F931F93DF93CF9300D03F
:1006400000D0CDB7DEB7DE011196E7E8F3E086E033
:1006500001900D928150E1F70E94BB0087EE93E07C
:1006600060E073E845E00E9494518EE593E060E01D
:1006700070E020E63AEE40E050E00E949104892BC1
:1006800011F18EE593E04E010894811C911CB40198
:1006900020E63AEE40E050E00E949104892B99F068
:1006A00083E693E00E94B91A5B016C0183E793E053
:1006B0000E94B91A7B018C018EE593E0B401A6017A
:1006C00095010E942C1E81E893E060E773E040E012
:1006D00050E028E635E00E9436370E94F902FDCF4F
:1006E0000E94F902FDCF9091970380939703892F81
:1006F00008950E949F4F82E993E063E173E040E038
:1007000050E020E033E00E9436378EEF0E944A4CE2
:100710000E94CA4C0E94124C209197032F3FC1F3B4
:1007200093B783B7817F822B83BF83B7816083BFF9
:10073000889583B78E7F83BF83B79E70817F982B08
:1007400093BFE6CF8091B50490E008958091B60400
:100750009091B7041092B7041092B604089520E067
:1007600030E08091B504853011F421E030E0C9011A
:100770000895DF92EF92FF920F931F93CF93DF9331
:10078000D62E79018A010E947851EC01009751F030
:100790008B85833039F4EF85F889309719F08081A3
:1007A000863049F081E190E09093B7048093B604DD
:1007B0002FEF3FEF35C00E94C34D6093C00470938C
:1007C000C1048093C2049093C304E092BC04F092ED
:1007D000BD040093BE041093BF04D092B504809171
:1007E000B3049091B404892B69F488E993E066E33B
:1007F00079E0AE0120E231E00E9436379093B404F4
:100800008093B30488EB94E00E94AE508AEB94E0AE
:1008100040E050E060E070E00E94035120E030E0F2
:10082000C901DF91CF911F910F91FF90EF90DF9061
:100830000895FC019A01AB018091B504882349F029
:1008400083E090E09093B7048093B6042FEF3FEFDE
:1008500005C0CF0168E00E94B9039C01C901089559
:10086000FC019A01AB018091B504853049F083E029
:1008700090E09093B7048093B6042FEF3FEF05C04C
:10088000CF0169E00E94B9039C01C9010895CF928C
:10089000DF92EF92FF920F931F93CF93DF93FC01B0
:1008A00084E292E0DF01EC011D922197E9F781E0FB
:1008B0008083818386E08283EF016C96AEE9B5E0A8
:1008C0000D9009928150E1F7248335834683578345
:1008D0000C2CCD2CD02CD186C086E486F5860687DC
:1008E0001787E451FF4F93E69193DF0182E88193EC
:1008F00083E511968C93DF0111969183FD0131966A
:1009000085E311968C9381E08183628387E090E098
:10091000DF91CF911F910F91FF90EF90DF90CF90DB
:1009200008954F925F926F927F928F929F92AF92B3
:10093000BF92CF92DF92EF92FF920F931F93DF93BC
:10094000CF93CDB7DEB760970FB6F894DEBF0FBE7A
:10095000CDBF4C012B012D873E874F87588B0E94BE
:1009600078515C01009769F0FC018385833049F47C
:10097000C784D088C114D10421F0F601808186306B
:1009800019F081E190E03BC08E010F5F1F4FF8012D
:1009900011928A95E9F797E0692E712C6C0E7D1EF5
:1009A000C3016FEF70E046E050E00E94685385E0BD
:1009B000E82EF12CEC0CFD1CC701B80146E050E01C
:1009C0000E945253009741F0C701B30146E050E046
:1009D0000E945253009731F54114510449F0AEE999
:1009E000B5E0F20186E001900D928150E1F70CC074
:1009F000C4010E94561E892B39F082E090E090934A
:100A0000B7048093B604BFC0D701EEE9F5E086E0F5
:100A100001900D928150E1F764EF71E080E090E089
:100A20000E94C24EF60113861486158616868091A2
:100A3000A8059091A905A091AA05B091AB05838B5B
:100A4000948BA58BB68B8091A8059091A905A09158
:100A5000AA05B091AB052091B0053091B105409148
:100A6000B2055091B30582239323A423B5230097A5
:100A7000A105B10501F1C40140EE5EE260E070E065
:100A80000E9430042091B0053091B1054091B2052B
:100A90005091B3052093A4053093A5054093A60576
:100AA0005093A705E090A805F090A9050091AA052C
:100AB0001091AB0558C0C40161E02D853E854F857E
:100AC00058890E94B903892B09F05DC08091B50453
:100AD000853031F5E091B104F091B2044181528149
:100AE000638174810581168127813085C584D68410
:100AF000E784F088C5010E945D1CE091B104F0918B
:100B0000B2042189328943895489E588F6880789A6
:100B1000108D80E090E060E070E00E947B1030C0BB
:100B2000F60183859485A585B6850097A105B10555
:100B300039F52091A4053091A5054091A605509165
:100B4000A705E090A805F090A9050091AA051091CD
:100B5000AB05D801C70182239323A423B5230097B3
:100B6000A105B10581F0A090AC05B090AD05C09095
:100B7000AE05D090AF05C4016EE975E00E94591D25
:100B800020E030E002C02FEF3FEFC90160960FB6C2
:100B9000F894DEBF0FBECDBFCF91DF911F910F91B3
:100BA000FF90EF90DF90CF90BF90AF909F908F908D
:100BB0007F906F905F904F900895CF93DF93EC01FB
:100BC000009779F089A59AA5009711F00E94D1426B
:100BD0008BA59CA5009711F00E94D142CE010E94E6
:100BE000D142DF91CF910895EF92FF920F931F931F
:100BF000CF93DF938C01F62EE72EEA01DC018D9175
:100C00009C91009711F00E94D142CE0101960E9462
:100C1000D742F80191838083009769F0209729F0EB
:100C20006F2D7E2DAE010E945F53D801ED91FC9196
:100C3000EC0FFD1F1082DF91CF911F910F91FF905C
:100C4000EF9008954F925F926F927F928F929F9252
:100C5000BF92CF92DF92EF92FF920F931F93CF93A9
:100C6000DF938C017B018DE290E00E94D742EC0182
:100C70004C01009709F45BC18DE2FE0111928A9547
:100C8000E9F780EC98EAA0E0B0E08DA39EA3AFA3C3
:100C9000B8A7F80180899189A289B38989839A8349
:100CA000AB83BC8300511F4F80E19FEFE80EF91E1C
:100CB00069E2462E512C4C0E5D1E5BE2652E712CB6
:100CC0006C0E7D1EE5C0332331F40F5F1F4F089477
:100CD000E108F108DDC0F801B180CB2CDD24EC1473
:100CE000FD040CF4E3C0353341F4F1E0BF1609F024
:100CF000DDC0F80182818883C0C03C3029F4B8018E
:100D00006E5F7F4FC20106C03F3041F4B8016E5F95
:100D10007F4FC301A6010E94F405AFC0F3E0FB15AD
:100D200008F0ABC0F8012281838190E0A0E0B0E040
:100D30004427582F692F7A2F848190E0A0E0B0E0FB
:100D4000DC0199278827480F591F6A1F7B1F420F14
:100D5000511D611D711D858190E0A0E0B0E0B82FAC
:100D6000AA2799278827480F591F6A1F7B1F3130F0
:100D700029F44D835E836F8378877FC03C3129F4EB
:100D800049875A876B877C8778C0333029F44D8731
:100D90005E876F87788B71C0363009F041C0498B10
:100DA0005A8B6B8B7C8BF7E0FB1508F066C0F80163
:100DB000268130E040E050E02D8B3E8B4F8B588FEA
:100DC000878190E0A0E0B0E0BA2FA92F982F882764
:100DD000820F931FA41FB51F8D8B9E8BAF8BB88F77
:100DE000208530E040E050E0A90133272227280F7A
:100DF000391F4A1F5B1F2D8B3E8B4F8B588F818570
:100E000090E0A0E0B0E0B82FAA2799278827280F04
:100E1000391F4A1F5B1F2D8B3E8B4F8B588F2DC068
:100E2000363329F4498F5A8F6B8F7C8F26C03A3323
:100E300059F4042E472F702D052E562F602D4D8FFF
:100E40005E8F6F8F78A319C03B3359F4042E472F60
:100E5000702D052E562F602D49A35AA36BA37CA39A
:100E60000CC0333351F4042E472F702D052E562F0E
:100E7000602D4DA35EA36FA378A78B2D90E0029603
:100E8000080F191F8EEF9FEFE80EF91EEC18FD08F2
:100E9000F80130813F3F09F45BC01E141F040CF4BD
:100EA00012CF04C0853041F0863031F0CE010E946F
:100EB000DD05882499243BC08D8D9E8DAF8DB8A112
:100EC0000097A105B10561F48DA19EA1AFA1B8A5C0
:100ED000B695A795979587958D8F9E8FAF8FB8A361
:100EE00089A19AA1ABA1BCA10097A105B105F9F414
:100EF0008D8D9E8DAF8DB8A19C01AD015695479506
:100F0000379527957C018D0162E016950795F7943A
:100F1000E7946A95D1F72E0D3F1D401F511F280FF2
:100F2000391F4A1F5B1F29A33AA34BA35CA3C4012B
:100F3000DF91CF911F910F91FF90EF90DF90CF90B5
:100F4000BF909F908F907F906F905F904F9008958B
:100F50008881823009F0A6CFAFCFEF92FF920F9336
:100F60001F937C01D901F901E00FF11FE451FF4FFC
:100F70008FEF8083F801E351FF4F81E0EC32F807F7
:100F800010F4ECE2F1E0C70123E430E08D017F01D1
:100F90000E94051897FD03C020E030E008C083E1FF
:100FA00090E09093B7048093B6042FEF3FEFC90110
:100FB0001F910F91FF90EF9008952F923F924F92C3
:100FC0005F926F927F928F929F92AF92BF92CF92D9
:100FD000DF92EF92FF920F931F93DF93CF93CDB7E2
:100FE000DEB71C012A013B014901A80197018601D6
:100FF0007501C40163E0CE8CDF8C0E9447049C0124
:101000008E899F89A88DB98D0097A105B105C1F082
:10101000F401E20FF31FE451FF4F82E38083245178
:101020003F4FF401E20FF31F84E081838E899F8993
:10103000A88DB98D82839383A483B583265E3040C7
:101040008A8D9B8DAC8DBD8D0097A105B105C1F03A
:10105000F401E20FF31FE451FF4F86E38083245134
:101060003F4FF401E20FF31F84E081838A8D9B8D53
:10107000AC8DBD8D82839383A483B583265E30407F
:10108000F401E20FF31FE451FF4F87E38083245103
:101090003F4FF401E20FF31F2C5E3040DF01119649
:1010A00093E09183FD01319681E011968C939183B9
:1010B00086E0828375E0E72EF12CE20EF31E45ED0B
:1010C00055E0DA010D900020E9F7A65DB5401A164B
:1010D0001B06D4F40A2FF401EE0DFF1DE451FF4F5F
:1010E0008CE08083F901EF50FF4FE80DF91DA183DB
:1010F0003296CF01BA014A2F50E00E945F5310E0B0
:101100000E5F1F4FE00EF11EC101B301A201940159
:1011100087010E94AD07CF91DF911F910F91FF9042
:10112000EF90DF90CF90BF90AF909F908F907F9087
:101130006F905F904F903F902F9008952F923F9225
:101140004F925F926F927F928F929F92AF92BF92D7
:10115000CF92DF92EF92FF920F931F93DF93CF9383
:10116000CDB7DEB760970FB6F894DEBF0FBECDBF28
:101170009C878B874D875E876F87788B3901470106
:1011800058010E94C34D6F83788789879A876701CA
:101190007801E6E02E2EEFEF3E2EEFEF4E2EEFEF32
:1011A0005E2E280C391C4A1C5B1C8B859C85BE015D
:1011B0006D5F7F4FAE014F5F5F4F930104E212E01E
:1011C0000E949A179C01181619064CF00097A1F17D
:1011D00084E190E09093B7048093B6042DC0823FE1
:1011E000910588F0F3018081823069F484819581D2
:1011F000A681B7814D855E856F85788984179507AF
:10120000A607B707C9F00E94C34D2F8138854985CD
:101210005A85621B730B840B950B6215730584054D
:10122000950518F020E030E007C075016401C61A8A
:10123000D70AE80AF90AB9CFC90160960FB6F8943F
:10124000DEBF0FBECDBFCF91DF911F910F91FF90F9
:10125000EF90DF90CF90BF90AF909F908F907F9056
:101260006F905F904F903F902F900895DF93CF93B2
:10127000CDB7DEB7A0970FB6F894DEBF0FBECDBFD7
:101280008C010E942F4E6B8B7C8B8D8B9E8B2091C3
:10129000A4053091A5054091A6055091A7052B877F
:1012A0003C874D875E87D8011F960D90BC91A02D7D
:1012B000BA8FA98F1A968C9190E0A0E0B0E0BA2F77
:1012C000A92F982F8827E98DFA8D2185820F911DEE
:1012D000A11DB11DBA2FA92F982F88272085820F15
:1012E000911DA11DB11D2227382F492F5A2F87810B
:1012F000280F311D411D511D2B8F3C8F4D8F5E8F4F
:1013000018A21F8E66247724188E1F8A1F86188ABB
:10131000198A1A8A992430EA232E3FE0332E412C71
:10132000512C01C0982C9920E1F0220C331C441C54
:10133000551C31E023163AEF330630E0430630E027
:10134000530630F0212C9AEF392E412C512C38C005
:101350002FEF3FEF4FEF5FEF2F83388749875A8793
:1013600037C08091B504833059F08B8D9C8DAD8D45
:10137000BE8D0196A11DB11D8B8F9C8FAD8FBE8F31
:10138000E091B104F091B2043097A1F0218D328D3B
:10139000438D548D2F83388749875A87211531050E
:1013A0004105510539F080EA282E8FE0382E412C76
:1013B000512C0EC000EA202E0FE0302E412C512C73
:1013C0008FEF9FEFAFEFBFEF8F839887A987BA8723
:1013D0008091B5048823D9F18091BC049091BD041B
:1013E000A091BE04B091BF040097A105B10579F1A9
:1013F0000E94C34D9B01AC018091C0049091C10437
:10140000A091C204B091C304281B390B4A0B5B0B9B
:101410006091BC047091BD048091BE049091BF04A2
:10142000261737074807590738F0A1E0B0E0B09316
:10143000B704A093B60418C6621B730B840B950BFC
:10144000621573058405950510F41B012C0180912C
:10145000B504823021F0863011F0873041F59920B3
:10146000F1F00E942F4E2B893C894D895E89621BC9
:10147000730B840B950B605070408140904028F0B6
:101480004FEF5FEF588F4F8B12C00E942F4EDB0142
:10149000EB89FC89AE1BBF0BB88FAF8B08C00E94D5
:1014A0002F4E6B8B7C8B8D8B9E8B188E1F8A809121
:1014B000B504853011F08823B1F42F8D38A12115A2
:1014C000310519F0C9010E946B176114710419F4F8
:1014D00018A21F8E4CC0C3010E94D14218A21F8EB9
:1014E0006624772444C08091B1049091B204892B82
:1014F00059F4E98DFA8D83859485A585B685009785
:10150000A105B10509F0B0C52F8D38A1232B21F01D
:101510006114710461F509C084E490E00E944B18E5
:1015200098A38F8F6114710429F484E292E00E94E1
:10153000D7423C014F8D58A1452B19F0611471041D
:1015400039F482E190E09093B7048093B6048CC59F
:1015500080EC96E09A8389838F8D98A162E070E198
:10156000AE014F5F5F4F22E030E00E94191780917B
:10157000B504813031F52B8D3C8D4D8D5E8D2F5F07
:101580003F4F4F4F5F4F2B8F3C8F4D8F5E8F809122
:10159000A8059091A905A091AA05B091AB052B854E
:1015A0003C854D855E8582239323A423B523009734
:1015B000A105B10511F432E073C244E04093B504D3
:1015C00071C2823009F05AC1B92CB39453E0591555
:1015D000C8F48091B1049091B204892B61F085E048
:1015E0008093B5042B893C894D895E892F87388B80
:1015F000498B5A8B7BC541E050E05093B704409330
:10160000B6042FC18B859C85AD85BE858B839C835D
:10161000AD83BE83C30161E02B8D3C8D4D8D5E8D0E
:10162000EE24FF248701CF88D88C0E9447049C01B8
:101630008B819C81AD81BE810097A105B105C1F070
:10164000F301E20FF31FE451FF4F92E39083245123
:101650003F4FF301E20FF31FA4E0A1838B819C8134
:10166000AD81BE8182839383A483B583265E30409F
:10167000F301E20FF31FE451FF4FB7E3B0832451AE
:101680003F4FF301E20FF31F2C5E3040DF01119654
:1016900043E04183FD01319651E011965C93418313
:1016A00086E0828315E0E12EF12CE20EF31EA5ED1B
:1016B000B5E00D900020E9F7A65DB5401A161B06AF
:1016C000E4F40A2FF301EE0DFF1DE451FF4F9CE0FF
:1016D0009083F901EF50FF4FE60DF71DA18332967D
:1016E000CF01E5EDF5E0BF014A2F50E00E945F53C6
:1016F00010E00E5F1F4FE00EF11E20E432E03A834F
:101700002983F301EE0DFF1DE451FF4F39E33083D0
:101710004CEE50E0E40EF51EF301EE0DFF1D52E01D
:10172000518389819A81082E892F902D9A838983EC
:1017300031969283818388E19FEFE80EF91E8F8DA9
:1017400098A14FEF5FEF6FEF7FEF930187010E944A
:10175000AD0797FF74C085C0E090B104F090B2046B
:10176000C3010E9422068C01009709F44EC0DC01DF
:101770008C91823009F046C0E114F10409F446C0AE
:101780002091A4053091A5054091A6055091A7058B
:101790008091A8059091A905A091AA05B091AB05EB
:1017A00082239323A423B5230097A105B105A9F0B3
:1017B000F70181819281A381B48182179307A407E5
:1017C000B50719F1F80181819281A381B481821753
:1017D0009307A407B507C9F411C0D80195962D91B8
:1017E0003D914D915C919897F70185A196A1A7A194
:1017F000B0A582179307A407B50720F4C7010E947C
:10180000DD0504C0C8010E94DD0587011093B20404
:101810000093B104012B99F08091BC049091BD0418
:10182000A091BE04B091BF04805E9E42A040B04033
:10183000D8F0B0EA2B2EBFE03B2E412C512C8F8DDF
:1018400098A14B8D5C8D6D8D7E8D93018201710110
:101850000E949E08BC01181619060CF47DCF009753
:1018600019F01092B50442C48091B1049091B20471
:10187000892B09F43BC4A4E09A2E3BC4833009F0C1
:101880006CC0892C839423E0291520F431E0309337
:10189000B5042EC4E091B104F091B2044DB75EB727
:1018A0004A5050400FB6F8945EBF0FBE4DBF2DB7E3
:1018B0003EB72F5F3F4F4181528163817481ADB745
:1018C000BEB711964D935D936D937C931497818D64
:1018D000928DA38DB48DF90184839583A683B783FC
:1018E0004F89588D518740878F8D98A14FEF5FEFBB
:1018F0006FEF7FEF9301EB8CFC8C0D8D1E8DAA2476
:10190000BB2465010E94DD07ADB7BEB71A960FB6BE
:10191000F894BEBF0FBEADBF97FDB7C38F8D98A122
:101920004B8D5C8D6D8D7E8D9301820171010E94C6
:101930009E08BC0197FDA9C3009709F4D9C3C30150
:101940000E9422068C01009709F4D2C3FC01F080AA
:10195000F5E0FF1609F059C243C2843009F081C096
:10196000892C839453E0581548F481E08093B504A2
:10197000982C1B861C861D861E86BBC3ADB7BEB7C2
:101980001A970FB6F894BEBF0FBEADBF2DB73EB7C6
:101990002F5F3F4F8B859C85AD85BE85EDB7FEB72C
:1019A00081839283A383B483D90114961D921D92DF
:1019B0001D921C921797EF89F88D1996FC93EE9360
:1019C00018978F8D98A14FEF5FEF6FEF7FEF930127
:1019D000EB8CFC8C0D8D1E8DAA24BB2465010E940E
:1019E000DD072DB73EB7265F3F4F0FB6F8943EBFD9
:1019F0000FBE2DBF97FD49C38F8D98A14B8D5C8D78
:101A00006D8D7E8D9301820171010E949E08BC0143
:101A100097FD3BC3009709F46BC3C3010E942206E4
:101A20008C01009709F464C3DC018C91853071F45A
:101A30008091B1049091B2040E94DD051093B2042C
:101A40000093B104B5E0B093B504D6C1863009F077
:101A500049C331E03093B5041B861C861D861E8663
:101A600041C3853009F04FC08AEB94E00E94A15039
:101A7000E091B104F091B204E58CF68C078D10A1D1
:101A80000E942F4E2F85388949895A89621B730B12
:101A9000840B950B6E157F058007910728F036E0C3
:101AA0003093B504992425C3E091B104F091B204B8
:101AB000E58CF68C078D10A10E942F4E2F8538895A
:101AC00049895A892E0D3F1D401F511F261B370B78
:101AD000480B590B283389E8380781E4480780E030
:101AE000580720F027E339E841E450E0CA01B90182
:101AF00028EE33E040E050E00E94CB52AB01BC0145
:101B000088EB94E0ECC2863009F0C0C0E091B104EB
:101B1000F091B204E1A0F2A003A114A10E942F4E03
:101B20005B016C01C201B10128EE33E040E050E0FE
:101B30000E940A538F859889A989BA89E80EF91EEF
:101B40000A1F1B1FEA18FB080C091D09E216F30601
:101B500004071507E0F4E091B104F091B20421A06C
:101B600032A043A054A00E942F4E2F853889498966
:101B70005A89621B730B840B950B28EE33E040E00F
:101B800050E00E94CB52261A370A480A590AE091BF
:101B9000B104F091B204E1A0F2A003A114A10E944B
:101BA0002F4E2F85388949895A89621B730B840B04
:101BB000950B6E157F058007910708F0B2C0E09184
:101BC000B104F091B204A180B280C380D4804DB73B
:101BD0005EB74A5050400FB6F8945EBF0FBE4DBF7F
:101BE000ADB7BEB71196418D528D638D748DEDB733
:101BF000FEB7A182B282C382D48214961D921D9236
:101C00001D921C9217972F89388D19963C932E930D
:101C100018978F8D98A19301EB8CFC8C0D8D1E8DE8
:101C20000E94DD074DB75EB7465F5F4F0FB6F89471
:101C30005EBF0FBE4DBF97FD74C0892C83948F8DFE
:101C400098A14B8D5C8D6D8D7E8D9301820171010C
:101C50000E949E08BC0197FD18C2009709F448C273
:101C6000C3010E9422068C01009709F441C2DC01E5
:101C7000FC90B5E0FB1609F4B3C036E0F31609F0AA
:101C800031C287E08093B50488242CC2873009F0E4
:101C9000C4C0E091B104F091B204E1A0F2A003A1AC
:101CA00014A10E942F4E2F85388949895A89E20E46
:101CB000F31E041F151FE61AF70A080B190BE2148E
:101CC000F30404051505B0F4E091B104F091B204F9
:101CD00021A032A043A054A00E942F4E261A370AFA
:101CE000480A590A8F859889A989BA89281A390A10
:101CF0004A0A5B0AE091B104F091B204E1A0F2A0BB
:101D000003A114A10E942F4E2F85388949895A8931
:101D1000621B730B840B950B6E157F058007910773
:101D200020F087E08093B504BDCE892C8394E091A8
:101D3000B104F091B204A180B280C380D4804DB7C9
:101D40005EB74A5050400FB6F8945EBF0FBE4DBF0D
:101D5000EDB7FEB73196ADB7BEB71196AD92BD9255
:101D6000CD92DC92149714821582168217822F89E5
:101D7000388D318720878F8D98A14FEF5FEF6FEF00
:101D80007FEF9301EB8CFC8C0D8D1E8D0E94DD0787
:101D90004DB75EB7465F5F4F0FB6F8945EBF0FBE9C
:101DA0004DBF97FD72C18F8D98A14B8D5C8D6D8D50
:101DB0007E8D9301820171010E949E08BC0197FDF6
:101DC00064C1009709F494C1C3010E9422068C01EA
:101DD000009709F48DC1DC01FC90B5E0FB16A9F475
:101DE0008091B1049091B2040E94DD051093B20479
:101DF0000093B104F092B5042B893C894D895E892A
:101E00002F87388B498B5A8B73C136E0F31609F054
:101E100069C141E04093B50465C1883009F0C8C08C
:101E2000892C839453E0591508F42FC1A98DBA8DDC
:101E30001B96ED90FD900D911C911E97C30168E0DB
:101E40002B8D3C8D4D8D5E8DCC24DD240E9447046E
:101E5000F301E80FF91FE451FF4FB7E3B08384515A
:101E60009F4FF301E80FF91FDF01119623E0218353
:101E7000FD01319631E011963C93218346E0428387
:101E8000F9E1EF2EFFEFFF2EE80EF91EA5EDB5E00C
:101E90000D900020E9F7A65DB54011F10A2FF3017E
:101EA000EE0DFF1DE451FF4F5CE050838CEE90E09F
:101EB000E80EF91EF301EE0DFF1D24E13FEFE20EE7
:101EC000F31EA1833296CF0145ED55E0BA014A2FAA
:101ED00050E00E945F5310E00E5F1F4FE00EF11EB6
:101EE00080E492E09A838983F301EE0DFF1DE451B3
:101EF000FF4F99E39083ACEEB0E0EA0EFB1EF301D6
:101F0000EE0DFF1DB2E0B18389819A81082E892FE1
:101F1000902D9A838983319692838183E8E1FFEF44
:101F2000EE0EFF1E8F8D98A14F81588569857A85A9
:101F3000930187010E94AD0797FF0BC02F81388561
:101F400049855A852F5F3F4F4F4F5F4F09F0D0C0F3
:101F50009CC08F8D98A14B8D5C8D6D8D7E8D930176
:101F6000820171010E949E08BC01009709F4C0C063
:101F700018161906A4F4C3010E9422068C010097CA
:101F800081F0DC018C91853061F48091B1049091F5
:101F9000B2040E94DD051093B2040093B10400E086
:101FA00010E01092B5040115110509F09BC0BAC9E3
:101FB000893009F07EC0E091B104F091B20430970D
:101FC00009F448C0892C8394992009F042C0E1802B
:101FD000F28003811481818D928DA38DB48D8B83CA
:101FE0009C83AD83BE83C30167E02B8D3C8D4D8DFB
:101FF0005E8DCC24DD240E9447048C018B819C8162
:10200000AD81BE810097A105B105C1F0F301E00FDC
:10201000F11FE451FF4FB6E3B08304511F4FF301AA
:10202000E00FF11F24E021838B819C81AD81BE8173
:1020300082839383A483B583065E10408F8D98A11D
:102040004F81588569857A8593010E94AD0797FF76
:102050000EC0982C8F819885A985BA858F5F9F4F78
:10206000AF4FBF4F09F045C01092B50442C08F8DED
:1020700098A14B8D5C8D6D8D7E8D930182017101D8
:102080000E949E08BC0197FF03C01092B50430C0A7
:10209000009771F1C3010E9422068C01009741F163
:1020A000DC018C91853011F08630E1F41092B5049A
:1020B00019C08823F1F48091B1049091B2040E9478
:1020C000DD051092B2041092B1048AEB94E00E94F4
:1020D000A15088EB94E040E050E060E070E00E94A6
:1020E0000351E0CCC8010E94DD051CC99B2C01C036
:1020F000982C892C17C98F929F92AF92BF92CF9242
:10210000DF92EF92FF920F931F93CF93DF93EC0137
:102110004B0159016A0180918405909185050097D2
:1021200031F00E94D1421092850510928405809171
:10213000860590918705009731F00E94D142109258
:10214000870510928605209739F0CE010E94E7425C
:1021500080938405909385058114910439F0C4011E
:102160000E94E7428093860590938705A092880598
:10217000B0928905C0928A05D0928B05E0928C05B9
:10218000F0928D0500938E0510938F05DF91CF910E
:102190001F910F91FF90EF90DF90CF90BF90AF9085
:1021A0009F908F9008950F931F93CF93DF938C018F
:1021B000C091C404D091C504FE011BC0808D918DD7
:1021C0008017910799F4828D938DA48DB58D821718
:1021D0009307A407B50751F4868D978D8617970747
:1021E00029F48389882311F09F0117C00190F081A1
:1021F000E02D309719F70DC08B89813039F4888D27
:10220000998D8017910711F49E0107C00990D8811C
:10221000C02D209789F720E030E0C901DF91CF91F0
:102220001F910F910895CF93DF93FC01EA0100976E
:1022300009F45FC080E162307807F1F080E163303B
:10224000780744F46230710571F06150704109F013
:102250004AC037C080E165307807C9F066507041E8
:1022600009F041C01DC04115510589F122303105E9
:1022700071F5ED5AFF4F08C04115510541F122306B
:10228000310529F5E85BFF4F8081918127C0411519
:102290005105E9F024303105D1F4E559FF4F08C06C
:1022A00041155105A1F02430310589F4E959FF4F5A
:1022B00080819181A281B38188839983AA83BB8322
:1022C0000FC04115510519F02230310529F0EF59A1
:1022D000FF4F86E190E00BC08189928999838883C2
:1022E00020E030E008C0EF59FF4F8AE290E0918390
:1022F00080832FEF3FEFC901DF91CF910895FC015B
:10230000009719F426E230E004C0EF59FF4F208116
:102310003181C9010895CF93DF93DC01EA016A306E
:10232000710561F06A30710534F06B307105B1F000
:102330006C30710519F02FEF3FEF1CC0FD01E65B1B
:10234000FF4FAA5BBF4F8D919C9120813181821BF1
:10235000930BAA2797FDA095BA2F06C01D968D91C5
:102360009C911E97A0E0B0E088839983AA83BB83E9
:1023700020E030E0C901DF91CF9108950F931F93C2
:10238000CF93DF93EC018C01035B1F4F08C080816A
:102390009181D8018D939C93CF010E94BE34D801C6
:1023A000ED91FC91309799F707C08081918199AFA9
:1023B00088AFCF010E94BE34E8ADF9AD3097A9F7E0
:1023C00008C08081918199838883CF010E94BE34A7
:1023D00002C0CF5ADF4FE881F981309791F7DF9142
:1023E000CF911F910F9108952F923F924F925F923C
:1023F0006F927F928F929F92AF92BF92CF92DF9215
:10240000EF92FF920F931F93DF93CF9300D000D0F2
:10241000CDB7DEB79E838D837A8369834A010E949C
:10242000CA4C2D813E81232B89F1ED81FE81838968
:10243000843019F08389853019F529813A81232B5D
:1024400009F4DFC08114910409F4DDC04FE4A42E27
:10245000B12C6D817E81A60EB71E36E4C32ED12C21
:10246000C60ED71E2AE4E22EF12CE60EF71E8B01D3
:1024700009591F4F1AC0ED81FE818389843051F0C4
:10248000EF59FF4F89E390E09183808388248A94F9
:10249000982CB9C0F8014081518162817381C501D6
:1024A0000E940351892B09F0ACC0F6018081918113
:1024B000F7012081318182179307E9F2821B930B88
:1024C0008815990524F4009709F49BC04C01790103
:1024D000662477242D813E81235B3F4F3C832B83F1
:1024E00096E4292E312C6D817E81260E371E8CE4D8
:1024F000482E512C460E571E3CC0EB81FC81A0801B
:10250000B180F501C188D288CE18DF088401061990
:102510001709C016D10608F4860149815A81460D73
:10252000571DF501278530892E0D3F1DCA01B901C0
:10253000A8010E945F53E00EF11E0C151D05B8F0B6
:10254000F50180819181EB81FC8191838083F10190
:10255000808191818E199F0991838083C5010E949A
:10256000BE34F201808181508083EE24FF24600E0E
:10257000711E6814790408F22D813E81265B3F4F5D
:10258000F901F182E082EA54F040FE83ED83838911
:102590008430C9F5EC5BFF4F408151813496208136
:1025A0003181E854F040FE83ED83C401840F951F10
:1025B000281739070CF4C9012D813E812D5A3F4F50
:1025C000F90120813181E355F040FE83ED8324172A
:1025D000350778F02817390760F4EC5BFF4F9183DB
:1025E0008083E454F040FE83ED83CF010E942022DB
:1025F0000AC02D813E812C5B3F4FF901918380837E
:1026000002C088249924C40126960FB6F894DEBF30
:102610000FBECDBFCF91DF911F910F91FF90EF9033
:10262000DF90CF90BF90AF909F908F907F906F90F2
:102630005F904F903F902F9008950E94F41108955D
:102640008F929F92AF92BF92CF92DF92EF92FF92C2
:102650000F931F93CF93DF93EC014B018A010E94EC
:10266000CA4C209709F458C08114910409F457C04A
:102670000115110509F455C0CD5ADF4F88819981A4
:10268000C355D0408017910708F48C01FAE3AF2EB0
:10269000B12CAC0EBD1EE3E5CE2ED12CCC0EDD1E32
:1026A0007BE6E72EF12CEC0EFD1E8B89843039F091
:1026B000CF59DF4F89E390E0998388832DC049A5E6
:1026C0005AA58DA19EA1481B590B9A0136952795B5
:1026D00036952795F601808191812817390738F4BE
:1026E0008DA99EA9841B950B8017910758F4F701BB
:1026F0004081518162817381C5010E940351892B00
:10270000A1F20DC088A1806188A3CE01B401A80107
:102710000E94501F892B29F00FEF1FEF02C000E02D
:1027200010E0C801DF91CF911F910F91FF90EF90C2
:10273000DF90CF90BF90AF909F908F900895CF92F1
:10274000DF92EF92FF920F931F93CF93DF936C0171
:102750007B018A01C0E0D0E011C0B7016C0F7D1F82
:10276000A8014C1B5D0BC6010E9420131816190608
:102770001CF0CFEFDFEF05C0C80FD91FC017D1077E
:1027800064F3CE01DF91CF911F910F91FF90EF90F5
:10279000DF90CF900895AF92BF92CF92DF92EF92E9
:1027A000FF920F931F93CF93DF938C01E72F6A0162
:1027B000009709F4E6C0DC0153968C91843041F017
:1027C0000F591F4F89E390E0F80191838083D9C0AE
:1027D000D8011D964D915C911E97C114D104C9F486
:1027E0004115510509F4D0C01F966D917C91509709
:1027F000C8010E949F13F8012785308997FF02C006
:10280000C90176C0C9010E94D142F8011686158619
:10281000BBC0C62FD72F5E01D80151966D917C9118
:1028200052974115510569F5C616D70610F4E60111
:1028300013C0C6010E94F652EC017601E81AF90AAB
:10284000C801B501A7010E949F1397FD9AC0209768
:1028500009F49AC0AE0CBF1CF801818992890E94CC
:10286000D742D80150969C938E931F97009709F4F6
:1028700088C0B501AE010E945F53F801C587D687B5
:1028800083C0C601840F951FD8011F962D913C91DE
:1028900050978617970780F4240F351FC9016C2FB6
:1028A0007E2FA6010E945F53F801858596858C0DC9
:1028B0009D1D9687858768C07B01E41AF50A240F61
:1028C000351FC9016C2F7E2FA7010E945F53D801CD
:1028D0001F966D917C91509751964D915C915297B6
:1028E000C8010E949F1397FF0BC0F801878590894C
:1028F0000E94D142D8011E961C921E921D9741C083
:102900005E01AE0CBF1C96012E193F09F8016189CA
:10291000728926173707E0F0C6010E94F652EC01D3
:102920007901E81AF90AC801B501A7010E949F13AD
:1029300097FF0BC0D8011F968D919C9150970E94D4
:10294000D142F801168615861CC0AE0CBF1C01C012
:10295000E901209759F0D8011F968C911F97509646
:102960009C91B501AE010E945F5305C0F8018785B7
:1029700090890E94D142D8011E96DC93CE931D9778
:1029800003C0CC24CA94DC2CC601DF91CF911F91E7
:102990000F91FF90EF90DF90CF90BF90AF90089590
:1029A000CF92DF92EF92FF920F931F93CF93DF931B
:1029B0006C017B018A014115510519F4C0E0D0E09A
:1029C0000CC08EEB95E0BA010E942F49EC010097F4
:1029D00021F0B701A8010E942C53C601BE01A80135
:1029E0000E94CB13182F092F209729F08EEB95E02A
:1029F000BE010E948749812F902FDF91CF911F91B7
:102A00000F91FF90EF90DF90CF9008950F931F9359
:102A10008C0160E070E040E050E00E94CB13C80100
:102A20000E94862B1F910F9108950F931F93CF93B0
:102A3000DF93EC018A01009709F47BC080E16230EA
:102A4000780759F1E0E163307E0744F462307105A4
:102A500071F06150704109F066C04BC080E1653093
:102A6000780761F16650704109F05DC030C04115D2
:102A7000510509F444C02230310509F040C08B896A
:102A8000882329F0CF59DF4F88E390E050C0CD5A1A
:102A9000DF4FFA01808191810EC04115510579F116
:102AA0002230310561F5FA0180819181C85BDF4FE9
:102AB0009983888324979983888332C0411551056F
:102AC000F1F024303105D9F4C559DF4F08C0411564
:102AD0005105A9F02430310591F4C959DF4FF801AF
:102AE00080819181A281B38188839983AA83BB83EA
:102AF00017C04115510519F02230310529F0CF5981
:102B0000DF4F86E190E013C0CE0160E070E040E06E
:102B100050E00E94CB13F801808191819A8B898BC0
:102B200020E030E008C0CF59DF4F8AE290E099837F
:102B300088832FEF3FEFC901DF91CF911F910F9154
:102B40000895FC01062E672F702D718F608F0E94F3
:102B5000D4290895EF92FF920F931F93CF93DF93A1
:102B6000EC01D901009709F453C08B89813029F415
:102B7000CF59DF4F8DE290E049C08B89882329F03F
:102B8000CF59DF4F88E390E041C0E090C404F0905B
:102B9000C50400E010E180919E0390919F0301968F
:102BA00090939F0380939E0380919E0390919F0337
:102BB000892B21F410939F0300939E03F7010FC00C
:102BC00080919E0390919F03082E892F902D208D38
:102BD000318D28173907F9F20190F081E02D3097F7
:102BE00079F720C00784F089E02D83859485A58539
:102BF000B6858C8B9D8BAE8BBF8BCE010E947F23C5
:102C00009C0108C0CF59DF4F81E490E0998388830D
:102C10002FEF3FEFC901DF91CF911F910F91FF90EF
:102C2000EF90089580919E0390919F03082E892F25
:102C3000902D998F888F0A2EAB2FB02DBF8FAE8F1E
:102C40004A8F5B8F6C8F7D8FCB01BA0140E050E0E3
:102C50000E941A19FC01009709F0C4CFD3CF0F933B
:102C60001F93CF93DF938091C604882381F486E07D
:102C700066E87EE10E94D418892B09F05DC00E94AD
:102C8000A221892B09F058C081E08093C60481E01D
:102C900090E063E770E00E94B542EC018C01009780
:102CA00009F44CC01B8A84E08C838DE193E19E8300
:102CB0008D838BEC93E198878F8380ED94E19A87E5
:102CC00089878BE891E19C878B870E94A34D69A33C
:102CD0007AA38BA39CA36DA37EA38FA398A769A7B8
:102CE0007AA78BA79CA70C5B1F4F80E99CE0F8019B
:102CF000918380830C5F1F4FF80191838083055F70
:102D00001F4F28E132E0F801318320830A5F1F4F13
:102D100088EE93E0F80191838083095510408091FB
:102D2000C4049091C504998388833A8B298B1093AE
:102D3000C5040093C40402C000E010E0C801DF91A4
:102D4000CF911F910F910895CF93DF93EC01E09104
:102D5000C404F091C504A4ECB4E014C0EC17FD0762
:102D600069F48881998111969C938E93CE010E947B
:102D7000BE118D859E85892B71F007C0DF01019002
:102D8000F081E02D309751F70EC08F8598890E9411
:102D9000D1421E861D8683E7FE0111928A95E9F7CE
:102DA000CE010E94D142DF91CF910895CF93DF935E
:102DB000FC01EB01DA01009719F426E230E01FC0B4
:102DC00084859585009719F420E030E018C09C01B7
:102DD00082899389082E892F902D8D939C938685C7
:102DE0009785A089B18988839983AA83BB83158637
:102DF0001486138A128A16861786108A118AC901C8
:102E0000DF91CF9108959C01E0919005F09191059B
:102E10000AC0828193818217930711F49F0107C032
:102E20000190F081E02D3097A1F720E030E0C9015A
:102E30000895DC01FA01009791F06250704179F435
:102E40004115510561F02230310549F480819181AD
:102E50001B969C938E931A9720E030E002C02FEFD0
:102E60003FEFC9010895DC01FA01009791F062502B
:102E7000704179F44115510561F02230310549F472
:102E80001A968D919C911B979183808320E030E06E
:102E900002C02FEF3FEFC90108950F931F93FC016C
:102EA000009719F42FEF3FEF12C046875787608BCA
:102EB000718B338B228B1587048786819781892BB1
:102EC00021F0CF0106960E94AE5020E030E0C9010B
:102ED0001F910F910895CF93DF93EC01E09190053E
:102EE000F0919105A0E9B5E01DC0EC17FD07B1F424
:102EF000888199818D939C9307C0808191819D8366
:102F00008C83CF010E94BE34EC81FD813097A9F7FC
:102F1000CE010E94D14220E030E008C0DF010190E4
:102F2000F081E02D309709F72FEF3FEFC901DF91D6
:102F3000CF9108954F925F926F927F928F929F925E
:102F4000AF92BF92CF92DF92EF92FF920F931F93B7
:102F5000CF93DF935C014B013A01522E432EFC01CB
:102F600084819581892B31F4C5010696B701A601AC
:102F70000E940351F501C481D581209719F400E026
:102F800010E031C088819981F50195838483EF81B8
:102F9000F88584859585A685B785F401808391831E
:102FA000A283B383EB85FC8580819181082E892FD4
:102FB000902DF3019183808349895A8940175107E5
:102FC0000CF48A01F50180859185841B950B91870E
:102FD00080876F857889852D942DA8010E945F5385
:102FE000CE010E94BE34C801DF91CF911F910F9195
:102FF000FF90EF90DF90CF90BF90AF909F908F9019
:103000007F906F905F904F9008956F927F928F9214
:103010009F92AF92BF92CF92DF92EF92FF920F9367
:103020001F93CF93DF934C015A016B01390180E06C
:1030300090E060E8A7010E949236EC01009741F40D
:103040008CE090E0F401958784870FEF1FEF13C0A9
:103050008F859889B801A7010E945F53C401B6010A
:10306000A50193018E010E94782C8C01009719F420
:10307000CE010E94BE34C801DF91CF911F910F9104
:10308000FF90EF90DF90CF90BF90AF909F908F9088
:103090007F906F900895CF93DF93EC018091C704E8
:1030A000882369F481E16EEE7BE20E94D418892BBB
:1030B00019F020E030E041C081E08093C704209700
:1030C00019F57091900560919105C091A003D09180
:1030D000A103219611F4C0E0D0E1AE01042E452FEA
:1030E000502D872F962F9C01F90108C08281938172
:1030F0008417950771F30190F081E02D3097B1F7B7
:10310000C093A003D093A10381E090E064E170E05C
:103110000E94B542FC019C01009779F00C2ECD2F46
:10312000D02DD383C2838091900590919105918396
:103130008083F0939105E0939005C901DF91CF91D1
:103140000895DF92EF92FF920F931F93CF93DF9337
:103150007C018B01DB011796ED91FC911897D184CE
:10316000C091C804D091C90412C08A81D81661F4F4
:10317000EB81FC81309741F0C701B8011995892B8B
:1031800019F420E030E007C00990D881C02D2097C5
:1031900061F72FEF3FEFC901DF91CF911F910F91A1
:1031A000FF90EF90DF9008951F93CF93DF93182F38
:1031B000EB01A091C804B091C90408C012968C918B
:1031C00012978117F9F00D90BC91A02D1097B1F7CF
:1031D00024C012838091C8049091C904009759F4C7
:1031E000B093C904A093C80481EA98E19093B9050B
:1031F0008093B80507C011969C938E93B093C90431
:10320000A093C8041496DC93CE93139720E030E08B
:10321000C901DF91CF911F91089581E090E065E0B1
:1032200070E00E94B542FC01DC01009791F62FEF9F
:103230003FEFEECFDF92EF92FF920F931F93CF936A
:10324000DF937B018C01EA014115510521F01882C1
:1032500019821A821B822FEFE2162FEFF2062FEF50
:1032600002072FEF120789F0D801C701082E8B2F14
:10327000B02D092E9A2FA02D80709070A070B07F75
:1032800080509040A040B04E39F4E0919205F0910A
:1032900093053097E1F53EC0D0909205709193056B
:1032A00060E08D2D972F9C01F90114C086819781D4
:1032B000A085B1858E219F21A023B1232281338156
:1032C0004481558182179307A407B50731F0019017
:1032D000F081E02D309751F71DC0209761F0828575
:1032E0009385A485B5850097A105B10521F0888354
:1032F0009983AA83BB8386859785892B41F4E284D1
:10330000F384048515856F5F643059F603C0268504
:10331000378502C020E030E0C901DF91CF911F91D5
:103320000F91FF90EF90DF9008952F923F924F9270
:103330005F926F927F928F929F92AF92BF92CF9245
:10334000DF92EF92FF920F931F93CF93DF932B01A6
:103350003C0149015A011601C0919205D091930593
:1033600082E9C82E85E0D82E04C06E010990D8816C
:10337000C02D209749F08E819F81A885B985881638
:103380009906AA06BB0688F380E190E00E94D74226
:10339000FC01009719F42FEF3FEF19C04820592086
:1033A0006A207B2042825382648275828682978261
:1033B000A086B186E286F38604871587378626863F
:1033C000D183C083D6018D939C9320E030E0C90166
:1033D000DF91CF911F910F91FF90EF90DF90CF90F1
:1033E000BF90AF909F908F907F906F905F904F9025
:1033F0003F902F900895CF93DF93EC0119821882AC
:10340000E0919205F091930506C001969983888317
:103410000190F081E02D888199813097B1F724E007
:10342000880F991F2A95E1F70E94D7429C010097C7
:10343000A1F0E0919205F09193050CC0E901DF0144
:1034400080E10D9009928150E1F7205F3F4F01909C
:10345000F081E02D309791F702C019821882C901DE
:10346000DF91CF9108954F925F926F927F928F92EA
:103470009F92AF92BF92CF92DF92EF92FF920F9303
:103480001F932B013C0149015A012FEF3FEF35C03B
:1034900082819381A481B58184159505A605B70520
:1034A00011F586819781A085B18588159905AA05B2
:1034B000BB05C9F482859385A485B5858E159F05C6
:1034C000A007B10781F4868597858C159D0559F471
:1034D000808191819093930580939205CF010E9402
:1034E000D14220E030E0E0919205F0919305808197
:1034F00091819093930580939205E0919205F091CC
:103500009305309729F6C9011F910F91FF90EF9015
:10351000DF90CF90BF90AF909F908F907F906F90F3
:103520005F904F900895CF93DF93EC0117C086858D
:1035300097858C179D0711F0209751F48081918118
:103540009093930580939205CF010E94D14206C0CB
:10355000808191819093930580939205E0919205EB
:10356000F0919305309719F780E090E0DF91CF91CB
:103570000895DF93CF9300D00F92CDB7DEB7FC0153
:1035800019821A821B821C82DE01119640E0808122
:1035900080538A3098F520E030E0C90163E0880F5D
:1035A000991F6A95E1F7220F331F820F931F219114
:1035B000332727FD309520533040280F391F808155
:1035C00080333CF08A332CF42F3F310531F328F35C
:1035D00015C02F3F310509F088F44F5F2C9380818F
:1035E0008E3239F0443051F429813A814B815C812B
:1035F00009C0443019F011963196C9CF2FEF3FEF33
:103600004FEF5FEFB901CA010F900F900F900F902D
:10361000CF91DF910895AF92BF92CF92DF92EF9258
:10362000FF920F931F93DF93CF93CDB7DEB727970A
:103630000FB6F894DEBF0FBECDBF6C837D838E8343
:103640009F83E4E0EE2EF12CEC0EFD1E0CED14E059
:103650006E010894C11CD11C5EE277E0A72EB12C4C
:10366000AC0EBD1ED7014C9130E0842F6AE00E9461
:10367000EA52292F842F0E94EA52482FF601E30FC5
:10368000F11D205D20833F5F882379F7932FF70199
:103690001082D80106C03150F601E30FF11D808180
:1036A0008D933323C1F7F801E90FF11DDF015D931D
:1036B0008D01EA14FB0421F00894E11CF11CD2CF27
:1036C00010828CED94E027960FB6F894DEBF0FBE03
:1036D000CDBFCF91DF911F910F91FF90EF90DF90C1
:1036E000CF90BF90AF900895DF93CF93CDB7DEB763
:1036F00060970FB6F894DEBF0FBECDBF9C01DE0110
:103700001196E2EAF3E080E101900D928150E1F739
:10371000A901AAECB4E020E030E0BE016F5F7F4F6A
:103720009AE3FA01808182958F70FB01E80FF11D09
:1037300080818C93FA0180818F70FB01E80FF11D6D
:10374000808111968C9311972530310521F01296C6
:103750009C93129703C012961C9212972F5F3F4FB3
:103760004F5F5F4F139626303105D9F68AEC94E00F
:1037700060960FB6F894DEBF0FBECDBFCF91DF913C
:103780000895EF92FF920F931F93DF93CF9300D092
:103790000F92CDB7DEB749835A836B837C830E9437
:1037A00078517C01009769F1DC011B968C911B9785
:1037B000833039F51F96ED91FC91509780818630CA
:1037C00001F55596ED91FC9156973097D1F0C701D0
:1037D00068E070E1AE014F5F5F4F19958C01009773
:1037E00091F449815A816B817C81403EB0E05B0756
:1037F000B0E06B07B1E07B0731F0C7010E94E73111
:1038000002C00FEF1FEFC8010F900F900F900F90A5
:10381000CF91DF911F910F91FF90EF900895EF925C
:10382000FF920F931F93DF93CF9300D00F92CDB7EA
:10383000DEB749835A836B837C830E9478517C0175
:10384000009769F1DC011B968C911B97833039F549
:103850001F96ED91FC9150978081863001F5559629
:10386000ED91FC9156973097D1F0C70167E070E178
:10387000AE014F5F5F4F19958C01009791F449811C
:103880005A816B817C81403EB0E05B07B0E06B0702
:10389000B1E07B0731F0C7010E94ED3102C00FEFAC
:1038A0001FEFC8010F900F900F900F90CF91DF91F5
:1038B0001F910F91FF90EF9008952F923F924F929A
:1038C0005F926F927F928F929F92AF92BF92CF92B0
:1038D000DF92EF92FF920F931F93DF93CF9300D06D
:1038E00000D0CDB7DEB71C012A013B0148015901C8
:1038F000C982DA82EB82FC82DC011F968C911F97D1
:1039000050969C91411551056105710581F44090D7
:10391000A4055090A5056090A6057090A7054114D8
:1039200051046104710419F42FEF3FEFA8C08D8397
:103930009E83ED81FE81438654866586768681145A
:103940009104A104B10431F483EB93E00E94B91A0D
:103950004B015C01AD81BE8153968D929D92AD92DB
:10396000BC925697C501B401642175218621972127
:10397000A5019401EE24FF24870161010E9495199D
:1039800089819A81AB81BC810097A105B10571F055
:1039900060E070E080E090E020E030E040E050E067
:1039A000E980FA800B811C810E949519A5E9B5E098
:1039B000F101329689E001900D928150E1F7AD81DD
:1039C000BE8115962C91159716968C911697822B81
:1039D00017969C911797892B18969C911897892B6D
:1039E00019969C911997892B1A969C91892B61F0B5
:1039F00020FD0AC0AEE9B5E0ED81FE81359686E096
:103A000001900D928150E1F74092A4055092A505D6
:103A10006092A6057092A7058092A8059092A905CC
:103A2000A092AA05B092AB0589819A81AB81BC8135
:103A30000097A105B105A1F48091AC059091AD0569
:103A4000A091AE05B091AF0584259525A625B72593
:103A500088219921AA21BB210097A105B10561F018
:103A600089819A81AB81BC818093AC059093AD052F
:103A7000A093AE05B093AF050E94421E9C01C90100
:103A800026960FB6F894DEBF0FBECDBFCF91DF9163
:103A90001F910F91FF90EF90DF90CF90BF90AF906C
:103AA0009F908F907F906F905F904F903F902F905E
:103AB00008952F923F924F925F926F927F928F92D2
:103AC0009F92AF92BF92CF92DF92EF92FF920F93AD
:103AD0001F93DF93CF93CDB7DEB728970FB6F89437
:103AE000DEBF0FBECDBF6F83788719012A01370172
:103AF00048010E947851FC01009709F491C0838528
:103B0000833009F08DC0FA83E983A785B0898C9151
:103B1000863009F040C0258936892115310541F1EB
:103B20008E010D5F1F4FCF0164E070E1A801F90124
:103B30001995E981FA8125893689CF0165E070E11F
:103B40004F815885F90119958B819C81AD81BE818A
:103B500081608B839C83AD83BE83E981FA81258953
:103B60003689CF0163E070E1A801F90119950AC017
:103B700015968F8198859C01F90186E001900D9240
:103B80008150E1F789819A81B201A10194018301F9
:103B90007601650141C0873109F042C0C188D288F1
:103BA000F60121A232A243A254A2E114F1040105BC
:103BB000110521F466246A94762C4301F60161A66E
:103BC00072A683A694A6C6010E94A150F601FF9694
:103BD0008081918167E171E0AE014F5F5F4F0E948C
:103BE0001041C60140E65AEE60E070E00E940351C9
:103BF000892BB1F4F60184AD893091F441A152A131
:103C000063A174A101A512A523A534A5C5A0D6A0C2
:103C1000E7A0F0A489819A810E945D1C9C0102C0EA
:103C20002FEF3FEFC90128960FB6F894DEBF0FBE05
:103C3000CDBFCF91DF911F910F91FF90EF90DF905B
:103C4000CF90BF90AF909F908F907F906F905F903C
:103C50004F903F902F900895AF92BF92CF92DF92F6
:103C6000EF92FF920F931F93AA24BB2465010E9439
:103C7000591D1F910F91FF90EF90DF90CF90BF9053
:103C8000AF90089580E28093940580E490E064E929
:103C900075E040E250E00E94ED36892B19F420E0F7
:103CA00030E002C02FEF3FEFC9010895CF93DF93BB
:103CB000EC0180E490E064E975E040E250E00E94AD
:103CC000F036892BE9F480919405803251F485E92E
:103CD00095E0BE010E947A53009719F420E030E08D
:103CE00011C0E4E9F5E080E2DF011D928A95E9F771
:103CF000CF010A966FEF70E046E050E00E946853F3
:103D00002FEF3FEFC901DF91CF910895FB01A3850C
:103D1000B485109769F1828183FF2AC01C968C912B
:103D20001C9782958F70880F880F843108F1282F97
:103D300030E08585968582179307D4F0821B930B1C
:103D4000928B818B892B71F01C968C911C9782959C
:103D50008F7090E0880F991F880F991FA80FB91FC7
:103D6000B08BA78736872587CF010E94BF2103C06C
:103D7000CF010E94BE3480E090E00895AF92BF92E0
:103D8000CF92DF92EF92FF920F93CF93DF935C017C
:103D9000FC0167817085C385D4858D8582FD71C0E6
:103DA000F501128A118A84E190E09687858728813F
:103DB00039818A819B81998388833B832A838D857E
:103DC00084FF0FC084E08D8788859985AA85BB858F
:103DD0008C839D83AE83BF83188619861A861B86C3
:103DE00020C02C813D814E815F8181FF10C0022E59
:103DF000252F502D032E342F402D2F5F3F4F4F4F37
:103E00005F4F022E252F502D032E342F402D288753
:103E100039874A875B871C821D821E821F8284E14C
:103E20008D876B0180E58C871F861E861B8A1A8A08
:103E3000198A188AF501E584F6840E2CEF2CF02CF3
:103E4000FB0160897189828993892485358546853E
:103E5000578506E00E944A2DDC01CB01F50145851E
:103E60005685BE010E94432D998B888BF6014485AF
:103E700055856685778586E095010E94822E892B7F
:103E800019F4C5010E94BE3480E090E0DF91CF912B
:103E90000F91FF90EF90DF90CF90BF90AF9008957B
:103EA0006F927F928F929F92AF92BF92CF92DF924A
:103EB000EF92FF920F93DF93CF930F920F92CDB7B4
:103EC000DEB76C01F62EE72E3A014115510531F4AB
:103ED000DC0190968C918B7009F4B1C1F60180A140
:103EE00081FF02C008E101C004E180E090E060E4ED
:103EF000402F50E00E9492364C01009709F483C194
:103F0000FC01A384B484D60158968D919C91599755
:103F1000F501918380835E968D919C915F97938349
:103F20008283000F000F048790963C919097232F77
:103F3000277F90962C93909799968D919D910D90B7
:103F4000BC91A02D082E8B2FB02D092E9A2FA02DBD
:103F500084839583A683B78324FF1FC080E1858770
:103F6000377ED60190963C93E0E4F0E0CE0EDF1E63
:103F7000F60180819181A281B38120EC3FEFC20ED6
:103F8000D31E082E8B2FB02D092E9A2FA02DF501B0
:103F900080879187A287B38708C0D5011D961C92A0
:103FA000F5011086118612861386D60190962C9103
:103FB00021FF36C0E3E5F0E0CE0EDF1ED6018D9185
:103FC0009C91EDEAFFEFCE0EDF1E082E892F902D7B
:103FD0009A838983D5011D968C911D9782601D96C9
:103FE0008C932D7FF60120A381A592A5A3A5B4A54E
:103FF0000196A11DB11D81A792A7A3A7B4A782E036
:10400000D50154968C93549784E055968C9355978C
:10401000898156968C9356978A8157968C9347C080
:104020006114710469F1C40160E8A3010E94923631
:104030004C01009729F4E1E6F0E0CE0EDF1EE7C068
:10404000FC01878590896F2D7E2DA3010E945F530F
:10405000C301A0E0B0E0F60121A532A543A554A517
:10406000280F391F4A1F5B1FD60199962D933D9348
:104070004D935C939C97F50185858860858717C073
:1040800020FF15C0D5011D968C911D9781601D964E
:104090008C932E7FF60120A381A592A5A3A5B4A59C
:1040A0000196A11DB11D81A792A7A3A7B4A724E4DF
:1040B00030E0C20ED31ED6012D913C91EFE0F0E02E
:1040C000CE0EDF1ED6018D919C91EDEAFFEFCE0E54
:1040D000DF1E2817390730F4D5011F961C921E9257
:1040E0001E9706C0022E232F302DF5013787268715
:1040F000D50151961C921E92509753961C921E9277
:104100005297F401E188F28885859685E80EF91EBC
:104110000E2CEF2CF02CD60154966D917D918D9143
:104120009C9157975A962D913D914D915C915D9739
:1041300006E00E944A2DDC01CB01F401458556853D
:10414000B5010E940D2DD4011F966D917C91509761
:1041500051964D915C9152970E94432DF501918BA0
:10416000808B672839F4858590E083709070892B67
:1041700009F453C0D4011D921C92D601D896ED913A
:10418000FC91D997309799F4D9969C928E92D897B2
:104190000E94C34DEFE5F0E0CE0EDF1E6160D60158
:1041A0006D937C93E1EAFFEFCE0EDF1E09C0CF01D5
:1041B0000190F081E02D3097D1F7FC01918280824F
:1041C00096012B5A3F4FF90180819181A281B381E1
:1041D0000097A105B10581F4F50184819581A6813F
:1041E000B781082E8B2FB02D092E9A2FA02DF90103
:1041F00080839183A283B383C40160E00E94B235BF
:104200007C01009759F421E630E0C20ED31E87E30B
:1042100090E0D6018D939C930CC07401F601428D01
:10422000538D648D758D86E097010E94822E892BB7
:1042300019F02FEF3FEF05C0C7010E94BE3420E008
:1042400030E0C9010F900F90CF91DF910F91FF9057
:10425000EF90DF90CF90BF90AF909F908F907F9026
:104260006F900895CF93DF939C01DB011D968D9194
:104270009C911E974597A0F11B96ED91FC911C9780
:104280007496E901CD5ADF4F1AC0613019F06230DF
:1042900099F402C0319613C0528140E08381282FE7
:1042A00030E0242B352B888199812817390710F4A9
:1042B00039832883349603C08181E80FF11D608122
:1042C000662371F01B968D919C911C979F01281B72
:1042D000390B1D968D919C911E9728173907ACF2CA
:1042E000DF91CF910895CF93DF93EC01CF59DF4F4A
:1042F000798368831A921A921A921A92CD55D040F5
:104300008B89863018F08AE08B8B01C01B8ACE0126
:104310000E94BE11CE01815B9F4F0E94A150CE0131
:10432000CA960E94A150CE018D599F4F0E94A15064
:10433000CE018B599F4F0E94A15080E090E0DF9109
:10434000CF9108958091EC049091ED04892B99F41C
:1043500081EC93E06EE47AE240E050E020E031E06E
:104360000E9436379093ED048093EC04892B19F466
:104370002FEF3FEF02C020E030E0C9010895CF9257
:10438000DF92EF92FF920F931F93CF93DF937C0105
:10439000FC01118210828091EC049091ED04892B34
:1043A00021F4C7010E94BE1E42C0C090B405D09047
:1043B000B505C114D10429F4F092B505E092B40515
:1043C0002EC0F701C585D68581859285C80FD91F76
:1043D00081899289C80FD91F0091EE041091EF04D2
:1043E0000050184F0C0F1D1F8EEB95E00E94044AE1
:1043F00008171907C8F48091EE049091EF048C0F10
:104400009D1F9093EF048093EE04C601F601C080D7
:10441000D180C114D104C9F7FC01F182E08286EB9E
:1044200095E00E94AE5003C0C7010E94BE34DF91E8
:10443000CF911F910F91FF90EF90DF90CF90089553
:10444000FC01009719F42FEF3FEF0CC080A18861A9
:1044500080A3CF0160E070E040E050E00E94501F78
:1044600020E030E0C90108950F931F93CF93DF93AD
:10447000EC018B01DC01A35BBF4FED91FC91119727
:10448000309751F0CF010190F081E02D3097D1F7B6
:10449000FC011183008302C06D937C93FE01EA5BF3
:1044A000FF4FD80151968D919C9152972081318177
:1044B000820F931F91838083FE01E05CFF4F519632
:1044C0006D917C915297CB01AA2797FDA095BA2FA9
:1044D0002081318142815381820F931FA41FB51F18
:1044E00080839183A283B383FE01EC5BFF4F8081C5
:1044F00091816817790718F01182108204C0861B19
:10450000970B9183808328A1822F806188A3F80173
:1045100080819181892B19F01182108202C028615B
:1045200028A3FE01E45BFF4F10811F5F1083193049
:104530002CF1CA5BDF4F688179812796E881F98188
:10454000CD54D040212F18C0818992898F3F910589
:1045500009F054F4CF010E941A35C45BDF4F181BD9
:104560001883CC54D0400AC0215028303CF0681B3E
:10457000790B0190F081E02D309731F7CE0160E0AA
:1045800070E040E050E00E94501FDF91CF911F91FA
:104590000F9108951F93CF93DF93EC01162F8B8912
:1045A000853009F466C0863088F4823051F183305A
:1045B00038F4882309F465C0813009F09EC01DC01D
:1045C000833039F1843009F098C011C0883009F483
:1045D0008DC0893030F4863069F1873009F08DC0A4
:1045E0004DC08930C1F18A3009F087C07FC0653085
:1045F00079F1663009F07AC03EC0633009F076C0C8
:1046000005C0633019F0643049F422C088A182618A
:104610003EC0643009F471C0653020F4113009F0F7
:1046200065C06BC0653039F1663009F05FC088A1A4
:1046300081602DC0673061F0683020F4663009F089
:1046400055C05BC0862F8950823008F04FC055C0DE
:1046500088A188611CC06A3019F420E030E002C0F3
:104660002FEF3FEF88A1886188A32115310581F0E4
:104670003FC06830D9F588A1816109C06A30B1F5C1
:104680003CC06130D1F1623089F588A1826088A395
:1046900081E01B8B8823B1F0CE0160E070E040E048
:1046A00050E00E94501F892B69F0123059F4CF5905
:1046B000DF4F80E490E099838883CE0104960E94C6
:1046C000195014C0153079F4CE01815B9F4F0E94C0
:1046D000A150CE018D599F4F0E94A150CE018B5900
:1046E0009F4F0E94A15020E030E002C02FEF3FEF2B
:1046F000C901DF91CF911F91089580E0CACFCF9378
:10470000DF93EC0162E00E94CA228B89823049F477
:10471000CE018B599F4F40E050E060E070E00E9476
:1047200003518B89843031F08B89853019F02FEF5C
:104730003FEF02C020E030E0C901DF91CF91089542
:10474000CF93DF93EC019B01FA01DB0150964D9171
:104750005D916D917C9153974C8B5D8B6E8B7F8BB4
:10476000808191819F8F8E8F1C964D915D916D916F
:104770007C911F974A8F5B8F6C8F7D8F8481958191
:10478000A681B781082E8B2FB02D092E9A2FA02D30
:104790008CAF9DAFAEAFBFAF8DA79EA7AFA7B8AB95
:1047A000C05CDF4F0196A11DB11D88839983AA8348
:1047B000BB83C054D04086859785082E892F902DC5
:1047C0009EAB8DABF901648575858685978540E044
:1047D00050E00E941A19FC01009729F10784F08922
:1047E000E02D8789908D8897CD5ADF4F28813981B8
:1047F000C355D0402115310519F08217930730F4C5
:10480000CD5ADF4F99838883C355D040CD5ADF4FAF
:1048100028813981C355D04089899A892817390759
:1048200010F43A8B298BDF91CF9108950F931F934A
:10483000CF93DF93EC01FC01E55AFF4F808191811A
:104840000196918380830197089720F0CE016CE355
:1048500070E013C0E8ADF9AD008111814A8D5B8D28
:104860006C8D7D8D86E09F010E94822E892B51F0F8
:1048700019AF08AFCE0162E370E00E9473212FEF01
:104880003FEF09C00E94C34DC15ADF4F6160798379
:10489000688320E030E0C901DF91CF911F910F9133
:1048A0000895AF92BF92CF92DF92EF92FF920F9353
:1048B0001F93CF93DF93EC01FB01BA01A084B18475
:1048C000C284D3840A2CAD2CD02C0B2CBC2CC02C35
:1048D00089A59AA5ABA5BCA58A199B09AC09BD09F8
:1048E000B7FF04C088A1886188A3E3C08DA19EA101
:1048F000AFA1B8A5A816B906CA06DB0609F036C0EE
:104900002481358146815781022E252F502D032E7B
:10491000342F402DEDA4FEA40FA518A9D801C7017E
:10492000821B930BA40BB50BB7FD11C02E153F05D1
:1049300040075107D9F489A99AA9ABA9BCA9860156
:104940007501E81AF90A0A0B1B0B17FD0FC08685C3
:104950009785082E892F902D9EAB8DAB2DA73EA756
:104960004FA758ABA9AABAAACBAADCAA2DA13EA1EF
:104970004FA158A5D601C501821B930BA40BB50B03
:10498000B7FD97C0A216B306C406D506F9F488ADE4
:1049900099AD892B09F48DC0672B09F08AC08585F4
:1049A00090E083709070892B09F083C08FA98F5F8E
:1049B0008FAB833008F47DC01FAACE010E9416245D
:1049C000892B09F476C02FEF3FEF75C01FAAADA267
:1049D000BEA2CFA2D8A686859785082E892F902DB6
:1049E0009EAB8DABCB5ADF4F88819981AA81BB8169
:1049F000C555D0400097A105B10549F08A199B091A
:104A0000AC09BD09B7FF03C0CE010E94B62BCB5A3B
:104A1000DF4F188219821A821B82C555D04035C0DB
:104A2000DB011B96ED91FC911C9724813581468119
:104A30005781022E252F502D032E342F402D5196B5
:104A40008D919C915297AA2797FDA095BA2F280F78
:104A5000391F4A1F5B1F858590E083709070892BFA
:104A600021F02F5F3F4F4F4F5F4FD601C501821B93
:104A7000930BA40BB50BB7FD0FC0FB018081918197
:104A800099AF88AFCB010E94BE3468AD79AD611596
:104A9000710509F0C5CF1BC00E94C34DC15ADF4F3D
:104AA000616079836883CF55D040C55ADF4F198242
:104AB000188220E030E0C901DF91CF911F910F9162
:104AC000FF90EF90DF90CF90BF90AF900895C15AC4
:104AD000DF4F19821882E7CF2F923F924F925F9259
:104AE0006F927F928F929F92AF92BF92CF92DF92FE
:104AF000EF92FF920F931F93DF93CF93CDB7DEB763
:104B00002C970FB6F894DEBF0FBECDBF9C878B8766
:104B10006B01DB011B968D909C901C97F401B58472
:104B2000DC0153968C91853009F4A5C3863098F446
:104B3000823009F4FDC1833038F4882309F40CC4B1
:104B4000813009F00DC4E1C1833009F456C28430CC
:104B500009F006C410C0883009F4D2C3893038F493
:104B6000863009F4E3C2873009F0FAC39DC3893067
:104B700009F0F6C339C3EB85FC8505A8F6A9E02D3D
:104B8000FA83E983AB85BC8595962D903D904D9039
:104B90005C9098972F82388649865A86B2FE0AC062
:104BA000CB010E94BE348B859C8566E370E00E9439
:104BB00073218BC1B1FE1AC0F40184819581A68155
:104BC000B781082E8B2FB02D092E9A2FA02DEB85A3
:104BD000FC8524AD35AD46AD57AD82179307A407CC
:104BE000B50731F0CB010E94BE1E6FC1B4FC04C0FA
:104BF000C6010E94BE3469C1DB0151964D915C91A2
:104C000052978B859C85B4010E945124EB85FC85CD
:104C1000E05CFF4FE080F18002811381E054F040BE
:104C2000FC87EB87D40114962D913D914D915C91B9
:104C30001797DA01C901082E8B2FB02D092E9A2F54
:104C4000A02D17012801281A390A4A0A5B0A57FEC3
:104C500085C0D60151964D915C91529741155105F1
:104C600009F46BC080910805909109058896159606
:104C70002D913C911697820F931F840F951F90934F
:104C800009058093080581599C40B0F0C6010E9437
:104C9000BE3480910805909109058897F601218915
:104CA0003289821B930B25813681821B930B909353
:104CB00009058093080544C0EB85FC85EF5AFF4F3A
:104CC000608171815F0134C0D4011496ED90FD9034
:104CD0000D911C9117970E2CE12E102D0F2CF02EFC
:104CE000002DDB011B96ED91FC911C9724813581F1
:104CF00046815781022E252F502D032E342F402D13
:104D0000D801C701821B930BA40BB50BB7FF07C0DB
:104D1000F501D182C082D6016D937C9311C0E21659
:104D2000F3060407150749F05B01DB016D917C91E7
:104D30006115710509F0C8CF17C3C6010E94BE34C2
:104D4000EB85FC8580A1886180A38B859C8560E0D4
:104D500070E040E050E00E94501FB7C0022E252FA7
:104D6000502D032E342F402D2E153F05400751079F
:104D700019F1AB85BC8590968C919097886190963F
:104D80008C939097FD01E159FF4F80819181A28121
:104D9000B3810196A11DB11D80839183A283B3834A
:104DA000C6010E94BE348B859C8560E070E040E0C7
:104DB00050E00E94501F73C0F60181899289892BAF
:104DC00009F46AC08B859C85B6010E94342241E5B6
:104DD000842E912C2B843C84820C931C30E4632E13
:104DE000712C620C731C4BC0C384D484D6011496FE
:104DF0004D915D916D917C9117971A012B01022CB9
:104E0000252C502C032C342C402CD301ED90FD90FC
:104E10000D911C91D801C70182199309A409B50904
:104E2000B7FD33C080819181D4018D939C93809193
:104E3000080590910905889721893289821B930B77
:104E400025813681821B930B909309058093080579
:104E5000042E472F702D052E562F602D4E155F0501
:104E60006007710749F48B859C85BF010E9434223D
:104E7000F6018585B82A03C0CF010E94BE34D40153
:104E8000ED91FC91309709F0AFCF8B859C85815BCC
:104E90009F4F0E94AE5003C0C6010E94BE34B0FEB8
:104EA00014C0EB85FC85E05CFF4F80819181A2817D
:104EB000B3810196A11DB11D80839183A283B38329
:104EC0008B859C8565E00E94CA22EB85FC858389E1
:104ED0008430A9F485A996A929803A802816390634
:104EE00070F085A196A1A7A1B0A54F8058846984D0
:104EF0007A8484159505A605B70509F43CC28B850F
:104F00009C85CA960E94A15036C226E1522EB52039
:104F100092E0692EB61409F01FC2DB0117966D915D
:104F20007C9118978B859C85A4010E94A02361C069
:104F30006B2D70E080E1A82EB12CA622B72264FF71
:104F40002AC0F40180859185A285B385082E8B2F18
:104F5000B02D092E9A2FA02DEB85FC85E1A0F2A0A3
:104F600003A114A18E199F09A00BB10B0196A11DDD
:104F7000B11D21A532A543A554A52F5F3F4F4F4F2B
:104F80005F4F2E193F09400B510B281739074A076D
:104F90005B0708F4E1C162FF0AC0AB2809F4E0C175
:104FA0008B859C856DE370E00E947321D9C161FF00
:104FB000D7C1D60117966D917C9118978B859C85EA
:104FC000A4010E94A023AB28A1F0F60141895289D7
:104FD0008B859C85B4010E9451248B859C8564E05F
:104FE0000E94CA228B859C858B599F4F0E94AE5090
:104FF000B7C18B859C8563E080C1B2FE2AC02B853A
:105000003C852D593F4FD9018D919C911197A35605
:10501000B040BC87AB87892B29F0CD0161E00E94AD
:10502000CA2206C08B859C856DE370E00E947321C7
:10503000C6010E94BE34EB85FC85E15AFF4F118208
:105040001082EF55F040FC87EB87CF010E94BE1124
:1050500092C1B1FC81C1B4FE83C1F4018085918508
:10506000A285B385082E8B2FB02D092E9A2FA02D47
:10507000EB85FC85E5A0F6A007A110A58E199F0978
:10508000A00BB10B0196A11DB11D21A532A543A511
:1050900054A52F5F3F4F4F4F5F4F2E193F09400BD5
:1050A000510B281739074A075B0708F455C1DB0184
:1050B00051964D915C9152978B859C85B4010E94CD
:1050C0005124F60181899289892B31F08B859C8549
:1050D000B6010E94342203C0C6010E94BE34B0FE55
:1050E00013C0EB85FC85E05CFF4F80819181A2813C
:1050F000B3810196A11DB11D80839183A283B383E7
:105100008B859C8565E0B4C08B859C8564E00E949E
:10511000CA228B859C858D599F4F0E94AE508B85EE
:105120009C858B599F4F0E94AE5025C11B2DB2FC10
:10513000E9C0B1FC11C1B4FE13C1DB0151964D9120
:105140005C9152978B859C85B4010E945124EB851C
:10515000FC8521A532A543A554A585A196A1A7A1AB
:10516000B0A5281739074A075B0721F4CF0169E08A
:105170000E94CA22D60151968D919C915297892BFB
:1051800061F08B859C85B6010E9434228B859C85BD
:10519000815B9F4F0E94AE5003C0C6010E94BE3487
:1051A00010FFE9C0EB85FC85E05CFF4F80819181B9
:1051B000A281B3810196A11DB11D80839183A28339
:1051C000B383EB85FC85E35AFF4F11821082ED55C6
:1051D000F040FC87EB878389893011F4CF0147C009
:1051E0008B859C8567E044C01B2DB2FC8BC0B1FC55
:1051F000B3C0B4FEB5C0DB0151964D915C9152979E
:105200008B859C85B4010E945124F6018189928985
:10521000892B61F08B859C85B6010E9434228B8599
:105220009C85815B9F4F0E94AE5003C0C6010E94C7
:10523000BE3410FFA0C0EB85FC85E05CFF4F808191
:105240009181A281B3810196A11DB11D80839183BB
:10525000A283B3832B853C85235A3F4FD9011196F6
:105260001C921E92AD55B040BC87AB87CD016AE061
:105270000E94CA2280C0B2FE0AC0CB010E94BE3486
:105280008B859C8566E370E00E94732174C0B1FC3D
:1052900063C0B4FE65C0FB01418952898B859C8542
:1052A000B4010E9451245CC0B2FC2CC0B1FC54C0BB
:1052B000B4FE56C0DB0151964D915C9152978B859F
:1052C0009C85B4010E945124EB85FC8521A532A563
:1052D00043A554A585A196A1A7A1B0A52817390774
:1052E0004A075B07E9F5E35AFF4F11821082ED553B
:1052F000F040FC87EB87CF016AE00E94CA2230C0F1
:10530000B2FE06C0C6010E94BE348B859C8521C0BA
:10531000B1FC22C0B4FE24C0DB0151964D915C91DA
:1053200052978B859C85B4010E945124C6010E942E
:10533000BE34EB85FC8521A532A543A554A585A1E6
:1053400096A1A7A1B0A5281739074A075B0799F4CA
:10535000CF010E94A4160FC0C6010E94BE1E0BC042
:10536000C6010E94BE3407C0D501CD92DC92F60181
:1053700011821082E5CC2C960FB6F894DEBF0FBEDA
:10538000CDBFCF91DF911F910F91FF90EF90DF90F4
:10539000CF90BF90AF909F908F907F906F905F90D5
:1053A0004F903F902F9008950F931F93CF93DF93CB
:1053B000EC018B89882349F0CF59DF4F88E390E0D7
:1053C0009983888328E330E063C0CE0161E00E94C6
:1053D000CA22088D198D40EF54E068E020E030E0EB
:1053E000722FDA01ED91FC913097A9F00384F485D6
:1053F000E02D828193818017910769F4683061F014
:10540000D901A050BB4FE62FF0E0E050FB4F9C913C
:105410008081891708F0762F2F5F3F4F4E5F5F4FD7
:105420002830310511F0672FDBCF7830B1F0E72F4E
:10543000F0E0EE0FFF1FE051FB4F00811181118260
:1054400010820115110549F0CE01B8010E943221E8
:10545000CE01B8010E946C250FC0C959DF4F4881A9
:1054600059816A817B81C756D040CE018D599F4FAB
:105470000E940351892B19F420E030E009C01B8AF7
:10548000CF59DF4F8CE390E0998388832CE330E0A1
:10549000C901DF91CF911F910F91089580E20E9481
:1054A0004A4CCC245524539401C0CC24C39483E0AB
:1054B0008C1558F086EB95E048EC50E060E070E029
:1054C0000E940351892B09F483C0C0EFD4E0A0E00F
:1054D000B5E020E0E8E088819981892B39F08C9152
:1054E000853010F0E22F02C08F5F8C932F5F2296E1
:1054F0001196283081F7E83069F0F0E0EE0FFF1FD9
:10550000E051FB4F8081918111821082009711F050
:105510000E94BE1EC091C404D091C50455C088A18C
:1055200084FF09C0886088A3CE0160E070E040E09D
:1055300050E00E94501F88AD99AD892BE1F08E019B
:10554000015A1F4FD8018D919C91892BA1F00E9487
:10555000C34DF801208131812E7F621B730BC75A26
:10556000DF4F28813981C955D0406217730718F081
:10557000CE010E9416248B898A3019F08B898930DC
:1055800079F4FE01E35AFF4F808191810196918366
:10559000808301970997A8F0CE010E94A41685CFB9
:1055A0008B89833071F4FE01E35AFF4F8081918132
:1055B00001969183808301978D9718F05B8A118201
:1055C00010820990D881C02D209709F0A8CF6DCF07
:1055D0000091B4051091B5051092B5051092B4056F
:1055E0001092EF041092EE048CC0E801AB85BC85EC
:1055F0006D917C911197EF81F885248535854685DD
:10560000578512968D919C9113970E94D310EC01AF
:10561000F80170806180009741F0B8010E9432214A
:10562000CE01B8010E946C2568C0D80117968D90F4
:105630009C9018971B96AD90BC901C97E5018D85AA
:105640008671823009F056C0F0EFEF2EF4E0FF2EA5
:10565000E8E0DE2EC0E0D0E0AC2FF7016081718180
:105660006115710521F4F8E0DF1659F52BC0DB0157
:105670001796ED91FC9118972485358546855785B9
:10568000F40184859585A685B785281739074A07CB
:105690005B07B9F4DB011B96ED91FC911C9720810F
:1056A0003181F501808191812817390751F4CB01AF
:1056B0000E94BE34CC0FDD1FC051DB4F198218820F
:1056C00019C0AD2D219682E090E0E80EF91EC83099
:1056D000D10511F0DA2EC0CFA83061F0B0E0FD01A5
:1056E000EE0FFF1FE051FB4F11830083A050BB4F13
:1056F0001C9203C0C8010E94BE1E872D962D9C01DE
:1057000089010115110509F070CFD0CECF93DF9339
:10571000EC01009729F10E94CA4C8B89853018F45E
:10572000833068F408C0853069F0FE01EF59FF4FFF
:105730008B3090F40EC0CE010E94A41607C0CE019B
:1057400066E002C0CE0168E00E94CA2220E030E09C
:1057500009C085E290E002C089E390E091838083F4
:105760002FEF3FEFC901DF91CF9108950F931F9362
:10577000CF93DF93EC018C01015A1F4FF801808118
:105780009181892B31F10E94C34DC75ADF4F888127
:105790009981C955D040880F991FF8012081318126
:1057A0002E7F821B930B860F971F880F991F880FE0
:1057B000991FF7E0803D9F0718F488EC90E005C042
:1057C0006AE070E00E94F652CB01C75ADF4F99831E
:1057D0008883DF91CF911F910F9108950F931F93AD
:1057E000CF93DF93EB01EB85FC853097E9F12D85B5
:1057F0003E8528303105C0F1285030403A8B298B46
:1058000088E090E09E878D87232B21F03896F88BD7
:10581000EF873897828193810E9403178C0100974C
:1058200081F48A8183FF20C083E063E020E030E0E0
:1058300040E050E08E010E945131892B09F051C0A7
:1058400013C0DC011A964D915C911B9741155105CF
:1058500069F189899A8918962D913C911997820F3F
:10586000931F4817590724F4CE010E94BE3439C053
:10587000D8011496ED91FC911597309751F0CF0116
:105880000190F081E02D3097D1F7FC01D183C083E6
:1058900003C0F801D583C483D80118968D919C91DB
:1058A000199729893A89820F931F0EC0FC018481C0
:1058B0009581009711F00E94BE34D8011596DC93B3
:1058C000CE93149789899A8919969C938E931897E9
:1058D000F80186819781892B21F0C80106960E94E4
:1058E000AE5080E090E0DF91CF911F910F9108952D
:1058F0004F925F926F927F928F929F92AF92BF92E0
:10590000CF92DF92EF92FF920F931F93DF93CF938B
:1059100000D00F92CDB7DEB72C013A014B017901CF
:10592000C80160E448E050E00E9492365C010097B4
:1059300019F42FEF3FEF5BC0FC01C384D484F20164
:1059400082819381F601918380830E2CEF2CF02CC1
:10595000F382E282F5018189928925853685820F5D
:10596000931F082E892F902DF60195838483C401FF
:10597000B301AE014F5F5F4F0E941A19FC010097FF
:1059800061F00784F089E02D83859485A585B6852F
:1059900089839A83AB83BC8304C019821A821B82D9
:1059A0001C82F6011782168269817A818B819C8123
:1059B000E480F580A401930101E10E944A2DDC01FD
:1059C000CB01B60148E050E00E940D2DF50167853E
:1059D0007089418952890E94432DF60197838683FD
:1059E00081E1B401A30195010E94822E9C01C901AD
:1059F0000F900F900F900F90CF91DF911F910F910B
:105A0000FF90EF90DF90CF90BF90AF909F908F90DE
:105A10007F906F905F904F900895EF92FF920F9359
:105A20001F937C0100E010E0FB010FC0318120E0FA
:105A3000808190E0822B932BA0E0B0E0E80EF91E6D
:105A40000A1F1B1F3296425050404230510574F7D6
:105A5000452B61F08081E80EF11C011D111D06C06F
:105A600000E010E0E80EF91E0A1F1B1FC801AA275C
:105A7000BB270097A105B10599F7C7011F910F91A9
:105A8000FF90EF9008950E940D2D9C012095309578
:105A9000C9010895EF92FF920F93DF93CF93CDB793
:105AA000DEB72C970FB6F894DEBF0FBECDBF69836B
:105AB0007A838B839C832D833E834F8358871986FB
:105AC0000A87FC86EB8680E090E0BE016F5F7F4F27
:105AD0004CE050E00E940D2DBC0180E090E02C963F
