:100000000C943F010C94AD010C94AD010C94AD0126
:100010000C94AD010C94AD010C94696B0C94D565F6
:100020000C94AD010C94B95F0C94AD010C94AD012E
:100030000C94AD010C94AD010C94AD010C94AD0188
:100040000C94AD010C94AD010C94AD010C94AD0178
:100050000C94AD010C944F660C943B670C94CA66EB
:100060000C94AD010C94AD010C94AD010C94AD0158
:100070000C94AD010C94AD010C94AD010C94AD0148
:100080000C94AD010C94AD010C94AD010C94AD0138
:100090000C94AD01186E1B6E1E6E266E296E2C6EB2
:1000A0002F6E326E396E646E896E8E6E936E986EA0
:1000B0009D6EA76EAB6EAE6EB86EC26E156E156E8F
:1000C000156E156EE66EE96EEC6EFD6E006F0A6FD2
:1000D000156E0D6F156F186F206F236F2B6F2E6FBE
:1000E000366F156E156E156E156EC66ED46E3C6845
:1000F000746D6C3E0A3C686561643E3C2F686561C6
:10010000643E0A3C626F64793E0A3C68313E576F38
:10011000726B733C2F68313E0A3C2F626F64793EEC
:100120000A3C2F68746D6C3E0A696E6465782E68AF
:10013000746D6C00636C6F73650D0A0D0A00436F7C
:100140006E6E656374696F6E3A2000436F6E7465FE
:100150006E742D456E636F64696E673A20677A69C5
:10016000700D0A00436F6E74656E742D4C656E677A
:1001700074683A20256C640D0A00436F6E74656ED6
:10018000742D547970653A2025730D0A005757571E
:100190002D41757468656E7469636174653A2042B7
:1001A00061736963207265616C6D3D222573220D58
:1001B0000A003C48544D4C3E3C484541443E3C546A
:1001C00049544C453E25642025733C2F5449544CDA
:1001D000453E3C2F484541443E3C424F44593E2514
:1001E000642025733C2F424F44593E3C2F48544DC8
:1001F0004C3E0D0A00485454502F25642E2564208F
:1002000025642025730D0A5365727665723A204580
:10021000746865726E75742025730D0A00FFFFFF08
:10022000FFFFFFFFFFFFFFFF3EFFFFFF3F343536BD
:100230003738393A3B3C3DFFFFFFFFFFFFFF00012E
:1002400002030405060708090A0B0C0D0E0F101116
:100250001213141516171819FFFFFFFFFFFF1A1BC3
:100260001C1D1E1F202122232425262728292A2B56
:100270002C2D2E2F30313233FFFFFFFFFF0084E89B
:100280008093740085E385B98FE384B988EE8BB9D8
:1002900080EB8AB98EE08EB982E08DB980EF81BBA8
:1002A0008FE080BB8FE184BB87E083BB80B7806831
:1002B00080BF1092B90084E38093B800E0ECF0E0D6
:1002C000808182608083E8ECF0E0808182608083BE
:1002D0008BE98093C4008093CC0011241FBECFEF24
:1002E000D0E1DEBFCDBF18E0A0E0B1E0E8EFF9EE6D
:1002F00000E00BBF02C007900D92A432B107D9F7FE
:1003000019E0A4E2B8E001C01D92A336B107E1F7FD
:100310008FEF9FE79EBF8DBF8FEF9FE7835699407A
:100320008158914050F04FEF5EE7435659408AE3C1
:1003300099E063E679E00E946B530E94495B8FE38A
:1003400092E06AEC72E040E050E020E831E00E9488
:10035000705E0E9400000C94FA740C9400006F927E
:100360007F928F929F92AF92BF92CF92DF92EF9245
:10037000FF920F931F93DF93CF9300D000D0CDB7A0
:10038000DEB780E092ECA1E0B0E089839A83AB8392
:10039000BC838BE397E060E070E040E00E940C5B80
:1003A000409171065091720680E091E066E071E044
:1003B0000E94C24480917106909172060E942C4462
:1003C00061E071E0AE014F5F5F4F0E94C2420E9448
:1003D000A25200D000D028E031E0EDB7FEB7328362
:1003E0002183948383830E94CB4583E391E0EDB71F
:1003F000FEB79283818303E411E0148303830E9498
:10040000CB450F900F900F900F9087EB97E060E037
:1004100070E040E00E940C5B892B29F088E491E0B9
:100420000E94DD45FFCFC80160E070E020E63AEEB3
:1004300040E050E00E94E203892B29F081E791E03F
:100440000E94DD45FFCF60911009709111098091E4
:100450001209909113090E94442600D000D021EA8D
:1004600031E0EDB7FEB732832183948383830E940A
:10047000CB450F900F908BEA91E0EDB7FEB79283DA
:1004800081830E94CB450F900F908CE496E060E052
:1004900070E040E00E940C5B892B29F088EC91E031
:1004A0000E94DD45FFCF80ED91E00E94DD4534EDF7
:1004B000632E31E0732E2FEE822E21E0922E9CEFE0
:1004C000A92E91E0B92E8DE0C82E82E0D82E0E9490
:1004D00068217C010097C9F400D000D0EDB7FEB7C9
:1004E0007282618280913809909139099483838363
:1004F0000E94CB450F900F900F900F9068EE73E025
:1005000080E090E00E943A58E2CF00D0EDB7FEB70D
:10051000928281820E94CB450F900F90C70160E5C7
:1005200070E00E94DA2000D0EDB7FEB7B282A1825F
:100530000E94CB450F900F90C70169E072E00E94C6
:1005400086438C01009799F400D000D0EDB7FEB738
:10055000D282C18280913809909139099483838332
:100560000E94CB450F900F900F900F9005C00E94F6
:100570009113C8010E944843C7010E943F2088E2AE
:1005800092E00E94DD45A3CF9091490280934902F9
:10059000892F08950E94175984E492E06FEA71E070
:1005A00040E050E020E033E00E94705E8EEF0E9459
:1005B000C2550E9442560E948A55209149022F3FFF
:1005C000C1F393B783B7817F822B83BF83B78160E9
:1005D00083BF889583B78E7F83BF83B79E70817FEB
:1005E000982B93BFE6CF8091290890E008958091E1
:1005F0002A0890912B0810922B0810922A0808952F
:1006000020E030E080912908853011F421E030E0CD
:10061000C9010895DF92EF92FF920F931F93CF933A
:10062000DF93D62E79018A010E94F05AEC010097DF
:1006300051F08B85833039F4EF85F889309719F0C4
:100640008081863049F081E190E090932B0880937F
:100650002A082FEF3FEF35C00E943B5760933408C4
:10066000709335088093360890933708E0923008ED
:10067000F09231080093320810933308D092290881
:100680008091270890912808892B69F48AE492E0E8
:1006900067E878E0AE0120E231E00E94705E90935E
:1006A0002808809327088CE298E00E94265A8EE260
:1006B00098E040E050E060E070E00E947B5A20E06B
:1006C00030E0C901DF91CF911F910F91FF90EF9022
:1006D000DF900895FC019A01AB01809129088823DD
:1006E00049F083E090E090932B0880932A082FEF45
:1006F0003FEF05C0CF0168E00E940A039C01C901D9
:100700000895FC019A01AB0180912908853049F0D8
:1007100083E090E090932B0880932A082FEF3FEF1F
:1007200005C0CF0169E00E940A039C01C901089538
:10073000CF92DF92EF92FF920F931F93CF93DF93AD
:10074000FC0184E292E0DF01EC011D922197E9F7C0
:1007500081E08083818386E08283EF016C96AAE04A
:10076000B9E00D9009928150E1F7248335834683E7
:1007700057830C2CCD2CD02CD186C086E486F586F0
:1007800006871787E451FF4F93E69193DF0182E8D4
:10079000819383E511968C93DF0111969183FD017E
:1007A000319685E311968C9381E08183628387E0A3
:1007B00090E0DF91CF911F910F91FF90EF90DF902C
:1007C000CF9008954F925F926F927F928F929F92F7
:1007D000AF92BF92CF92DF92EF92FF920F931F934F
:1007E000DF93CF93CDB7DEB760970FB6F894DEBF37
:1007F0000FBECDBF4C012B012D873E874F87588BF5
:100800000E94F05A5C01009769F0FC0183858330F7
:1008100049F4C784D088C114D10421F0F601808145
:10082000863019F081E190E03BC08E010F5F1F4FD1
:10083000F80111928A95E9F797E0692E712C6C0EF8
:100840007D1EC3016FEF70E046E050E00E943274FD
:1008500085E0E82EF12CEC0CFD1CC701B80146E048
:1008600050E00E941C74009741F0C701B30146E0BC
:1008700050E00E941C74009731F54114510449F076
:10088000AAE0B9E0F20186E001900D928150E1F713
:100890000CC0C4010E949029892B39F082E090E0BD
:1008A00090932B0880932A08BFC0D701EAE0F9E0B3
:1008B00086E001900D928150E1F764EF71E080E0F5
:1008C00090E00E943A58F601138614861586168623
:1008D0008091140990911509A0911609B0911709FA
:1008E000838B948BA58BB68B8091140990911509FD
:1008F000A0911609B091170920911C0930911D098A
:1009000040911E0950911F0982239323A423B523EC
:100910000097A105B10501F1C40140EE5EE260E07F
:1009200070E00E94810320911C0930911D094091C3
:100930001E0950911F09209310093093110940930B
:10094000120950931309E0901409F09015090091D1
:1009500016091091170958C0C40161E02D853E8524
:100960004F8558890E940A03892B09F05DC0809148
:100970002908853031F5E0912508F091260841815C
:100980005281638174810581168127813085C584F8
:10099000D684E784F088C5010E949627E091250857
:1009A000F09126082189328943895489E588F6889F
:1009B0000789108D80E090E060E070E00E94CC0F2D
:1009C00030C0F60183859485A585B6850097A1057D
:1009D000B10539F5209110093091110940911209A2
:1009E00050911309E0901409F0901509009116092F
:1009F00010911709D801C70182239323A423B5239B
:100A00000097A105B10581F0A0901809B0901909CF
:100A1000C0901A09D0901B09C4016AE079E00E94D5
:100A2000932820E030E002C02FEF3FEFC90160962D
:100A30000FB6F894DEBF0FBECDBFCF91DF911F91EF
:100A40000F91FF90EF90DF90CF90BF90AF909F906D
:100A50008F907F906F905F904F900895CF93DF932A
:100A6000EC01009779F089A59AA5009711F00E94F2
:100A7000DD4C8BA59CA5009711F00E94DD4CCE01AA
:100A80000E94DD4CDF91CF910895EF92FF920F937A
:100A90001F93CF93DF938C01F62EE72EEA01DC0142
:100AA0008D919C91009711F00E94DD4CCE01019632
:100AB0000E94E34CF80191838083009769F02097AE
:100AC00029F06F2D7E2DAE010E942974D801ED9181
:100AD000FC91EC0FFD1F1082DF91CF911F910F91C0
:100AE000FF90EF9008954F925F926F927F928F9256
:100AF0009F92BF92CF92DF92EF92FF920F931F933C
:100B0000CF93DF938C017B018DE290E00E94E34C58
:100B1000EC014C01009709F45BC18DE2FE011192DA
:100B20008A95E9F780EC98EAA0E0B0E08DA39EA357
:100B3000AFA3B8A7F80180899189A289B389898375
:100B40009A83AB83BC8300511F4F80E19FEFE80E77
:100B5000F91E69E2462E512C4C0E5D1E5BE2652E9D
:100B6000712C6C0E7D1EE5C0332331F40F5F1F4FD7
:100B70000894E108F108DDC0F801B180CB2CDD2438
:100B8000EC14FD040CF4E3C0353341F4F1E0BF167E
:100B900009F0DDC0F80182818883C0C03C3029F4AF
:100BA000B8016E5F7F4FC20106C03F3041F4B8010B
:100BB0006E5F7F4FC301A6010E944505AFC0F3E001
:100BC000FB1508F0ABC0F8012281838190E0A0E022
:100BD000B0E04427582F692F7A2F848190E0A0E05D
:100BE000B0E0DC0199278827480F591F6A1F7B1F37
:100BF000420F511D611D711D858190E0A0E0B0E0A4
:100C0000B82FAA2799278827480F591F6A1F7B1FCB
:100C1000313029F44D835E836F8378877FC03C3108
:100C200029F449875A876B877C8778C0333029F449
:100C30004D875E876F87788B71C0363009F041C071
:100C4000498B5A8B6B8B7C8BF7E0FB1508F066C0E9
:100C5000F801268130E040E050E02D8B3E8B4F8B39
:100C6000588F878190E0A0E0B0E0BA2FA92F982F8D
:100C70008827820F931FA41FB51F8D8B9E8BAF8B70
:100C8000B88F208530E040E050E0A90133272227CB
:100C9000280F391F4A1F5B1F2D8B3E8B4F8B588FA0
:100CA000818590E0A0E0B0E0B82FAA279927882797
:100CB000280F391F4A1F5B1F2D8B3E8B4F8B588F80
:100CC0002DC0363329F4498F5A8F6B8F7C8F26C005
:100CD0003A3359F4042E472F702D052E562F602DD0
:100CE0004D8F5E8F6F8F78A319C03B3359F4042E5C
:100CF000472F702D052E562F602D49A35AA36BA3A5
:100D00007CA30CC0333351F4042E472F702D052ED5
:100D1000562F602D4DA35EA36FA378A78B2D90E077
:100D20000296080F191F8EEF9FEFE80EF91EEC18C0
:100D3000FD08F80130813F3F09F45BC01E141F0419
:100D40000CF412CF04C0853041F0863031F0CE0172
:100D50000E942E05882499243BC08D8D9E8DAF8DD9
:100D6000B8A10097A105B10561F48DA19EA1AFA125
:100D7000B8A5B695A795979587958D8F9E8FAF8FC0
:100D8000B8A389A19AA1ABA1BCA10097A105B10507
:100D9000F9F48D8D9E8DAF8DB8A19C01AD01569556
:100DA0004795379527957C018D0162E0169507954B
:100DB000F794E7946A95D1F72E0D3F1D401F511F00
:100DC000280F391F4A1F5B1F29A33AA34BA35CA31B
:100DD000C401DF91CF911F910F91FF90EF90DF90B1
:100DE000CF90BF909F908F907F906F905F904F902B
:100DF00008958881823009F0A6CFAFCFEF92FF929D
:100E00000F931F937C01D901F901E00FF11FE45109
:100E1000FF4F8FEF8083F801E351FF4F81E0EC3209
:100E2000F80710F4ECE2F1E0C70123E430E08D01B3
:100E30007F010E943E2397FD03C020E030E008C000
:100E400083E190E090932B0880932A082FEF3FEFE7
:100E5000C9011F910F91FF90EF9008952F923F923B
:100E60004F925F926F927F928F929F92AF92BF92BA
:100E7000CF92DF92EF92FF920F931F93DF93CF9366
:100E8000CDB7DEB71C012A013B014901A80197013A
:100E900086017501C40163E0CD8CDE8C0E9498034D
:100EA0009C018D899E89AF89B88D0097A105B105F8
:100EB000C1F0F401E20FF31FE451FF4F82E380839E
:100EC00024513F4FF401E20FF31F84E081838D89A9
:100ED0009E89AF89B88D82839383A483B583265E70
:100EE0003040898D9A8DAB8DBC8D0097A105B105E1
:100EF000C1F0F401E20FF31FE451FF4F86E380835A
:100F000024513F4FF401E20FF31F84E08183898D68
:100F10009A8DAB8DBC8D82839383A483B583265E2B
:100F20003040F401E20FF31FE451FF4F87E3808369
:100F300024513F4FF401E20FF31F2C5E3040DF01DC
:100F4000119693E09183FD01319681E011968C9387
:100F5000918386E0828375E0E72EF12CE20EF31E8A
:100F600041E559E0DA010D900020E9F7A255B940BA
:100F70001A161B06D4F40A2FF401EE0DFF1DE451DE
:100F8000FF4F8CE08083F901EF50FF4FE80DF91D12
:100F9000A1833296CF01BA014A2F50E00E942974F2
:100FA00010E00E5F1F4FE00EF11EC101B301A20160
:100FB000940187010E94FE06CF91DF911F910F914E
:100FC000FF90EF90DF90CF90BF90AF909F908F9069
:100FD0007F906F905F904F903F902F9008952F9249
:100FE0003F924F925F926F927F928F929F92AF92B9
:100FF000BF92CF92DF92EF92FF920F931F93DF93F6
:10100000CF93CDB7DEB760970FB6F894DEBF0FBEB3
:10101000CDBF9C878B874D875E876F87788B390123
:10102000470158010E943B576F83788789879A87C9
:1010300067017801E6E02E2EEFEF3E2EEFEF4E2E09
:10104000EFEF5E2E280C391C4A1C5B1C8B859C859F
:10105000BE016D5F7F4FAE014F5F5F4F930104E2B2
:1010600012E00E94D3229C01181619064CF000973A
:10107000A1F184E190E090932B0880932A082DC081
:10108000823F910588F0F3018081823069F4848188
:101090009581A681B7814D855E856F857889841796
:1010A0009507A607B707C9F00E943B572F813885DF
:1010B00049855A85621B730B840B950B621573056A
:1010C0008405950518F020E030E007C07501640143
:1010D000C61AD70AE80AF90AB9CFC90160960FB64D
:1010E000F894DEBF0FBECDBFCF91DF911F910F915E
:1010F000FF90EF90DF90CF90BF90AF909F908F9038
:101100007F906F905F904F903F902F900895DF9366
:10111000CF93CDB7DEB7A0970FB6F894DEBF0FBE62
:10112000CDBF8C010E94A7576B8B7C8B8D8B9E8BC8
:101130002091100930911109409112095091130921
:101140002B873C874D875E87D8011F960D90BC91F9
:10115000A02DBA8FA98F1A968C9190E0A0E0B0E0F4
:10116000BA2FA92F982F8827E98DFA8D2185820F14
:10117000911DA11DB11DBA2FA92F982F8827208559
:10118000820F911DA11DB11D2227382F492F5A2FE3
:101190008781280F311D411D511D2B8F3C8F4D8F95
:1011A0005E8F18A21F8E66247724188E1F8A1F86D2
:1011B000188A198A1A8A992430EA232E3FE0332E9E
:1011C000412C512C01C0982C9920E1F0220C331CA9
:1011D000441C551C31E023163AEF330630E0430639
:1011E00030E0530630F0212C9AEF392E412C512C4F
:1011F00038C02FEF3FEF4FEF5FEF2F8338874987DE
:101200005A8737C080912908833059F08B8D9C8D87
:10121000AD8DBE8D0196A11DB11D8B8F9C8FAD8FA5
:10122000BE8FE0912508F09126083097A1F0218D1E
:10123000328D438D548D2F83388749875A872115E6
:1012400031054105510539F080EA282E8FE0382E0E
:10125000412C512C0EC000EA202E0FE0302E412CE4
:10126000512C8FEF9FEFAFEFBFEF8F839887A98748
:10127000BA87809129088823D9F18091300890910C
:101280003108A0913208B09133080097A105B1054B
:1012900079F10E943B579B01AC01809134089091F9
:1012A0003508A0913608B0913708281B390B4A0B36
:1012B0005B0B6091300870913108809132089091F9
:1012C0003308261737074807590738F0A1E0B0E080
:1012D000B0932B08A0932A0818C6621B730B840BCB
:1012E000950B621573058405950510F41B012C01FF
:1012F00080912908823021F0863011F0873041F545
:101300009920F1F00E94A7572B893C894D895E896D
:10131000621B730B840B950B6050704081409040B2
:1013200028F04FEF5FEF588F4F8B12C00E94A757E6
:10133000DB01EB89FC89AE1BBF0BB88FAF8B08C0FC
:101340000E94A7576B8B7C8B8D8B9E8B188E1F8A70
:1013500080912908853011F08823B1F42F8D38A1B0
:101360002115310519F0C9010E94A42261147104EC
:1013700019F418A21F8E4CC0C3010E94DD4C18A2A4
:101380001F8E6624772444C08091250890912608FA
:10139000892B59F4E98DFA8D83859485A585B685C9
:1013A0000097A105B10509F0B0C52F8D38A1232BF9
:1013B00021F06114710461F509C084E490E00E9499
:1013C000842398A38F8F6114710429F484E292E03E
:1013D0000E94E34C3C014F8D58A1452B19F061143C
:1013E000710439F482E190E090932B0880932A08ED
:1013F0008CC580EC96E09A8389838F8D98A162E0FA
:1014000070E1AE014F5F5F4F22E030E00E94522258
:1014100080912908813031F52B8D3C8D4D8D5E8D6D
:101420002F5F3F4F4F4F5F4F2B8F3C8F4D8F5E8F06
:101430008091140990911509A0911609B09117098E
:101440002B853C854D855E8582239323A423B5237C
:101450000097A105B10511F432E073C244E0409356
:10146000290871C2823009F05AC1B92CB39453E0F3
:101470005915C8F48091250890912608892B61F0B0
:1014800085E0809329082B893C894D895E892F87C7
:10149000388B498B5A8B7BC541E050E050932B0829
:1014A00040932A082FC18B859C85AD85BE858B8393
:1014B0009C83AD83BE83C30161E02B8D3C8D4D8D3C
:1014C0005E8DEE24FF248701CF88D88C0E9498037C
:1014D0009C018B819C81AD81BE810097A105B105E6
:1014E000C1F0F301E20FF31FE451FF4F92E3908349
:1014F00024513F4FF301E20FF31FA4E0A1838B813E
:101500009C81AD81BE8182839383A483B583265E53
:101510003040F301E20FF31FE451FF4FB7E3B08314
:1015200024513F4FF301E20FF31F2C5E3040DF01E7
:10153000119643E04183FD01319651E011965C9391
:10154000418386E0828315E0E12EF12CE20EF31E4A
:10155000A1E5B9E00D900020E9F7A255B9401A16AF
:101560001B06E4F40A2FF301EE0DFF1DE451FF4FBB
:101570009CE09083F901EF50FF4FE60DF71DA1832A
:101580003296CF01E1E5F9E0BF014A2F50E00E9419
:10159000297410E00E5F1F4FE00EF11E20E432E0D0
:1015A0003A832983F301EE0DFF1DE451FF4F39E328
:1015B00030834CEE50E0E40EF51EF301EE0DFF1DFE
:1015C00052E0518389819A81082E892F902D9A8328
:1015D000898331969283818388E19FEFE80EF91E1B
:1015E0008F8D98A14FEF5FEF6FEF7FEF9301870132
:1015F0000E94FE0697FF74C085C0E0902508F09019
:101600002608C3010E9473058C01009709F44EC09F
:10161000DC018C91823009F046C0E114F10409F438
:1016200046C0209110093091110940911209509142
:1016300013098091140990911509A0911609B09190
:10164000170982239323A423B5230097A105B1058D
:10165000A9F0F70181819281A381B4818217930758
:10166000A407B50719F1F80181819281A381B481A2
:1016700082179307A407B507C9F411C0D80195963E
:101680002D913D914D915C919897F70185A196A17F
:10169000A7A1B0A582179307A407B50720F4C70137
:1016A0000E942E0504C0C8010E942E0587011093D8
:1016B000260800932508012B99F08091300890911D
:1016C0003108A0913208B0913308805E9E42A0405C
:1016D000B040D8F0B0EA2B2EBFE03B2E412C512C6D
:1016E0008F8D98A14B8D5C8D6D8D7E8D93018201C8
:1016F00071010E94EF07BC01181619060CF47DCF8A
:10170000009719F01092290842C480912508909101
:101710002608892B09F43BC4A4E09A2E3BC48330ED
:1017200009F06CC0892C839423E0291520F431E062
:10173000309329082EC4E0912508F09126084DB772
:101740005EB74A5050400FB6F8945EBF0FBE4DBF13
:101750002DB73EB72F5F3F4F418152816381748126
:10176000ADB7BEB711964D935D936D937C9314976F
:10177000818D928DA38DB48DF90184839583A68389
:10178000B7834F89588D518740878F8D98A14FEF30
:101790005FEF6FEF7FEF9301EB8CFC8C0D8D1E8D57
:1017A000AA24BB2465010E942E07ADB7BEB71A96C6
:1017B0000FB6F894BEBF0FBEADBF97FDB7C38F8DF8
:1017C00098A14B8D5C8D6D8D7E8D93018201710191
:1017D0000E94EF07BC0197FDA9C3009709F4D9C384
:1017E000C3010E9473058C01009709F4D2C3FC0168
:1017F000F080F5E0FF1609F059C243C2843009F0C9
:1018000081C0892C839453E0581548F481E080937B
:101810002908982C1B861C861D861E86BBC3ADB767
:10182000BEB71A970FB6F894BEBF0FBEADBF2DB7A7
:101830003EB72F5F3F4F8B859C85AD85BE85EDB74D
:10184000FEB781839283A383B483D90114961D923A
:101850001D921D921C921797EF89F88D1996FC9393
:10186000EE9318978F8D98A14FEF5FEF6FEF7FEF9B
:101870009301EB8CFC8C0D8D1E8DAA24BB2465017D
:101880000E942E072DB73EB7265F3F4F0FB6F89444
:101890003EBF0FBE2DBF97FD49C38F8D98A14B8DC5
:1018A0005C8D6D8D7E8D9301820171010E94EF0729
:1018B000BC0197FD3BC3009709F46BC3C3010E94B1
:1018C00073058C01009709F464C3DC018C918530A9
:1018D00071F480912508909126080E942E0510939E
:1018E000260800932508B5E0B0932908D6C18630B4
:1018F00009F049C331E0309329081B861C861D86F8
:101900001E8641C3853009F04FC08EE298E00E94E8
:10191000195AE0912508F0912608E58CF68C078D80
:1019200010A10E94A7572F85388949895A89621BBF
:10193000730B840B950B6E157F058007910728F0BC
:1019400036E030932908992425C3E0912508F091C9
:101950002608E58CF68C078D10A10E94A7572F85CD
:10196000388949895A892E0D3F1D401F511F261B5A
:10197000370B480B590B283389E8380781E44807AF
:1019800080E0580720F027E339E841E450E0CA013D
:10199000B90128EE33E040E050E00E94EF71AB0166
:1019A000BC018CE298E0ECC2863009F0C0C0E09146
:1019B0002508F0912608E1A0F2A003A114A10E943D
:1019C000A7575B016C01C201B10128EE33E040E092
:1019D00050E00E9441728F859889A989BA89E80EE2
:1019E000F91E0A1F1B1FEA18FB080C091D09E21645
:1019F000F30604071507E0F4E0912508F0912608A6
:101A000021A032A043A054A00E94A7572F85388957
:101A100049895A89621B730B840B950B28EE33E0BE
:101A200040E050E00E94EF71261A370A480A590A2E
:101A3000E0912508F0912608E1A0F2A003A114A1ED
:101A40000E94A7572F85388949895A89621B730BD1
:101A5000840B950B6E157F058007910708F0B2C0C7
:101A6000E0912508F0912608A180B280C380D4803F
:101A70004DB75EB74A5050400FB6F8945EBF0FBEE8
:101A80004DBFADB7BEB71196418D528D638D748D2C
:101A9000EDB7FEB7A182B282C382D48214961D92A2
:101AA0001D921D921C9217972F89388D19963C9381
:101AB0002E9318978F8D98A19301EB8CFC8C0D8D34
:101AC0001E8D0E942E074DB75EB7465F5F4F0FB663
:101AD000F8945EBF0FBE4DBF97FD74C0892C8394F0
:101AE0008F8D98A14B8D5C8D6D8D7E8D93018201C4
:101AF00071010E94EF07BC0197FD18C2009709F41D
:101B000048C2C3010E9473058C01009709F441C2C9
:101B1000DC01FC90B5E0FB1609F4B3C036E0F31627
:101B200009F031C287E08093290888242CC28730CD
:101B300009F0C4C0E0912508F0912608E1A0F2A0C8
:101B400003A114A10E94A7572F85388949895A8972
:101B5000E20EF31E041F151FE61AF70A080B190BF5
:101B6000E214F30404051505B0F4E0912508F091A2
:101B7000260821A032A043A054A00E94A757261AED
:101B8000370A480A590A8F859889A989BA89281A73
:101B9000390A4A0A5B0AE0912508F0912608E1A07B
:101BA000F2A003A114A10E94A7572F853889498963
:101BB0005A89621B730B840B950B6E157F0580078A
:101BC000910720F087E080932908BDCE892C83946B
:101BD000E0912508F0912608A180B280C380D480CE
:101BE0004DB75EB74A5050400FB6F8945EBF0FBE77
:101BF0004DBFEDB7FEB73196ADB7BEB71196AD92FA
:101C0000BD92CD92DC9214971482158216821782AF
:101C10002F89388D318720878F8D98A14FEF5FEF07
:101C20006FEF7FEF9301EB8CFC8C0D8D1E8D0E946E
:101C30002E074DB75EB7465F5F4F0FB6F8945EBF95
:101C40000FBE4DBF97FD72C18F8D98A14B8D5C8DDE
:101C50006D8D7E8D9301820171010E94EF07BC01A1
:101C600097FD64C1009709F494C1C3010E947305F4
:101C70008C01009709F48DC1DC01FC90B5E0FB16E6
:101C8000A9F480912508909126080E942E051093B2
:101C9000260800932508F09229082B893C894D8954
:101CA0005E892F87388B498B5A8B73C136E0F316C8
:101CB00009F069C141E04093290865C1883009F005
:101CC000C8C0892C839453E0591508F42FC1A98DFD
:101CD000BA8D1B96ED90FD900D911C911E97C3013E
:101CE00068E02B8D3C8D4D8D5E8DCC24DD240E94D3
:101CF0009803F301E80FF91FE451FF4FB7E3B083F6
:101D000084519F4FF301E80FF91FDF01119623E083
:101D10002183FD01319631E011963C93218346E009
:101D20004283F9E1EF2EFFEFFF2EE80EF91EA1E549
:101D3000B9E00D900020E9F7A255B94011F10A2F42
:101D4000F301EE0DFF1DE451FF4F5CE050838CEE7C
:101D500090E0E80EF91EF301EE0DFF1D24E13FEFC8
:101D6000E20EF31EA1833296CF0141E559E0BA019C
:101D70004A2F50E00E94297410E00E5F1F4FE00EC2
:101D8000F11E80E492E09A838983F301EE0DFF1D3A
:101D9000E451FF4F99E39083ACEEB0E0EA0EFB1EF6
:101DA000F301EE0DFF1DB2E0B18389819A81082E07
:101DB000892F902D9A838983319692838183E8E1DC
:101DC000FFEFEE0EFF1E8F8D98A14F81588569851C
:101DD0007A85930187010E94FE0697FF0BC02F8131
:101DE000388549855A852F5F3F4F4F4F5F4F09F028
:101DF000D0C09CC08F8D98A14B8D5C8D6D8D7E8DDC
:101E00009301820171010E94EF07BC01009709F460
:101E1000C0C018161906A4F4C3010E9473058C01F2
:101E2000009781F0DC018C91853061F48091250868
:101E3000909126080E942E051093260800932508ED
:101E400000E010E0109229080115110509F09BC06F
:101E5000BAC9893009F07EC0E0912508F0912608C2
:101E6000309709F448C0892C8394992009F042C026
:101E7000E180F28003811481818D928DA38DB48DD8
:101E80008B839C83AD83BE83C30167E02B8D3C8D28
:101E90004D8D5E8DCC24DD240E9498038C018B81B6
:101EA0009C81AD81BE810097A105B105C1F0F30110
:101EB000E00FF11FE451FF4FB6E3B08304511F4F11
:101EC000F301E00FF11F24E021838B819C81AD8120
:101ED000BE8182839383A483B583065E10408F8D79
:101EE00098A14F81588569857A8593010E94FE06E5
:101EF00097FF0EC0982C8F819885A985BA858F5F32
:101F00009F4FAF4FBF4F09F045C01092290842C004
:101F10008F8D98A14B8D5C8D6D8D7E8D930182018F
:101F200071010E94EF07BC0197FF03C010922908BE
:101F300030C0009771F1C3010E9473058C010097B6
:101F400041F1DC018C91853011F08630E1F4109282
:101F5000290819C08823F1F480912508909126085A
:101F60000E942E0510922608109225088EE298E015
:101F70000E94195A8CE298E040E050E060E070E086
:101F80000E947B5AE0CCC8010E942E051CC99B2CE4
:101F900001C0982C892C17C98F929F92AF92BF9243
:101FA000CF92DF92EF92FF920F931F93CF93DF9325
:101FB000EC014B0159016A018091EE089091EF0804
:101FC000009731F00E94DD4C1092EF081092EE085D
:101FD0008091F0089091F108009731F00E94DD4C5B
:101FE0001092F1081092F008209739F0CE010E946B
:101FF000F34C8093EE089093EF088114910439F02C
:10200000C4010E94F34C8093F0089093F108A092D1
:10201000F208B092F308C092F408D092F508E0926A
:10202000F608F092F7080093F8081093F908DF918A
:10203000CF911F910F91FF90EF90DF90CF90BF90C5
:10204000AF909F908F900895FC0101C031968081E0
:10205000882331F0803259F08930C1F708C03196B9
:1020600080818032E1F38930D1F3CF01089511925C
:10207000F7CF609338087093390880933A089093AB
:102080003B080895609138087091390880913A08AA
:1020900090913B080895AF92BF92CF92DF92EF925A
:1020A000FF920F931F93CF93DF93EC0158016901C7
:1020B00041155105E1F000D000D000D0EDB7FEB7DA
:1020C0003196ADB7BEB712969C938E9311978AE75F
:1020D00091E093838283558344830E9401468DB7A8
:1020E0009EB706960FB6F8949EBF0FBE8DBFD7FC65
:1020F00021C0ADB7BEB718970FB6F894BEBF0FBEDC
:10210000ADBFEDB7FEB731961296DC93CE93119723
:1021100084E691E093838283A482B582C682D782CB
:102120000E9401468DB79EB708960FB6F8949EBFE1
:102130000FBE8DBF9FE1E9169BE8F90629F48BE4F9
:1021400091E0BE010E9412468EE391E0BE010E9422
:10215000124684E391E0BE010E941246DF91CF91C6
:102160001F910F91FF90EF90DF90CF90BF90AF90B5
:102170000895EF92FF920F931F93EE24FF240E9485
:102180004B101F910F91FF90EF9008950F931F93A5
:10219000FB0189019A0160E070E0AF010E94B91073
:1021A0001F910F910895EF92FF920F931F93CF937A
:1021B000DF937C01009731F1DC010D900020E9F7FD
:1021C0008D0101501040081B190BE1F0C0EFD3E066
:1021D00011C0DB010D900020E9F71197A61BB70B8A
:1021E000C8018A1B9B0B8E0D9F1D0E943974892B81
:1021F00059F02696688179816115710551F7C0EF14
:10220000D3E002C0C6EFD3E0CE01DF91CF911F91A2
:102210000F91FF90EF9008950E94D310FC018481EC
:10222000958108950E94D310FC01828193810895C5
:10223000CF93DF93EC018091FA089091FB0800970F
:1022400011F00E94DD4C2097C9F0DE010D900020B6
:10225000E9F71197AC1BBD0B89F0CD0101960E94E7
:10226000E34C9093FB088093FA08009719F42FEF42
:102270003FEF0AC0BE010E946B7404C01092FB08BD
:102280001092FA0820E030E0C901DF91CF91089563
:10229000BF92CF92DF92EF92FF920F931F93DF9343
:1022A000CF9300D00F92CDB7DEB7AC01DE0111960F
:1022B000E9EDF4E083E001900D928150E1F77A01BD
:1022C0008A016E010894C11CD11C80E2B82E20C086
:1022D0008B3219F4F701B08216C0853291F4F801FF
:1022E000818189830E5F1F4FF80180818A83C60137
:1022F00060E070E040E150E00E947E72F701608390
:1023000002C0F70180830F5F1F4F0894E11CF11C8E
:10231000F80180818823E1F6F70110820F900F9079
:102320000F90CF91DF911F910F91FF90EF90DF9071
:10233000CF90BF900895EF92FF920F931F93CF938A
:10234000DF938C01DC011A962D913C911B9721158E
:10235000310509F49CC081E090E057969C938E93E0
:102360005697F9010DC0863251F4D80156968D91D9
:102370009C915797019657969C938E9356973196BA
:102380008081882381F7F80186899789880F991FB2
:10239000880F991F0E94E34CFC01D80155969C932D
:1023A0008E935497009729F457961C921E92569735
:1023B0006EC0D8011A968D919C911B979183808352
:1023C000138212821A96CD91DC911B9722E030E0A5
:1023D0001BC08632C1F4C901880F991FF801A48976
:1023E000B5898A0F9B1F2196FC01D183C0832F5F83
:1023F0003F4FC901880F991FA80FB91F1D921C924A
:102400001A922F5F3F4F21968881882311F7EE247F
:10241000FF24C0E0D0E035C0F801A489B589FD01F2
:10242000EC0FFD1F0190F081E02D19C09F012F5F7F
:102430003F4F8D3399F4CE010296A80FB91F2D930B
:102440003C931082D8015496ED91FC915597E80F7A
:10245000F91F808191810E94481104C0F901808197
:10246000882321F7D8015496ED91FC915597EC0FF4
:10247000FD1F808191810E9448110894E11CF11C8C
:102480002496F80186899789E816F9062CF2DF91DF
:10249000CF911F910F91FF90EF900895CF92DF920F
:1024A000EF92FF920F931F93DF93CF9300D000D052
:1024B000CDB7DEB76C018A0179010E94A2522DB717
:1024C0003EB72E5030400FB6F8943EBF0FBE2DBF22
:1024D000EDB7FEB73196ADB7BEB71296DC92CE928D
:1024E000119725EF31E03383228321E030E03583FB
:1024F00024833783268311870087F386E2869587B6
:1025000084870E940146809138082DB73EB7225F2C
:102510003F4F0FB6F8943EBF0FBE2DBF80FF2BC0BC
:1025200080E090E00E94EC4969837A838B839C83EE
:10253000CE0101960E94CF470E94251800D000D0FE
:1025400000D0EDB7FEB73196ADB7BEB71296DC92AC
:10255000CE92119720E532E03383228395838483E2
:102560000E9493452DB73EB72A5F3F4F0FB6F894B0
:102570003EBF0FBE2DBF0F900F900F900F90CF91C9
:10258000DF911F910F91FF90EF90DF90CF90089512
:102590008F929F92AF92BF92CF92DF92EF92FF9273
:1025A0000F931F93CF93DF935C014B016A0181E08E
:1025B0004139580721F191E0423959074CF4A1E023
:1025C00040335A07B9F0B1E040395B0761F50DC0FF
:1025D000E1E0443F5E07E9F0F1E0453F5F07F1F0DD
:1025E00081E044395807F9F40FC00FE5E02E02E00E
:1025F000F02E1DC01BE6E12E12E0F12E18C0B8E748
:10260000EB2EB2E0FB2E13C0A5E8EA2EA2E0FA2ED4
:102610000EC0FFE8EF2EF2E0FF2E09C0EEE9EE2E2D
:10262000E2E0FE2E04C07EEAE72E72E0F72EC5013E
:10263000B401A60197010E944E1291E9C91691E0DA
:10264000D90689F5D40118960D911C911997C801E6
:102650006FE270E00E949874EC01009719F404EBAB
:1026600012E001C0188200D000D000D0EDB7FEB754
:102670003196ADB7BEB71296BC92AE9211978DE867
:1026800091E093838283158304830E940146EDB712
:10269000FEB736960FB6F894FEBF0FBEEDBF20977B
:1026A00011F08FE28883C501B40146EB52E00FEFD1
:1026B0001FEF2FEF3FEF0E94B9108DB79EB70C9719
:1026C0000FB6F8949EBF0FBE8DBFEDB7FEB7319623
:1026D000ADB7BEB71296BC92AE92119782EB91E065
:1026E00093838283D582C482F782E682D186C086B4
:1026F000F386E2860E940146EDB7FEB73C960FB620
:10270000F894FEBF0FBEEDBFDF91CF911F910F91E7
:10271000FF90EF90DF90CF90BF90AF909F908F9001
:1027200008952F923F924F925F926F927F928F9275
:102730009F92AF92BF92CF92DF92EF92FF920F9350
:102740001F93DF93CF93CDB7DEB7A5970FB6F8945D
:10275000DEBF0FBECDBF1C011DA21CA21BA21AA270
:102760008CA19DA10E94161781E090E064E270E0C8
:102770000E94C14C4C019DA38CA3009709F42FC368
:10278000EBE0F0E0DC011396FC93EE9312978AA144
:102790009BA1009711F00E94DD4C80E091E00E9427
:1027A000E34C2C019BA38AA3009709F418C360E0B3
:1027B00071E0A1010E946845892B09F410C3C20190
:1027C0006DE070E00E945774FC01009709F01082E0
:1027D000C2016AE070E00E945774FC01009709F0A2
:1027E000108280E091E00E94E34C3C01009709F4E4
:1027F000F6C2D4019296B9A3A8A3F4017096FD8FF6
:10280000EC8FC4010C969B8F8A8FD4011E96B98FD2
:10281000A88FF4017E96FF8BEE8BC4014C969D8BA6
:102820008C8BD4015296BB8BAA8BC1010E9434457C
:102830007C018D309105C9F38A30910509F45EC0A1
:10284000DD24AA24BB24CA2CFFEFEF16FFEFFF06FE
:1028500009F401C12AE0E216F10409F44CC08AE34C
:10286000E816F10471F48D2D90E0FC01EE0FFF1FCE
:10287000E80FF91FE554FB4F8081A81609F0BAC292
:1028800052C08D2D90E08C01000F111F080F191FF1
:1028900005541B4FD8018C91C81688F4C7010E94BB
:1028A000E573D8011196ED91FC911297EA0DFB1D8D
:1028B0002081332727FD30952817390721F0D3943D
:1028C000B9E0BD15F0F6C1010E9434457C018D30A0
:1028D0009105C9F3F0E1AF16B10439F00894A11CD9
:1028E000B11C29E02D1508F0AECF8FEFE8168FEF61
:1028F000F80609F4B0C0E114F104A9F4C3010E9480
:10290000DD4CC2010E9424107C010E9424108C0125
:102910000E942410C20160EC72E00E943974892B7D
:1029200009F49DC0A2C09AE3E916F10419F4A9E0E4
:10293000AD1558F4C1010E943445BFEF8F3F9B078E
:1029400009F473CF0A97B1F770CFC30160E071E06B
:10295000A1010E946845892B09F47DC0C3016AE08A
:1029600070E00E945774FC01009759F4C1010E9465
:102970003445EFEF8F3F9E0709F457CF0A97B1F721
:1029800054CF10826816790620F482918D3009F4B4
:102990001082F5E0DF1681F1FD1568F021E0D21616
:1029A000D1F0D216A8F083E0D816C1F094E0D91681
:1029B00009F03BCF1EC0A7E0DA1621F1DA16F8F0D5
:1029C000B8E0DB1641F1E9E0DE1609F02ECF26C0B3
:1029D00008A119A125C00C8D1D8D22C0C3010E9424
:1029E000AD73D40114966D937D938D939C9317973B
:1029F0001CCF0A8D1B8D14C0088D198D11C00E8936
:102A00001F890EC0C3010E941A19F401608F718FD3
:102A1000828F938F0ACF0C891D8902C00A891B8976
:102A20000115110509F401CFD8018D919C91892BD5
:102A300009F0FBCEF30101C0319680818032E1F3D1
:102A40008930D1F3CF010E94F34CF8019183808348
:102A5000009709F0EACEC3010E94DD4CC0C181E0BD
:102A600090E0D4018D939C931FC0C20164EC72E08E
:102A70000E943974892B31F483E090E0F401918352
:102A8000808312C0C20169EC72E00E943974892B04
:102A900031F4E2E0F0E0D401ED93FC9305C0C10114
:102AA000B40145EF51E00CC0D7018C91882321F08F
:102AB000F8018081882339F4C101B40140E951E073
:102AC0000E94C8128CC1C8016EEC72E00E94397479
:102AD000892B39F48AE090E0D40113969C938E936D
:102AE000129781E090E0F40191A380A3C7016FE306
:102AF00070E00E945774FC01009779F01192CF01A9
:102B00000E94F34CD4011B969C938E931A970097C6
:102B100009F465C1C4010E949B11C7010E94F34CD6
:102B2000F40191878087009709F459C10E94B01B76
:102B3000892B29F4C101B40140E951E009C0C40165
:102B40000E94FC19892B39F0C101B40141E951E01F
:102B50000E94C81239C1C101B4010E942B1B892BEC
:102B600009F032C107E415E066246A94762CEE245D
:102B7000FF2427C0D40118968D919C9119970E942B
:102B80005E177C01009729F4C101B40144EF51E0C4
:102B9000DFCF60E070E80E94D7423C01BFEF8F3F7B
:102BA0009B0751F00E94EF43611571058105910566
:102BB000C1F4C3010E94AC42C7010E94DD4C0E5F0C
:102BC0001F4FF801608171816115710599F6FFEF62
:102BD0006F16FFEF7F0629F4C101B40144E951E00B
:102BE000B7CFC7010E94D310DC0112968D919C9142
:102BF00013979F8F8E8FC7010E94D310FC014480D2
:102C000055804114510409F049C08091380881FF72
:102C100045C0C701BE016B5F7F4F0E942B41892BCE
:102C200049F48E859F85A889B98989839A83AB8366
:102C3000BC8308C087ED92E00E941A1969837A83E9
:102C40008B839C83D40158962D913D914D915C913D
:102C50005B972115310541055105B1F08E859F85A2
:102C6000A889B989281739074A075B076CF0C3019F
:102C70000E94AC42C101B40140E351E00E94C8127D
:102C8000C7010E94DD4CA0C0CE0101960E94CF4733
:102C90000E9425180E94F34C8C0102C000E010E055
:102CA000C7010E94DD4CC101B40148EC50E020EFA7
:102CB00032E00E944E1201151105F9F000D000D04B
:102CC00000D0EDB7FEB73196ADB7BEB712963C92C5
:102CD0002E92119783EF92E093838283158304836E
:102CE0000E949345ADB7BEB716960FB6F894BEBF17
:102CF0000FBEADBFC8010E94DD4CC3010E94EF436F
:102D00005B016C0141145104A9F0C101B4014E8D65
:102D10005F8D0FEF1FEF2FEF3FEF0E94B910209153
:102D2000FA083091FB08C101B301A5018401F20149
:102D3000099547C0C101B4014E8D5F8D9601850193
:102D4000EE24FF240E944B10F401808191810397AF
:102D5000C1F180E092E00E94E34C8C01009789F180
:102D6000412C82E0582E25C0F0E0AF16F2E0BF06FD
:102D7000F0E0CF06F0E0DF060CF42501C301B80156
:102D8000A2010E9436437C0118161906BCF4C80142
:102D900061E070E0A70191010E94A445892B71F0C8
:102DA000C701AA2797FDA095BA2FA81AB90ACA0A7F
:102DB000DB0AA114B104C104D104B1F6C8010E9418
:102DC000DD4CC3010E94AC42C1010E94DD43D4012D
:102DD00090968D919C919197019709F0C1CCC40177
:102DE0000E941617EAA1FBA1309739F0CF010E948B
:102DF000DD4C03C0DD24DA9496CDA5960FB6F89489
:102E0000DEBF0FBECDBFCF91DF911F910F91FF901D
:102E1000EF90DF90CF90BF90AF909F908F907F907A
:102E20006F905F904F903F902F900895CF93DF93D6
:102E3000EC01009709F43FC088859985009711F04F
:102E40000E94DD4C8A859B85009711F00E94DD4C25
:102E50008C859D85009711F00E94DD4C8E859F85A5
:102E6000009711F00E94DD4C88899989009711F034
:102E70000E94DD4C8A899B89009711F00E94DD4CED
:102E80008C899D89009711F00E94DD4C8C8D9D8D61
:102E9000009711F00E94DD4C8E8D9F8D009711F0F0
:102EA0000E94DD4C8AA19BA1009711F00E94DD4C8D
:102EB000CE010E94DD4CDF91CF910895AF92BF9279
:102EC000CF92DF92EF92FF920F931F93CF93DF93F6
:102ED0007C015B01C090FA08D090FB08C114D104BA
:102EE00021F48CEDC82E84E0D82ED7010D9000205F
:102EF000E9F78D01015010400E191F09F6010190EC
:102F00000020E9F73197EC19FD09E501099000204F
:102F1000E9F7CE0101978A199B09E00FF11F31965D
:102F20008E0F9F1F0E94E34CEC01009701F1B60148
:102F30000E946B74CE01B7010E944C74F501808130
:102F40008823A9F00115110559F060E070E0E00E4A
:102F5000F11E0894E108F108D7018C918F3211F429
:102F600061E070E06A0D7B1DCE010E944C74CE01C1
:102F7000DF91CF911F910F91FF90EF90DF90CF9055
:102F8000BF90AF900895DC01FB011182108217C041
:102F9000808191819C0153E0220F331F5A95E1F704
:102FA000880F991F280F391F318320838D9199270E
:102FB00087FD9095C097820F931F918380838C919A
:102FC00090E0C0970A9720F3CD010895CF93DF9347
:102FD000EB010E94C31728813981263431051CF486
:102FE0002C593F4F06C047E02D36340724F02C56AD
:102FF000374039832883DF91CF9108950F931F9332
:10300000CF93DF93EA0189010E94C317FC018081FD
:103010008A3399F4CF010196BE010E94C317FC01C7
:1030200080818A3331F4CF010196B8010E94C31721
:1030300007C0D8011D921C9202C019821882CF01CC
:10304000DF91CF911F910F9108950F931F93CF930D
:10305000DF939C018DB79EB742970FB6F8949EBF41
:103060000FBE8DBFADB7BEB711960CE318E0CDB75C
:10307000DEB71A8309838BE595E013969C938E93B4
:103080001297E901EC85FD85EE0FFF1FE556FA4F1B
:103090008081918115969C938E9314978E819F8148
:1030A00017969C938E931697E885F985EE0FFF1F70
:1030B000E752FA4F8081918119969C938E931897CD
:1030C0008A859B858459984F1B969C938E931A975B
:1030D0008C819D811D969C938E931C978A819B81E8
:1030E0001F969C938E931E978881998151969C93ED
:1030F0008E9350970E946346EDB7FEB772960FB657
:10310000F894FEBF0FBEEDBFC801DF91CF911F91B4
:103110000F910895CF93DF93EC01FB0188818134F7
:1031200061F421968881803711F0803519F483E0AD
:1031300090E044C087E090E041C0843419F48BE013
:1031400090E03CC0863419F481E090E037C08A34C6
:10315000B9F421968881813611F0813419F41182F5
:10316000108230C0882349F0219688818C3611F076
:103170008C3419F486E090E021C085E090E01EC018
:103180008D3481F421968881813649F42196888195
:10319000823711F0823519F482E090E00FC084E0AC
:1031A00090E00CC08E3419F48AE090E007C08F34B0
:1031B00019F489E090E002C088E090E09183808378
:1031C00001C02196888190E00E94D673892BC9F7AF
:1031D000CE01DF91CF910895EF92FF920F931F934D
:1031E000CF93DF938A0179010E94C317EC0101C0DC
:1031F00021968881882329F090E00E94D673892B3C
:10320000B9F3CE01B8010E948A18FC0101C03196C1
:103210008081882321F090E0C0970A97C0F7CF0102
:10322000B7010E94E617DF91CF911F910F91FF9098
:10323000EF900895FF920F931F93DF93CF93CDB735
:10324000DEB762970FB6F894DEBF0FBECDBF8C011C
:10325000FE01319682E1DF011D928A95E9F781E056
:1032600090E098878F8302C00F5F1F4FF801808125
:103270008032D1F38930C1F390E00E94D673892B5C
:1032800091F0F80101C031968081882331F08032BD
:1032900021F08930C1F701C0319680818032E1F39D
:1032A0008930D1F38F01D801FC908F2D90E00E94DE
:1032B000D673892B59F1C801BE01675F7F4F0E9409
:1032C0008A18FC0101C0319680818032E1F3893097
:1032D000D1F3CF01BE01695F7F4F0E94C317FC018C
:1032E00001C0319680818032E1F38930D1F3CF0182
:1032F000BE01655F7F4F0E94E617FC0101C0319659
:1033000080818032E1F38930D1F316C0FF2021F1B2
:10331000C801BE01695F7F4FAE01475F5F4F9E01ED
:10332000255F3F4F0E94EC18FC0101C0319680815F
:103330008032E1F38930D1F3CF01BE016B5F7F4F63
:10334000AE014D5F5F4F9E012F5F3F4F0E94FE1702
:103350008C0102C00F5F1F4FF80180818032D1F3D2
:103360008930C1F3C8016BE775E00E9462749C016B
:10337000CE010196232B19F40E94C44902C00E9479
:10338000BF4962960FB6F894DEBF0FBECDBFCF9196
:10339000DF911F910F91FF900895EF92FF920F938D
:1033A0001F93CF93DF938C017B01C0915C08D09178
:1033B0005D0818C00115110541F06A817B81C801C3
:1033C0000E94A3748017910751F4E114F10461F095
:1033D0006C817D81C7010E946274009729F0099079
:1033E000D881C02D209731F7CE01DF91CF911F9169
:1033F0000F91FF90EF900895CF92DF92EF92FF929E
:103400000F931F93CF93DF936C01FC01E084F18451
:10341000C7016FE270E00E949874EC01009729F4F4
:1034200081EFE82E85E0F82E01C01882C70160E028
:1034300070E00E94CD19892B01F1F60100891189F4
:1034400001151105B9F0C80163EF75E046E050E0E1
:103450000E948A74009771F4C80106960E94F73F93
:10346000F601608971896A5F7F4FC7010E94CD199B
:10347000892B19F42FEF3FEF02C020E030E02097B6
:1034800011F08FE28883C901DF91CF911F910F91D5
:10349000FF90EF90DF90CF900895CF93DF9311C00E
:1034A0008881998190935D0880935C088A819B81D3
:1034B0000E94DD4C8C819D810E94DD4CCE010E94DA
:1034C000DD4CC0915C08D0915D08209749F7DF91F1
:1034D000CF910895EF92FF920F931F93CF93DF93B5
:1034E0008C017B0186E090E00E94E34CEC010097A8
:1034F00011F180915C0890915D0899838883C801DF
:103500000E94F34C9B838A83009791F0C7010E942D
:10351000F34C9D838C83009739F0D0935D08C09362
:103520005C0820E030E009C08A819B810E94DD4C6C
:10353000CE010E94DD4C2FEF3FEFC901DF91CF910B
:103540001F910F91FF90EF900895CF92DF92EF922D
:10355000FF920F931F93CF93DF937C018B016A013E
:10356000FB01808191810197029720F0C70145EF0F
:1035700051E026C0C0915E08D0915F080EC0F801EE
:10358000608571856C0D7D1D8A819B810E943974D7
:10359000892B31F00990D881C02D209781F70CC07C
:1035A000EC81FD81C701B8010995892B59F0C7014C
:1035B000B80144EF51E004C0C701B80144E951E04B
:1035C0000E94C812DF91CF911F910F91FF90EF9051
:1035D000DF90CF900895EF92FF920F931F93CF93B8
:1035E000DF938C017B01C0915E08D0915F080AC017
:1035F0006A817B81C8010E9462740097D1F00990B2
:10360000D881C02D2097A1F71EC080915E089091AF
:103610005F0899838883C8010E94F34C8A839B8347
:10362000FD82EC82D0935F08C0935E0820E030E01A
:1036300002C02FEF3FEFC901DF91CF911F910F9192
:10364000FF90EF90089586E090E00E94E34CEC013B
:103650000097D9F6EECFCF92DF92EF92FF920F93C1
:103660001F93CF93DF936C017B0160916008709191
:1036700061086115710519F4CAEFD5E028C0EB01A6
:1036800026C0219688818B33E1F3FE0100E010E033
:1036900003C00F5F1F4F31968081882311F08B3359
:1036A000C1F70115110599F0F70180859185BE01DB
:1036B000A8010E947274892B41F4C601B701A801C8
:1036C0000E94A51A21E030E007C0C00FD11F8881F9
:1036D0008823C1F620E030E0C901DF91CF911F912E
:1036E0000F91FF90EF90DF90CF900895CF93DF93ED
:1036F000EC018091600890916108009711F00E94A0
:10370000DD4CCE010E94F34C8093600890936108D9
:10371000DF91CF910895982F80538A3038F4292F64
:10372000332727FD30952053304018C0892F81560C
:10373000863038F4292F332727FD30952755304020
:103740000DC0892F8154863018F02FEF3FEF06C04F
:10375000292F332727FD309527533040C90108957D
:103760008F929F92AF92BF92CF92DF92EF92FF9291
:103770000F931F93CF93DF937C01FC019080FFE2B6
:103780009F1619F0EE24FF2438C0EC016C012FE2E3
:10379000822E2AC08532B9F4F50181810E948B1BEB
:1037A0008C0197FD10C0239688810E948B1B97FD8A
:1037B0000AC094E0000F111F9A95E1F7800F8883EB
:1037C000882311F418C0E50188818C3509F48882BA
:1037D000892D8E52823020F488818E52823020F0E2
:1037E0009880F60191926F015E010894A11CB11CB2
:1037F0008981882379F6F6011082C701DF91CF9184
:103800001F910F91FF90EF90DF90CF90BF90AF90FE
:103810009F908F9008950F931F93CF93DF938C0108
:10382000C0916208D0916308FE011BC0808D918D0C
:103830008017910799F4828D938DA48DB58D821791
:103840009307A407B50751F4868D978D86179707C0
:1038500029F48389882311F09F0117C00190F0811A
:10386000E02D309719F70DC08B89813039F4888DA0
:10387000998D8017910711F49E0107C00990D88196
:10388000C02D209789F720E030E0C901DF91CF916A
:103890001F910F910895CF93DF93FC01EA010097E8
:1038A00009F45FC080E162307807F1F080E16330B5
:1038B000780744F46230710571F06150704109F08D
:1038C0004AC037C080E165307807C9F06650704162
:1038D00009F041C01DC04115510589F12230310563
:1038E00071F5ED5AFF4F08C04115510541F12230E5
:1038F000310529F5E85BFF4F8081918127C0411593
:103900005105E9F024303105D1F4E559FF4F08C0E5
:1039100041155105A1F02430310589F4E959FF4FD3
:1039200080819181A281B38188839983AA83BB839B
:103930000FC04115510519F02230310529F0EF591A
:10394000FF4F86E190E00BC081899289998388833B
:1039500020E030E008C0EF59FF4F8AE290E0918309
:1039600080832FEF3FEFC901DF91CF910895FC01D4
:10397000009719F426E230E004C0EF59FF4F208190
:103980003181C9010895CF93DF93DC01EA016A30E8
:10399000710561F06A30710534F06B307105B1F07A
:1039A0006C30710519F02FEF3FEF1CC0FD01E65B95
:1039B000FF4FAA5BBF4F8D919C9120813181821B6B
:1039C000930BAA2797FDA095BA2F06C01D968D913F
:1039D0009C911E97A0E0B0E088839983AA83BB8363
:1039E00020E030E0C901DF91CF9108950F931F933C
:1039F000CF93DF93EC018C01035B1F4F08C08081E4
:103A00009181D8018D939C93CF010E946E5BD80168
:103A1000ED91FC91309799F707C08081918199AF22
:103A200088AFCF010E946E5BE8ADF9AD3097A9F782
:103A300008C08081918199838883CF010E946E5B49
:103A400002C0CF5ADF4FE881F981309791F7DF91BB
:103A5000CF911F910F9108952F923F924F925F92B5
:103A60006F927F928F929F92AF92BF92CF92DF928E
:103A7000EF92FF920F931F93DF93CF9300D000D06C
:103A800000D0CDB7DEB79E838D837A8369834A01E8
:103A90000E9442562D813E81232B89F1ED81FE81CA
:103AA0008389843019F08389853019F529813A8119
:103AB000232B09F4DFC08114910409F4DDC04FE425
:103AC000A42EB12C6D817E81A60EB71E36E4C32EC6
:103AD000D12CC60ED71E2AE4E22EF12CE60EF71EDC
:103AE0008B0109591F4F1AC0ED81FE8183898430F3
:103AF00051F0EF59FF4F89E390E091838083882450
:103B00008A94982CB9C0F8014081518162817381F7
:103B1000C5010E947B5A892B09F0ACC0F601808157
:103B20009181F7012081318182179307E9F2821B8D
:103B3000930B8815990524F4009709F49BC04C0158
:103B40007901662477242D813E81235B3F4F3C839E
:103B50002B8396E4292E312C6D817E81260E371E13
:103B60008CE4482E512C460E571E3CC0EB81FC8144
:103B7000A080B180F501C188D288CE18DF08840109
:103B800006191709C016D10608F4860149815A8121
:103B9000460D571DF501278530892E0D3F1DCA01A1
:103BA000B901A8010E942974E00EF11E0C151D0533
:103BB000B8F0F50180819181EB81FC819183808354
:103BC000F101808191818E199F0991838083C501C4
:103BD0000E946E5BF201808181508083EE24FF247D
:103BE000600E711E6814790408F22D813E81265BF7
:103BF0003F4FF901F182E082EA54F040FE83ED8309
:103C000083898430C9F5EC5BFF4F40815181349644
:103C100020813181E854F040FE83ED83C401840F9C
:103C2000951F281739070CF4C9012D813E812D5AA3
:103C30003F4FF90120813181E355F040FE83ED8350
:103C40002417350778F02817390760F4EC5BFF4F2D
:103C500091838083E454F040FE83ED83CF010E9482
:103C6000592D0AC02D813E812C5B3F4FF901918374
:103C7000808302C088249924C40126960FB6F89444
:103C8000DEBF0FBECDBFCF91DF911F910F91FF908F
:103C9000EF90DF90CF90BF90AF909F908F907F90EC
:103CA0006F905F904F903F902F9008950E942C1D31
:103CB00008958F929F92AF92BF92CF92DF92EF9230
:103CC000FF920F931F93CF93DF93EC014B018A0177
:103CD0000E944256209709F458C08114910409F4B7
:103CE00057C00115110509F455C0CD5ADF4F888121
:103CF0009981C355D0408017910708F48C01FAE3ED
:103D0000AF2EB12CAC0EBD1EE3E5CE2ED12CCC0EC9
:103D1000DD1E7BE6E72EF12CEC0EFD1E8B89843038
:103D200039F0CF59DF4F89E390E0998388832DC024
:103D300049A55AA58DA19EA1481B590B9A013695FC
:103D4000279536952795F6018081918128173907A7
:103D500038F48DA99EA9841B950B8017910758F400
:103D6000F7014081518162817381C5010E947B5AB4
:103D7000892BA1F20DC088A1806188A3CE01B40176
:103D8000A8010E948A2A892B29F00FEF1FEF02C099
:103D900000E010E0C801DF91CF911F910F91FF90DB
:103DA000EF90DF90CF90BF90AF909F908F9008954D
:103DB000CF92DF92EF92FF920F931F93CF93DF93F7
:103DC0006C017B018A01C0E0D0E011C0B7016C0F2B
:103DD0007D1FA8014C1B5D0BC6010E94591E1816C1
:103DE00019061CF0CFEFDFEF05C0C80FD91FC017B1
:103DF000D10764F3CE01DF91CF911F910F91FF9016
:103E0000EF90DF90CF900895AF92BF92CF92DF9264
:103E1000EF92FF920F931F93CF93DF938C01E72FC5
:103E20006A01009709F4E6C0DC0153968C91843056
:103E300041F00F591F4F89E390E0F801918380838F
:103E4000D9C0D8011D964D915C911E97C114D10423
:103E5000C9F44115510509F4D0C01F966D917C91AC
:103E60005097C8010E94D81EF8012785308997FF16
:103E700002C0C90176C0C9010E94DD4CF801168656
:103E80001586BBC0C62FD72F5E01D80151966D9104
:103E90007C9152974115510569F5C616D70610F465
:103EA000E60113C0C6010E941A72EC017601E81AFD
:103EB000F90AC801B501A7010E94D81E97FD9AC052
:103EC000209709F49AC0AE0CBF1CF8018189928931
:103ED0000E94E34CD80150969C938E931F970097B5
:103EE00009F488C0B501AE010E942974F801C587A4
:103EF000D68783C0C601840F951FD8011F962D91C8
:103F00003C9150978617970780F4240F351FC901FD
:103F10006C2F7E2FA6010E942974F8018585968555
:103F20008C0D9D1D9687858768C07B01E41AF50A74
:103F3000240F351FC9016C2F7E2FA7010E94297401
:103F4000D8011F966D917C91509751964D915C913F
:103F50005297C8010E94D81E97FF0BC0F8018785B1
:103F600090890E94DD4CD8011E961C921E921D97CE
:103F700041C05E01AE0CBF1C96012E193F09F8012D
:103F80006189728926173707E0F0C6010E941A720C
:103F9000EC017901E81AF90AC801B501A7010E94EC
:103FA000D81E97FF0BC0D8011F968D919C915097FA
:103FB0000E94DD4CF801168615861CC0AE0CBF1C95
:103FC00001C0E901209759F0D8011F968C911F97E5
:103FD00050969C91B501AE010E94297405C0F8016C
:103FE000878590890E94DD4CD8011E96DC93CE9384
:103FF0001D9703C0CC24CA94DC2CC601DF91CF915D
:104000001F910F91FF90EF90DF90CF90BF90AF90F6
:104010000895CF92DF92EF92FF920F931F93CF9369
:10402000DF936C017B018A014115510519F4C0E051
:10403000D0E00CC08AE399E0BA010E94A752EC01DB
:10404000009721F0B701A8010E94ED73C601BE01DF
:10405000A8010E94041F182F092F209729F08AE336
:1040600099E0BE010E94FF52812F902FDF91CF91E6
:104070001F910F91FF90EF90DF90CF9008950F93D5
:104080001F938C0160E070E040E050E00E94041F4C
:10409000C8010E94BF361F910F9108950F931F937F
:1040A000CF93DF93EC018A01009709F47BC080E194
:1040B0006230780759F1E0E163307E0744F4623002
:1040C000710571F06150704109F066C04BC080E12C
:1040D0006530780761F16650704109F05DC030C00D
:1040E0004115510509F444C02230310509F040C0A2
:1040F0008B89882329F0CF59DF4F88E390E050C0A7
:10410000CD5ADF4FFA01808191810EC041155105D2
:1041100079F12230310561F5FA0180819181C85B26
:10412000DF4F9983888324979983888332C0411510
:104130005105F1F024303105D9F4C559DF4F08C0DD
:1041400041155105A9F02430310591F4C959DF4FCB
:10415000F80180819181A281B38188839983AA83A8
:10416000BB8317C04115510519F02230310529F0E4
:10417000CF59DF4F86E190E013C0CE0160E070E0E0
:1041800040E050E00E94041FF801808191819A8BE9
:10419000898B20E030E008C0CF59DF4F8AE290E001
:1041A000998388832FEF3FEFC901DF91CF911F9152
:1041B0000F910895FC01062E672F702D718F608F6F
:1041C0000E940D350895EF92FF920F931F93CF93A6
:1041D000DF93EC01D901009709F453C08B8981303A
:1041E00029F4CF59DF4F8DE290E049C08B898823B5
:1041F00029F0CF59DF4F88E390E041C0E09062089A
:10420000F090630800E010E18091030690910406AD
:104210000196909304068093030680910306909183
:104220000406892B21F41093040600930306F7017A
:104230000FC08091030690910406082E892F902DBF
:10424000208D318D28173907F9F20190F081E02D8A
:10425000309779F720C00784F089E02D8385948515
:10426000A585B6858C8B9D8BAE8BBF8BCE010E94B6
:10427000B82E9C0108C0CF59DF4F81E490E09983AC
:1042800088832FEF3FEFC901DF91CF911F910F91ED
:10429000FF90EF9008958091030690910406082EF8
:1042A000892F902D998F888F0A2EAB2FB02DBF8F1D
:1042B000AE8F4A8F5B8F6C8F7D8FCB01BA0140E050
:1042C00050E00E945324FC01009709F0C4CFD3CFE3
:1042D0000F931F93CF93DF9380916408882381F419
:1042E00086E060EC79E20E940D24892B09F05DC024
:1042F0000E94DB2C892B09F058C081E08093640870
:1043000081E090E063E770E00E94C14CEC018C0119
:10431000009709F44CC01B8A84E08C8386E59EE1FB
:104320009E838D8384E09FE198878F8389E090E26C
:104330009A87898783EC9CE19C878B870E941B5717
:1043400069A37AA38BA39CA36DA37EA38FA398A735
:1043500069A77AA78BA79CA70C5B1F4F80E99CE0FD
:10436000F801918380830C5F1F4FF8019183808354
:10437000055F1F4F28E132E0F801318320830A5F97
:104380001F4F88EE93E0F801918380830955104018
:104390008091620890916308998388833A8B298B76
:1043A000109363080093620802C000E010E0C801A7
:1043B000DF91CF911F910F910895CF93DF93EC017F
:1043C000E0916208F0916308A2E6B8E014C0EC172F
:1043D000FD0769F48881998111969C938E93CE0193
:1043E0000E94F61C8D859E85892B71F007C0DF0128
:1043F0000190F081E02D309751F70EC08F8598899C
:104400000E94DD4C1E861D8683E7FE0111928A956F
:10441000E9F7CE010E94DD4CDF91CF910895CF9353
:10442000DF93FC01EB01DA01009719F426E230E09A
:104430001FC084859585009719F420E030E018C0EE
:104440009C0182899389082E892F902D8D939C93AE
:1044500086859785A089B18988839983AA83BB8340
:1044600015861486138A128A16861786108A118A70
:10447000C901DF91CF9108959C01E091FC08F09172
:10448000FD080AC0828193818217930711F49F016E
:1044900007C00190F081E02D3097A1F720E030E0D7
:1044A000C9010895DC01FA01009791F06250704152
:1044B00079F44115510561F02230310549F48081CC
:1044C00091811B969C938E931A9720E030E002C056
:1044D0002FEF3FEFC9010895DC01FA01009791F039
:1044E0006250704179F44115510561F02230310577
:1044F00049F41A968D919C911B979183808320E0BB
:1045000030E002C02FEF3FEFC90108950F931F93D2
:10451000FC01009719F42FEF3FEF12C04687578731
:10452000608B718B338B228B1587048786819781F3
:10453000892B21F0CF0106960E94265A20E030E018
:10454000C9011F910F910895CF93DF93EC01E09182
:10455000FC08F091FD08ACEFB8E01DC0EC17FD07BA
:10456000B1F4888199818D939C9307C0808191815A
:104570009D838C83CF010E946E5BEC81FD8130971F
:10458000A9F7CE010E94DD4C20E030E008C0DF0139
:104590000190F081E02D309709F72FEF3FEFC9012F
:1045A000DF91CF9108954F925F926F927F928F9299
:1045B0009F92AF92BF92CF92DF92EF92FF920F93B2
:1045C0001F93CF93DF935C014B013A01522E432E90
:1045D000FC0184819581892B31F4C5010696B701D0
:1045E000A6010E947B5AF501C481D581209719F458
:1045F00000E010E031C088819981F50195838483C2
:10460000EF81F88584859585A685B785F40180833B
:104610009183A283B383EB85FC8580819181082EF1
:10462000892F902DF3019183808349895A894017FE
:1046300051070CF48A01F50180859185841B950B47
:10464000918780876F857889852D942DA8010E9498
:104650002974CE010E946E5BC801DF91CF911F913A
:104660000F91FF90EF90DF90CF90BF90AF909F9011
:104670008F907F906F905F904F9008956F927F9290
:104680008F929F92AF92BF92CF92DF92EF92FF9262
:104690000F931F93CF93DF934C015A016B013901A4
:1046A00080E090E060E8A7010E94425DEC01009785
:1046B00041F48CE090E0F401958784870FEF1FEFC1
:1046C00013C08F859889B801A7010E942974C4017D
:1046D000B601A50193018E010E94B1378C010097AC
:1046E00019F4CE010E946E5BC801DF91CF911F913A
:1046F0000F91FF90EF90DF90CF90BF90AF909F9081
:104700008F907F906F900895CF93DF93EC0180910D
:104710006508882369F481E167E277E30E940D244C
:10472000892B19F020E030E041C081E080936508DA
:10473000209719F57091FC086091FD08C09105065D
:10474000D0910606219611F4C0E0D0E1AE01042E0E
:10475000452F502D872F962F9C01F90108C082818B
:1047600093818417950771F30190F081E02D3097C4
:10477000B1F7C0930506D093060681E090E064E1AE
:1047800070E00E94C14CFC019C01009779F00C2E56
:10479000CD2FD02DD383C2838091FC089091FD084A
:1047A00091838083F093FD08E093FC08C901DF91B9
:1047B000CF910895DF92EF92FF920F931F93CF93C3
:1047C000DF937C018B01DB011796ED91FC9118972B
:1047D000D184C0916608D091670812C08A81D8162A
:1047E00061F4EB81FC81309741F0C701B801099574
:1047F000892B19F420E030E007C00990D881C02D42
:10480000209761F72FEF3FEFC901DF91CF911F9103
:104810000F91FF90EF90DF9008951F93CF93DF9358
:10482000182FEB01A0916608B091670808C0129696
:104830008C9112978117F9F00D90BC91A02D1097D3
:10484000B1F724C0128380916608909167080097A1
:1048500059F4B0936708A09366088AED93E29093A9
:1048600025098093240907C011969C938E93B093D9
:104870006708A09366081496DC93CE93139720E004
:1048800030E0C901DF91CF911F91089581E090E060
:1048900065E070E00E94C14CFC01DC01009791F6DC
:1048A0002FEF3FEFEECFDF92EF92FF920F931F9328
:1048B000CF93DF937B018C01EA014115510521F073
:1048C000188219821A821B822FEFE2162FEFF2064E
:1048D0002FEF02072FEF120789F0D801C701082E2A
:1048E0008B2FB02D092E9A2FA02D80709070A07064
:1048F000B07F80509040A040B04E39F4E091FE0867
:10490000F091FF083097E1F53EC0D090FE0870911D
:10491000FF0860E08D2D972F9C01F90114C086815E
:104920009781A085B1858E219F21A023B12322816B
:1049300033814481558182179307A407B50731F06D
:104940000190F081E02D309751F71DC0209761F064
:1049500082859385A485B5850097A105B10521F0D1
:1049600088839983AA83BB8386859785892B41F4A5
:10497000E284F384048515856F5F643059F603C0C3
:104980002685378502C020E030E0C901DF91CF9154
:104990001F910F91FF90EF90DF9008952F923F921B
:1049A0004F925F926F927F928F929F92AF92BF923F
:1049B000CF92DF92EF92FF920F931F93CF93DF93EB
:1049C0002B013C0149015A011601C091FE08D0910A
:1049D000FF088EEFC82E88E0D82E04C06E01099023
:1049E000D881C02D209749F08E819F81A885B985F7
:1049F00088169906AA06BB0688F380E190E00E941B
:104A0000E34CFC01009719F42FEF3FEF19C0482049
:104A100059206A207B20428253826482758286827A
:104A20009782A086B186E286F3860487158737864B
:104A30002686D183C083D6018D939C9320E030E0FD
:104A4000C901DF91CF911F910F91FF90EF90DF90FF
:104A5000CF90BF90AF909F908F907F906F905F901E
:104A60004F903F902F900895CF93DF93EC011982E0
:104A70001882E091FE08F091FF0806C00196998324
:104A800088830190F081E02D888199813097B1F77A
:104A900024E0880F991F2A95E1F70E94E34C9C01BE
:104AA0000097A1F0E091FE08F091FF080CC0E90129
:104AB000DF0180E10D9009928150E1F7205F3F4FC7
:104AC0000190F081E02D309791F702C01982188291
:104AD000C901DF91CF9108954F925F926F927F92BB
:104AE0008F929F92AF92BF92CF92DF92EF92FF92FE
:104AF0000F931F932B013C0149015A012FEF3FEF08
:104B000035C082819381A481B58184159505A60560
:104B1000B70511F586819781A085B185881599051E
:104B2000AA05BB05C9F482859385A485B5858E1534
:104B30009F05A007B10781F4868597858C159D0593
:104B400059F4808191819093FF088093FE08CF01F2
:104B50000E94DD4C20E030E0E091FE08F091FF087B
:104B6000808191819093FF088093FE08E091FE0878
:104B7000F091FF08309729F6C9011F910F91FF901E
:104B8000EF90DF90CF90BF90AF909F908F907F90ED
:104B90006F905F904F900895CF93DF93EC0117C013
:104BA000868597858C179D0711F0209751F4808199
:104BB00091819093FF088093FE08CF010E94DD4C05
:104BC00006C0808191819093FF088093FE08E09158
:104BD000FE08F091FF08309719F780E090E0DF9130
:104BE000CF910895DF93CF9300D000D0CDB7DEB73B
:104BF000FC0119821A821B821C82DE01119640E0A0
:104C0000808180538A3098F520E030E0C90163E06C
:104C1000880F991F6A95E1F7220F331F820F931FA8
:104C20002191332727FD309520533040280F391F1D
:104C3000808180333CF08A332CF42F3F310531F3EF
:104C400028F315C02F3F310509F088F44F5F2C93EE
:104C500080818E3239F0443051F429813A814B8180
:104C60005C8109C0443019F011963196C9CF2FEFFD
:104C70003FEF4FEF5FEFB901CA010F900F900F9018
:104C80000F90CF91DF910895AF92BF92CF92DF92B4
:104C9000EF92FF920F931F93DF93CF93CDB7DEB7C1
:104CA00027970FB6F894DEBF0FBECDBF6C837D8310
:104CB0008E839F83E4E0EE2EF12CEC0EFD1E0AE7BE
:104CC00018E06E010894C11CD11C5EE277E0A72EAB
:104CD000B12CAC0EBD1ED7014C9130E0842F6AE0A0
:104CE0000E940E72292F842F0E940E72482FF60107
:104CF000E30FF11D205D20833F5F882379F7932F19
:104D0000F7011082D80106C03150F601E30FF11D02
:104D100080818D933323C1F7F801E90FF11DDF0185
:104D20005D938D01EA14FB0421F00894E11CF11C51
:104D3000D2CF10828AE798E027960FB6F894DEBFAC
:104D40000FBECDBFCF91DF911F910F91FF90EF90DC
:104D5000DF90CF90BF90AF900895DF93CF93CDB702
:104D6000DEB760970FB6F894DEBF0FBECDBF9C01D3
:104D7000DE011196E7E0F6E080E101900D928150AE
:104D8000E1F7A901A8E6B8E020E030E0BE016F5FDE
:104D90007F4F9AE3FA01808182958F70FB01E80FC3
:104DA000F11D80818C93FA0180818F70FB01E80FE7
:104DB000F11D808111968C9311972530310521F0DA
:104DC00012969C93129703C012961C9212972F5F13
:104DD0003F4F4F5F5F4F139626303105D9F688E677
:104DE00098E060960FB6F894DEBF0FBECDBFCF91AE
:104DF000DF910895EF92FF920F931F93DF93CF936C
:104E000000D000D0CDB7DEB749835A836B837C8353
:104E10000E94F05A7C01009769F1DC011B968C918D
:104E20001B97833039F51F96ED91FC915097808147
:104E3000863001F55596ED91FC9156973097D1F05B
:104E4000C70168E070E1AE014F5F5F4F09958C01CB
:104E5000009791F449815A816B817C81403EB0E09A
:104E60005B07B0E06B07B1E07B0731F0C7010E9440
:104E7000203D02C00FEF1FEFC8010F900F900F9061
:104E80000F90CF91DF911F910F91FF90EF900895B8
:104E9000EF92FF920F931F93DF93CF9300D000D038
:104EA000CDB7DEB749835A836B837C830E94F05A67
:104EB0007C01009769F1DC011B968C911B97833074
:104EC00039F51F96ED91FC9150978081863001F560
:104ED0005596ED91FC9156973097D1F0C70167E058
:104EE00070E1AE014F5F5F4F09958C01009791F41F
:104EF00049815A816B817C81403EB0E05B07B0E024
:104F00006B07B1E07B0731F0C7010E94263D02C06C
:104F10000FEF1FEFC8010F900F900F900F90CF91E0
:104F2000DF911F910F91FF90EF9008952F923F9284
:104F30004F925F926F927F928F929F92AF92BF92A9
:104F4000CF92DF92EF92FF920F931F93DF93CF9355
:104F500000D000D000D0CDB7DEB71C012A013B0144
:104F600048015901C982DA82EB82FC82DC011F967A
:104F70008C911F9750969C914115510561057105C3
:104F800081F44090100950901109609012097090BE
:104F90001309411451046104710419F42FEF3FEF18
:104FA000A8C08D839E83ED81FE81438654866586ED
:104FB000768681149104A104B10431F488E196E06D
:104FC0000E94F2254B015C01AD81BE8153968D920A
:104FD0009D92AD92BC925697C501B4016421752192
:104FE00086219721A5019401EE24FF248701610108
:104FF0000E94CE2489819A81AB81BC810097A10552
:10500000B10571F060E070E080E090E020E030E019
:1050100040E050E0E980FA800B811C810E94CE24A0
:10502000A1E0B9E0F101329689E001900D92815042
:10503000E1F7AD81BE8115962C91159716968C914E
:105040001697822B17969C911797892B18969C91EF
:105050001897892B19969C911997892B1A969C91D0
:10506000892B61F020FD0AC0AAE0B9E0ED81FE8144
:10507000359686E001900D928150E1F7409210093B
:1050800050921109609212097092130980921409CA
:1050900090921509A0921609B092170989819A81F8
:1050A000AB81BC810097A105B105A1F480911809DD
:1050B00090911909A0911A09B0911B098425952591
:1050C000A625B72588219921AA21BB210097A105F2
:1050D000B10561F089819A81AB81BC818093180907
:1050E00090931909A0931A09B0931B090E947C2977
:1050F0009C01C90126960FB6F894DEBF0FBECDBF46
:10510000CF91DF911F910F91FF90EF90DF90CF90A3
:10511000BF90AF909F908F907F906F905F904F90D7
:105120003F902F9008952F923F924F925F926F92EF
:105130007F928F929F92AF92BF92CF92DF92EF9227
:10514000FF920F931F93DF93CF93CDB7DEB72897CE
:105150000FB6F894DEBF0FBECDBF6F8378871901FD
:105160002A01370148010E94F05AFC01009709F416
:1051700091C08385833009F08DC0FA83E983A785C8
:10518000B0898C91863009F040C025893689211577
:10519000310541F18E010D5F1F4FCF0164E070E1D9
:1051A000A801F9010995E981FA8125893689CF019C
:1051B00065E070E14F815885F90109958B819C81EB
:1051C000AD81BE8181608B839C83AD83BE83E98189
:1051D000FA8125893689CF0163E070E1A801F901E0
:1051E00009950AC015968F8198859C01F90186E082
:1051F00001900D928150E1F789819A81B201A1015C
:10520000940183017601650141C0873109F042C0F4
:10521000C188D288F60121A232A243A254A2E1148D
:10522000F1040105110521F466246A94762C4301EA
:10523000F60161A672A683A694A6C6010E94195A19
:10524000F601FF968081918167E171E0AE014F5FC9
:105250005F4F0E94C242C60140E65AEE60E070E035
:105260000E947B5A892BB1F4F60184AD893091F408
:1052700041A152A163A174A101A512A523A534A542
:10528000C5A0D6A0E7A0F0A489819A810E949627A4
:105290009C0102C02FEF3FEFC90128960FB6F8948A
:1052A000DEBF0FBECDBFCF91DF911F910F91FF9059
:1052B000EF90DF90CF90BF90AF909F908F907F90B6
:1052C0006F905F904F903F902F900895AF92BF9254
:1052D000CF92DF92EF92FF920F931F93AA24BB24E9
:1052E00065010E9493281F910F91FF90EF90DF902E
:1052F000CF90BF90AF90089580E28093000980E442
:1053000090E060E079E040E250E00E949D5D892BF2
:1053100019F420E030E002C02FEF3FEFC9010895FB
:10532000CF93DF93EC0180E490E060E079E040E22D
:1053300050E00E94A05D892BE9F480910009803241
:1053400051F481E099E0BE010E946274009719F463
:1053500020E030E011C0E0E0F9E080E2DF011D92E2
:105360008A95E9F7CF010A966FEF70E046E050E0CA
:105370000E9432742FEF3FEFC901DF91CF91089562
:10538000FB01A385B485109769F1828183FF2AC050
:105390001C968C911C9782958F70880F880F843192
:1053A00008F1282F30E08585968582179307D4F081
:1053B000821B930B928B818B892B71F01C968C91A5
:1053C0001C9782958F7090E0880F991F880F991F06
:1053D000A80FB91FB08BA78736872587CF010E94FA
:1053E000F82C03C0CF010E946E5B80E090E008952E
:1053F000AF92BF92CF92DF92EF92FF920F93CF9333
:10540000DF935C01FC0167817085C385D4858D8540
:1054100082FD71C0F501128A118A84E190E09687BD
:105420008587288139818A819B81998388833B8301
:105430002A838D8584FF0FC084E08D8788859985B8
:10544000AA85BB858C839D83AE83BF83188619860E
:105450001A861B8620C02C813D814E815F8181FF91
:1054600010C0022E252F502D032E342F402D2F5FDC
:105470003F4F4F4F5F4F022E252F502D032E342FBD
:10548000402D288739874A875B871C821D821E82B0
:105490001F8284E18D876B0180E58C871F861E86C5
:1054A0001B8A1A8A198A188AF501E584F6840E2C5B
:1054B000EF2CF02CFB016089718982899389248506
:1054C00035854685578506E00E948338DC01CB018F
:1054D000F50145855685BE010E947C38998B888BE5
:1054E000F601448555856685778586E095010E949D
:1054F000BB39892B19F4C5010E946E5B80E090E0F6
:10550000DF91CF910F91FF90EF90DF90CF90BF9000
:10551000AF9008956F927F928F929F92AF92BF92B9
:10552000CF92DF92EF92FF920F93DF93CF9300D051
:10553000CDB7DEB76C01F62EE72E3A0141155105C5
:1055400031F4DC0190968C918B7009F4B1C1F601B5
:1055500080A181FF02C008E101C004E180E090E089
:1055600060E4402F50E00E94425D4C01009709F436
:1055700083C1FC01A384B484D60158968D919C917B
:105580005997F501918380835E968D919C915F97E9
:1055900093838283000F000F048790963C9190972D
:1055A000232F277F90962C93909799968D919D917C
:1055B0000D90BC91A02D082E8B2FB02D092E9A2F67
:1055C000A02D84839583A683B78324FF1FC080E129
:1055D0008587377ED60190963C93E0E4F0E0CE0ECE
:1055E000DF1EF60180819181A281B38120EC3FEF23
:1055F000C20ED31E082E8B2FB02D092E9A2FA02D50
:10560000F50180879187A287B38708C0D5011D96D1
:105610001C92F5011086118612861386D60190968B
:105620002C9121FF36C0E3E5F0E0CE0EDF1ED6015F
:105630008D919C91EDEAFFEFCE0EDF1E082E892F93
:10564000902D9A838983D5011D968C911D97826038
:105650001D968C932D7FF60120A381A592A5A3A56D
:10566000B4A50196A11DB11D81A792A7A3A7B4A7B8
:1056700082E0D50154968C93549784E055968C9390
:105680005597898156968C9356978A8157968C9315
:1056900047C06114710469F1C40160E8A3010E946C
:1056A000425D4C01009729F4E1E6F0E0CE0EDF1EEA
:1056B000E7C0FC01878590896F2D7E2DA3010E9494
:1056C0002974C301A0E0B0E0F60121A532A543A5ED
:1056D00054A5280F391F4A1F5B1FD60199962D9399
:1056E0003D934D935C939C97F501858588608587F4
:1056F00017C020FF15C0D5011D968C911D978160A4
:105700001D968C932E7FF60120A381A592A5A3A5BB
:10571000B4A50196A11DB11D81A792A7A3A7B4A707
:1057200024E430E0C20ED31ED6012D913C91EFE06F
:10573000F0E0CE0EDF1ED6018D919C91EDEAFFEFD9
:10574000CE0EDF1E2817390730F4D5011F961C92A4
:105750001E921E9706C0022E232F302DF50137878B
:105760002687D50151961C921E92509753961C92F3
:105770001E925297F401E188F28885859685E80E9D
:10578000F91E0E2CEF2CF02CD60154966D917D91C4
:105790008D919C9157975A962D913D914D915C9189
:1057A0005D9706E00E948338DC01CB01F40145855A
:1057B0005685B5010E944638D4011F966D917C91A3
:1057C000509751964D915C9152970E947C38F5010B
:1057D000918B808B672839F4858590E08370907079
:1057E000892B09F453C0D4011D921C92D601D8967E
:1057F000ED91FC91D997309799F4D9969C928E921D
:10580000D8970E943B57EFE5F0E0CE0EDF1E6160B7
:10581000D6016D937C93E1EAFFEFCE0EDF1E09C047
:10582000CF010190F081E02D3097D1F7FC019182FA
:10583000808296012B5A3F4FF90180819181A2818C
:10584000B3810097A105B10581F4F50184819581AB
:10585000A681B781082E8B2FB02D092E9A2FA02D4F
:10586000F90180839183A283B383C40160E00E9425
:10587000625C7C01009759F421E630E0C20ED31E31
:1058800087E390E0D6018D939C930CC07401F601E0
:10589000428D538D648D758D86E097010E94BB39D2
:1058A000892B19F02FEF3FEF05C0C7010E946E5BF7
:1058B00020E030E0C9010F900F90CF91DF910F9160
:1058C000FF90EF90DF90CF90BF90AF909F908F9020
:1058D0007F906F900895CF93DF939C01DB011D961D
:1058E0008D919C911E974597A0F11B96ED91FC918F
:1058F0001C977496E901CD5ADF4F1AC0613019F038
:10590000623099F402C0319613C0528140E0838125
:10591000282F30E0242B352B8881998128173907CF
:1059200010F439832883349603C08181E80FF11D78
:105930006081662371F01B968D919C911C979F014D
:10594000281B390B1D968D919C911E97281739079E
:10595000ACF2DF91CF910895CF93DF93EC01CF5953
:10596000DF4F798368831A921A921A921A92CD5550
:10597000D0408B89863018F08AE08B8B01C01B8A5F
:10598000CE010E94F61CCE01815B9F4F0E94195AE6
:10599000CE01CA960E94195ACE018D599F4F0E947E
:1059A000195ACE018B599F4F0E94195A80E090E0FE
:1059B000DF91CF91089580918A0890918B08892B6F
:1059C00099F486E296E067E875E340E050E020E075
:1059D00031E00E94705E90938B0880938A08892B37
:1059E00019F42FEF3FEF02C020E030E0C901089525
:1059F000CF92DF92EF92FF920F931F93CF93DF939B
:105A00007C01FC011182108280918A0890918B08A0
:105A1000892B21F4C7010E94F82942C0C0902009B7
:105A2000D0902109C114D10429F4F0922109E09207
:105A300020092EC0F701C585D68581859285C80FBE
:105A4000D91F81899289C80FD91F00918C081091A4
:105A50008D080050184F0C0F1D1F8AE399E00E941B
:105A60007C5308171907C8F480918C0890918D0811
:105A70008C0F9D1F90938D0880938C08C601F601B2
:105A8000C080D180C114D104C9F7FC01F182E08249
:105A900082E299E00E94265A03C0C7010E946E5B11
:105AA000DF91CF911F910F91FF90EF90DF90CF90FA
:105AB0000895FC01009719F42FEF3FEF0CC080A16F
:105AC000886180A3CF0160E070E040E050E00E9478
:105AD0008A2A20E030E0C90108950F931F93CF93E5
