:100000000C9473000C94B9000C94B9000C94B900D2
:100010000C94B9000C94B9000C9465220C94B900AE
:100020000C94B9000C94B9000C94B9000C94B9006C
:100030000C94B9000C94B9000C94B9000C94B0194C
:100040000C94B9000C94B9000C94E71D0C94491E53
:100050000C94B9000C94B9000C94B9000C94B9003C
:100060000C94B9000C94B9000C94B9000C94B9002C
:100070000C94B9000C94B9000C94B9000C94B9001C
:100080000C94B9000C94B9000C94B900F923FC232A
:10009000FF2307240A240D24102413241A244524A2
:1000A0006A246F24742479247E2488248C248F2449
:1000B0009924A324F623F623F623F623C724CA247F
:1000C000CD24DE24E124EB24F623EE24F624F924C7
:1000D000012504250C250F251725F623F623F623E5
:1000E000F623A724B52480EC85BF87E089B98093E7
:1000F000990011241FBECFEFD0E1DEBFCDBF12E0CB
:10010000A0E0B1E0EEEBFCEA00E00BBF02C007901C
:100110000D92A23EB107D9F714E0A2EEB2E001C001
:100120001D92AA31B107E1F78FEF9FE79EBF8DBF08
:100130008FEF9FE78A5194408158914050F04FEFE4
:100140005EE74A51544085EC93E06AE174E00E9416
:10015000DD0F0E94D41788E391E06FEB71E040E07F
:1001600050E020E831E00E943C180E9400000C940E
:100170005D560C940000CF92DF92EF92FF920F93A6
:100180001F93CF93DF936C017B01EA0180E890E03D
:100190000E944051182F092F22C0812F902F61E01B
:1001A00070E040E850E096010E949150AC011816B2
:1001B0001906C4F48881882351F0812F902F61E0C3
:1001C00070E097010E94EC50181619065CF48881C3
:1001D000882329F0C7010E94E94F892B19F48881EF
:1001E0008823D9F61882812F902F0E943A51DF91EF
:1001F000CF911F910F91FF90EF90DF90CF900895D6
:100200008F929F92AF92BF92CF92DF92EF92FF9226
:100210000F931F93DF93CF93CDB7DEB72F970FB612
:10022000F894DEBF0FBECDBF80E895E2A0E0B0E05D
:1002300089839A83AB83BC8383E691E060E070E0BE
:1002400040E00E9497178FED91E060E073E845E091
:100250000E94971780E091E066E071E00E943350C1
:100260009E838D830E94FB4F61E071E0AE014F5F82
:100270005F4F0E943F4F8AE091E060E070E020E62F
:100280003AEE40E050E00E94D702892B61F1DE0196
:100290001A96E2E3F1E086E001900D928150E1F7D9
:1002A0009AE0892E912C8C0E9D1E8AE091E0B4017B
:1002B00020E63AEE40E050E00E94D702892B99F008
:1002C0008FE091E00E941F345B016C018FE191E0AF
:1002D0000E941F347B018C018AE091E0B401A601E9
:1002E00095010E9439388DE291E062EA71E0AE0139
:1002F0004B5F5F4F20E032E00E943C181986AA2431
:10030000A39489E0E82EF12CEC0EFD1E0E94952F9F
:100310008C0167E170E00E94072FC80166E071E080
:100320000E94924F98878F83A9866D817E81A70155
:100330000E94BB008F8198850E94544FC8010E9483
:100340006C2EE4CFEC018C010C5F1F4F8C81882355
:1003500069F080E40E9434126A817B8188819981EE
:10036000A8010E94BB0080E80E9434120E94B412CF
:10037000EDCF9091420180934201892F08950E9410
:10038000A4158DE391E060E071E040E050E020E0F2
:1003900033E00E943C188EEF0E9434120E94B41287
:1003A0000E94FC11209142012F3FC1F395B785B700
:1003B000837E822B85BF85B7806285BF889585B790
:1003C0008F7D85BF85B79C71837E982B95BFE6CFC7
:1003D0008091E70290E008958091E8029091E9020F
:1003E0001092E9021092E802089520E030E0809136
:1003F000E702853011F421E030E0C9010895DF9271
:10040000EF92FF920F931F93CF93DF93D62E790134
:100410008A010E947B17EC01009751F08B85833095
:1004200039F4EF85F889309719F08081863049F0EA
:1004300081E190E09093E9028093E8022FEF3FEF93
:1004400035C00E94C8136093F2027093F302809348
:10045000F4029093F502E092EE02F092EF02009324
:10046000F0021093F102D092E7028091E5029091A0
:10047000E602892B69F483E491E06CE777E0AE0152
:1004800020E231E00E943C189093E6028093E5025E
:100490008AEE92E00E94B1168CEE92E040E050E0CD
:1004A00060E070E00E94061720E030E0C901DF91B3
:1004B000CF911F910F91FF90EF90DF900895FC0175
:1004C0009A01AB018091E702882349F083E090E034
:1004D0009093E9028093E8022FEF3FEF05C0CF0130
:1004E00068E00E94FF019C01C9010895FC019A0186
:1004F000AB018091E702853049F083E090E0909372
:10050000E9028093E8022FEF3FEF05C0CF0169E0D9
:100510000E94FF019C01C9010895CF92DF92EF92E2
:10052000FF920F931F93CF93DF93FC0184E292E03D
:10053000DF01EC011D922197E9F781E0808381833F
:1005400086E08283EF016C96ACEFB3E00D900992E8
:100550008150E1F724833583468357830C2CCD2CBF
:10056000D02CD186C086E486F58606871787E451AD
:10057000FF4F93E69193DF0182E8819383E5119623
:100580008C93DF0111969183FD01319685E31196DD
:100590008C9381E08183628387E090E0DF91CF914B
:1005A0001F910F91FF90EF90DF90CF9008954F92A1
:1005B0005F926F927F928F929F92AF92BF92CF92F3
:1005C000DF92EF92FF920F931F93DF93CF93CDB7FC
:1005D000DEB760970FB6F894DEBF0FBECDBF4C01FB
:1005E0002B012D873E874F87588B0E947B175C011C
:1005F000009769F0FC018385833049F4C784D08873
:10060000C114D10421F0F6018081863019F081E116
:1006100090E03BC08E010F5F1F4FF80111928A9549
:10062000E9F797E0692E712C6C0E7D1EC3016FEF08
:1006300070E046E050E00E94215685E0E82EF12C63
:10064000EC0CFD1CC701B80146E050E00E940B56BF
:10065000009741F0C701B30146E050E00E940B56FD
:10066000009731F54114510449F0ACEFB3E0F201C9
:1006700086E001900D928150E1F70CC0C4010E9408
:100680006338892B39F082E090E09093E9028093FF
:10069000E802BFC0D701ECEFF3E086E001900D92D5
:1006A0008150E1F764EF71E080E090E00E94C714B0
:1006B000F60113861486158616868091060490919D
:1006C0000704A0910804B0910904838B948BA58B37
:1006D000B68B8091060490910704A0910804B09114
:1006E000090420910E0430910F04409110045091A0
:1006F000110482239323A423B5230097A105B105F8
:1007000001F1C40140EE5EE260E070E00E9476021A
:1007100020910E0430910F04409110045091110467
:10072000209302043093030440930404509305047F
:10073000E0900604F0900704009108041091090469
:1007400058C0C40161E02D853E854F8558890E94BF
:10075000FF01892B09F05DC08091E702853031F5FA
:10076000E091E302F091E40241815281638174815E
:100770000581168127813085C584D684E784F08879
:10078000C5010E946936E091E302F091E4022189FB
:10079000328943895489E588F6880789108D80E07D
:1007A00090E060E070E00E94C10E30C0F6018385E9
:1007B0009485A585B6850097A105B10539F52091E9
:1007C0000204309103044091040450910504E09028
:1007D0000604F09007040091080410910904D80160
:1007E000C70182239323A423B5230097A105B10554
:1007F00081F0A0900A04B0900B04C0900C04D0903B
:100800000D04C4016CEF73E00E94663720E030E015
:1008100002C02FEF3FEFC90160960FB6F894DEBF1C
:100820000FBECDBFCF91DF911F910F91FF90EF9041
:10083000DF90CF90BF90AF909F908F907F906F9000
:100840005F904F900895CF93DF93EC01009779F07C
:1008500089A59AA5009711F00E943A518BA59CA5F5
:10086000009711F00E943A51CE010E943A51DF9157
:10087000CF910895EF92FF920F931F93CF93DF9341
:100880008C01F62EE72EEA01DC018D919C910097F8
:1008900011F00E943A51CE0101960E944051F80198
:1008A00091838083009769F0209729F06F2D7E2D2A
:1008B000AE010E941856D801ED91FC91EC0FFD1F7E
:1008C0001082DF91CF911F910F91FF90EF900895CB
:1008D0004F925F926F927F928F929F92BF92CF9230
:1008E000DF92EF92FF920F931F93CF93DF938C01D0
:1008F0007B018DE290E00E944051EC014C01009799
:1009000009F45BC18DE2FE0111928A95E9F780EC52
:1009100098EAA0E0B0E08DA39EA3AFA3B8A7F8012A
:1009200080899189A289B38989839A83AB83BC83A7
:1009300000511F4F80E19FEFE80EF91E69E2462E3D
:10094000512C4C0E5D1E5BE2652E712C6C0E7D1ED3
:10095000E5C0332331F40F5F1F4F0894E108F1081D
:10096000DDC0F801B180CB2CDD24EC14FD040CF4C7
:10097000E3C0353341F4F1E0BF1609F0DDC0F80102
:1009800082818883C0C03C3029F4B8016E5F7F4FFC
:10099000C20106C03F3041F4B8016E5F7F4FC30112
:1009A000A6010E943A04AFC0F3E0FB1508F0ABC00B
:1009B000F8012281838190E0A0E0B0E04427582F25
:1009C000692F7A2F848190E0A0E0B0E0DC019927C4
:1009D0008827480F591F6A1F7B1F420F511D611D39
:1009E000711D858190E0A0E0B0E0B82FAA2799277B
:1009F0008827480F591F6A1F7B1F313029F44D8308
:100A00005E836F8378877FC03C3129F449875A879A
:100A10006B877C8778C0333029F44D875E876F877A
:100A2000788B71C0363009F041C0498B5A8B6B8B83
:100A30007C8BF7E0FB1508F066C0F801268130E0FA
:100A400040E050E02D8B3E8B4F8B588F878190E09C
:100A5000A0E0B0E0BA2FA92F982F8827820F931F0C
:100A6000A41FB51F8D8B9E8BAF8BB88F208530E078
:100A700040E050E0A90133272227280F391F4A1FE1
:100A80005B1F2D8B3E8B4F8B588F818590E0A0E0B4
:100A9000B0E0B82FAA2799278827280F391F4A1FA7
:100AA0005B1F2D8B3E8B4F8B588F2DC0363329F417
:100AB000498F5A8F6B8F7C8F26C03A3359F4042E9E
:100AC000472F702D052E562F602D4D8F5E8F6F8F07
:100AD00078A319C03B3359F4042E472F702D052EEF
:100AE000562F602D49A35AA36BA37CA30CC03333AC
:100AF00051F4042E472F702D052E562F602D4DA337
:100B00005EA36FA378A78B2D90E00296080F191FA4
:100B10008EEF9FEFE80EF91EEC18FD08F80130810A
:100B20003F3F09F45BC01E141F040CF412CF04C035
:100B3000853041F0863031F0CE010E9423048824B4
:100B400099243BC08D8D9E8DAF8DB8A10097A105D6
:100B5000B10561F48DA19EA1AFA1B8A5B695A795E9
:100B6000979587958D8F9E8FAF8FB8A389A19AA1F6
:100B7000ABA1BCA10097A105B105F9F48D8D9E8DA7
:100B8000AF8DB8A19C01AD01569547953795279536
:100B90007C018D0162E016950795F794E7946A95BC
:100BA000D1F72E0D3F1D401F511F280F391F4A1F1F
:100BB0005B1F29A33AA34BA35CA3C401DF91CF9190
:100BC0001F910F91FF90EF90DF90CF90BF909F907B
:100BD0008F907F906F905F904F90089588818230C2
:100BE00009F0A6CFAFCFEF92FF920F931F937C0136
:100BF000D901F901E00FF11FE451FF4F8FEF80831E
:100C0000F801E351FF4F81E0EC32F80710F4ECE219
:100C1000F1E0C70123E430E08D017F010E946B31D8
:100C200097FD03C020E030E008C083E190E090939E
:100C3000E9028093E8022FEF3FEFC9011F910F9166
:100C4000FF90EF9008952F923F924F925F926F9294
:100C50007F928F929F92AF92BF92CF92DF92EF924C
:100C6000FF920F931F93DF93CF93CDB7DEB71C0195
:100C70002A013B014901A801970186017501C401C0
:100C800063E0CD8CDE8C0E948D029C018D899E8953
:100C9000AF89B88D0097A105B105C1F0F401E20F4D
:100CA000F31FE451FF4F82E3808324513F4FF4014F
:100CB000E20FF31F84E081838D899E89AF89B88D0F
:100CC00082839383A483B583265E3040898D9A8D79
:100CD000AB8DBC8D0097A105B105C1F0F401E20F09
:100CE000F31FE451FF4F86E3808324513F4FF4010B
:100CF000E20FF31F84E08183898D9A8DAB8DBC8DCB
:100D000082839383A483B583265E3040F401E20F8F
:100D1000F31FE451FF4F87E3808324513F4FF401D9
:100D2000E20FF31F2C5E3040DF01119693E09183B8
:100D3000FD01319681E011968C93918386E0828348
:100D400075E0E72EF12CE20EF31E4CED53E0DA01D4
:100D50000D900020E9F7AD5DB3401A161B06D4F4E0
:100D60000A2FF401EE0DFF1DE451FF4F8CE080834C
:100D7000F901EF50FF4FE80DF91DA1833296CF0125
:100D8000BA014A2F50E00E94185610E00E5F1F4F24
:100D9000E00EF11EC101B301A201940187010E947E
:100DA000F305CF91DF911F910F91FF90EF90DF90AE
:100DB000CF90BF90AF909F908F907F906F905F90FB
:100DC0004F903F902F9008952F923F924F925F92B5
:100DD0006F927F928F929F92AF92BF92CF92DF924B
:100DE000EF92FF920F931F93DF93CF93CDB7DEB7B0
:100DF00060970FB6F894DEBF0FBECDBF9C878B8780
:100E00004D875E876F87788B3901470158010E94B3
:100E1000C8136F83788789879A8767017801E6E02E
:100E20002E2EEFEF3E2EEFEF4E2EEFEF5E2E280C24
:100E3000391C4A1C5B1C8B859C85BE016D5F7F4FF6
:100E4000AE014F5F5F4F930104E212E00E94003158
:100E50009C01181619064CF00097A1F184E190E06E
:100E60009093E9028093E8022DC0823F910588F0BB
:100E7000F3018081823069F484819581A681B781F4
:100E80004D855E856F85788984179507A607B70716
:100E9000C9F00E94C8132F81388549855A85621B85
:100EA000730B840B950B621573058405950518F07B
:100EB00020E030E007C075016401C61AD70AE80ACD
:100EC000F90AB9CFC90160960FB6F894DEBF0FBE1C
:100ED000CDBFCF91DF911F910F91FF90EF90DF90E9
:100EE000CF90BF90AF909F908F907F906F905F90CA
:100EF0004F903F902F900895DF93CF93CDB7DEB7FB
:100F0000A0970FB6F894DEBF0FBECDBF8C010E9434
:100F100034146B8B7C8B8D8B9E8B209102043091D3
:100F2000030440910404509105042B873C874D87AE
:100F30005E87D8011F960D90BC91A02DBA8FA98F06
:100F40001A968C9190E0A0E0B0E0BA2FA92F982FCC
:100F50008827E98DFA8D2185820F911DA11DB11D74
:100F6000BA2FA92F982F88272085820F911DA11DA8
:100F7000B11D2227382F492F5A2F8781280F311D65
:100F8000411D511D2B8F3C8F4D8F5E8F18A21F8EE0
:100F900066247724188E1F8A1F86188A198A1A8A4F
:100FA000992430EA232E3FE0332E412C512C01C0EE
:100FB000982C9920E1F0220C331C441C551C31E084
:100FC00023163AEF330630E0430630E0530630F0A4
:100FD000212C9AEF392E412C512C38C02FEF3FEFA6
:100FE0004FEF5FEF2F83388749875A8737C080914B
:100FF000E702833059F08B8D9C8DAD8DBE8D0196AF
:10100000A11DB11D8B8F9C8FAD8FBE8FE091E30230
:10101000F091E4023097A1F0218D328D438D548DF3
:101020002F83388749875A87211531054105510596
:1010300039F080EA282E8FE0382E412C512C0EC03A
:1010400000EA202E0FE0302E412C512C8FEF9FEF25
:10105000AFEFBFEF8F839887A987BA878091E702A8
:101060008823D9F18091EE029091EF02A091F002D5
:10107000B091F1020097A105B10579F10E94C81362
:101080009B01AC018091F2029091F302A091F402D5
:10109000B091F502281B390B4A0B5B0B6091EE02F5
:1010A0007091EF028091F0029091F10226173707BC
:1010B0004807590738F0A1E0B0E0B093E902A093E7
:1010C000E80218C6621B730B840B950B621573053F
:1010D0008405950510F41B012C018091E7028230F4
:1010E00021F0863011F0873041F59920F1F00E940F
:1010F00034142B893C894D895E89621B730B840BE8
:10110000950B605070408140904028F04FEF5FEFAA
:10111000588F4F8B12C00E943414DB01EB89FC897D
:10112000AE1BBF0BB88FAF8B08C00E9434146B8B03
:101130007C8B8D8B9E8B188E1F8A8091E702853069
:1011400011F08823B1F42F8D38A12115310519F044
:10115000C9010E94D1306114710419F418A21F8EC4
:101160004CC0C3010E943A5118A21F8E66247724F6
:1011700044C08091E3029091E402892B59F4E98DF7
:10118000FA8D83859485A585B6850097A105B1055F
:1011900009F0B0C52F8D38A1232B21F06114710403
:1011A00061F509C084E490E00E94B13198A38F8F6B
:1011B0006114710429F484E292E00E9440513C01E0
:1011C0004F8D58A1452B19F06114710439F482E157
:1011D00090E09093E9028093E8028CC580EC96E061
:1011E0009A8389838F8D98A162E070E1AE014F5F91
:1011F0005F4F22E030E00E947F308091E702813033
:1012000031F52B8D3C8D4D8D5E8D2F5F3F4F4F4FB8
:101210005F4F2B8F3C8F4D8F5E8F80910604909196
:101220000704A0910804B09109042B853C854D85E5
:101230005E8582239323A423B5230097A105B105DE
:1012400011F432E073C244E04093E70271C282308D
:1012500009F05AC1B92CB39453E05915C8F48091E0
:10126000E3029091E402892B61F085E08093E7022C
:101270002B893C894D895E892F87388B498B5A8B06
:101280007BC541E050E05093E9024093E8022FC152
:101290008B859C85AD85BE858B839C83AD83BE830A
:1012A000C30161E02B8D3C8D4D8D5E8DEE24FF24BE
:1012B0008701CF88D88C0E948D029C018B819C81F4
:1012C000AD81BE810097A105B105C1F0F301E20F28
:1012D000F31FE451FF4F92E3908324513F4FF301FA
:1012E000E20FF31FA4E0A1838B819C81AD81BE81BD
:1012F00082839383A483B583265E3040F301E20F9B
:10130000F31FE451FF4FB7E3B08324513F4FF30184
:10131000E20FF31F2C5E3040DF01119643E0418362
:10132000FD01319651E011965C93418386E0828302
:1013300015E0E12EF12CE20EF31EACEDB3E00D90C2
:101340000020E9F7AD5DB3401A161B06E4F40A2F3E
:10135000F301EE0DFF1DE451FF4F9CE09083F90176
:10136000EF50FF4FE60DF71DA1833296CF01ECED54
:10137000F3E0BF014A2F50E00E94185610E00E5FC4
:101380001F4FE00EF11E20E432E03A832983F3017F
:10139000EE0DFF1DE451FF4F39E330834CEE50E07A
:1013A000E40EF51EF301EE0DFF1D52E0518389811D
:1013B0009A81082E892F902D9A8389833196928362
:1013C000818388E19FEFE80EF91E8F8D98A14FEF82
:1013D0005FEF6FEF7FEF930187010E94F30597FFA7
:1013E00074C085C0E090E302F090E402C3010E9463
:1013F00068048C01009709F44EC0DC018C918230A6
:1014000009F046C0E114F10409F446C02091020439
:101410003091030440910404509105048091060426
:1014200090910704A0910804B091090482239323AA
:10143000A423B5230097A105B105A9F0F701818187
:101440009281A381B48182179307A407B50719F18C
:10145000F80181819281A381B48182179307A40747
:10146000B507C9F411C0D80195962D913D914D91C4
:101470005C919897F70185A196A1A7A1B0A58217C5
:101480009307A407B50720F4C7010E94230404C0F2
:10149000C8010E94230487011093E4020093E30231
:1014A000012B99F08091EE029091EF02A091F00251
:1014B000B091F102805E9E42A040B040D8F0B0EA08
:1014C0002B2EBFE03B2E412C512C8F8D98A14B8DA4
:1014D0005C8D6D8D7E8D9301820171010E94E40609
:1014E000BC01181619060CF47DCF009719F0109264
:1014F000E70242C48091E3029091E402892B09F44F
:101500003BC4A4E09A2E3BC4833009F06CC0892C04
:10151000839423E0291520F431E03093E7022EC4B0
:10152000E091E302F091E4024DB75EB74A505040BB
:101530000FB6F8945EBF0FBE4DBF2DB73EB72F5FFD
:101540003F4F4181528163817481ADB7BEB711961F
:101550004D935D936D937C931497818D928DA38DA4
:10156000B48DF90184839583A683B7834F89588D01
:10157000518740878F8D98A14FEF5FEF6FEF7FEF1F
:101580009301EB8CFC8C0D8D1E8DAA24BB24650170
:101590000E942306ADB7BEB71A960FB6F894BEBF29
:1015A0000FBEADBF97FDB7C38F8D98A14B8D5C8DDE
:1015B0006D8D7E8D9301820171010E94E406BC0154
:1015C00097FDA9C3009709F4D9C3C3010E94680419
:1015D0008C01009709F4D2C3FC01F080F5E0FF16FE
:1015E00009F059C243C2843009F081C0892C839428
:1015F00053E0581548F481E08093E702982C1B864D
:101600001C861D861E86BBC3ADB7BEB71A970FB624
:10161000F894BEBF0FBEADBF2DB73EB72F5F3F4F93
:101620008B859C85AD85BE85EDB7FEB781839283A2
:10163000A383B483D90114961D921D921D921C920E
:101640001797EF89F88D1996FC93EE9318978F8D65
:1016500098A14FEF5FEF6FEF7FEF9301EB8CFC8C66
:101660000D8D1E8DAA24BB2465010E9423062DB773
:101670003EB7265F3F4F0FB6F8943EBF0FBE2DBF5B
:1016800097FD49C38F8D98A14B8D5C8D6D8D7E8D9F
:101690009301820171010E94E406BC0197FD3BC3E6
:1016A000009709F46BC3C3010E9468048C01009782
:1016B00009F464C3DC018C91853071F48091E302FC
:1016C0009091E4020E9423041093E4020093E30249
:1016D000B5E0B093E702D6C1863009F049C331E0E6
:1016E0003093E7021B861C861D861E8641C385300B
:1016F00009F04FC08CEE92E00E94A416E091E30244
:10170000F091E402E58CF68C078D10A10E94341450
:101710002F85388949895A89621B730B840B950B75
:101720006E157F058007910728F036E03093E702B9
:10173000992425C3E091E302F091E402E58CF68C54
:10174000078D10A10E9434142F85388949895A8940
:101750002E0D3F1D401F511F261B370B480B590BE9
:10176000283389E8380781E4480780E0580720F0EB
:1017700027E339E841E450E0CA01B90128EE33E03B
:1017800040E050E00E948455AB01BC018AEE92E03B
:10179000ECC2863009F0C0C0E091E302F091E402AF
:1017A000E1A0F2A003A114A10E9434145B016C011A
:1017B000C201B10128EE33E040E050E00E94C35581
:1017C0008F859889A989BA89E80EF91E0A1F1B1FFF
:1017D000EA18FB080C091D09E216F30604071507B1
:1017E000E0F4E091E302F091E40221A032A043A0F2
:1017F00054A00E9434142F85388949895A89621B64
:10180000730B840B950B28EE33E040E050E00E9410
:101810008455261A370A480A590AE091E302F091E2
:10182000E402E1A0F2A003A114A10E9434142F85C8
:10183000388949895A89621B730B840B950B6E1585
:101840007F058007910708F0B2C0E091E302F091B4
:10185000E402A180B280C380D4804DB75EB74A5005
:1018600050400FB6F8945EBF0FBE4DBFADB7BEB7C8
:101870001196418D528D638D748DEDB7FEB7A182A7
:10188000B282C382D48214961D921D921D921C9224
:1018900017972F89388D19963C932E9318978F8D13
:1018A00098A19301EB8CFC8C0D8D1E8D0E9423065C
:1018B0004DB75EB7465F5F4F0FB6F8945EBF0FBE81
:1018C0004DBF97FD74C0892C83948F8D98A14B8D4B
:1018D0005C8D6D8D7E8D9301820171010E94E40605
:1018E000BC0197FD18C2009709F448C2C3010E94C9
:1018F00068048C01009709F441C2DC01FC90B5E05A
:10190000FB1609F4B3C036E0F31609F031C287E0E4
:101910008093E70288242CC2873009F0C4C0E0918C
:10192000E302F091E402E1A0F2A003A114A10E945D
:1019300034142F85388949895A89E20EF31E041F11
:10194000151FE61AF70A080B190BE214F304040535
:101950001505B0F4E091E302F091E40221A032A079
:1019600043A054A00E943414261A370A480A590A80
:101970008F859889A989BA89281A390A4A0A5B0A7F
:10198000E091E302F091E402E1A0F2A003A114A12E
:101990000E9434142F85388949895A89621B730B38
:1019A000840B950B6E157F058007910720F087E06B
:1019B0008093E702BDCE892C8394E091E302F091FD
:1019C000E402A180B280C380D4804DB75EB74A5094
:1019D00050400FB6F8945EBF0FBE4DBFEDB7FEB7D7
:1019E0003196ADB7BEB71196AD92BD92CD92DC9255
:1019F000149714821582168217822F89388D3187A9
:101A000020878F8D98A14FEF5FEF6FEF7FEF9301EE
:101A1000EB8CFC8C0D8D1E8D0E9423064DB75EB79E
:101A2000465F5F4F0FB6F8945EBF0FBE4DBF97FD88
:101A300072C18F8D98A14B8D5C8D6D8D7E8D9301C4
:101A4000820171010E94E406BC0197FD64C1009708
:101A500009F494C1C3010E9468048C01009709F441
:101A60008DC1DC01FC90B5E0FB16A9F48091E30286
:101A70009091E4020E9423041093E4020093E30295
:101A8000F092E7022B893C894D895E892F87388B3C
:101A9000498B5A8B73C136E0F31609F069C141E0F6
:101AA0004093E70265C1883009F0C8C0892C83944F
:101AB00053E0591508F42FC1A98DBA8D1B96ED90EE
:101AC000FD900D911C911E97C30168E02B8D3C8DFC
:101AD0004D8D5E8DCC24DD240E948D02F301E80F34
:101AE000F91FE451FF4FB7E3B08384519F4FF301D7
:101AF000E80FF91FDF01119623E02183FD013196E4
:101B000031E011963C93218346E04283F9E1EF2EC8
:101B1000FFEFFF2EE80EF91EACEDB3E00D900020B4
:101B2000E9F7AD5DB34011F10A2FF301EE0DFF1D92
:101B3000E451FF4F5CE050838CEE90E0E80EF91E1C
:101B4000F301EE0DFF1D24E13FEFE20EF31EA18332
:101B50003296CF014CED53E0BA014A2F50E00E947B
:101B6000185610E00E5F1F4FE00EF11E80E492E069
:101B70009A838983F301EE0DFF1DE451FF4F99E332
:101B80009083ACEEB0E0EA0EFB1EF301EE0DFF1DFC
:101B9000B2E0B18389819A81082E892F902D9A8392
:101BA0008983319692838183E8E1FFEFEE0EFF1E79
:101BB0008F8D98A14F81588569857A85930187011A
:101BC0000E94F30597FF0BC02F81388549855A8500
:101BD0002F5F3F4F4F4F5F4F09F0D0C09CC08F8D9C
:101BE00098A14B8D5C8D6D8D7E8D9301820171016D
:101BF0000E94E406BC01009709F4C0C0181619063B
:101C0000A4F4C3010E9468048C01009781F0DC01F8
:101C10008C91853061F48091E3029091E4020E94FE
:101C200023041093E4020093E30200E010E010921A
:101C3000E7020115110509F09BC0BAC9893009F006
:101C40007EC0E091E302F091E402309709F448C0CD
:101C5000892C8394992009F042C0E180F2800381AD
:101C60001481818D928DA38DB48D8B839C83AD83E4
:101C7000BE83C30167E02B8D3C8D4D8D5E8DCC24E2
:101C8000DD240E948D028C018B819C81AD81BE81FF
:101C90000097A105B105C1F0F301E00FF11FE45178
:101CA000FF4FB6E3B08304511F4FF301E00FF11F64
:101CB00024E021838B819C81AD81BE8182839383CB
:101CC000A483B583065E10408F8D98A14F815885FF
:101CD00069857A8593010E94F30597FF0EC0982CC1
:101CE0008F819885A985BA858F5F9F4FAF4FBF4F72
:101CF00009F045C01092E70242C08F8D98A14B8D2C
:101D00005C8D6D8D7E8D9301820171010E94E406D0
:101D1000BC0197FF03C01092E70230C0009771F139
:101D2000C3010E9468048C01009741F1DC018C9191
:101D3000853011F08630E1F41092E70219C0882353
:101D4000F1F48091E3029091E4020E942304109246
:101D5000E4021092E3028CEE92E00E94A4168AEE56
:101D600092E040E050E060E070E00E940617E0CCB6
:101D7000C8010E9423041CC99B2C01C0982C892CEB
:101D800017C98F929F92AF92BF92CF92DF92EF923C
:101D9000FF920F931F93CF93DF93EC014B015901F7
:101DA0006A018091B9039091BA03009731F00E94C3
:101DB0003A511092BA031092B9038091BB039091EB
:101DC000BC03009731F00E943A511092BC0310926C
:101DD000BB03209739F0CE010E9450518093B90384
:101DE0009093BA038114910439F0C4010E945051B8
:101DF0008093BB039093BC03A092BD03B092BE033B
:101E0000C092BF03D092C003E092C103F092C2031C
:101E10000093C3031093C403DF91CF911F910F91DF
:101E2000FF90EF90DF90CF90BF90AF909F908F90FA
:101E30000895CF93DF93DC016E5F7F4F64307105AF
:101E400010F464E070E06F5F7F4F6E7FED91FC9166
:101E50001197AD01A0E0B0E0C0E0D0E01BC0208150
:101E600031812617370780F0109731F08D919C91C2
:101E700011972817390740F42617370719F4DF019F
:101E8000EA010DC0DF01EA01AF014E5F5F4F028042
:101E9000F381E02D309719F79D011097F1F08D91A6
:101EA0009C911197861B970B12962D913C9113973D
:101EB0008430910568F0FD01E60FF71F9183808360
:101EC0003383228311967C936E93F983E88302C057
:101ED000398328839D012E5F3F4FC901DF91CF9148
:101EE0000895CF93DF93EC016115710519F42DEF7F
:101EF0003FEF5FC0DB011297E881F9814FC020817D
:101F00003181CF01820F931F8A179B07E9F46D91EE
:101F10007C91620F731F71836083DF01A60FB71F6F
:101F200082819381A817B90709F041C08D919C91D6
:101F30001197680F791F7183608312968D919C9120
:101F400013979383828333C0AE17BF07E0F4B9833E
:101F5000A8834D915C911197CD01840F951F8E1729
:101F60009F0761F4240F351F11963C932E938281B5
:101F7000938113969C938E93129719C01396FC939A
:101F8000EE93129714C0A817B90718F42FEF3FEF7C
:101F900010C0EF0122960280F381E02D309709F006
:101FA000AECF13961C921E921297B983A88320E09D
:101FB00030E0C901DF91CF9108956F5F7F4FFB0142
:101FC000EE7F61507040640F751F6E1B7F0B6E7F3C
:101FD00061937193BF010E94710F0895FC010190FC
:101FE000F081E02D20E030E008C0808191810297EF
:101FF000280F391F0280F381E02D3097B1F7C90116
:102000000895FC010190F081E02D20E030E009C04E
:10201000808191812817390708F49C010280F3819F
:10202000E02D3097A9F722503040C901089580E093
:1020300090E00895EF92FF920F931F93CF93DF9359
:102040008C01C091C503D091C60389E4E82E81E0DC
:10205000F82E26C08DB79EB708970FB6F8949EBF8E
:102060000FBE8DBFEDB7FEB73196ADB7BEB71296B6
:102070001C930E931197F382E282D583C4838881E7
:102080009981978386830E94DB500A80DB81C02D73
:102090008DB79EB708960FB6F8949EBF0FBE8DBF42
:1020A0002097C1F6DF91CF911F910F91FF90EF9094
:1020B0000895AF92BF92CF92DF92EF92FF920F936B
:1020C0001F93CF93DF936C017B016115710529F498
:1020D000BA010E94190F7C018FC04115510531F4DE
:1020E0000E94710F892B09F487C061C08B010250D7
:1020F00010404E5F5F4F4430510510F444E050E013
:10210000EA012196CE7FF801208131812C173D070D
:1021100008F05FC0F601A081B181560109C092E0CC
:10212000A92EB12CAA0EBB1E12960D90BC91A02D0B
:102130001097B1F1A017B10790F36AC0C801820FE0
:10214000931F8A179B0761F5CA01861B970B04979B
:10215000D0F0260F371FE80139832883FD01E60FF1
:10216000F71FE501F983E88312968D919C911397EF
:1021700093838283E881F9818D919C91861B970BD3
:102180009183808339C0420F531FF80151834083EC
:1021900012968D919C911397E501998388832CC0A9
:1021A000C601BE010E94190FEC01009719F4EE243C
:1021B000FF2422C0F8012081318122503040B70134
:1021C000A9010E941856C601B7010E94710F7E0135
:1021D00013C0C9010497C817D90770F42C1B3D0B15
:1021E000F801EC0FFD1F21933193C601BF010E943E
:1021F000710FF801D183C083C701DF91CF911F9187
:102200000F91FF90EF90DF90CF90BF90AF90089527
:10221000BE01621B730B4D915C91119746175707D6
:1022200008F08CCFBDCF0F931F93CF93DF93162F62
:10223000072F0E94190FEC01009731F060E070E069
:10224000412F502F0E942156CE01DF91CF911F9137
:102250000F910895CF93DF93DC01EB0158967C93A7
:102260006E93579715961C921E9214970FB6F8947A
:102270000F92E881F9818FEFEF3FF80761F4149630
:102280008D919C911597019615969C938E9314971A
:10229000E0E0F0E015C0309799F00F900FBE529635
:1022A0009C91529707C0EF0122960280F381E02DA6
:1022B000309719F082899817B0F70FB6F8940F92FB
:1022C0001396FC93EE931297B983A8831296ED911F
:1022D000FC911397309791F084819581892B71F04F
:1022E00014962D913C91159784819581820F931FAF
:1022F00015969C938E931497158214820F900FBE9F
:10230000DF91CF910895CF93DF93DC01EB010FB6FE
:10231000F8940F92E881F9810F900FBE8FEFEF3F95
:10232000F80799F534C0EA17FB0751F50FB6F89492
:102330000F9212968D919C9113979983888314968E
:102340008D919C911597892B81F01296ED91FC91BE
:102350001397309731F014968D919C911597958332
:10236000848315961C921E9214970F900FBE13969D
:102370001C921E92129758961C921E92579707C055
:10238000EF0122960280F381E02D309761F6DF9114
:10239000CF910895FB01168A158A82E08787CB01C9
:1023A00069EC73E00E942A1108950F931F93CF9355
:1023B000DF938C010097B1F0C091C703D091C8039F
:1023C0000CC0CE010696B8010E942856009711F461
:1023D0009E010CC00990D881C02D209791F720E074
:1023E00030E004C02091CB033091CC03C901DF91D0
:1023F000CF911F910F910895E091CD03F091CE03FD
:10240000309751F06389748985EC93E00E94710FD5
:102410001092CE031092CD030895CF93DF93C09115
:10242000C703D091C8030E94FC114091CB03509187
:10243000CC03E7ECF3E00BC028813981C417D50742
:1024400019F42083318305C0FE01C901EC012097F6
:1024500099F78091CB039091CC039093CE03809316
:10246000CD03DF91CF9108950F931F93182FE09123
:10247000CB03F091CC030289CF0169EC73E00E9499
:102480008311E091CB03F091CC03128B1F3F31F00D
:10249000CF0169EC73E00E942A1102C00E940D1264
:1024A000E091CB03F091CC038091C9039091CA03D2
:1024B000E817F90719F481E0878709C082E0878768
:1024C0000FB6F8940F920E9401180F900FBE802F44
:1024D0001F910F9108958FEF0E9434120895CF93AA
:1024E000DF93C091C703D091C80320C00FB6F89402
:1024F0000F928C819D810F900FBE892BA1F0EF89E7
:10250000F88D0FB6F8940F928C819D8101979D8371
:102510008C830F900FBE808191818F5F9F4F19F048
:10252000CF010E941C160990D881C02D2097F1F68A
:102530000E941615E091CB03F091CC038091C90362
:102540009091CA03E817F90761F08785813011F48B
:1025500082E087870FB6F8940F920E9401180F90BF
:102560000FBEDF91CF910895E091CB03F091CC03A2
:1025700082819381892B69F0CF0169EC73E00E941D
:1025800083118091CB039091CC0369EC73E00E949E
:102590002A110E946F1208958091D5039091D6035D
:1025A000A091D703B091D8030196A11DB11D8093CE
:1025B000D5039093D603A093D703B093D80308957F
:1025C0002091CF033091D0034091D1035091D20399
:1025D0000E94845528EE33E040E050E00E94C3554D
:1025E000C901DA0104C000000197A109B1090097EF
:1025F000A105B105C1F7089590E0A0E0B0E0BC01ED
:10260000CD0128EE33E040E050E00E9484550E9466
:10261000E0120895CF93DF93EC011B821A82E091C0
:10262000D303F091D40323C0288539854A855B857F
:1026300080859185A285B385281739074A075B07EE
:1026400048F4821B930BA40BB50B80879187A2875C
:10265000B3870FC0281B390B4A0B5B0B28873987C0
:102660004A875B87FB83EA830190F081E02D3097F6
:10267000D9F6F983E883309711F0D383C283EA81D6
:10268000FB81309719F0D183C08304C0D093D40369
:10269000C093D303DF91CF910895CF93DF93FC01D3
:1026A000148215821682178215861486808591857C
:1026B000A285B3850097A105B10561F1A281B3811F
:1026C00080819181109719F08D939C9304C0909311
:1026D000D4038093D303C081D1812097A1F082815C
:1026E00093819B838A8388859985AA85BB8520856C
:1026F000318542855385820F931FA41FB51F88879C
:102700009987AA87BB871086118612861386CF0108
:102710000E940A13DF91CF9108950FB6F8940F929B
:102720002091D5033091D6034091D7035091D8031F
:102730000F900FBEB901CA0108956091FA0270911D
:10274000FB028091FC029091FD02611571058105EB
:10275000910569F480E090E00E94DC189068609335
:10276000FA027093FB028093FC029093FD029B019E
:10277000AC015F77B901CA0108951092FA02109274
:10278000FB021092FC021092FD0280E090E008959E
:102790002F923F924F925F926F927F928F929F9271
:1027A000AF92BF92CF92DF92EF92FF920F931F935F
:1027B0000FB6F8940F92E090D503F090D6030091F5
:1027C000D7031091D8030F900FBE0E94E5189B010C
:1027D000AC01C801B7010E94C355522E432E342EBE
:1027E000252E0E94E5185B016C010E94E5183B0153
:1027F0004C01652D742D832D922DA60195010E940B
:102800008455E61AF70A080B190BC801B70128EE20
:1028100033E040E050E00E948455A40193010E94FF
:10282000C35579018A01652D742D832D922D28EED3
:1028300033E040E050E00E948455E60EF71E081F8A
:10284000191FB701C8011F910F91FF90EF90DF9002
:10285000CF90BF90AF909F908F907F906F905F9040
:102860004F903F902F900895EF92FF920F931F93F8
:102870000FB6F8940F92E090D503F090D603009134
:10288000D7031091D8030F900FBE0E94E5189B014B
:10289000AC01C801B7010E94C355CA01B9011F911B
:1028A0000F91FF90EF900895AF92BF92CF92DF9279
:1028B000EF92FF920F93CF93DF936B017C01EA01BC
:1028C000590185EC93E060E170E00E94190FFC0172
:1028D000009781F10FB6F8940F928091D5039091F3
:1028E000D603A091D703B091D8030F900FBE2091CB
:1028F000F6023091F7024091F8025091F902821BE2
:10290000930BA40BB50B8C0D9D1DAE1DBF1D8087B9
:102910009187A287B38700FF05C0148215821682B3
:10292000178204C0C482D582E682F782D587C48725
:10293000B786A686CF01DF91CF910F91FF90EF90E0
:10294000DF90CF90BF90AF9008950F93CF93DF9318
:102950000E945414EC01009711F00E940A13CE015A
:10296000DF91CF910F910895CF92DF92EF92FF9276
:102970000F937A0169010E94EA18A70196010E944B
:10298000A5140F91FF90EF90DF90CF900895AF9234
:10299000BF92CF92DF92EF92FF920F93CF93DF938C
:1029A0005B016C01611571058105910599F1C9EC17
:1029B000D3E08091CB039091CC03BE010E948311A0
:1029C000E090CB03F090CC0383E0F7018787C6014A
:1029D000B5014AEC51E1970101E00E94B414F701FE
:1029E000968B858B892B19F00E946F1215C0E09190
:1029F000CB03F091CC03D08FC78B8091C90390910A
:102A0000CA039383828381E08787F093CA03E093AC
:102A1000C90302C00E94B412DF91CF910F91FF90C1
:102A2000EF90DF90CF90BF90AF900895EF92FF921C
:102A30000F931F93CF93DF930FB6F8940F922091CB
:102A4000D5033091D6034091D7035091D8030F900E
:102A50000FBE8091F6029091F702A091F802B0911A
:102A6000F90279018A01E81AF90A0A0B1B0B209373
:102A7000F6023093F7024093F8025093F90251C0E6
:102A800088859985AA85BB85E816F9060A071B077C
:102A900060F48E199F09A00BB10B88879987AA87CC
:102AA000BB87EE24FF24870108C0E81AF90A0A0B45
:102AB0001B0B188619861A861B8688859985AA8518
:102AC000BB850097A105B10561F5EC85FD853097C3
:102AD00021F06E857F85CE010995E091D303F091B9
:102AE000D4030190F081E02DF093D403E093D3035D
:102AF000309711F0138212828C819D81AE81BF814B
:102B000088879987AA87BB870097A105B10531F40B
:102B100085EC93E0BE010E94710F03C0CE010E94BC
:102B20000A13C091D303D091D403209731F0E1145C
:102B3000F1040105110509F0A3CFDF91CF911F9199
:102B40000F91FF90EF900895CF92DF92EF92FF9256
:102B50000F931F938CEC92E10E94181987B7826043
:102B600087BF0FB6F8940F922091D5033091D6030A
:102B70004091D7035091D8030F900FBE0FB6F89431
:102B80000F928091D5039091D603A091D703B09175
:102B9000D8030F900FBE281739074A075B0771F358
:102BA0000FB6F8940F92E090D503F090D603009101
:102BB000D7031091D8030F900FBE2091CF0330910F
:102BC000D0034091D1035091D2030FB6F8940F92E5
:102BD0008091D5039091D603A091D703B091D803EB
:102BE0000F900FBEF901D42EC52E2F5F3F4F4F4FD0
:102BF0005F4FE816F9060A071B0739F3BF018D2D51
:102C00009C2D27E630E040E050E00E9484552AE108
:102C100030E040E050E00E94C3552093CF03309352
:102C2000D0034093D1035093D2031F910F91FF9093
:102C3000EF90DF90CF900895CF93DF93DC010FB634
:102C4000F8940F92CD91DC9111970F900FBE8FEFFA
:102C5000CF3FD80709F43AC0209771F10FB6F89426
:102C60000F92EA81FB811196FC93EE938C819D81FA
:102C7000892B71F0309729F08C819D819583848315
:102C800005C08FEF9FEF11969C938E931D821C823F
:102C90000F900FBE8D899E89009721F00E944D13E1
:102CA0001E8A1D8A82E08F87CE0169EC73E00E9444
:102CB0002A1121E030E00CC00FB6F8940F928FEF8C
:102CC0009FEF11969C938E930F900FBE20E030E003
:102CD000C901DF91CF9108950F931F93CF93DF9395
:102CE0008C010FB6F8940F92FC01808191810F90B6
:102CF0000FBEFFEF8F3F9F0749F40FB6F8940F9276
:102D0000F801118210820F900FBE02C0892B19F4B6
:102D1000C0E0D0E013C0C0E0D0E0C8010E941C16A3
:102D2000C80FD91F0FB6F8940F92F80180819181D6
:102D30000F900FBE01978E5F9F4F78F3CE01DF910A
:102D4000CF911F910F9108950F931F930E946C16BE
:102D5000182F092F0E94B412812F902F1F910F91CD
:102D600008950F931F930E941C16182F092F0E947D
:102D7000B412812F902F1F910F910895CF93DF935D
:102D8000AC01DB010FB6F8940F92CD91DC91119755
:102D90000F900FBE8FEFCF3FD80799F534C08D89C4
:102DA0009E892A813B818417950741F50FB6F894D7
:102DB0000F9211963C932E938C819D81892B81F0EB
:102DC000EA81FB81309729F08C819D8195838483F2
:102DD00005C08FEF9FEF11969C938E931D821C82EE
:102DE0000F900FBE82E08F87CE0169EC73E00E94E6
:102DF0002A118FEF9FEF9E8B8D8B05C0DE011296FF
:102E0000E901209761F6DF91CF910895CF92DF928B
:102E1000EF92FF920F931F93CF93DF938C016A0180
:102E20007B010FB6F8940F92FC01808191810F9085
:102E30000FBE8F5F9F4F59F40FB6F8940F92F801B1
:102E4000118210820F900FBE0E94B41232C0809186
:102E5000CB039091CC0369EC73E00E9483118091C5
:102E6000CB039091CC03B8010E942A11C091CB03EF
:102E7000D091CC0383E08F87C114D104E104F10425
:102E800059F0C701B6014EEB56E1980101E00E94EE
:102E9000B4149E8B8D8B02C01E8A1D8A0E946F12F5
:102EA000E091CB03F091CC03858996898F5F9F4F8A
:102EB00019F020E030E004C0168A158A2FEF3FEFAA
:102EC000C901DF91CF911F910F91FF90EF90DF909B
:102ED000CF900895FC010FB6F8940F9280819181F4
:102EE0008F5F9F4F11F4118210820F900FBECF01A0
:102EF0000E94061708950F931F93CF93DF938C01C1
:102F0000C091FE02D091FF020AC0CE010296B80124
:102F10000E942856009729F00990D881C02D20974B
:102F2000A1F7CE01DF91CF911F910F910895CF931B
:102F3000DF93EC016115710511F07D876C874111FC
:102F40004E87CE0102960E947B17892BA9F4EB894C
:102F5000FC89309721F0CE010995892B69F4809185
:102F6000FE029091FF0299838883D093FF02C09361
:102F7000FE0220E030E002C02FEF3FEFC901DF91F9
:102F8000CF91089583E18093D9038FE493E59093E3
:102F9000DB038093DA0380E090E069ED73E043E1C6
:102FA00050E00E94FF29089580E090E069ED73E011
:102FB00043E150E00E94022A892B89F48091D903D1
:102FC000833169F48AED93E061E571E042E050E01D
:102FD0000E940B56009719F420E030E008C08CEDF9
:102FE00093E064E571E00E9431562FEF3FEFC90195
:102FF00008959F918F910F900BBE0F900FBE1F9061
:1030000018952F923F924F925F926F927F928F927C
:103010009F92AF92BF92CF92DF92EF92FF920F9367
:103020001F93CF93DF938DB79EB7E091CB03F091C1
:10303000CC03918B808BE091C903F091CA03F0938C
:10304000CC03E093CB0381E08787808991898DBF92
:103050009EBFDF91CF911F910F91FF90EF90DF9076
:10306000CF90BF90AF909F908F907F906F905F9028
:103070004F903F902F900895AF92BF92CF92DF92E2
:10308000EF92FF920F931F93CF93DF93F82EE92EC9
:103090006B01B42EA52EE901B901675E7F4F85EC67
:1030A00093E00E94190FFC01009719F420E030E032
:1030B00077C0C80FD91FAE0147505040BE016B51B9
:1030C00070408E010A5F1F4F8F2D9E2D9C0188E05E
:1030D000D9010D909D01D8010D928D018150C1F74C
:1030E0001E8661507040798B688B6F5F7F4FFC8BC1
:1030F000EB8B8FEE9EEBADEABEED80839183A283D6
:10310000B38384839583A683B78380879187A287BF
:10311000B38784879587A687B78780E48A8BFA016F
:10312000D582C68280E8838312821482B182A08213
:1031300089EF97E1DB0152969C93529753968C93BB
:103140008091C7039091C80399838883D093C80363
:10315000C093C70382E08F871E8A1D8A188E1F8A3C
:10316000CE0169EC73E00E942A11E091CB03F0914B
:10317000CC03309721F40FB6F8940F925CCF809176
:10318000C9039091CA03E817F90749F082E08787DD
:103190000FB6F8940F920E9401180F900FBE9E0177
:1031A000C901DF91CF911F910F91FF90EF90DF90B8
:1031B000CF90BF90AF90089560910003709101038C
:1031C0008091020390910303089560E074E080E031
:1031D00090E00895603020E872072EE3820720E037
:1031E000920770F028EE33E040E050E00E94C355B3
:1031F0006AE0220F331F441F551F6A95D1F715C08F
:103200002AE0660F771F881F991F2A95D1F7695109
:103210007C4F8F4F9F4F28EE33E040E050E00E94FC
:10322000C355C901DA019C01AD01B901CA01089574
:10323000BC0187B78D7F87BF80B7886080BF12BE13
:1032400082E083BF80B790E087709070892BD1F7C0
:1032500081E086BF0FB6F8940F9281E090E0A0E085
:10326000B0E0B6B7B170E9F3B6BF0894811D911D07
:10327000A11DB6B7B170C9F3BB270F900FBEE7E031
:10328000880F991FAA1FBB1FEA95D1F780930003EF
:1032900090930103A0930203B093030387B78D7F3C
:1032A00087BF80B7886080BF12BE89E083BF8FE18F
:1032B00081BF80B790E087709070892BD1F782E052
:1032C00086BF8DE591E040E050E00E949A2208958B
:1032D0009C01FB0147B7427087B78D7F87BF2031C4
:1032E0003105D1F0213131053CF42115310581F052
:1032F0002130310551F40DC02231310569F12231FF
:103300003105DCF020323105D9F02FEF3FEF1EC040
:1033100040E082E086BF18C006B601FE05C081E02D
:1033200090E09183808302C0118210824423A1F037
:103330008081918180689183808320E030E008C0A3
:103340008EE090E09183808320E030E0442331F0F0
:1033500087B7826087BF02C020E030E0C9010895CE
:103360001F920F920FB60F920BB60F9211242F934C
:103370003F934F935F936F937F938F939F93AF93FD
:10338000BF93EF93FF938DE591E00E948F22FF9111
:10339000EF91BF91AF919F918F917F916F915F91CD
:1033A0004F913F912F910F900BBE0F900FBE0F903A
:1033B0001F901895FC016281738120910503422FB3
:1033C00050E0CA0180739070892B89F024FF04C0FB
:1033D00083E18CB9206403C081E18CB92F7B2093F9
:1033E0000503809105038F7C80930503089527FFD3
:1033F00002C05598089582859385892B89F182852D
:10340000938501979387828780910603882311F023
:10341000509A01C05098DB018D918CB986819781BB
:10342000A817B90711F4A481B581B383A2832285BB
:103430003385848595852817390759F5A089B18981
:103440001097A9F08FEFAF3FB80719F114968D913F
:103450009C911597019615969C938E9314970895B9
:10346000559813861286A089B189109729F48FEF99
:103470009FEF918B808B08958FEFAF3FB80749F096
:1034800014968D919C911597019615969C938E9309
:1034900014970895CF93DF93282F5BB18091040395
:1034A000582B509304036CB140910503442361F001
:1034B000633119F45598406804C0613129F4559A74
:1034C0004F77409305035DC0A22FB92F1A962D9117
:1034D0003C911B9718968D919C9119972817390745
:1034E00020F05860509304034CC0E9012196232B2F
:1034F000B9F45096ED91FC915197309739F48FEFD4
:103500009FEF51969C938E9350971FC08FEFEF3F84
:10351000F807D9F08481958101969583848315C03D
:10352000442399F01E968D919C911F97C817D90737
:1035300060F046FD0AC05D9B05C083E18CB9406424
:103540004F7D01C0406240930503ED91FC911197BE
:1035500061931196FC93EE932D913C9111971696E1
:103560008D919C9117972817390739F414968D91EE
:103570009C91159711969C938E931B96DC93CE93FA
:103580001A97DF91CF910895529B02C089E0089568
:103590008091950082FF08C08091950081FD02C056
:1035A00087E0089588E008958091950081FD02C02C
:1035B00085E0089586E008958091950085FD02C01C
:1035C00080E008958091950084FD02C082E0089516
:1035D00081E008958091950083FD02C081E0089507
:1035E00082E0089580910403682F70E0CB0124E00D
:1035F000969587952A95E1F79C0140E050E021706F
:1036000030704070507063FD226062FD24608091D4
:103610000503882321F086FD426087FD486041FF55
:10362000416043FF446080910603882321F0CA0172
:10363000B901806403C0CA01B9018068589B04C005
:103640009B01AC01406103C09B01AC014062B90128
:10365000CA010895EF92FF920F931F937B018C0193
:10366000809105038823D9F00FB6F8940F9200FFDC
:1036700002C08F7B03C001FF03C0806480930503F9
:1036800002FF04C0809105038F7705C003FF05C0CA
:10369000809105038068809305030F900FBE06FF9D
:1036A00003C081E08093060307FF02C01092060367
:1036B00004FD589A05FD5898C70181709070892BB8
:1036C00029F0809104038F7E80930403E1FE05C0FE
:1036D00080910403877F80930403E2FE05C08091FC
:1036E00004038B7F809304030E94F21A687F6E1597
:1036F0007F058007910719F420E030E002C02FEF2A
:103700003FEFC9011F910F91FF90EF9008958091B5
:10371000950086FF0BC0129B02C093E001C091E0B0
:103720008091950080FF07C0946005C0599B02C03E
:1037300090E201C090E0892F0895809105038823CD
:1037400029F420E030E040E050E004C020E230E026
:1037500040E050E0B901CA010895EF92FF920F9343
:103760001F937B018C0165FF0DC0809105038823A9
:1037700081F40FB6F8940F9281E4809305030F90C3
:103780000FBE07C00FB6F8940F92109205030F906A
:103790000FBE80910503882329F420E030E040E04B
:1037A00050E004C020E230E040E050E02E153F053C
:1037B0004007510719F420E030E002C02FEF3FEF3F
:1037C000C9011F910F91FF90EF900895559A0895A8
:1037D000909105039923A9F096FF13C00FB6F894B2
:1037E0000F925D9B04C081E18CB99F7E01C0906106
:1037F00090930503809105038F79809305030F90C3
:103800000FBE08950FB6F8940F9257985698559892
:103810000F900FBE8AE00E94FC12549853980895AE
:103820001F93182F0E94021C812F10FF15C011FF3B
:1038300002C0129A01C0129882FF04C080919500C4
:10384000816003C0809195008E7F80939500599888
:103850008091950080640DC015FF02C0599A01C087
:103860005998809195008E7F809395008091950066
:103870008F7B809395000FB6F8940F9288EB8AB9EE
:103880000F900FBE0E94871B811719F420E030E0D3
:1038900002C02FEF3FEFC9011F9108951F93182F0A
:1038A0000E94021C113021F480919500877F05C091
:1038B000123029F4809195008860809395000FB6AE
:1038C000F8940F9288EB8AB90F900FBE8091950003
:1038D00083FD02C081E001C082E0811719F420E07D
:1038E00030E002C02FEF3FEFC9011F9108951F93F1
:1038F000182F0E94021C113071F0113018F0123094
:10390000C1F40DC0809195008F7E809395008091C9
:1039100095008F7D0CC080919500806103C08091DF
:1039200095008F7E809395008091950080628093B2
:1039300095000FB6F8940F9288EB8AB90F900FBEDE
:103940000E94DC1A811719F420E030E002C02FEF4A
:103950003FEFC9011F9108951F93182F0E94021C69
:103960005298809195008D7F80939500809195006D
:103970008B7F809395001730A1F0183018F4163023
:10398000A9F405C0183041F0193081F404C08091C9
:103990009500826009C0529A809195008260809360
:1039A0009500809195008460809395000FB6F894FF
:1039B0000F9288EB8AB90F900FBE0E94C41A81172C
:1039C00019F420E030E002C02FEF3FEFC9011F9152
:1039D00008958F929F92AF92BF92CF92DF92EF9213
:1039E000FF920F931F9399B0809090008091950063
:1039F00086FF06C052E0A52EB12CC12CD12C0DC0E3
:103A0000599906C040E1A42EB12CC12CD12C05C07F
:103A100038E0A32EB12CC12CD12C0E949D137B0128
:103A20008C01892D90E0382D20E0282B392B40E0A7
:103A300050E02F5F3F4F4F4F5F4FC601B5010E94CF
:103A400084559B01AC01C801B7010E94C355CA014E
:103A5000B9011F910F91FF90EF90DF90CF90BF9031
:103A6000AF909F908F900895EF92FF920F931F93C6
:103A70007B018C010E94021C8091950086FD11C083
:103A8000599B08C0E2E0EE0CFF1C001F111FEA95D5
:103A9000D1F707C073E0EE0CFF1C001F111F7A95D1
:103AA000D1F70E949D13A80197010E94C3552F5F73
:103AB0003F4F4F4F5F4F569547953795279521506C
:103AC000304029B9309390000FB6F8940F9288EBEC
:103AD0008AB90F900FBE80E090E01F910F91FF9088
:103AE000EF90089589E292E060E070E040E050E0FD
:103AF0000E949A228FE292E060E070E040E050E0A5
:103B00000E949A2280E090E0089589E292E06AE4BF
:103B10007AE148EA51E00E949A22892BA9F48FE2C7
:103B200092E06AED79E146E951E00E949A22892B00
:103B300019F420E030E00AC089E292E060E070E031
:103B400040E050E00E949A222FEF3FEFC901089514
:103B5000FB014AB14078579880319105B9F0813125
:103B600091052CF4009771F0019749F40CC0823153
:103B7000910549F182319105CCF08097D1F02FEF7A
:103B80003FEF1DC040E08CB18CB117C05F9B05C0FA
:103B900081E090E09183808302C0118210824423EF
:103BA00091F08081918180689183808320E030E072
:103BB00008C080E190E09183808320E030E04423DE
:103BC00021F0579A02C020E030E0C90108951F9209
:103BD0000F920FB60F920BB60F9211242F933F93B3
:103BE0004F935F936F937F938F939F93AF93BF9305
:103BF000EF93FF9389E292E00E948F22FF91EF9171
:103C0000BF91AF919F918F917F916F915F914F91F4
:103C10003F912F910F900BBE0F900FBE0F901F90F2
:103C20001895FB014AB1407255988131910501F117
:103C3000823191052CF4009741F1409731F408C08E
:103C40008231910511F18097B1F02FEF3FEF19C04C
:103C50005D9B05C081E090E09183808302C011826A
:103C60001082442391F080819181806891838083C8
:103C700020E030E008C080E190E09183808320E084
:103C800030E0442321F0559A02C020E030E0C90121
:103C900008951F920F920FB60F920BB60F92112438
:103CA0002F933F934F935F936F937F938F939F9344
:103CB000AF93BF93EF93FF938FE292E00E948F2226
:103CC000FF91EF91BF91AF919F918F917F916F91F4
:103CD0005F914F913F912F910F900BBE0F900FBEB0
:103CE0000F901F90189500000000000000000000D9
:103CF00000000000000000000000000000000000C4
:103D0000000000000000089582E28093008390E0AC
:103D10008091078386FD03C09F5F9531C9F780E4DA
:103D2000809307830895582F6115710589F06150BC
:103D30007040472F6F5F7F4F9C01F901650F8191A4
:103D4000809310836E17D9F7442311F04150F7CFB9
:103D50000895CF93DF93FC01C189D2898A859B8521
:103D6000AC85BD850196A11DB11D8A879B87AC8757
:103D7000BD878091078380930783282F84FF3FC0EE
:103D80008091008382FDFCCF8091008391E6909327
:103D900000832091078391E29093008310920A831D
:103DA00010920B8382FD02C090E006C080910783D1
:103DB00090E08A7009F491E082E080930D8382E2C2
:103DC00080930083822F8150863408F48FE580939E
:103DD000038310920D83992319F086E28093008368
:103DE00080E1809307838E859F85A889B989019694
:103DF000A11DB11D8E879F87A88BB98B50C083FFF3
:103E00000BC08AA19BA1ACA1BDA10196A11DB11DB2
:103E10008AA39BA3ACA3BDA320FF15C08881998171
:103E2000892B29F48FEF9FEF998388830CC08881B9
:103E300099818F5F9F4F39F0E881F9818481958165
:103E400001969583848322FF2AC020910D838A895D
:103E50009B89AC89BD89820F911DA11DB11D8A8BE3
:103E60009B8BAC8BBD8B20910E838E899F89A88DF7
:103E7000B98D820F911DA11DB11D8E8B9F8BA88FB7
:103E8000B98F20910F838A8D9B8DAC8DBD8D820F54
:103E9000911DA11DB11D8A8F9B8FAC8FBD8FDF91AE
:103EA000CF910895EF92FF920F931F93F82EE92E72
:103EB00000E010911F8385E00E94FC1210931F8385
:103EC00010E082E30E94FC128091078387FF08C004
:103ED00080910A83803521F480910B83803749F0EB
:103EE0001F5F143171F70F5F043119F72FEF3FEFA8
:103EF00061C010920F830FEF0093078381EE8093D0
:103F0000008380EC8093018310E21093058310936B
:103F10000683109201838FEF0E94FC1281E280934E
:103F2000008388E480930E8310920A8310920B839F
:103F300010930C8382E080930D8380E4809304834C
:103F40008FE58093038386E48093018380E68093EA
:103F500002830093078381E6809300832F2D3E2DFB
:103F6000C901DC01E1E0F3E88D91819383E8E7305A
:103F7000F807D1F7E8E0F3E8119283E8E031F807B9
:103F8000D9F786E48093078381E28093008384E0FD
:103F900080930C838FEF809307838DE180930F8351
:103FA00082E28093008310920D838FEF0E94FC12B7
:103FB00020E030E0C9011F910F91FF90EF9008952C
:103FC000EF92FF920F931F93CF93DF93EC018091B9
:103FD000F203882321F4CE0102960E9463380F85F4
:103FE000188985E0E82EF12CE00EF11ED701ECEFE8
:103FF000F3E086E001900D928150E1F7E989FA89BA
:1040000086E2DF011D928A95E9F785E392E062ED91
:1040100070E2AE0120E832E00E943C1864EF71E0EB
:1040200080E090E00E94C7148AE392E069EA7EE1B2
:10403000AE010E949A22892BA9F489B78F7D89BF8E
:10404000F80186819581892B9781892B29F0C701F9
:104050000E94521F892B31F489B7806289BF20E00A
:1040600030E002C02FEF3FEFC901DF91CF911F91E8
:104070000F91FF90EF900895BF92CF92DF92EF9251
:10408000FF920F931F93CF93DF93FC018B01C188A5
:10409000B288FB01C185D28585819681C80FD91F61
:1040A00085859685C80FD91F81899289C80FD91F28
:1040B000F5E0CB3EDF0718F02FEF3FEF68C0CC33C1
:1040C000D10510F0FF2408C09CE3F92EFC1ACCE3C4
:1040D000D0E002C00E94B4128091008382FDFACF2A
:1040E00089B78F7D89BFDC2EC0930A83ED2ED093D4
:1040F0000B831092088380E48093098382E180938C
:104100000083F80165817681838194810E94931EEA
:10411000F80161857285878190850E94931EF80160
:1041200065857685838594850E94931EF801618953
:104130007289878590890E94931E80E090E02F2DE0
:1041400030E003C010921083019682179307D0F3DA
:104150000C2D1B2D0E94841ED0920583E0920683B5
:1041600080E48093048386E28093008389B7806231
:1041700089BFF80186819781A085B1850196A11D2F
:10418000B11D86839783A087B18720E030E0C90105
:10419000DF91CF911F910F91FF90EF90DF90CF9023
:1041A000BF900895DF93CF9300D000D000D0CDB75B
:1041B000DEB73C01DC011F968D909C905097519684
:1041C0004D905C90529789E00E943412F4018681F0
:1041D00095818923978189238F3FF1F406C06DE78C
:1041E00070E080E090E00E94C714D40116968C9194
:1041F000169715969C911597892317969C9189235C
:104200008F3F69F389B78F7D89BFC40105960E94EE
:10421000521F89B7806289BF35E0232E312C280CCC
:10422000391CFE013596FE83ED83C20140E050E06B
:1042300060E070E00E94061789B78F7D89BFF2E6C3
:10424000F09300830E94731E8091078322E22093E3
:104250000083C0900383C3949FE59C1510F426E46B
:10426000C22EC81621F489B7806289BFDECFA4E0D0
:10427000A0930A8310920B8310920883C092098343
:10428000BAE0B09300830E94731EFE0131968091C4
:10429000108381938D819E81E817F907C1F70E94F1
:1042A000841EAB80BC8080E0A11081E0D82EDB0CA6
:1042B000DC0C9FE59D1510F4A6EEDA0E8A81D81667
:1042C00061F0D394BFE5BD1510F4E6EEDE0ED8160E
:1042D00021F089B7806289BF4FC0C50180549040EA
:1042E0008F5A9540C0F589818E70A9F585010450DB
:1042F000104080E090E060E1A8010E94A4297C01C8
:10430000009759F100930A8310930B8324E02093C4
:104310000883C09209838AE0809300830E94731E01
:10432000D70113968C91139714969C91012B81F0D1
:10433000FC01C5010597292F982F01C0915080914C
:10434000108381939923D1F7222311F02150F6CFC6
:104350000E94841E02C0EE24FF248D2D81508634DD
:1043600008F48FE58093038389B7806289BFBFEF2C
:10437000EB16BFEFFB0681F4C1010E94521FF20150
:10438000868D978DA0A1B1A10196A11DB11D868F2B
:10439000978FA0A3B1A350CFE114F10409F445CF46
:1043A000F20182819381A481B5810196A11DB11D85
:1043B00082839383A483B583D4015F96ED91FC91AE
:1043C0009097C301B701099537CF9C01FB0149B70D
:1043D000407289B78F7D89BF21313105C9F1223102
:1043E00031054CF421303105F9F020313105F9F077
:1043F000232BA1F05EC02831310569F12931310547
:104400002CF42231310509F054C05BC0293131054B
:1044100041F12032310509F04CC046C08AB78B7F8C
:104420008ABF8AB7877F8ABF80E288BF34C008B658
:1044300005FE05C081E090E09183808302C0118277
:1044400010824423F1F1808191818068918380837F
:1044500020E030E032C00AB603FC26C081E090E0E4
:1044600025C0608171816130710519F48AB78B7F35
:1044700005C06730710531F48AB784608ABF8AB796
:10448000877F08C06530710549F48AB78B7F8ABF82
:104490008AB788608ABF20E030E00DC066307105C1
:1044A00041F48AB78460F3CF85E090E09183808304
:1044B000F2CF2FEF3FEF442331F089B7806289BFFD
:1044C00002C020E030E0C90108951F920F920FB69C
:1044D0000F920BB60F9211242F933F934F935F933C
:1044E0006F937F938F939F93AF93BF93EF93FF93BC
:1044F0008AE392E00E948F22FF91EF91BF91AF91EA
:104500009F918F917F916F915F914F913F912F91EB
:104510000F900BBE0F900FBE0F901F901895DC01EF
:104520001296ED91FC911397309719F08D919C9113
:1045300009950895EF92FF920F931F93CF93DF9306
:10454000EC017B018A01EC81FD81309719F420E0B8
:1045500030E006C080E090E060E070E009959C01EA
:1045600019830883FB82EA82C901DF91CF911F91F1
:104570000F91FF90EF900895DC011496ED91FC915E
:104580001597309719F42FEF3FEF06C081E190E0C7
:1045900060E070E009959C01C9010895DC01149662
:1045A000ED91FC911597309719F42FEF3FEF06C06E
:1045B00082E190E060E070E009959C01C9010895F6
:1045C0000F931F93DF93CF9300D000D0CDB7DEB70A
:1045D0008C017C836B83DC011496ED91FC91159723
:1045E000309719F42FEF3FEF19C080E290E0BE0141
:1045F0006F5F7F4F09959C01009781F4D801149655
:10460000ED91FC91159781E290E0BE016D5F7F4FC7
:1046100009959C01009711F429813A81C9010F90F5
:104620000F900F900F90CF91DF911F910F910895F0
:104630000F931F93DF93CF9300D000D0CDB7DEB799
:104640008C017C836B83DC011496ED91FC911597B2
:10465000309719F42FEF3FEF1DC088E190E0BE01C5
:104660006F5F7F4F09959C010097A1F48B819C811E
:10467000892B71F0D8011496ED91FC91159789E181
:1046800090E0BE016D5F7F4F09959C01009711F48A
:1046900029813A81C9010F900F900F900F90CF910F
:1046A000DF911F910F9108950F931F93CF93DF9385
:1046B000FC01C189D289EDA9FEA909958C01009759
:1046C00049F4CF5BDF4FE881F98160E072EC81E073
:1046D00090E00995C801DF91CF911F910F91089546
:1046E000DC011296ED91FC9113970188F289E02D7F
:1046F0000FB6F8940F9284A595A50F900FBEBC013C
:1047000080E090E00895CF92DF92EF92FF920F93B6
:104710001F93CF93DF93EC018B017A0169018C81A8
:104720009D81288539850FB6F8940F9219861886D1
:104730000F900FBE2617370789F0232B21F0009723
:1047400011F00E943A510115110511F1C8010E94A2
:104750004051009731F42FEF3FEF1CC061157105F8
:10476000B9F09D838C83998388839B838A83800F90
:10477000911F9F838E83FD86EC86DF86CE861B8607
:104780001A860FB6F8940F92198708870F900FBEFC
:1047900020E030E0C901DF91CF911F910F91FF9090
:1047A000EF90DF90CF900895CF92DF92EF92FF923B
:1047B0000F931F93CF93DF93FB016A01DA01ED9012
:1047C000FD900D911C912E2DDC015196CD91DC9127
:1047D0005297E150F140ED32F10540F4EA5BFF4FB2
:1047E000EE0FFF1F0590F491E02D09940FEF1FEFDE
:1047F00029C1CF5BDF4F43C0CD5BDF4F91C0CB5BA7
:10480000DF4FE881F981822F09958C011BC1C95BBB
:10481000DF4F0BC0C75BDF4FF4CFC55BDF4F05C079
:10482000C35BDF4FEECFC15BDF4FE881F9810995B4
:1048300090E0FFC0E6FE0DC06AA57BA54EA55FA572
:1048400028A939A9CE0182960E948323EBADFCAD45
:104850000995E7FE0AC0688D798D4C8D5D8D2E8D92
:104860003F8DCE0140960E948323CF5ADF4F8FE3C6
:104870009FEFAFEFBFEFE822F9220A231B23E88165
:10488000F981C801B7010995C0CFCD5ADF4FE88142
:10489000F981C355D04009959B01AC01D6016D93B8
:1048A0007D938D939C9313978CA59DA5892B31F4B3
:1048B0002064F60120833183428353838A8D9B8D4C
:1048C000892B09F0BDC0F60180819181A281B3815D
:1048D0008068B2C0E886F9860A871B87B1C08885E0
:1048E0009985AA85BB85A7C0EC86FD860E871F87A4
:1048F000A7C08C859D85AE85BF859DC08881998127
:10490000AA81BB81EE2011F080642AC08F7B28C071
:10491000888186FF35C02FC0EDADFEADB2CFEF96DA
:10492000E881F9810995F60160837183828393831D
:1049300087C088819981AA81BB81EE2011F08068AF
:104940000FC08F770DC0888187FF1AC014C088817F
:104950009981AA81BB81EE2011F0946001C09B7FF8
:1049600088839983AA83BB836BC088819981AA813C
:10497000BB8192FF05C081E090E0A0E0B0E05BC0A9
:10498000D6011D921D921D921C92139759C0CB5AAD
:10499000DF4F37CFC95ADF4F48CF4C8D5D8D2E8DFD
:1049A0003F8DCE014096B7010E9483238C01009772
:1049B00009F048C0EBADFCAD099544C0888D998DD8
:1049C00038C04EA55FA528A939A9CE018296B701A6
:1049D0000E9483231ACF8AA59BA52BC00FB6F894FB
:1049E0000F92FD8EEC8E0F900FBE2AC08C8D9D8D88
:1049F00020C00FB6F8940F92FF8EEE8E0F900FBE70
:104A00001FC08E8D9F8D15C00FB6F8940F92FFA614
:104A1000EEA60F900FBE14C08EA59FA50AC00FB6BC
:104A2000F8940F92F9AAE8AA0F900FBE09C088A9BE
:104A300099A9A0E0B0E0F60180839183A283B383BB
:104A400000E010E0C801DF91CF911F910F91FF901E
:104A5000EF90DF90CF900895AF92BF92CF92DF9208
:104A6000EF92FF920F931F93CF93DF935C017A0134
:104A7000FC01C189D28983E0C82ED12CC422D52261
:104A8000C114D10481F0CE01409660E470E048E2A8
:104A900050E028E330E00E948323892BA1F4F1E069
:104AA000CF16D10499F0CE01829660E071E040ED1E
:104AB00050E020EF30E00E948323892B39F08C896D
:104AC0009D890E943A510FEF1FEF30C086E090E0C1
:104AD0000E944051FC018C01009739F48C899D891A
:104AE0000E943A518EA19FA1ECCF80E090ECE82289
:104AF000F92288819981AA81BB8120E0E21620E811
:104B0000F20611F48F7701C0806888839983AA83A5
:104B1000BB8311821082B382A2821582148281E04B
:104B2000C816D10419F0EBADFCAD0995C801DF91B1
:104B3000CF911F910F91FF90EF90DF90CF90BF909A
:104B4000AF9008950F931F93CF93DF93EC01EA8109
:104B5000FB812189328901978E5F9F4F18F02FEFDB
:104B60003FEF2AC089010F5A1F4FD801ED91FC91E8
:104B70000155104060E072E080E090E00995CE01C0
:104B80000E943A51C801409660E070E040E050E079
:104B900020E030E00E948323C801829660E070E04C
:104BA00040E050E020E030E00E948323C801C2963C
:104BB0000E94A41620E030E0C901DF91CF911F913F
:104BC0000F910895CF92DF92EF92FF920F931F9370
:104BD000CF93DF93EC016A010FB6F8940F928A8DA0
:104BE0009B8D860F971F9B8F8A8F0A8D1B8D0F9031
:104BF0000FBE90E2E92EF12CEC0EFD1E13C0E9ADC4
:104C0000FAAD09954C855D856E857F85C7010E944B
:104C10000617892B51F40FB6F8940F920A8D1B8D4D
:104C20000F900FBEC016D10650F3C801DF91CF918F
:104C30001F910F91FF90EF90DF90CF9008958F928A
:104C40009F92AF92BF92CF92DF92EF92FF920F931B
:104C50001F93DF93CF9300D0CDB7DEB78B015A01FE
:104C60006901DC0151968D909C905297F401808DE2
:104C7000918D892B19F40FEF1FEFABC061157105F2
:104C800049F4C40160E070E040E050E00E94E22599
:104C90008C019FC0F40180819181A281B3819C012C
:104CA000AD0169E056954795379527956A95D1F7F7
:104CB000F22FF170FA8327E0B695A795979587951F
:104CC0002A95D1F7282F217029830FB6F8940F92D7
:104CD000D4015A964D915C915B970F900FBE78016D
:104CE00000E010E060E070E05BC09B01240F351F26
:104CF000F401868D978D2817390788F0448D558DDE
:104D0000C4010E94E225AC01D4015C968D919C9176
:104D10005D978417950708F45CC060E070E0C114EB
:104D2000D10419F0F701849102C0D7018C91B981A7
:104D3000B13069F48A3081F4EA81E13021F4F2E0A3
:104D4000FA83F98302C022E029838DE00AC09981A9
:104D5000923011F4A1E0A9830894E11CF11C0F5FCB
:104D60001F4FD4015096ED91FC915197819351962C
:104D7000FC93EE93509750962D913C9151975696F7
:104D80008D919C9157972817390741F454968D912E
:104D90009C91559751969C938E9350976F5F7F4F40
:104DA0000A151B050CF4A1CF6115710591F00FB622
:104DB000F8940F92F401828D938D680F791F738F91
:104DC000628F0F900FBED401D996ED91FC91DA97C6
:104DD0000995C8010F900F90CF91DF911F910F910E
:104DE000FF90EF90DF90CF90BF90AF909F908F900B
:104DF0000895FC018281938121E030E00E941F260A
:104E00000895FC018281938120E030E00E941F26FA
:104E10000895AF92BF92CF92DF92EF92FF920F93DD
:104E20001F93CF93DF936B015A01DC011296ED9132
:104E3000FC911397C189D2896AA57BA5611571057B
:104E400009F4A0C0C114D10461F44EA55FA528A93E
:104E500039A9CE0182960E948323EBADFCAD099562
:104E600019C08E010E5C1F4F0FB6F8940F92ECA480
:104E7000FDA40F900FBEE114F104A1F4EBADFCAD65
:104E80000995488559856A857B85C8010E94061762
:104E9000892B19F020E030E077C08AA59BA5892BEB
:104EA00019F770C0D601888187FF30C000E010E09C
:104EB00040E050E07AE026C04E155F0508F048C09B
:104EC000ECA1FDA16191FDA3ECA32CA13DA188A5BE
:104ED00099A52817390721F48EA19FA19DA38CA322
:104EE0006D3011F06A3041F48CA9882311F08617D7
:104EF00039F46CAB7D9302C01CAA6D930F5F1F4FFA
:104F00004F5F5F4F0A151B05B8F222C08501EA14F6
:104F1000FB0408F4870140E050E016C0ECA1FDA1BD
:104F2000D601A40FB51F81918C93FDA3ECA32CA1F6
:104F30003DA188A599A52817390721F48EA19FA125
:104F40009DA38CA34F5F5F4F4017510738F3A80113
:104F500041155105A9F00FB6F8940F928CA59DA5A7
:104F6000841B950B9DA78CA70F900FBE2CA53DA56C
:104F70008EA59FA52817390718F4EBADFCAD099550
:104F8000980102C02FEF3FEFC901DF91CF911F9130
:104F90000F91FF90EF90DF90CF90BF90AF9008956A
:104FA000CF93DF93EC012A81422F50E0CA01877032
:104FB0009070892B19F021502A832EC024FF06C03F
:104FC0006B817C8185EC93E00E94710F8A8185FF63
:104FD00006C06F81788585EC93E00E94710F8A810D
:104FE00086FF06C06B857C8585EC93E00E94710F7F
:104FF0008A8187FF06C06F85788985EC93E00E94DF
:10500000710F8B899C89009711F00E94D02785EC45
:1050100093E0BE010E94710FDF91CF9108950F932D
:105020001F93CF93DF938C01EB0185EC93E00E94FB
:10503000190FF80191838083892B19F42FEF3FEF2B
:1050400005C0F801D383C28320E030E0C901DF91BD
:10505000CF911F910F9108956F927F928F929F929F
:10506000AF92BF92CF92DF92EF92FF920F931F9376
:10507000DF93CF9300D000D0CDB7DEB76C013B01FA
:10508000CE0101960E940F28892B19F088249924BB
:1050900067C089819A815C01D6011F966C911F9728
:1050A00050967C91509751964D915C9152970E94E9
:1050B0001856F601818992899C838B83E080F18068
:1050C0008824992423C0D7011C9111960C91119723
:1050D0002A0D3B1D1F966C911F9750967C91C9011C
:1050E000AF010E9418568B819C81F701218932897A
:1050F000820F931F9C838B83C7010E94D027089443
:10510000811C911C212F302FC9017C01E114F10475
:1051100069F02B813C81D7015196ED91FC9152971A
:10512000CF01820F931F681679066CF6F601F182A3
:10513000E082828187FF07C06785708985EC93E0F4
:105140000E94710F04C08068D60112968C938981E9
:105150009A81F601908B87878B819C81928B818BC2
:10516000C4010F900F900F900F90CF91DF911F917E
:105170000F91FF90EF90DF90CF90BF90AF909F90F6
:105180008F907F906F9008958F929F92AF92BF9271
:10519000CF92DF92EF92FF920F931F93CF93DF9303
:1051A0008C01A62EFC0182818770873011F480EF7C
:1051B000A82E85EC93E065E170E00E941311EC01EC
:1051C0004C01009709F4AEC0F801E580F680E114C7
:1051D000F10411F4BB241FC0A4FE14C00396B70150
:1051E0000E940F286C01009759F4F80163817481C3
:1051F0008B819C81A7010E9418568A8180618A83D5
:10520000BB240BC0F801838194819C838B83FE8235
:10521000ED82BB24B394CC24DD24F801E184F28434
:10522000E114F10411F1C114D104F9F4A5FE14C084
:10523000CE010796B7010E940F286C010097A9F4D0
:10524000F801678170858F819885A7010E941856A3
:105250008A8180628A8309C0F80187819085988756
:105260008F83FA86E986BB24B394F801E584F6843B
:10527000E114F10411F1C114D104F9F4A6FE14C033
:10528000CE010B96B7010E940F286C010097A9F47C
:10529000F801638574858B859C85A7010E9418564B
:1052A0008A8180648A8309C0F801838594859C87FC
:1052B0008B87FE86ED86BB24B394F801E188F288E3
:1052C000E114F104F9F0CD28F9F4A7FE13C0CE01E2
:1052D0000F96B7010E940F28892BB1F4F80167855A
:1052E00070898F859889A7010E9418568A818068E5
:1052F0008A8310C0F80187859089988B8F87FA8AF6
:10530000E98A0AC0CD2831F0CE010E94D027882436
:10531000992408C0BB2031F01C8B0B8BF8018281D3
:105320008F5F8283C401DF91CF911F910F91FF9016
:10533000EF90DF90CF90BF90AF909F908F900895A7
:1053400060EF0E94C4280895DF92EF92FF920F93BE
:105350001F93CF93DF938C01D62E7A01009749F4E7
:1053600085EC93E065E170E00E9413118C010097D9
:10537000E9F180E2D81649F0E0E4DE1649F0F0E108
:10538000DF1649F4E801239608C0E801279605C016
:10539000E8012B9602C0E8012F96F80182818D2149
:1053A00079F08A819B818E159F053CF46881798113
:1053B00085EC93E00E94710F03C0FB82EA8202C079
:1053C0001B821A828A819B81892B81F4CE01B701CD
:1053D0000E940F28892B31F0C8010E94D02700E0DD
:1053E00010E004C0F80182818D298283C801DF9119
:1053F000CF911F910F91FF90EF90DF9008950E9441
:10540000052A08950E94302A0895CF92DF92EF92E4
:10541000FF920F931F93CF93DF938C016B017A015F
:10542000C0E0D0E00FC0C8010E944856F601EC0F62
:10543000FD1F6081861719F0C8010E945056219601
:105440000F5F1F4FCE15DF0570F380E090E0DF9116
:10545000CF911F910F91FF90EF90DF90CF90089523
:105460009C01CB01B9010E94385680E090E008957C
:105470000F931F93CF93DF938C01C0912D03D09195
:105480002E03FE011BC0808D918D8017910799F42A
:10549000828D938DA48DB58D82179307A407B507D0
:1054A00051F4868D978D8617970729F48389882371
:1054B00011F09F0117C00190F081E02D309719F78E
:1054C0000DC08B89813039F4888D998D80179107B3
:1054D00011F49E0107C00990D881C02D209789F74B
:1054E00020E030E0C901DF91CF911F910F91089525
:1054F000CF93DF93FC01EA01009709F45FC080E1DC
:1055000062307807F1F080E16330780744F462306C
:10551000710571F06150704109F04AC037C080E1F7
:1055200065307807C9F06650704109F041C01DC070
:105530004115510589F12230310571F5ED5AFF4FC2
:1055400008C04115510541F12230310529F5E85BCC
:10555000FF4F8081918127C041155105E9F024302A
:105560003105D1F4E559FF4F08C041155105A1F0AF
:105570002430310589F4E959FF4F80819181A2815E
:10558000B38188839983AA83BB830FC041155105DA
:1055900019F02230310529F0EF59FF4F86E190E0F4
:1055A0000BC0818992899983888320E030E008C00C
:1055B000EF59FF4F8AE290E0918380832FEF3FEF16
:1055C000C901DF91CF910895FC01009719F426E2FB
:1055D00030E004C0EF59FF4F20813181C9010895A7
:1055E000CF93DF93DC01EA016A30710561F06A3024
:1055F000710534F06B307105B1F06C30710519F044
:105600002FEF3FEF1CC0FD01E65BFF4FAA5BBF4FD2
:105610008D919C9120813181821B930BAA2797FD4C
:10562000A095BA2F06C01D968D919C911E97A0E063
:10563000B0E088839983AA83BB8320E030E0C9016E
:10564000DF91CF9108950F931F93CF93DF93EC01D8
:105650008C01035B1F4F08C080819181D8018D931D
:105660009C93CF010E94D027D801ED91FC913097F7
:1056700099F707C08081918199AF88AFCF010E94CF
:10568000D027E8ADF9AD3097A9F708C080819181A6
:1056900099838883CF010E94D02702C0CF5ADF4F61
:1056A000E881F981309791F7DF91CF911F910F91A8
:1056B00008952F923F924F925F926F927F928F92B6
:1056C0009F92AF92BF92CF92DF92EF92FF920F9391
:1056D0001F93DF93CF9300D000D000D0CDB7DEB7BB
:1056E0009E838D837A8369834A010E94B4122D813F
:1056F0003E81232B89F1ED81FE818389843019F06D
:105700008389853019F529813A81232B09F4DFC07B
:105710008114910409F4DDC04FE4A42EB12C6D81F5
:105720007E81A60EB71E36E4C32ED12CC60ED71E20
:105730002AE4E22EF12CE60EF71E8B0109591F4FC9
:105740001AC0ED81FE818389843051F0EF59FF4FFB
:1057500089E390E09183808388248A94982CB9C04F
:10576000F8014081518162817381C5010E94061751
:10577000892B09F0ACC0F60180819181F70120816D
:10578000318182179307E9F2821B930B88159905E3
:1057900024F4009709F49BC04C0179016624772416
:1057A0002D813E81235B3F4F3C832B8396E4292E42
:1057B000312C6D817E81260E371E8CE4482E512CB3
:1057C000460E571E3CC0EB81FC81A080B180F501E4
:1057D000C188D288CE18DF08840106191709C016BF
:1057E000D10608F4860149815A81460D571DF501FD
:1057F000278530892E0D3F1DCA01B901A8010E94DD
:105800001856E00EF11E0C151D05B8F0F50180814B
:105810009181EB81FC8191838083F1018081918171
:105820008E199F0991838083C5010E94D027F201C0
:10583000808181508083EE24FF24600E711E6814E5
:10584000790408F22D813E81265B3F4FF901F182F8
:10585000E082EA54F040FE83ED8383898430C9F509
:10586000EC5BFF4F40815181349620813181E854B7
:10587000F040FE83ED83C401840F951F281739077C
:105880000CF4C9012D813E812D5A3F4FF901208131
:105890003181E355F040FE83ED832417350778F01E
:1058A0002817390760F4EC5BFF4F91838083E45441
:1058B000F040FE83ED83CF010E942C3C0AC02D8175
:1058C0003E812C5B3F4FF9019183808302C0882485
:1058D0009924C40126960FB6F894DEBF0FBECDBF43
:1058E000CF91DF911F910F91FF90EF90DF90CF90BC
:1058F000BF90AF909F908F907F906F905F904F90F0
:105900003F902F9008950E94592B08958F929F9257
:10591000AF92BF92CF92DF92EF92FF920F931F93BD
:10592000CF93DF93EC014B018A010E94B4122097C0
:1059300009F458C08114910409F457C001151105E8
:1059400009F455C0CD5ADF4F88819981C355D040A5
:105950008017910708F48C01FAE3AF2EB12CAC0E3E
:10596000BD1EE3E5CE2ED12CCC0EDD1E7BE6E72E50
:10597000F12CEC0EFD1E8B89843039F0CF59DF4FAE
:1059800089E390E0998388832DC049A55AA58DA10C
:105990009EA1481B590B9A01369527953695279558
:1059A000F601808191812817390738F48DA99EA9C5
:1059B000841B950B8017910758F4F70140815181A2
:1059C00062817381C5010E940617892BA1F20DC067
:1059D00088A1806188A3CE01B401A8010E945D392D
:1059E000892B29F00FEF1FEF02C000E010E0C80183
:1059F000DF91CF911F910F91FF90EF90DF90CF90AB
:105A0000BF90AF909F908F900895CF92DF92EF92CA
:105A1000FF920F931F93CF93DF936C017B018A0159
:105A2000C0E0D0E011C0B7016C0F7D1FA8014C1B76
:105A30005D0BC6010E94862C181619061CF0CFEFCC
:105A4000DFEF05C0C80FD91FC017D10764F3CE011F
:105A5000DF91CF911F910F91FF90EF90DF90CF904A
:105A60000895AF92BF92CF92DF92EF92FF920F9381
:105A70001F93CF93DF938C01E72F6A01009709F4FE
:105A8000E6C0DC0153968C91843041F00F591F4FD2
:105A900089E390E0F80191838083D9C0D8011D96F5
:105AA0004D915C911E97C114D104C9F44115510563
:105AB00009F4D0C01F966D917C915097C8010E9447
:105AC000052DF8012785308997FF02C0C90176C0EE
:105AD000C9010E943A51F80116861586BBC0C62F2F
