:100000000C9473000C94B9000C94B9000C94B900D2
:100010000C94B9000C94B9000C94712A0C94B9009A
:100020000C94B9000C94B9000C94B9000C94B9006C
:100030000C94B9000C94B9000C94B9000C9459219B
:100040000C94B9000C94B9000C94DA2A0C943C2B53
:100050000C94B9000C94B9000C94B9000C94B9003C
:100060000C94B9000C94B9000C94B9000C94B9002C
:100070000C94B9000C94B9000C94B9000C94B9001C
:100080000C94B9000C94B9000C94B900D02CD32C6A
:10009000D62CDE2CE12CE42CE72CEA2CF12C1C2DA8
:1000A000412D462D4B2D502D552D5F2D632D662D49
:1000B000702D7A2DCD2CCD2CCD2CCD2C9E2DA12D7F
:1000C000A42DB52DB82DC22DCD2CC52DCD2DD02DC7
:1000D000D82DDB2DE32DE62DEE2DCD2CCD2CCD2CEA
:1000E000CD2C7E2D8C2D80EC85BF87E089B9809347
:1000F000990011241FBECFEFD0E1DEBFCDBF14E0C9
:10010000A0E0B1E0EEEDFFEB00E00BBF02C0079016
:100110000D92AA36B107D9F719E0AAE6B4E001C0FA
:100120001D92A83AB107E1F78FEF9FE79EBF8DBF01
:100130008FEF9FE7885A99408158914050F04FEFD8
:100140005EE7485A594083E599E068EA79E00E9401
:1001500086170E947D1F8CEB92E06EE873E040E012
:1001600050E020E831E00E94E51F0E9400000C945E
:10017000ED5F0C9400002F923F924F925F926F922E
:100180007F928F929F92AF92BF92CF92DF92EF9227
:10019000FF920F931F93DF93CF9300D000D0CDB782
:1001A000DEB780E092ECA1E0B0E089839A83AB8374
:1001B000BC8387EE92E060E070E040E00E94401F68
:1001C000409113045091140480E091E066E071E0E6
:1001D0000E94685980911304909114040E94D2588F
:1001E00061E071E0AE014F5F5F4F0E94165888E0FA
:1001F00091E00E94385A87E191E00E94385A88E6DF
:1002000093E060E070E040E00E94401F86E391E0F0
:1002100060E070E020E63AEE40E050E00E94A60484
:10022000892B09F444C086E391E066EB72E020E696
:100230003AEE40E050E00E94A604892BC1F18BE326
:1002400091E00E94F63C4B015C018BE491E00E943E
:10025000F63C7B018C0186E391E066EB72E0A50140
:1002600094010E94104189E591E00E94F63C7B01D7
:100270008C0160E070E080E090E020E030E040E061
:1002800050E0E8E6CE2EE3E0DE2E0E94D23B87E689
:1002900091E00E94F63C9B01AC0180E090E060E0C0
:1002A00070E0EE24FF2487010E94901008C0809027
:1002B000900990909109A0909209B0909309C5017E
:1002C000B4010E94483D00D000D025E731E0ADB731
:1002D000BEB712963C932E93119714969C938E93CF
:1002E00013970E94265A0F900F900F900F900FE7D0
:1002F00011E0C8010E94AF164B015C016115710548
:100300008105910509F4E9C10E946C381C01009730
:1003100009F4F6C0C501B4010E94483D00D000D0E8
:1003200000D0EDB7FEB731962EE831E0ADB7BEB7DD
:1003300012963C932E9311979383828380E590E0ED
:10034000958384830E94265AEDB7FEB736960FB682
:10035000F894FEBF0FBEEDBFC101B501A40120E5B9
:1003600030E00E94E737892B09F091C0C10161EAB2
:1003700071E00E9469586C01009709F483C000D0B5
:1003800000D000D0EDB7FEB73196ADB7BEB712962C
:100390009C938E93119785EA91E09383828387EBF8
:1003A00091E0958384830E94055AEDB7FEB7369697
:1003B0000FB6F894FEBF0FBEEDBF89EB91E0B6011A
:1003C0000E94165A8DED91E0B6010E94165AC601A0
:1003D0000E94C0580E94361B2B013C01EE24FF24D2
:1003E000870113C08AE694E00E94385AAAE6B4E076
:1003F0000D900020E9F7CD0101978A569440A0E0C6
:10040000B0E0E80EF91E0A1F1B1F8AE694E060E0C8
:1004100074E0A6010E94DA59892B21F70E94361B4D
:10042000EDB7FEB73A970FB6F894FEBF0FBEEDBF1B
:10043000319620EE31E0ADB7BEB712963C932E93C5
:100440001197E282F3820483158364197509860982
:10045000970934E096958795779567953A95D1F702
:1004600066837783808791870E94265AEDB7FEB70F
:100470003A960FB6F894FEBF0FBEEDBFC6010E94BC
:100480002B5819C085E092E00E94385A14C000D061
:1004900000D083E292E0ADB7BEB712969C938E93E4
:1004A000119714961C930E9313970E94265A0F903F
:1004B0000F900F900F90C501B4010E94483D00D0ED
:1004C00000D000D0EDB7FEB7319629E432E0ADB7E9
:1004D000BEB712963C932E9311979383828380E547
:1004E00090E0958384830E94265AEDB7FEB7369636
:1004F0000FB6F894FEBF0FBEEDBFC1010E94433797
:1005000068E873E180E090E00E94701C0E946C3803
:100510006C01009709F4F5C0C501B4010E94483D83
:1005200000D000D000D0EDB7FEB731962EE831E014
:10053000ADB7BEB712963C932E93119793838283E7
:1005400080E590E0958384830E94265AEDB7FEB73C
:1005500036960FB6F894FEBF0FBEEDBFC601B501CB
:10056000A40120E530E00E94E737892B09F079C02B
:100570000AE614E0C8016EE572E00E94C15FD8018E
:100580000D900020E9F77D010894E108F108E01AD8
:10059000F10A00E010E00EC0B80166597B4FA701D8
:1005A000401B510BC6010E945D35181619062CF42C
:1005B000080F191F0E151F0578F30E94361B2B011B
:1005C0003C01EE24FF24870110C0CF01AA2797FD2C
:1005D000A095BA2FE80EF91E0A1F1B1FE659FB4F04
:1005E00010828AE694E00E94385AC6016AE674E0F6
:1005F0004FEF53E00E943034FC01181619062CF31B
:100600000E94361BEDB7FEB73A970FB6F894FEBFBF
:100610000FBEEDBF319620EE31E0ADB7BEB71296FA
:100620003C932E931197E282F3820483158364191D
:1006300075098609970924E09695879577956795BA
:100640002A95D1F766837783808791870E94265AFF
:10065000EDB7FEB73A960FB6F894FEBF0FBEEDBFEA
:1006600016C000D000D083E292E0ADB7BEB71296BC
:100670009C938E9311978FE791E014969C938E93A1
:1006800013970E94265A0F900F900F900F90C5015C
:10069000B4010E94483D00D000D000D0EDB7FEB7B5
:1006A000319629E432E0ADB7BEB712963C932E9353
:1006B00011979383828380E590E0958384830E94E1
:1006C000265AEDB7FEB736960FB6F894FEBF0FBEAA
:1006D000EDBFC6010E94433714C000D000D084E9AA
:1006E00092E0ADB7BEB712969C938E931197149675
:1006F0001C930E9313970E94265A0F900F900F9001
:100700000F9068EE73E080E090E00E94701CF9CFDB
:100710009091C6028093C602892F08950E944D1DB4
:1007200081EC92E06BEB70E040E050E020E033E0E1
:100730000E94E51F8EEF0E94DD190E945D1A0E9443
:10074000A5192091C6022F3FC1F395B785B7837EC7
:10075000822B85BF85B7806285BF889585B78F7DE1
:1007600085BF85B79C71837E982B95BFE6CF80911E
:100770006F0890E008958091700890917108109230
:10078000710810927008089520E030E080916F08A1
:10079000853011F421E030E0C9010895DF92EF9235
:1007A000FF920F931F93CF93DF93D62E79018A0187
:1007B0000E94241FEC01009751F08B85833039F49F
:1007C000EF85F889309719F08081863049F081E112
:1007D00090E090937108809370082FEF3FEF35C041
:1007E0000E94711B60937A0870937B0880937C0849
:1007F00090937D08E0927608F0927708009378084D
:1008000010937908D0926F0880916D0890916E08CE
:10081000892B69F487EC92E06BE479E0AE0120E289
:1008200031E00E94E51F90936E0880936D0882E787
:1008300098E00E945A1E84E798E040E050E060E0B3
:1008400070E00E94AF1E20E030E0C901DF91CF913F
:100850001F910F91FF90EF90DF900895FC019A0196
:10086000AB0180916F08882349F083E090E090937A
:100870007108809370082FEF3FEF05C0CF0168E04B
:100880000E94CE039C01C9010895FC019A01AB01AD
:1008900080916F08853049F083E090E09093710873
:1008A000809370082FEF3FEF05C0CF0169E00E94F1
:1008B000CE039C01C9010895CF92DF92EF92FF927F
:1008C0000F931F93CF93DF93FC0184E292E0DF014B
:1008D000EC011D922197E9F781E08083818386E016
:1008E0008283EF016C96AAE8B9E00D9009928150DD
:1008F000E1F724833583468357830C2CCD2CD02CF1
:10090000D186C086E486F58606871787E451FF4FB7
:1009100093E69193DF0182E8819383E511968C93AE
:10092000DF0111969183FD01319685E311968C9339
:1009300081E08183628387E090E0DF91CF911F9116
:100940000F91FF90EF90DF90CF9008954F925F92BC
:100950006F927F928F929F92AF92BF92CF92DF92CF
:10096000EF92FF920F931F93DF93CF93CDB7DEB734
:1009700060970FB6F894DEBF0FBECDBF4C012B01C0
:100980002D873E874F87588B0E94241F5C0100975C
:1009900069F0FC018385833049F4C784D088C11491
:1009A000D10421F0F6018081863019F081E190E0D8
:1009B0003BC08E010F5F1F4FF80111928A95E9F736
:1009C00097E0692E712C6C0E7D1EC3016FEF70E0F5
:1009D00046E050E00E94B15F85E0E82EF12CEC0C7F
:1009E000FD1CC701B80146E050E00E949B5F0097E4
:1009F00041F0C701B30146E050E00E949B5F0097C1
:100A000031F54114510449F0AAE8B9E0F20186E059
:100A100001900D928150E1F70CC0C4010E943A414F
:100A2000892B39F082E090E09093710880937008F0
:100A3000BFC0D701EAE8F9E086E001900D9281504D
:100A4000E1F764EF71E080E090E00E94701CF60135
:100A500013861486158616868091940990919509BF
:100A6000A0919609B0919709838B948BA58BB68B37
:100A70008091940990919509A0919609B091970958
:100A800020919C0930919D0940919E0950919F09A8
:100A900082239323A423B5230097A105B10501F177
:100AA000C40140EE5EE260E070E00E9445042091E7
:100AB0009C0930919D0940919E0950919F09209376
:100AC0009009309391094093920950939309E090D3
:100AD0009409F0909509009196091091970958C0D2
:100AE000C40161E02D853E854F8558890E94CE0363
:100AF000892B09F05DC080916F08853031F5E09158
:100B00006B08F0916C084181528163817481058189
:100B1000168127813085C584D684E784F088C50195
:100B20000E94403FE0916B08F0916C082189328966
:100B300043895489E588F6880789108D80E090E024
:100B400060E070E00E94901030C0F60183859485CB
:100B5000A585B6850097A105B10539F520919009C5
:100B6000309191094091920950919309E090940934
:100B7000F09095090091960910919709D801C70145
:100B800082239323A423B5230097A105B10581F007
:100B9000A0909809B0909909C0909A09D0909B09AB
:100BA000C4016AE879E00E943D4020E030E002C0E4
:100BB0002FEF3FEFC90160960FB6F894DEBF0FBE6E
:100BC000CDBFCF91DF911F910F91FF90EF90DF90FC
:100BD000CF90BF90AF909F908F907F906F905F90DD
:100BE0004F900895CF93DF93EC01009779F089A59A
:100BF0009AA5009711F00E94785A8BA59CA50097A2
:100C000011F00E94785ACE010E94785ADF91CF915C
:100C10000895EF92FF920F931F93CF93DF938C0170
:100C2000F62EE72EEA01DC018D919C91009711F0E0
:100C30000E94785ACE0101960E947E5AF801918353
:100C40008083009769F0209729F06F2D7E2DAE01EB
:100C50000E94A85FD801ED91FC91EC0FFD1F10825E
:100C6000DF91CF911F910F91FF90EF9008954F92D8
:100C70005F926F927F928F929F92BF92CF92DF92FC
:100C8000EF92FF920F931F93CF93DF938C017B0121
:100C90008DE290E00E947E5AEC014C01009709F42D
:100CA0005BC18DE2FE0111928A95E9F780EC98EA2A
:100CB000A0E0B0E08DA39EA3AFA3B8A7F801808900
:100CC0009189A289B38989839A83AB83BC830051BC
:100CD0001F4F80E19FEFE80EF91E69E2462E512C6E
:100CE0004C0E5D1E5BE2652E712C6C0E7D1EE5C008
:100CF000332331F40F5F1F4F0894E108F108DDC082
:100D0000F801B180CB2CDD24EC14FD040CF4E3C01D
:100D1000353341F4F1E0BF1609F0DDC0F8018281FE
:100D20008883C0C03C3029F4B8016E5F7F4FC20198
:100D300006C03F3041F4B8016E5F7F4FC301A6018A
:100D40000E940906AFC0F3E0FB1508F0ABC0F80144
:100D50002281838190E0A0E0B0E04427582F692FE2
:100D60007A2F848190E0A0E0B0E0DC019927882709
:100D7000480F591F6A1F7B1F420F511D611D711DB6
:100D8000858190E0A0E0B0E0B82FAA2799278827B6
:100D9000480F591F6A1F7B1F313029F44D835E8332
:100DA0006F8378877FC03C3129F449875A876B87E6
:100DB0007C8778C0333029F44D875E876F87788BC6
:100DC00071C0363009F041C0498B5A8B6B8B7C8BDC
:100DD000F7E0FB1508F066C0F801268130E040E03E
:100DE00050E02D8B3E8B4F8B588F878190E0A0E099
:100DF000B0E0BA2FA92F982F8827820F931FA41F26
:100E0000B51F8D8B9E8BAF8BB88F208530E040E077
:100E100050E0A90133272227280F391F4A1F5B1FE3
:100E20002D8B3E8B4F8B588F818590E0A0E0B0E0FA
:100E3000B82FAA2799278827280F391F4A1F5B1F19
:100E40002D8B3E8B4F8B588F2DC0363329F4498F15
:100E50005A8F6B8F7C8F26C03A3359F4042E472F5C
:100E6000702D052E562F602D4D8F5E8F6F8F78A3BE
:100E700019C03B3359F4042E472F702D052E562FE1
:100E8000602D49A35AA36BA37CA30CC0333351F448
:100E9000042E472F702D052E562F602D4DA35EA3D7
:100EA0006FA378A78B2D90E00296080F191F8EEF85
:100EB0009FEFE80EF91EEC18FD08F80130813F3F66
:100EC00009F45BC01E141F040CF412CF04C085305B
:100ED00041F0863031F0CE010E94F2058824992439
:100EE0003BC08D8D9E8DAF8DB8A10097A105B1053A
:100EF00061F48DA19EA1AFA1B8A5B695A7959795D0
:100F000087958D8F9E8FAF8FB8A389A19AA1ABA132
:100F1000BCA10097A105B105F9F48D8D9E8DAF8D13
:100F2000B8A19C01AD0156954795379527957C0151
:100F30008D0162E016950795F794E7946A95D1F7CD
:100F40002E0D3F1D401F511F280F391F4A1F5B1FC9
:100F500029A33AA34BA35CA3C401DF91CF911F91B6
:100F60000F91FF90EF90DF90CF90BF909F908F9068
:100F70007F906F905F904F9008958881823009F044
:100F8000A6CFAFCFEF92FF920F931F937C01D901B1
:100F9000F901E00FF11FE451FF4F8FEF8083F8015B
:100FA000E351FF4F81E0EC32F80710F4ECE2F1E09E
:100FB000C70123E430E08D017F010E94423A97FD92
:100FC00003C020E030E008C083E190E09093710816
:100FD000809370082FEF3FEFC9011F910F91FF9091
:100FE000EF9008952F923F924F925F926F927F926F
:100FF0008F929F92AF92BF92CF92DF92EF92FF9229
:101000000F931F93DF93CF93CDB7DEB71C012A0157
:101010003B014901A801970186017501C40163E004
:10102000CD8CDE8C0E945C049C018D899E89AF89E9
:10103000B88D0097A105B105C1F0F401E20FF31FCF
:10104000E451FF4F82E3808324513F4FF401E20FCC
:10105000F31F84E081838D899E89AF89B88D828357
:101060009383A483B583265E3040898D9A8DAB8DA2
:10107000BC8D0097A105B105C1F0F401E20FF31F8B
:10108000E451FF4F86E3808324513F4FF401E20F88
:10109000F31F84E08183898D9A8DAB8DBC8D828313
:1010A0009383A483B583265E3040F401E20FF31FDF
:1010B000E451FF4F87E3808324513F4FF401E20F57
:1010C000F31F2C5E3040DF01119693E09183FD0108
:1010D000319681E011968C93918386E0828375E04E
:1010E000E72EF12CE20EF31E4AE659E0DA010D90EC
:1010F0000020E9F7AB56B9401A161B06D4F40A2FA4
:10110000F401EE0DFF1DE451FF4F8CE08083F901E7
:10111000EF50FF4FE80DF91DA1833296CF01BA01C0
:101120004A2F50E00E94A85F10E00E5F1F4FE00EB4
:10113000F11EC101B301A201940187010E94C207FF
:10114000CF91DF911F910F91FF90EF90DF90CF90A3
:10115000BF90AF909F908F907F906F905F904F90D7
:101160003F902F9008952F923F924F925F926F92EF
:101170007F928F929F92AF92BF92CF92DF92EF9227
:10118000FF920F931F93DF93CF93CDB7DEB7609796
:101190000FB6F894DEBF0FBECDBF9C878B874D87FF
:1011A0005E876F87788B3901470158010E94711B58
:1011B0006F83788789879A8767017801E6E02E2E0A
:1011C000EFEF3E2EEFEF4E2EEFEF5E2E280C391C88
:1011D0004A1C5B1C8B859C85BE016D5F7F4FAE01F9
:1011E0004F5F5F4F930104E212E00E94D7399C01E8
:1011F000181619064CF00097A1F184E190E0909345
:101200007108809370082DC0823F910588F0F3012A
:101210008081823069F484819581A681B7814D8572
:101220005E856F85788984179507A607B707C9F08B
:101230000E94711B2F81388549855A85621B730B6B
:10124000840B950B621573058405950518F020E055
:1012500030E007C075016401C61AD70AE80AF90A26
:10126000B9CFC90160960FB6F894DEBF0FBECDBFEF
:10127000CF91DF911F910F91FF90EF90DF90CF9072
:10128000BF90AF909F908F907F906F905F904F90A6
:101290003F902F900895DF93CF93CDB7DEB7A097FF
:1012A0000FB6F894DEBF0FBECDBF8C010E94DD1BD0
:1012B0006B8B7C8B8D8B9E8B20919009309191094B
:1012C00040919209509193092B873C874D875E8707
:1012D000D8011F960D90BC91A02DBA8FA98F1A9698
:1012E0008C9190E0A0E0B0E0BA2FA92F982F88272A
:1012F000E98DFA8D2185820F911DA11DB11DBA2F97
:10130000A92F982F88272085820F911DA11DB11D1F
:101310002227382F492F5A2F8781280F311D411D31
:10132000511D2B8F3C8F4D8F5E8F18A21F8E662410
:101330007724188E1F8A1F86188A198A1A8A992478
:1013400030EA232E3FE0332E412C512C01C0982C43
:101350009920E1F0220C331C441C551C31E023166B
:101360003AEF330630E0430630E0530630F0212CEC
:101370009AEF392E412C512C38C02FEF3FEF4FEF11
:101380005FEF2F83388749875A8737C080916F086E
:10139000833059F08B8D9C8DAD8DBE8D0196A11D36
:1013A000B11D8B8F9C8FAD8FBE8FE0916B08F0913C
:1013B0006C083097A1F0218D328D438D548D2F8391
:1013C000388749875A87211531054105510539F07C
:1013D00080EA282E8FE0382E412C512C0EC000EAD6
:1013E000202E0FE0302E412C512C8FEF9FEFAFEFCE
:1013F000BFEF8F839887A987BA8780916F0888236A
:10140000D9F18091760890917708A0917808B091F1
:1014100079080097A105B10579F10E94711B9B0124
:10142000AC0180917A0890917B08A0917C08B091E2
:101430007D08281B390B4A0B5B0B60917608709175
:101440007708809178089091790826173707480720
:10145000590738F0A1E0B0E0B0937108A09370088C
:1014600018C6621B730B840B950B621573058405FC
:10147000950510F41B012C0180916F08823021F03A
:10148000863011F0873041F59920F1F00E94DD1B84
:101490002B893C894D895E89621B730B840B950BEC
:1014A000605070408140904028F04FEF5FEF588FC0
:1014B0004F8B12C00E94DD1BDB01EB89FC89AE1B48
:1014C000BF0BB88FAF8B08C00E94DD1B6B8B7C8B72
:1014D0008D8B9E8B188E1F8A80916F08853011F03E
:1014E0008823B1F42F8D38A12115310519F0C901D8
:1014F0000E94A8396114710419F418A21F8E4CC0FF
:10150000C3010E94785A18A21F8E6624772444C013
:1015100080916B0890916C08892B59F4E98DFA8DB4
:1015200083859485A585B6850097A105B10509F049
:10153000B0C52F8D38A1232B21F06114710461F502
:1015400009C084E490E00E94883A98A38F8F6114C8
:10155000710429F484E292E00E947E5A3C014F8D8E
:1015600058A1452B19F06114710439F482E190E01F
:1015700090937108809370088CC580EC96E09A83F4
:1015800089838F8D98A162E070E1AE014F5F5F4F5C
:1015900022E030E00E94563980916F08813031F5A9
:1015A0002B8D3C8D4D8D5E8D2F5F3F4F4F4F5F4F8D
:1015B0002B8F3C8F4D8F5E8F809194099091950970
:1015C000A0919609B09197092B853C854D855E8544
:1015D00082239323A423B5230097A105B10511F419
:1015E00032E073C244E040936F0871C2823009F068
:1015F0005AC1B92CB39453E05915C8F480916B08C3
:1016000090916C08892B61F085E080936F082B899D
:101610003C894D895E892F87388B498B5A8B7BC5D6
:1016200041E050E050937108409370082FC18B85C2
:101630009C85AD85BE858B839C83AD83BE83C301B2
:1016400061E02B8D3C8D4D8D5E8DEE24FF24870156
:10165000CF88D88C0E945C049C018B819C81AD81D9
:10166000BE810097A105B105C1F0F301E20FF31FA0
:10167000E451FF4F92E3908324513F4FF301E20F77
:10168000F31FA4E0A1838B819C81AD81BE81828305
:101690009383A483B583265E3040F301E20FF31FEA
:1016A000E451FF4FB7E3B08324513F4FF301E20F02
:1016B000F31F2C5E3040DF01119643E04183FD01B2
:1016C000319651E011965C93418386E0828315E068
:1016D000E12EF12CE20EF31EAAE6B9E00D900020F7
:1016E000E9F7AB56B9401A161B06E4F40A2FF301CA
:1016F000EE0DFF1DE451FF4F9CE09083F901EF5088
:10170000FF4FE60DF71DA1833296CF01EAE6F9E01F
:10171000BF014A2F50E00E94A85F10E00E5F1F4FEC
:10172000E00EF11E20E432E03A832983F301EE0D4E
:10173000FF1DE451FF4F39E330834CEE50E0E40EDF
:10174000F51EF301EE0DFF1D52E0518389819A8150
:10175000082E892F902D9A838983319692838183D5
:1017600088E19FEFE80EF91E8F8D98A14FEF5FEF94
:101770006FEF7FEF930187010E94C20797FF74C04C
:1017800085C0E0906B08F0906C08C3010E9437069A
:101790008C01009709F44EC0DC018C91823009F075
:1017A00046C0E114F10409F446C02091900930913B
:1017B00091094091920950919309809194099091D7
:1017C0009509A0919609B091970982239323A423A8
:1017D000B5230097A105B105A9F0F7018181928198
:1017E000A381B48182179307A407B50719F1F80103
:1017F00081819281A381B48182179307A407B507E1
:10180000C9F411C0D80195962D913D914D915C91EF
:101810009897F70185A196A1A7A1B0A58217930774
:10182000A407B50720F4C7010E94F20504C0C8014F
:101830000E94F205870110936C0800936B08012B3E
:1018400099F08091760890917708A0917808B091EE
:101850007908805E9E42A040B040D8F0B0EA2B2EBE
:10186000BFE03B2E412C512C8F8D98A14B8D5C8D70
:101870006D8D7E8D9301820171010E94B308BC01C0
:10188000181619060CF47DCF009719F010926F0806
:1018900042C480916B0890916C08892B09F43BC479
:1018A000A4E09A2E3BC4833009F06CC0892C839449
:1018B00023E0291520F431E030936F082EC4E09125
:1018C0006B08F0916C084DB75EB74A5050400FB6A8
:1018D000F8945EBF0FBE4DBF2DB73EB72F5F3F4F91
:1018E0004181528163817481ADB7BEB711964D932A
:1018F0005D936D937C931497818D928DA38DB48DA0
:10190000F90184839583A683B7834F89588D5187C6
:1019100040878F8D98A14FEF5FEF6FEF7FEF9301BF
:10192000EB8CFC8C0D8D1E8DAA24BB2465010E94BE
:10193000F207ADB7BEB71A960FB6F894BEBF0FBE8A
:10194000ADBF97FDB7C38F8D98A14B8D5C8D6D8D0D
:101950007E8D9301820171010E94B308BC0197FD45
:10196000A9C3009709F4D9C3C3010E9437068C01AB
:10197000009709F4D2C3FC01F080F5E0FF1609F0EE
:1019800059C243C2843009F081C0892C839453E04A
:10199000581548F481E080936F08982C1B861C86AC
:1019A0001D861E86BBC3ADB7BEB71A970FB6F89497
:1019B000BEBF0FBEADBF2DB73EB72F5F3F4F8B856C
:1019C0009C85AD85BE85EDB7FEB781839283A383E9
:1019D000B483D90114961D921D921D921C921797E3
:1019E000EF89F88D1996FC93EE9318978F8D98A137
:1019F0004FEF5FEF6FEF7FEF9301EB8CFC8C0D8D62
:101A00001E8DAA24BB2465010E94F2072DB73EB7A4
:101A1000265F3F4F0FB6F8943EBF0FBE2DBF97FD18
:101A200049C38F8D98A14B8D5C8D6D8D7E8D9301FB
:101A3000820171010E94B308BC0197FD3BC300976E
:101A400009F46BC3C3010E9437068C01009709F4A7
:101A500064C3DC018C91853071F480916B089091A6
:101A60006C080E94F20510936C0800936B08B5E0B7
:101A7000B0936F08D6C1863009F049C331E0309386
:101A80006F081B861C861D861E8641C3853009F0A3
:101A90004FC084E798E00E944D1EE0916B08F091E2
:101AA0006C08E58CF68C078D10A10E94DD1B2F853C
:101AB000388949895A89621B730B840B950B6E1503
:101AC0007F058007910728F036E030936F0899244E
:101AD00025C3E0916B08F0916C08E58CF68C078DBE
:101AE00010A10E94DD1B2F85388949895A892E0D46
:101AF0003F1D401F511F261B370B480B590B283326
:101B000089E8380781E4480780E0580720F027E398
:101B100039E841E450E0CA01B90128EE33E040E081
:101B200050E00E94145FAB01BC0182E798E0ECC278
:101B3000863009F0C0C0E0916B08F0916C08E1A01C
:101B4000F2A003A114A10E94DD1B5B016C01C20184
:101B5000B10128EE33E040E050E00E94535F8F85F2
:101B60009889A989BA89E80EF91E0A1F1B1FEA186D
:101B7000FB080C091D09E216F30604071507E0F43B
:101B8000E0916B08F0916C0821A032A043A054A012
:101B90000E94DD1B2F85388949895A89621B730B86
:101BA000840B950B28EE33E040E050E00E94145F78
:101BB000261A370A480A590AE0916B08F0916C0816
:101BC000E1A0F2A003A114A10E94DD1B2F8538899A
:101BD00049895A89621B730B840B950B6E157F051F
:101BE0008007910708F0B2C0E0916B08F0916C0893
:101BF000A180B280C380D4804DB75EB74A505040B8
:101C00000FB6F8945EBF0FBE4DBFADB7BEB711960D
:101C1000418D528D638D748DEDB7FEB7A182B28276
:101C2000C382D48214961D921D921D921C92179706
:101C30002F89388D19963C932E9318978F8D98A1E4
:101C40009301EB8CFC8C0D8D1E8D0E94F2074DB71D
:101C50005EB7465F5F4F0FB6F8945EBF0FBE4DBFD5
:101C600097FD74C0892C83948F8D98A14B8D5C8DCA
:101C70006D8D7E8D9301820171010E94B308BC01BC
:101C800097FD18C2009709F448C2C3010E943706A5
:101C90008C01009709F441C2DC01FC90B5E0FB1611
:101CA00009F4B3C036E0F31609F031C287E080933F
:101CB0006F0888242CC2873009F0C4C0E0916B08FB
:101CC000F0916C08E1A0F2A003A114A10E94DD1B19
:101CD0002F85388949895A89E20EF31E041F151F82
:101CE000E61AF70A080B190BE214F30404051505AC
:101CF000B0F4E0916B08F0916C0821A032A043A0F1
:101D000054A00E94DD1B261A370A480A590A8F85FB
:101D10009889A989BA89281A390A4A0A5B0AE0917E
:101D20006B08F0916C08E1A0F2A003A114A10E943D
:101D3000DD1B2F85388949895A89621B730B840BF7
:101D4000950B6E157F058007910720F087E0809343
:101D50006F08BDCE892C8394E0916B08F0916C08DC
:101D6000A180B280C380D4804DB75EB74A50504046
:101D70000FB6F8945EBF0FBE4DBFEDB7FEB73196FC
:101D8000ADB7BEB71196AD92BD92CD92DC921497CD
:101D900014821582168217822F89388D3187208709
:101DA0008F8D98A14FEF5FEF6FEF7FEF9301EB8C7B
:101DB000FC8C0D8D1E8D0E94F2074DB75EB7465FFD
:101DC0005F4F0FB6F8945EBF0FBE4DBF97FD72C157
:101DD0008F8D98A14B8D5C8D6D8D7E8D93018201D1
:101DE00071010E94B308BC0197FD64C1009709F41A
:101DF00094C1C3010E9437068C01009709F48DC17C
:101E0000DC01FC90B5E0FB16A9F480916B08909181
:101E10006C080E94F20510936C0800936B08F09216
:101E20006F082B893C894D895E892F87388B498BB8
:101E30005A8B73C136E0F31609F069C141E0409353
:101E40006F0865C1883009F0C8C0892C839453E0BD
:101E5000591508F42FC1A98DBA8D1B96ED90FD90F0
:101E60000D911C911E97C30168E02B8D3C8D4D8D0B
:101E70005E8DCC24DD240E945C04F301E80FF91F81
:101E8000E451FF4FB7E3B08384519F4FF301E80F54
:101E9000F91FDF01119623E02183FD01319631E026
:101EA00011963C93218346E04283F9E1EF2EFFEF48
:101EB000FF2EE80EF91EAAE6B9E00D900020E9F722
:101EC000AB56B94011F10A2FF301EE0DFF1DE4519D
:101ED000FF4F5CE050838CEE90E0E80EF91EF301BA
:101EE000EE0DFF1D24E13FEFE20EF31EA1833296BB
:101EF000CF014AE659E0BA014A2F50E00E94A85F9C
:101F000010E00E5F1F4FE00EF11E80E492E09A8316
:101F10008983F301EE0DFF1DE451FF4F99E3908398
:101F2000ACEEB0E0EA0EFB1EF301EE0DFF1DB2E0D9
:101F3000B18389819A81082E892F902D9A83898374
:101F4000319692838183E8E1FFEFEE0EFF1E8F8DC5
:101F500098A14F81588569857A85930187010E94F0
:101F6000C20797FF0BC02F81388549855A852F5F9F
:101F70003F4F4F4F5F4F09F0D0C09CC08F8D98A14D
:101F80004B8D5C8D6D8D7E8D9301820171010E9460
:101F9000B308BC01009709F4C0C018161906A4F4D0
:101FA000C3010E9437068C01009781F0DC018C91FF
:101FB000853061F480916B0890916C080E94F20565
:101FC00010936C0800936B0800E010E010926F080B
:101FD0000115110509F09BC0BAC9893009F07EC00E
:101FE000E0916B08F0916C08309709F448C0892C97
:101FF0008394992009F042C0E180F280038114812A
:10200000818D928DA38DB48D8B839C83AD83BE8394
:10201000C30167E02B8D3C8D4D8D5E8DCC24DD247E
:102020000E945C048C018B819C81AD81BE810097F4
:10203000A105B105C1F0F301E00FF11FE451FF4F1D
:10204000B6E3B08304511F4FF301E00FF11F24E00A
:1020500021838B819C81AD81BE8182839383A48304
:10206000B583065E10408F8D98A14F815885698594
:102070007A8593010E94C20797FF0EC0982C8F812A
:102080009885A985BA858F5F9F4FAF4FBF4F09F0E5
:1020900045C010926F0842C08F8D98A14B8D5C8D0A
:1020A0006D8D7E8D9301820171010E94B308BC0188
:1020B00097FF03C010926F0830C0009771F1C30101
:1020C0000E9437068C01009741F1DC018C9185302C
:1020D00011F08630E1F410926F0819C08823F1F4F2
:1020E00080916B0890916C080E94F20510926C0828
:1020F00010926B0884E798E00E944D1E82E798E0FA
:1021000040E050E060E070E00E94AF1EE0CCC8010B
:102110000E94F2051CC99B2C01C0982C892C17C960
:102120008F929F92AF92BF92CF92DF92EF92FF92E7
:102130000F931F93CF93DF93EC014B0159016A0179
:102140008091470990914809009731F00E94785A90
:1021500010924809109247098091490990914A09C3
:10216000009731F00E94785A10924A09109249095A
:10217000209739F0CE010E948E5A809347099093A0
:1021800048098114910439F0C4010E948E5A809349
:10219000490990934A09A0924B09B0924C09C09208
:1021A0004D09D0924E09E0924F09F09250090093E8
:1021B000510910935209DF91CF911F910F91FF9018
:1021C000EF90DF90CF90BF90AF909F908F90089549
:1021D000DC01FB01908181818C9311969C93119776
:1021E0009281838112968C93129713969C931397E6
:1021F0009481858114968C93149715969C931597CA
:102200009681878116968C93169717969C931797AD
:102210009085818518968C93189719969C93199799
:10222000928583851A968C931A971B969C938CE0C3
:1022300090E00895DC01FB01308120E011963C9391
:102240002E93818190E0822B932B11969C938E93F9
:10225000328120E013963C932E931297838190E075
:10226000822B932B13969C938E931297348120E0AC
:1022700015963C932E931497858190E0822B932B97
:1022800015969C938E931497368120E017963C9375
:102290002E931697878190E0822B932B17969C9311
:1022A0008E931697308520E019963C932E931897BD
:1022B000818590E0822B932B19969C938E9318978F
:1022C000328520E01B963C932E931A97838590E0ED
:1022D000822B932B1B969C938E931A978CE090E005
:1022E0000895CF93DF93FC01DB01EA01009731F001
:1022F000809147099091480991838083109731F02C
:102300008091490990914A098D939C93209761F09F
:1023100080914B0990914C09A0914D09B0914E09C3
:1023200088839983AA83BB832115310569F0809145
:102330004F0990915009A0915109B0915209F901AA
:1023400080839183A283B383DF91CF910895CF934C
:10235000DF93EC01009749F088819981009711F093
:102360000E94785ACE010E94785ADF91CF91089549
:10237000CF93DF93EC01009779F0888199810097E2
:1023800011F00E94785A8C859D85009711F00E946B
:10239000785ACE010E94785ADF91CF910895EF923A
:1023A000FF920F931F93CF93DF93EC018B017A0180
:1023B000009749F481E090E066E070E00E945C5A8A
:1023C000EC01009789F088819981009711F00E94B3
:1023D000785AC8010E948E5A88839983FB82EA82C8
:1023E00081E090E09D838C83CE01DF91CF911F919E
:1023F0000F91FF90EF900895EF92FF920F931F932C
:10240000CF93DF938C01DB018C9111969C91FC01A1
:10241000EF0109900020E9F7CE1BDF0B2196F801B0
:102420001192A8017C010FC0C70101962E3221F440
:1024300010827C01AF0106C020837C01DA018C91FF
:102440008F5F8C933196D7012C91222369F71082EC
:10245000F801EC0FFD1FDB0112969C911297139669
:102460008C911397808391839E012E5F3F4FF801DB
:10247000E20FF31F14969C91149715968C9180830C
:1024800091832E5F3F4FC901DF91CF911F910F9133
:10249000FF90EF900895EF92FF920F931F93CF93C9
:1024A000DF93EC017B01DB018D919C91009729F07A
:1024B0000E94785AF701118210828881807C803CCA
:1024C00019F402E010E02AC0DE010D900020E9F7C7
:1024D0008D010C1B1D0BC8010E947E5ADC01F70107
:1024E00091838083FE0191913EE215C0AF01BD0151
:1024F000292FEA018991AE01EB018993BE01215098
:10250000C1F7892F90E0A80FB91FE80FF91F90813C
:1025100091113D933196992349F71C92C801DF919F
:10252000CF911F910F91FF90EF900895EF92FF923E
:102530000F931F937C018B01CB01B7010E944B12BB
:10254000AC01F801E80FF91F308120E0D7011396A4
:102550003C932E931297818190E0822B932B1396BC
:102560009C938E9312974E5F5F4F040F151FF801D7
:10257000308120E015963C932E931497818190E052
:10258000822B932B15969C938E9314974E5F5F4FDF
:10259000CA011F910F91FF90EF900895AF92BF92E3
:1025A000CF92DF92EF92FF920F931F93CF93DF931F
:1025B0006C015B01CB01B6010E944B12F501E80FE3
:1025C000F91F508140E0D60113965C934E93129709
:1025D000218130E0242B352B13963C932E931297B8
:1025E000FC013296D501AE0FBF1F5C9140E0E601C1
:1025F0005D834C8311962C9130E0242B352B3D8349
:102600002C833296EA0DFB1DDF011196E080FF243A
:1026100000E010E0102F0F2DFE2CEE24EE82FF8242
:1026200008871987218130E040E050E02E293F29BA
:10263000402B512B542F432F322F2227F601268374
:102640003783408751871196EC901197FF2400E063
:1026500010E02E293F29402B512B542F432F322F8E
:1026600022272E833F83488759871296EC90FF24B8
:1026700000E010E02E293F29402B512B2683378381
:10268000408751870896F501E80FF91F308120E057
:10269000D6011B963C932E931A974181C42FD0E00C
:1026A000C22BD32B1B96DC93CE931A978C010E5F13
:1026B0001F4F1C968D919C911D97009711F00E94C1
:1026C000785ACE010E947E5AF6018487958795013B
:1026D000200F311FB901AE010E94A85F9E01200F9B
:1026E000311FC901DF91CF911F910F91FF90EF90A2
:1026F000DF90CF90BF90AF9008952F923F924F926E
:102700005F926F927F928F929F92AF92BF92CF9281
:10271000DF92EF92FF920F931F93DF93CF93CDB78A
:10272000DEB763970FB6F894DEBF0FBECDBF9B87B1
:102730008A877D876C875F874E8780E090E0EE8593
:10274000FF85E80FF91F108211821282138204960E
:1027500080329105A1F780914B0990914C09A0918D
:102760004D09B0914E090097A105B10569F480911A
:102770004F0990915009A0915109B09152090097C9
:10278000A105B10509F453C180E090E00E94883AA8
:1027900098878F83892B09F44AC183E599E060E02B
:1027A00072E00E94C2164C0188E0898744245524B7
:1027B000AA24BB242224332466247724D42C08940E
:1027C000411C511CA114B10449F481E090E06CE07B
:1027D00070E00E945C5A5C01009781F0D50111966F
:1027E0005C924E92E0E0F1E01396FC93EE93129728
:1027F00081E090E015969C938E931497C1016A85B1
:102800007B854C855D850E94CF111C01C401B501FB
:102810000E94E8108C01C401800F911FB1010E9439
:10282000FC117C01E00EF11ED0FE0DC040914F095D
:10283000509150096091510970915209411551050B
:102840006105710541F440914B0950914C0960912B
:102850004D0970914E098F81988525E330E0840100
:102860000E94423A97FDCDC08F819885BE016D5F71
:102870007F4FAE014F5F5F4F940100E012E0E8EE42
:10288000CE2EE3E0DE2EE12CF12C0E94D739181673
:1028900019060CF0B1C00D973CF3C501B4010E94BC
:1028A0001A118C01D5018D919C9111978415950574
:1028B000D9F60115110509F49FC014968D919C91CC
:1028C0001597019709F098C0B401600F711FC101FD
:1028D0000E9496129C01F50186819781892B09F44B
:1028E00090C07901E00EF11E198601E010E07DC074
:1028F0006114710439F481E090E06EE070E00E94B0
:102900005C5A3C01B4016E0D7F1DC3010E94CE12C2
:102910006C01D30112968D919C911397019709F048
:1029200060C01A968D919C911B97049709F059C02D
:10293000B985EB2FF0E0EE0FFF1FEE0FFF1F8E8526
:102940009F85E80FF91FD3011C966D917C911D970F
:10295000DB012C9130E040E050E020833183428362
:1029600053831196BC918B2F90E0A0E0B0E0BA2F7A
:10297000A92F982F8827820F931FA41FB51F888B1C
:10298000998BAA8BBB8B80839183A283B383DB015A
:1029900012962C9130E040E050E0A9013327222725
:1029A00088899989AA89BB89280F391F4A1F5B1F0B
:1029B0002083318342835383DB0113968C9190E013
:1029C000A0E0B0E0B82FAA2799278827280F391F41
:1029D0004A1F5B1F2083318342835383B985BF5FC6
:1029E000B987EC0CFD1C0F5F1F4FF50186819781A5
:1029F000801791070CF07CCFF6E04F16510409F0D8
:102A0000DDCEA114B10419F0C5010E94785AC101AC
:102A10000E94A711C3010E94B81183E599E0B40197
:102A20000E941A178F8198850E94A83901C01986C3
:102A3000898563960FB6F894DEBF0FBECDBFCF91E8
:102A4000DF911F910F91FF90EF90DF90CF90BF909B
:102A5000AF909F908F907F906F905F904F903F903E
:102A60002F900895AB0161E070E00E947D130895FE
:102A70002F923F924F925F926F927F928F929F928E
:102A8000AF92BF92CF92DF92EF92FF920F931F937C
:102A9000DF93CF93CDB7DEB72C970FB6F894DEBF98
:102AA0000FBECDBF9A8789877C876B8780914B0942
:102AB00090914C09A0914D09B0914E090097A10544
:102AC000B10569F480914F0990915009A091510985
:102AD000B09152090097A105B10509F41DC180E02C
:102AE00090E00E94883A98878F83892B09F414C15B
:102AF00080E092E00E947E5A4C0144245524AA248E
:102B0000BB242224332466247724D42C0894411C2B
:102B1000511CA114B10449F481E090E06CE070E034
:102B20000E945C5A5C01009781F0D50111965C927D
:102B30004E92E0E0F1E01396FC93EE93129781E061
:102B400090E015969C938E931497C10169857A85C0
:102B50004B855C850E94CF111C01C401B5010E9408
:102B6000E8108C01C401800F911FB1010E94FC117B
:102B70007C01E00EF11ED0FE0DC040914F09509136
:102B80005009609151097091520941155105610533
:102B9000710541F440914B0950914C0960914D09E8
:102BA00070914E098F81988525E330E084010E9461
:102BB000423A97FD9AC08F819885BE016D5F7F4F25
:102BC000AE014F5F5F4F940100E012E0E8EECE2EC1
:102BD000E3E0DE2EE12CF12C0E94D73918161906FD
:102BE0000CF07EC00D973CF3C501B4010E941A1190
:102BF0008C01D5018D919C91119784159505D9F67D
:102C00000115110509F46CC014968D919C911597CE
:102C1000019709F065C0B401600F711FC1010E94E6
:102C200096129C01F50186819781892B09F45DC07C
:102C30007901E00EF11E01E010E01CC06114710486
:102C400039F481E090E06EE070E00E945C5A3C0153
:102C5000B4016E0D7F1DC3010E94CE129C01D301F1
:102C600012968D919C911397019751F0E20EF31EED
:102C70000F5F1F4FF5018681978180179107F4F64A
:102C8000D3011A968D919C911B97049749F51C9638
:102C9000ED91FC911D972081818190E0A0E0B0E052
:102CA000EE24F82E092F1A2F828190E0A0E0B0E0E8
:102CB000DC0199278827E80EF91E0A1F1B1FE20E68
:102CC000F11C011D111D838190E0A0E0B0E0B82F40
:102CD000AA2799278827E80EF91E0A1F1B1F08C07C
:102CE000B6E04B16510409F010CFEE24FF24870103
:102CF000A114B10419F0C5010E94785AC1010E94C3
:102D0000A711C3010E94B811C4010E94785A8F8193
:102D100098850E94A83903C0EE24FF248701B701DB
:102D2000C8012C960FB6F894DEBF0FBECDBFCF9171
:102D3000DF911F910F91FF90EF90DF90CF90BF90A8
:102D4000AF909F908F907F906F905F904F903F904B
:102D50002F9008956FE070E00E943815089561E0AB
:102D600070E00E9438150895EF92FF920F931F9321
:102D7000EE24FF2487010E9490101F910F91FF9075
:102D8000EF900895CF93DF93DC016E5F7F4F643047
:102D9000710510F464E070E06F5F7F4F6E7FED911E
:102DA000FC911197AD01A0E0B0E0C0E0D0E01BC005
:102DB000208131812617370780F0109731F08D91EF
:102DC0009C9111972817390740F42617370719F4F3
:102DD000DF01EA010DC0DF01EA01AF014E5F5F4F85
:102DE0000280F381E02D309719F79D011097F1F0E3
:102DF0008D919C911197861B970B12962D913C916A
:102E000013978430910568F0FD01E60FF71F918359
:102E100080833383228311967C936E93F983E883B6
:102E200002C0398328839D012E5F3F4FC901DF9186
:102E3000CF910895CF93DF93EC016115710519F4DB
:102E40002DEF3FEF5FC0DB011297E881F9814FC0A2
:102E500020813181CF01820F931F8A179B07E9F4EC
:102E60006D917C91620F731F71836083DF01A60FE8
:102E7000B71F82819381A817B90709F041C08D91CE
:102E80009C911197680F791F7183608312968D91C1
:102E90009C9113979383828333C0AE17BF07E0F4EE
:102EA000B983A8834D915C911197CD01840F951F33
:102EB0008E179F0761F4240F351F11963C932E93B4
:102EC0008281938113969C938E93129719C01396C7
:102ED000FC93EE93129714C0A817B90718F42FEFBC
:102EE0003FEF10C0EF0122960280F381E02D309772
:102EF00009F0AECF13961C921E921297B983A88345
:102F000020E030E0C901DF91CF9108956F5F7F4FDE
:102F1000FB01EE7F61507040640F751F6E1B7F0BCD
:102F20006E7F61937193BF010E941A170895FC018F
:102F30000190F081E02D20E030E008C08081918197
:102F40000297280F391F0280F381E02D3097B1F7E7
:102F5000C9010895FC010190F081E02D20E030E0EE
:102F600009C0808191812817390708F49C010280EB
:102F7000F381E02D3097A9F722503040C901089520
:102F800080E090E00895EF92FF920F931F93CF930C
:102F9000DF938C01C0915309D09154098DECE82E38
:102FA00082E0F82E26C08DB79EB708970FB6F8942A
:102FB0009EBF0FBE8DBFEDB7FEB73196ADB7BEB7A2
:102FC00012961C930E931197F382E282D583C483E9
:102FD00088819981978386830E94055A0A80DB81C4
:102FE000C02D8DB79EB708960FB6F8949EBF0FBE42
:102FF0008DBF2097C1F6DF91CF911F910F91FF9068
:10300000EF900895AF92BF92CF92DF92EF92FF922E
:103010000F931F93CF93DF936C017B0161157105B3
:1030200029F4BA010E94C2167C018FC041155105D6
:1030300031F40E941A17892B09F487C061C08B01F3
:10304000025010404E5F5F4F4430510510F444E091
:1030500050E0EA012196CE7FF801208131812C17C2
:103060003D0708F05FC0F601A081B181560109C09B
:1030700092E0A92EB12CAA0EBB1E12960D90BC9107
:10308000A02D1097B1F1A017B10790F36AC0C80145
:10309000820F931F8A179B0761F5CA01861B970B46
:1030A0000497D0F0260F371FE80139832883FD01EC
:1030B000E60FF71FE501F983E88312968D919C9145
:1030C000139793838283E881F9818D919C91861B6C
:1030D000970B9183808339C0420F531FF8015183AE
:1030E000408312968D919C911397E5019983888373
:1030F0002CC0C601BE010E94C216EC01009719F453
:10310000EE24FF2422C0F80120813181225030407A
:10311000B701A9010E94A85FC601B7010E941A1752
:103120007E0113C0C9010497C817D90770F42C1B7E
:103130003D0BF801EC0FFD1F21933193C601BF0138
:103140000E941A17F801D183C083C701DF91CF9184
:103150001F910F91FF90EF90DF90CF90BF90AF90B5
:103160000895BE01621B730B4D915C911197461738
:10317000570708F08CCFBDCF0F931F93CF93DF93EA
:10318000162F072F0E94C216EC01009731F060E065
:1031900070E0412F502F0E94B15FCE01DF91CF919F
:1031A0001F910F910895CF93DF93DC01EB015896A7
:1031B0007C936E93579715961C921E9214970FB698
:1031C000F8940F92E881F9818FEFEF3FF80761F4EF
:1031D00014968D919C911597019615969C938E93BC
:1031E0001497E0E0F0E015C0309799F00F900FBE13
:1031F00052969C91529707C0EF0122960280F3816C
:10320000E02D309719F082899817B0F70FB6F8942F
:103210000F921396FC93EE931297B983A88312969C
:10322000ED91FC911397309791F084819581892BD2
:1032300071F014962D913C91159784819581820FA0
:10324000931F15969C938E931497158214820F905A
:103250000FBEDF91CF910895CF93DF93DC01EB0197
:103260000FB6F8940F92E881F9810F900FBE8FEF9F
:10327000EF3FF80799F534C0EA17FB0751F50FB691
:10328000F8940F9212968D919C911397998388834D
:1032900014968D919C911597892B81F01296ED9142
:1032A000FC911397309731F014968D919C9115975E
:1032B0009583848315961C921E9214970F900FBECF
:1032C00013961C921E92129758961C921E92579714
:1032D00007C0EF0122960280F381E02D309761F65E
:1032E000DF91CF910895FB01168A158A82E08787C6
:1032F000CB0167E579E00E94D31808950F931F93DF
:10330000CF93DF938C010097B1F0C0915509D09114
:1033100056090CC0CE010696B8010E94B85F00970E
:1033200011F49E010CC00990D881C02D209791F70F
:1033300020E030E004C02091590930915A09C901B8
:10334000DF91CF911F910F910895E0915B09F0916A
:103350005C09309751F06389748983E599E00E9494
:103360001A1710925C0910925B090895CF93DF93AE
:10337000C0915509D09156090E94A519409159094B
:1033800050915A09E5E5F9E00BC028813981C4174D
:10339000D50719F42083318305C0FE01C901EC0172
:1033A000209799F78091590990915A0990935C0957
:1033B00080935B09DF91CF9108950F931F93182F8E
:1033C000E0915909F0915A090289CF0167E579E046
:1033D0000E942C19E0915909F0915A09128B1F3F54
:1033E00031F0CF0167E579E00E94D31802C00E9456
:1033F000B619E0915909F0915A09809157099091B5
:103400005809E817F90719F481E0878709C082E0B5
:1034100087870FB6F8940F920E94AA1F0F900FBED5
:10342000802F1F910F9108958FEF0E94DD1908954D
:10343000CF93DF93C0915509D091560920C00FB6A4
:10344000F8940F928C819D810F900FBE892BA1F073
:10345000EF89F88D0FB6F8940F928C819D810197BA
:103460009D838C830F900FBE808191818F5F9F4FD2
:1034700019F0CF010E94C51D0990D881C02D209759
:10348000F1F60E94BF1CE0915909F0915A09809110
:10349000570990915809E817F90761F0878581303D
:1034A00011F482E087870FB6F8940F920E94AA1F4A
:1034B0000F900FBEDF91CF910895E0915909F091DF
:1034C0005A0982819381892B69F0CF0167E579E000
:1034D0000E942C198091590990915A0967E579E069
:1034E0000E94D3180E94181A089580916309909140
:1034F0006409A0916509B09166090196A11DB11DED
:103500008093630990936409A0936509B093660959
:10351000089520915D0930915E0940915F095091B5
:1035200060090E94145F28EE33E040E050E00E9402
:10353000535FC901DA0104C000000197A109B10974
:103540000097A105B105C1F7089590E0A0E0B0E0B3
:10355000BC01CD0128EE33E040E050E00E94145F52
:103560000E94891A0895CF93DF93EC011B821A827F
:10357000E0916109F091620923C0288539854A8567
:103580005B8580859185A285B385281739074A0711
:103590005B0748F4821B930BA40BB50B80879187C4
:1035A000A287B3870FC0281B390B4A0B5B0B2887F8
:1035B00039874A875B87FB83EA830190F081E02D9E
:1035C0003097D9F6F983E883309711F0D383C2831B
:1035D000EA81FB81309719F0D183C08304C0D09376
:1035E0006209C0936109DF91CF910895CF93DF9372
:1035F000FC01148215821682178215861486808536
:103600009185A285B3850097A105B10561F1A281DD
:10361000B38180819181109719F08D939C9304C0A0
:103620009093620980936109C081D1812097A1F0B4
:10363000828193819B838A8388859985AA85BB85AE
:103640002085318542855385820F931FA41FB51FA6
:1036500088879987AA87BB8710861186128613866A
:10366000CF010E94B31ADF91CF9108950FB6F8945D
:103670000F9220916309309164094091650950913E
:1036800066090F900FBEB901CA01089560918208C2
:103690007091830880918408909185086115710567
:1036A0008105910569F480E090E00E948520906892
:1036B00060938208709383088093840890938508B0
:1036C0009B01AC015F77B901CA010895109282088D
:1036D00010928308109284081092850880E090E090
:1036E00008952F923F924F925F926F927F928F92A6
:1036F0009F92AF92BF92CF92DF92EF92FF920F9381
:103700001F930FB6F8940F92E0906309F09064094C
:1037100000916509109166090F900FBE0E948E20DE
:103720009B01AC01C801B7010E94535F522E432E8A
:10373000342E252E0E948E205B016C010E948E206B
:103740003B014C01652D742D832D922DA601950111
:103750000E94145FE61AF70A080B190BC801B7019B
:1037600028EE33E040E050E00E94145FA401930192
:103770000E94535F79018A01652D742D832D922D4E
:1037800028EE33E040E050E00E94145FE60EF71EA2
:10379000081F191FB701C8011F910F91FF90EF90EB
:1037A000DF90CF90BF90AF909F908F907F906F9061
:1037B0005F904F903F902F900895EF92FF920F935C
:1037C0001F930FB6F8940F92E0906309F09064098C
:1037D00000916509109166090F900FBE0E948E201E
:1037E0009B01AC01C801B7010E94535FCA01B90136
:1037F0001F910F91FF90EF900895AF92BF92CF92DB
:10380000DF92EF92FF920F93CF93DF936B017C01D6
:10381000EA01590183E599E060E170E00E94C21677
:10382000FC01009781F10FB6F8940F928091630923
:1038300090916409A0916509B09166090F900FBE3F
:1038400020917E0830917F08409180085091810836
:10385000821B930BA40BB50B8C0D9D1DAE1DBF1DC4
:1038600080879187A287B38700FF05C014821582E5
:103870001682178204C0C482D582E682F782D58779
:10388000C487B786A686CF01DF91CF910F91FF90B5
:10389000EF90DF90CF90BF90AF9008950F93CF93AC
:1038A000DF930E94FD1BEC01009711F00E94B31AF8
:1038B000CE01DF91CF910F910895CF92DF92EF92D9
:1038C000FF920F937A0169010E949320A70196014C
:1038D0000E944E1C0F91FF90EF90DF90CF900895C3
:1038E000AF92BF92CF92DF92EF92FF920F93CF935E
:1038F000DF935B016C01611571058105910599F1FB
:10390000C7E5D9E08091590990915A09BE010E94FA
:103910002C19E0905909F0905A0983E0F701878744
:10392000C601B50143E759E1970101E00E945D1C22
:10393000F701968B858B892B19F00E94181A15C0F8
:10394000E0915909F0915A09D08FC78B809157099E
:10395000909158099383828381E08787F093580977
:10396000E093570902C00E945D1ADF91CF910F9139
:10397000FF90EF90DF90CF90BF90AF900895EF92BF
:10398000FF920F931F93CF93DF930FB6F8940F928C
:10399000209163093091640940916509509166094D
:1039A0000F900FBE80917E0890917F08A0918008B3
:1039B000B091810879018A01E81AF90A0A0B1B0BF8
:1039C00020937E0830937F084093800850938108AD
:1039D00051C088859985AA85BB85E816F9060A072E
:1039E0001B0760F48E199F09A00BB10B888799877C
:1039F000AA87BB87EE24FF24870108C0E81AF90ACA
:103A00000A0B1B0B188619861A861B8688859985D2
:103A1000AA85BB850097A105B10561F5EC85FD85FB
:103A2000309721F06E857F85CE010995E09161097F
:103A3000F09162090190F081E02DF0936209E0932A
:103A40006109309711F0138212828C819D81AE81C1
:103A5000BF8188879987AA87BB870097A105B10591
:103A600031F483E599E0BE010E941A1703C0CE012C
:103A70000E94B31AC0916109D0916209209731F078
:103A8000E114F1040105110509F0A3CFDF91CF91F5
:103A90001F910F91FF90EF900895CF92DF92EF92D8
:103AA000FF920F931F9385E79AE10E94C12087B789
:103AB000826087BF0FB6F8940F922091630930910E
:103AC000640940916509509166090F900FBE0FB6C9
:103AD000F8940F928091630990916409A09165090F
:103AE000B09166090F900FBE281739074A075B0788
:103AF00071F30FB6F8940F92E0906309F0906409A7
:103B000000916509109166090F900FBE20915D0923
:103B100030915E0940915F09509160090FB6F894A9
:103B20000F928091630990916409A0916509B09109
:103B300066090F900FBEF901D42EC52E2F5F3F4F9F
:103B40004F4F5F4FE816F9060A071B0739F3BF010D
:103B50008D2D9C2D27E630E040E050E00E94145F60
:103B60002AE130E040E050E00E94535F20935D097D
:103B700030935E0940935F09509360091F910F9144
:103B8000FF90EF90DF90CF900895CF93DF93DC010B
:103B90000FB6F8940F92CD91DC9111970F900FBE54
:103BA0008FEFCF3FD80709F43AC0209771F10FB6D5
:103BB000F8940F92EA81FB811196FC93EE938C812D
:103BC0009D81892B71F0309729F08C819D8195839F
:103BD000848305C08FEF9FEF11969C938E931D8277
:103BE0001C820F900FBE8D899E89009721F00E9444
:103BF000F61A1E8A1D8A82E08F87CE0167E579E07A
:103C00000E94D31821E030E00CC00FB6F8940F9258
:103C10008FEF9FEF11969C938E930F900FBE20E035
:103C200030E0C901DF91CF9108950F931F93CF9397
:103C3000DF938C010FB6F8940F92FC018081918183
:103C40000F900FBEFFEF8F3F9F0749F40FB6F89418
:103C50000F92F801118210820F900FBE02C0892BC3
:103C600019F4C0E0D0E013C0C0E0D0E0C8010E9469
:103C7000C51DC80FD91F0FB6F8940F92F8018081A7
:103C800091810F900FBE01978E5F9F4F78F3CE0109
:103C9000DF91CF911F910F9108950F931F930E9471
:103CA000151E182F092F0E945D1A812F902F1F912A
:103CB0000F9108950F931F930E94C51D182F092F70
:103CC0000E945D1A812F902F1F910F910895CF931D
:103CD000DF93AC01DB010FB6F8940F92CD91DC912C
:103CE00011970F900FBE8FEFCF3FD80799F534C0D3
:103CF0008D899E892A813B818417950741F50FB6EE
:103D0000F8940F9211963C932E938C819D81892B70
:103D100081F0EA81FB81309729F08C819D81958328
:103D2000848305C08FEF9FEF11969C938E931D8225
:103D30001C820F900FBE82E08F87CE0167E579E08D
:103D40000E94D3188FEF9FEF9E8B8D8B05C0DE01F5
:103D50001296E901209761F6DF91CF910895CF92F5
:103D6000DF92EF92FF920F931F93CF93DF938C011B
:103D70006A017B010FB6F8940F92FC01808191815A
:103D80000F900FBE8F5F9F4F59F40FB6F8940F92AC
:103D9000F801118210820F900FBE0E945D1A32C08E
:103DA0008091590990915A0967E579E00E942C1990
:103DB0008091590990915A09B8010E94D318C09175
:103DC0005909D0915A0983E08F87C114D104E104C5
:103DD000F10459F0C701B60147E65EE1980101E040
:103DE0000E945D1C9E8B8D8B02C01E8A1D8A0E94C4
:103DF000181AE0915909F0915A09858996898F5FBF
:103E00009F4F19F020E030E004C0168A158A2FEF8A
:103E10003FEFC901DF91CF911F910F91FF90EF907C
:103E2000DF90CF900895FC010FB6F8940F92808137
:103E300091818F5F9F4F11F4118210820F900FBEFE
:103E4000CF010E94AF1E08950F931F93CF93DF936E
:103E50008C01C0918608D09187080AC0CE010296D5
:103E6000B8010E94B85F009729F00990D881C02D51
:103E70002097A1F7CE01DF91CF911F910F91089567
:103E8000CF93DF93EC016115710511F07D876C878D
:103E900041114E87CE0102960E94241F892BA9F45E
:103EA000EB89FC89309721F0CE010995892B69F4C3
:103EB000809186089091870899838883D09387089A
:103EC000C093860820E030E002C02FEF3FEFC90129
:103ED000DF91CF91089583E1809367098FE493E5A3
:103EE000909369098093680980E090E067E679E043
:103EF00043E150E00E94D632089580E090E067E60A
:103F000079E043E150E00E94D932892B89F4809115
:103F10006709833169F488E699E065ED72E042E073
:103F200050E00E949B5F009719F420E030E008C049
:103F30008AE699E068ED72E00E94C15F2FEF3FEFE3
:103F4000C90108959F918F910F900BBE0F900FBEE6
:103F50001F9018952F923F924F925F926F927F928F
:103F60008F929F92AF92BF92CF92DF92EF92FF9289
:103F70000F931F93CF93DF938DB79EB7E0915909AD
:103F8000F0915A09918B808BE0915709F091580973
:103F9000F0935A09E093590981E0878780899189D4
:103FA0008DBF9EBFDF91CF911F910F91FF90EF903A
:103FB000DF90CF90BF90AF909F908F907F906F9049
:103FC0005F904F903F902F900895AF92BF92CF9205
:103FD000DF92EF92FF920F931F93CF93DF93F82E10
:103FE000E92E6B01B42EA52EE901B901675E7F4F62
:103FF00083E599E00E94C216FC01009719F420E0C5
:1040000030E077C0C80FD91FAE0147505040BE0105
:104010006B5170408E010A5F1F4F8F2D9E2D9C01AA
:1040200088E0D9010D909D01D8010D928D0181503C
:10403000C1F71E8661507040798B688B6F5F7F4F30
:10404000FC8BEB8B8FEE9EEBADEABEED8083918314
:10405000A283B38384839583A683B7838087918764
:10406000A287B38784879587A687B78780E48A8BE2
:10407000FA01D582C68280E8838312821482B182DB
:10408000A08282EA9FE1DB0152969C93529753965D
:104090008C93809155099091560999838883D09388
:1040A0005609C093550982E08F871E8A1D8A188E93
:1040B0001F8ACE0167E579E00E94D318E091590983
:1040C000F0915A09309721F40FB6F8940F925CCF13
:1040D0008091570990915809E817F90749F082E053
:1040E00087870FB6F8940F920E94AA1F0F900FBEF9
:1040F0009E01C901DF91CF911F910F91FF90EF9029
:10410000DF90CF90BF90AF90089560918808709134
:10411000890880918A0890918B08089560E074E086
:1041200080E090E00895603020E872072EE3820777
:1041300020E0920770F028EE33E040E050E00E946B
:10414000535F6AE0220F331F441F551F6A95D1F752
:1041500015C02AE0660F771F881F991F2A95D1F78F
:1041600069517C4F8F4F9F4F28EE33E040E050E085
:104170000E94535FC901DA019C01AD01B901CA0176
:104180000895BC0187B78D7F87BF80B7886080BFE7
:1041900012BE82E083BF80B790E087709070892B59
:1041A000D1F781E086BF0FB6F8940F9281E090E0DE
:1041B000A0E0B0E0B6B7B170E9F3B6BF0894811DD6
:1041C000911DA11DB6B7B170C9F3BB270F900FBEEB
:1041D000E7E0880F991FAA1FBB1FEA95D1F78093CC
:1041E000880890938908A0938A08B0938B0887B7B2
:1041F0008D7F87BF80B7886080BF12BE89E083BF94
:104200008FE181BF80B790E087709070892BD1F7E4
:1042100082E086BF81EE92E040E050E00E94712B88
:1042200008959C01FB0147B7427087B78D7F87BF18
:1042300020313105D1F0213131053CF42115310512
:1042400081F02130310551F40DC02231310569F181
:1042500022313105DCF020323105D9F02FEF3FEF6C
:104260001EC040E082E086BF18C006B601FE05C051
:1042700081E090E09183808302C011821082442308
:10428000A1F08081918180689183808320E030E07B
:1042900008C08EE090E09183808320E030E04423EA
:1042A00031F087B7826087BF02C020E030E0C901EB
:1042B00008951F920F920FB60F920BB60F92112412
:1042C0002F933F934F935F936F937F938F939F931E
:1042D000AF93BF93EF93FF9381EE92E00E94662B22
:1042E000FF91EF91BF91AF919F918F917F916F91CE
:1042F0005F914F913F912F910F900BBE0F900FBE8A
:104300000F901F901895FC016281738120918D0898
:10431000422F50E0CA0180739070892B89F024FFEE
:1043200004C083E18CB9206403C081E18CB92F7B88
:1043300020938D0880918D088F7C80938D0808953F
:1043400027FF02C05598089582859385892B89F1AE
:104350008285938501979387828780918E08882331
:1043600011F0509A01C05098DB018D918CB9868173
:104370009781A817B90711F4A481B581B383A283EB
:1043800022853385848595852817390759F5A089B5
:10439000B1891097A9F08FEFAF3FB80719F11496C4
:1043A0008D919C911597019615969C938E931497D9
:1043B0000895559813861286A089B189109729F41B
:1043C0008FEF9FEF918B808B08958FEFAF3FB807F2
:1043D00049F014968D919C911597019615969C9392
:1043E0008E9314970895CF93DF93282F5BB180911C
:1043F0008C08582B50938C086CB140918D08442345
:1044000061F0633119F45598406804C0613129F4B2
:10441000559A4F7740938D085DC0A22FB92F1A96F9
:104420002D913C911B9718968D919C911997281767
:10443000390720F0586050938C084CC0E901219650
:10444000232BB9F45096ED91FC915197309739F4A4
:104450008FEF9FEF51969C938E9350971FC08FEFD5
:10446000EF3FF807D9F08481958101969583848385
:1044700015C0442399F01E968D919C911F97C817E3
:10448000D90760F046FD0AC05D9B05C083E18CB989
:1044900040644F7D01C0406240938D08ED91FC91D6
:1044A000119761931196FC93EE932D913C91119786
:1044B00016968D919C9117972817390739F4149601
:1044C0008D919C91159711969C938E931B96DC93DE
:1044D000CE931A97DF91CF910895529B02C089E045
:1044E00008958091950082FF08C08091950081FD1C
:1044F00002C087E0089588E008958091950081FDCD
:1045000002C085E0089586E008958091950085FDBC
:1045100002C080E008958091950084FD02C082E091
:10452000089581E008958091950083FD02C081E0A7
:10453000089582E0089580918C08682F70E0CB0187
:1045400024E0969587952A95E1F79C0140E050E09C
:10455000217030704070507063FD226062FD2460F5
:1045600080918D08882321F086FD426087FD486098
:1045700041FF416043FF446080918E08882321F011
:10458000CA01B901806403C0CA01B9018068589B9F
:1045900004C09B01AC01406103C09B01AC014062BF
:1045A000B901CA010895EF92FF920F931F937B0107
:1045B0008C0180918D088823D9F00FB6F8940F9262
:1045C00000FF02C08F7B03C001FF03C080648093A3
:1045D0008D0802FF04C080918D088F7705C003FF0E
:1045E00005C080918D08806880938D080F900FBE64
:1045F00006FF03C081E080938E0807FF02C010927F
:104600008E0804FD589A05FD5898C7018170907076
:10461000892B29F080918C088F7E80938C08E1FE95
:1046200005C080918C08877F80938C08E2FE05C0CE
:1046300080918C088B7F80938C080E949B22687FDE
:104640006E157F058007910719F420E030E002C065
:104650002FEF3FEFC9011F910F91FF90EF90089549
:104660008091950086FF0BC0129B02C093E001C0B1
:1046700091E08091950080FF07C0946005C0599B30
:1046800002C090E201C090E0892F089580918D08CA
:10469000882329F420E030E040E050E004C020E22C
:1046A00030E040E050E0B901CA010895EF92FF9276
:1046B0000F931F937B018C0165FF0DC080918D08C6
:1046C000882381F40FB6F8940F9281E480938D08CB
:1046D0000F900FBE07C00FB6F8940F9210928D087E
:1046E0000F900FBE80918D08882329F420E030E0E0
:1046F00040E050E004C020E230E040E050E02E1501
:104700003F054007510719F420E030E002C02FEFC9
:104710003FEFC9011F910F91FF90EF900895559AB7
:10472000089590918D089923A9F096FF13C00FB6B4
:10473000F8940F925D9B04C081E18CB99F7E01C00B
:10474000906190938D0880918D088F7980938D086A
:104750000F900FBE08950FB6F8940F925798569881
:1047600055980F900FBE8AE00E94A51A549853984E
:1047700008951F93182F0E94AB23812F10FF15C09F
:1047800011FF02C0129A01C0129882FF04C08091EA
:104790009500816003C0809195008E7F8093950085
:1047A00059988091950080640DC015FF02C0599AF8
:1047B00001C05998809195008E7F809395008091DB
:1047C00095008F7B809395000FB6F8940F9288EB3D
:1047D0008AB90F900FBE0E943023811719F420E090
:1047E00030E002C02FEF3FEFC9011F9108951F93E2
:1047F000182F0E94AB23113021F480919500877F00
:1048000005C0123029F4809195008860809395004E
:104810000FB6F8940F9288EB8AB90F900FBE809173
:10482000950083FD02C081E001C082E0811719F488
:1048300020E030E002C02FEF3FEFC9011F91089543
:104840001F93182F0E94AB23113071F0113018F014
:104850001230C1F40DC0809195008F7E8093950039
:10486000809195008F7D0CC080919500806103C080
:10487000809195008F7E8093950080919500806255
:10488000809395000FB6F8940F9288EB8AB90F9039
:104890000FBE0E948522811719F420E030E002C08B
:1048A0002FEF3FEFC9011F9108951F93182F0E940A
:1048B000AB235298809195008D7F809395008091D5
:1048C00095008B7F809395001730A1F0183018F475
:1048D0001630A9F405C0183041F0193081F404C035
:1048E00080919500826009C0529A80919500826003
:1048F00080939500809195008460809395000FB619
:10490000F8940F9288EB8AB90F900FBE0E946D2227
:10491000811719F420E030E002C02FEF3FEFC9010A
:104920001F9108958F929F92AF92BF92CF92DF9284
:10493000EF92FF920F931F9399B080909000809117
:10494000950086FF06C052E0A52EB12CC12CD12CBB
:104950000DC0599906C040E1A42EB12CC12CD12C18
:1049600005C038E0A32EB12CC12CD12C0E94461BCF
:104970007B018C01892D90E0382D20E0282B392BEC
:1049800040E050E02F5F3F4F4F4F5F4FC601B501F2
:104990000E94145F9B01AC01C801B7010E94535FE4
:1049A000CA01B9011F910F91FF90EF90DF90CF9056
:1049B000BF90AF909F908F900895EF92FF920F93CA
:1049C0001F937B018C010E94AB238091950086FD93
:1049D00011C0599B08C0E2E0EE0CFF1C001F111F24
:1049E000EA95D1F707C073E0EE0CFF1C001F111F02
:1049F0007A95D1F70E94461BA80197010E94535F48
:104A00002F5F3F4F4F4F5F4F5695479537952795EF
:104A10002150304029B9309390000FB6F8940F928E
:104A200088EB8AB90F900FBE80E090E01F910F9144
:104A3000FF90EF9008958CEB93E060E070E040E031
:104A400050E00E94712B82EC93E060E070E040E067
:104A500050E00E94712B80E090E008958CEB93E091
:104A600063EF71E24CE253E00E94712B892BA9F4B1
:104A700082EC93E063E871E24AE153E00E94712B1B
:104A8000892B19F420E030E00AC08CEB93E060E061
:104A900070E040E050E00E94712B2FEF3FEFC90122
:104AA0000895F82F83E080930EC0809108C0827F24
:104AB000482F486090E0E82FE960782F7D60E09310
:104AC00008C0709308C09F5F9132C9F7409308C037
:104AD000542F5460509308C0E09308C0709308C0EE
:104AE000662349F0409308C0509308C0E09308C083
:104AF000709308C008C0E09308C0709308C040934A
:104B000008C0509308C080E0409308C0509308C08C
:104B10008F5F8530C9F790E120E030E0892F8F2347
:104B200029F0E09308C0709308C004C0409308C007
:104B3000509308C096952F5F3F4F2530310571F790
:104B4000409308C0842F089560E00E945125582F9B
:104B5000577F509308C0652F6460609308C020E0C1
:104B600030E040E0509308C0609308C0220F331F2C
:104B7000809108C090E09695879581709070282B61
:104B8000392B4F5F403171F7509308C0C901089528
:104B9000CF93DF93EB0161E00E945125482FF82F5E
:104BA000F160F09308C0E82FE560E09308C08093BF
:104BB00008C0582F5460509308C060E070E820E0AF
:104BC00030E0CB018C239D23892B29F0F09308C082
:104BD000E09308C004C0409308C0509308C0769585
:104BE00067952F5F3F4F2031310559F7477F40933D
:104BF00008C0DF91CF910895CF93DF93FC01C18965
:104C0000D2898C859D85AE85BF850196A11DB11D7C
:104C10008C879D87AE87BF8792E090930EC02091CE
:104C20000DC010920DC080910CC08223382F82FFDE
:104C300005C084E080930CC02B7F14C081FF12C09C
:104C400010920EC0809100C08160809300C080915E
:104C500000C0109201C090930EC090930CC080EAE7
:104C6000809300C034FF18C080E180930CC088811D
:104C70009981892B29F48FEF9FEF998388830CC04A
:104C8000888199818F5F9F4F39F0E881F981848114
:104C9000958101969583848336FF18C080E48093C4
:104CA0000CC088819981892B29F48FEF9FEF99831C
:104CB00088830CC0888199818F5F9F4F39F0E8818C
:104CC000F9818481958101969583848330FF19C091
:104CD00081E080930CC02E7F88819981892B29F4F3
:104CE0008FEF9FEF998388830CC0888199818F5FB4
:104CF0009F4F39F0E881F9818481958101969583F0
:104D0000848333FF17C0277FE0919108F0919208C8
:104D1000309739F48FEF9FEF90939208809391082A
:104D200009C04FEFEF3FF40729F084819581019688
:104D30009583848320930DC0DF91CF910895582FE0
:104D40006115710589F061507040472F6F5F7F4F8B
:104D50009C01F901650F8191809308C06E17D9F706
:104D6000442311F04150F7CF0895CF92DF92EF9294
:104D7000FF920F931F93DF93CF9300D000D000D00A
:104D8000CDB7DEB7FC018A01E784F088C188D288FC
:104D900080E16530780729F06750704109F057C00D
:104DA00009C0D7011596FA0186E001900D92815055
:104DB000E1F74AC081E089831A828EE58B83FA018C
:104DC00081818F778C8382818D8383818E838CE038
:104DD00090E00E947E5A9C010097C9F187E090E024
:104DE000A0E0B0E04FEFF601E81BF90B47A30197F5
:104DF000A109B109C1F7D9011296FE01319686E0E9
:104E000001900D928150E1F7F80180819181A2819A
:104E1000B381F90180879187A287B387F701858DD8
:104E2000968DF90191838083F701368F258F83E07A
:104E300080930EC0F601A0E0B0EC80A18D93319676
:104E400080ECA730B807C9F720E030E002C02FEFB0
:104E50003FEFC90126960FB6F894DEBF0FBECDBF57
:104E6000CF91DF911F910F91FF90EF90DF90CF9046
:104E70000895CF93DF93EC0189B78F7D89BFE989CE
:104E8000FA8988E2DF011D928A95E9F786EB93E0C3
:104E90006CEF75E2AE010E94712B892B19F02FEF98
:104EA0003FEF0BC083E693E069E778E2AE0120E0D4
:104EB00031E00E94E51F20E030E0C901DF91CF9191
:104EC0000895CF93DF93EC0107C0809100C080FF6D
:104ED00008C081E00E94A51A21978FEFCF3FD80725
:104EE000A1F7CD2B19F42FEF3FEF02C020E030E007
:104EF000C901DF91CF910895BF92CF92DF92EF92D7
:104F0000FF920F931F93CF93DF93EC017B014091AE
:104F10008B0350918C0360918D0370918E038FE809
:104F200098E00E94AF1E892B09F0CAC0C988BA88D0
:104F3000F7010585168581859285080F191F8189DE
:104F40009289080F191FF5E00D3D1F0708F0B1C049
:104F5000D0900DC010920DC082E080930EC080E210
:104F6000809300C084E690E00E946127892B09F0BD
:104F7000A0C088E0D82AD0920DC0F701C581D681A3
:104F80002696C00FD11FC0FD02C000E02AC02196A6
:104F900001E027C081E998E04DE750E060E070E073
:104FA0000E94AF1E892B01F1D09200C088EE93E0E1
:104FB0000E946127109300C084E690E00E94612760
:104FC000892B21F480910CC083FD0EC081E998E00B
:104FD0004DE750E060E070E00E94AF1E892B21F0A9
:104FE00068C0B0E4DB2E10E280910CC083FFD2CF0A
:104FF00010910DC010920DC0809103C0809302C02B
:10500000109206C080E4809307C0109208C01092EE
:1050100008C0C09308C0D09309C0F70165817681AC
:10502000838194810E949F26F70161857285878123
:1050300090850E949F26F7016585768583859485F6
:105040000E949F26F70161897289878590890E9455
:105050009F26002311F0109208C0109208C01092F1
:1050600009C084E690E00E946127892B11F5EC2DA0
:10507000FB2D80EC809300C0166010930DC08085DE
:105080009185A285B3850196A11DB11D8087918769
:10509000A287B38788E893E1A0E0B0E080938B0318
:1050A00090938C03A0938D03B0938E03C0E0D0E067
:1050B00002C0CFEFDFEF8FE898E00E945A1E0EC0CB
:1050C00084EF91E0A0E0B0E080938B0390938C0399
:1050D000A0938D03B0938E03CFEFDFEFCE01DF916E
:1050E000CF911F910F91FF90EF90DF90CF90BF90E5
:1050F00008955C01DC011F96CD90DC90509751968D
:105100006D907C90529706C06AE070E080E090E07D
:105110000E94701CF60125818681822B9781892B44
:105120009085892B9185892B9285892B69F320FDA8
:10513000EBCFA0E8FA2E11E008E0F2E03F2EE0E429
:105140004E2E73E0572E67E0862E51E8952E40E1F3
:10515000E42E10920DC010920EC0109204C0F09276
:1051600005C010930EC0109200C0F09201C08AE0FA
:105170000E94A51A10920EC0109204C0109205C091
:10518000109200C0109201C010930EC010920CC07B
:1051900000930DC030920EC0409200C088EE93E0A4
:1051A0000E946127892B09F083C0FEC06FE370E085
:1051B00080E090E00E94701C80E00E94A42597FF90
:1051C00006C0C430D10509F473C02196EFCF82E147
:1051D0000E94A42583E160EC7FE30E94C825109221
:1051E0000EC0E0920AC000930BC084E061EE71E053
:1051F0000E94C8256FE370E080E090E00E94701C80
:10520000C0E0D0E0CE018F779070892B59F480E018
:1052100060E072E10E94C8256FE370E080E090E0FA
:105220000E94701C81E00E94A42585FDD3C06FE31D
:1052300070E080E090E00E94701C2196F4E0C030A5
:10524000DF0701F735C015968C911597819311965C
:1052500020ECEA30F207B9F783E080930EC0D30167
:10526000E0E0F0EC90968C9190978193119680EC11
:10527000E730F807B9F782E080930EC081E58093AC
:105280000DC08AB784608ABF8AB788608ABF89B731
:10529000806289BF8FE898E00E945A1E89E00E94D0
:1052A000DD1932E0432E20EE522E90E8892E07C001
:1052B00068EE73E080E090E00E94701C4ACFC3016A
:1052C00040ED57E060E070E00E94AF1E90900DC08E
:1052D00010920DC018C0AFEFCF3FDA07A1F0F30175
:1052E00084819581A681B7810196A11DB11D84831A
:1052F0009583A683B783D6015F96ED91FC91909735
:10530000C501BE01099540920EC0809104C09091E4
:1053100005C097FD44C0109206C0509207C000001F
:10532000000000000000809108C0909109C0009129
:1053300008C0109109C080709C7A892B49F5C8017A
:1053400082549040835B954018F58DEFE82E8FEFE7
:10535000F82EE00EF11E80E090E060E1A7010E94CF
:105360007B32EC010097B1F08B819C81EF2891F0AA
:10537000FC01C8010497292F982F01C091508091FA
:1053800008C081939923D1F7222321F02150F6CF31
:10539000CFEFDFEF809200C0209709F09CCFE1E4CF
:1053A0009E2A90920DC08BCF50920EC080920CC05E
:1053B00010920EC0109204C0109305C0909200C0CD
:1053C000109201C080E060E070E80E94C825C0E053
:1053D000D0E0ECCE81E080930EC0D601E4E0F0ECAA
:1053E00032CF9C01FB0149B7407289B78F7D89BFDD
:1053F00021313105C9F1223131054CF4213031051B
:10540000F9F020313105F9F0232BA1F05EC02831ED
:10541000310569F1293131052CF42231310509F0CA
:1054200054C05BC02931310541F12032310509F00A
:105430004CC046C08AB78B7F8ABF8AB7877F8ABF36
:1054400080E288BF34C008B605FE05C081E090E068
:105450009183808302C0118210824423F1F1808104
:10546000918180689183808320E030E032C00AB669
:1054700003FC26C081E090E025C06081718161302D
:10548000710519F48AB78B7F05C06730710531F457
:105490008AB784608ABF8AB7877F08C06530710584
:1054A00049F48AB78B7F8ABF8AB788608ABF20E0B9
:1054B00030E00DC06630710541F48AB78460F3CFE7
:1054C00085E090E091838083F2CF2FEF3FEF44237C
:1054D00031F089B7806289BF02C020E030E0C901A5
:1054E00008951F920F920FB60F920BB60F921124D0
:1054F0002F933F934F935F936F937F938F939F93DC
:10550000AF93BF93EF93FF9386EB93E00E94662BDC
:10551000FF91EF91BF91AF919F918F917F916F918B
:105520005F914F913F912F910F900BBE0F900FBE47
:105530000F901F901895FB014AB140785798803121
:105540009105B9F0813191052CF4009771F0019724
:1055500049F40CC08231910549F182319105CCF0BA
:105560008097D1F02FEF3FEF1DC040E08CB18CB1A0
:1055700017C05F9B05C081E090E09183808302C0EB
:1055800011821082442391F08081918180689183FF
:10559000808320E030E008C080E190E09183808348
:1055A00020E030E0442321F0579A02C020E030E0B0
:1055B000C90108951F920F920FB60F920BB60F926A
:1055C00011242F933F934F935F936F937F938F9308
:1055D0009F93AF93BF93EF93FF938CEB93E00E9465
:1055E000662BFF91EF91BF91AF919F918F917F912A
:1055F0006F915F914F913F912F910F900BBE0F9044
:105600000FBE0F901F901895FB014AB1407255983C
:105610008131910501F1823191052CF4009741F11E
:10562000409731F408C08231910511F18097B1F0B3
:105630002FEF3FEF19C05D9B05C081E090E09183A3
:10564000808302C011821082442391F08081918175
:1056500080689183808320E030E008C080E190E0A2
:105660009183808320E030E0442321F0559A02C0EA
:1056700020E030E0C90108951F920F920FB60F92FB
:105680000BB60F9211242F933F934F935F936F9319
:105690007F938F939F93AF93BF93EF93FF9382EC8E
:1056A00093E00E94662BFF91EF91BF91AF919F9184
:1056B0008F917F916F915F914F913F912F910F90BB
:1056C0000BBE0F900FBE0F901F901895DC01129625
:1056D000ED91FC911397309719F08D919C9109955C
:1056E0000895EF92FF920F931F93CF93DF93EC01F6
:1056F0007B018A01EC81FD81309719F420E030E0D4
:1057000006C080E090E060E070E009959C0119839C
:105710000883FB82EA82C901DF91CF911F910F912B
:10572000FF90EF900895DC011496ED91FC91159790
:10573000309719F42FEF3FEF06C081E190E060E071
:1057400070E009959C01C9010895DC011496ED9162
:10575000FC911597309719F42FEF3FEF06C082E1C7
:1057600090E060E070E009959C01C90108950F93F5
:105770001F93DF93CF9300D000D0CDB7DEB78C015D
:105780007C836B83DC011496ED91FC911597309727
:1057900019F42FEF3FEF19C080E290E0BE016F5F78
:1057A0007F4F09959C01009781F4D8011496ED91E3
:1057B000FC91159781E290E0BE016D5F7F4F0995E6
:1057C0009C01009711F429813A81C9010F900F9033
:1057D0000F900F90CF91DF911F910F9108950F932C
:1057E0001F93DF93CF9300D000D0CDB7DEB78C01ED
:1057F0007C836B83DC011496ED91FC9115973097B7
:1058000019F42FEF3FEF1DC088E190E0BE016F5FFC
:105810007F4F09959C010097A1F48B819C81892B76
:1058200071F0D8011496ED91FC91159789E190E003
:10583000BE016D5F7F4F09959C01009711F429818E
:105840003A81C9010F900F900F900F90CF91DF9187
:105850001F910F9108950F931F93CF93DF93FC0136
:10586000C189D289EDA9FEA909958C01009749F457
:10587000CF5BDF4FE881F98160E072EC81E090E07E
:105880000995C801DF91CF911F910F910895DC0117
:105890001296ED91FC9113970188F289E02D0FB6D5
:1058A000F8940F9284A595A50F900FBEBC0180E0DF
:1058B00090E00895CF92DF92EF92FF920F931F93A3
:1058C000CF93DF93EC018B017A0169018C819D817B
:1058D000288539850FB6F8940F92198618860F908F
:1058E0000FBE2617370789F0232B21F0009711F000
:1058F0000E94785A0115110511F1C8010E947E5AC3
:10590000009731F42FEF3FEF1CC061157105B9F01E
:105910009D838C83998388839B838A83800F911FC7
:105920009F838E83FD86EC86DF86CE861B861A8655
:105930000FB6F8940F92198708870F900FBE20E0DA
:1059400030E0C901DF91CF911F910F91FF90EF904F
:10595000DF90CF900895CF92DF92EF92FF920F9356
:105960001F93CF93DF93FB016A01DA01ED90FD9065
:105970000D911C912E2DDC015196CD91DC91529709
:10598000E150F140ED32F10540F4EA5BFF4FEE0FDC
:10599000FF1F0590F491E02D09940FEF1FEF29C12F
:1059A000CF5BDF4F43C0CD5BDF4F91C0CB5BDF4FA1
:1059B000E881F981822F09958C011BC1C95BDF4FFA
:1059C0000BC0C75BDF4FF4CFC55BDF4F05C0C35BC8
:1059D000DF4FEECFC15BDF4FE881F981099590E0A1
:1059E000FFC0E6FE0DC06AA57BA54EA55FA528A950
:1059F00039A9CE0182960E945A2CEBADFCAD0995D7
:105A0000E7FE0AC0688D798D4C8D5D8D2E8D3F8DA2
:105A1000CE0140960E945A2CCF5ADF4F8FE39FEF62
:105A2000AFEFBFEFE822F9220A231B23E881F981B7
:105A3000C801B7010995C0CFCD5ADF4FE881F98180
:105A4000C355D04009959B01AC01D6016D937D9360
:105A50008D939C9313978CA59DA5892B31F420647D
:105A6000F60120833183428353838A8D9B8D892B5A
:105A700009F0BDC0F60180819181A281B381806867
:105A8000B2C0E886F9860A871B87B1C088859985E8
:105A9000AA85BB85A7C0EC86FD860E871F87A7C099
:105AA0008C859D85AE85BF859DC088819981AA81A1
:105AB000BB81EE2011F080642AC08F7B28C08881D2
:105AC00086FF35C02FC0EDADFEADB2CFEF96E881B9
:105AD000F9810995F601608371838283938387C07E
