:100000000C9428390C946E390C946E390C946E391A
:100010000C946E390C946E390C9446710C946E39B4
:100020000C946E390C946E390C946E390C946E39B4
:100030000C946E390C946E390C946E390C94EE67F6
:100040000C946E390C946E390C94256C0C94876C5E
:100050000C946E390C946E390C946E390C946E3984
:100060000C946E390C946E390C946E390C946E3974
:100070000C946E390C946E390C946E390C946E3964
:100080000C946E390C946E390C946E39DA72DD7200
:10009000E072E872EB72EE72F172F472FB72267328
:1000A0004B73507355735A735F7369736D737073C9
:1000B0007A738473D772D772D772D772A873AB73FF
:1000C000AE73BF73C273CC73D772CF73D773DA7347
:1000D000E273E573ED73F073F873D772D772D7726A
:1000E000D77288739673554E4B4E4F574E00434C04
:1000F0004F5345440054494D4557414954004C41E4
:10010000535441434B00434C4F53494E4700434CDB
:100110004F5345574149540046494E57414954327F
:100120000046494E5741495431003C464F4E5420F9
:10013000434F4C4F523D234343303030303E4553C4
:100140005441424C3C2F464F4E543E0053594E5260
:100150004356440053594E53454E54004C49535452
:10016000454E003C2F5441424C453E3C2F424F44AB
:10017000593E3C2F48544D4C3E003C54443E257360
:100180003A25753C2F54443E3C54443E003C545266
:100190003E3C54443E253034583C2F54443E3C545D
:1001A000443E5443503C2F54443E3C54443E2573FB
:1001B0003A25753C2F54443E003C48544D4C3E3C3F
:1001C000484541443E3C5449544C453E536F636B53
:1001D0006574733C2F5449544C453E3C2F4845416F
:1001E000443E3C424F44593E3C48313E536F636B62
:1001F0006574733C2F48313E0D0A3C5441424C45D6
:1002000020424F524445523E3C54523E3C54483E9C
:1002100048616E646C653C2F54483E3C54483E54E3
:100220007970653C2F54483E3C54483E4C6F6361A6
:100230006C3C2F54483E3C54483E52656D6F74658B
:100240003C2F54483E3C54483E5374617475733C93
:100250002F54483E3C2F54523E0D0A003C2F54412F
:10026000424C453E3C2F424F44593E3C2F48544D52
:100270004C3E003C54523E3C54443E253034583CA5
:100280002F54443E3C54443E256C753C2F54443E10
:100290003C54443E256C753C2F54443E3C54443EF3
:1002A000253034583C2F54443E3C54443E25303491
:1002B000583C2F54443E3C2F54523E0D0A003C54AF
:1002C00041424C4520424F524445523E3C54523EDE
:1002D0003C54483E48616E646C653C2F54483E3C3B
:1002E00054483E436F756E74646F776E3C2F54486C
:1002F0003E3C54483E5469636B2052656C6F6164A8
:100300003C2F54483E3C54483E43616C6C626163F0
:100310006B3C42523E416464726573733C2F544897
:100320003E3C54483E43616C6C6261636B3C42529C
:100330003E417267756D656E743C2F54483E3C2F8C
:1003400054523E0D0A003C48544D4C3E3C484541F9
:10035000443E3C5449544C453E54696D6572733C6F
:100360002F5449544C453E3C2F484541443E3C4265
:100370004F44593E3C48313E54696D6572733C2F81
:1003800048313E0D0A003C2F5441424C453E3C2F23
:10039000424F44593E3C2F48544D4C3E003C545231
:1003A0003E3C54443E253034583C2F54443E3C544B
:1003B000443E25733C2F54443E3C54443E25753CFA
:1003C0002F54443E3C54443E25733C2F54443E3C01
:1003D00054443E253034583C2F54443E3C54443E13
:1003E000253034583C2F54443E3C54443E25303450
:1003F000583C2F54443E3C54443E256C753C2F548D
:10040000443E3C54443E25733C2F54443E3C2F54C0
:10041000523E0D0A003C48544D4C3E3C4845414438
:100420003E3C5449544C453E546872656164733C8B
:100430002F5449544C453E3C2F484541443E3C4294
:100440004F44593E3C48313E546872656164733C88
:100450002F48313E0D0A3C5441424C4520424F52F8
:100460004445523E3C54523E3C54483E48616E64C2
:100470006C653C2F54483E3C54483E4E616D653C93
:100480002F54483E3C54483E5072696F72697479EB
:100490003C2F54483E3C54483E5374617475733C41
:1004A0002F54483E3C54483E4576656E743C42525B
:1004B0003E51756575653C2F54483E3C54483E544A
:1004C000696D65723C2F54483E3C54483E537461FC
:1004D000636B2D3C42523E706F696E7465723C2FA7
:1004E00054483E3C54483E467265653C42523E5339
:1004F0007461636B3C2F54483E3C2F54523E0D0AAE
:100500000055736572206167656E743A2025733CEF
:1005100042523E0D0A004175746820696E666F3A5A
:100520002025733C42523E0D0A00436F6F6B696594
:100530003A2025733C42523E0D0A00436F6E7465AB
:100540006E7420747970653A2025733C42523E0DDA
:100550000A00417267756D656E743A2025733C42DE
:10056000523E0D0A0055524C3A2025733C42523EF1
:100570000D0A004D6574686F643A2025733C425241
:100580003E0D0A56657273696F6E3A204854545096
:100590002F25642E25643C42523E0D0A436F6E7433
:1005A000656E74206C656E6774683A20256C643CD7
:1005B00042523E0D0A003C2F424F44593E3C2F48C8
:1005C000544D4C3E003C48544D4C3E3C4845414403
:1005D0003E3C5449544C453E506172616D657465B2
:1005E00072733C2F5449544C453E3C2F484541447E
:1005F0003E3C424F44593E3C48313E506172616D31
:1006000065746572733C2F48313E0025733A20258E
:10061000733C42523E0D0A003C42523E3C42523E26
:100620003C703E3C6120687265663D222E2E2F692B
:100630006E6465782E68746D6C223E726574757296
:100640006E20746F206D61696E3C2F613E3C2F42BD
:100650004F44593E3C2F48544D4C3E3C2F703E0079
:100660003C48544D4C3E3C424F44593E3C42523E25
:100670003C48313E466F726D20526573756C743C18
:100680002F48313E3C42523E3C42523E003C687450
:100690006D6C3E0D0A20203C686561643E0D0A20A9
:1006A0002020203C7469746C653E415350204465A1
:1006B0006D6F3C2F7469746C653E0D0A20203C2FD1
:1006C000686561643E0D0A0D0A20203C626F647902
:1006D000206267636F6C6F723D2223666666666692
:1006E00066223E0D0A202020203C68313E415350B6
:1006F0002044656D6F3C2F68313E0D0A202020207C
:100700003C7461626C652077696474683D223330A3
:10071000302220626F726465723D2231222063654F
:100720006C6C73706163696E673D22322220636571
:100730006C6C70616464696E673D2230223E0D0A04
:100740002020202020203C74723E0D0A20202020F2
:10075000202020203C746420616C69676E3D226318
:10076000656E746572222077696474683D22313049
:1007700030223E3C623E46756E6374696F6E3C2F5C
:10078000623E3C2F74643E0D0A2020202020202051
:10079000203C746420616C69676E3D2263656E74F1
:1007A0006572222077696474683D22323030223EBF
:1007B0003C623E526573756C743C2F623E3C2F74F4
:1007C000643E0D0A2020202020203C2F74723E0D14
:1007D0000A2020202020203C74723E0D0A20202078
:1007E00020202020203C74642077696474683D22B6
:1007F000313030223E6E75745F76657273696F6E4C
:100800003C2F74643E0D0A20202020202020203C14
:1008100074642077696474683D22323030223E3C33
:10082000256E75745F76657273696F6E253E3C2F19
:1008300074643E0D0A2020202020203C2F74723E3C
:100840000D0A2020202020203C74723E0D0A20201A
:100850002020202020203C74642077696474683D47
:1008600022313030223E6E75745F6D61635F61646A
:1008700064723C2F74643E0D0A202020202020202A
:10088000203C74642077696474683D2232303022E1
:100890003E3C256E75745F6D61635F6164647225B3
:1008A0003E3C2F74643E0D0A2020202020203C2F47
:1008B00074723E2020202020200D0A20202020209D
:1008C000203C74723E0D0A20202020202020203C55
:1008D00074642077696474683D22313030223E6E42
:1008E00075745F69705F616464723C2F74643E0D5F
:1008F0000A20202020202020203C74642077696476
:1009000074683D22323030223E3C256E75745F693A
:10091000705F61646472253E3C2F74643E0D0A2052
:1009200020202020203C2F74723E0D0A2020202001
:1009300020203C74723E0D0A202020202020202000
:100940003C74642077696474683D22313030223E03
:100950006E75745F69705F6D61736B3C2F74643E7C
:100960000D0A20202020202020203C74642077695C
:100970006474683D22323030223E3C256E75745FCF
:1009800069705F6D61736B253E3C2F74643E0D0A88
:100990002020202020203C2F74723E0D0A20202091
:1009A0002020203C74723E0D0A2020202020202090
:1009B000203C74642077696474683D2231303022B1
:1009C0003E6E75745F676174657761793C2F7464FE
:1009D0003E0D0A20202020202020203C7464207717
:1009E000696474683D22323030223E3C256E757455
:1009F0005F67617465776179253E3C2F74643E0DB5
:100A00000A2020202020203C2F74723E0D0A202036
:100A1000202020203C74723E0D0A2020202020201F
:100A200020203C74642077696474683D2231303042
:100A3000223E7573725F646174653C2F74643E0D71
:100A40000A20202020202020203C74642077696424
:100A500074683D22323030223E3C257573725F64EB
:100A6000617465253E3C2F74643E0D0A20202020D1
:100A700020203C2F74723E0D0A2020202020203C94
:100A800074723E0D0A20202020202020203C746417
:100A90002077696474683D22313030223E7573726C
:100AA0005F74696D653C2F74643E0D0A2020202020
:100AB000202020203C74642077696474683D2232D1
:100AC0003030223E3C257573725F74696D65253E3A
:100AD0003C2F74643E0D0A2020202020203C2F74DF
:100AE000723E0D0A202020203C2F7461626C653E0E
:100AF0000D0A20203C2F626F64793E0D0A3C2F685E
:100B0000746D6C3E6173702E617370004749463896
:100B10003961A8003900F7FF00000000C0C0C0FE26
:100B2000FEFEFDFDFDFCFCFCFAFAFAF9F9F9F8F815
:100B3000F8F7F7F7F6F6F6F5F5F5F4F4F4F3F3F362
:100B4000F1F1F1F0F0F0EFEFEFEEEEEEEDEDEDECB8
:100B5000ECECEBEBEBEAEAEAE8E8E8E7E7E7E6E605
:100B6000E6E5E5E5E4E4E4E3E3E3E2E2E2E1E1E152
:100B7000E0E0E0DEDEDEDDDDDDDCDCDCDBDBDBDAA5
:100B8000DADAD9D9D9D8D8D8D7D7D7D6D6D6D5D5ED
:100B9000D5D3D3D3D2D2D2D0D0D0CECECECDCDCD50
:100BA000CCCCCCCBCBCBC8C8C8C7C7C7C5C5C5C4C0
:100BB000C4C4C3C3C3C2C2C2C1C1C1C0C0C0BFBF1D
:100BC000BFBEBEBEBDBDBDBCBCBCBABABAB9B9B968
:100BD000B8B8B8B7B7B7B6B6B6B5B5B5B4B4B4B3B8
:100BE000B3B3B1B1B1B0B0B0AFAFAFAEAEAEADAD0B
:100BF000ADACACACABABABA9A9A9A8A8A8A6A6A65E
:100C0000A5A5A5A3A3A3A1A1A19F9F9F9E9E9E9DD5
:100C10009D9D9C9C9C9B9B9B9A9A9A99999998982C
:100C20009897979796969695959594949493939371
:100C30009292929191919090908E8E8E8D8D8D8CBE
:100C40008C8C8B8B8B8A8A8A89898988888887870C
:100C50008786868685858584848483838382828251
:100C60008181818080807F7F7F7E7E7E7D7D7D7C97
:100C70007C7C7B7B7B7A7A7A7878787777777676E4
:100C80007675757574747473737372727271717131
:100C90007070706E6E6E6D6D6D6B6B6B6A6A6A698B
:100CA00069696868686666666464646363636161F1
:100CB000615F5F5F5E5E5E5C5C5C5B5B5B5A5A5A69
:100CC00058585856565655555554545453535351D5
:100CD00051515050504F4F4F4E4E4E4C4C4C4B4B31
:100CE0004B4A4A4A48484847474746464644444490
:100CF0004343434141414040403E3E3E3D3D3D3CFB
:100D00003C3C3B3B3B3A3A3A383838373737353555
:100D1000353232323030302E2E2E2C2C2C2B2B2BE9
:100D20002A2A2A282828272727252525242424225B
:100D300022222121211F1F1F1D1D1D1B1B1B1919D5
:100D40001918181817171716161614141412121249
:100D50001010100F0F0F0D0D0D0A0A0A09090906D0
:100D6000060604040403030302020200000000005C
:100D70000000000000000000000000000000000073
:100D80000000000000000000000000000000000063
:100D90000000000000000000000000000000000053
:100DA0000000000000000000000000000000000043
:100DB0000000000000000000000000000000000033
:100DC0000000000000000000000000000000000023
:100DD0000000000000000000000000000000000013
:100DE0000000000000000000000000000000000003
:100DF00000000000000000000000000000000000F3
:100E000000000000000000000000000000000000E2
:100E100000000000000000000021F90401000001B2
:100E2000002C00000000A80039000008FF000308A3
:100E30001C48B0A0C18308076AA93320A1C387104A
:100E4000234A9C48B1A2C58B0E49F4F20502A3C700
:100E50008F20438A1C39F00F00004048AA5CC9B2B9
:100E6000A5C511C24E527149B3A6CD957C4E024024
:100E700073B3A7CF9F1073C43C6907A8D1A33E2FBB
:100E80009CD209A00FD2A7504736F050A3125300AE
:100E900083A26A6DD9A0A34A0544FE60C275F5A479
:100EA0002C175B074E5D4143070F1B2F4C60409092
:100EB00036A109287E30ED52194353D9B2BCC4D0B3
:100EC000456A00C30E359154D9EA258C18B161BF2B
:100ED00074D13275E80C11130E046C75D0028C2598
:100EE0005D4C47262053ECAFE945148C8280820884
:100EF000B469D3C548E931E20169051C6742991616
:100F0000D900D0EBD79632DC1420A108A259BF93A8
:100F1000EB84958785819B05280001942A794803F5
:100F2000860014CBF44939D3534008B8FFD4306459
:100F3000502DEFE84F12CBA464F04A0930D254226E
:100F4000EB3DA41500AF88CC085125FDC9443FB83E
:100F50001752033CF8B18A7F08FE5702490F00512F
:100F60004728A5F907520BC100A0840F41C8A14230
:100F70002F081633CA193770D080661409E040086C
:100F800049F4E14A840926C84B18157834400640D4
:100F9000ECB1628B007C044127DA41C1072CBC34E0
:100FA000C26282BB7012481A4EF8F0C2091E580085
:100FB000C1030F4060810729C47084188170321406
:100FC0008E5C02B04A15A94D44C0094D14624B977E
:100FD00027799400213ADDC20A9A7F15F30B2EB3CC
:100FE000B8920A2AA8A4E2CA2CB95408E79F5EFA6C
:100FF000D10408091C4440032634710727F4FDE995
:10100000511980462A6997C368C287185028B1C40D
:1010100014691852DDA4695E64412EA0966AEAA99B
:101020003862840187A8B6EAEAAB3A61FF24C01CA3
:10103000B0D66AEBA41E1D30062DB7F6EA6B8220EF
:1010400081A0C52DBF166BEC5F212D41EAB1CC1AF2
:101050001BD2033108E1C41883803264B3D89ECA1E
:1010600052042FD4416CB6E0824A131EE1961B69EC
:101070004B0FC8418CB9ECA2C9D20EBAB5DBEA2439
:101080002E74F10930B0AA740019F2BA5A4C0E024B
:1010900019F0021B996C692A492530D2AFAB7690C2
:1010A000A856A286CCB2AEB8213150856B0B9F2AD0
:1010B000C9030E3DF042148178C22BA021E54049BE
:1010C000C6A816934703139D28031361D031C82582
:1010D000B0F889E04729183231CAA6FAC2450B1B7D
:1010E0002C70D1000840A0810A3510E104166198E7
:1010F000F1861C71C801071A64709169103460E4AC
:10110000C11D06834A8C2EB0A0224A279548D2C81A
:10111000228CA4AD76249360D20929A8C0824BD733
:10112000AFE662091D4BB400415D066DFF60462CC1
:101130007FCA694B2A90F491861548E0D0C2081DF9
:10114000583001040E30A0400208546E39020A28BB
:10115000D0C003114C60C1062254F983125490612F
:10116000471F7DF0B1C752A7F2928A2054E8ED30B4
:101170005415D490072F5CF6520A2483C001850EC3
:101180002858F0DC511C38026B2C813CF1827846E7
:1011900049C0831DA65CEB5D31B638220610265887
:1011A000A000DF0B8821FDA9C10012414F16B840F5
:1011B0008521E725C84A2256BCF0C0EC7C0FD483B9
:1011C0002BB63632414B02748003168344DFA227CC
:1011D00069C84107E20711100CC25695089348668A
:1011E000B0053F8442173B430F316671093B4021F4
:1011F00005DB23A0440620041EC1AA121A18491DAB
:1012000012F48B510CA20B3BF800FC34D832370C93
:101210000356A2B8006FBCE00ABA694718BB68C59C
:10122000242C58030F4460852CBCC80BF14EF6AA41
:101230004314402A2E484215C040862E5081094052
:101240007881073218449618C0089B78951A805800
:10125000C52E1AA401369843277E811E61104E10B8
:101260007100C314A4C08536108213BB284B31AE65
:10127000E0C53A42C4001CF0C11702918953ACE2A8
:1012800015B0B0D3281EB106204C91002B1480015C
:101290002EC0040F32050A768C24440800010C7419
:1012A000A0031BA800032AF2802CF88229C1D88150
:1012B0002447591319004E27ACB0002957C992147E
:1012C000B0EE248C181F2B6729121090822986609B
:1012D0001E2D7789910E6482296768082F8759111E
:1012E00009284227C460023197399104D84127B8B0
:1012F000581033A7E990015C6128A7E00035B78951
:10130000901E7CAB127BE3A6380772822C02A011E0
:10131000E11CA73823800540BC41960F0908003B1B
:10132000E082201881085508431F1C31FF8952A80C
:10133000E292C0F8C52E1A063BAC28081BACA043AD
:101340000F2E20AF8FC0248905B9D18D0472B05FF4
:10135000ED44046C0806EA94354766A1031CC918DD
:10136000C522F2208624D0A0030F58C0DC7A4200A8
:10137000033C33011C30C5513088B9AC7D491DCECA
:1013800018451D6204948A5649201A980225A871AE
:101390008EB5A9A31BBAA8C41CA4C08208FC665EB3
:1013A00038A2A654A78AB0D3848B029130074D6728
:1013B000C7AC73A0831A88C8804F20B326985060AA
:1013C0000767C88433F6E6A5AB304B1DD0584520DF
:1013D000A68082051072281B321455F7CAD75F0900
:1013E000240BD310624183B40E5EDC60290D208192
:1013F00012EC108A66980D8E1CED062DF870040D07
:101400006488A2BEEA2BC23C23B4CE76B65E0F5DE2
:10141000D41D87321E1468E275BB4B473586C01356
:101420001238E10D93E005385285155BFF75541DA8
:10143000E2F8C523C09082811DD100861A8B678790
:101440006B5588FE44402DA5C900B0A08C39EE0E26
:1014500045AB8592943A228C666D755DE178862B5A
:1014600006C1851734605E6A3A64731072121D8576
:101470002085BE949D6A59FB979494E182AA241D0D
:1014800056BADA8D5E78E20F5DC841052EDBAB9966
:101490005475BC1B598C669A808BA55D5774289235
:1014A000060AD033DD8D6C40097490442926898A60
:1014B000535CE2107600430F3AC0801A0D8DB30DD5
:1014C00006304664D29608740117376BE12C30C0A1
:1014D000BA94CC0D514F8D5678432CE20047C4008E
:1014E0001371001444A18D99EA528B6F05136EEBB2
:1014F000838A54A0E216D628875BB7AA0E50986458
:10150000A51A59CE70A3F21FE3D6B827079BC800CF
:1015100044800544AC82197DBAAE3ABA090C4694AF
:10152000E1082DA04002A692800BD0E0DF0A8830AF
:1015300025931CC12197D08BC657EEE91D07628009
:1015400009AC800644A08218C0100628E8C004DF59
:1015500035A478AD7986C0A62D1D77906E9E27CDD7
:101560004301152C21A102566356008BED98432BA5
:1015700065A5B4A8592534CE4A8BB8514518C20286
:1015800020814BD0661DE2500294464D6BAF0C405B
:10159000010D184C00149089ED3CE303BDAAB5B0D1
:1015A0009B820111CC053887D8920B3FB1002B0FDD
:1015B000FBD9FC3B7600E070B3AB30A2CAD0CE764C
:1015C0004FE632912E1CAB5976809232B54DEE8E9D
:1015D00084A52D4F90C6396CF605888CBBDCF0A62F
:1015E000221E65900B177EA3080140009EE3CD6F7D
:1015F00084E011039658B7367EC09A7E1B7CC437B0
:1016000086D2196A310C3FD4AF220101003B656ECE
:101610006C6F676F2E6769660047494638396147C6
:10162000003900F7FF00000000C0C0C0FEFEFEFD54
:10163000FDFDFCFCFCFAFAFAF9F9F9F8F8F8F7F70D
:10164000F7F6F6F6F5F5F5F4F4F4F3F3F3F1F1F15A
:10165000F0F0F0EFEFEFEEEEEEEDEDEDECECECEAAE
:10166000EAEAE8E8E8E7E7E7E6E6E6E5E5E5E4E410
:10167000E4E3E3E3E2E2E2E1E1E1E0E0E0DEDEDE5A
:10168000DDDDDDDCDCDCDBDBDBD9D9D9D8D8D8D7B4
:10169000D7D7D5D5D5D3D3D3D2D2D2CDCDCDCACA33
:1016A000CAC6C6C6C5C5C5C2C2C2BEBEBEBDBDBD18
:1016B000BCBCBCBABABAB9B9B9B8B8B8B5B5B5B4A2
:1016C000B4B4B2B2B2B1B1B1B0B0B0AEAEAEACAC17
:1016D000ACABABABA9A9A9A7A7A7A5A5A5A4A4A492
:1016E000A2A2A2A1A1A1A0A0A09F9F9F9C9C9C9B05
:1016F0009B9B9999999494949393939292928C8CA6
:101700008C8B8B8B88888887878785858584848464
:101710008282828181818080807F7F7F7D7D7D7CD0
:101720007C7C7B7B7B79797977777774747473733E
:10173000737272727171716F6F6F6E6E6E6D6D6DAF
:101740006C6C6C6B6B6B6A6A6A696969646464630C
:1017500063636060605F5F5F5E5E5E5C5C5C5B5BA2
:101760005B5A5A5A56565655555554545451515120
:101770004F4F4F4E4E4E4C4C4C4B4B4B48484847AE
:101780004747464646444444434343414141404021
:10179000403D3D3D373737353535323232303030E8
:1017A0002B2B2B2828282525252424242222221EE1
:1017B0001E1E1D1D1D1919191818181414141212A3
:1017C000121010100F0F0F0D0D0D09090906060656
:1017D00004040403030302020200000000000000EE
:1017E00000000000000000000000000000000000F9
:1017F00000000000000000000000000000000000E9
:1018000000000000000000000000000000000000D8
:1018100000000000000000000000000000000000C8
:1018200000000000000000000000000000000000B8
:1018300000000000000000000000000000000000A8
:101840000000000000000000000000000000000098
:101850000000000000000000000000000000000088
:101860000000000000000000000000000000000078
:101870000000000000000000000000000000000068
:101880000000000000000000000000000000000058
:101890000000000000000000000000000000000048
:1018A0000000000000000000000000000000000038
:1018B0000000000000000000000000000000000028
:1018C0000000000000000000000000000000000018
:1018D0000000000000000000000000000000000008
:1018E00000000000000000000000000000000000F8
:1018F00000000000000000000000000000000000E8
:1019000000000000000000000000000000000000D7
:1019100000000000000000000000000000000000C7
:1019200000000000000021F90401000001002C006B
:10193000000000470039000008FF0003081C48B001
:10194000A0C183050D2460D0A041020308234A9C56
:1019500048D1E0820E2864004962054C9A356FE058
:10196000BC5983C6CB93202F4620A8C8B2658001FE
:101970000F38B01852A5CD9F438D00E8DCC9B327BE
:10198000A4447DB4E4F070C0A551811040B438F295
:10199000C50EA29E50A34A05A0E80C8E0D47252235
:1019A000D00003CA9B3E83204D1D4B96A7A0343127
:1019B0000A641558C0838B267116959D4B97279AFC
:1019C00014461BA850E20650DDBF801D6DF95091F2
:1019D0000718408F002B565C68875A898B23472E47
:1019E0004302B2E4CB7F0BD98888B9735D22083DEE
:1019F0008B260BA9880083A3534FDDD2A0A0EAD782
:101A000050C52C2008BBF6CE2BA705DAB60DC9C7EA
:101A1000C0DDB61BD1D00DBCF6A112018ADBAE33FE
:101A200041F9DF447FF2B821B3850A94254CA454D0
:101A3000D93266CD1C3E429C97C6958304C6090FD9
:101A40001120461CA0A00206F1511FE961726265D7
:101A500056F83C076969317B2D71F18A9871C3058D
:101A6000FEB9A61C1F5CFC204281070167481833A1
:101A700058C02067B0F9D1850D13E4366168A9E13B
:101A800001C50B186C58516787E011C50D26B426A7
:101A9000224B912D4207163C9840C08A47D5F50845
:101AA000216C385143080ED0E8DF5885ECA1C614EC
:101AB0003DA82081863EFA07092381DC7146164F36
:101AC00018A1C30A2350806492139690010409144C
:101AD000702596608629E698649669E69968A6A9B5
:101AE000E69A6CB6E9E69B70C629E79C74D669E76E
:101AF0009D78E6A9E79E7CF6E9E79F80065A51406B
:101B0000003BF561216E30B1C20381DA79677986D5
:101B1000CAF7984E84A071840957665780014381A3
:101B200044A85979CAC7C821735CA103080A045A9A
:101B30002748F8817AD2743399AF38C81A489CC0C4
:101B400068A39C125594AB9122471520694451C358
:101B500007990AE8695A90F2FA6A8F545525C81B0A
:101B60005A08F10207A99689269ECA2A4B59206F66
:101B70006C31840C1ECC69D8AA44259B2DA85595A0
:101B800078C8207AA4E1851340CCD0410367397A24
:101B90002797E7E61B00113FE41043091B44C000F0
:101BA0009E59DACBAABE08938494A0672AB925BEB1
:101BB0000923AC649249991BF1C51867ACF1C61CA6
:101BC00077ECF1C720872CF2C824976CF2C928A7BC
:101BD000ACF2CA2CB7ECF2CB30C72CF3CC34D76CB8
:101BE000F3CD38E7ACF3490101003B656E746169E0
:101BF0006C2E67696600465753040D450000780057
:101C0000055F00000FA00000193200430200000031
:101C100086040626BA016106BF0299010000010090
:101C20000A006500EE000A01510110354B34DB97C4
:101C3000160AA025A4031219712200E771A52FF836
:101C400078B082A19A2C9916D5A40267700444F941
:101C5000C8A4EFEA8782A0940BF428E5408988099C
:101C600050802DBA52FB85D8DE8C0C4DCA9B8C510E
:101C70003631454004F76006F74D3665B80494E008
:101C80000BE1176A00103568C2F6F85DD98017BC01
:101C90004BA5E0BF21A9721BA43E6D10FB8009EF8C
:101CA000200E474A6C7D100B9D20DFBD40149047ED
:101CB0000F2A5283D58095B8037C244F5267943EF7
:101CC000F014766CA6C156A0009A5403069A6CFBD9
:101CD000800969C017A20EEA640B95F00998C0103C
:101CE00015F66D771060A8BABB2600542128950A16
:101CF0007600256601258988F5C02C6600AEDED801
:101D000096F58980259C02FA79B7C9C01440103530
:101D1000635AF6F9509EE5D396F6EE2301584AB47D
:101D2000BBB7EDC466EA0B72E8001035632EF6F619
:101D300053A646A66900957804C4654E44A1A949F6
:101D40009A10865108403DE152B72E7C378CC01561
:101D50005EFCF26F3D99496651812DC018CA4B8CCB
:101D6000A754337A90802CEEBC372E9CB7B7710401
:101D700000103564F6F6F65C3628375AD300208119
:101D800085C635A8F1A4EE04A50025E5B431B65901
:101D9000E5610096D00C3D248B3CAC978EBF77A6B6
:101DA000FBE700B6DD8C6C606CC86C206CCBEF463A
:101DB000EBB7577B0C00007F030E0000000100050D
:101DC000417269616C126567696E74FF021A0000E6
:101DD000000200600F2370869B8000000B8E0100C4
:101DE000FF00006503C0030142C00096060E01001B
:101DF000020084CE1999C333377F94B03068000055
:101E0000000400FF021A00000003006013A5108602
:101E1000A17800010B8E0100FF00006503C00301E3
:101E2000A4A00096060E0200030084C6C59F62CFE0
:101E300079681438C0680000000400FF021A00002E
:101E400000040060222510869B2800020B8E0100F2
:101E5000FF00006503C00301D2500097060E030087
:101E6000040084D176C8576C85E9DB0684006800DD
:101E700000000400FF021A000000050058456C62D3
:101E8000D9B28000020A8E0100FF00006503C00382
:101E90000190B00096060E0400050084C9C23A7095
:101EA0008E9E9158FBF0680000000400FF021A00AB
:101EB00000000600580F73030DB80000030A8E01DE
:101EC00000FF00006503C003018A000095060E05AF
:101ED00000060084CD0AAAA155559EBA526800009A
:101EE00000040096060E0600020084C290A690A58B
:101EF000E9F77F0C00680000000400FF04A4010063
:101F00000000096106FFE320C00000000258014004
:101F10000000FFCEE1B78E76EEFFC52043AEA4E809
:101F20000CFFCA5863DE9D153C8826801E03802462
:101F3000980323F4134CDC0D71803140803820610C
:101F40006FF530624258000007842E0FF4365B852F
:101F5000D8167C3198A1C618943FBEFB07DC3D0122
:101F60000006E0D019B1067FFFE2BE2971FFE32031
:101F7000C05B269BE660019AA000D23264C0A5C770
:101F800040B80877FFFFF8E02F8B808F1C64C907EB
:101F900040719183809AFFFFFFFC822C82164839A2
:101FA0007483A441CB04109E228C453FFFFFFFFFAA
:101FB000CC4899548B9F27CC8B404A372491C6003C
:101FC0004E277D73E081E1A7018C58C6613046B28F
:101FD0004D382A0B74FFE320C01B1400EAC259D805
:101FE00078021AF3DF07932D1A9555434B00683298
:101FF000F5C44410D59212040FD368BCA763240D16
:10200000033C9A30B2F7D1F134B1ACAF5962DC582D
:102010009A7373A02462010063FFF8B7F21027C916
:10202000686BEFB4000003037322791DDC38B391B1
:102030009D342885BF9084EDD4EBD72330FFE32077
:10204000C02613A9A2DBF230C49673AC3818B39E35
:102050007F4FAF66F38B39BC4035B2EF04135FE4BA
:102060008884810AD2D4BD428201A0E680C77FEE77
:10207000F7EA4006AA89FEB118A7773B87C55BB986
:10208000E281E10636D2E9BA531869F00F5AAEBAC6
:10209000AF73B3F9E5D2C99959E5741B020E62A971
:1020A00021F62448A7400097060D0100B9DA176809
:1020B00073884C510989DFFD2B26680501405400C7
:1020C00097060D0200B13B13B31B071D838DE593EB
:1020D00010B60068050140540098060D0300BD6C61
:1020E0008AD91D17039170391E9ACC645068050176
:1020F00040540097060D0400B5B96DCBC9BDFF6F04
:102100007FDE8F30F86868050140540097060D05A2
:1021100000B904F413F341EB883D71687EB3806825
:10212000050140540096060D0600AD78AF1C283717
:10213000A8379E9DFFF400680501405400FF040489
:1021400000000000000000400098060D0100BDD214
:1021500073A4ECE293D4527A7004EA9200680A0203
:1021600080A40097060D0200B53EE9F7C6BE3F5FAA
:102170001F7961642260680A0280A40098060D033A
:1021800000C16609660B45A5485A5487A5FF182A61
:10219000680A0280A40097060D0400B9B566D5B29E
:1021A0006E561B9587A3463D34680A0280A40097AB
:1021B000060D0500BD0212042CD0473208E65A561F
:1021C000B4C0680A0280A40096060D0600B185D846
:1021D0005F09DAC9DAC7A721FDCC680A0280A4002A
:1021E000FF046C0000004002D500FFE320C0321065
:1021F000D8CEDBEC7A506EB934D72257BF5763DAAA
:10220000A7659F569FFFFAFD6002AA07A0DE0F4058
:10221000B232CA4355A4CDECEEC341F8AD1CF7AEC3
:102220005448B30D1CC0F54ED17FACDC50C3893689
:10223000459507B7628FF249FA40A87508272C6CBC
:1022400002EE8F76C729DAB77FEB0426A4724B25FE
:10225000B5A4400098060D0100C16441644338C72D
:102260005518EA9C028295A06810040104009706A4
:102270000D0200B5F4EFA7C6BB215D90795DD416C1
:10228000A068100401040099060D0300C510E6883B
:1022900073D161FD561FD5E95345CB806810040109
:1022A000040098060D0400BD5042A08C9B42C6D08D
:1022B000B1E8AF8F128068100401040097060D0585
:1022C00000BD8C1B183CD00E6A01CD5A8DBC4068F5
:1022D000100401040097060D0600B538A9C5C26AAE
:1022E000726A71E9B0FFA580681004010400FF0460
:1022F0000400000000000000400098060D0100C12D
:10230000CF11CF1338EAF51D5E9C03C288606815B3
:102310000541540097060D0200B94ED53B71AE122F
:1023200057091E569902D868150541540099060DA3
:102330000300C561ECB0F6D15A7255A725E929050D
:10234000980068150541540098060D0400BDB803B7
:10235000700C9AEAF6BABDE88E8EDB8068150541EE
:10236000540097060D0500C102A902AB27E975FAD2
:102370005D5AC6C46068150541540097060D0600F5
:10238000B5AA6D53C25E9A5E99E998FFD880681528
:1023900005415400FF04D400000080040902FFE35B
:1023A00020C0491040CECFED4C400229D5E7C27C79
:1023B000E8190868E698CE4B2A1C235A4743B1E730
:1023C00087D2A270A490EC2A24989F384E2FA5C9DA
:1023D000AA67A9F1BAE96A9A71657C7CD6DEB7BFB3
:1023E0007FD337FF16F67D9902590ED40E7E73AB5C
:1023F0007C768EC3F7552D3703E09F0482C7A7ED87
:102400008D9CD46F654DFFE320C063287BE6C41F1D
:102410008F58024F3BDC948EB7D2070D0E550F63D9
:10242000F92CFDB5EF6328DDF6C657B62DD3FCD4E5
:102430003AE4A8E1D0433327BDE6E50581E113EC9A
:10244000E7BFFFFFFFF6FFFFFFFFFED793C90707B8
:1024500042761A6A83954089D8419275FEF7809D2D
:10246000E8B662B598B5CB6FFD7E8BEAD4A5400087
:1024700098060D0100C51AE48D72CE44004880070D
:10248000013A9EF8681A0681A40097060D0200B969
:10249000A4D69371AD72D6B95E55BD0000681A0618
:1024A00081A40099060D0300C5AF84D7C2D1529E06
:1024B0001529E1E8FFC56780681A0681A40098061F
:1024C0000D0400C10EAD0EAF26A349A8D27A1B732E
:1024D000A920681A0681A40097060D0500C13D9D3C
:1024E0003D9F27C9F1F27C5B04CCE0681A0681A409
:1024F0000097060D0600B9113444F094D194D17AB6
:10250000604002A0681A0681A400FF0404000000D5
:1025100000000000400098060D0100C551E8A8F435
:10252000CE4DE8C9BD17017C9B90681F07C1F40020
:1025300097060D0200BD028A051C6B3DD59EE72A59
:102540006CFD10681F07C1F40099060D0300C90156
:102550001D40477452941529417A35F14CE0681FAB
:1025600007C1F40098060D0400C145A545A72689BA
:1025700045A2517A13439B20681F07C1F4009706B8
:102580000D0500C17D517D5327A771E9DC5B42D465
:10259000E0681F07C1F40097060D0600B955F5570E
:1025A000F0923092307A5A200F00681F07C1F40071
:1025B000FF046C0000004002FD00FFE320C01C107F
:1025C0002996E7EDC31002114BA3D50ED219D749B6
:1025D000D92888180CF6EDEAF95FB120D2C157AEC0
:1025E000A9606A1AF4A38B445FAEB0D0549AAAFFD4
:1025F000FF2F71A3C36D4E5311D4D289E8B1584453
:102600002C250D961C50C2DB0DCFA82602176C3E60
:102610005006BC756297A7DA5F4B10044A4E727F72
:102620008DB8400098060D0100C580F6C07BCE57DE
:10263000E64AFCC701C098A86825094254009706DD
:102640000D0200BD2F125E2C6B2215910729F8FA9E
:102650003068250942540099060D0300C9244049F9
:102660001034507D0507D07A2C314280682509420C
:10267000540098060D0400C175B975BB266ECD9B3C
:10268000B37A0B538DA068250942540097060D05B7
:1026900000C1B4B9B4BB278479E11E5B7EDDE0687C
:1026A000250942540097060D0600B997F65FF08F92
:1026B000A78FA77A54301B40682509425400FF04B5
:1026C0000400000000000000400098060D0100C555
:1026D000ADF0D6F8CE6233CC467701FE95D0682AAD
:1026E0000A82A40097060D0200BD5C52B8AC6B0CC8
:1026F0003586172984F750682A0A82A40099060DA6
:102700000300C9459A5166B44E5804E5807A22D137
:102710003900682A0A82A40098060D0400C1A48525
:10272000A4872652F994BE7A03738080682A0A82AD
:10273000A40097060D0500C1EA65EA67275FF5D793
:10274000FD5BBEE700682A0A82A40097060D06001A
:10275000B9DCE773B08D438D437A4E0027A0682A19
:102760000A82A400FF04D400000080043102FFE3C9
:1027700020C03610D06AFBF840464AE07D74B14074
:102780004FD4EADF9AFFB0720016AA83FC43287583
:10279000594ECA714CBB4FF08915AFB64644C45F61
:1027A00091DE8BB74B69EAB57B5F36A0B7FFE0E7F8
:1027B0008F195078CA21D11E2AE40E1DC784828148
:1027C000B15C481C0296B833A402C6DBBF5FBA777F
:1027D000EA00237FE0F5FFE320C04D12019AEBEC05
:1027E00018C4963088229A1629BB1B583DCABE6170
:1027F0008EFCF8BE4935342BDADB35BAB3FA2A2D14
:102800006BFB052A1369682249C9960E3D81922502
:1028100056593329A26D4D2C24112E51F3519FBED0
:10282000F9601ABFCFCE5DA078DA1D6E05C955D20A
:1028300054D5AF5BEEC5C566E31191E54A7F400014
:1028400098060D0100C5DE08EF04CE6D29CDA53731
:10285000023292D0682F0BC2F40097060D0200BD21
:102860008E9B1D3C6B01D580E72910F458682F0B17
:10287000C2F40099060D0300C969155A45744C133A
:1028800024C1327A19A12E80682F0BC2F400980659
:102890000D0400C1D72DD72F2634458D1173F76D48
:1028A000CD00682F0BC2F40097060D0500C512225B
:1028B0008911C9CE0D738358805EFA682F0BC2F45C
:1028C0000097060D0600BD15522AAC22C9E2C9DEEA
:1028D00091FC0CF8682F0BC2F400FF040400000008
:1028E00000000000400098060D0100C9033B40CEE7
:1028F000F39E01D3C039C099241268340D034400FB
:1029000097060D0200BDBD0B7A1C6AF8F57C77288E
:102910009AF17068340D03440099060D0300C986CE
:102920009D61A77449D3D49D3D7A10C126E06834D7
:102930000D03440098060D0400C5018E80C7C985AB
:102940006E615B9CF9FB666068340D03440097067A
:102950000D0500C52B0A9585C9C42C710B18889FDD
:102960009268340D03440097060D0600BD3A827547
:102970000C224722471E9074100068340D03440057
:10298000FF04D400000080042501FFE320C0601094
:10299000E15EEBF228C4924A1F2FD5CC69E72DC027
:1029A00064EB39113DCAD685182541DF0AA2592D9D
:1029B000FB52255B804FD449E6C52156CAB3F72D9B
:1029C0005FD206AA88CA501D88E3C29C4910BAAFDC
:1029D000DD89AB294D264EB2C246DBE9294507CB3E
:1029E0009AD6DA7F55174DDFFBB7EABBFAA7CADEE6
:1029F0004765FFE320C07711B8F2D7EC618672D744
:102A0000FE689446BD5D1F655EBD7FFFEDD94DFD3F
:102A1000ECDC54806B53629EBF77A006AA876F8B55
:102A2000996F0C12B4BDA6572D8981F1F48662B05E
:102A30002A6ADA184419C3236593C8BE1E9972988E
:102A40001B642A220BC441AC5AE432B18D75883420
:102A5000AD0917068E3188593BDD400098060D01FF
:102A600000C9165A4596B3A0C7F418FDC0A6A370B6
:102A700068390E43940097060D0200BDEBFBD7FCAE
:102A80006AF6957B472824EE8868390E43940099AE
:102A9000060D0300C9A24A6892B4478B5478B57AF0
:102AA0000831200068390E43940098060D0400C5D3
:102AB00016D28B69C97D845F611CF62B59E0683999
:102AC0000E43940097060D0500C54304A182C9B9C1
:102AD000FC6E7F1891402E68390E43940097060DC6
:102AE0000600BD60FAC1FC21D061D05E8EE81308FB
:102AF00068390E439400FF04040000000000000049
:102B0000400098060D0100C92ACA4AB2B3A3BAD43C
:102B10007759C0B122C6683F0FC3F40097060D0273
:102B200000C10FED0FEF1AC0756039C9EABAE46849
:102B30003F0FC3F40099060D0300C9BFB56FED74D4
:102B40004521E4521E73FF646180683F0FC3F400A7
:102B500098060D0400C52DD096E8C974CF5D33DC0E
:102B6000F2734D20683F0FC3F40097060D0500C5B2
:102B70005CD8AE6CC9AEEC6BBB189A60C6683F0FF0
:102B8000C3F40097060D0600BD8BEB17DC216FA187
:102B90006F9E8D501600683F0FC3F400FF046C0059
:102BA000000040021900FFE320C08B12F296C3EC34
:102BB0006184B675A64F3374D29CBC370F12314E68
:102BC0000673B4862B9A7F77A5148000001AFFFF46
:102BD0002E55C0A8DE433CB9B25712FDCE46398708
:102BE000472C3DD6CB9F67BEE864336AD994AA0AC6
:102BF000E0BAAFD7D2CD57CEABFED56ECC95D3EAE7
:102C0000EFDDED6F4F3BEA75A13A332AC80640006D
:102C100098060D0100C93B984EE633A69BF4D37D80
:102C2000C0BD223868441104440097060D0200C15B
:102C300027D927DB1AC35561A9C9CC3A2A684411A0
:102C400004440099060D0300C9D78575E17442C795
:102C5000742C7773EEE44C806844110444009806A9
:102C60000D0400C5418EA0C7C96C4E5B139CEEBB22
:102C700040E068441104440097060D0500C572CC7D
:102C8000B966C9A41A690698A3216C684411044462
:102C90000097060D0600BDB4CB699C211261125E3F
:102CA0008BC418F8684411044400FF0404000000B9
:102CB00000000000400098060D0100C94B4552D1AC
:102CC00073A9873530E5C0C8A1B0684912449400A3
:102CD00097060D0200C13FED3FEF1AC7D563E9C962
:102CE000AE396E68491244940099060D0300C9ED8F
:102CF0006F7B5BF4406664066673DEC43C00684923
:102D00001244940098060D0400C55488AA44C9636F
:102D10008D58E35CEB1334E0684912449400970645
:102D20000D0500C587C0C3E0C99908664218AC22EA
:102D30000E68491244940097060D0600BDDECBBD17
:102D40009C20C1A0C19E8A281BF0684912449400AF
:102D5000FF04D400000080044D01FFE320C09A1559
:102D60008892BBEC7A524E73A2108CA42329D568AA
:102D700077790849C00434E73BC0C59FC01C204197
:102D80009F10C8E1EB0002269962302684E85409BE
:102D9000C440E9829F0887AD71E3097E10D5000F1A
:102DA000B84035B250015BD1E91F1A3BA2002AAAF4
:102DB000296A89D566ADAB7283E48B498F2C2AB71B
:102DC0003186FFE320C09E184B26D7F94B10035CD9
:102DD000832E33C2DBBE933289CB52A79226E34CBB
:102DE0005981DF1C68261F69DA4A98BB720955BBF6
:102DF000362CE78762965FB91CED05CFCFB8F27726
:102E0000511FFCACFE59D3C82E4E7D26F79775ACEA
:102E10003FF3CF7FFAD7FFEF76F3BFCAD57566626F
:102E20009F0DEB3ABAE7E3CD77EA400098060D0133
:102E300000C95C035700F3AC9FF593FDC0D1A120FE
:102E4000684E1384E40097060D0200C15A595A5B7C
:102E50001AD05D682DC98EB8B2684E1384E400990B
:102E6000060D0300CD0259A04B3CDEF2C3DE5873C1
:102E7000CF242880684E1384E40098060D0400C512
:102E80006904B482C959FA567E9CE77328C0684E1B
:102E90001384E40097060D0500C59E4ECF27C98D0B
:102EA00009634258B5C2B4684E1384E40097060D16
:102EB0000600C1069106930823182317A22607B619
:102EC000684E1384E400FF040400000000000000CA
:102ED000400098060D0100C9695B5A56F3AF9BB5D7
:102EE000F375C0DC20AC68541505440097060D024C
:102EF00000C172B172B31AD8856C41C96F37F668D8
:102F0000541505440099060D0300CD0B5CA16B9C84
:102F1000DDBDB3B7B673BF641D80685415054400AA
:102F200098060D0400C57A68BD34C950BE542F9C64
:102F3000E3CB1D2068541505440097060D0500C518
:102F4000B12CD896C98179605E58BF036268541568
:102F500005440097060D0600C11C951C970816082D
:102F60001607A1BD0874685415054400FF046C00E1
:102F7000000040024100FFE320C0973012AAA40DD8
:102F80009AC0006F58EFFBBD775F5E518C8A8A97BD
:102F900056F2D55C71A63C2A121124F35A34F36917
:102FA0008B8244C81D7FD02833F960AA401165A9DF
:102FB000BFFF3541504AB9CAD76318E3112FBA850C
:102FC000AE04CF88C70C603FCE697BF9F284D8B5D8
:102FD000012BA6BEC907DA71E711DBE41B944000A0
:102FE00098060D0100C9758B5D62F3B29DB653B5AD
:102FF000C0E7A03A68591645940097060D0200C133
:103000008B198B1B1AE26D7135C94F373A68591607
:1030100045940099060D0300CD136D226DACDC873D
:103020008390F073B0041600685916459400980612
:103030000D0400C58AFAC57DC9474F51D3DCE03B7A
:10304000120068591645940097060D0500C5C2FA8E
:10305000E17DC975B75D6DD8C8A41268591645944D
:103060000097060D0600C13309330B080C980C9726
:10307000A1560930685916459400FF040400000069
:1030800000000000400098060D0100C9829060A475
:1030900033B5CBD6B979A1DF7F08685E1785E40028
:1030A00097060D0200C1A5B1A5B31AF0D57869C97C
:1030B0002F367A685E1785E40099060D0300CD1B54
:1030C000FE237FCCDB4223684473A1640E80685EDC
:1030D0001785E40098060D0400C59CDECE6FC93D3F
:1030E000034F40DCDCC30660685E1785E40097068A
:1030F0000D0500C5D62AEB15C969035A40D8D2443C
:10310000BE685E1785E40097060D0600C14B954B1F
:1031100097080B380B37A0ED09E6685E1785E400C9
:10312000FF04D400000080047501FFE320C0310FCC
:10313000D076FBF9C718021B717F13BDBD1BF76466
:10314000C23C073FFA00086D7FF9C60804DD4B4A10
:10315000EC8F65D8B282A77C12B3B2A3AF30BCCFDC
:103160004CA8747DDD9DD9969D7EAA9B5936F76B40
:10317000D7DA6A73060F2CEE2F59DF792241D1720C
:10318000B1874F7896753F9D65259677B0A806AABA
:103190000FADFFE320C04C11E9E2EFF22884B6CC7A
:1031A00081B0464CB35A8BFD2758431CA719214EBA
:1031B0002261C48A636CA8B8E5F1BF630E1576FF7F
:1031C00070BD84793A49407AD8809438756063D369
:1031D0003B784F5A495A89572C8A2FEA5AFF95064D
:1031E000AA89DB1163D62E48D39D693CDB1259A412
:1031F000DC24847C958302EF5D74400098060D0109
:1032000000C98C6B631AF3B8D4771A8DA1F37D983B
:10321000686318C6340097060D0200C1BE29BE2B94
:103220001AFE757F39C90EB5C0686318C634009997
:10323000060D0300CD222224444CDA0B3B41677378
:1032400092440D00686318C6340098060D0400C54A
:10325000ABCAD5E5C933344CCD1CD932FB80686389
:1032600018C6340097060D0500C5E5D6F2EBC95C1B
:10327000E4573918DC2576686318C6340097060DC4
:103280000600C162D962DB0809780977A0820AA02A
:10329000686318C63400FF0404000000000000004A
:1032A000400098060D0100C99529654A73BBDE17D9
:1032B0007BC1A2097C3868681A06840097060D0253
:1032C00000C1D69DD69F1B0DDD86EDC8EDB500680B
:1032D000681A06840099060D0300CD2759A4EB3C1B
:1032E000D8D5631AAC7383840F8068681A0684008B
:1032F00098060D0400C5B9E6DCF3C9293C4A4F1C09
:10330000D5CAF0E068681A06840097060D0500C566
:10331000F480FA40C950A75429D8E6063668681ADE
:1033200006840097060D0600C17A757A77080B8827
:103330000B87A0190B5868681A068400FF046C00FC
:10334000000040026900FFE320C05F1100CACBEC1F
:1033500062466E8337AFBB6E2E8C2B7FAC87FC89A9
:10336000E256A0055F3A96B40BA0C324AB9B1C2A7F
:10337000E425C1352A319AC535EB4DE7800D11D6CC
:10338000B729C5BCBD7C35BD4A5986FD40006D7F5F
:10339000F9F85580B200A295C240821511190704B0
:1033A00060D868B03B2AB20190265938A587400002
:1033B00098060D0100C99E7F679FF3BF1357E2690E
:1033C000A21A7AD0686E1B86E40097060D0200C12F
:1033D000F111F1131B22559129C8CC343E686E1BA4
:1033E00086E40099060D0300CD2CE5A59CBCD79082
:1033F000C2F2187375241180686E1B86E40098066B
:103400000D0400C5C912E489C91E6147985CD25AEF
:10341000E5E0686E1B86E40098060D0500C9021DF4
:1034200040877250DC1437063C09BB00686E1B866F
:10343000E40097060D0600C19409940B0816E816DF
:10344000E73F5A3038686E1B86E400FF0404000032
:103450000000000000400098060D0100C9A4F069BA
:103460003C328435E10D7688C1E6A068731CC73410
:103470000098060D0200C504AC8256C6CD5F66AF4B
:10348000722ACCE18068731CC7340099060D0300D2
:10349000CD303CA6079CD65E0ACBC17366241A00C9
:1034A00068731CC7340098060D0400C5D57EEABFBA
:1034B000C9142145085CCEF2DBA068731CC7340038
:1034C00098060D0500C9085D4217724DBE136F8640
:1034D0003E91EC0068731CC7340097060D0600C1CE
:1034E000AC35AC3708214821473E7E332068731C39
:1034F000C73400FF04D400000080049D01FFE320D6
:10350000C0761518CABFEC7A526E140897531D473F
:1035100003800E0CD0A051A1026F6111AC4B778AD1
:103520001C8B9FC8316244188A05D259C9B145160F
:10353000513D34FFF500002B7FF9F8534819082E50
:103540009C3AADCB6FCFFB4C9328649198B3F55C5C
:10355000DA1A89B9AFD3949F77ECDDE95CCF699A29
:103560009EC8B25ECCFFE320C07C130836D3F26065
:10357000C226D6E88674436FEAAB74C9B7EAA39D46
:103580006909305AB3C942227E204391236F5FD22A
:10359000FA00006B7FF9A91722502515264F2373D7
:1035A000BDB9C4904943E256D78823E7F7B7CB9318
:1035B0004D13BA7FD4FE88DFA22BBD3F6573AAB935
:1035C00076A73AD66AE46E844DACE7F99840009845
:1035D000060D0100C9AA486A92328A3EA28FA689C6
:1035E00021E2A068781E07840098060D0200C5102D
:1035F000C08860C6D2A1695072224CB18068781E22
:1036000007840099060D0300CD32AF2655ECD52E68
:103610001AA5C3735764250068781E0784009806AE
:103620000D0400C5E112F089C909C842721CCB7AA9
:10363000D18068781E07840098060D0500C90E1316
:103640004384F24A9B12A6C6A08C87C068781E07E6
:10365000840097060D0600C1C495C497082FB82FA3
:10366000B73DA435F868781E078400FF0404000005
:103670000000000000400098060D0100C9B0076C72
:1036800001F290972425C68969DE60687D1F47D4C2
:103690000098060D0200C51DBA8EDDC6D9476CA381
:1036A0007219AC8200687D1F47D40099060D030093
:1036B000CD3550A6AA1CD3F0F27E1E7349A431006A
:1036C000687D1F47D40098060D0400C5ED86F6C33B
:1036D000C5FD14FE8A7320CB1D00687D1F47D400F2
:1036E00098060D0500C91438450E32473B51CED619
:1036F000A1DC93C0687D1F47D40097060D0600C16A
:10370000DEC9DECB08488848873CCA38B8687D1FC8
:1037100047D400FF046C00000040029100FFE3204A
:10372000C08A139256CFF26084B663206A051AB13C
:103730003088687D24C59977529E18B2D39632E7B7
:10374000BC30A2005BBFCB854D83504C2EB92E27D9
:103750003DFCFAE4214C8728872D47B0F2E7BFDB18
:10376000A997F37D6ECBFD1F557F5D2A95B95959F9
:103770000AAED75A6BDB55A5D16F4EACA64A7CA9D1
:10378000A6BBDBB1AA400098060D0100C9B3256CA9
:10379000C972968925A24689C9DB60688320C8342E
:1037A0000098060D0200C529A094D0C6DF776FBB34
:1037B00072110C5380688320C8340099060D0300F1
:1037C000CD35F7A6BEFCD2C7F258FE733AA44180AD
:1037D000688320C8340098060D0400C5F760FBB06C
:1037E000C5E800F40073138AF580688320C83400AC
:1037F00098060D0500C918DE4637B244129104A69A
:10380000A328A080688320C8340097060D0600C155
:10381000F779F77B085FA85FA73BE83BA8688320A0
:10382000C83400FF040400000000000000400098BD
:10383000060D0100C9B68B6DA2F29CC72731C68A5E
:1038400019D82068882208840098060D0200C53621
:10385000569B2BC6E725739272084C2380688822FA
:1038600008840099060D0300CD36B5A6D6BCD193C9
:103870000A3261732C845380688822088400980679
:103880000D0400C900FA403EB17448BA245CC182FC
:10389000B38068882208840098060D0500C91DDBE6
:1038A0004776F240AD502B56A480AD806888220840
:1038B000840097060D0600C508EC8476C2207E20A1
:1038C0007DCEC18F9A688822088400FF04D400004E
:1038D000008004C501FFE320C096151A52DBF248B0
:1038E000C4B6AD1434EAC92870F37445597957D574
:1038F000DA592B50002DFFF9BE44C2A0363EC87FD6
:103900001BA7ECEDBB9AA561062990B36A5D7FAD5C
:10391000592E4D3CA7F9F3232877959E93A91F2292
:10392000F95A865CF2D8EC4C8BCB87CB1323E7FF9C
:103930003CA9D59979E70BD019C4A1E9B1FFE320DF
:10394000C09C14AA9AD7EC58C4B616708450CA60AA
:10395000448FC86D6ADFF75F9F916221D6BAF25734
:10396000FFA006AA8DB5922600527E3F128F8C22B0
:10397000A5C8AC21442A1AF9772D43B7EEF9276779
:1039800064EEDD357F4B3A0FA5511BBFAB0A2DD539
:103990008CAB6445BADAE7A7DAFFFB9DE72CC529B3
:1039A000951E58A383400098060D0100C9B7866D87
:1039B000E1B2A296A8A5A68A89D680688D2348D4AC
:1039C0000098060D0200C541F8A0FCC6EE4B772515
:1039D00071FF2BF480688D2348D40099060D0300F5
:1039E000CD35A2A6B45CD0738A0E71731D846A8033
:1039F000688D2348D40098060D0400C9050F414383
:103A0000F16EF6B77B5CBE3AAA80688D2348D4007D
:103A100098060D0500C92170485C317B083D841A69
:103A20009722EA80688D2348D40097060D0600C5CA
:103A300015568AABC2287A2879CE881052688D2311
:103A400048D400FF0404000000000000004000987B
:103A5000060D0100C9B77E6DDFB2A851AA14668AAF
:103A6000F9D48068922489240098060D0200C54D7F
:103A700074A6BAC6F5E57AF271F68BC58068922411
:103A800089240098060D0300CD33C2A6785C9EB34E
:103A900017ACC5CC39120C68922489240098060D05
:103AA0000400C908BA422EB169A1B4D0DCBAEAA1B7
:103AB0006068922489240098060D0500C924854970
:103AC000217174B83A5C1A9C4320006892248924BE
:103AD0000097060D0600C521BE90DFC231923191DC
:103AE000CE4F910A689224892400FF046C000000E4
:103AF0004002B900FFE320C0A4182292D3F248C6C6
:103B0000B73942385215424A5247482B7D8BBB4D3C
:103B10002C28B963E48AB1FFD004AAAF587DC51838
:103B20008221552C2525360936201C7533C4636C3B
:103B3000D8AAA21352A765A55A8D5B2A33A5C30440
:103B40006B7FFFAFFFFE7107C88E862A9156FE9FDE
:103B50004B6775B7902353FB6EF4446F4000980693
:103B60000D0100C9B78E6DE3B2AE50AB94268B5DEC
:103B7000D30068982609840098060D0200C559A252
:103B8000ACD1C6FF157F8A71ED4B968068982609E7
:103B9000840098060D0300CD31D9A63B3C9C6B57A1
:103BA0001AD5CBFE127468982609840098060D0475
:103BB00000C90CA64329B163DA31ED1CB7A2980005
:103BC00068982609840098060D0500C927D549F58F
:103BD000716DF436FA1AA1B35580689826098400ED
:103BE00097060D0600C52EE29771C23DB63DB5CED3
:103BF0001611BA689826098400FF0404000000002A
:103C0000000000400098060D0100C9B5816D60728A
:103C1000B3D82CF6068BD1D220689D2749D40097C3
:103C2000060D0200C564C0B260C20F3A0F39C791D9
:103C3000AD9E689D2749D40098060D0300CD2E5FE8
:103C400025CBEC9A50F6943DCBC012EC689D2749E9
:103C5000D40098060D0400C90F7943DE715E82AF6F
:103C6000415CB4728F40689D2749D40098060D05C9
:103C700000C929E24A78B167B433DA1AA6F38C8016
:103C8000689D2749D40097060D0600C53B3A9D9DC7
:103C9000C2490E490DCDDC1272689D2749D400FF40
:103CA00004D40000008004ED01FFE320C09E16A2B2
:103CB000A2D3EC4884B71AE30CA36D0007ED7FF99B
:103CC000C9010103E86722DD15905B9205AF1D77FE
:103CD000162C32034A9843C9C45F739A52F39EACC0
:103CE000F94FDDBC938D61DD68F5FF47777FA6AFA7
:103CF000F3A39B7A36DE4F3D2AC95248CBF081832D
:103D0000C282AF74A49D4EF395DC55FD20CFEDFF2C
:103D1000F8FFE320C09E121A92DFF21844B67080BA
:103D200087769B3B96E486249B6D731CB578A4B77D
:103D3000228C9AD3230870A70F57251EACCEC8BB80
:103D4000C11E90E232B2D5E8C6BB2B07165EC7573C
:103D5000D3464638E93ADA879343FE9252E426BFC7
:103D60008265710BBDE7D9DB4977DFD6F7A28F48B3
:103D7000006D77799D14059A92400098060D010018
:103D8000C9B2826CA0B2B9442E51068C5DD1C06814
:103D9000A2288A240097060D0200C56FAAB7D5C2D3
:103DA000212E212DC76D2CE468A2288A24009806B4
:103DB0000D0300CD2A2425448C984476111DCB8018
:103DC000936868A2288A240098060D0400C911E6A9
:103DD0004479B1592DAC96DCB12286C068A2288AFC
:103DE000240098060D0500C92B704ADC31617EB0B5
:103DF000BF5AAC23C50068A2288A240097060D0686
:103E000000C54780A3C0C2557E557DCDA11328684B
:103E1000A2288A2400FF04040000000000000040E3
:103E20000098060D0100C9AF7A6BDEB2BEEA2FBA68
:103E3000868CD1D1A068A729CA740097060D02000C
:103E4000C57B20BD90C2367E367DC7482C2868A72A
:103E500029CA740098060D0300CD25CB24B96C96B1
:103E600028A58A29CB4313EC68A729CA74009806B1
:103E70000D0400C9147B451EF1536929B49CADE2C1
:103E80007E0068A729CA740098060D0500C92D2177
:103E90004B48715AD92D6C9AB193FC8068A729CAF6
:103EA000740097060D0600C5545CAA2EC2654665CF
:103EB00045CD6593DA68A729CA7400FF046C000039
:103EC000004002E100FFE320C0B0141A96E3F218AC
:103ED000CAB63042F90D96559654756E54BAAA0377
:103EE000AB51DDAEC864E9BB0E43A3DA3FC2A5A95E
:103EF0009072689EA44A57223045670910EDFEFD76
:103F0000C290A20CD09D8E93F9CCB32FCFF9C3F2FF
:103F10002FE43AA00461CD31AD2D6129F454110094
:103F200026060726E2BAC040055AEFFF2C4000984B
:103F3000060D0100C9AAA46AA931882544129A3540
:103F400097480068AC2B0AC40097060D0200C5858F
:103F500090C2C8C24A3E4A3DC7222B7068AC2B0AA9
:103F6000C40098060D0300CD201F2403EC943C559B
:103F70000F15CB02148068AC2B0AC40098060D0400
:103F800000C916154585714E1F270F9CAAA275E022
:103F900068AC2B0AC40098060D0500C92DB54B6D01
:103FA0007154C22A611AB6E4368068AC2B0AC40088
:103FB00097060D0600C56068B034C273FE73FDCD70
:103FC0002A949268AC2B0AC400FF0404000000008D
:103FD000000000400098060D0100C9A4ED693B7186
:103FE0009231C918DA38174B0068B22C8B2400972D
:103FF000060D0200C58FC2C7E1C25EDE5EDDC6FDF2
:10400000AAB668B22C8B240098060D0300CD19CBFC
:10401000A3397C9260F4983DCABF151868B22C8B06
:10402000240098060D0400C9174C45D33148DC2400
:104030006E1CA75A6D8068B22C8B240098060D0563
:1040400000C92DD24B74B14EBC275E1ABC046F80E0
:1040500068B22C8B240097060D0600C56C54B62A56
:10406000C283D683D5CCEE954668B22C8B2400FF54
:1040700004D400000080041502FFE320C0BA156AD2
:1040800096EFF218C4B6CE1E0B1489A2AFD6A43890
:10409000F22C8328573A8DB6EE4569EAA949C4A6A1
:1040A0005E448C731197FF760B765FFFC56D3AD136
:1040B0009AAA562E9BAA8BDDBF5FEC5A3BB2FDAC91
:1040C000D42EA26545FBB9FFFFFFFD1410002D3F64
:1040D000F9A1CC05A827474D0C46396C6A5E721FC2
:1040E00046FFE320C0BF1752AAE7F21946BAADFA5D
:1040F0000DEA8D9D465D17EAF38E7BFCE567A1E234
:10410000287BBFFFEA7B23FAA528FB5166987AAF8C
:104110006E96E79AAC6AB5DBD8CA648D5200B15886
:1041200087AEBFA7D7ADFB7986084179C208F48076
:104130005155AEFBEA3D0486D0E9FB732FABABD8FB
:1041400079F35377BB489CC724400098060D0100C3
:10415000C99F1367C4F19C9F4E4F9A3A67500068FD
:10416000B72DCB740097060D0200C59A56CD2BC211
:1041700077067705C6D62A0068B72DCB7400980657
:104180000D0300CD134422688C907A241E89CA7DC9
:1041900095B668B72DCB740098060D0400C9189524
:1041A000462571432EA1975CA43265A068B72DCB3C
:1041B000740098060D0500C92DF84B7E31484DA4BA
:1041C00026DAC174AA8068B72DCB740097060D0655
:1041D00000C578B2BC59C2973A9739CCB195FC6802
:1041E000B72DCB7400FF0404000000000000004065
:1041F0000098060D0100C997AF65EBF1A60A5305BB
:104200001A3D27568068BC2F0BC40097060D02008C
:10421000C5A3F0D1F8C28D5A8D59C6B0A94A68BC61
:104220002F0BC40098060D0300CD0BA321746C5D09
:10423000876EC3B728DC598068BC2F0BC400980672
:104240000D0400C919004640307C027C027283E9EB
:10425000778068BC2F0BC40098060D0500C92D2679
:104260004B49B14273A139DAC6B4E60068BC2F0BE2
:10427000C40097060D0600C58440C220C2A952A9F9
:1042800051CC7516B468BC2F0BC400FF046C000041
:104290000040020901FFE320C0BC133342F3F829B8
:1042A0004ADAF98F6B9E4437DAA6D6F7F7C7F0FDE6
:1042B000BC3BBA8E7EFF6D1E69202E67FFFD9FFFFF
:1042C000FA218E6022EC89FFFECBAFFF314B9326A3
:1042D00030488369FFFFFFFD54C02DAAC020FE4D6A
:1042E000DD826236238E71DC54115663791DF8F23B
:1042F0006B3CF2638E983ECC7DD9320041400098F1
:10430000060D0100C98F8D63E371AF23D791DA3FAA
:10431000F75F0068C1304C140097060D0200C5AD70
:104320003ED69FC2A482A481C68B289268C1304C1D
:10433000140098060D0300CD0372A06E5C5A414D27
:1043400020A727BE5C3068C1304C140098060D04CD
:1043500000C9191046443071C471C472768959007D
:1043600068C1304C140097060D0500C92BE94AFAC4
:1043700070796579656B30148868C1304C1400978A
:10438000060D0600C58F9CC7CEC2BC82BC81CC374F
:10439000976A68C1304C1400FF040400000000005C
:1043A0000000400098060D0100C9872A61CAB1B813
:1043B000895C449A42C7670068C731CC740097068D
:1043C0000D0200C5B6C6DB63C2BF5ABF59C663A79C
:1043D000DC68C731CC740098060D0300C9F6037D74
:1043E00080F15BB7ADDBDC9A817BA068C731CC7410
:1043F0000098060D0400C9191A4646B066B866B89A
:104400007269E93B8068C731CC740097060D0500DE
:10441000C92A9C4AA7306D1D6D1D6B45557A68C72A
:1044200031CC740097060D0600C59B3CCD9EC2D3CF
:1044300076D375CBF8982468C731CC7400FF04D4C8
:1044400000000080043D02FFE320C0CA154B46E790
:10445000F239CEDAA31B77B3FBBD28C8EF6FFD346A
:104460000985FFFFFBEEFFDFCDAA04E731EDF4FF86
:10447000B29962AFEFE804DA351A03D22C9A7FFFC3
:10448000FB7FF8A0B52002C534C9CA0F380E66D22A
:10449000ED4F87CDA0D7A7493F30623B9B5A6DE1D6
:1044A00017C7FF1F7FFBEF0F2D72F35C47EB0DFF6C
:1044B000E320C0CF14D342EBF85ACEDB9800230F91
:1044C000FFFFB99CEACCCC3FA1DB0692C732E9FFE3
:1044D0005EBF6FE448B950725A6FF765657EDF6F53
:1044E000FFC6C35D40800AD759B87A204035401EC8
:1044F0009ED3CCB84C82B13DB518613B388C53BECD
:1045000076787567CFE372E8B331BF77F710E4DBF5
:10451000362DFE7CD9C6C7400097060D0100C97D27
:104520008F5F63F081D481D469185DCA68CC330C85
:10453000C40097060D0200C5BF60DFB0C2D822D804
:1045400021C63CA72668CC330CC40098060D030096
:10455000C9E37678DDB14FEFA7F7DC95D9876068BE
:10456000CC330CC40098060D0400C91869461A70B3
:104570005CB95CB9725CE91E0068CC330CC400976E
:10458000060D0500C928804A2030620C620C6B5968
:10459000D66A68CC330CC40097060D0600C5A61475
:1045A000D30AC2E8DEE8DDCBBA98DC68CC330CC4B1
:1045B00000FF040400000000000000400097060D0A
:1045C0000100C9734D5CD37091D891D869259DFCC9
:1045D00068D1344D140097060D0200C5C7A6E3D379
:1045E000C2F1AAF1A9C616267668D1344D140098F6
:1045F000060D0300C9CFE173F87144CF22679C9187
:1046000009932068D1344D140098060D0400C91791
:104610005D45D77052E152E1724FE9018068D134B3
:104620004D140097060D0500C925FE497FB0573788
:1046300057376B6E576468D1344D140097060D06DA
:1046400000C5B0A6D853C2FF4EFF4DCB7B199A6868
:10465000D1344D1400FF04D400000080043101FF68
:10466000E320C0D6145B42C7EC7A8ED8139F1E5F3E
:1046700062974AAB011484DC1E7F494ACBD5AB67F5
:10468000FEF9B1659FEBC9F722E433044CE24EEB2F
:10469000A9CBB52990E5F7FFA9C2EB5DAA3A8ABE7E
:1046A00064765C00235779EAD03028660AA1402D51
:1046B0003CB6FA20B4D89C82BCB21761B325DADDCF
:1046C000F8A17D9B7E6337FFE320C0DF145B46DBF0
:1046D000F25A0EDBEF9BF9518BFEAF1E5D81B2DA11
:1046E0006295EA46DFD0FCE1792E9E46E977C98FD4
:1046F000253F534CB7842F27E0242448C8A8E684DC
:104700001DE995EBE9CACCD0AE10D14D06A9A3871F
:10471000D650EA0067F8A34909F08BA1F2E0C00285
:10472000D77970A85013A9B20654D8C7A740F34050
:104730000097060D0100C968BF5A2FF0A24BA24B8B
:1047400069331E2A68D6358D640097060D0200C5B0
:10475000CFF4E7FABE1DF43BE717B4970068D635EF
:104760008D640098060D0300C9BBDD6EF770734AB7
:10477000734A7230C67D0068D6358D640098060D88
:104780000400C9163D458F7048454845724308E509
:104790008068D6358D640097060D0500C9235D48F5
:1047A000D7704BAF4BAF6B83985A68D6358D64008A
:1047B00097060D0600C5BB50DDA8BE336466C72C46
:1047C000EE694068D6358D6400FF040400000000E7
:1047D000000000400097060D0100C95D3E574FB034
:1047E000B0C0B0C069425E6468DB36CDB4009706E5
:1047F0000D0200C5D770EBB8BE5414A82717189443
:104800004068DB36CDB40098060D0300C9A6866962
:10481000A1B05FE45FE4721C66AE8068DB36CDB4A5
:104820000097060D0400C914824520AF7D80FB016E
:10483000C8D7232868DB36CDB40097060D0500C91C
:104840002014480530415F415F6B98595268DB3650
:10485000CDB40097060D0600C5C53EE29FBE649C20
:10486000C9372BEE6C4868DB36CDB400FF046C0012
:10487000000040022500FFE320C0E81A3342DFF2C7
:104880003186DA0A28D73B1D8405811E957710648E
:10489000E9A91B22F368AE20DCAF74BF7D7B3D2904
:1048A000D7479115DFC7ADD3BAB50ECB5765355392
:1048B00069D560D9CC8654E7FF3037A3BBDCA8E4C8
:1048C00058C7483693A1070C53893F79631C32803F
:1048D0000AD779BABC241C4C61394DA7FC7C400036
:1048E00097060D0100C95138544E30BE60BE606954
:1048F000521EA268E1384E140097060D0200C5DE74
:1049000086EF43BE8B8517071676917868E1384E9F
:10491000140098060D0300C9906D641B704DEF4D97
:10492000EF720786E08068E1384E140097060D04A8
:1049300000C91274449D2F6AD4D5A9C8A222BA68AE
:10494000E1384E140097060D0500C91C70471C2F56
:104950006EB6DD6DAEB0694068E1384E1400970662
:104960000D0600C5CED2E769BE97BD2F772AF06F3E
:104970003868E1384E1400FF040400000000000015
:1049800000400097060D0100C944DF5137EF9883BE
:104990003105A5867B8868E6398E640097060D028E
:1049A00000C5E578F2BCBECAB5956715D48EC0685F
:1049B000E6398E640097060D0300C979DF5E77EF54
:1049C000785EF0BDAF95713868E6398E6400970661
:1049D0000D0400C9103C440F2F56BAAD75C86EA225
:1049E0005268E6398E640097060D0500C9189B468B
:1049F00026EF5968B2D1AF026D3868E6398E64008F
:104A000097060D0600C5D84CEC26BED315A627295F
:104A1000E8723068E6398E6400FF04D4000000803C
:104A2000045901FFE320C0DA1B5AE2DBF24986BADF
:104A3000A0A6080C20425325E39D0A529951C9FBB8
:104A4000CE8AA863A85946FE2E59532FFDCE4E5646
:104A50008736864674C7E1AD2E5846B4A644DACFF1
:104A6000CA65E8418F47973AC040024C5040082140
:104A70003629F3D2A416769AF36BF20080D01AA6E8
:104A80008FCA99150CA05C600C8544FFE320C0C759
:104A9000173AD6E7F24144BAB36489AC2CE44D76B8
:104AA00079C042C051C4F1DAEA4BFFFEC7F4BF350A
:104AB000FDB3864650189581413C556595ACC8CAF2
:104AC0009195341D1D1C82BA6CACACAACAD991A2B6
:104AD0003A3A1A394B2CB36C99680A89DA1CA965E1
:104AE000B2CB2B2AB2B2989342743474749659594B
:104AF000599594400097060D0100C937DA4DF6AF7D
:104B0000B05B60B5A5CA7C9868EB3ACEB400970656
:104B10000D0200C5EBACF5D6BA09C8271C54CA3043
:104B20004068EB3ACEB40097060D0300C962725894
:104B30009CAF5A8AB515AEE5746868EB3ACEB400FE
:104B400097060D0400C90D8C43632F44D689ADC868
:104B500038A1E868EB3ACEB40097060D0500C914F9
:104B6000474511EF468E8D1DAF51713068EB3ACE3F
:104B7000B40097060D0600C5E116F08BBA149852E2
:104B80005CA399D4C068EB3ACEB400FF04040000E3
:104B90000000000000400097060D0100C92A644A89
:104BA000992E8CFE33F69855F70068F03C0F040000
:104BB00097060D0200C5F16EF8B7BA809A025C52F2
:104BC00052258068F03C0F040097060D0300C94A87
:104BD00073529CEE7F61FD86B8C1DE8068F03C0FA9
:104BE000040097060D0400C90A9142A46E66C19B99
:104BF00007200E860868F03C0F040097060D05009C
:104C0000C90FA143E86E68B1A2C6BE81D4E068F0C6
:104C10003C0F040097060D0600C5E97AF4BDBA867C
:104C2000BA1ADC9F89E10068F03C0F0400FF046CB5
:104C300000000040024D00FFE320C0C517221EDF28
:104C4000F24946B6C8D0CD074720696C79435180F8
:104C500080000E9959458148090A886707EE3F4D43
:104C60008206E9F9BFD33C6CD1A7092CC0702C2C6B
:104C70002EC0C998B1A85451B8B0AFEB156EA17150
:104C80001BBE15146D42C2ACFAC55B8B0B8AFE2AA3
:104C900029A858559AB58AB71617676E2A0000409A
:104CA0000097060D0100C91CA547296EB97AE5E6F3
:104CB0009971FBC068F63D8F640097060D0200C530
:104CC000F6DEFB6FB60DD06E713EC86B0068F63D28
:104CD0008F640097060D0300C932174C85EE4BDD3B
:104CE0002F76B5E1EBC068F63D8F640097060D04A2
:104CF00000C9075D41D76E413D04F71F3E848868B7
:104D0000F63D8F640097060D0500C90ABF42AFEE5D
:104D100042150856BFC9E52068F63D8F6400970626
:104D20000D0600C5F18CF8C6B6131098726D67B405
:104D30000068F63D8F6400FF0404000000000000DE
:104D400000400097060D0100C90E74439D2DBD0D56
:104D5000E85C355A00A068FB3ECFB40096060D0211
:104D600000C5FBAEFDD7B209A099C4D2A10268FB71
:104D70003ECFB40097060D0300C91933464CED45EC
:104D80008A2C5ACB87E28068FB3ECFB40097060D91
:104D90000400C903CE40F3AD4052029C799A0BA0A7
:104DA00068FB3ECFB40097060D0500C90580416041
:104DB0002D40BA05DC81F1F56068FB3ECFB400966A
:104DC000060D0600C5F902FC81B20C20C1C9739F13
:104DD0009468FB3ECFB400FF04D40000008004813F
:104DE00001FFE320C0C31CDB7ECFEC48C6DB000024
:104DF00000000000000000000000000000000000B3
:104E000000000000000000000000000000000000A2
:104E10000000000000000000000000000000000092
:104E20000000000000000000000000000000000082
:104E30000000000000000000000000000000000072
:104E4000000000000000000000FFE320C0AA1338AB
:104E50009A6BEC430C4C00000000000000000000C6
:104E60000000000000000000000000000000000042
:104E70000000000000000000000000000000000032
:104E80000000000000000000000000000000000022
:104E90000000000000000000000000000000000012
:104EA0000000000000000000000000000000000002
:104EB0000040003F0302000000070089060D0100CA
:104EC0001C37EA05A00489060D02001C4A9A05A0B9
:104ED0000489060D03001C5FAA05A00489060D04C1
:104EE000001C762A05A00489060D05001C845205C5
:104EF000A00489060D06001C931A05A004BF03E94F
:104F0000110000070026BE5800007D06FFE320C008
:104F1000000000025800000000F77AC401083800C1
:104F2000839E9EC4390431CF264D360317112818AD
:104F3000B80606681113FE9E8002280081387C4066
:104F400050E1707DE1F28B07CB9F0430FFE2070652
:104F5000394749F87CBBFFF543000008200841A60B
:104F60009209F8280209002C984C73040C60E2F6B0
:104F70002E0B1D89FFE320C05B1018E1900146183D
:104F800000DB11010FC4877350F735CCB26A715E34
:104F9000FEE8C526138E44A05214F8D629E4955E87
:104FA00087D5B99DBC7BC3A6BEB3B67AD0B8211B4A
:104FB0004359653210BAE6FEFFEDC247885CFBED4F
:104FC0000BA6D8F2CE95C6B14F4D7A3FBC4F12D149
:104FD00063B8AAA8B28647D7EADCEF37FFE320C060
:104FE000752A33123D75997800F7FFE354638CFE00
:104FF00013C778BC486FE242BBC4A5DBE4859F6A57
:10500000FFAFFFFFFFFFFF55F9F8F6F8A7A45BEA33
:10501000BEDEB99987CF7FEB287FF2F06C5EABFAEA
:10502000554630D4490E6114916E6E1606478A4774
:10503000534FEFAD53FBC38F4110E99F97FFFFC75D
:10504000832D2471FFE320C02714293E835DCF30D8
:10505000008506DEF76170FAB52D08BFFF6264DADD
:105060002CA53C7A810040322813B91587CA0AD092
:1050700073B02159F04240D36A7498001242624DD5
:105080005343818B9C28201527317BFFE8E5250DB4
:10509000FE76977B3391400432F7F3DCE145726290
:1050A00023E74B867DCFEB9685BB2B19FFE320C012
:1050B00031143A66C3FE1886B66734288F9D23786C
:1050C00085110D14C41B422242B97BF34A410403EB
:1050D000EFCFE5C85C29453FD4493705BB7FFF8644
:1050E0001E4E70682DCE8B76FC4108E21DEDA9F4B2
:1050F0009D8D23D2A85BD4FF3BE43232F6DAEBFF7E
:10510000D193FEC757D5AF53EDAE9A9D195D5C5A4A
:10511000108C7700FFE320C03B11CA6EF7FE1884A5
:10512000B6104674538B0EA81000206A340000009D
:105130004A11AB28C469FC28123D6AF5E4B21FEE9F
:1051400032926FE8CED9B24391BAD4E800C4229D1E
:10515000139FAAB18CFDC2083EFA648542CA456914
:1051600049871B82C3960202042F8FCFFA1FFFF5D7
:10517000127B91B7484502137255D361FFE320C0FB
:105180004E11A986E3FE284492E24EF60C02CABDF7
:1051900097F1C7A7CF49FEFF796AF0B88A2CD17C76
:1051A000B7C4139C233D0B90CB633F172233364388
:1051B0004A135410507E91D792110E040173C84BBC
:1051C000562A36BA95C73483F77FD91AA5A98358CA
:1051D000907FD37631BB5520E246465F17BAC3793C
:1051E00029902E2CFFE320C06213A192FBFE5046B3
:1051F0009218B1C7B68467B37F5B8A56F4F74854F8
:10520000AC0983106E006D740F02097B489DF45148
:10521000F3AAB2EE21E0A39B0BBC1A7A4BEF164126
:10522000301AC60083039AB74D4DCF976720000010
:105230004271AAA3E4A9371CEE47446106D7B9031B
:105240002DA0B2B6DE2EF7FAA555D7D4FFE320C0C5
:105250006E13F996C000C086945919D345987665A7
:10526000CC5423C5770276B8F11A5B7A709C0EDDB8
:10527000511B7532115AC3ED1D57277AAABFB725A6
:10528000BEF94FFFE00972A6FB9DEE53FFFBFB202A
:105290000453724D28C208E2CD184C1B5A3764C61D
:1052A000B2771DD3DC652D1CD654188183B90871E3
:1052B00099B90956FFE320C0791500FAE3FE794455
:1052C000717767A898810ADF9460743EC701836094
:1052D00073EB18604E39C5351902B83E70784DC36E
:1052E00059177D35944A6830972DBFE33FFAC000C7
:1052F000117C440A2129D29FA622A6027DB758DF3D
:10530000F89ACDE8ACECDFAB9BBF388E4B2AAA688D
:10531000C75B3AD089A58D97748C792FFFE320C0A5
:105320008014916303FE388A922A3A4FC25D0FD0EF
:105330009D8C9A19EFAFCF73CC653AE73D8EDD397E
:1053400052C3CB4E39737A7E92409DA3D55A3FA764
:105350006540000043722A036244F20E443F086332
:105360003653EA5F7E76ADF643313AD94F322301A8
:105370009DCC6C893B54B88F5A11123D58D9FB9380
:10538000FFC04B23FFE320C088155AB2E7F87886A8
:10539000B87E9A4477488F505370473992DB15BADC
:1053A00049DF363DDE188310432106AB7BD01870F1
:1053B000B5251887A7EE7357BE68924945DB7FFF76
:1053C0008264F1B3220DE3BC35A2DD924CF7A6ED69
:1053D0007B1E1F66875A23D245375CD967C5AE4509
:1053E000913D6CBF90A7FFA1E5F32721FFE320C00B
:1053F0008D16B262EFFE6886B446896EAC18C5BBE6
:1054000082FED8962B2D865B17B79730B5C128EF53
:10541000889C6127C87F3517DE7704E99EEC000A77
:10542000DD004618990BE54131789AABE219CBD9EA
:10543000076A9AEBAF5BB91EE8902FDBA6D253BD8B
:10544000E1FAF95E1B31539ADBBE627F9ED9B1B19E
:10545000DE3FF72CFFE320C08D15B25B2FFE688680
:10546000B7413292D768E9154F55859E782F4D2068
:105470001860729BFEFBA172713FFFFDC08F9D25DE
:10548000F5DD166A7236FFB2DFDD702806CA92209B
:105490000D81C68C5DC1A216B53237ECC9EB746DB7
:1054A000F8F2B12CCDC4DC26C2CC45A15E96513EAB
:1054B0003AE8A3CFF74CFFCD90FDDFBCFFE320C05F
:1054C0009117F1C6EFF8588C95934287DF4B1A3B42
:1054D000EB56E49FFE572B4E11E7EFFB114086D3AE
:1054E0007D7589687F97C3EBF7DF6048B6DD93234E
:1054F0003500ACD18B8F87952D4BA997EEE52D4EBE
:105500000FFA3A781CAF349A3EE16A1E44F10FC19B
:105510003BE599539F3790F7F723CDE1CDDCD2EEF1
:10552000A494266FFFE320C08C149A72FBFE3946C8
:10553000B577B9C64F329FEF768559BF99B94222E8
:10554000165B353F3048A4148D8080421B1DB90383
:10555000E2E99EF0CDBCF9DCCA751E2A08D40E31F2
:10556000513CA44D4DB1E948512E1CF323B94713CA
:1055700034C3D23B69FFFB0A0438B3B50552F56268
:10558000EF61AAAA6A281CB197B88B29FFE320C053
:1055900094133A7F03FE3886B46B9F8203DF9DA18C
:1055A0000D2A04730E3579BD77FB1FFFFFFFBD0D7C
:1055B000A333D7D66C2F6D8044828B71800160B28B
:1055C00086A580B13C88BC4DEBEF3DF456382E8E5D
:1055D0008E85574CB56959D18E4AB1F0C1C56FEB74
:1055E00067973D99A7DD2BD5BDB7F9DE1CB7F1064E
:1055F0004FA6B7B7FFE320C0A21949DF07FE49460F
:1056000097ADDBF98B6FBE1F31EDA73EEEFCAC63AF
:10561000202C066D11B2AD724C5A30433939FE114F
:1056200077EB4914DB71AA88C3C8986B016622FD29
:10563000E9DCB5D1EE46B32310C7CE715F33756791
:105640006A582840CC45AA958A2C316C22334542B1
:1056500032F7776CEA0E7CAF967FD75CFFE320C011
:105660009717422AF7FE414CB4DCC1FFE650130DF8
:1056700071016038488064E6AB82A2E86913691260
:10568000B8B0945C22DD49EE2C486E3574002524B8
:10569000DC964AA8C5C514EA1899D37D5AF84391F7
:1056A0001501317AC82BD9AA1EA92E46203EB298E0
:1056B0009FD93FD29B1FD59FFDC8C19D2424566909
:1056C000BC804F18FFE320C0951789FB0FFE408672
:1056D000B64AEC280D145AA089C71C2C8130940EB0
:1056E000F621C55D7D38A0D3638CDFF6CE92D45809
:1056F0000802DC920C8BE1E711138A8A8635A36AD3
:10570000FEA809F47426ABEB57D4EC8F3C3B99D43C
:10571000C150A3530C2F3CF6CC28E130A55C37E6F2
:10572000572884C4EBC2A45C55558A40FFE320C0CF
:10573000911531D317FE288696C4967AC84F32FF4A
:10574000BB8CC010814D43F2C81A8EA40F1400A860
:1057500037F5B75000004A71820962AE2C317D05E1
:10576000AAE4E75EAEDDAEFC5999F2730C84EE7FDD
:10577000104B91210466E55D994C367439C333862C
:10578000A77FFDDF5B6C35524B55505B30A31C8F00
:105790000A098E98FFE320C09715AA22FFFE3886DB
:1057A000B4B0681419140F81CEB533326654184D55
:1057B0002A1507AB073FFC60043E7C3123A5F58327
:1057C00030443EE026A4DFF06272D2917E927B9C50
:1057D000E91872244F22B8463D9594BE8314E68C96
:1057E0007A46CB762334BC3CC3E462163333A243FF
:1057F00034E19111ACEC6FCA1F533F55FFE320C059
:105800009B15A9CEF7FE5886941CD4CC8D1A2DDB9F
:10581000A550B56FB7F3C87DE77FD000016884BCA1
:105820009335AC150476B6D516D3FDC6B216DA3567
:10583000BA745F7FCC2908C392D080DBF46685847C
:105840001FC1EB99E9E670F7AE08871C1A76B2C65D
:105850008F071931C1922CE2C45E1809810983F6C1
:10586000BDF61A22FFE320C09F157A1AE8E478C635
:10587000B5397928B359400000027182AD8564D6EC
:1058800051A59237EDAB36DE6702C9DE7A85073166
:105890008676595E6E08814D412D245DA6673D5286
:1058A0001F96C4E877D5B32A864919187732A21C07
:1058B00013140404E14E66B3058E8E11940E26B0C7
:1058C000B05C72E1CD01D4A1C68C041BFFE320C003
:1058D000A413A9BAF3F6788694F48000004272000B
:1058E0008B0558E81D8D7302F34ECD9FBF57B573DE
:1058F00056DAAA3D15B2B29482D48B345681D35174
:10590000D9349A92EE7DC8A2832EE52BBCAD4446D5
:1059100071DD4ACCEF9C94FBE5631E8EEEB236BE81
:105920003BE966603B7C634579FDA15AC000024BB0
:10593000928000C4FFE320C0B01589B6F7FE784618
:1059400094C4E705576945EE4D9DFF5F74BA19137E
:10595000FACF108FC43A5BF491B05A1A31C6BDE247
:105960007159F1BBD56E210DFBF6FEF69A32EBCCE8
:105970006BCC634FF67A2EE7D7F970EFFFC76EF363
:1059800010C5B6F7D473558D2DC482C3FB179FE4A1
:105990006100DBA138C4E5ADFFFFDADDFFE320C025
:1059A000B414526AF7FE6884B5A069C825BADFBD91
:1059B000E50905183D55059EA2BCCDC7367115E217
:1059C00066720C64466449D5571431A861B68B14CD
:1059D000AAE0CAC202862AA5D895D16B1A1D767490
:1059E00030E167539BFB218DF8A9CAA26AA6309CBF
:1059F000C56384925102D94799B67DA86D7AF6B3F2
:105A0000A0C20D1CFFE320C0BD18A236EBFE5A0C4D
:105A1000B5132AB3E54027BA9AAFEA584926D39678
:105A20002A92C4EA690E0D1FB85EFAB4BFABFD6BD3
:105A3000F5BDD95A8BA2559CFFFDEE5494E1C50AE1
:105A400024D6CEE6E7B9DCED1BDDBD6FD9ABC2A72E
:105A5000F89CC3259DF6A5DF7E7EDFD01A4DFA1394
:105A6000E236564F1EAF1A6AA288EFEDFFE320C060
:105A7000B5192ABF1FFE294ABA32F134CCD3BF7EF2
:105A8000E7CFE911C0D0B0B87E3B0B575350B628D2
:105A90000A0000DB758000E4A1A240D309C68A4F4A
:105AA000A36CECD2294CF3B0F8F2ADEEB47DD58FF7
:105AB000565C229EFC2193CF953BD005E655EAD358
:105AC00097ED53F634A5D5119C846E6568BCC9C7A3
:105AD0002565B59AFFE320C0AB19FAB303FE48CCA5
