:100000000C948D000C94D8000C94D8000C94D8005B
:100010000C94D8000C94D8000C94D8000C94D80000
:100020000C94D8000C94D8000C94D8000C94D800F0
:100030000C94D8000C94B4220C94D8000C94D800E2
:100040000C94D8000C94D8000C94D8000C94D800D0
:100050000C94D8000C94D8000C94D8000C94D800C0
:100060000C94D8000C94BA270C942B280C94D8002C
:100070000C94D8000C94D8000C94D8000C94D800A0
:100080000C94D8000C94D8000C94D8000C94D80090
:100090000C94D8000C94D8000C94D8000C94D80080
:1000A0000C94D8000C94D8000C94D8000C94D80070
:1000B0000C94D8000C94D8000C94D8000C94D80060
:1000C0000C94D8000C94D8000C94D800D029D329D3
:1000D000D629DE29E129E429E729EA29F1291C2A80
:1000E000412A462A4B2A502A552A5F2A632A662A21
:1000F000702A7E2ACD29CD29CD29CD298D2A902A75
:10010000932AA42AA72AB12ACD29B42ABC2ABF2A15
:10011000C72ACA2AD22AD52ADD2A84E88093740005
:1001200087E08093C4008093CC0011241FBECFEFE2
:10013000D1E2DEBFCDBF00E00CBF17E0A0E0B2E02F
:10014000E2E1FFE500E00BBF02C007900D92A03A8C
:10015000B107D9F71BBE18E0A0EAB7E001C01D92B5
:10016000A333B107E1F78FEF9FE79EBF8DBF8FEFFE
:100170009FE7835398408158914050F04FEF5EE7DE
:10018000435358408CE098E063E378E00E94801885
:100190000E946E2084E496E068E277E040E050E060
:1001A00020E830E00E946E210E9400000C94872F0E
:1001B0000C940000CF92DF92EF92FF920F931F9367
:1001C000DF93CF9300D000D0CDB7DEB77C018DB7E1
:1001D0009EB708970FB6F8949EBF0FBE8DBFEDB7C0
:1001E000FEB7319680E092E0ADB7BEB712969C9311
:1001F0008E931197D7011A968D919C911B978459D4
:10020000984F9383828318968D919C9119970196AC
:100210009583848316968D919C91179797838683F7
:100220000E947A08EDB7FEB7319685E392E0ADB74C
:10023000BEB712969C938E931197CE01019693832D
:100240008283CE01039695838483CE01059697839E
:1002500086830E9454088C01EDB7FEB738960FB61E
:10026000F894FEBF0FBEEDBF181619060CF090C033
:1002700000D00F928EE392E0ADB7BEB712969C937A
:100280008E93119789819A8114969C938E931397DC
:100290000E947A0829813A81C901825B97400F90B8
:1002A0000F900F900F908534910528F000D00F9299
:1002B00083E492E061C02C563740D7011B963C93F3
:1002C0002E931A970130110509F462C000D00F92E5
:1002D00081E7C82E82E0D82EEDB7FEB7D282C18268
:1002E0008B819C81948383830E947A082B813C813B
:1002F000C90101970F900F900F900F908F319105CA
:10030000B8F000D00F9287E792E0ADB7BEB7129673
:100310009C938E93119714963C932E9313970E945F
:100320007A082FEF3FEF0F900F900F900F9036C08D
:10033000F701918780870230110551F100D00F92AB
:10034000ADB7BEB71296DC92CE9211978D819E8189
:1003500014969C938E9313970E947A082D813E8168
:10036000C90101970F900F900F900F904F9758F081
:1003700000D00F9281EA92E0EDB7FEB792838183BD
:1003800034832383CCCFD70117963C932E931697B3
:100390008AE090E00E948C0820E030E0C9012696B7
:1003A0000FB6F894DEBF0FBECDBFCF91DF911F9186
:1003B0000F91FF90EF90DF90CF9008952F923F9292
:1003C0004F925F926F927F928F929F92AF92BF9265
:1003D000CF92DF92EF92FF920F931F93DF93CF9311
:1003E000CDB7DEB7A6970FB6F894DEBF0FBECDBF70
:1003F00080E092ECA1E0B0E08F839887A987BA876C
:1004000088E197E060E070E040E00E943120409198
:1004100051065091520689EC92E06FEC72E00E9416
:10042000C80740914F065091500689EC92E061ED6B
:1004300072E00E94C80780915106909152060E9476
:10044000660761E071E0AE01495F5F4F0E945107AE
:100450000091F4051091F5050E94982000D000D07D
:10046000EDB7FEB7319623ED32E0ADB7BEB71296C9
:100470003C932E93119713830283958384830E9468
:100480007A084090FB055090FC05EDB7FEB7369614
:100490000FB6F894FEBF0FBEEDBF6CE0262E64E0F1
:1004A000362E8CEF92E00E9493088BE193E00E943D
:1004B000930888E393E00E94930881E593E00E940B
:1004C000930889E693E00E9493088EE793E00E94E8
:1004D00093088BE993E00E9493080F920F92EEEA43
:1004E000F3E0ADB7BEB71296FC93EE9311970E945E
:1004F0007A080F900F9002C00E943A080E944108AB
:10050000892BD1F70E943A088C010E948C088AE05E
:1005100090E00E948C080335110509F45DC2043592
:1005200011059CF40133110589F1023311052CF4F6
:100530000033110509F0B5CF31C002331105F1F0D8
:100540000333110509F0ADCF1FC20337110509F4BC
:1005500043C2043711054CF40935110509F429C3C8
:100560000A35110509F09DCF4EC30937110509F46D
:1005700020C30A37110509F094CF45C38824992474
:100580005BE0652E712C6C0E7D1EF4C1EE24FF2401
:100590004BE0642E712C6C0E7D1EE0C0EE24FF2417
:1005A0003BC00894E11CF11CF701E370F070E40D0E
:1005B000F51D0081112707FD109580E090E00E9455
:1005C000BB0D2DB73EB7285030400FB6F8943EBF54
:1005D0000FBE2DBFEDB7FEB731962FEC33E0ADB7B0
:1005E000BEB712963C932E931197138302836483B4
:1005F0007583868397830E947A086DB77EB7685F9C
:100600007F4F0FB6F8947EBF0FBE6DBF68EC70E0F1
:1006100080E090E00E944F1D0E944108892B09F262
:10062000AEC180E090E00E94BB0D6B877C878D8718
:100630009E87C3010E94E1098C010894E11CF11C12
:1006400000D00F92EFEEF3E0ADB7BEB71296FC9379
:10065000EE931197F701E370F070E40DF51D8081C2
:10066000992787FD909514969C938E9313970E94DB
:100670007A08D8011C96ED91FC911D97EE0FFF1F93
:10068000EA5CF94F608171811A962D913C911B971C
:1006900018964D915C91199716968D909C9017978E
:1006A0001496AD90BC9015971296CD90DC90139750
:1006B000ED91FC911197FEA3EDA30F900F900F9079
:1006C0000F9050968D919C915197892B19F486E04B
:1006D00094E002C087E094E0ADB7BEB752970FB682
:1006E000F894BEBF0FBEADBFEDB7FEB73196129600
:1006F0003C922E921197738362832459384F35832D
:1007000024834F5F5F4F5783468391868086B386ED
:10071000A286D586C4862DA13EA137872687918BD8
:10072000808B0E947A086DB77EB7605F7F4F0FB6EF
:10073000F8947EBF0FBE6DBFE1E3F4E0ADB7BEB786
:100740001296FC93EE9311970E947A080F900F90E7
:1007500064EF71E080E090E00E944F1D0E9441082C
:10076000892B09F45ECF0BC180E090E00E94BB0DA5
:100770006B877C878D879E87C3010E949E0B8C01AF
:100780000894811C911C00D00F92E7E3F4E0ADB710
:10079000BEB71296FC93EE931197F401E370F070DC
:1007A000E40DF51D8081992787FD909514969C9303
:1007B0008E9313970E947A08D8011C96ED91FC91B4
:1007C0001D97EE0FFF1FEA5CF94F608171811A9649
:1007D0002D913C911B9718964D915C911997169607
:1007E000AD90BC9017971496CD90DC90159712960B
:1007F000ED90FC901397ED91FC911197FEA3EDA362
:100800000F900F900F900F9050968D919C91519753
:10081000892B19F486E094E002C087E094E0ADB73C
:10082000BEB752970FB6F894BEBF0FBEADBFEDB7BF
:10083000FEB7319612963C922E9211977383628383
:100840002459384F358324834F5F5F4F5783468346
:10085000B186A086D386C286F586E4862DA13EA108
:1008600037872687918B808B0E947A082091990682
:1008700030919A0640919B0650919C062B873C87AD
:100880004D875E876DB77EB76E5E7F4F0FB6F8946B
:100890007EBF0FBE6DBFD80150968D919C91519730
:1008A0001816190684F48091950690919606A091E9
:1008B0009706B0919806820F931FA41FB51F8B87D0
:1008C0009C87AD87BE876B857C858D859E8524EC56
:1008D0003FEF4FEF5FEF0E944D2F122F032FCA0102
:1008E0002B873C874D879E87EDB7FEB73A970FB6AB
:1008F000F894FEBF0FBEEDBFEDB6FEB60894E11C46
:10090000F11C2AE434E032832183612F702F2CE321
:1009100030E040E050E00E944D2FD70112962D9319
:100920003D934D935C931597212F302FC90197FF6D
:1009300003C0909581959F4F6CE370E00E94182F43
:10094000AA2797FDA095BA2FF70186839783A087E2
:10095000B1870E947A082DB73EB7265F3F4F0FB68A
:10096000F8943EBF0FBE2DBF68EC70E080E090E0D1
:100970000E944F1D0E944108892B09F4F5CE8AE0A0
:1009800090E00E948C088DCD8E01055F1F4FC8013D
:100990000E94BB0DC8010E949E0BDE015396FC0114
:1009A00082E101900D928150E1F78E010D5E1F4FA3
:1009B000C8010E94DA00892B09F073CDC8010E949A
:1009C000930DEF8DF8A1EE0FFF1FEA5CF94F8081C8
:1009D00091810E94930865CD8E01055F1F4FC8016C
:1009E0000E94BB0DC8010E949E0BDE015396FC01C4
:1009F00082E101900D928150E1F7CE0143960E9471
:100A0000DA00892B09F04DCD6DB77EB76850704084
:100A10000FB6F8947EBF0FBE6DBFEDB7FEB731962F
:100A20002FE534E0ADB7BEB712963C932E931197E5
:100A30008F89988D938382838D899E899583848302
:100A40008B899C89978386830E947A08EDB7FEB7CD
:100A5000319626E934E0ADB7BEB712963C932E939B
:100A60001197CE01019693838283CE0103969583DD
:100A70008483CE010596978386830E9454088C0157
:100A80006DB77EB7685F7F4F0FB6F8947EBF0FBE1D
:100A90006DBF181619060CF077C000D00F92EFE961
:100AA000F4E0ADB7BEB71296FC93EE93119789812F
:100AB0009A8114969C938E9313970E947A08898149
:100AC0009A810F900F900F900F908831910528F028
:100AD00000D00F92E4EAF4E04AC0988F8F8B013087
:100AE000110509F451C000D00F92EDECF4E0ADB760
:100AF000BEB71296FC93EE9311978B819C8114964E
:100B00009C938E9313970E947A088B819C810F90FF
:100B10000F900F900F908C33910528F000D00F921A
:100B2000E3EDF4E024C09E8B8D8B0230110561F162
:100B300000D00F92EDECF4E0ADB7BEB71296FC9387
:100B4000EE9311978D819E8114969C938E931397AB
:100B50000E947A088D819E810F900F900F900F90C8
:100B60008C33910578F000D00F92EEEFF4E0ADB742
:100B7000BEB71296FC93EE93119714969C938E93A6
:100B800013973AC09C8B8B8B8AE090E00E948C0874
:100B90008FEF9FEF9CA38BA3CE0143960E94930DF2
:100BA0006B877C878D879E87CE010B960E94980D60
:100BB00078CC20E030E08091930690919406892BC8
:100BC00011F421E030E03093940620939306232B18
:100BD00019F429E235E002C02DE235E000D00F9291
:100BE00080E395E0ADB7BEB712969C938E931197B4
:100BF00014963C932E9313970E947A080F900F90AF
:100C00000F900F904ECCC0909906D0909A06E0902D
:100C10009B06F0909C06C701B6012CE330E040E053
:100C200050E00E944D2FCA012F87388B498B9A8B39
:100C3000B9012CE330E040E050E00E944D2F2B87BB
:100C40003C874D875E876F85788989899A892CE3EF
:100C500030E040E050E00E944D2FCB0177FF03C011
:100C6000909581959F4F9C01442737FD4095542FC7
:100C70002F87388B498B5A8BEDB7FEB73A970FB653
:100C8000F894FEBF0FBEEDBF319669E475E0ADB7D5
:100C9000BEB712967C936E9311978B859C85AD851C
:100CA000BE8582839383A483B5832683378340875D
:100CB00051870E947A080F900F900F900F90EDB718
:100CC000FEB7319680E895E0ADB7BEB712969C931B
:100CD0008E931197CE010B9693838283CE010F964C
:100CE000958384830E9454088C01EDB7FEB7369635
:100CF0000FB6F894FEBF0FBEEDBF181619068CF59F
:100D000000D000D088E895E0ADB7BEB712969C93AE
:100D10008E9311978B859C85AD85BE85EDB7FEB70B
:100D200083839483A583B6830E947A082B853C85B0
:100D30004D855E85DA01C9010C96A11DB11D6DB707
:100D40007EB76A5F7F4F0FB6F8947EBF0FBE6DBF50
:100D50004997A105B10528F000D000D08FE895E0B3
:100D600030C0023011050CF444C000D000D08DEB2F
:100D700095E0ADB7BEB712969C938E9311978F8571
:100D80009889A989BA89EDB7FEB783839483A5832F
:100D9000B6830E947A082F85388949895A896DB7A8
:100DA0007EB76A5F7F4F0FB6F8947EBF0FBE6DBFF0
:100DB0002C33310541055105E0F000D000D083EC23
:100DC00095E0ADB7BEB712969C938E931197EDB791
:100DD000FEB723833483458356830E947A082DB758
:100DE0003EB72A5F3F4F0FB6F8943EBF0FBE2DBFF0
:100DF00020C08AE090E00E948C086B857C858D8500
:100E00009E852CE330E040E050E00E94F92E9B01EB
:100E1000AC016F85788989899A89620F731F841F55
:100E2000951F2CE330E040E050E00E94F92E6B016A
:100E30007C01C0929906D0929A06E0929B06F092AD
:100E40009C062FCB90914E0680934E06892F0895D5
:100E50000E942C1E89E496E06EED71E040E050E0C7
:100E600020E034E00E946E218EEF0E94D71A0E948B
:100E7000571B0E949F1A20914E062F3FC1F393B734
:100E800083B7817F822B83BF83B7816083BF8895BF
:100E900083B78E7F83BF83B79E70817F982B93BF6C
:100EA000E6CFCF93DF93DC011296CD91DC911397BF
:100EB000209729F41B96ED91FC911C9703C0ED89B6
:100EC000FE89CE011995DF91CF910895FC018081B3
:100ED00091810895CF92DF92EF92FF920F931F932B
:100EE000CF93DF936C01CB010E9426177C012FEF7B
:100EF0008F3F920709F440C0E5E5F6E003E010E01B
:100F00000DC00F5F1F4F32960830110539F487E18D
:100F100090E090930B0880930A082EC08081918105
:100F2000892B79F787E090E00E949610EC01000F82
:100F3000111F015B194FD801CD93DC932097E1F08D
:100F4000C601B7010E94A61099838883D801ED914C
:100F5000FC918F5F9F4F39F4CF010E949010F801F0
:100F60001182108209C0F382E2821482D801ED91CD
:100F7000FC911682158202C0E0E0F0E0CF01DF9123
:100F8000CF911F910F91FF90EF90DF90CF90089538
:100F90009F92AF92BF92CF92DF92EF92FF920F9308
:100FA0001F93CF93DF935C01CB01EA010E942617C8
:100FB0006C012FEF8F3F920781F44DC00894E11C24
:100FC000F11C329688E0E816F10459F489E090E0CB
:100FD00090930B0880930A083EC0EFE4F6E0EE24FD
:100FE000FF24808191818C179D0741F787E090E075
:100FF0000E949610EC018701000F111F015B194F31
:10100000D801CD93DC93209731F1C501B6010E9440
:10101000A61099838883D801ED91FC918F5F9F4F33
:1010200089F4CF010E949010E2E0EE1538F00894A8
:10103000E11CF11CD801ED92FC920DC0F801118267
:10104000108209C0D382C2821482D801ED91FC9132
:101050001682158202C0E0E0F0E0CF01DF91CF916F
:101060001F910F91FF90EF90DF90CF90BF90AF90C6
:101070009F90089580914F06909150060E945A17B4
:10108000089580914F06909150060E9466070E9435
:10109000E91620E030E0161617061806190614F4B3
:1010A00021E030E0C9010895DF93CF93CDB7DEB7DB
:1010B000FE0136966191719180914F069091500694
:1010C000AF010E946608CF91DF910895EF92FF92E1
:1010D0000F931F938B017A010E946607BC018EE477
:1010E00093E1A80197010E9405111F910F91FF90B4
:1010F000EF900895DF93CF93CDB7DEB7FE0136961C
:10110000619171918091510690915206AF010E94B8
:10111000AC08CF91DF91089560915106709152060D
:101120000E948E17089560915106709152060E9498
:10113000AC179C012F5F3F4F19F42FEF3FEF0AC010
:1011400060915106709152068AE090E00E948E17DD
:1011500020E030E0C9010895FC01DB019A016081C3
:10116000718187ED96E1AD010E94881308954F9239
:101170005F926F927F928F929F92AF92BF92CF9227
:10118000DF92EF92FF920F931F93CF93DF93FC01B7
:101190002B0180819181228133816115710519F4C0
:1011A0002FEF3FEFFCC03C014901C401B30120E82F
:1011B0003FE146E857E00E942B2F79018A01C801E0
:1011C000B70120E83FE146E857E00E94F92E6401AC
:1011D0005301A61AB70AC80AD90AD801C70132E0D2
:1011E000880F991FAA1FBB1F3A95D1F78A5B9F4FA3
:1011F000AF4FBF4F20E8A21623E3B20621EEC2068E
:1012000021E0D206ACF10196A11DB11D20E83CEC15
:101210004EE15EEFA20EB31EC41ED51E30E8A3162B
:1012200033E3B30631EEC30631E0D3060CF1019689
:10123000A11DB11D20E83CEC4EE15EEFA20EB31EF5
:10124000C41ED51E30E0A31635E8B30632EEC30641
:1012500031E0D30614F411E00CC00196A11DB11DBC
:1012600020E03BE74DE15EEFA20EB31EC41ED51E8B
:1012700010E0F20193878287C601B50120E831E5CD
:1012800041E050E00E942B2F7901F2013787268739
:10129000B901882777FD8095982F20E831E541E056
:1012A00050E00E94F92EA61AB70AC80AD90A1123DB
:1012B00019F4C9E7D6E002C0CFE5D6E0FE0121E08F
:1012C00030E040E050E004C02F5F3F4F4F4F5F4F92
:1012D0008281938132968E159F05B4F3DA01C9019C
:1012E0000197A109B109F20191878087880F991FA1
:1012F000C80FD91F8685978528813981821B930B5A
:1013000097838683C401B30120E831E541E050E0D2
:101310000E942B2FDA01C901049667E070E00E9459
:10132000182FF20195878487C601B50120E13EE0C0
:1013300040E050E00E944D2FF20135832483442782
:1013400037FD4095542FCA01B90120EF31EF4FEF1F
:101350005FEF0E94F92E7B018C01EA0CFB1C0C1D37
:101360001D1DC801B7012CE330E040E050E00E94B1
:101370004D2FB901F2013383228384EC9FEF9C014E
:10138000629FC001639F900D729F900D11248E0D7E
:101390009F1D91838083118A108A20E030E0C9016B
:1013A000DF91CF911F910F91FF90EF90DF90CF9041
:1013B000BF90AF909F908F907F906F905F904F9075
:1013C000089568EF77E00E94B708892B19F020E0B4
:1013D00030E002C028EF37E0C9010895CF92DF92D4
:1013E000EF92FF920F931F93DF93CF9300D00F9252
:1013F000CDB7DEB7FC016B01208131814281538181
:10140000DA01C9018158944FA340B0408E5F9641E4
:10141000A84FBF4708F044C08091990690919A0662
:10142000A0919B06B0919C06281B390B4A0B5B0BC5
:1014300029833A834B835C838E010F5F1F4FC80162
:10144000B6010E94B7088091930690919406892B6B
:1014500009F465C1C6010E94AA0F892B09F45FC176
:1014600089819A81AB81BC81209195063091960645
:101470004091970650919806821B930BA40BB50BD5
:1014800089839A83AB83BC83C801B6010E94B708E5
:1014900081E090E0D60151969C938E9350973FC186
:1014A000CF01B6010E94B708C6010E94AA0FE090C2
:1014B0009906F0909A0600919B0610919C06F60101
:1014C00020813181892B91F0C901AA2797FDA09530
:1014D000BA2F20919506309196064091970650912B
:1014E0009806821B930BA40BB50B05C0C901AA2754
:1014F00097FDA095BA2F8E199F09A00BB10B898378
:101500009A83AB83BC83E980FA800B811C81C8017C
:10151000B7012CE330E040E050E00E944D2FCB01BA
:10152000D60111967C936E9377FF0FC0CC968D9366
:101530009C9384EC9FEFAFEFBFEFE80EF91E0A1FFC
:101540001B1FE982FA820B831C8369817A818B815C
:101550009C812CE330E040E050E00E944D2F790167
:101560008A01D60112968D919C911397AA2797FD17
:10157000A095BA2FE80EF91E0A1F1B1FE982FA82F6
:101580000B831C83C801B7012CE330E040E050E03E
:101590000E944D2FCB01F6017383628377FF0FC04A
:1015A000CC969383828384EC9FEFAFEFBFEFE80E7E
:1015B000F91E0A1F1B1FE982FA820B831C836981B3
:1015C0007A818B819C812CE330E040E050E00E94E6
:1015D0004D2F79018A01D60114968D919C91159712
:1015E000AA2797FDA095BA2FE80EF91E0A1F1B1F08
:1015F000E982FA820B831C83C801B70128E130E03D
:1016000040E050E00E944D2FCB01F60175836483CA
:1016100077FF0FC048969583848388EE9FEFAFEFE6
:10162000BFEFE80EF91E0A1F1B1FE982FA820B8327
:101630001C8369817A818B819C8128E130E040E0C4
:1016400050E00E944D2F79018A011E141F041006DC
:1016500011061CF5D6011C966D917C911D9788276B
:1016600077FD8095982F6E0D7F1D801F911F27E0BD
:1016700030E040E050E00E944D2FF601758764870E
:10168000868197818E0D9F1D97838683868597859A
:101690008E0D9F1D9787868742C0E114F1040105D6
:1016A0001105E9F1D6011C966D917C911D97695F3A
:1016B0007F4F882777FD8095982F6E0D7F1D801FA7
:1016C000911F27E030E040E050E00E944D2FF601EE
:1016D00075876487868197818E0D9F1D978386838A
:1016E000181619068CF04F96978386838CE691E046
:1016F000978786878BE090E09187808782859385A6
:101700000197938782870BC0D6011E968D919C917D
:101710001F978E0D9F1D1F969C938E931E9780E0A2
:1017200090E00F900F900F900F90CF91DF911F914D
:101730000F91FF90EF90DF90CF90089568EF77E0E2
:101740000E94EE09892B19F020E030E002C028EF5A
:1017500037E0C90108952F923F924F925F926F92A6
:101760007F928F929F92AF92BF92CF92DF92EF9231
:10177000FF920F931F93DF93CF9300D00F92CDB7BB
:10178000DEB72C011B01DC011A968D919C911B97F1
:101790005C01CC24B7FCC094DC2CB5E4AB16B104DE
:1017A000C104D1040CF49DC1ECE8AE16B104C1042F
:1017B000D1040CF096C1A982BA82CB82DC82D2011C
:1017C00018962D913C9119972C303105C0F1C90123
:1017D0006CE070E00E94182F7B010027F7FC009559
:1017E000102FEA0CFB1C0C1D1D1DE982FA820B83D5
:1017F0001C83C9016CE070E00E94182F9C01F2016B
:101800009187808797FF0DC0245F3F4F31872087E6
:101810000894E108F10801091109E982FA820B83B1
:101820001C8389819A81AB81BC8185549040A04002
:10183000B04087349105A105B10508F052C1D2012D
:1018400018962D913C911997F901EE0FFF1FE7585B
:10185000F94F808191815C01CC24B7FCC094DC2CD1
:10186000E980FA800B811C81D801C70183709070D8
:10187000A070B0700097A105B10541F42230310588
:101880002CF00894A11CB11CC11CD11CC801B701CB
:101890002DE631E040E050E00E94F92E6F5D734686
:1018A000804090400894E108F1080109110922E004
:1018B00015950795F794E7942A95D1F76E0D7F1D3E
:1018C000801F911F6A0D7B1D8C1D9D1DF2012681BD
:1018D000378179010027F7FC0095102F5B016C011F
:1018E000AE0CBF1CC01ED11E97FD05C017FD07C062
:1018F000DD202CF4F6C017FF02C0D7FEF2C0C601EF
:10190000B50128E130E040E050E00E94F92E3B01B3
:101910004C01A114B104C104D10451F0A6019501F8
:101920000E944D2F283131054105510509F0D9C0DC
:10193000D20114968D919C9115979C01442737FDF7
:101940004095542F84017301E20EF31E041F151FEE
:1019500097FC05C057FD07C011232CF4C2C057FFE8
:1019600002C017FFBEC0C801B7012CE330E040E061
:1019700050E00E94F92E5B016C01E114F1040105B5
:10198000110551F0A80197010E944D2F2C3331050C
:101990004105510509F0A5C0F201828193819C01A6
:1019A000442737FD4095542F86017501E20EF31E42
:1019B000041F151FD7FC05C057FD07C011232CF4C9
:1019C00090C057FF02C017FF8CC0C801B7012CE3BD
:1019D00030E040E050E00E94F92E5B016C01E11420
:1019E000F1040105110551F0A80197010E944D2F46
:1019F0002C3331054105510509F073C0D2018D9199
:101A00009C919C01442737FD4095542F8601750118
:101A1000E20EF31E041F151FD7FC05C057FD07C0BB
:101A200011232CF45EC057FF02C017FF5AC0E98291
:101A3000FA820B831C839E012F5F3F4F232809F4FA
:101A40003FC08091990690919A06A0919B06B09113
:101A50009C06E80EF91E0A1F1B1FE982FA820B83FF
:101A60001C83C9010E949E0BFC010097D1F1D20199
:101A700050968D919C915197181619063CF0892B20
:101A800029F1808991891816190604F589819A81AE
:101A9000AB81BC81209195063091960640919706C6
:101AA00050919806820F931FA41FB51F89839A83B4
:101AB000AB83BC83CE0101960E949E0BFC0106C045
:101AC000C9010E94E109FC01009759F0D20182E1AD
:101AD00001900D928150E1F729813A814B815C811F
:101AE00004C02FEF3FEF4FEF5FEFB901CA010F9036
:101AF0000F900F900F90CF91DF911F910F91FF905A
:101B0000EF90DF90CF90BF90AF909F908F907F909D
:101B10006F905F904F903F902F90089560E070E03D
:101B20000E94AB0B089561E070E00E94AB0B08953A
:101B3000EF92FF920F931F938C010E94E1090E9484
:101B4000CF20F801E080F180028113810E94BC1C4B
:101B5000E61AF70A080B190BE092A107F092A20708
:101B60000093A3071093A40780E090E01F910F91CA
:101B7000FF90EF9008958F929F92AF92BF92CF9275
:101B8000DF92EF92FF920F931F93CF93DF934C015D
:101B9000E090A107F090A2070091A3071091A4077D
:101BA0000E94BC1C5B016C01AE0CBF1CC01ED11E90
:101BB00082E190E00E949610EC01009789F08FEF8F
:101BC0009FEF998B888BCE010E94BB20892B29F433
:101BD000CE010E948E0D5B016C01CE010E9490101F
:101BE0008114910429F0F401A082B182C282D382CF
:101BF000B501C601DF91CF911F910F91FF90EF903A
:101C0000DF90CF90BF90AF909F908F9008952F92CC
:101C10003F924F925F926F927F928F929F92AF927C
:101C2000BF92CF92DF92EF92FF920F931F93DF93B9
:101C3000CF93CDB7DEB72E970FB6F894DEBF0FBEA9
:101C4000CDBF9A8389835C834B8319013801C60118
:101C50009E828D822A0123E0422255246130710543
:101C600009F06CC0F10131974114510429F4EE0FD1
:101C7000FF1FE15AF94F04C0EE0FFF1FE758F94F5D
:101C8000008111810F5F1F4F8DE691E04B815C81D8
:101C9000489FB001499F700D589F700D11246E5CD4
:101CA00073469A01215030403595279535952795F3
:101CB000620F731F600F711F882777FD8095982F23
:101CC0006D5070408040904027E030E040E050E0B0
:101CD0000E944D2FC30153E0880F991F5A95E1F7D9
:101CE000E616F70654F06C01C618D708CE0CDF1CB8
:101CF00089EF9FEFC80ED91E05C06C01C618D70822
:101D0000CE0CDF1CC00ED11EC61AD70A95E069168C
:101D1000710429F5F101EE0FFF1F452819F4E15A6E
:101D2000F94F02C0E758F94F208131812C153D054C
:101D3000B4F4A9EFBFEFCA0EDB1E11C0F101319759
:101D4000452829F4EE0FFF1FE15AF94F04C0EE0FAA
:101D5000FF1FE758F94FC080D180C80ED91E9501EA
:101D6000442737FD4095542F2F83388749875A875A
:101D70004D815E814A01AA2497FCA094BA2C8CA1C3
:101D80009DA12C01662457FC6094762C8EA19FA106
:101D90009C01442737FD4095542F2B873C874D8766
:101DA0005E8749815A8141305105C9F5D092A0061C
:101DB000C0929F066F81788589859A852CE330E0F3
:101DC00040E050E00E94F92E860E971EA81EB91E14
:101DD000C501B4010E94F92E460E571E681E791ED9
:101DE000C301B20128EE33E040E050E00E94F92E3A
:101DF0002B853C854D855E85260F371F481F591F53
:101E00002093A1063093A2064093A3065093A40604
:101E10004B815C8150939E0640939D0682C0D09278
:101E2000A806C092A70660919506709196068091CB
:101E300097069091980628EE33E040E050E00E942B
:101E4000F92E7B018C018B859C85AD85BE85E80EC6
:101E5000F91E0A1F1B1F6F81788589859A852CE3DF
:101E600030E040E050E00E94F92E860E971EA81E3A
:101E7000B91EC501B4010E94F92E460E571E681EF8
:101E8000791EC301B20128EE33E040E050E00E9429
:101E9000F92EE60EF71E081F191FE092A906F09210
:101EA000AA060093AB061093AC0617FF14C020E0FF
:101EB0003CE546E255E0E20EF31E041F151FE092DA
:101EC000A906F092AA060093AB061093AC060894FC
:101ED000C108D1081CC030E0E3163CE5F30636E249
:101EE000030735E01307BCF080E094EAA9EDBAEFF0
:101EF000E80EF91E0A1F1B1FE092A906F092AA061F
:101F00000093AB061093AC060894C11CD11CD09270
:101F1000A806C092A706AB81BC81B093A606A09389
:101F2000A5062E960FB6F894DEBF0FBECDBFCF919B
:101F3000DF911F910F91FF90EF90DF90CF90BF90B6
:101F4000AF909F908F907F906F905F904F903F9059
:101F50002F9008958F929F92AF92BF92CF92DF926F
:101F6000EF92FF920F931F93CF93DF93EC01809139
:101F7000930690919406892B09F4BFC04A855B852E
:101F800080919D0690919E064817590739F48091DB
:101F9000A5069091A6064817590779F100D00F922F
:101FA000EDB7FEB7128211821482138281E090E0B5
:101FB00061E070E023E030E005E010E0EE24FF2473
:101FC000CC24DD24E2E0AE2EB12C882499240E949A
:101FD000070E4A855B85EDB7FEB712821182148227
:101FE000138280E090E061E070E02AE030E00E943F
:101FF000070E0F900F900F900F90C0909F06D090FB
:10200000A0062091A7063091A8068E859F85C2164E
:10201000D3067CF48C159D050CF46FC02817390786
:102020000CF46BC0C816D9069CF48217930784F48D
:1020300067C0821793070CF463C0C816D9060CF466
:102040005FC02817390724F48C159D050CF455C082
:102050006C817D81882777FD8095982F20E13EE077
:1020600040E050E00E94F92E7B018C016A817B8167
:10207000882777FD8095982F2CE330E040E050E0F2
:102080000E94F92EE60EF71E081F191F688179813C
:10209000882777FD8095982F6E0D7F1D801F911FDB
:1020A00028EE33E040E050E00E94F92EAB01BC0185
:1020B0008E859F858C159D0581F420E030E0809110
:1020C000A1069091A206A091A306B091A40648177C
:1020D00059076A077B07B4F013C020E030E0809115
:1020E000A9069091AA06A091AB06B091AC0648173C
:1020F00059076A077B0734F403C020E030E002C0D0
:1021000021E030E0C901DF91CF911F910F91FF9045
:10211000EF90DF90CF90BF90AF909F908F900895F9
:10212000BC018CE098E00E9414180895BC018CE07A
:1021300098E00E94BC179C01009731F48CE090E07D
:1021400090930B0880930A08C9010895DF92EF92DB
:10215000FF920F931F93DF93CF93CDB7DEB72997ED
:102160000FB6F894DEBF0FBECDBFD82E7B01FE01A7
:102170003196282F392F8901AE01475F5F4F03C089
:1021800081930F5F1F4F202F2D19D8018C91882329
:1021900029F08A3319F0E417F50791F7CE0101967B
:1021A000FC01E20FF11D10820E941520DC01009756
:1021B00049F482E090E090930B0880930A082FEF97
:1021C0003FEF14C0F80180818A3319F060E070E0BD
:1021D00003C0B8016F5F7F4F5D96ED91FC915E97F4
:1021E000CD01A70120E030E019959C01C901299695
:1021F0000FB6F894DEBF0FBECDBFCF91DF911F9118
:102200000F91FF90EF90DF9008952F923F924F92A1
:102210005F926F927F928F929F92AF92BF92CF9276
:10222000DF92EF92FF920F931F93DF93CF93CDB77F
:10223000DEB764970FB6F894DEBF0FBECDBF2C019A
:102240003B011A0159011B8ACC24DD24D1011C91C8
:10225000112309F4C2C10894211C311C812F90E084
:102260000E947C2F892B99F0C301BE016F5F7F4FC5
:1022700041E050E0F2011995019741F7898190E022
:102280000E947C2F892B81F7DD24D394DFCF153278
:10229000A9F0DD2079F4C301BE016F5F7F4F41E0FB
:1022A00050E0F2011995019729F0BB89BB2309F091
:1022B00094C1D1C18981811741F28FC1F10121916E
:1022C0001F01253291F4DD2059F4C301BE016F5F77
:1022D0007F4F41E050E0F2011995019709F098C055
:1022E0008981853209F4B1CF78C100E010E0FF2484
:1022F0001A8A2A3219F482E0F82A1DC02C3619F401
:1023000091E0F92A18C0283621F4AA89AF5FAA8B78
:1023100012C0822F80538A3090F4C801A3E0880F46
:10232000991FAA95E1F7000F111F080F191F020F3F
:10233000111D00531040F10121911F01DACF293600
:10234000D1F02A3648F42835F9F0233609F49FC134
:10235000222309F480C10AC0233729F02837A1F0CD
:102360002F3621F40CC0F2E0FC8B02C083E08C8B92
:10237000EAE0EE2E0FC093E09C8BEE240BC0A3E0AE
:10238000AC8B78E0E72E06C0B0E1FB2AE3E0EC8BF3
:1023900060E1E62EDD2009F063C044C0F1FC10C00E
:1023A00026C0DD2059F4C301BE016E5F7F4F40E1BE
:1023B00050E0F20119951816190654F50051104015
:1023C0000131110570F70115110541F1DD2031F5DD
:1023D000C301BE016E5F7F4FA801F2011995181667
:1023E0001906E4F08B89882309F0F7C034C1DD2099
:1023F000A1F4D5016D917C91C301A801F201199559
:10240000181619062CF4E2E0F0E0AE0EBF1E05C06F
:10241000FB89FF2309F0E1C01EC1C3948B898F5F44
:102420008B8B13CFC301BE016F5F7F4F41E050E044
:10243000F20119950197A1F09B89992309F0CDC06C
:102440000AC1C301BE016F5F7F4F41E050E0F2015E
:102450001995019729F0AB89AA2309F0BEC0FBC0EA
:10246000898190E00E947C2F892B59F7BC89B2307A
:1024700009F042C00115110511F40FEF1FEFF1FC37
:102480000EC014C00150104099F1C301BE016F5F2E
:102490007F4F41E050E0F2011995019749F589819C
:1024A00090E00E947C2F892B69F322C0F501E08027
:1024B000F18010C0D701DD927D010150104089F0FC
:1024C000C301BE016F5F7F4F41E050E0F2011995FB
:1024D000019739F4D9808D2D90E00E947C2F892BB3
:1024E00049F3E2E0F0E0AE0EBF1ED7011C92C394A8
:1024F000BB89BF5FBB8BA9CEC80101970F9710F0B6
:102500000FE010E0ECE2FE2A52E0852E912C8C0EBA
:102510009D1E5CC09981903359F4EE2021F4F0E1C6
:10252000FF2A48E0E42EF5FE26C083EDF8223CC0E9
:10253000892F8153873030F4EE2011F43AE0E32EF6
:10254000B3EE23C0892F8853823058F4EE2019F45B
:102550002AE0E22E03C0E8E0EE15E0F5F3EEFF22FC
:1025600023C0892F8154863018F08052863030F491
:102570008AE08E1578F5A3EEFA2216C09D3211F08E
:102580009B3229F4F2FE26C0BBEFFB220DC0983728
:1025900029F0983519F0DD24D3941DC0F4FE1AC03B
:1025A000EFEEFE2280E1E82ED4019D934D01023032
:1025B000110550F0C301BE016F5F7F4F41E050E055
:1025C000F2011995019731F40150104001151105E0
:1025D00009F0A0CFDD24F3FE03C02C2D30E03DC078
:1025E000F1FC35C0F4011082CE01029660E070E08B
:1025F0004E2D50E00E94802DF0FE08C0D501ED91D7
:10260000FC91608371838283938309C0FA89F130DE
:1026100059F4D501ED91FC91CB0160839183E2E007
:10262000F0E0AE0EBF1E12C095012E5F3F4FFA893B
:10263000FF2329F0D501ED91FC91608306C0D501FF
:10264000ED91FC91CB01608391835901C394BB89C7
:10265000BF5FBB8BFBCD2FEF3FEFC90164960FB679
:10266000F894DEBF0FBECDBFCF91DF911F910F91C8
:10267000FF90EF90DF90CF90BF90AF909F908F90A2
:102680007F906F905F904F903F902F90089501152D
:10269000110509F083CE01E010E080CEDC01129636
:1026A000ED91FC911397309731F41596ED91FC91D3
:1026B0001697199508950788F08DE02D19950895BE
:1026C000CF92DF92EF92FF920F931F93CF93DF93FE
:1026D0006C018B017A01E90107C0C801B70140E133
:1026E00050E0F60119956097C131D105B4F71C1679
:1026F0001D062CF4C801B701AE01F6011995DF9152
:10270000CF911F910F91FF90EF90DF90CF900895A0
:102710002F923F924F925F926F927F928F929F92F1
:10272000AF92BF92CF92DF92EF92FF920F931F93DF
:10273000DF93CF93CDB7DEB76D970FB6F894DEBFBA
:102740000FBECDBF998F888F7B8F6A8F1A01490189
:102750001D8A1C8A9E012E5E3F4F3D8F2C8FB1013A
:1027600003C00894211C311CD101FC90FF2019F0FA
:10277000B5E2FB16B1F78101061B170B61F08A8DDC
:102780009B8DA801E88DF98D19952C893D89200F25
:10279000311F3D8B2C8BFF2009F4EEC20894211CC5
:1027A000311C19821E8A4424552466246A94762C8E
:1027B000D101BD901D01B0E2BB1621F489818823AF
:1027C000B9F703C0EBE2BE1611F4B982F1CFFDE216
:1027D000BF1621F42E8924602E8BEACF33E2B31684
:1027E00021F44E8941604E8BE3CF80E3B81621F48B
:1027F0009E8990619E8BDCCFACE6BA1621F4BE892F
:10280000B860BE8BD5CFEAE7BE1691F2FAE2BF16EA
:1028100081F4C4010296D4014D905C9057FE07C02C
:10282000BE89B460BE8B50944194510853944C01BE
:10283000BFCFEEE2BE1691F5D1018C918A3219F02C
:102840006624772422C00894211C311CF401608086
:10285000718022E030E0820E931E1DC0C301E3E0D0
:10286000880F991FEA95E1F7660C771C860D971D76
:10287000622E772467FC7094A0EDBFEF6A0E7B1E7A
:10288000680E791E0894211C311CF1012081822FD1
:1028900080538A3018F377FE8BCF87CF8B2D8153EF
:1028A000893028F54B2C552420ED3FEF420E531E66
:1028B00017C0C20163E0880F991F6A95E1F7440CC5
:1028C000551C840D951D422E552447FC5094A0EDB7
:1028D000BFEF4A0E5B1E480E591E0894211C311C86
:1028E000F1012081822F80538A3018F361CFF401E7
:1028F000BF8A27E62B15E8F035E6B31608F0B0C11D
:1029000040E5B416C1F14B1548F085E4B81609F45A
:10291000A7C197E4B91609F0A7C1A2C1A3E6BA16E8
:1029200011F1AB1508F475C0B8E5BB1609F09CC1F0
:1029300038C120E7B21609F434C12B1548F039E646
:10294000B31609F466C04FE6B41609F08DC1D9C0BC
:102950008F89853709F45CC0883709F422C1833731
:1029600009F082C128C0A2E0B0E08A0E9B1E8081DF
:102970008A8319827FC122E030E0820E931EE080BC
:10298000F180E114F10439F44DEAC42E46E0D42E6E
:1029900033E73F8B1DC0C7010E94B62E01960E94EF
:1029A0009610182F092FB7010E94AF2E212F302F1C
:1029B000C9016C0106C082E090E0880E991EC080BB
:1029C000D180C114D10421F43DEAC32E36E0D32EC8
:1029D00077FC0FC0C60160E070E0A3010E94BF2E2B
:1029E000009789F08C010C191D09601671065CF0C6
:1029F0000BC0D6010D900020E9F78D010150104069
:102A00000C191D0901C083011982EE24FF243BC16A
:102A10001982BE89B3FF09C024E030E0820E931E04
:102A2000E080F1800281138113C0C4010296D401B9
:102A30002D913C91B5E7BB1629F44C01790100E0DA
:102A400010E015C04C0179010027F7FC0095102F0C
:102A5000E5E7BE1661F017FF0AC010950095F094E7
:102A6000E094E11CF11C011D111DFDE2F98377FCCE
:102A700003C02E892F7E2E8BE114F1040105110570
:102A800049F46114710461F422E1C22ED12CCC0E00
:102A9000DD1E31C03AE0E316F1040105110548F4EA
:102AA00091E1C92ED12CCC0EDD1E8E2D805D898B3F
:102AB00022C082E1C82ED12CCC0EDD1EC801B70188
:102AC0002AE030E040E050E00E942B2F605DD6010C
:102AD0006E936D01C801B7012AE030E040E050E09C
:102AE0000E942B2FC901DA017C018D01E114F10450
:102AF0000105110519F70C8D1D8D0C191D09BF8AD3
:102B0000ADC0BE89B3FF09C024E030E0820E931E41
:102B1000608171818281938109C082E090E0880E9A
:102B2000991E80819181BC0180E090E0198277FC40
:102B300003C0AE89AF7EAE8B61157105810591052D
:102B400049F46114710431F4B2E1CB2ED12CCC0ED6
:102B5000DD1E20C0A2E1CA2ED12CCC0EDD1E262FF8
:102B60002770205DF60122936F01F3E0969587951B
:102B700077956795FA95D1F76115710581059105EE
:102B800071F7FE89F0FF06C0203321F0D601E0E3A3
:102B9000EE936D010C8D1D8D0C191D09FFE6FF8B49
:102BA0005DC020E7B21679F482E090E0880E991EAD
:102BB000808191819C0140E050E09E8991609E8BD4
:102BC000A8E7AF8B16C0BE89B3FF09C024E030E090
:102BD000820E931E208131814281538109C082E09F
:102BE00090E0880E991E808191819C0140E050E028
:102BF000BF8A77FC03C09E899F7E9E8BAF89A835D4
:102C000019F064EB76E002C065EC76E01982E2E14F
:102C1000CE2ED12CCC0EDD1EF901EF70F070E60F38
:102C2000F71F8081F60182936F0194E056954795D6
:102C3000379527959A95D1F721153105410551050D
:102C400059F7FE89F0FF06C0D601EF89EE93E0E365
:102C5000EE936D010C8D1D8D0C191D09730113C0B0
:102C600024E030E0820E931EBB2009F485C0BA82B6
:102C70001982BF8A82E0C82ED12CCC0EDD1EEE2434
:102C8000FF2401E010E058010E151F050CF4570158
:102C90008981882319F00894A11CB11C9E89892F71
:102CA00090E09B8B8A8B3C01A4E16A22772461141B
:102CB000710459F492012A193B09888D998D6A8D06
:102CC0007B8D46ED56E00E9460138981882351F088
:102CD0008A8D9B8DBE016F5F7F4F41E050E0E88D94
:102CE000F98D1995F0E16F16710459F492012A19C2
:102CF0003B09888D998D6A8D7B8D46EE56E00E944A
:102D00006013E01AF10A888D998D6A8D7B8D46EEED
:102D100056E097010E9460130115110541F08A8D5C
:102D20009B8DB601A801288D398DF90119953F8930
:102D3000303519F4C6010E9490104A8942FF0BC039
:102D400092012A193B09888D998D6A8D7B8D46EDFC
:102D500056E00E9460134A145B043CF08C899D8904
:102D6000840D951D9D8B8C8BFACCAC89BD89AA0DE9
:102D7000BB1DBD8BAC8BF3CC8C899D896D960FB63A
:102D8000F894DEBF0FBECDBFCF91DF911F910F91A1
:102D9000FF90EF90DF90CF90BF90AF909F908F907B
:102DA0007F906F905F904F903F902F900895DC013F
:102DB0001296ED91FC911397309731F41796ED919F
:102DC000FC91189719950895018CF28DE02D1995B5
:102DD0000895DF93CF9300D00F92CDB7DEB7FC01FB
:102DE000A281B381109799F423853485211531058B
:102DF000A9F06AE070E0AE014F5F5F4FF9011995ED
:102E0000892B61F429813A814B815C8116C09196AE
:102E10002D913C9192972115310559F489E090E06C
:102E200090930B0880930A082FEF3FEF4FEF5FEF6F
:102E300004C0F90119959B01AC01B901CA010F90B9
:102E40000F900F900F90CF91DF910895FC0180813A
:102E5000823751F0873719F08136C9F40AC081E012
:102E600093E042E053E009C080E090E042E050E0AF
:102E700004C089E091E04AE051E060E070E411C0F4
:102E80002B3271F0223619F460E070E80AC086E156
:102E900090E090930B0880930A082FEF3FEF08C053
:102EA000CA0131962081222359F79B01282B392B07
:102EB000C90108950F931F93DF93CF930F92CDB75E
:102EC000DEB78C01FC01848183FF05C0877F84838A
:102ED000258136811CC0F80180819181BE016F5F20
:102EE0007F4F41E050E00E944E138130910561F028
:102EF000F8012481892B11F0206102C02062F801C1
:102F000024832FEF3FEF03C08981282F30E0C901D0
:102F10000F90CF91DF911F910F9108950F931F9301
:102F2000DF93CF930F92CDB7DEB78C01FB0189837E
:102F300080819181BE016F5F7F4F41E050E00E9430
:102F4000D716019711F00FEF1FEFC8010F90CF9127
:102F5000DF911F910F9108959C01D9010D900020E0
:102F6000E9F71197A21BB30BFB0180819181B90195
:102F7000AD010E94D7160895CF93DF93DC016E5FF9
:102F80007F4F6430710510F464E070E06F5F7F4F35
:102F90006E7FED91FC911197AD01A0E0B0E0C0E033
:102FA000D0E01BC0208131812617370780F01097B1
:102FB00031F08D919C9111972817390740F426170D
:102FC000370719F4DF01EA010DC0DF01EA01AF01A3
:102FD0004E5F5F4F0280F381E02D309719F79D011E
:102FE0001097F1F08D919C911197861B970B12967B
:102FF0002D913C9113978430910568F0FD01E60F07
:10300000F71F918380833383228311967C936E9381
:10301000F983E88302C0398328839D012E5F3F4FE7
:10302000C901DF91CF910895CF93DF93EC01611532
:10303000710519F42DEF3FEF5FC0DB011297E881B6
:10304000F9814FC020813181CF01820F931F8A17F0
:103050009B07E9F46D917C91620F731F718360830C
:10306000DF01A60FB71F82819381A817B90709F066
:1030700041C08D919C911197680F791F7183608376
:1030800012968D919C9113979383828333C0AE17D0
:10309000BF07E0F4B983A8834D915C911197CD01EE
:1030A000840F951F8E179F0761F4240F351F11960B
:1030B0003C932E938281938113969C938E931297C7
:1030C00019C01396FC93EE93129714C0A817B90772
:1030D00018F42FEF3FEF10C0EF0122960280F3812A
:1030E000E02D309709F0AECF13961C921E921297E6
:1030F000B983A88320E030E0C901DF91CF91089522
:103100006F5F7F4FFB01EE7F61507040640F751F52
:103110006E1B7F0B6E7F61937193BF010E94141829
:103120000895FC010190F081E02D20E030E008C01E
:10313000808191810297280F391F0280F381E02D51
:103140003097B1F7C9010895FC010190F081E02D9D
:1031500020E030E009C0808191812817390708F408
:103160009C010280F381E02D3097A9F72250304076
:10317000C901089580E090E00895EF92FF920F93C7
:103180001F93CF93DF938C01C0910C08D0910D0851
:1031900086EFE82E86E0F82E26C08DB79EB70897FA
:1031A0000FB6F8949EBF0FBE8DBFEDB7FEB7319638
:1031B000ADB7BEB712961C930E931197F382E282BD
:1031C000D583C48388819981978386830E945528FB
:1031D0000A80DB81C02D8DB79EB708960FB6F89494
:1031E0009EBF0FBE8DBF2097C1F6DF91CF911F917B
:1031F0000F91FF90EF900895AF92BF92CF92DF9220
:10320000EF92FF920F931F93CF93DF936C017B019B
:103210006115710529F4BA010E94BC177C018FC0A9
:103220004115510531F40E941418892B09F487C007
:1032300061C08B01025010404E5F5F4F443051051A
:1032400010F444E050E0EA012196CE7FF80120819D
:1032500031812C173D0708F05FC0F601A081B181D4
:10326000560109C092E0A92EB12CAA0EBB1E1296DF
:103270000D90BC91A02D1097B1F1A017B10790F35C
:103280006AC0C801820F931F8A179B0761F5CA01A4
:10329000861B970B0497D0F0260F371FE801398360
:1032A0002883FD01E60FF71FE501F983E8831296F5
:1032B0008D919C91139793838283E881F9818D91FD
:1032C0009C91861B970B9183808339C0420F531FBB
:1032D000F8015183408312968D919C911397E501DB
:1032E000998388832CC0C601BE010E94BC17EC01E3
:1032F000009719F4EE24FF2422C0F80120813181C7
:1033000022503040B701A9010E94D92EC601B70151
:103310000E9414187E0113C0C9010497C817D90769
:1033200070F42C1B3D0BF801EC0FFD1F2193319322
:10333000C601BF010E941418F801D183C083C701E0
:10334000DF91CF911F910F91FF90EF90DF90CF9081
:10335000BF90AF900895BE01621B730B4D915C91BD
:1033600011974617570708F08CCFBDCF0F931F93C7
:10337000CF93DF93162F072F0E94BC17EC01009705
:1033800031F060E070E0412F502F0E94E22ECE011C
:10339000DF91CF911F910F910895CF93DF93DC01BF
:1033A000EB0158967C936E93579715961C921E923C
:1033B00014970FB6F8940F92E881F9818FEFEF3FE1
:1033C000F80761F414968D919C91159701961596C6
:1033D0009C938E931497E0E0F0E015C0309799F03D
:1033E0000F900FBE52969C91529707C0EF01229604
:1033F0000280F381E02D309719F082899817B0F799
:103400000FB6F8940F921396FC93EE931297B9832C
:10341000A8831296ED91FC911397309791F08481D7
:103420009581892B71F014962D913C91159784818B
:103430009581820F931F15969C938E9314971582F6
:1034400014820F900FBEDF91CF910895CF93DF9339
:10345000DC01EB010FB6F8940F92E881F9810F902F
:103460000FBE8FEFEF3FF80799F534C0EA17FB075F
:1034700051F50FB6F8940F9212968D919C91139777
:103480009983888314968D919C911597892B81F04F
:103490001296ED91FC911397309731F014968D911F
:1034A0009C9115979583848315961C921E92149770
:1034B0000F900FBE13961C921E92129758961C9254
:1034C0001E92579707C0EF0122960280F381E02DEC
:1034D000309761F6DF91CF910895FB01168A158A26
:1034E00082E08787CB0160E178E00E94CD190895E2
:1034F0000F931F93CF93DF938C010097B1F0C0918E
:103500000E08D0910F080CC0CE010696B8010E949B
:10351000E92E009711F49E010CC00990D881C02DAE
:10352000209791F720E030E004C0209112083091FC
:103530001308C901DF91CF911F910F910895E09178
:103540001408F0911508309751F0638974898CE064
:1035500098E00E941418109215081092140808950B
:10356000CF93DF93C0910E08D0910F080E949F1A4D
:103570004091120850911308EEE0F8E00BC028814A
:103580003981C417D50719F42083318305C0FE01A2
:10359000C901EC01209799F78091120890911308C6
:1035A0009093150880931408DF91CF9108950F939D
:1035B0001F93182FE0911208F09113080289CF0190
:1035C00060E178E00E94261AE0911208F091130859
:1035D000128B1F3F31F0CF0160E178E00E94CD19DE
:1035E00002C00E94B01AE0911208F0911308809175
:1035F000100890911108E817F90719F481E08787FE
:1036000009C082E087870FB6F8940F920E94332199
:103610000F900FBE802F1F910F9108958FEF0E9482
:10362000D71A0895CF93DF93C0910E08D0910F0859
:1036300020C00FB6F8940F928C819D810F900FBE21
:10364000892BA1F0EF89F88D0FB6F8940F928C8139
:103650009D8101979D838C830F900FBE8081918106
:103660008F5F9F4F19F0CF010E94B61E0990D8813D
:10367000C02D2097F1F60E949E1DE0911208F09156
:1036800013088091100890911108E817F90761F06C
:103690008785813011F482E087870FB6F8940F9206
:1036A0000E9433210F900FBEDF91CF910895E091DA
:1036B0001208F091130882819381892B69F0CF0160
:1036C00060E178E00E94261A809112089091130818
:1036D00060E178E00E94CD190E94121B089580914C
:1036E0001C0890911D08A0911E08B0911F0801961A
:1036F000A11DB11D80931C0890931D08A0931E0866
:10370000B0931F0808952091160830911708409132
:103710001808509119080E94F92E28EE33E040E075
:1037200050E00E942B2FC901DA0104C0000001976C
:10373000A109B1090097A105B105C1F7089590E06D
:10374000A0E0B0E0BC01CD0128EE33E040E050E065
:103750000E94F92E0E94831B0895CF93DF93EC0102
:103760001B821A82E0911A08F0911B0823C0288559
:1037700039854A855B8580859185A285B385281723
:1037800039074A075B0748F4821B930BA40BB50B60
:1037900080879187A287B3870FC0281B390B4A0BFC
:1037A0005B0B288739874A875B87FB83EA83019015
:1037B000F081E02D3097D9F6F983E883309711F046
:1037C000D383C283EA81FB81309719F0D183C08310
:1037D00004C0D0931B08C0931A08DF91CF910895BD
:1037E000CF93DF93FC01148215821682178215860F
:1037F000148680859185A285B3850097A105B105C2
:1038000061F1A281B38180819181109719F08D932C
:103810009C9304C090931B0880931A08C081D181A7
:103820002097A1F0828193819B838A8388859985E3
:10383000AA85BB852085318542855385820F931FDC
:10384000A41FB51F88879987AA87BB871086118612
:1038500012861386CF010E94AD1BDF91CF91089590
:103860000FB6F8940F9220911C0830911D084091DA
:103870001E0850911F080F900FBEB901CA0108958C
:1038800060E070E081EE90E008951092A907109238
:10389000AA071092AB071092AC0780E090E0089561
:1038A0002F923F924F925F926F927F928F929F9250
:1038B000AF92BF92CF92DF92EF92FF920F931F933E
:1038C0000FB6F8940F92E0901C08F0901D0800913C
:1038D0001E0810911F080F900FBE0E9422229B010C
:1038E000AC01C801B7010E942B2F522E432E342E5B
:1038F000252E0E9422225B016C010E9422223B01A4
:103900004C01652D742D832D922DA60195010E94E9
:10391000F92EE61AF70A080B190BC801B70128EEB1
:1039200033E040E050E00E94F92EA40193010E9490
:103930002B2F79018A01652D742D832D922D28EE70
:1039400033E040E050E00E94F92EE60EF71E081F1B
:10395000191FB701C8011F910F91FF90EF90DF90E1
:10396000CF90BF90AF909F908F907F906F905F901F
:103970004F903F902F900895EF92FF920F931F93D7
:103980000FB6F8940F92E0901C08F0901D0800917B
:103990001E0810911F080F900FBE0E9422229B014B
:1039A000AC01C801B7010E942B2FCA01B9011F91B8
:1039B0000F91FF90EF900895AF92BF92CF92DF9258
:1039C000EF92FF920F93CF93DF936B017C01EA019B
:1039D00059018CE098E060E170E00E94BC17FC01A6
:1039E000009781F10FB6F8940F9280911C08909186
:1039F0001D08A0911E08B0911F080F900FBE2091C6
:103A0000A5073091A6074091A7075091A807821BF0
:103A1000930BA40BB50B8C0D9D1DAE1DBF1D808798
:103A20009187A287B38700FF05C014821582168292
:103A3000178204C0C482D582E682F782D587C48704
:103A4000B786A686CF01DF91CF910F91FF90EF90BF
:103A5000DF90CF90BF90AF9008950F93CF93DF93F7
:103A60000E94DC1CEC01009711F00E94AD1BCE01FE
:103A7000DF91CF910F910895CF92DF92EF92FF9255
:103A80000F937A0169010E942722A70196010E94E3
:103A90002D1D0F91FF90EF90DF90CF900895AF9282
:103AA000BF92CF92DF92EF92FF920F93CF93DF936B
:103AB0005B016C01611571058105910599F1C0E10A
:103AC000D8E08091120890911308BE010E94261A36
:103AD000E0901208F090130883E0F7018787C60191
:103AE000B5014DE65AE1970101E00E943C1DF70146
:103AF000968B858B892B19F00E94121B15C0E091C3
:103B00001208F0911308D08FC78B80911008909104
:103B100011089383828381E08787F0931108E093F3
:103B2000100802C00E94571BDF91CF910F91FF90A8
:103B3000EF90DF90CF90BF90AF900895EF92FF92FB
:103B40000F931F93CF93DF930FB6F8940F922091AA
:103B50001C0830911D0840911E0850911F080F90BD
:103B60000FBE8091A5079091A607A091A707B091DD
:103B7000A80779018A01E81AF90A0A0B1B0B20939E
:103B8000A5073093A6074093A7075093A80751C0F5
:103B900088859985AA85BB85E816F9060A071B075B
:103BA00060F48E199F09A00BB10B88879987AA87AB
:103BB000BB87EE24FF24870108C0E81AF90A0A0B24
:103BC0001B0B188619861A861B8688859985AA85F7
:103BD000BB850097A105B10561F5EC85FD853097A2
:103BE00021F06E857F85CE011995E0911A08F0913C
:103BF0001B080190F081E02DF0931B08E0931A0858
:103C0000309711F0138212828C819D81AE81BF8129
:103C100088879987AA87BB870097A105B10531F4EA
:103C20008CE098E0BE010E94141803C0CE010E94EF
:103C3000AD1BC0911A08D0911B08209731F0E114F8
:103C4000F1040105110509F0A3CFDF91CF911F9178
:103C50000F91FF90EF9008958FE69BE10E94432221
:103C6000809170008260809370000FB6F8940F927C
:103C700020911C0830911D0840911E0850911F088A
:103C80000F900FBE0FB6F8940F9280911C08909180
:103C90001D08A0911E08B0911F080F900FBE281795
:103CA00039074A075B0771F30FB6F8940F9220911A
:103CB0001C0830911D0840911E0850911F080F905C
:103CC0000FBE13C08091160890911708A091180894
:103CD000B09119080196A11DB11D8093160890930B
:103CE0001708A0931808B09319080FB6F8940F920C
:103CF00080911C0890911D08A0911E08B0911F088A
:103D00000F900FBE281739074A075B07D9F2609159
:103D1000160870911708809118089091190827E6E5
:103D200030E040E050E00E94F92E60931608709356
:103D300017088093180890931908609116087091DD
:103D4000170880911808909119082AE130E040E0A6
:103D500050E00E942B2FC901DA018093160890933E
:103D60001708A0931808B09319080895CF93DF930C
:103D7000DC010FB6F8940F92CD91DC9111970F9062
:103D80000FBE8FEFCF3FD80709F43AC0209771F1EB
:103D90000FB6F8940F92EA81FB811196FC93EE9393
:103DA0008C819D81892B71F0309729F08C819D81C8
:103DB0009583848305C08FEF9FEF11969C938E931C
:103DC0001D821C820F900FBE8D899E89009721F065
:103DD0000E94F01B1E8A1D8A82E08F87CE0160E15F
:103DE00078E00E94CD1921E030E00CC00FB6F894C5
:103DF0000F928FEF9FEF11969C938E930F900FBEB3
:103E000020E030E0C901DF91CF9108950F931F9317
:103E1000CF93DF938C010FB6F8940F92FC01808151
:103E200091810F900FBEFFEF8F3F9F0749F40FB6B0
:103E3000F8940F92F801118210820F900FBE02C009
:103E4000892B19F4C0E0D0E013C0C0E0D0E0C80175
:103E50000E94B61EC80FD91F0FB6F8940F92F80132
:103E6000808191810F900FBE01978E5F9F4F78F3F5
:103E7000CE01DF91CF911F910F9108950F931F9362
:103E80000E94061F182F092F0E94571B812F902F69
:103E90001F910F9108950F931F930E94B61E182F24
:103EA000092F0E94571B812F902F1F910F9108956A
:103EB000CF93DF93AC01DB010FB6F8940F92CD9155
:103EC000DC9111970F900FBE8FEFCF3FD80799F578
:103ED00034C08D899E892A813B818417950741F5DD
:103EE0000FB6F8940F9211963C932E938C819D817E
:103EF000892B81F0EA81FB81309729F08C819D81AB
:103F00009583848305C08FEF9FEF11969C938E93CA
:103F10001D821C820F900FBE82E08F87CE0160E170
:103F200078E00E94CD198FEF9FEF9E8B8D8B05C09F
:103F3000DE011296E901209761F6DF91CF91089595
:103F4000CF92DF92EF92FF920F931F93CF93DF9365
:103F50008C016A017B010FB6F8940F92FC018081FD
:103F600091810F900FBE8F5F9F4F59F40FB6F89459
:103F70000F92F801118210820F900FBE0E94571B02
:103F800032C0809112089091130860E178E00E949D
:103F9000261A8091120890911308B8010E94CD1939
:103FA000C0911208D091130883E08F87C114D10407
:103FB000E104F10459F0C701B60148E55FE1980159
:103FC00001E00E943C1D9E8B8D8B02C01E8A1D8AC3
:103FD0000E94121BE0911208F091130885899689BE
:103FE0008F5F9F4F19F020E030E004C0168A158AD9
:103FF0002FEF3FEFC901DF91CF911F910F91FF90FC
:10400000EF90DF90CF900895FC010FB6F8940F92D7
:10401000808191818F5F9F4F11F4118210820F90E8
:104020000FBECF010E94A01F08950F931F93CF933F
:10403000DF938C01C091AD07D091AE070AC0CE01CD
:104040000296B8010E94E92E009729F00990D881C4
:10405000C02D2097A1F7CE01DF91CF911F910F9135
:104060000895CF93DF93EC016115710511F07D8701
:104070006C8741114E87CE0102960E941520892B34
:10408000A9F4EB89FC89309721F0CE011995892B91
:1040900069F48091AD079091AE0799838883D0939E
:1040A000AE07C093AD0720E030E002C02FEF3FEF36
:1040B000C901DF91CF91089583E1809320088FE4B7
:1040C00093E5909322088093210880E090E060E2DD
:1040D00078E043E150E00E949B20089580E090E06A
:1040E00060E278E043E150E00E949E20892B89F451
:1040F00080912008833169F481E298E06EEF76E0E8
:1041000042E050E00E94CC2E009719F420E030E00D
:1041100008C083E298E061E077E00E94F22E2FEF82
:104120003FEFC901089560E073E088E094E00895EE
:104130008AE097E008950E94402708950E942C2766
:104140000895FC019093B0078093AF07009779F032
:104150000190F081E02D309751F01995892B39F0BD
:104160001092B0071092AF072FEF3FEF02C020E090
:1041700030E0C9010895E091AF07F091B0073097A2
:1041800051F00280F381E02D309729F0009719F06B
:1041900019959C0102C02FEF3FEFC9010895E091EE
:1041A000AF07F091B007309751F00480F581E02D12
:1041B000309729F0009719F019959C0102C02FEF54
:1041C0003FEFC9010895E091AF07F091B007309734
:1041D00041F00680F781E02D309719F019959C0188
:1041E00002C02FEF3FEFC9010895E091AF07F091B2
:1041F000B007309741F00084F185E02D309719F039
:1042000019959C0102C02FEF3FEFC9010895E0917D
:10421000AF07F091B007309741F00284F385E02DAD
:10422000309719F019959C0102C02FEF3FEFC9019B
:104230000895E091AF07F091B007309741F0048402
:10424000F585E02D309719F019959C0102C02FEFEC
:104250003FEFC90108959F918F910F900BBE0F9072
:104260000FBE1F9018952F923F924F925F926F92C0
:104270007F928F929F92AF92BF92CF92DF92EF92F6
:10428000FF920F931F93CF93DF938DB79EB7E0916B
:104290001208F0911308918B808BE0911008F09137
:1042A0001108F0931308E093120881E08787808952
:1042B00091898DBF9EBFDF91CF911F910F91FF908C
:1042C000EF90DF90CF90BF90AF909F908F907F90B6
:1042D0006F905F904F903F902F900895AF92BF9254
:1042E000CF92DF92EF92FF920F931F93CF93DF93C2
:1042F000F82EE92E6B01B42EA52EE901B901675EF7
:104300007F4F8CE098E00E94BC17FC01009719F4E5
:1043100020E030E082C08C010C0F1D1FE8012897BF
:10432000A8014D515040B8016A5F7F4F8F2D9E2DDF
:104330009C0188E0D9010D909D01DB010D92BD012A
:104340008150C1F7D8011E961C921E9741505040D3
:1043500051965C934E9350974F5F5F4F5496FC93EA
:10436000EE9353978FEE9EEBADEABEED8083918383
:10437000A283B38384839583A683B7838087918741
:10438000A287B38784879587A687B78780E4F801DB
:10439000828B1D82DE82CF8280E88B831A821C8210
:1043A000B982A882DA0152961C9252978BE291E26E
:1043B00053969C93539754968C9380910E089091AA
:1043C0000F089183808310930F0800930E0882E0FA
:1043D0008787168A158A108E178AC80160E178E0EF
:1043E0000E94CD19E0911208F0911308309721F442
:1043F0000FB6F8940F9251CF809110089091110848
:10440000E817F90749F082E087870FB6F8940F9212
:104410000E9433210F900FBE9801C901DF91CF9107
:104420001F910F91FF90EF90DF90CF90BF90AF90D2
:1044300008956091B1077091B2078091B307909190
:10444000B40708956AEE73E080E090E008952AEEE4
:1044500033E040E050E00E94F92E28EE33E040E0E7
:1044600050E00E942B2FC901DA019C01AD012115FA
:1044700031054105510521F421E030E040E050E0F4
:10448000B901CA010895BC0180E090E0A1EEB0E05E
:104490008093B1079093B207A093B307B093B4078A
:1044A000E0E7F0E080818D7F80831092B20092E09F
:1044B0009093B00085E08093B10082E78093B300D1
:1044C00095BB82E197E040E050E00E94712808959A
:1044D0009C01FB01409170004270809170008D7FC3
:1044E0008093700020313105D1F0213131053CF449
:1044F0002115310581F02130310551F40DC02231F3
:10450000310571F122313105D4F020323105D1F07D
:104510002FEF3FEF1DC040E082E087BB17C0B99B83
:1045200005C081E090E09183808302C011821082F7
:104530004423B1F08081918180689183808320E061
:1045400030E008C088E090E09183808320E030E094
:10455000442341F08091700082608093700002C01B
:1045600020E030E0C90108951F920F920FB60F921C
:104570000BB60F9211242F933F934F935F936F933A
:104580007F938F939F93AF93BF93EF93FF9382E1BA
:1045900097E00E946628FF91EF91BF91AF919F91A4
:1045A0008F917F916F915F914F913F912F910F90DC
:1045B0000BBE0F900FBE0F901F901895FC016281EB
:1045C00073812091B607422F50E0CA01807390702A
:1045D000892B99F024FF05C083E18093C6002064F5
:1045E00004C081E18093C6002F7B2093B6078091A1
:1045F000B6078F7C8093B607089527FF06C0809189
:10460000C1008F7D8093C100089582859385892B99
:10461000C1F1828593850197938782878091B7073F
:10462000882321F08091C100816003C08091C10086
:104630008E7F8093C100DB018D918093C6008681BF
:104640009781A817B90711F4A481B581B383A28318
:1046500022853385848595852817390779F5A089C2
:10466000B1891097C9F08FEFAF3FB80739F11496B1
:104670008D919C911597019615969C938E93149706
:1046800008958091C1008F7D8093C10013861286AA
:10469000A089B189109729F48FEF9FEF918B808BC0
:1046A00008958FEFAF3FB80749F014968D919C9114
:1046B0001597019615969C938E9314970895CF9312
:1046C000DF93282F5091C0008091B507582B50934D
:1046D000B5076091C6004091B6074423A1F063314D
:1046E00039F48091C1008F7D8093C100406808C07B
:1046F000613149F48091C10080628093C1004F779D
:104700004093B60760C0A22FB92F1A962D913C9105
:104710001B9718968D919C9119972817390720F0AF
:1047200058605093B5074FC0E9012196232BB9F487
:104730005096ED91FC915197309739F48FEF9FEFA0
:1047400051969C938E93509722C08FEFEF3FF807BE
:10475000F1F08481958101969583848318C0442368
:10476000B1F01E968D919C911F97C817D90778F0CC
:1047700046FD0DC08091C00085FF06C083E1809397
:10478000C60040644F7D01C040624093B607ED9182
:10479000FC91119761931196FC93EE932D913C91AE
:1047A000119716968D919C9117972817390739F410
:1047B00014968D919C91159711969C938E931B96B0
:1047C000DC93CE931A97DF91CF9108958091C10029
:1047D00082FF02C089E008958091C20082FF08C074
:1047E0008091C20081FD02C087E0089588E00895AD
:1047F0008091C20081FD02C085E0089586E00895A1
:104800008091C20085FD02C080E008958091C200C1
:1048100084FD02C082E0089581E008958091C20085
:1048200083FD02C081E0089582E008958091B5077C
:10483000682F70E0CB0124E0969587952A95E1F7E3
:104840009C0140E050E0217030704070507063FD7A
:10485000226062FD24608091B607882321F086FDE6
:10486000426087FD486041FF416043FF44608091A2
:10487000B707882311F0406401C040688091C000F0
:1048800080FF02C0406101C04062B901CA010895C1
:10489000EF92FF920F931F937B018C018091B607DB
:1048A0008823D9F00FB6F8940F9200FF02C08F7BD7
:1048B00003C001FF03C080648093B60702FF04C0F9
:1048C0008091B6078F7705C003FF05C08091B607BA
:1048D00080688093B6070F900FBE06FF03C081E08B
:1048E0008093B70707FF02C01092B70704FF05C007
:1048F0008091C00081608093C00005FF05C0809159
:10490000C0008E7F8093C000C70181709070892B9A
:1049100029F08091B5078F7E8093B507E1FE05C031
:104920008091B507877F8093B507E2FE05C080912F
:10493000B5078B7F8093B5070E941624687F6E159C
:104940007F058007910719F420E030E002C02FEFC7
:104950003FEFC9011F910F91FF90EF900895809153
:10496000C20086FF0BC06A9B02C093E001C091E0C9
:104970008091C20080FF09C0946007C08091C00090
:1049800081FF02C090E201C090E0892F08958091DC
:10499000B607882329F420E030E040E050E004C06E
:1049A00020E230E040E050E0B901CA010895EF9202
:1049B000FF920F931F937B018C0165FF0DC08091C7
:1049C000B607882381F40FB6F8940F9281E48093A0
:1049D000B6070F900FBE07C00FB6F8940F92109253
:1049E000B6070F900FBE8091B607882329F420E008
:1049F00030E040E050E004C020E230E040E050E031
:104A00002E153F054007510719F420E030E002C0A1
:104A10002FEF3FEFC9011F910F91FF90EF90089585
:104A2000E1ECF0E080818062808308959091B60788
:104A30009923C1F096FF16C00FB6F8940F9280919B
:104A4000C00085FF05C081E18093C6009F7E01C044
:104A500090619093B6078091B6078F798093B607DF
:104A60000F900FBE08950F931F930FB6F8940F92F7
:104A700001EC10E0F80180818F77808380818F7B4B
:104A8000808380818F7D80830F900FBE8AE00E949B
:104A90009F1BF80180818F7E80838081877F808348
:104AA0001F910F9108951F93182F0E943325812F76
:104AB00010FF1BC011FF02C06A9A01C06A9882FFF2
:104AC00004C08091C200816003C08091C2008E7FCB
:104AD0008093C2008091C0008D7F8093C000809140
:104AE000C00080648093C00015C015FF04C0809191
:104AF000C000826003C08091C0008D7F8093C000A1
:104B00008091C2008E7F8093C2008091C2008F7B13
:104B10008093C2000FB6F8940F9288EB8093C10087
:104B20000F900FBE0E94AF24811719F420E030E0EF
:104B300002C02FEF3FEFC9011F9108951F93182F57
:104B40000E943325113021F48091C200877F05C077
:104B5000123029F48091C20088608093C2000FB6A1
:104B6000F8940F9288EB8093C1000F900FBE809154
:104B7000C20083FD02C081E001C082E0811719F408
:104B800020E030E002C02FEF3FEFC9011F910895F0
:104B90001F93182F0E943325113071F0113018F037
:104BA0001230C1F40DC08091C2008F7E8093C2008C
:104BB0008091C2008F7D0CC08091C200806103C0D3
:104BC0008091C2008F7E8093C2008091C20080627B
:104BD0008093C2000FB6F8940F9288EB8093C100C7
:104BE0000F900FBE8091C20085FD02C080E007C01B
:104BF0008091C20084FD02C082E001C081E0811783
:104C000019F420E030E002C02FEF3FEFC9011F91FF
:104C100008951F93182F0E9433258091C1008B7F28
:104C20008093C1008091C2008D7F8093C2008091EB
:104C3000C2008B7F8093C2001730C1F0183018F487
:104C40001630C9F405C0183061F01930A1F404C061
:104C50008091C20082600DC08091C1008460809309
:104C6000C1008091C20082608093C2008091C20026
:104C700084608093C2000FB6F8940F9288EB809303
:104C8000C1000F900FBE8091C10082FF02C089E079
:104C900013C08091C20082FF08C08091C20081FDD4
:104CA00002C087E009C088E007C08091C20081FD92
:104CB00002C085E001C086E0811719F420E030E0F1
:104CC00002C02FEF3FEFC9011F9108958F929F926D
:104CD000AF92BF92CF92DF92EF92FF920F931F930A
:104CE0009090C4008090C5008091C20086FF06C0ED
:104CF00052E0A52EB12CC12CD12C0FC08091C00048
:104D000081FD06C040E1A42EB12CC12CD12C05C0E0
:104D100038E0A32EB12CC12CD12C0E94401C7B0169
:104D20008C01892D90E0382D20E0282B392B40E094
:104D300050E02F5F3F4F4F4F5F4FC601B5010E94BC
:104D4000F92E9B01AC01C801B7010E942B2FCA01AB
:104D5000B9011F910F91FF90EF90DF90CF90BF901E
:104D6000AF909F908F900895EF92FF920F931F93B3
:104D70007B018C010E9433258091C20086FD13C007
:104D80008091C00081FF08C0E2E0EE0CFF1C001F14
:104D9000111FEA95D1F707C073E0EE0CFF1C001F4E
:104DA000111F7A95D1F70E94401CA80197010E941B
:104DB0002B2F2F5F3F4F4F4F5F4F5695479537959E
:104DC0002795215030402093C4003093C5000FB682
:104DD000F8940F9288EB8093C1000F900FBE80E093
:104DE00090E01F910F91FF90EF90089584E997E074
:104DF00060E070E040E050E00E9471288AE997E0AE
:104E000060E070E040E050E00E94712880E090E0B7
:104E1000089584E997E06FE573E24DE557E00E945D
:104E20007128892BA9F48AE997E06EED72E24BE4D0
:104E300057E00E947128892B19F420E030E00AC065
:104E400084E997E060E070E040E050E00E94712863
:104E50002FEF3FEFC90108959C01FB010BC0F999A9
:104E6000FECF32BD21BDF89A80B581932F5F3F4FB1
:104E7000415050404115510591F780E090E0089570
:104E8000CF93DF93EC0120E030E01CC0D901AC0FE0
:104E9000BD1FF999FECFB2BDA1BDF89A80B5FB0147
:104EA000E20FF31FE0818E1759F0F999FECF1FBA78
:104EB000B2BDA1BDE0BD0FB6F894FA9AF99A0FBE43
:104EC0002F5F3F4F2417350708F380E090E0DF9114
:104ED000CF9108959C01FB014091C10040788091E1
:104EE000C1008F778093C10020313105E1F021317D
:104EF00031053CF42115310581F02130310551F4A3
:104F00000DC02231310591F122313105F4F020320A
:104F10003105F1F02FEF3FEF21C040E08091C60056
:104F20008091C60019C08091C00087FF05C081E054
:104F300090E09183808302C0118210824423B1F0FB
:104F40008081918180689183808320E030E008C077
:104F500080E190E09183808320E030E0442341F0C1
:104F60008091C10080688093C10002C020E030E0E1
:104F7000C90108951F920F920FB60F920BB60F92B0
:104F800011242F933F934F935F936F937F938F934E
:104F90009F93AF93BF93EF93FF9384E997E00E94B1
:104FA0006628FF91EF91BF91AF919F918F917F9173
:104FB0006F915F914F913F912F910F900BBE0F908A
:104FC0000FBE0F901F9018959C01FB014091C100EE
:104FD00040728091C1008F7D8093C10021313105E5
:104FE00029F1223131053CF42115310581F12031BF
:104FF000310539F409C02231310549F1203231053A
:10500000C1F02FEF3FEF1BC08091C00085FF05C0AE
:1050100081E090E09183808302C01182108244235A
:10502000B1F08081918180689183808320E030E0BD
:1050300008C080E190E09183808320E030E0442349
:1050400041F08091C10080628093C10002C020E0E5
:1050500030E0C90108951F920F920FB60F920BB660
:105060000F9211242F933F934F935F936F937F93EE
:105070008F939F93AF93BF93EF93FF938AE997E04A
:105080000E946628FF91EF91BF91AF919F918F9100
:105090007F916F915F914F913F912F910F900BBE38
:1050A0000F900FBE0F901F901895DF93CF93CDB741
:1050B000DEB79E01265F3F4F8E819F81688579858F
:1050C000A9010E94AC08CF91DF910895DC011296EE
:1050D000ED91FC911397309719F08D919C91199552
:1050E0000895EF92FF920F931F93CF93DF93EC01FC
:1050F0007B018A01EC81FD81309719F420E030E0DA
:1051000006C080E090E060E070E019959C01198392
:105110000883FB82EA82C901DF91CF911F910F9131
:10512000FF90EF900895DC011496ED91FC91159796
:10513000309719F42FEF3FEF06C081E190E060E077
:1051400070E019959C01C9010895DC011496ED9158
:10515000FC911597309719F42FEF3FEF06C082E1CD
:1051600090E060E070E019959C01C90108950F93EB
:105170001F93DF93CF9300D00F92CDB7DEB78C0192
:105180007C836B83DC011496ED91FC91159730972D
:1051900019F42FEF3FEF19C080E290E0BE016F5F7E
:1051A0007F4F19959C01009781F4D8011496ED91D9
:1051B000FC91159781E290E0BE016D5F7F4F1995DC
:1051C0009C01009711F429813A81C9010F900F9039
:1051D0000F900F90CF91DF911F910F9108950F9332
:1051E0001F93DF93CF9300D00F92CDB7DEB78C0122
:1051F0007C836B83DC011496ED91FC9115973097BD
:1052000019F42FEF3FEF1DC088E190E0BE016F5F02
:105210007F4F19959C010097A1F48B819C81892B6C
:1052200071F0D8011496ED91FC91159789E190E009
:10523000BE016D5F7F4F19959C01009711F4298184
:105240003A81C9010F900F900F900F90CF91DF918D
:105250001F910F9108950F931F93CF93DF93FC013C
:10526000C189D289EDA9FEA919958C01009749F44D
:10527000CF5BDF4FE881F98160E072EC81E090E084
:105280001995C801DF91CF911F910F910895DC010D
:105290001296ED91FC9113970188F289E02D0FB6DB
:1052A000F8940F9284A595A50F900FBEBC0180E0E5
:1052B00090E00895CF92DF92EF92FF920F931F93A9
:1052C000CF93DF93EC018B017A0169018C819D8181
:1052D000288539850FB6F8940F92198618860F9095
:1052E0000FBE2617370789F0232B21F0009711F006
:1052F0000E9490100115110511F1C8010E9496102D
:10530000009731F42FEF3FEF1CC061157105B9F024
:105310009D838C83998388839B838A83800F911FCD
:105320009F838E83FD86EC86DF86CE861B861A865B
:105330000FB6F8940F92198708870F900FBE20E0E0
:1053400030E0C901DF91CF911F910F91FF90EF9055
:10535000DF90CF900895CF92DF92EF92FF920F935C
:105360001F93CF93DF93FB016A01DA01ED90FD906B
:105370000D911C912E2DDC015196CD91DC9152970F
:10538000E150F140E732F10540F4EA59FF4FEE0FEA
:10539000FF1F0590F491E02D19940FEF1FEF18C136
:1053A000CF5BDF4F43C0CD5BDF4F91C0CB5BDF4FA7
:1053B000E881F981822F19958C010AC1C95BDF4F01
:1053C0000BC0C75BDF4FF4CFC55BDF4F05C0C35BCE
:1053D000DF4FEECFC15BDF4FE881F981199590E097
:1053E000EEC0E6FE0DC06AA57BA54EA55FA528A967
:1053F00039A9CE0182960E945A29EBADFCAD1995D0
:10540000E7FE0AC0688D798D4C8D5D8D2E8D3F8DA8
:10541000CE0140960E945A29CF5ADF4F8FE39FEF6B
:10542000AFEFBFEFE822F9220A231B23E881F981BD
:10543000C801B7011995C0CFCD5ADF4FE881F98176
:10544000C355D04019959B01AC01D6016D937D9356
:105450008D939C9313978CA59DA5892B31F4206483
:10546000F60120833183428353838A8D9B8D892B60
:1054700009F0ACC0F60180819181A281B38180687E
:10548000A1C0E886F9860A871B87A0C08885998510
:10549000AA85BB8596C0EC86FD860E871F8796C0C1
:1054A0008C859D85AE85BF858CC088819981AA81B8
:1054B000BB81EE2011F080641CC08F7B1AC08881F4
:1054C00086FF24C01EC0EDADFEADB2CFEF96E881E1
:1054D000F9811995F601608371838283938376C085
:1054E00088819981AA81BB81EE2011F0806801C07A
:1054F0008F7788839983AA83BB8368C0888187FF5D
:1055000005C081E090E0A0E0B0E05BC0D6011D9254
:105510001D921D921C92139759C0CB5ADF4F48CF52
:10552000C95ADF4F59CF4C8D5D8D2E8D3F8DCE01E9
:105530004096B7010E945A298C01009709F048C093
:10554000EBADFCAD199544C0888D998D38C04EA542
:105550005FA528A939A9CE018296B7010E945A29D0
:105560002BCF8AA59BA52BC00FB6F8940F92FD8E6A
:10557000EC8E0F900FBE2AC08C8D9D8D20C00FB673
:10558000F8940F92FF8EEE8E0F900FBE1FC08E8D7F
:105590009F8D15C00FB6F8940F92FFA6EEA60F9040
:1055A0000FBE14C08EA59FA50AC00FB6F8940F9227
:1055B000F9AAE8AA0F900FBE09C088A999A9A0E08E
:1055C000B0E0F60180839183A283B38300E010E012
:1055D000C801DF91CF911F910F91FF90EF90DF9065
:1055E000CF9008950F931F93DC011296ED91FC91DB
:1055F00013972189328901978E5F9F4F18F02FEF03
:105600003FEF1AC08901CD010E949010C801409659
:1056100060E070E040E050E020E030E00E945A2975
:10562000C801829660E070E040E050E020E030E0A9
:105630000E945A2920E030E0C9011F910F9108957E
:10564000AF92BF92CF92DF92EF92FF920F931F9390
:10565000CF93DF935C017A01FC01C189D28983E099
:10566000C82ED12CC422D522C114D10481F0CE0180
:10567000409660E470E048E250E028E330E00E94A9
:105680005A29892BA1F4F1E0CF16D10499F0CE016B
:10569000829660E071E040ED50E020EF30E00E9443
:1056A0005A29892B39F08C899D890E9490100FEF1F
:1056B0001FEF30C086E090E00E949610FC018C0144
:1056C000009739F48C899D890E9490108EA19FA12A
:1056D000ECCF80E090ECE822F92288819981AA81C0
:1056E000BB8120E0E21620E8F20611F48F7701C0BA
:1056F000806888839983AA83BB8311821082B382D6
:10570000A2821582148281E0C816D10419F0EBAD93
:10571000FCAD1995C801DF91CF911F910F91FF90BA
:10572000EF90DF90CF90BF90AF900895CF92DF922F
:10573000EF92FF920F931F93CF93DF93EC016A01D7
:105740000FB6F8940F928A8D9B8D860F971F9B8FB3
:105750008A8F0A8D1B8D0F900FBE90E2E92EF12CDF
:10576000EC0EFD1E13C0E9ADFAAD19954C855D85B3
:105770006E857F85C7010E94A01F892B51F40FB64B
:10578000F8940F920A8D1B8D0F900FBEC016D10694
:1057900050F3C801DF91CF911F910F91FF90EF90CF
:1057A000DF90CF9008958F929F92AF92BF92CF9249
:1057B000DF92EF92FF920F931F93DF93CF930F929D
:1057C0000F92CDB7DEB78B015A016901DC0151960A
:1057D0008D909C905297F401808D918D892B19F4B6
:1057E0000FEF1FEFACC06115710549F4C40160E013
:1057F00070E040E050E00E94962B8C01A0C0F401C4
:1058000080819181A281B3819C01AD0169E05695AF
:105810004795379527956A95D1F7F22FF170FA835E
:1058200027E0B695A795979587952A95D1F7282FC4
:10583000217029830FB6F8940F92D4015A964D9196
:105840005C915B970F900FBE780160E070E000E024
:1058500010E05CC09B01240F351FF401868D978DED
:105860002817390788F0448D558DC4010E94962B66
:10587000AC01D4015C968D919C915D97841795073E
:1058800008F45DC060E070E0C114D10419F0F701C4
:10589000849102C0D7018C91B981B13071F48A3002
:1058A00089F4EA81E13029F4F2E0F9838DE0FA83AA
:1058B0000EC022E029838DE00AC09981923011F454
:1058C000A1E0A9830894E11CF11C0F5F1F4FD401D4
:1058D0005096ED91FC91519781935196FC93EE93E4
:1058E000509750962D913C91519756968D919C9141
:1058F00057972817390741F454968D919C915597E5
:1059000051969C938E9350976F5F7F4F0A151B059E
:105910000CF4A0CF6115710591F00FB6F8940F92B9
:10592000F401828D938D680F791F738F628F0F90B2
:105930000FBED401D996ED91FC91DA971995C80163
:105940000F900F90CF91DF911F910F91FF90EF90EB
:10595000DF90CF90BF90AF909F908F900895FC0103
:105960008281938121E030E00E94D32B0895FC01D5
:105970008281938120E030E00E94D32B0895AF9282
:10598000BF92CF92DF92EF92FF920F931F93CF932C
:10599000DF936B015A01DC011296ED91FC91139794
:1059A000C189D2896AA57BA56115710519F42FEF0C
:1059B0003FEF9AC0C114D10461F44EA55FA528A998
:1059C00039A9CE0182960E945A29EBADFCAD1995FA
:1059D00019C08E010E5C1F4F0FB6F8940F92ECA405
:1059E000FDA40F900FBEE114F10479F4EBADFCAD12
:1059F0001995488559856A857B85C8010E94A01F35
:105A0000892B51F320E030E06FC0D601888187FFF9
:105A100030C000E010E040E050E07AE026C04E15D3
:105A20005F0508F048C0ECA1FDA16191FDA3ECA3C6
:105A30002CA13DA188A599A52817390721F48EA18D
:105A40009FA19DA38CA36D3011F06A3041F48CA905
:105A5000882311F0861739F46CAB7D9302C01CAA21
:105A60006D930F5F1F4F4F5F5F4F0A151B05B8F215
:105A700022C08501EA14FB0408F4870140E050E0ED
:105A800016C0ECA1FDA1D601A40FB51F81918C9386
:105A9000FDA3ECA32CA13DA188A599A52817390742
:105AA00021F48EA19FA19DA38CA34F5F5F4F401750
:105AB000510738F3A80141155105A9F00FB6F89424
:105AC0000F928CA59DA5841B950B9DA78CA70F906D
:105AD0000FBE2CA53DA58EA59FA52817390718F444
