:100000000C9457000C949F000C949F000C949F003C
:100010000C949F000C949F000C943B280C949F0020
:100020000C949F000C949F000C949F000C949F00D4
:100030000C949F000C949F000C949F000C9404203F
:100040000C949F000C949F000C9431230C949123EA
:100050000C949F000C949F000C949F000C949F00A4
:10006000F829FB29FE29072A0A2A0D2A102A132A11
:100070001A2A492A732A782A7D2A822A872A912ACB
:10008000952A982AA32AB12AF529F529F529F529CF
:10009000C12AC42AC72ADB2ADE2AEA2AF529ED2A40
:1000A000F52AF82A002B032B0B2B0E2B162B80EC9A
:1000B00085BF87E089B911241FBECFEFDFE0DEBF27
:1000C000CDBF12E0A0E6B0E0EEEAF9EB0FEF03954A
:1000D0000BBF04C0D8950D923196C8F3A033B10779
:1000E000C9F71BBE13E0A0E3B2E001C01D92AC3320
:1000F000B107E1F78FEF9FE79EBF8DBF8FEF9FE7BF
:100100008C5393408158914050F04FEF5EE74C5331
:10011000534087EE92E06CE373E00E9467150E9403
:100120001D1E88E990E068EB71E040E050E020E8B7
:1001300031E00E94881E0E9400000C94D55C0C9453
:100140000000CF92DF92EF92FF920F931F93CF9315
:10015000DF93C82ED92EE62EF72EC42FD52F80E898
:1001600090E00E94E956182F092F26C0812F902F6A
:1001700061E070E040E850E02C2D3D2D0E941C56BF
:10018000482F592F18161906D4F48881882359F05E
:10019000812F902F61E070E02E2D3F2D0E9483561D
:1001A0001816190664F48881882331F08E2D9F2D4E
:1001B0000E946155892B19F488818823B9F6188229
:1001C000812F902F0E94E256DF91CF911F910F91C6
:1001D000FF90EF90DF90CF9008958F929F92AF9213
:1001E000BF92CF92DF92EF92FF920F931F93DF9314
:1001F000CF93CDB7DEB72F970FB6F894DEBF0FBE03
:10020000CDBF80E895E2A0E0B0E089839A83AB831C
:10021000BC8382EC90E060E070E040E00E94DC1D76
:100220008EE391E060E073E845E00E94DC1D80E62B
:1002300090E066E670E00E94B2559E838D830E9436
:10024000755561E071E04C2F5D2F4F5F5F4F0E944D
:10025000A9548AE690E060E070E020E63AEE40E0E3
:1002600050E00E94D402892BA9F1AC2FBD2F1A9621
:10027000E2E9F0E086E001900D928150E1F79AE02A
:10028000892E912C8C0E9D1E8AE690E0682D792D8A
:1002900020E63AEE40E050E00E94D402892BD1F0F3
:1002A0008FE690E00E947B3AA62EB72EC82ED92E5C
:1002B0008FE790E00E947B3AE62EF72E082F192F49
:1002C0008AE690E0682D792D5D2D4C2D3B2D2A2D51
:1002D0000E94003E8DE890E06EE971E04C2F5D2FAA
:1002E0004B5F5F4F20E032E00E94881E1986AA24EF
:1002F000A39489E0E82EF12CEC0EFD1E0E948F35B0
:10030000082F192F67E170E00E94F534802F912F9C
:1003100066E670E00E94045598878F83A9866D81F8
:100320007E814E2D5F2D0E94A1008F8198850E94B5
:10033000C254802F912F0E945034E0CFC82FD92F64
:100340000C2F1D2F0C5F1F4F8C81882371F080E4D0
:100350000E94FC176A817B8188819981402F512FEF
:100360000E94A10080E80E94FC170E947F18ECCF39
:100370000E94B31B8DE990E06DEE70E040E050E02C
:1003800020E033E00E94881E8EEF0E94FC170E943E
:100390007F180E94C117FBCF8091350290E008952D
:1003A00080913602909137021092370210923602F5
:1003B000089520E030E080913502853011F421E08D
:1003C00030E0822F932F0895DF92EF92FF920F93E8
:1003D0001F93CF93DF93D62EE22EF32E042F152FEB
:1003E0000E94BA1DC82FD92F009751F08B858330FA
:1003F00039F4EF85F889309719F08081863049F01B
:1004000081E190E090933702809336022FEF3FEF27
:1004100036C00E94A11960934002709341028093FC
:10042000420290934302E0923C02F0923D0200931C
:100430003E0210933F02D092350280913302909198
:100440003402892B71F482EA90E06FEA77E04C2F56
:100450005D2F20E231E00E94881E90933402809349
:10046000330288E392E00E94DB1C8AE392E040E0E2
:1004700050E060E070E00E94391D20E030E0822F03
:10048000932FDF91CF911F910F91FF90EF90DF900D
:100490000895E82FF92F242F352F462F572F8091BD
:1004A0003502882349F083E090E0909337028093EF
:1004B00036022FEF3FEF07C08E2F9F2F68E00E947C
:1004C000E401282F392F822F932F0895E82FF92F39
:1004D000242F352F462F572F80913502853049F034
:1004E00083E090E090933702809336022FEF3FEF46
:1004F00007C08E2F9F2F69E00E94E401282F392F1B
:10050000822F932F0895CF92DF92EF92FF920F9355
:100510001F93CF93DF93E82FF92F84E292E0AE2F61
:10052000BF2FC82FD92F1D922197E9F781E0808333
:10053000818386E08283CE2FDF2F6C96AEE1B3E01D
:100540000D9009928150E1F72483358346835783C8
:100550000C2CCD2CD02CD186C086E486F58606875F
:100560001787E451FF4F93E69193AE2FBF2F82E898
:10057000819383E511968C93AE2FBF2F11969183B3
:10058000EA2FFB2F319685E311968C9381E08183CE
:10059000628387E090E0DF91CF911F910F91FF90F0
:1005A000EF90DF90CF9008954F925F926F927F927D
:1005B0008F929F92AF92BF92CF92DF92EF92FF9273
:1005C0000F931F93DF93CF93CDB7DEB760970FB62E
:1005D000F894DEBF0FBECDBF882E992E462E572E23
:1005E0002D873E874F87588B0E94BA1DA82EB92EA3
:1005F000009779F0E82FF92F8385833051F4C78471
:10060000D088C114D10429F0EC2DFD2D80818630D5
:1006100019F081E190E048C00C2F1D2F0F5F1F4F94
:10062000E02FF12F11928A95E9F797E0692E712C4E
:100630006C0E7D1E862D972D6FEF70E046E050E02A
:100640000E94E75B85E0E82EF12CEC0CFD1C8E2D62
:100650009F2D602F712F46E050E00E94CD5B282F28
:10066000392F232B61F08E2D9F2D662D772D46E09F
:1006700050E00E94CD5B282F392F232B49F54114E0
:10068000510451F0AEE1B3E0E42DF52D86E0019088
:100690000D928150E1F70DC0882D992D0E942C3EBE
:1006A000892B39F082E090E09093370280933602F4
:1006B000A2C0AE2DBF2DEEE1F3E086E001900D92D9
:1006C0008150E1F764EF71E080E090E00E94C81A89
:1006D0002091300330913103409132035091330324
:1006E000E0902803F090290300912A0310912B0336
:1006F000B12FA02F9F2D8E2D82239323A423B523CA
:100700000097A105B10549F02093240330932503F8
:1007100040932603509327035DC0882D992D61E0F7
:100720002D853E854F8558890E94E401892B09F06B
:1007300062C080913502853039F5E0913102F09147
:100740003202418152816381748105811681278142
:100750003085C584D684E784F0888A2D9B2D0E943D
:10076000FF3BE0913102F0913202218932894389C5
:100770005489E588F6880789108D80E090E060E074
:1007800070E00E94DE0F34C0EC2DFD2D8385948532
:10079000A585B6850097A105B10551F520912403E3
:1007A000309125034091260350912703E0902803C0
:1007B000F090290300912A0310912B03B12FA02F51
:1007C0009F2D8E2D82239323A423B5230097A1056B
:1007D000B10589F0A0902C03B0902D03C0902E039A
:1007E000D0902F03882D992D6EE173E00E940D3D6E
:1007F00020E030E002C02FEF3FEF822F932F609672
:100800000FB6F894DEBF0FBECDBFCF91DF911F9121
:100810000F91FF90EF90DF90CF90BF90AF909F909F
:100820008F907F906F905F904F900895CF93DF935C
:10083000C82FD92F009781F089A59AA5009711F0AC
:100840000E94E2568BA59CA5009711F00E94E256EB
:100850008C2F9D2F0E94E256DF91CF910895EF9249
:10086000FF920F931F93CF93DF93082F192FF62E2C
:10087000E72EC42FD52FA82FB92F8D919C910097CB
:1008800011F00E94E2568C2F9D2F01960E94E9568E
:10089000282F392FE02FF12F3183208321153105A7
:1008A00079F0209731F06F2D7E2D4C2F5D2F0E9417
:1008B000DC5BA02FB12FED91FC91EC0FFD1F10829E
:1008C000DF91CF911F910F91FF90EF9008954F927C
:1008D0005F926F927F928F929F92BF92CF92DF92A0
:1008E000EF92FF920F931F93CF93DF93082F192F4F
:1008F000E62EF72E8DE290E00E94E956C82FD92F00
:100900008C2E9D2E209709F46EC18DE2EC2FFD2FC9
:1009100011928A95E9F780EC98EAA0E0B0E08DA307
:100920009EA3AFA3B8A7E02FF12F80899189A28958
:10093000B38989839A83AB83BC8300511F4F80E1C5
:100940009FEFE80EF91E69E2462E512C4C0E5D1EFB
:100950005BE2652E712C6C0E7D1EF0C0332331F4EA
:100960000F5F1F4F0894E108F108E8C0E02FF12F56
:10097000B180CB2CDD24EC14FD040CF4EEC0353337
:1009800049F4F1E0BF1609F0E8C0E02FF12F8281B1
:100990008883C9C03C3039F4602F712F6E5F7F4F60
:1009A000842D952D08C03F3059F4602F712F6E5F54
:1009B0007F4F862D972D4C2D5D2D0E942F04B3C0A7
:1009C000F3E0FB1508F0AFC0E02FF12F2281838107
:1009D00090E0A0E0B0E04427582F692F7A2F84815F
:1009E00090E0A0E0B0E0A82FB92F99278827480F02
:1009F000591F6A1F7B1F420F511D611D711D85818B
:100A000090E0A0E0B0E0B82FAA2799278827480FE8
:100A1000591F6A1F7B1F313029F44D835E836F831A
:100A2000788781C03C3129F449875A876B877C8756
:100A30007AC0333029F44D875E876F87788B73C017
:100A4000363009F043C0498B5A8B6B8B7C8BF7E0B7
:100A5000FB1508F068C0E02FF12F268130E040E060
:100A600050E02D8B3E8B4F8B588F878190E0A0E01C
:100A7000B0E0BA2FA92F982F8827820F931FA41FA9
:100A8000B51F8D8B9E8BAF8BB88F208530E040E0FB
:100A900050E0422F532F33272227280F391F4A1F98
:100AA0005B1F2D8B3E8B4F8B588F818590E0A0E094
:100AB000B0E0B82FAA2799278827280F391F4A1F87
:100AC0005B1F2D8B3E8B4F8B588F2DC0363329F4F7
:100AD000498F5A8F6B8F7C8F26C03A3359F4042E7E
:100AE000472F702D052E562F602D4D8F5E8F6F8FE7
:100AF00078A319C03B3359F4042E472F702D052ECF
:100B0000562F602D49A35AA36BA37CA30CC033338B
:100B100051F4042E472F702D052E562F602D4DA316
:100B20005EA36FA378A78B2D90E00296080F191F84
:100B30008EEF9FEFE80EF91EEC18FD08E02FF12F65
:100B400030813F3F09F461C01E141F040CF406CF2E
:100B500004C0853049F0863039F08C2F9D2F0E94DB
:100B60001604882499243FC08D8D9E8DAF8DB8A129
:100B70000097A105B10561F48DA19EA1AFA1B8A513
:100B8000B695A795979587958D8F9E8FAF8FB8A3B4
:100B900089A19AA1ABA1BCA10097A105B10519F546
:100BA0008D8D9E8DAF8DB8A1282F392F4A2F5B2FA9
:100BB0005695479537952795E82EF92E0A2F1B2F26
:100BC00062E016950795F794E7946A95D1F72E0D94
:100BD0003F1D401F511F280F391F4A1F5B1F29A3AC
:100BE0003AA34BA35CA3882D992DDF91CF911F9140
:100BF0000F91FF90EF90DF90CF90BF909F908F90DC
:100C00007F906F905F904F9008958881823009F0B7
:100C1000A0CFAACF2F923F924F925F926F927F9276
:100C20008F929F92AF92BF92CF92DF92EF92FF92FC
:100C30000F931F93DF93CF93CDB7DEB7282E392EB6
:100C4000442E552E662E772E822E932E512F402F16
:100C50003F2D2E2D1D2D0C2DFB2CEA2C882D992D92
:100C600063E0CD8CDE8C0E948302282F392F8D8982
:100C70009E89AF89B88D0097A105B105D1F0E82D07
:100C8000F92DE20FF31FE451FF4F82E380832451DB
:100C90003F4FE82DF92DE20FF31F84E081838D890A
:100CA0009E89AF89B88D82839383A483B583265EA2
:100CB0003040898D9A8DAB8DBC8D0097A105B10513
:100CC000D1F0E82DF92DE20FF31FE451FF4F86E339
:100CD000808324513F4FE82DF92DE20FF31F84E06C
:100CE0008183898D9A8DAB8DBC8D82839383A48300
:100CF000B583265E3040E82DF92DE20FF31FE45155
:100D0000FF4F87E3808324513F4FE82DF92DE20FF9
:100D1000F31F2C5E3040AE2FBF2F119693E09183CE
:100D2000EA2FFB2F319681E011968C93918386E018
:100D3000828375E0E72EF12CE20EF31E4EEF52E0B7
:100D4000A42FB52F0D900020E9F7AF5FB2401A161F
:100D50001B06F4F40A2FE82DF92DEE0DFF1DE451CA
:100D6000FF4F8CE08083E22FF32FEF50FF4FE80D11
:100D7000F91DA18332968E2F9F2F642F752F4A2F36
:100D800050E00E94DC5B10E00E5F1F4FE00EF11E92
:100D9000E82DF92DEE0DFF1DE451FF4F8FEF8083FD
:100DA000EE2DFF2DE351FF4F81E0EC32F80710F4F8
:100DB000ECE2F1E0822D932D772D662D552D442DFB
:100DC00023E430E0082D192DEE2EFF2E0E949C37D3
:100DD00097FD03C020E030E008C083E190E09093ED
:100DE0003702809336022FEF3FEF822F932FCF9160
:100DF000DF911F910F91FF90EF90DF90CF90BF9008
:100E0000AF909F908F907F906F905F904F903F90AA
:100E10002F9008952F923F924F925F926F927F9200
:100E20008F929F92AF92BF92CF92DF92EF92FF92FA
:100E30000F931F93DF93CF93CDB7DEB760970FB6B5
:100E4000F894DEBF0FBECDBF9C878B874D875E8732
:100E50006F87788B622E732E8E2C9F2CA02EB12E36
:100E60000E94A1196F83788789879A87CE2CDF2CFF
:100E7000E02EF12EE6E02E2EEFEF3E2EEFEF4E2E7F
:100E8000EFEF5E2E280C391C4A1C5B1C8B859C8561
:100E90006C2F7D2F6D5F7F4F4C2F5D2F4F5F5F4F0E
:100EA000262D372D04E212E00E941D37282F392FFE
:100EB000181619064CF00097B9F184E190E0909370
:100EC00037028093360230C0823F910590F0E62DC4
:100ED000F72D8081823069F484819581A681B78164
:100EE0004D855E856F85788984179507A607B707B6
:100EF000D9F00E94A1192F81388549855A85621B36
:100F0000730B840B950B621573058405950518F01A
:100F100020E030E009C0FB2CEA2CD92CC82CC61AE2
:100F2000D70AE80AF90AB2CF822F932F60960FB63C
:100F3000F894DEBF0FBECDBFCF91DF911F910F910F
:100F4000FF90EF90DF90CF90BF90AF909F908F90E9
:100F50007F906F905F904F903F902F900895DF9318
:100F6000CF93CDB7DEB7A0970FB6F894DEBF0FBE14
:100F7000CDBF082F192F0E94231A6B8B7C8B8D8B72
:100F80009E8B20912403309125034091260350919C
:100F900027032B873C874D875E87A02FB12F1F9695
:100FA0000D90BC91A02DBA8FA98F1A968C9190E0CC
:100FB000A0E0B0E0BA2FA92F982F8827E98DFA8DED
:100FC0002185820F911DA11DB11DBA2FA92F982F28
:100FD00088272085820F911DA11DB11D2227382F42
:100FE000492F5A2F8781280F311D411D511D2B8FED
:100FF0003C8F4D8F5E8F18A21F8E188E1F8A1F8602
:10100000188A198A1A8A992420EA222E2FE0322E71
:10101000412C512C6624772401C0982C9920E1F0B2
:10102000220C331C441C551C31E023163AEF3306C6
:1010300030E0430630E0530630F0212C8AEF382EA2
:10104000412C512C38C02FEF3FEF4FEF5FEF2F8334
:10105000388749875A8737C080913502833059F0E5
:101060008B8D9C8DAD8DBE8D0196A11DB11D8B8F7D
:101070009C8FAD8FBE8FE0913102F091320230979C
:10108000A1F0218D328D438D548D2F833887498770
:101090005A87211531054105510539F000EA202E06
:1010A0000FE0302E412C512C0EC010EA212E1FE0F3
:1010B000312E412C512C8FEF9FEFAFEFBFEF8F837D
:1010C0009887A987BA87809135028823D9F18091C2
:1010D0003C0290913D02A0913E02B0913F020097E8
:1010E000A105B10579F10E94A119262F372F482FAC
:1010F000592F8091400290914102A0914202B091FB
:101100004302281B390B4A0B5B0B60913C02709128
:101110003D0280913E0290913F0226173707480713
:10112000590718F081E090E08DC0621B730B840BAF
:10113000950B621573058405950520F4262E372E30
:10114000482E592E80913502823021F0863011F0E0
:10115000873049F59920F9F00E94231A2B893C89A0
:101160004D895E89621B730B840B950B6050704038
:101170008140904028F04FEF5FEF588F4F8B13C0A6
:101180000E94231AA62FB72FEB89FC89AE1BBF0B39
:10119000B88FAF8B08C00E94231A6B8B7C8B8D8B12
:1011A0009E8B188E1F8A80913502853011F088231E
:1011B000C1F42F8D38A12115310521F0822F932FF5
:1011C0000E94E9366114710419F418A21F8E4FC0F1
:1011D000862D972D0E94E25618A21F8E6624772432
:1011E00046C08091310290913202892B59F4E98DE9
:1011F000FA8D83859485A585B6850097A105B105EF
:1012000009F067C62F8D38A1232B21F061147104DA
:1012100071F509C084E490E00E94F33798A38F8FA2
:101220006114710431F484E292E00E94E956682E60
:10123000792E4F8D58A1452B19F06114710439F4A2
:1012400082E190E0909337028093360242C680ECB0
:1012500096E09A8389838F8D98A162E070E14C2F8C
:101260005D2F4F5F5F4F22E030E00E948E3680910D
:101270003502813029F58B8D9C8DAD8DBE8D01960B
:10128000A11DB11D8B8F9C8FAD8FBE8F80912803C8
:1012900090912903A0912A03B0912B032B853C85C3
:1012A0004D855E8582239323A423B5230097A10552
:1012B000B10511F432E0AFC244E040933502ADC253
:1012C000823009F083C1B92CB39453E0591538F436
:1012D00081E090E0909337028093360268C18B855D
:1012E0009C85AD85BE858B839C83AD83BE83862D17
:1012F000972D61E02B8D3C8D4D8D5E8DEE24FF246E
:1013000000271127CF88D88C0E948302282F392FDD
:101310008B819C81AD81BE810097A105B105D1F083
:10132000E62DF72DE20FF31FE451FF4F82E3808398
:1013300024513F4FE62DF72DE20FF31F94E09183E8
:101340008B819C81AD81BE8182839383A483B5838D
:10135000265E3040E62DF72DE20FF31FE451FF4FDC
:10136000A7E3A08324513F4FE62DF72DE20FF31F93
:101370002C5E3040AE2FBF2F119643E04183EA2F01
:10138000FB2F319651E011965C93418386E0828376
:10139000B5E0EB2EF12CE20EF31EAEEFB2E00D90B5
:1013A0000020E9F7AF5FB2401A161B0604F50A2FBA
:1013B000E62DF72DEE0DFF1DE451FF4F9CE09083CD
:1013C000E22FF32FEF50FF4FE60DF71DA18332966A
:1013D0008E2F9F2FEEEFF2E06E2F7F2F4A2F50E0DF
:1013E0000E94DC5B10E00E5F1F4FE00EF11E20E458
:1013F00032E03A832983E62DF72DEE0DFF1DE451EF
:10140000FF4F39E330834CEE50E0E40EF51EE62D3D
:10141000F72DEE0DFF1D84E19FEFE80EF91E92E01F
:10142000918389819A81082E892F902D9A838983AF
:10143000319692838183E62DF72DEE0DFF1DE0514D
:10144000FF4FAFEFA083EE2DFF2DEF50FF4FB1E028
:10145000EC32FB0710F4ECE2F1E08F8D98A14FEF36
:101460005FEF6FEF7FEF23E430E0062D172DEE2EB8
:10147000FF2E0E949C3797FF84C0E3E1F0E0F093D9
:101480003702E093360293C0E0903102F0903202CE
:10149000862D972D0E946704082F192F009709F4B5
:1014A00055C0A82FB92F8C91823009F04BC0E114A0
:1014B000F10409F44DC0209124033091250340919B
:1014C0002603509127038091280390912903A0912E
:1014D0002A03B0912B0382239323A423B5230097DF
:1014E000A105B105B9F0EE2DFF2D81819281A38177
:1014F000B48182179307A407B50741F1E02FF12FBC
:1015000081819281A381B48182179307A407B507D3
:10151000E9F413C0A02FB12F95962D913D914D91D7
:101520005C919897EE2DFF2D85A196A1A7A1B0A55E
:1015300082179307A407B50728F48E2D9F2D0E94CC
:10154000160406C0802F912F0E9416040E2D1F2D09
:101550001093320200933102012B99F080913C02EA
:1015600090913D02A0913E02B0913F02805E9E426A
:10157000A040B040F8F0A0EA2A2EAFE03A2E412C6D
:10158000512C8F8D98A14B8D5C8D6D8D7E8D262D70
:10159000372D152D042DF32CE22C0E940A07682FFD
:1015A000792F181619060CF46FCF009719F01092C6
:1015B000350206C08091310290913202892B11F4DC
:1015C0009B2CC0C423E02093350227C1833009F04F
:1015D00075C0892C839433E0391520F441E04093A1
:1015E0003502AFC4E0913102F09132028DB79EB75F
:1015F0000A970FB6F8949EBF0FBE8DBF2DB73EB7AA
:101600002F5F3F4F4181528163817481ADB7BEB777
:1016100011964D935D936D937C931497818D928D6C
:10162000A38DB48DE22FF32F84839583A683B78394
:101630004F89588D518740878F8D98A14FEF5FEF6D
:101640006FEF7FEF262D372DEB8CFC8C0D8D1E8DD3
:10165000AA24BB24CC24DD240E940A06ADB7BEB761
:101660001A960FB6F894BEBF0FBEADBF97FD34C437
:101670008F8D98A14B8D5C8D6D8D7E8D262D372D98
:10168000152D042DF32CE22C0E940A07682F792FC8
:1016900097FD22C4009709F454C4862D972D0E940B
:1016A0006704082F192F009709F44BC4E82FF92F6E
:1016B000F080F5E0FF1609F07BC265C2843009F0C6
:1016C0008BC0892C839453E0581548F481E08093B3
:1016D0003502982C1B861C861D861E8633C4ADB72A
:1016E000BEB71A970FB6F894BEBF0FBEADBF2DB7E9
:1016F0003EB72F5F3F4F8B859C85AD85BE85EDB78F
:10170000FEB781839283A383B483A22FB32F149651
:101710001D921D921D921C921797EF89F88D1996B4
:10172000FC93EE9318978F8D98A14FEF5FEF6FEFBB
:101730007FEF262D372DEB8CFC8C0D8D1E8DAA2472
:10174000BB24CC24DD240E940A062DB73EB7265FB9
:101750003F4F0FB6F8943EBF0FBE2DBF97FDBCC3E1
:101760008F8D98A14B8D5C8D6D8D7E8D262D372DA7
:10177000152D042DF32CE22C0E940A07682F792FD7
:1017800097FDAAC3009709F4DCC3862D972D0E940C
:101790006704082F192F009709F4D3C3A82FB92F76
:1017A0008C91853071F480913102909132020E94C7
:1017B00016041093320200933102B5E0B093350263
:1017C000EEC1863009F0B8C331E0309335021B8694
:1017D0001C861D861E86B0C3853009F053C08AE37F
:1017E00092E00E94CE1CE0913102F0913202E58C31
:1017F000F68C078D10A10E94231A2F8538894989FC
:101800005A89621B730B840B950B6E157F0580073D
:10181000910728F036E030933502992493C3E09184
:101820003102F0913202E58CF68C078D10A10E94F6
:10183000231A2F85388949895A892E0D3F1D401F4B
:10184000511F261B370B480B590B283389E83807E3
:1018500081E4480780E0580720F027E339E841E4B5
:1018600050E0952F842F732F622F28EE33E040E055
:1018700050E00E94395C462F572F682F792F88E35C
:1018800092E057C3863009F0CCC0E0913102F0916C
:101890003202E1A0F2A003A114A10E94231AA62EF5
:1018A000B72EC82ED92E952D842D732D622D28EE9E
:1018B00033E040E050E00E94765C8F859889A989EA
:1018C000BA89E80EF91E0A1F1B1FEA18FB080C094B
:1018D0001D09E216F30604071507E0F4E091310252
:1018E000F091320221A032A043A054A00E94231AFA
:1018F0002F85388949895A89621B730B840B950B94
:1019000028EE33E040E050E00E94395C261A370AA6
:10191000480A590AE0913102F0913202E1A0F2A0A6
:1019200003A114A10E94231A2F85388949895A8955
:10193000621B730B840B950B6E157F058007910757
:1019400008F0BAC0E0913102F0913202A180B28079
:10195000C380D4804DB75EB74A5050400FB6F8945C
:101960005EBF0FBE4DBFADB7BEB71196418D528D54
:10197000638D748DEDB7FEB7A182B282C382D4822B
:1019800014961D921D921D921C9217972F89388DC7
:1019900019963C932E9318978F8D98A1262D372D4D
:1019A000EB8CFC8C0D8D1E8D0E940A064DB75EB728
:1019B000465F5F4F0FB6F8945EBF0FBE4DBF97FDF9
:1019C0007BC0892C83948F8D98A14B8D5C8D6D8D00
:1019D0007E8D262D372D152D042DF32CE22C0E9403
:1019E0000A07682F792F97FD77C2009709F4A9C2DB
:1019F000862D972D0E946704082F192F009709F450
:101A0000A0C2A82FB92FFC90B5E0FB1609F4BBC00B
:101A100036E0F31609F090C287E0809335028824FF
:101A20008BC2873009F0CCC0E0913102F0913202D4
:101A3000E1A0F2A003A114A10E94231A2F853889E6
:101A400049895A89E20EF31E041F151FE61AF70A88
:101A5000080B190BE214F30404051505B0F4E0912A
:101A60003102F091320221A032A043A054A00E9482
:101A7000231A261A370A480A590A8F859889A9898C
:101A8000BA89281A390A4A0A5B0AE0913102F091B0
:101A90003202E1A0F2A003A114A10E94231A2F8513
:101AA000388949895A89621B730B840B950B6E1513
:101AB0007F058007910720F087E080933502ADCE47
:101AC000892C8394E0913102F0913202A180B2809E
:101AD000C380D4804DB75EB74A5050400FB6F894DB
:101AE0005EBF0FBE4DBFEDB7FEB73196ADB7BEB707
:101AF0001196AD92BD92CD92DC921497148215820C
:101B0000168217822F89388D318720878F8D98A173
:101B10004FEF5FEF6FEF7FEF262D372DEB8CFC8CB7
:101B20000D8D1E8D0E940A064DB75EB7465F5F4F52
:101B30000FB6F8945EBF0FBE4DBF97FDCDC18F8D20
:101B400098A14B8D5C8D6D8D7E8D262D372D152D9D
:101B5000042DF32CE22C0E940A07682F792F97FDA1
:101B6000BBC1009709F4EDC1862D972D0E94670433
:101B7000082F192F009709F4E4C1A82FB92FFC9062
:101B8000B5E0FB16A9F480913102909132020E94D7
:101B900016041093320200933102F09235022B8921
:101BA0003C894D895E892F87388B498B5A8BC9C1F7
:101BB00036E0F31609F0C0C141E040933502BCC1E4
:101BC000883009F0F6C0892C839453E0591508F445
:101BD00083C1A98DBA8D1B96ED90FD900D911C913E
:101BE0001E97862D972D68E02B8D3C8D4D8D5E8D3B
:101BF000CC24DD240E948302E62DF72DE80FF91F87
:101C0000E451FF4FB7E3B08384519F4FE62DF72D8A
:101C1000E80FF91FAE2FBF2F119623E02183EA2F83
:101C2000FB2F319631E011963C93218346E04283AD
:101C3000F9E1EF2EFFEFFF2EE80EF91EAEEFB2E056
:101C40000D900020E9F7AF5FB24031F10A2FE62D89
:101C5000F72DEE0DFF1DE451FF4F5CE050838CEE3D
:101C600090E0E80EF91EE62DF72DEE0DFF1D24E1A4
:101C70003FEFE20EF31EA18332968E2F9F2F4EEF81
:101C800052E0642F752F4A2F50E00E94DC5B10E079
:101C90000E5F1F4FE00EF11E80E492E09A8389836D
:101CA000E62DF72DEE0DFF1DE451FF4F99E39083D4
:101CB000ACEEB0E0EA0EFB1EE62DF72DEE0DFF1D9B
:101CC00024E13FEFE20EF31E32E0318389819A81F5
:101CD000082E892F902D9A83898331969283818350
:101CE000E62DF72DEE0DFF1DE051FF4F4FEF408326
:101CF000EE2DFF2DEF50FF4F51E0EC32F50710F4C1
:101D0000ECE2F1E08F8D98A14F81588569857A8545
:101D100023E430E0062D172DEE2EFF2E0E949C3777
:101D200097FF11C083E190E09093370280933602D1
:101D30002F81388549855A852F5F3F4F4F4F5F4F21
:101D400009F0FFC0C9C08F8D98A14B8D5C8D6D8D42
:101D50007E8D262D372D152D042DF32CE22C0E947F
:101D60000A07682F792F009709F4EBC01816190697
:101D7000BCF4862D972D0E946704082F192F009719
:101D800089F0A82FB92F8C91853061F480913102B0
:101D9000909132020E941604109332020093310295
:101DA00000E010E0109235020115110509F0C4C0E1
:101DB00034C9893009F0A7C0E0913102F0913202B4
:101DC000309709F47DC0892C8394992009F077C05D
:101DD000E180F28003811481818D928DA38DB48D79
:101DE0008B839C83AD83BE83862D972D67E02B8DDF
:101DF0003C8D4D8D5E8DCC24DD240E948302282FE6
:101E0000392F8B819C81AD81BE810097A105B105E1
:101E1000D1F0E62DF72DE20FF31FE451FF4FB6E3AB
:101E2000B08324513F4FE62DF72DE20FF31F44E01E
:101E300041838B819C81AD81BE8182839383A48306
:101E4000B583265E3040E62DF72DE20FF31FE451F7
:101E5000FF4F5FEF5083E22FF32FE351FF4F81E0FD
:101E6000EC32F80710F4ECE2F1E08F8D98A14F818D
:101E7000588569857A8523E430E0062D172DEE2EEE
:101E8000FF2E0E949C3797FF07C0A3E1B0E0B093FC
:101E90003702A093360213C08F8D98A14B8D5C8DB5
:101EA0006D8D7E8D262D372D152D042DF32CE22CD6
:101EB0000E940A07682F792F99238CF40DC0982C63
:101EC0002F81388549855A852F5F3F4F4F4F5F4F90
:101ED000C9F51092350236C01092350232C0009713
:101EE00081F1862D972D0E946704082F192F0097E6
:101EF00041F1A82FB92F8C91853011F08630E1F493
:101F00001092350219C08823E9F480913102909132
:101F100032020E94160410923202109231028AE3B9
:101F200092E00E94CE1C88E392E040E050E060E046
:101F300070E00E94391D71CC802F912F0E941604F1
:101F40006CC8982C892C69C8CF93DF93E82FF92FA0
:101F5000A62FB72FC42FD52F009731F080914402C0
:101F60009091450291838083109731F080914602D1
:101F7000909147028D939C93209761F08091480245
:101F800090914902A0914A02B0914B0288839983B3
:101F9000AA83BB832115310571F080914C02909189
:101FA0004D02A0914E02B0914F02E22FF32F808399
:101FB0009183A283B383DF91CF9108958F929F92F3
:101FC000AF92BF92CF92DF92EF92FF920F931F9347
:101FD000CF93DF93C82FD92F862E972EA22EB32E04
:101FE000C42ED52E8091440290914502009731F085
:101FF0000E94E256109245021092440280914602DD
:1020000090914702009731F00E94E25610924702E9
:1020100010924602209741F08C2F9D2F0E94FC5673
:1020200080934402909345028114910441F0882DDD
:10203000992D0E94FC568093460290934702A092ED
:102040004802B0924902C0924A02D0924B02E092FA
:102050004C02F0924D0200934E0210934F02DF911A
:10206000CF911F910F91FF90EF90DF90CF90BF9095
:10207000AF909F908F900895EF92FF920F931F93D0
:10208000EE24FF24002711270E94DE0F1F910F91DD
:10209000FF90EF900895EF92FF920F931F93CF93CD
:1020A000DF93C82FD92FE62EF72EA62FB72F8D91AD
:1020B0009C91009731F00E94E256EE2DFF2D118287
:1020C00010828881807C803C19F402E010E038C0E6
:1020D000EC2FFD2FAE2FBF2F0D900020E9F70A2F18
:1020E0001B2F0E1B1F0B802F912F0E94E956A82F2C
:1020F000B92FEE2DFF2DB183A083EC2FFD2F9191F1
:102100003EE21BC04E2F5F2F6A2F7B2F292FC42F3B
:10211000D52F89914C2F5D2FC62FD72F89936C2FE8
:102120007D2F2150A1F7892F90E0A80FB91FE80F4C
:10213000F91F908191113D933196992319F71C92C3
:10214000802F912FDF91CF911F910F91FF90EF90F2
:1021500008952F923F924F925F926F927F928F924B
:102160009F92AF92BF92CF92DF92EF92FF920F9326
:102170001F93DF93CF93CDB7DEB7C054D0400FB6D7
:10218000F894DEBF0FBECDBF9E878D87788B6F879B
:102190008091480290914902A0914A02B0914B026D
:1021A0000097A105B10569F480914C0290914D0210
:1021B000A0914E02B0914F020097A105B10509F41C
:1021C0007FC380E090E00E94F33798878F83892B4C
:1021D00009F476C380E092E00E94E956882E992E99
:1021E0001A861986AA24BB246624772444245524FD
:1021F000282D392D2F5F3F4F38A72FA3482D592D5C
:102200004E5F5F4F5AA749A7682D792D6D5F7F4FAD
:102210007CA76BA7882D992D04969EA78DA7A82D26
:10222000B92D1596B8ABAFA7E82DF92D3696FAABB8
:10223000E9AB282D392D295F3F4F3CAB2BAB482D07
:10224000592D485F5F4F5EAB4DAB682D792D675FB1
:102250007F4F78AF6FAB882D992D0A969AAF89AFD3
:10226000A82DB92D1B96BCAFABAFE82DF92D3C9630
:10227000FEAFEDAF282D392D235F3F4F21963FAFA5
:102280002EAF219789859A85182F49855A854F5FEA
:102290005F4F5A874987A114B10459F481E090E057
:1022A0006CE070E00E94C156A82EB92EA114B104B2
:1022B00099F0E985FA85AA2DBB2D1196FC93EE9332
:1022C00020E031E013963C932E93129741E050E0CA
:1022D00015965C934E9314976114710459F481E040
:1022E00090E066E070E00E94C156682E792E61147D
:1022F0007104C1F0A62DB72D8D919C91009711F01E
:102300000E94E2568D859E850E94FC56E62DF72D93
:10231000808391832F8538893383228341E050E085
:1023200055834483AA2DBB2D9C9111968C91E82D49
:10233000F92D8083AFA1B8A59C93EA2DFB2D928146
:102340008381A9A5BAA58C93EBA5FCA59083AA2DA2
:10235000BB2D14969C91149715968C91EDA5FEA516
:102360008083AFA5B8A99C93EA2DFB2D9681878128
:10237000A9A9BAA98C93EBA9FCA99083AA2DBB2D7E
:1023800018969C91189719968C91EDA9FEA98083B7
:10239000AFA9B8AD9C93EA2DFB2D92858385A9AD9D
:1023A000BAAD8C93EBADFCAD9083A62DB72D8C917F
:1023B00011969C91E82FF92FAE2FBF2F0D90002082
:1023C000E9F7AE1BBF0B1196EDADFEAD1082219665
:1023D0004EAD5FAD21976DAD7EADE82EF92E19C0E3
:1023E0008E2D9F2D01962E3241F4E42FF52F108271
:1023F000E82EF92E642F752F0AC0E42FF52F2083C5
:10240000E82EF92EE62FF72F80818F5F80834F5FB4
:102410005F4FEE2DFF2D2081222311F7E42FF52FA2
:1024200010822DAD3EAD2A0F3B1FE62DF72D928178
:102430008381E22FF32F8083918312962DAD3EADE1
:102440002A0F3B1FE62DF72D94818581E22FF32F74
:1024500080839183EA2FFB2F3E9610FF0DC04091A1
:102460004C0250914D0260914E0270914F02411505
:1024700051056105710541F44091480250914902AE
:1024800060914A0270914B028F81988525E330E07C
:10249000082D192DEE2EFF2E0E949C3797FDD4C1DA
:1024A0008F8198856C2F7D2F6D5F7F4F4C2F5D2F17
:1024B0004F5F5F4F282D392D00E012E0A8EECA2EA5
:1024C000A3E0DA2EE12CF12C0E941D371816190614
:1024D0000CF0B4C10D9724F3AFA1B8A52C9130E056
:1024E000E82DF92DF081FA8B198A49895A89242B14
:1024F000352BAA2DBB2D2D933C93EBA5FCA58081FC
:1025000090E0A9A5BAA5BC91BC8B1B8AEB89FC897C
:102510008E2B9F2BAA2DBB2D13969C938E931297D7
:10252000EFA5F8A98081482F50E0ADA5BEA5BC91CC
:10253000BE8B1D8AED89FE894E2B5F2BAA2DBB2DEC
:1025400015965C934E931497EBA9FCA9808190E0BB
:10255000A9A9BAA9BC91B88F1F8AEF89F88D8E2BD3
:102560009F2BAA2DBB2D17969C938E931697EFA9A0
:10257000F8AD808190E0ADA9BEA9BC91BA8F198E4B
:10258000E98DFA8D8E2B9F2BAA2DBB2D19969C932E
:102590008E931897EBADFCAD808190E0A9ADBAADFC
:1025A000BC91BC8F1B8EEB8DFC8D8E2B9F2BAA2D8F
:1025B000BB2D1B969C938E931A97E985FA852E174F
:1025C0003F0709F06DCF9EC18DAD9EAD662D772D75
:1025D0000E944B10282F392FEDADFEADE80FF91FEB
:1025E000818190E040814E8F1D8E6D8D7E8D862B7A
:1025F000972BA62DB72D13969C938E9312972E5F33
:102600003F4FEDADFEADE20FF31F22503040818110
:1026100090E0B081B8A31F8EEF8DF8A18E2B9F2B79
:10262000A62DB72D15969C938E931497EA2DFB2D0E
:1026300086819781892B09F407C1422F532F405F70
:102640005F4F5C874B87F1E02F2E312CBEC04114C9
:10265000510441F481E090E06EE070E00E94C156C8
:10266000482E592ECB84DC84C80CD91C8C2D9D2D72
:10267000642D752D0E944B10EC2DFD2DE80FF91FD8
:10268000218130E050815AA319A269A17AA1262B99
:10269000372BA42DB52D13963C932E931297E82F2C
:1026A000F92F3296AC2DBD2DAE0FBF1F11962C9178
:1026B000119730E04C914CA31BA26BA17CA1262B5F
:1026C000372BA42DB52D15963C932E931497329647
:1026D000EC0DFD1DAE2FBF2F1196E180FF2400E011
:1026E00010E0208130E040E050E0542F432F322FA3
:1026F0002227E22AF32A042B152B102F0F2DFE2C54
:10270000EE2411962C91119730E040E050E0E22A3F
:10271000F32A042B152B102F0F2DFE2CEE241296CE
:102720002C9130E040E050E0E22AF32A042B152BF4
:10273000E42DF52DE682F782008711870896EC2DAF
:10274000FD2DE80FF91F2181022F10E020812EA31B
:102750001DA24DA15EA1042B152BA42DB52D1B96FA
:102760001C930E931A9752E0E52EF12CE80EF91EF9
:102770001C968D919C911D97009711F00E94E25636
:10278000802F912F0E94E956E42DF52D848795879F
:102790002C2D3D2D2E0D3F1D622F732F402F512FBD
:1027A0000E94DC5BA42DB52D12968D919C91139700
:1027B0000197A9F0E00EF11EEB85FC85EE0DFF1DE3
:1027C000FC87EB870894211C311CAA2DBB2D169683
:1027D0008D919C911797821593050CF038CFE42DBD
:1027E000F52D82859385049749F50484F585E02DC0
:1027F0002081818190E0A0E0B0E0EE24F82E092F46
:102800001A2F828190E0A0E0B0E0A82FB92F99277D
:102810008827E80EF91E0A1F1B1FE20EF11C011D7E
:10282000111D838190E0A0E0B0E0B82FAA2799277E
:102830008827E80EF91E0A1F1B1F0AC029853A8542
:102840002630310509F01ECDEE24FF240027112784
:10285000A114B10421F08A2D9B2D0E94E25661142F
:10286000710461F0A62DB72D8D919C91009711F008
:102870000E94E256862D972D0E94E2564114510483
:10288000B1F0E42DF52D80819181009711F00E9427
:10289000E256A42DB52D1C968D919C911D97009705
:1028A00011F00E94E256842D952D0E94E256882D4B
:1028B000992D0E94E2568F8198850E94E93604C0C6
:1028C000EE24FF24002711276E2D7F2D802F912FBE
:1028D000C05CDF4F0FB6F894DEBF0FBECDBFCF9107
:1028E000DF911F910F91FF90EF90DF90CF90BF90FD
:1028F000AF909F908F907F906F905F904F903F90A0
:102900002F9008954130510509F098CF5DCE6FE0CA
:1029100070E00E94A910089561E070E00E94A91083
:102920000895CF93DF93A82FB92F6E5F7F4F643048
:10293000710510F464E070E06F5F7F4F6E7FED9182
:10294000FC9111974A2F5B2FA0E0B0E0C0E0D0E0EF
:1029500020C02081318126173707A0F0109731F071
:102960008D919C9111972817390760F42617370726
:1029700029F4AE2FBF2FC42FD52F11C0AE2FBF2FDC
:10298000C42FD52F4E2F5F2F4E5F5F4F0280F381F4
:10299000E02D3097F1F62A2F3B2F109701F18D9102
:1029A0009C911197861B970B12962D913C91139732
:1029B0008430910570F0EA2FFB2FE60FF71F91830B
:1029C00080833383228311967C936E93F983E8830B
:1029D00002C0398328832A2F3B2F2E5F3F4F822F3F
:1029E000932FDF91CF910895CF93DF93C82FD92FE5
:1029F0006115710519F42DEF3FEF64C0A62FB72FB5
:102A00001297E881F98153C0208131818E2F9F2F49
:102A1000820F931F8A179B07F1F46D917C91620FCF
:102A2000731F71836083AE2FBF2FA60FB71F8281E4
:102A30009381A817B90709F043C08D919C91119714
:102A4000680F791F7183608312968D919C91139703
:102A50009383828335C0AE17BF07E8F4B983A88398
:102A60004D915C9111978A2F9B2F840F951F8E1784
:102A70009F0761F4240F351F11963C932E9382819A
:102A8000938113969C938E9312971AC01396FC937E
:102A9000EE93129715C0A817B90718F42FEF3FEF60
:102AA00011C0CE2FDF2F22960280F381E02D3097C8
:102AB00009F0AACF13961C921E921297B983A8838D
:102AC00020E030E0822F932FDF91CF9108956F5F48
:102AD0007F4FE62FF72FEE7F61507040640F751F18
:102AE0006E1B7F0B6E7F619371936E2F7F2F0E9401
:102AF000F4140895E82FF92F0190F081E02D20E0E3
:102B000030E008C0808191810297280F391F028030
:102B1000F381E02D3097B1F7822F932F0895E82F9E
:102B2000F92F0190F081E02D20E030E00AC0808193
:102B300091812817390710F4282F392F0280F3814B
:102B4000E02D3097A1F722503040822F932F089527
:102B500080E090E00895EF92FF920F931F93CF9340
:102B6000DF93082F192FC091E702D091E80288EA7D
:102B7000E82E80E0F82E26C08DB79EB708970FB6D6
:102B8000F8949EBF0FBE8DBFEDB7FEB73196ADB7BF
:102B9000BEB712961C930E931197F382E282D583EF
:102BA000C48388819981978386830E9470560A80A6
:102BB000DB81C02D8DB79EB708960FB6F8949EBFE7
:102BC0000FBE8DBF2097C1F6DF91CF911F910F915E
:102BD000FF90EF900895AF92BF92CF92DF92EF9265
:102BE000FF920F931F93CF93DF93C82ED92EE62E1B
:102BF000F72E6115710539F4642F752F0E94911419
:102C0000E82EF92EAAC04115510531F40E94F414A2
:102C1000892B09F4A2C070C0062F172F0250104054
:102C20004E5F5F4F4430510510F444E050E0C42F34
:102C3000D52F2196CE7FE02FF12F208131812C17C7
:102C40003D0708F072C0EC2DFD2DA081B181AC2CA8
:102C5000BD2C09C092E0A92EB12CAA0EBB1E129663
:102C60000D90BC91A02D1097E9F1A017B10790F33A
:102C700081C0802F912F820F931F8A179B0791F598
:102C8000842F952F861B970B0497E8F0260F371F8C
:102C9000C02FD12F39832883EA2FFB2FE60FF71F90
:102CA000CA2DDB2DF983E88312968D919C911397A1
:102CB00093838283E881F9818D919C91861B970B88
:102CC000918380834AC0420F531FE02FF12F51831D
:102CD000408312968D919C911397CA2DDB2D998379
:102CE00088833BC08C2D9D2D6C2F7D2F0E949114CD
:102CF000C82FD92F009719F4EE24FF242EC0E02FFF
:102D0000F12F20813181225030409D2F6E2D7F2D5B
:102D1000422F532F0E94DC5B8C2D9D2D6E2D7F2D1D
:102D20000E94F414EC2EFD2E18C0822F932F0497CE
:102D3000C817D90790F42C1B3D0BE02FF12FEC0F97
:102D4000FD1F219331938C2D9D2D6E2F7F2F0E947F
:102D5000F414E02FF12FD183C0838E2D9F2DDF91AE
:102D6000CF911F910F91FF90EF90DF90CF90BF9088
:102D7000AF9008956C2F7D2F621B730B4D915C916A
:102D800011974617570708F074CFACCF0F931F93D6
:102D9000CF93DF93162F072F0E949114C82FD92F9E
:102DA000009739F09D2F60E070E0412F502F0E9476
:102DB000E75B8C2F9D2FDF91CF911F910F9108958D
:102DC000CF93DF93A82FB92FC62FD72F58967C9378
:102DD0006E93579715961C921E9214970FB6F894FF
:102DE0000F92E881F9818FEFEF3FF80761F41496B5
:102DF0008D919C911597019615969C938E9314979F
:102E0000E0E0F0E016C03097A1F00F900FBE5296B0
:102E10009C91529708C0CE2FDF2F22960280F3811B
:102E2000E02D309719F082899817A8F70FB6F8941B
:102E30000F921396FC93EE931297B983A883129680
:102E4000ED91FC911397309791F084819581892BB6
:102E500071F014962D913C91159784819581820F84
:102E6000931F15969C938E931497158214820F903E
:102E70000FBEDF91CF910895CF93DF93A82FB92F85
:102E8000C62FD72F0FB6F8940F92E881F9810F90D3
:102E90000FBE8FEFEF3FF807A1F535C0EA17FB072C
:102EA00051F50FB6F8940F9212968D919C9113974D
:102EB0009983888314968D919C911597892B81F025
:102EC0001296ED91FC911397309731F014968D91F5
:102ED0009C9115979583848315961C921E92149746
:102EE0000F900FBE13961C921E92129758961C922A
:102EF0001E92579708C0CE2FDF2F22960280F381B3
:102F0000E02D309759F6DF91CF910895E62FF72FF6
:102F1000168A158A82E087878E2F9F2F6BEE72E0CC
:102F20000E94E01608950F931F93CF93DF93082F0D
:102F3000192F0097D9F0C091E902D091EA0211C08F
:102F40008C2F9D2F0696602F712F0E94EF5B282FEC
:102F5000392F232B19F42C2F3D2F0CC00990D88129
:102F6000C02D209769F720E030E004C02091ED02E9
:102F70003091EE02822F932FDF91CF911F910F910D
:102F80000895E091EF02F091F002309751F06389DB
:102F9000748987EE92E00E94F4141092F00210926D
:102FA000EF020895CF93DF93C091E902D091EA0236
:102FB0000E94C1174091ED025091EE02E9EEF2E05D
:102FC0000EC028813981C417D50719F420833183B5
:102FD00008C0EC2FFD2F822F932FC82FD92F2097B9
:102FE00081F78091ED029091EE029093F002809330
:102FF000EF02DF91CF9108950F931F93182FE09167
:10300000ED02F091EE0202898E2F9F2F6BEE72E09F
:103010000E943C17E091ED02F091EE02128B1F3FEF
:1030200039F08E2F9F2F6BEE72E00E94E01602C0E7
:103030000E94D217E091ED02F091EE028091EB0236
:103040009091EC02E817F90719F481E0878709C02D
:1030500082E087870FB6F8940F920E944D1E0F9062
:103060000FBE802F1F910F9108958FEF0E94FC17C4
:103070000895CF93DF93C091E902D091EA0221C075
:103080000FB6F8940F928C819D810F900FBE892B03
:10309000A9F0EF89F88D0FB6F8940F928C819D817D
:1030A00001979D838C830F900FBE808191818F5FEC
:1030B0009F4F21F08E2F9F2F0E943D1C0990D88199
:1030C000C02D2097E9F60E941F1BE091ED02F091C0
:1030D000EE028091EB029091EC02E817F90761F0A3
:1030E0008785813011F482E087870FB6F8940F92BC
:1030F0000E944D1E0F900FBEDF91CF910895E09179
:10310000ED02F091EE0282819381892B71F08E2F76
:103110009F2F6BEE72E00E943C178091ED02909120
:10312000EE026BEE72E00E94E0160E9439180895DC
:103130008091F7029091F802A091F902B091FA0201
:103140000196A11DB11D8093F7029093F802A09300
:10315000F902B093FA0208952091F1023091F2023F
:103160004091F3025091F4020E94395C28EE33E062
:1031700040E050E00E94765C822F932FA42FB52F61
:1031800004C000000197A109B1090097A105B1058C
:10319000C1F7089590E0A0E0B0E0682F792F8A2F62
:1031A0009B2F28EE33E040E050E00E94395C0E9403
:1031B000AC180895CF93DF93C82FD92F1B821A82A2
:1031C000E091F502F091F60223C0288539854A8501
:1031D0005B8580859185A285B385281739074A07C5
:1031E0005B0748F4821B930BA40BB50B8087918778
:1031F000A287B3870FC0281B390B4A0B5B0B2887AC
:1032000039874A875B87FB83EA830190F081E02D51
:103210003097D9F6F983E883309711F0D383C283CE
:10322000EA81FB81309719F0D183C08304C0D09329
:10323000F602C093F502DF91CF910895CF93DF930B
:10324000E82FF92F148215821682178215861486AC
:1032500080859185A285B3850097A105B10569F1A7
:10326000A281B38180819181109719F08D939C93F5
:1032700004C09093F6028093F502C081D18120971B
:10328000A1F0828193819B838A8388859985AA8511
:10329000BB852085318542855385820F931FA41FEE
:1032A000B51F88879987AA87BB87108611861286E3
:1032B00013868E2F9F2F0E94DA18DF91CF910895E9
:1032C0000FB6F8940F922091F7023091F8024091D6
:1032D000F9025091FA020F900FBE622F732F842FC4
:1032E000952F089560915402709155028091560275
:1032F00090915702611571058105910569F480E08F
:1033000090E00E94371F90686093540270935502BA
:103310008093560290935702262F372F482F592F0C
:103320005F77622F732F842F952F08951092540288
:1033300010925502109256021092570280E090E0CF
:1033400008952F923F924F925F926F927F928F9249
:103350009F92AF92BF92CF92DF92EF92FF920F9324
:103360001F930FB6F8940F926090F7027090F802D6
:103370008090F9029090FA020F900FBE0E94401FB9
:10338000262F372F482F592F992D882D772D662DD1
:103390000E94765CE22EF32E042F152F0E94401F10
:1033A000A62EB72EC82ED92E0E94401F262E372EAD
:1033B000482E592E912F802F7F2D6E2D5D2D4C2D57
:1033C0003B2D2A2D0E94395C661A770A880A990AD1
:1033D000992D882D772D662D28EE33E040E050E0C2
:1033E0000E94395C552D442D332D222D0E94765C90
:1033F000A22EB32EC42ED52E912F802F7F2D6E2D71
:1034000028EE33E040E050E00E94395C262F372F51
:10341000482F592F2A0D3B1D4C1D5D1D622F732F08
:10342000842F952F1F910F91FF90EF90DF90CF90F9
:10343000BF90AF909F908F907F906F905F904F90D4
:103440003F902F900895EF92FF920F931F930FB626
:10345000F8940F92E090F702F090F8020091F902D0
:103460001091FA020F900FBE0E94401F262F372F97
:10347000482F592F912F802F7F2D6E2D0E94765C23
:10348000842F952F622F732F1F910F91FF90EF9034
:103490000895AF92BF92CF92DF92EF92FF920F9377
:1034A000CF93DF93C62ED72EE82EF92EC42FD52F1B
:1034B000A22EB32E87EE92E060E170E00E9491149C
:1034C000E82FF92F309781F10FB6F8940F92809181
:1034D000F7029091F802A091F902B091FA020F90D0
:1034E0000FBE2091500230915102409152025091F2
:1034F0005302821B930BA40BB50B8C0D9D1DAE1DAF
:10350000BF1D80879187A287B38700FF05C0148203
:1035100015821682178204C0C482D582E682F782A1
:10352000D587C487B786A6868E2F9F2FDF91CF9130
:103530000F91FF90EF90DF90CF90BF90AF900895E4
:103540000F93CF93DF930E94491AC82FD92F00976A
:1035500011F00E94DA188C2F9D2FDF91CF910F91DF
:103560000895CF92DF92EF92FF920F93E42EF52E03
:10357000C22ED32E0E94451F4E2D5F2D2C2D3D2D8A
:103580000E94A01A0F91FF90EF90DF90CF900895C6
:10359000AF92BF92CF92DF92EF92FF920F93CF93B1
:1035A000DF93A62EB72EC82ED92E61157105810581
:1035B0009105C9F1CBEED2E08091ED029091EE023F
:1035C0006C2F7D2F0E943C17E090ED02F090EE02F0
:1035D00083E0EE2DFF2D87879D2D8C2D7B2D6A2D71
:1035E00046E857E12E2D3F2D01E00E94B11AEE2D45
:1035F000FF2D968B858B892B19F00E94391815C0E9
:10360000E091ED02F091EE02D08FC78B8091EB023A
:103610009091EC029383828381E08787F093EC02A0
:10362000E093EB0202C00E947F18DF91CF910F91CF
:10363000FF90EF90DF90CF90BF90AF900895EF9202
:10364000FF920F931F93CF93DF930FB6F8940F92CF
:103650002091F7023091F8024091F9025091FA025C
:103660000F900FBE8091500290915102A091520292
:10367000B0915302E22EF32E042F152FE81AF90A07
:103680000A0B1B0B209350023093510240935202BD
:103690005093530255C088859985AA85BB85E81645
:1036A000F9060A071B0768F48E199F09A00BB10BD6
:1036B00088879987AA87BB87EE24FF2400271127D4
:1036C00008C0E81AF90A0A0B1B0B188619861A8615
:1036D0001B8688859985AA85BB850097A105B105BC
:1036E00079F5EC85FD85309729F06E857F858C2FE7
:1036F0009D2F0995E091F502F091F6020190F0817D
:10370000E02DF093F602E093F502309711F013826A
:1037100012828C819D81AE81BF8188879987AA871B
:10372000BB870097A105B10539F487EE92E06C2FB5
:103730007D2F0E94F41404C08C2F9D2F0E94DA1854
:10374000C091F502D091F602209731F0E114F10416
:103750000105110509F09FCFDF91CF911F910F91C6
:10376000FF90EF90089588E998E10E94681F87B75D
:10377000826087BF0FB6F8940F922091F7023091C4
:10378000F8024091F9025091FA020F900FBE0FB665
:10379000F8940F928091F7029091F802A091F902AB
:1037A000B091FA020F900FBE281739074A075B073E
:1037B00071F30FB6F8940F922091F7023091F8024E
:1037C0004091F9025091FA020F900FBE13C0809100
:1037D000F1029091F202A091F302B091F4020196ED
:1037E000A11DB11D8093F1029093F202A093F30208
:1037F000B093F4020FB6F8940F928091F702909173
:10380000F802A091F902B091FA020F900FBE2817AA
:1038100039074A075B07D9F26091F1027091F20211
:103820008091F3029091F40227E630E040E050E00E
:103830000E94395C6093F1027093F2028093F3026C
:103840009093F4026091F1027091F2028091F30280
:103850009091F4022AE130E040E050E00E94765C72
:10386000822F932FA42FB52F8093F1029093F20211
:10387000A093F302B093F4020895CF93DF93A82F9F
:10388000B92F0FB6F8940F92CD91DC9111970F904C
:103890000FBE8FEFCF3FD80709F43BC0209779F1D7
:1038A0000FB6F8940F92EA81FB811196FC93EE9388
:1038B0008C819D81892B71F0309729F08C819D81BD
:1038C0009583848305C08FEF9FEF11969C938E9311
:1038D0001D821C820F900FBE8D899E89009721F05A
:1038E0000E941E191E8A1D8A82E08F878C2F9D2FB1
:1038F0006BEE72E00E94E01621E030E00CC00FB6E3
:10390000F8940F928FEF9FEF11969C938E930F90E8
:103910000FBE20E030E0822F932FDF91CF910895EA
:103920000F931F93CF93DF93082F192F0FB6F8949F
:103930000F92E82FF92F808191810F900FBEFFEF3A
:103940008F3F9F0751F40FB6F8940F92E02FF12F9D
:10395000118210820F900FBE02C0892B19F4C0E0B3
:10396000D0E015C0C0E0D0E0802F912F0E943D1C18
:10397000C80FD91F0FB6F8940F92E02FF12F808156
:1039800091810F900FBE01978E5F9F4F68F38C2F30
:103990009D2FDF91CF911F910F9108950F931F934A
:1039A0000E94901C182F092F0E947F18812F902FA2
:1039B0001F910F9108950F931F930E943D1C182F84
:1039C000092F0E947F18812F902F1F910F9108952A
:1039D000CF93DF93482F592F862F972FA82FB92FDA
:1039E0000FB6F8940F92CD91DC9111970F900FBE06
:1039F0008FEFCF3FD80709F036C038C08D899E8938
:103A00002A813B818417950749F50FB6F8940F92E8
:103A100011963C932E938C819D81892B81F0EA81B4
:103A2000FB81309729F08C819D819583848305C02B
:103A30008FEF9FEF11969C938E931D821C820F90A7
:103A40000FBE82E08F878C2F9D2F6BEE72E00E945D
:103A5000E0168FEF9FEF9E8B8D8B08C0AC2FBD2F94
:103A60001296C22FD32F209709F0C8CFDF91CF91A4
:103A70000895CF92DF92EF92FF920F931F93CF930F
:103A8000DF93082F192FC42ED52EE62EF72E0FB652
:103A9000F8940F92E82FF92F808191810F900FBE3B
:103AA0008F5F9F4F61F40FB6F8940F92E02FF12FC4
:103AB000118210820F900FBE0E947F1836C0809135
:103AC000ED029091EE026BEE72E00E943C17809145
:103AD000ED029091EE02602F712F0E94E016C091CE
:103AE000ED02D091EE0283E08F87C114D104E1048E
:103AF000F10471F09F2D8E2D7D2D6C2D48EE5CE133
:103B0000202F312F01E00E94B11A9E8B8D8B02C0B5
:103B10001E8A1D8A0E943918E091ED02F091EE0292
:103B2000858996898F5F9F4F19F020E030E004C0AF
:103B3000168A158A2FEF3FEF822F932FDF91CF91B7
:103B40001F910F91FF90EF90DF90CF900895E82F95
:103B5000F92F0FB6F8940F92808191818F5F9F4F5C
:103B600011F4118210820F900FBE8E2F9F2F0E9492
:103B7000391D08950F931F93CF93DF93082F192FAB
:103B8000C0915802D09159020EC08C2F9D2F0296E1
:103B9000602F712F0E94EF5B282F392F232B29F0E4
:103BA0000990D881C02D209781F78C2F9D2FDF9110
:103BB000CF911F910F910895CF93DF93C82FD92FE5
:103BC0006115710511F07D876C8741114E878C2F2F
:103BD0009D2F02960E94BA1D892BB1F4EB89FC89B6
:103BE000309729F08C2F9D2F0995892B69F48091AE
:103BF00058029091590299838883D0935902C093B7
:103C0000580220E030E002C02FEF3FEF822F932FC9
:103C1000DF91CF91089583E18093FB028FE493E5D8
:103C20009093FD028093FC0280E090E06BEF72E0E5
:103C300043E150E00E94572F089580E090E06BEF41
:103C400072E043E150E00E945A2F892B99F4809151
:103C5000FB02833179F48CEF92E060EB70E042E09C
:103C600050E00E94CD5B282F392F232B19F420E040
:103C700030E008C08EEF92E063EB70E00E94FA5BE8
:103C80002FEF3FEF822F932F08959F918F910F90E9
:103C90000BBE0F900FBE1F9018952F923F924F9220
:103CA0005F926F927F928F929F92AF92BF92CF92CC
:103CB000DF92EF92FF920F931F93CF93DF938DB715
:103CC0009EB7E091ED02F091EE02918B808BE09136
:103CD000EB02F091EC02F093EE02E093ED0281E052
:103CE0008787808991898DBF9EBFDF91CF911F917A
:103CF0000F91FF90EF90DF90CF90BF90AF909F908B
:103D00008F907F906F905F904F903F902F9008958D
:103D1000AF92BF92CF92DF92EF92FF920F931F93D9
:103D2000CF93DF93F82EE92EC62ED72EB42EA52ED4
:103D3000C22FD32F622F732F675E7F4F87EE92E0E3
:103D40000E949114E82FF92F309719F420E030E009
:103D500081C0CE0FDF1F4C2F5D2F475050406C2F7E
:103D60007D2F6B5170400C2F1D2F0A5F1F4F2F2D81
:103D70003E2D88E0A22FB32F0D902A2F3B2FA02F8E
:103D8000B12F0D920A2F1B2F8150A1F71E86615073
:103D90007040798B688B6F5F7F4FFC8BEB8B8FEE66
:103DA0009EEBADEABEED80839183A283B3838483CF
:103DB0009583A683B78380879187A287B3878487FB
:103DC0009587A687B78780E48A8BE42FF52FD58265
:103DD000C68280E8838312821482B182A08285E445
:103DE0009EE1A62FB72F52969C93529753968C9391
:103DF0008091E9029091EA0299838883D093EA0244
:103E0000C093E90282E08F871E8A1D8A188E1F8A5E
:103E10008C2F9D2F6BEE72E00E94E016E091ED0278
:103E2000F091EE02309721F40FB6F8940F924FCF35
:103E30008091EB029091EC02E817F90749F082E0DB
:103E400087870FB6F8940F920E944D1E0F900FBEF9
:103E50002C2F3D2F822F932FDF91CF911F910F9108
:103E6000FF90EF90DF90CF90BF90AF90089560915A
:103E70005A0270915B0280915C0290915D020895FC
:103E800060E074E080E090E008952AE0660F771F1C
:103E9000881F991F2A95D1F728EE33E040E050E0C3
:103EA0000E94765C822F932FA42FB52F282F392FB5
:103EB0004A2F5B2F211531054105510521F421E0E1
:103EC00030E040E050E0622F732F842F952F08954B
:103ED000682F792F87B78D7F87BF80B7886080BFB5
:103EE00012BE82E083BF80B790E087709070892B0C
:103EF000D1F781E086BF0FB6F8940F9281E090E091
:103F0000A0E0B0E0B6B7B170E9F3B6BF0894811D88
:103F1000911DA11DB6B7B170C9F3BB270F900FBE9D
:103F200037E0880F991FAA1FBB1F3A95D1F78093DE
:103F30005A0290935B02A0935C02B0935D0287B734
:103F40008D7F87BF80B7886080BF12BE89E083BF46
:103F50008FE181BF80B790E087709070892BD1F797
:103F600082E086BF8CEB90E040E050E00E946D283C
:103F70000895282F392FE62FF72F47B7427087B7BC
:103F80008D7F87BF20313105D1F0213131053CF4DF
:103F90002115310581F02130310551F40DC0223158
:103FA000310569F122313105DCF020323105D9F0DB
:103FB0002FEF3FEF1EC040E082E086BF18C006B67C
:103FC00001FE05C081E090E09183808302C01182F0
:103FD00010824423A1F08081918180689183808345
:103FE00020E030E008C08EE090E09183808320E004
:103FF00030E0442331F087B7826087BF02C020E001
:1040000030E0822F932F08951F920F920FB60F92D8
:1040100011242F933F934F935F936F937F938F93CD
:104020009F93AF93BF93EF93FF938CEB90E00E942D
:104030006128FF91EF91BF91AF919F918F917F91F7
:104040006F915F914F913F912F910F900FBE0F9005
:104050001F901895E82FF92F6281738120915F02DC
:10406000422F50E0842F952F80739070892B89F018
:1040700024FF04C083E18CB9206403C081E18CB9C2
:104080002F7B20935F0280915F028F7C80935F0281
:10409000089527FF02C05598089582859385892B3E
:1040A00091F1828593850197938782878091600241
:1040B000882311F0509A01C05098A62FB72F8D91E8
:1040C0008CB986819781A817B90711F4A481B581AD
:1040D000B383A28322853385848595852817390784
:1040E00059F5A089B1891097A9F08FEFAF3FB807B4
:1040F00019F114968D919C911597019615969C93A4
:104100008E9314970895559813861286A089B189C5
:10411000109729F48FEF9FEF918B808B08958FEF8D
:10412000AF3FB80749F014968D919C911597019671
:1041300015969C938E9314970895CF93DF93282F11
:104140005BB180915E02582B50935E026CB140913E
:104150005F02442361F0633119F45598406804C04C
:10416000613129F4559A4F7740935F025EC0A22FC8
:10417000B92F1A962D913C911B9718968D919C9171
:1041800019972817390720F0586050935E024DC0E8
:10419000C22FD32F2196232BB9F45096ED91FC9189
:1041A0005197309739F48FEF9FEF51969C938E93F0
:1041B00050971FC08FEFEF3FF807D9F084819581AA
:1041C00001969583848315C0442399F01E968D91A2
:1041D0009C911F97C817D90760F046FD0AC05D9BE8
:1041E00005C083E18CB940644F7D01C040624093BB
:1041F0005F02ED91FC91119761931196FC93EE9300
:104200002D913C91119716968D919C911797281797
:10421000390739F414968D919C91159711969C93BA
:104220008E931B96DC93CE931A97DF91CF910895CE
:10423000529902C088E0089589E0089580E00895C9
:10424000882319F420E030E002C02FEF3FEF822FE7
:10425000932F089581E00895813019F420E030E033
:1042600002C02FEF3FEF822F932F089580915E02BF
:1042700090E0282F392F94E0369527959A95E1F70D
:1042800040E050E0217030704070507083FD22603B
:1042900080915F02882321F086FD426087FD48609F
:1042A00041FF416043FF446080916002882311F028
:1042B000406401C040684062622F732F842F952FA5
:1042C0000895EF92FF920F931F93E62EF72E082F7B
:1042D000192F80915F028823D9F00FB6F8940F92BE
:1042E00000FF02C08F7B03C001FF03C08064809386
:1042F0005F0202FF04C080915F028F7705C003FF59
:1043000005C080915F02806880935F020F900FBEAE
:1043100006FF03C081E08093600207FF02C0109295
:1043200060028E2D9F2D81709070892B29F08091D5
:104330005E028F7E80935E02E1FE05C080915E0288
:10434000877F80935E020E943621687F6E157F050D
:104350008007910719F420E030E002C02FEF3FEF13
:10436000822F932F1F910F91FF90EF90089580E07F
:104370000895882319F420E030E002C02FEF3FEFCA
:10438000822F932F089580915F02882329F420E0E3
:1043900030E040E050E004C020E230E040E050E097
:1043A000622F732F842F952F0895EF92FF920F9312
:1043B0001F93E62EF72E082F192F65FF0DC0809151
:1043C0005F02882381F40FB6F8940F9281E4809302
:1043D0005F020F900FBE07C00FB6F8940F921092B5
:1043E0005F020F900FBE80915F02882329F420E0C6
:1043F00030E040E050E004C020E230E040E050E037
:104400002E153F054007510719F420E030E002C0A7
:104410002FEF3FEF822F932F1F910F91FF90EF907F
:104420000895559A089590915F029923A9F096FFF7
:1044300013C00FB6F8940F925D9B04C081E18CB954
:104440009F7E01C0906190935F0280915F028F799F
:1044500080935F020F900FBE08951F93182F0FB621
:10446000F8940F925798569855980F900FBE8AE07F
:104470000E94CA18549853985298193009F4529AC5
:104480000FB6F8940F9288EB8AB90F900FBE52992D
:1044900002C088E001C089E0811719F420E030E013
:1044A00002C02FEF3FEF822F932F1F910895EF92BD
:1044B000FF920F931F93E9B00E947219FF2400E04E
:1044C00010E00894E11CF11C011D111D24E0EE0C0C
:1044D000FF1C001F111F2A95D1F7512F402F3F2D90
:1044E0002E2D0E94765C842F952F622F732F1F91A3
:1044F0000F91FF90EF900895EF92FF920F931F930B
:10450000E62EF72E082F192F0FB6F8940F92579812
:10451000569855980F900FBE8AE00E94CA1854987A
:1045200053980E947219E3E0EE0CFF1C001F111F4C
:10453000EA95D1F7512F402F3F2D2E2D0E94765C0A
:104540002F5F3F4F4F4F5F4F5695479537952795B4
:104550002150304029B90FB6F8940F9288EB8AB9F0
:104560000F900FBE80E090E01F910F91FF90EF90B1
:10457000089588E891E060E070E040E050E00E943B
:104580006D288EE891E060E070E040E050E00E942D
:104590006D2880E090E0089588E891E06DE970E290
:1045A00047E051E00E946D28892BA9F48EE891E044
:1045B0006AE270E245EF50E00E946D28892B19F401
:1045C00020E030E00AC088E891E060E070E040E080
:1045D00050E00E946D282FEF3FEF822F932F089518
:1045E000E62FF72F4AB14078579880319105B9F0FE
:1045F000813191052CF4009771F0019749F40CC0BA
:104600008231910549F182319105CCF08097D1F04A
:104610002FEF3FEF1DC040E08CB18CB117C05F9B06
:1046200005C081E090E09183808302C011821082F6
:10463000442391F08081918180689183808320E080
:1046400030E008C080E190E09183808320E030E09A
:10465000442321F0579A02C020E030E0822F932FAC
:1046600008951F920F920FB60F9211242F933F932C
:104670004F935F936F937F938F939F93AF93BF936A
:10468000EF93FF9388E891E00E946128FF91EF91FA
:10469000BF91AF919F918F917F916F915F914F915A
:1046A0003F912F910F900FBE0F901F901895E62FFE
:1046B000F72F4AB1407255988131910501F182314D
:1046C00091052CF4009741F1409731F408C08231F4
:1046D000910511F18097B1F02FEF3FEF19C05D9B6D
:1046E00005C081E090E09183808302C01182108236
:1046F000442391F08081918180689183808320E0C0
:1047000030E008C080E190E09183808320E030E0D9
:10471000442321F0559A02C020E030E0822F932FED
:1047200008951F920F920FB60F9211242F933F936B
:104730004F935F936F937F938F939F93AF93BF93A9
:10474000EF93FF938EE891E00E946128FF91EF9133
:10475000BF91AF919F918F917F916F915F914F9199
:104760003F912F910F900FBE0F901F901895CF93F0
:10477000DF93E82FF92FC189D2898A859B85AC8583
:10478000BD850196A11DB11D8A879B87AC87BD871A
:104790008091078380930783282F84FF3FC08091F7
:1047A000008382FDFCCF8091008391E6909300838B
:1047B0002091078391E29093008310920A831092D4
:1047C0000B8382FD02C090E006C08091078390E0D9
:1047D0008A7009F491E082E080930D8382E28093F5
:1047E0000083822F8150863408F48FE58093038301
:1047F00010920D83992319F086E28093008380E163
:10480000809307838E859F85A889B9890196A11D0C
:10481000B11D8E879F87A88BB98B50C083FF0BC0BB
:104820008AA19BA1ACA1BDA10196A11DB11D8AA326
:104830009BA3ACA3BDA320FF15C088819981892BC0
:1048400029F48FEF9FEF998388830CC08881998129
:104850008F5F9F4F39F0E881F981848195810196BE
:104860009583848322FF2AC020910D838A899B89A6
:10487000AC89BD89820F911DA11DB11D8A8B9B8BB7
:10488000AC8BBD8B20910E838E899F89A88DB98DAD
:10489000820F911DA11DB11D8E8B9F8BA88FB98F8B
:1048A00020910F838A8D9B8DAC8DBD8D820F911DC4
:1048B000A11DB11D8A8F9B8FAC8FBD8FDF91CF91D2
:1048C0000895EF92FF920F931F93F82EE92E00E0C8
:1048D00010911F8385E00E94CA1810931F8310E077
:1048E00082E30E94CA188091078387FF08C08091E5
:1048F0000A83803521F480910B83803749F01F5F54
:10490000143171F70F5F043119F72FEF3FEF61C0DA
:1049100010920F830FEF0093078381EE8093008343
:1049200080EC8093018310E210930583109306833B
:10493000109201838FEF0E94CA1881E28093008356
:1049400088E480930E8310920A8310920B83109355
:104950000C8382E080930D8380E4809304838FE551
:104960008093038386E48093018380E680930283AF
:104970000093078381E6809300838F2D9E2DA82FBF
:10498000B92FE1E0F3E88D91819383E8E730F807F0
:10499000D1F7E8E0F3E8119283E8E031F807D9F7BE
:1049A00086E48093078381E28093008384E0809390
:1049B0000C838FEF809307838DE180930F8382E2D6
:1049C0008093008310920D838FEF0E94CA1820E01D
:1049D00030E0822F932F1F910F91FF90EF90089559
:1049E000EF92FF920F931F93CF93DF93C82FD92F8E
:1049F00080911403882329F48C2F9D2F02960E9406
:104A00002C3E0F85188985E0E82EF12CE00EF11E72
:104A1000AE2DBF2DEEE1F3E086E001900D928150C6
:104A2000E1F7E989FA8986E2AE2FBF2F1D928A95B8
:104A3000E9F784E991E06DE476E24C2F5D2F20E800
:104A400032E00E94881E64EF71E080E090E00E94F6
:104A5000C81A89E991E067EB73E24C2F5D2F0E9441
:104A60006D28892BB9F489B78F7D89BFE02FF12F8D
:104A700086819581892B9781892B31F08E2D9F2DF1
:104A80000E946124892B31F489B7806289BF20E0BC
:104A900030E002C02FEF3FEF822F932FDF91CF91B5
:104AA0001F910F91FF90EF900895DF92EF92FF9288
:104AB0000F931F93CF93DF93E82FF92F062F172F14
:104AC000E188D288E62FF72FC185D285858196812E
:104AD000C80FD91F85859685C80FD91F81899289EE
:104AE000C80FD91FF5E0CB3EDF0718F02FEF3FEFDF
:104AF000CAC0CC33D10510F0FF2408C09CE3F92EC6
:104B0000FC1ACCE3D0E002C00E947F1880910083A1
:104B100082FDFACF89B78F7D89BFBC2FC0930A83EE
:104B2000AD2FD0930B831092088380E48093098388
:104B300082E180930083E02FF12F738124816581CE
:104B4000462F56814115510599F0922F272F392F65
:104B5000E22FF32F41505040952F262F270F8191A0
:104B6000809310832E17D9F7992311F09150F7CF26
:104B7000E02FF12F778120856185462F52854115E1
:104B8000510599F0922F272F392FE22FF32F415003
:104B90005040952F262F270F8191809310832E1739
:104BA000D9F7992311F09150F7CFE02FF12F7385AA
:104BB00024856585462F56854115510599F0922F1C
:104BC000272F392FE22FF32F41505040952F262FBA
:104BD000270F8191809310832E17D9F7992311F015
:104BE0009150F7CFE02FF12F778520896189462FEB
:104BF000528941155105B9F0922F272F392FE22FF5
:104C0000F32F41505040952F262F270F81918093ED
:104C100010832E17D9F7992331F09150F7CF1092C6
:104C20001083019604C080E090E02F2D30E08217C1
:104C30009307A8F382E28093008390E0809107833A
:104C400086FD03C09F5F9531C9F7EE2DFD2D80E4F1
:104C500080930783B0930583A09306838093048396
:104C600086E28093008389B7806289BF86819781BD
:104C7000A085B1850196A11DB11D86839783A0876C
:104C8000B18720E030E0822F932FDF91CF911F91E9
:104C90000F91FF90EF90DF900895DF93CF9300D0B6
:104CA00000D000D0CDB7DEB7882E992EA82DB92D13
:104CB0001F96AD90BC90509751966D907C905297F6
:104CC00089E00E94FC17EA2DFB2D868195818923BE
:104CD000978189238F3F01F506C06DE770E080E082
:104CE00090E00E94C81AAA2DBB2D16968C9116979B
:104CF00015969C911597892317969C9189238F3F30
:104D000061F389B78F7D89BF8A2D9B2D05960E94FF
:104D1000612489B7806289BF55E0252E312C2A0C89
:104D20003B1C42E2542EEC2FFD2F3596FE83ED8383
:104D300030E4432E862D972D40E050E060E070E097
:104D40000E94391D89B78F7D89BFF2E6F0930083F9
:104D50000000000000000000000000000000000053
:104D60000000000000000000000000000000000043
:104D70008091078350920083E0900383E3942FE5B2
:104D80002E1510F426E4E22EE81621F489B780628D
:104D900089BFD0CF84E080930A8310920B83109256
:104DA0000883E09209839AE090930083000000005A
:104DB00000000000000000000000000000000000F3
:104DC000000000000000000000000000EC2FFD2F9C
:104DD0003196809110838193AD81BE81EA17FB07E4
:104DE000C1F75092008390E08091078386FD03C055
:104DF0009F5F9531C9F740920783CB80DC8080E0CC
:104E0000C11081E0F82EFD0CFE0CBFE5BF1510F4BB
:104E1000E6EEFE0E8A81F81661F0F394FFE5FF15C9
:104E200010F426EEF20EF81621F089B7806289BFE1
:104E300070C08C2D9D2D805490408F5A954008F065
:104E400058C089818E7009F054C00C2D1D2D04505E
:104E5000104080E090E060E1402F512F0E94E92E49
:104E6000482F592F009709F446C000930A831093E6
:104E70000B83B4E0B0930883E0920983EAE0E09307
:104E8000008300000000000000000000000000009F
:104E90000000000000000000000000000000000012
:104EA0000000A82FB92F13968C91139714969C91FC
:104EB000012B91F0E82FF92F8C2D9D2D0597292F8F
:104EC000982F01C091508091108381939923D1F73D
:104ED000222311F02150F6CF5092008390E0809170
:104EE000078386FD03C09F5F9531C9F74092078312
:104EF00002C040E050E08F2D8150863408F48FE5E9
:104F00008093038389B7806289BFBFEF4F3F5B0700
:104F100091F4822D932D0E946124E62DF72D868D2C
:104F2000978DA0A1B1A10196A11DB11D868F978F6C
:104F3000A0A3B1A307CF4115510509F4FBCEE62D7F
:104F4000F72D82819381A481B5810196A11DB11DA8
:104F500082839383A483B583AA2DBB2D5F96ED91A5
:104F6000FC919097882D992D642F752F0995EACE85
:104F7000282F392FE62FF72F49B7407289B78F7D39
:104F800089BF21313105C9F1223131054CF421307D
:104F90003105F9F020313105F9F0232BA1F05EC085
:104FA0002831310569F1293131052CF422313105DF
:104FB00009F054C05BC02931310541F1203231057F
:104FC00009F04CC046C08AB78B7F8ABF8AB7877FFB
:104FD0008ABF80E288BF34C008B605FE05C081E004
:104FE00090E09183808302C0118210824423F1F10A
:104FF0008081918180689183808320E030E032C09D
:105000000AB603FC26C081E090E025C06081718172
:105010006130710519F48AB78B7F05C0673071055F
:1050200031F48AB784608ABF8AB7877F08C0653049
:10503000710549F48AB78B7F8ABF8AB788608ABFB7
:1050400020E030E00DC06630710541F48AB784601D
:10505000F3CF85E090E091838083F2CF2FEF3FEF95
:10506000442331F089B7806289BF02C020E030E07C
:10507000822F932F08951F920F920FB60F92112433
:105080002F933F934F935F936F937F938F939F9350
:10509000AF93BF93EF93FF9389E991E00E9461285A
:1050A000FF91EF91BF91AF919F918F917F916F9100
:1050B0005F914F913F912F910F900FBE0F901F90D6
:1050C0001895A82FB92F1296ED91FC911397309750
:1050D00019F08D919C9109950895EF92FF920F938D
:1050E0001F93CF93DF93C82FD92FE62EF72E042FCF
:1050F000152FEC81FD81309719F420E030E007C0D6
:1051000080E090E060E070E00995282F392F198346
:105110000883FB82EA82822F932FDF91CF911F9128
:105120000F91FF90EF900895A82FB92F1496ED914D
:10513000FC911597309719F42FEF3FEF07C081E1ED
:1051400090E060E070E00995282F392F822F932F8F
:105150000895A82FB92F1496ED91FC9115973097CB
:1051600019F42FEF3FEF07C082E190E060E070E0BC
:105170000995282F392F822F932F08950F931F936E
:10518000DF93CF9300D000D0CDB7DEB7082F192F13
:105190007C836B83A82FB92F1496ED91FC91159702
:1051A000309719F42FEF3FEF1EC080E290E06C2F94
:1051B0007D2F6F5F7F4F0995282F392F009799F426
:1051C000A02FB12F1496ED91FC91159781E290E0FC
:1051D0006C2F7D2F6D5F7F4F0995282F392F0097FA
:1051E00011F429813A81822F932F0F900F900F9005
:1051F0000F90CF91DF911F910F9108950F931F93FF
:10520000DF93CF9300D000D0CDB7DEB7082F192F92
:105210007C836B83A82FB92F1496ED91FC91159781
:10522000309719F42FEF3FEF22C088E190E06C2F08
:105230007D2F6F5F7F4F0995282F392F0097B9F485
:105240008B819C81892B89F0A02FB12F1496ED9131
:10525000FC91159789E190E06C2F7D2F6D5F7F4F5A
:105260000995282F392F009711F429813A81822F2F
:10527000932F0F900F900F900F90CF91DF911F9170
:105280000F9108950F931F93CF93DF93E82FF92F7A
:10529000C189D289EDA9FEA90995082F192F009778
:1052A00049F4CF5BDF4FE881F98160E072EC81E087
:1052B00090E00995802F912FDF91CF911F910F9151
:1052C0000895A82FB92F1296ED91FC91139701889C
:1052D000F289E02D0FB6F8940F9284A595A50F9052
:1052E0000FBE682F792F80E090E00895CF92DF9273
:1052F000EF92FF920F931F93CF93DF93C82FD92F75
:10530000062F172FE42EF52EC22ED32E8C819D81D1
:10531000288539850FB6F8940F92198618860F9054
:105320000FBE2617370791F0232B21F0009711F0BD
:105330000E94E2560115110519F1802F912F0E944C
:10534000E956009731F42FEF3FEF1CC0611571054E
:10535000B9F09D838C83998388839B838A83800F94
:10536000911F9F838E83FD86EC86DF86CE861B860B
:105370001A860FB6F8940F92198708870F900FBE00
:1053800020E030E0822F932FDF91CF911F910F917A
:10539000FF90EF90DF90CF900895CF92DF92EF9241
:1053A000FF920F931F93CF93DF93E62FF72FC42E17
:1053B000D52EAC2DBD2DED90FD900D911C912E2D77
:1053C000A82FB92F5196CD91DC915297E150F14021
:1053D000E732F10550F4E05DFF4FEE0FFF1FC89577
:1053E000E3950F92C8950F9208950FEF1FEF2AC112
:1053F000CF5BDF4F46C0CD5BDF4F9BC0CB5BDF4F4A
:10540000E881F981822F0995082F192F1BC1C95BEB
:10541000DF4F0BC0C75BDF4FF3CFC55BDF4F05C06E
:10542000C35BDF4FEDCFC15BDF4FE881F9810995A9
:1054300090E0FEC0E6FE0EC06AA57BA54EA55FA566
:1054400028A939A98C2F9D2F82960E947629EBAD31
:10545000FCAD0995E7FE0BC0688D798D4C8D5D8D97
:105460002E8D3F8D8C2F9D2F40960E947629CF5AEE
:10547000DF4F8FE39FEFAFEFBFEFE822F9220A2360
:105480001B23E881F981912F802F7F2D6E2D0995A7
:10549000BBCFCD5ADF4FE881F981C355D040099584
:1054A000262F372F482F592FAC2DBD2D6D937D936F
:1054B0008D939C9313978CA59DA5892B39F420641B
:1054C000EC2DFD2D20833183428353838A8D9B8D68
:1054D000892B09F0B5C0EC2DFD2D80819181A28131
:1054E000B3818068A9C0E886F9860A871B87A8C0AF
:1054F00088859985AA85BB859DC0EC86FD860E872B
:105500001F879EC08C859D85AE85BF8593C0888191
:105510009981AA81BB81EE2011F080641DC08F7B30
:105520001BC0888186FF25C01FC0EDADFEADABCF8F
:10553000EF96E881F9810995EC2DFD2D608371834B
:10554000828393837DC088819981AA81BB81EE206B
:1055500011F0806801C08F7788839983AA83BB8309
:105560006FC0888187FF05C081E090E0A0E0B0E0D7
:1055700061C0AC2DBD2D1D921D921D921C921397E2
:105580005FC0CB5ADF4F3CCFC95ADF4F4ECF4C8D57
:105590005D8D2E8D3F8D8C2F9D2F40966E2D7F2DF6
:1055A0000E947629082F192F009709F04BC0EBAD08
:1055B000FCAD099547C0888D998D3AC04EA55FA571
:1055C00028A939A98C2F9D2F82966E2D7F2D0E94A0
:1055D00076291ACF8AA59BA52BC00FB6F8940F92F7
:1055E000FD8EEC8E0F900FBE2BC08C8D9D8D20C03C
:1055F0000FB6F8940F92FF8EEE8E0F900FBE20C064
:105600008E8D9F8D15C00FB6F8940F92FFA6EEA653
:105610000F900FBE15C08EA59FA50AC00FB6F894B7
:105620000F92F9AAE8AA0F900FBE0AC088A999A9FB
:10563000A0E0B0E0EC2DFD2D80839183A283B383A5
:1056400000E010E0802F912FDF91CF911F910F91FB
:10565000FF90EF90DF90CF9008950F931F93A82FA6
:10566000B92F1296ED91FC911397218932890197F8
:105670008E5F9F4F18F02FEF3FEF1EC0022F132FAA
:105680008A2F9B2F0E94E256802F912F409660E038
:1056900070E040E050E020E030E00E947629802F6A
:1056A000912F829660E070E040E050E020E030E032
:1056B0000E94762920E030E0822F932F1F910F91D6
:1056C0000895AF92BF92CF92DF92EF92FF920F9325
:1056D0001F93CF93DF93A82EB92EE42EF52EE82F3B
:1056E000F92FC189D28983E0C82ED12CC422D522BA
:1056F000C114D10489F08C2F9D2F409660E470E096
:1057000048E250E028E330E00E947629892BA9F492
:10571000F1E0CF16D104A1F08C2F9D2F829660E08E
:1057200071E040ED50E020EF30E00E947629892BB7
:1057300039F08C899D890E94E2560FEF1FEF33C02C
:1057400086E090E00E94E956E82FF92F0E2F1F2FD8
:105750000115110539F48C899D890E94E2568EA1AC
:105760009FA1E9CF80E090ECE822F922888199811D
:10577000AA81BB8120E0E21620E8F20611F48F77BF
:1057800001C0806888839983AA83BB8311821082B9
:10579000B382A2821582148281E0C816D10419F066
:1057A000EBADFCAD0995802F912FDF91CF911F912B
:1057B0000F91FF90EF90DF90CF90BF90AF90089542
:1057C000CF92DF92EF92FF920F931F93CF93DF93CD
:1057D000C82FD92FC42ED52E0FB6F8940F928A8DCC
:1057E0009B8D860F971F9B8F8A8F0A8D1B8D0F9025
:1057F0000FBE90E2E92EF12CEC0EFD1E14C0E9ADB7
:10580000FAAD09954C855D856E857F858E2D9F2D22
:105810000E94391D892B51F40FB6F8940F920A8D0E
:105820001B8D0F900FBEC016D10648F3802F912F0D
:10583000DF91CF911F910F91FF90EF90DF90CF906C
:1058400008958F929F92AF92BF92CF92DF92EF9284
:10585000FF920F931F93DF93CF9300D0CDB7DEB7A6
:10586000062F172FA42EB52EC22ED32EA82FB92F58
:1058700051968D909C905297E82DF92D808D918DA9
:10588000892B19F40FEF1FEFBDC06115710559F495
:10589000882D992D60E070E040E050E00E94E02B00
:1058A000082F192FAFC0E82DF92D80819181A28199
:1058B000B381282F392F4A2F5B2F69E056954795E2
:1058C000379527956A95D1F7F22FF170FA8327E083
:1058D000B695A795979587952A95D1F7282F21708A
:1058E00029830FB6F8940F92A82DB92D5A964D9191
:1058F0005C915B970F900FBEE02EF12E00E010E060
:1059000060E070E064C0262F372F240F351FE82D8C
:10591000F92D868D978D28173907A0F0448D558D68
:10592000882D992D0E94E02B482F592FA82DB92D95
:105930005C968D919C915D978417950708F462C0E1
:1059400060E070E0C114D10429F0EE2DFF2DC89560
:10595000802D03C0AE2DBF2D8C91B981B13069F47B
:105960008A3081F4EA81E13021F4F2E0FA83F983AC
:1059700002C022E029838DE00AC09981923011F49F
:10598000A1E0A9830894E11CF11C0F5F1F4FA82D13
:10599000B92D5096ED91FC91519781935196FC93BE
:1059A000EE93509750962D913C91519756968D912C
:1059B0009C9157972817390741F454968D919C91E3
:1059C000559751969C938E9350976F5F7F4F0A1512
:1059D0001B050CF498CF61157105A1F00FB6F89472
:1059E0000F92E82DF92D828D938D680F791F738F9B
:1059F000628F0F900FBEA82DB92DD996ED91FC9115
:105A0000DA970995802F912F0F900F90CF91DF910A
:105A10001F910F91FF90EF90DF90CF90BF90AF90CC
:105A20009F908F900895E82FF92F8281938121E034
:105A300030E00E94212C0895E82FF92F8281938174
:105A400020E030E00E94212C0895AF92BF92CF92C7
:105A5000DF92EF92FF920F931F93CF93DF93C62EA7
:105A6000D72EA42EB52EA82FB92F1296ED91FC910A
:105A70001397C189D2896AA57BA56115710519F4AF
:105A80002FEF3FEFA3C0C114D10469F44EA55FA569
:105A900028A939A98C2F9D2F82960E947629EBADDB
:105AA000FCAD09951BC00C2F1D2F0E5C1F4F0FB6B0
:105AB000F8940F92ECA4FDA40F900FBEE114F10432
:105AC00081F4EBADFCAD0995488559856A857B85E8
:105AD000802F912F0E94391D892B49F320E030E05F
